{
  "_format": "hh-sol-artifact-1",
  "contractName": "InsurancePool",
  "sourceName": "contracts/InsurancePool.sol",
  "abi": [
    {
      "anonymous": false,
      "inputs": [
        {
          "indexed": true,
          "internalType": "address",
          "name": "owner",
          "type": "address"
        },
        {
          "indexed": true,
          "internalType": "address",
          "name": "spender",
          "type": "address"
        },
        {
          "indexed": false,
          "internalType": "uint256",
          "name": "value",
          "type": "uint256"
        }
      ],
      "name": "Approval",
      "type": "event"
    },
    {
      "anonymous": false,
      "inputs": [
        {
          "indexed": false,
          "internalType": "uint256",
          "name": "amount",
          "type": "uint256"
        },
        {
          "indexed": false,
          "internalType": "uint256",
          "name": "allValue",
          "type": "uint256"
        }
      ],
      "name": "Negative",
      "type": "event"
    },
    {
      "anonymous": false,
      "inputs": [
        {
          "indexed": true,
          "internalType": "address",
          "name": "from",
          "type": "address"
        },
        {
          "indexed": true,
          "internalType": "address",
          "name": "to",
          "type": "address"
        },
        {
          "indexed": false,
          "internalType": "uint256",
          "name": "value",
          "type": "uint256"
        }
      ],
      "name": "Transfer",
      "type": "event"
    },
    {
      "inputs": [],
      "name": "_ethIns",
      "outputs": [
        {
          "internalType": "bool",
          "name": "",
          "type": "bool"
        }
      ],
      "stateMutability": "view",
      "type": "function"
    },
    {
      "inputs": [],
      "name": "_feeRate",
      "outputs": [
        {
          "internalType": "uint256",
          "name": "",
          "type": "uint256"
        }
      ],
      "stateMutability": "view",
      "type": "function"
    },
    {
      "inputs": [],
      "name": "_flag",
      "outputs": [
        {
          "internalType": "uint8",
          "name": "",
          "type": "uint8"
        }
      ],
      "stateMutability": "view",
      "type": "function"
    },
    {
      "inputs": [],
      "name": "_governance",
      "outputs": [
        {
          "internalType": "address",
          "name": "",
          "type": "address"
        }
      ],
      "stateMutability": "view",
      "type": "function"
    },
    {
      "inputs": [],
      "name": "_insNegative",
      "outputs": [
        {
          "internalType": "uint256",
          "name": "",
          "type": "uint256"
        }
      ],
      "stateMutability": "view",
      "type": "function"
    },
    {
      "inputs": [],
      "name": "_latestTime",
      "outputs": [
        {
          "internalType": "uint256",
          "name": "",
          "type": "uint256"
        }
      ],
      "stateMutability": "view",
      "type": "function"
    },
    {
      "inputs": [],
      "name": "_mortgagePool",
      "outputs": [
        {
          "internalType": "address",
          "name": "",
          "type": "address"
        }
      ],
      "stateMutability": "view",
      "type": "function"
    },
    {
      "inputs": [],
      "name": "_pTokenAddress",
      "outputs": [
        {
          "internalType": "address",
          "name": "",
          "type": "address"
        }
      ],
      "stateMutability": "view",
      "type": "function"
    },
    {
      "inputs": [],
      "name": "_redemptionCycle",
      "outputs": [
        {
          "internalType": "uint256",
          "name": "",
          "type": "uint256"
        }
      ],
      "stateMutability": "view",
      "type": "function"
    },
    {
      "inputs": [],
      "name": "_underlyingTokenAddress",
      "outputs": [
        {
          "internalType": "address",
          "name": "",
          "type": "address"
        }
      ],
      "stateMutability": "view",
      "type": "function"
    },
    {
      "inputs": [],
      "name": "_waitCycle",
      "outputs": [
        {
          "internalType": "uint256",
          "name": "",
          "type": "uint256"
        }
      ],
      "stateMutability": "view",
      "type": "function"
    },
    {
      "inputs": [],
      "name": "addETH",
      "outputs": [],
      "stateMutability": "payable",
      "type": "function"
    },
    {
      "inputs": [
        {
          "internalType": "address",
          "name": "tokenAddress",
          "type": "address"
        },
        {
          "internalType": "uint256",
          "name": "amount",
          "type": "uint256"
        }
      ],
      "name": "addToken",
      "outputs": [],
      "stateMutability": "nonpayable",
      "type": "function"
    },
    {
      "inputs": [
        {
          "internalType": "address",
          "name": "spender",
          "type": "address"
        },
        {
          "internalType": "uint256",
          "name": "value",
          "type": "uint256"
        }
      ],
      "name": "approve",
      "outputs": [
        {
          "internalType": "bool",
          "name": "",
          "type": "bool"
        }
      ],
      "stateMutability": "nonpayable",
      "type": "function"
    },
    {
      "inputs": [],
      "name": "decimals",
      "outputs": [
        {
          "internalType": "uint8",
          "name": "",
          "type": "uint8"
        }
      ],
      "stateMutability": "view",
      "type": "function"
    },
    {
      "inputs": [
        {
          "internalType": "address",
          "name": "spender",
          "type": "address"
        },
        {
          "internalType": "uint256",
          "name": "subtractedValue",
          "type": "uint256"
        }
      ],
      "name": "decreaseAllowance",
      "outputs": [
        {
          "internalType": "bool",
          "name": "",
          "type": "bool"
        }
      ],
      "stateMutability": "nonpayable",
      "type": "function"
    },
    {
      "inputs": [
        {
          "internalType": "uint256",
          "name": "amount",
          "type": "uint256"
        }
      ],
      "name": "destroyPToken",
      "outputs": [],
      "stateMutability": "nonpayable",
      "type": "function"
    },
    {
      "inputs": [],
      "name": "eliminate",
      "outputs": [],
      "stateMutability": "nonpayable",
      "type": "function"
    },
    {
      "inputs": [
        {
          "internalType": "uint256",
          "name": "amount",
          "type": "uint256"
        }
      ],
      "name": "exchangePTokenToUnderlying",
      "outputs": [],
      "stateMutability": "nonpayable",
      "type": "function"
    },
    {
      "inputs": [
        {
          "internalType": "uint256",
          "name": "amount",
          "type": "uint256"
        }
      ],
      "name": "exchangeUnderlyingToPToken",
      "outputs": [],
      "stateMutability": "payable",
      "type": "function"
    },
    {
      "inputs": [
        {
          "internalType": "address",
          "name": "user",
          "type": "address"
        }
      ],
      "name": "getAllLP",
      "outputs": [
        {
          "internalType": "uint256",
          "name": "",
          "type": "uint256"
        }
      ],
      "stateMutability": "view",
      "type": "function"
    },
    {
      "inputs": [
        {
          "internalType": "address",
          "name": "add",
          "type": "address"
        }
      ],
      "name": "getBalances",
      "outputs": [
        {
          "internalType": "uint256",
          "name": "",
          "type": "uint256"
        }
      ],
      "stateMutability": "view",
      "type": "function"
    },
    {
      "inputs": [
        {
          "internalType": "address",
          "name": "inputToken",
          "type": "address"
        },
        {
          "internalType": "uint256",
          "name": "inputTokenAmount",
          "type": "uint256"
        },
        {
          "internalType": "address",
          "name": "outputToken",
          "type": "address"
        }
      ],
      "name": "getDecimalConversion",
      "outputs": [
        {
          "internalType": "uint256",
          "name": "",
          "type": "uint256"
        }
      ],
      "stateMutability": "view",
      "type": "function"
    },
    {
      "inputs": [
        {
          "internalType": "address",
          "name": "add",
          "type": "address"
        }
      ],
      "name": "getFrozenIns",
      "outputs": [
        {
          "internalType": "uint256",
          "name": "",
          "type": "uint256"
        },
        {
          "internalType": "uint256",
          "name": "",
          "type": "uint256"
        }
      ],
      "stateMutability": "view",
      "type": "function"
    },
    {
      "inputs": [
        {
          "internalType": "address",
          "name": "add",
          "type": "address"
        }
      ],
      "name": "getFrozenInsInTime",
      "outputs": [
        {
          "internalType": "uint256",
          "name": "",
          "type": "uint256"
        }
      ],
      "stateMutability": "view",
      "type": "function"
    },
    {
      "inputs": [],
      "name": "getLPStakingMiningPool",
      "outputs": [
        {
          "internalType": "address",
          "name": "",
          "type": "address"
        }
      ],
      "stateMutability": "view",
      "type": "function"
    },
    {
      "inputs": [
        {
          "internalType": "address",
          "name": "add",
          "type": "address"
        }
      ],
      "name": "getRedemptionAmount",
      "outputs": [
        {
          "internalType": "uint256",
          "name": "",
          "type": "uint256"
        }
      ],
      "stateMutability": "view",
      "type": "function"
    },
    {
      "inputs": [],
      "name": "getRedemptionTime",
      "outputs": [
        {
          "internalType": "uint256",
          "name": "startTime",
          "type": "uint256"
        },
        {
          "internalType": "uint256",
          "name": "endTime",
          "type": "uint256"
        }
      ],
      "stateMutability": "view",
      "type": "function"
    },
    {
      "inputs": [],
      "name": "getRedemptionTimeFront",
      "outputs": [
        {
          "internalType": "uint256",
          "name": "startTime",
          "type": "uint256"
        },
        {
          "internalType": "uint256",
          "name": "endTime",
          "type": "uint256"
        }
      ],
      "stateMutability": "view",
      "type": "function"
    },
    {
      "inputs": [],
      "name": "getTotalSupply",
      "outputs": [
        {
          "internalType": "uint256",
          "name": "",
          "type": "uint256"
        }
      ],
      "stateMutability": "view",
      "type": "function"
    },
    {
      "inputs": [
        {
          "internalType": "address",
          "name": "spender",
          "type": "address"
        },
        {
          "internalType": "uint256",
          "name": "addedValue",
          "type": "uint256"
        }
      ],
      "name": "increaseAllowance",
      "outputs": [
        {
          "internalType": "bool",
          "name": "",
          "type": "bool"
        }
      ],
      "stateMutability": "nonpayable",
      "type": "function"
    },
    {
      "inputs": [
        {
          "internalType": "address",
          "name": "governance",
          "type": "address"
        }
      ],
      "name": "initialize",
      "outputs": [],
      "stateMutability": "nonpayable",
      "type": "function"
    },
    {
      "inputs": [],
      "name": "name",
      "outputs": [
        {
          "internalType": "string",
          "name": "",
          "type": "string"
        }
      ],
      "stateMutability": "view",
      "type": "function"
    },
    {
      "inputs": [
        {
          "internalType": "uint256",
          "name": "amount",
          "type": "uint256"
        }
      ],
      "name": "redemptionIns",
      "outputs": [],
      "stateMutability": "nonpayable",
      "type": "function"
    },
    {
      "inputs": [
        {
          "internalType": "bool",
          "name": "isETHIns",
          "type": "bool"
        }
      ],
      "name": "setETHIns",
      "outputs": [],
      "stateMutability": "nonpayable",
      "type": "function"
    },
    {
      "inputs": [
        {
          "internalType": "uint256",
          "name": "num",
          "type": "uint256"
        }
      ],
      "name": "setFeeRate",
      "outputs": [],
      "stateMutability": "nonpayable",
      "type": "function"
    },
    {
      "inputs": [
        {
          "internalType": "uint8",
          "name": "num",
          "type": "uint8"
        }
      ],
      "name": "setFlag",
      "outputs": [],
      "stateMutability": "nonpayable",
      "type": "function"
    },
    {
      "inputs": [
        {
          "internalType": "address",
          "name": "uToken",
          "type": "address"
        },
        {
          "internalType": "address",
          "name": "pToken",
          "type": "address"
        }
      ],
      "name": "setInfo",
      "outputs": [],
      "stateMutability": "nonpayable",
      "type": "function"
    },
    {
      "inputs": [
        {
          "internalType": "address",
          "name": "add",
          "type": "address"
        }
      ],
      "name": "setLPStakingMiningPool",
      "outputs": [],
      "stateMutability": "nonpayable",
      "type": "function"
    },
    {
      "inputs": [],
      "name": "setLatestTime",
      "outputs": [],
      "stateMutability": "nonpayable",
      "type": "function"
    },
    {
      "inputs": [
        {
          "internalType": "uint256",
          "name": "num",
          "type": "uint256"
        }
      ],
      "name": "setLatestTime",
      "outputs": [],
      "stateMutability": "nonpayable",
      "type": "function"
    },
    {
      "inputs": [
        {
          "internalType": "address",
          "name": "add",
          "type": "address"
        }
      ],
      "name": "setMortgagePool",
      "outputs": [],
      "stateMutability": "nonpayable",
      "type": "function"
    },
    {
      "inputs": [
        {
          "internalType": "uint256",
          "name": "num",
          "type": "uint256"
        }
      ],
      "name": "setRedemptionCycle",
      "outputs": [],
      "stateMutability": "nonpayable",
      "type": "function"
    },
    {
      "inputs": [
        {
          "internalType": "string",
          "name": "_name",
          "type": "string"
        },
        {
          "internalType": "string",
          "name": "_symbol",
          "type": "string"
        }
      ],
      "name": "setTokenInfo",
      "outputs": [],
      "stateMutability": "nonpayable",
      "type": "function"
    },
    {
      "inputs": [
        {
          "internalType": "uint256",
          "name": "num",
          "type": "uint256"
        }
      ],
      "name": "setWaitCycle",
      "outputs": [],
      "stateMutability": "nonpayable",
      "type": "function"
    },
    {
      "inputs": [
        {
          "internalType": "uint256",
          "name": "amount",
          "type": "uint256"
        }
      ],
      "name": "subscribeIns",
      "outputs": [],
      "stateMutability": "payable",
      "type": "function"
    },
    {
      "inputs": [],
      "name": "symbol",
      "outputs": [
        {
          "internalType": "string",
          "name": "",
          "type": "string"
        }
      ],
      "stateMutability": "view",
      "type": "function"
    },
    {
      "inputs": [],
      "name": "totalSupply",
      "outputs": [
        {
          "internalType": "uint256",
          "name": "",
          "type": "uint256"
        }
      ],
      "stateMutability": "view",
      "type": "function"
    },
    {
      "inputs": [
        {
          "internalType": "address",
          "name": "to",
          "type": "address"
        },
        {
          "internalType": "uint256",
          "name": "value",
          "type": "uint256"
        }
      ],
      "name": "transfer",
      "outputs": [
        {
          "internalType": "bool",
          "name": "",
          "type": "bool"
        }
      ],
      "stateMutability": "nonpayable",
      "type": "function"
    },
    {
      "inputs": [
        {
          "internalType": "address",
          "name": "from",
          "type": "address"
        },
        {
          "internalType": "address",
          "name": "to",
          "type": "address"
        },
        {
          "internalType": "uint256",
          "name": "value",
          "type": "uint256"
        }
      ],
      "name": "transferFrom",
      "outputs": [
        {
          "internalType": "bool",
          "name": "",
          "type": "bool"
        }
      ],
      "stateMutability": "nonpayable",
      "type": "function"
    },
    {
      "inputs": [
        {
          "internalType": "address",
          "name": "newGovernance",
          "type": "address"
        }
      ],
      "name": "update",
      "outputs": [],
      "stateMutability": "nonpayable",
      "type": "function"
    },
    {
      "inputs": [],
      "name": "updateLatestTime",
      "outputs": [],
      "stateMutability": "nonpayable",
      "type": "function"
    }
  ],
  "bytecode": "0x608060405234801561001057600080fd5b50613df7806100206000396000f3fe60806040526004361061033f5760003560e01c80637ea69a84116101b0578063c4d66de8116100ec578063d8fa103411610095578063de67ae411161006f578063de67ae4114610921578063f544d25b14610941578063f908159114610961578063fb606f921461098157600080fd5b8063d8fa1034146108eb578063da262f5814610901578063dad6dab3146103f657600080fd5b8063c87814a6116100c6578063c87814a614610891578063cd32045e146108b1578063cf9a197d146108d157600080fd5b8063c4d66de814610826578063c4e41b2214610846578063c84aae171461085b57600080fd5b8063a65e08ff11610159578063b1bb11d711610133578063b1bb11d7146107d1578063b2131f7d146107e6578063b7694a93146107fc578063bbacf92b1461081157600080fd5b8063a65e08ff1461077b578063a9059cbb14610791578063af81c5b9146107b157600080fd5b80639972585c1161018a5780639972585c14610725578063a457c2d71461073b578063a5831a621461075b57600080fd5b80637ea69a84146106d05780638a13c54c146106f057806395d89b411461071057600080fd5b806334e23ad71161027f57806347f6670f1161022857806364af87921161020257806364af87921461062357806364fb4fc7146106435780637120a88b146106965780637e4d4734146106b657600080fd5b806347f6670f146105da57806351804a6e146105f0578063646475ef1461061057600080fd5b80633d5e3f50116102595780633d5e3f501461057a57806341ad98821461059a57806345596e2e146105ba57600080fd5b806334e23ad71461051d57806335dbfde214610547578063395093511461055a57600080fd5b80631a8d3f8b116102ec57806322d8a580116102c657806322d8a5801461049157806323b872dd146104b15780632503f73f146104d1578063313ce567146104f157600080fd5b80631a8d3f8b146104315780631c1b8772146104515780631c2f3e3d1461047157600080fd5b8063105259231161031d57806310525923146103d657806314ec1c6b146103f857806318160ddd1461040d57600080fd5b806306fdde0314610344578063095ea7b31461036f5780630b0289f61461039f575b600080fd5b34801561035057600080fd5b506103596109a1565b6040516103669190613aa9565b60405180910390f35b34801561037b57600080fd5b5061038f61038a366004613928565b610a2f565b6040519015158152602001610366565b3480156103ab57600080fd5b50600e5461010090046001600160a01b03165b6040516001600160a01b039091168152602001610366565b3480156103e257600080fd5b506103f66103f1366004613a25565b610aaa565b005b34801561040457600080fd5b506103f6610be0565b34801561041957600080fd5b50610423600f5481565b604051908152602001610366565b34801561043d57600080fd5b506103f661044c366004613a25565b610cc0565b34801561045d57600080fd5b506103f661046c36600461389a565b610df1565b34801561047d57600080fd5b506001546103be906001600160a01b031681565b34801561049d57600080fd5b506103f66104ac366004613a25565b610f0b565b3480156104bd57600080fd5b5061038f6104cc3660046138ed565b611162565b3480156104dd57600080fd5b506104236104ec36600461389a565b611224565b3480156104fd57600080fd5b5060125461050b9060ff1681565b60405160ff9091168152602001610366565b34801561052957600080fd5b506105326112e9565b60408051928352602083019190915201610366565b6103f6610555366004613a25565b61135b565b34801561056657600080fd5b5061038f610575366004613928565b611718565b34801561058657600080fd5b506103f6610595366004613a25565b6117b3565b3480156105a657600080fd5b50600a546103be906001600160a01b031681565b3480156105c657600080fd5b506103f66105d5366004613a25565b6119a8565b3480156105e657600080fd5b50610423600c5481565b3480156105fc57600080fd5b506008546103be906001600160a01b031681565b6103f661061e366004613a25565b611a7b565b34801561062f57600080fd5b5061042361063e36600461389a565b611f3c565b34801561064f57600080fd5b5061053261065e36600461389a565b6001600160a01b0316600090815260056020908152604091829020825180840190935280548084526001909101549290910182905291565b3480156106a257600080fd5b506103f66106b1366004613a55565b611f85565b3480156106c257600080fd5b50600e5461038f9060ff1681565b3480156106dc57600080fd5b506103f66106eb36600461389a565b612069565b3480156106fc57600080fd5b506009546103be906001600160a01b031681565b34801561071c57600080fd5b50610359612171565b34801561073157600080fd5b5061042360035481565b34801561074757600080fd5b5061038f610756366004613928565b61217e565b34801561076757600080fd5b506103f6610776366004613a25565b6121c2565b34801561078757600080fd5b5061042360025481565b34801561079d57600080fd5b5061038f6107ac366004613928565b61263e565b3480156107bd57600080fd5b506103f66107cc366004613928565b612654565b3480156107dd57600080fd5b50610532612664565b3480156107f257600080fd5b50610423600d5481565b34801561080857600080fd5b506103f66126ba565b34801561081d57600080fd5b506103f66128f8565b34801561083257600080fd5b506103f661084136600461389a565b612949565b34801561085257600080fd5b50600f54610423565b34801561086757600080fd5b5061042361087636600461389a565b6001600160a01b031660009081526006602052604090205490565b34801561089d57600080fd5b506104236108ac36600461389a565b6129bf565b3480156108bd57600080fd5b506103f66108cc36600461389a565b612a24565b3480156108dd57600080fd5b5060045461050b9060ff1681565b3480156108f757600080fd5b50610423600b5481565b34801561090d57600080fd5b506103f661091c3660046139c4565b612b31565b34801561092d57600080fd5b506103f661093c366004613a25565b612c26565b34801561094d57600080fd5b506103f661095c36600461398c565b612cf4565b34801561096d57600080fd5b5061042361097c366004613951565b612dd5565b34801561098d57600080fd5b506103f661099c3660046138bb565b612f1a565b601080546109ae90613cf2565b80601f01602080910402602001604051908101604052809291908181526020018280546109da90613cf2565b8015610a275780601f106109fc57610100808354040283529160200191610a27565b820191906000526020600020905b815481529060010190602001808311610a0a57829003601f168201915b505050505081565b60006001600160a01b038316610a4457600080fd5b3360008181526007602090815260408083206001600160a01b03881680855290835292819020869055518581529192917f8c5be1e5ebec7d5bd14f71427d1e84f3dd0314c0f7b2291e5b200ac8c7c3b92591015b60405180910390a35060015b92915050565b6001546040516391e1472b60e01b8152336004820152600060248201526001600160a01b03909116906391e1472b9060440160206040518083038186803b158015610af457600080fd5b505afa158015610b08573d6000803e3d6000fd5b505050506040513d601f19601f82011682018060405250810190610b2c91906139a8565b610b7d5760405162461bcd60e51b815260206004820152601560248201527f4c6f673a5061726173736574426173653a21676f76000000000000000000000060448201526064015b60405180910390fd5b60008111610bcd5760405162461bcd60e51b815260206004820152601760248201527f4c6f673a496e737572616e6365506f6f6c3a217a65726f0000000000000000006044820152606401610b74565b610bda8162015180613c72565b600c5550565b6001546040516391e1472b60e01b8152336004820152600060248201526001600160a01b03909116906391e1472b9060440160206040518083038186803b158015610c2a57600080fd5b505afa158015610c3e573d6000803e3d6000fd5b505050506040513d601f19601f82011682018060405250810190610c6291906139a8565b610cae5760405162461bcd60e51b815260206004820152601560248201527f4c6f673a5061726173736574426173653a21676f7600000000000000000000006044820152606401610b74565b600c54610cbb9042613afa565b600355565b6001546040516391e1472b60e01b8152336004820152600060248201526001600160a01b03909116906391e1472b9060440160206040518083038186803b158015610d0a57600080fd5b505afa158015610d1e573d6000803e3d6000fd5b505050506040513d601f19601f82011682018060405250810190610d4291906139a8565b610d8e5760405162461bcd60e51b815260206004820152601560248201527f4c6f673a5061726173736574426173653a21676f7600000000000000000000006044820152606401610b74565b60008111610dde5760405162461bcd60e51b815260206004820152601760248201527f4c6f673a496e737572616e6365506f6f6c3a217a65726f0000000000000000006044820152606401610b74565b610deb8162015180613c72565b600b5550565b6001546001600160a01b031633811480610e8457506040516391e1472b60e01b8152336004820152600060248201526001600160a01b038216906391e1472b9060440160206040518083038186803b158015610e4c57600080fd5b505afa158015610e60573d6000803e3d6000fd5b505050506040513d601f19601f82011682018060405250810190610e8491906139a8565b610ed05760405162461bcd60e51b815260206004820152601560248201527f4c6f673a5061726173736574426173653a21676f7600000000000000000000006044820152606401610b74565b50600180547fffffffffffffffffffffffff0000000000000000000000000000000000000000166001600160a01b0392909216919091179055565b600a546001600160a01b03163314610f655760405162461bcd60e51b815260206004820152601f60248201527f4c6f673a496e737572616e6365506f6f6c3a216d6f727467616765506f6f6c006044820152606401610b74565b6008546040517f70a082310000000000000000000000000000000000000000000000000000000081523060048201526001600160a01b039091169060009082906370a082319060240160206040518083038186803b158015610fc657600080fd5b505afa158015610fda573d6000803e3d6000fd5b505050506040513d601f19601f82011682018060405250810190610ffe9190613a3d565b9050828110611085576040517f8dec3daa000000000000000000000000000000000000000000000000000000008152600481018490523060248201526001600160a01b03831690638dec3daa90604401600060405180830381600087803b15801561106857600080fd5b505af115801561107c573d6000803e3d6000fd5b50505050505050565b6040517f8dec3daa000000000000000000000000000000000000000000000000000000008152600481018290523060248201526001600160a01b03831690638dec3daa90604401600060405180830381600087803b1580156110e657600080fd5b505af11580156110fa573d6000803e3d6000fd5b505050506000818461110c9190613caf565b90508060025461111c9190613afa565b60028190556040805183815260208101929092527f852905f8d78f14c11a72099edd327ae8e53225b522100935a3fd5f9b8d96ce3f910160405180910390a1505b505050565b6001600160a01b0383166000908152600760209081526040808320338452909152812054611191908390613caf565b6001600160a01b03851660009081526007602090815260408083203384529091529020556111c084848461302e565b6001600160a01b038416600081815260076020908152604080832033808552908352928190205490519081529192917f8c5be1e5ebec7d5bd14f71427d1e84f3dd0314c0f7b2291e5b200ac8c7c3b925910160405180910390a35060019392505050565b600e546040517fd4fac45d0000000000000000000000000000000000000000000000000000000081523060048201526001600160a01b0383811660248301526000926101009004169063d4fac45d9060440160206040518083038186803b15801561128e57600080fd5b505afa1580156112a2573d6000803e3d6000fd5b505050506040513d601f19601f820116820180604052508101906112c69190613a3d565b6001600160a01b038316600090815260066020526040902054610aa49190613afa565b600080600060035490508042111561133757600c5460009061130b8342613caf565b6113159190613b12565b905080600c546113259190613c72565b61132f9083613afa565b935050611347565b600c546113449082613caf565b92505b600b546113549084613afa565b9150509091565b60045460ff166001146113b05760405162461bcd60e51b815260206004820152601960248201527f4c6f673a496e737572616e6365506f6f6c3a21616374697665000000000000006044820152606401610b74565b600260005414156114035760405162461bcd60e51b815260206004820152601f60248201527f5265656e7472616e637947756172643a207265656e7472616e742063616c6c006044820152606401610b74565b6002600055806114555760405162461bcd60e51b815260206004820152601960248201527f4c6f673a496e737572616e6365506f6f6c3a21616d6f756e74000000000000006044820152606401610b74565b60006103e8600d54836114689190613c72565b6114729190613b12565b600e5490915060ff16156114d4578134146114cf5760405162461bcd60e51b815260206004820152601c60248201527f4c6f673a496e737572616e6365506f6f6c3a216d73672e76616c7565000000006044820152606401610b74565b61153a565b34156115225760405162461bcd60e51b815260206004820152601e60248201527f4c6f673a496e737572616e6365506f6f6c3a6d73672e76616c7565213d3000006044820152606401610b74565b60095461153a906001600160a01b031633308561317f565b600954600090611568906001600160a01b03166115578486613caf565b6008546001600160a01b0316612dd5565b9050600081116115ba5760405162461bcd60e51b815260206004820152601f60248201527f4c6f673a496e737572616e6365506f6f6c3a2170546f6b656e416d6f756e74006044820152606401610b74565b6008546040517f70a082310000000000000000000000000000000000000000000000000000000081523060048201526000916001600160a01b0316906370a082319060240160206040518083038186803b15801561161757600080fd5b505afa15801561162b573d6000803e3d6000fd5b505050506040513d601f19601f8201168201806040525081019061164f9190613a3d565b9050818110156116f65760006116658284613caf565b6008546040517f9d8ed858000000000000000000000000000000000000000000000000000000008152600481018390523060248201529192506001600160a01b031690639d8ed85890604401600060405180830381600087803b1580156116cb57600080fd5b505af11580156116df573d6000803e3d6000fd5b50505050806002546116f19190613afa565b600255505b60085461170d906001600160a01b031633846132f6565b505060016000555050565b60006001600160a01b03831661172d57600080fd5b3360009081526007602090815260408083206001600160a01b038716845290915290205461175c908390613afa565b3360008181526007602090815260408083206001600160a01b038916808552908352928190208590555193845290927f8c5be1e5ebec7d5bd14f71427d1e84f3dd0314c0f7b2291e5b200ac8c7c3b9259101610a98565b60045460ff166001146118085760405162461bcd60e51b815260206004820152601960248201527f4c6f673a496e737572616e6365506f6f6c3a21616374697665000000000000006044820152606401610b74565b6002600054141561185b5760405162461bcd60e51b815260206004820152601f60248201527f5265656e7472616e637947756172643a207265656e7472616e742063616c6c006044820152606401610b74565b6002600055806118ad5760405162461bcd60e51b815260206004820152601960248201527f4c6f673a496e737572616e6365506f6f6c3a21616d6f756e74000000000000006044820152606401610b74565b60006103e8600d54836118c09190613c72565b6118ca9190613b12565b6008549091506118e5906001600160a01b031633308561317f565b600854600090611913906001600160a01b03166119028486613caf565b6009546001600160a01b0316612dd5565b9050600081116119655760405162461bcd60e51b815260206004820152601f60248201527f4c6f673a496e737572616e6365506f6f6c3a2175546f6b656e416d6f756e74006044820152606401610b74565b600e5460ff161561197f5761197a338261343f565b611996565b600954611996906001600160a01b031633836132f6565b61199e6126ba565b5050600160005550565b6001546040516391e1472b60e01b8152336004820152600060248201526001600160a01b03909116906391e1472b9060440160206040518083038186803b1580156119f257600080fd5b505afa158015611a06573d6000803e3d6000fd5b505050506040513d601f19601f82011682018060405250810190611a2a91906139a8565b611a765760405162461bcd60e51b815260206004820152601560248201527f4c6f673a5061726173736574426173653a21676f7600000000000000000000006044820152606401610b74565b600d55565b60045460ff16600114611ad05760405162461bcd60e51b815260206004820152601960248201527f4c6f673a496e737572616e6365506f6f6c3a21616374697665000000000000006044820152606401610b74565b60026000541415611b235760405162461bcd60e51b815260206004820152601f60248201527f5265656e7472616e637947756172643a207265656e7472616e742063616c6c006044820152606401610b74565b600260005580611b755760405162461bcd60e51b815260206004820152601960248201527f4c6f673a496e737572616e6365506f6f6c3a21616d6f756e74000000000000006044820152606401610b74565b611b7d6128f8565b3360009081526005602052604090206001810154421115611b9d57600081555b6008546040517f70a082310000000000000000000000000000000000000000000000000000000081523060048201526000916001600160a01b0316906370a082319060240160206040518083038186803b158015611bfa57600080fd5b505afa158015611c0e573d6000803e3d6000fd5b505050506040513d601f19601f82011682018060405250810190611c329190613a3d565b600e5490915060009060ff1615611ca357833414611c925760405162461bcd60e51b815260206004820152601c60248201527f4c6f673a496e737572616e6365506f6f6c3a216d73672e76616c7565000000006044820152606401610b74565b611c9c8447613caf565b9050611d8d565b3415611cf15760405162461bcd60e51b815260206004820152601e60248201527f4c6f673a496e737572616e6365506f6f6c3a6d73672e76616c7565213d3000006044820152606401610b74565b6009546040517f70a08231000000000000000000000000000000000000000000000000000000008152306004820152611d8a916001600160a01b03169081906370a08231906024015b60206040518083038186803b158015611d5257600080fd5b505afa158015611d66573d6000803e3d6000fd5b505050506040513d601f19601f820116820180604052508101906115579190613a3d565b90505b600f5460009081611d9e8585613afa565b90508115611e6e576002548111611e1d5760405162461bcd60e51b815260206004820152602560248201527f4c6f673a496e737572616e6365506f6f6c3a616c6c42616c616e63654e6f744560448201527f6e6f7567680000000000000000000000000000000000000000000000000000006064820152608401610b74565b600060025482611e2d9190613caf565b60095460085491925082918591611e52916001600160a01b03918216918d9116612dd5565b611e5c9190613c72565b611e669190613b12565b935050611e8f565b600954600854611e8c916001600160a01b03908116918a9116612dd5565b92505b600e5460ff16611eff573415611ee75760405162461bcd60e51b815260206004820152601e60248201527f4c6f673a496e737572616e6365506f6f6c3a6d73672e76616c7565213d3000006044820152606401610b74565b600954611eff906001600160a01b031633308a61317f565b611f098333613522565b8554611f16908490613afa565b8655600c54600354611f289190613afa565b600196870155505050600092909255505050565b6001600160a01b03811660009081526005602090815260408083208151808301909252805482526001015491810182905290421115611f7e5750600092915050565b5192915050565b6001546040516391e1472b60e01b8152336004820152600060248201526001600160a01b03909116906391e1472b9060440160206040518083038186803b158015611fcf57600080fd5b505afa158015611fe3573d6000803e3d6000fd5b505050506040513d601f19601f8201168201806040525081019061200791906139a8565b6120535760405162461bcd60e51b815260206004820152601560248201527f4c6f673a5061726173736574426173653a21676f7600000000000000000000006044820152606401610b74565b6004805460ff191660ff92909216919091179055565b6001546040516391e1472b60e01b8152336004820152600060248201526001600160a01b03909116906391e1472b9060440160206040518083038186803b1580156120b357600080fd5b505afa1580156120c7573d6000803e3d6000fd5b505050506040513d601f19601f820116820180604052508101906120eb91906139a8565b6121375760405162461bcd60e51b815260206004820152601560248201527f4c6f673a5061726173736574426173653a21676f7600000000000000000000006044820152606401610b74565b600a80547fffffffffffffffffffffffff0000000000000000000000000000000000000000166001600160a01b0392909216919091179055565b601180546109ae90613cf2565b60006001600160a01b03831661219357600080fd5b3360009081526007602090815260408083206001600160a01b038716845290915290205461175c908390613caf565b60045460ff166122145760405162461bcd60e51b815260206004820152601460248201527f4c6f673a496e737572616e6365506f6f6c3a21300000000000000000000000006044820152606401610b74565b600260005414156122675760405162461bcd60e51b815260206004820152601f60248201527f5265656e7472616e637947756172643a207265656e7472616e742063616c6c006044820152606401610b74565b6002600055806122b95760405162461bcd60e51b815260206004820152601960248201527f4c6f673a496e737572616e6365506f6f6c3a21616d6f756e74000000000000006044820152606401610b74565b6122c16128f8565b600354600c546122d19082613caf565b42101580156122f95750600b54600c546122eb9083613caf565b6122f59190613afa565b4211155b6123455760405162461bcd60e51b815260206004820152601760248201527f4c6f673a496e737572616e6365506f6f6c3a2174696d650000000000000000006044820152606401610b74565b336000908152600560205260409020600181015442111561236557600081555b6008546040517f70a082310000000000000000000000000000000000000000000000000000000081523060048201526000916001600160a01b0316906370a082319060240160206040518083038186803b1580156123c257600080fd5b505afa1580156123d6573d6000803e3d6000fd5b505050506040513d601f19601f820116820180604052508101906123fa9190613a3d565b600e5490915060009060ff1615612412575047612462565b6009546040517f70a0823100000000000000000000000000000000000000000000000000000000815230600482015261245f916001600160a01b03169081906370a0823190602401611d3a565b90505b600061246e8383613afa565b905060025481116124e75760405162461bcd60e51b815260206004820152602560248201527f4c6f673a496e737572616e6365506f6f6c3a616c6c42616c616e63654e6f744560448201527f6e6f7567680000000000000000000000000000000000000000000000000000006064820152608401610b74565b6000600254826124f79190613caf565b600f5490915060008161250a848b613c72565b6125149190613b12565b905061252089336135b6565b865461252b33611224565b10156125795760405162461bcd60e51b815260206004820152601860248201527f4c6f673a496e737572616e6365506f6f6c3a66726f7a656e00000000000000006044820152606401610b74565b600e5460ff16156125c45780851061259a57612595338261343f565b61262e565b6125a4338661343f565b600854612595906001600160a01b0316336125bf8885613caf565b6132f6565b8085106125ef57600954600854612595916001600160a01b039081169133916125bf91168584612dd5565b600954600854612613916001600160a01b039081169133916125bf91168984612dd5565b60085461262e906001600160a01b0316336125bf8885613caf565b5050600160005550505050505050565b600061264b33848461302e565b50600192915050565b6126608233308461317f565b5050565b60008060006003549050804211156126aa57600c546000906126868342613caf565b6126909190613b12565b905061269d816001613afa565b600c546113259190613c72565b809250600b546113549084613afa565b6008546002546040517f70a082310000000000000000000000000000000000000000000000000000000081523060048201526001600160a01b039092169160009083906370a082319060240160206040518083038186803b15801561271e57600080fd5b505afa158015612732573d6000803e3d6000fd5b505050506040513d601f19601f820116820180604052508101906127569190613a3d565b90506000821180156127685750600081115b1561115d57808210612840576040517f8dec3daa000000000000000000000000000000000000000000000000000000008152600481018290523060248201526001600160a01b03841690638dec3daa90604401600060405180830381600087803b1580156127d557600080fd5b505af11580156127e9573d6000803e3d6000fd5b50505050806002546127fb9190613caf565b60028190556040805183815260208101929092527f852905f8d78f14c11a72099edd327ae8e53225b522100935a3fd5f9b8d96ce3f91015b60405180910390a1505050565b6040517f8dec3daa000000000000000000000000000000000000000000000000000000008152600481018390523060248201526001600160a01b03841690638dec3daa90604401600060405180830381600087803b1580156128a157600080fd5b505af11580156128b5573d6000803e3d6000fd5b5050600060028190556040805186815260208101929092527f852905f8d78f14c11a72099edd327ae8e53225b522100935a3fd5f9b8d96ce3f9350019050612833565b6003544281101561294657600c546000906129138342613caf565b61291d9190613b12565b905061292a816001613afa565b600c546129379190613c72565b6129419083613afa565b600355505b50565b612952816136aa565b610384600b55610708600c556002600d55600e805460ff191690556000600f8190556040805160208101918290528290526129909160109190613740565b506040805160208101918290526000908190526129af91601191613740565b50506012805460ff191681179055565b6001600160a01b038116600081815260056020908152604080832081518083018352815481526001909101548184019081529484526006909252822054925191929091421115612a10579392505050565b8151612a1c9082613caf565b949350505050565b6001546040516391e1472b60e01b8152336004820152600060248201526001600160a01b03909116906391e1472b9060440160206040518083038186803b158015612a6e57600080fd5b505afa158015612a82573d6000803e3d6000fd5b505050506040513d601f19601f82011682018060405250810190612aa691906139a8565b612af25760405162461bcd60e51b815260206004820152601560248201527f4c6f673a5061726173736574426173653a21676f7600000000000000000000006044820152606401610b74565b600e80546001600160a01b03909216610100027fffffffffffffffffffffff0000000000000000000000000000000000000000ff909216919091179055565b6001546040516391e1472b60e01b8152336004820152600060248201526001600160a01b03909116906391e1472b9060440160206040518083038186803b158015612b7b57600080fd5b505afa158015612b8f573d6000803e3d6000fd5b505050506040513d601f19601f82011682018060405250810190612bb391906139a8565b612bff5760405162461bcd60e51b815260206004820152601560248201527f4c6f673a5061726173736574426173653a21676f7600000000000000000000006044820152606401610b74565b8151612c12906010906020850190613740565b50805161115d906011906020840190613740565b6001546040516391e1472b60e01b8152336004820152600060248201526001600160a01b03909116906391e1472b9060440160206040518083038186803b158015612c7057600080fd5b505afa158015612c84573d6000803e3d6000fd5b505050506040513d601f19601f82011682018060405250810190612ca891906139a8565b610cbb5760405162461bcd60e51b815260206004820152601560248201527f4c6f673a5061726173736574426173653a21676f7600000000000000000000006044820152606401610b74565b6001546040516391e1472b60e01b8152336004820152600060248201526001600160a01b03909116906391e1472b9060440160206040518083038186803b158015612d3e57600080fd5b505afa158015612d52573d6000803e3d6000fd5b505050506040513d601f19601f82011682018060405250810190612d7691906139a8565b612dc25760405162461bcd60e51b815260206004820152601560248201527f4c6f673a5061726173736574426173653a21676f7600000000000000000000006044820152606401610b74565b600e805460ff1916911515919091179055565b60006012806001600160a01b03861615612e6057856001600160a01b031663313ce5676040518163ffffffff1660e01b815260040160206040518083038186803b158015612e2257600080fd5b505afa158015612e36573d6000803e3d6000fd5b505050506040513d601f19601f82011682018060405250810190612e5a9190613a71565b60ff1691505b6001600160a01b03841615612ee657836001600160a01b031663313ce5676040518163ffffffff1660e01b815260040160206040518083038186803b158015612ea857600080fd5b505afa158015612ebc573d6000803e3d6000fd5b505050506040513d601f19601f82011682018060405250810190612ee09190613a71565b60ff1690505b612ef182600a613bac565b612efc82600a613bac565b612f069087613c72565b612f109190613b12565b9695505050505050565b6001546040516391e1472b60e01b8152336004820152600060248201526001600160a01b03909116906391e1472b9060440160206040518083038186803b158015612f6457600080fd5b505afa158015612f78573d6000803e3d6000fd5b505050506040513d601f19601f82011682018060405250810190612f9c91906139a8565b612fe85760405162461bcd60e51b815260206004820152601560248201527f4c6f673a5061726173736574426173653a21676f7600000000000000000000006044820152606401610b74565b600980546001600160a01b039384167fffffffffffffffffffffffff00000000000000000000000000000000000000009182161790915560088054929093169116179055565b6130366128f8565b336000908152600560205260409020600181015442111561305657600081555b6001600160a01b03841660009081526006602052604090205461307a908390613caf565b6001600160a01b0380861660009081526006602052604080822093909355908516815220546130aa908390613afa565b6001600160a01b0380851660008181526006602052604090819020939093559151908616907fddf252ad1be2c89b69c2b068fc378daa952ba7f163c4a11628f55a4df523b3ef906130fe9086815260200190565b60405180910390a3600e546001600160a01b03848116610100909204161461317957805461312b33611224565b10156131795760405162461bcd60e51b815260206004820152601860248201527f4c6f673a496e737572616e6365506f6f6c3a66726f7a656e00000000000000006044820152606401610b74565b50505050565b604080516001600160a01b0385811660248301528481166044830152606480830185905283518084039091018152608490920183526020820180517bffffffffffffffffffffffffffffffffffffffffffffffffffffffff167f23b872dd0000000000000000000000000000000000000000000000000000000017905291516000928392908816916132119190613a8d565b6000604051808303816000865af19150503d806000811461324e576040519150601f19603f3d011682016040523d82523d6000602084013e613253565b606091505b509150915081801561327d57508051158061327d57508080602001905181019061327d91906139a8565b6132ee5760405162461bcd60e51b8152602060048201526024808201527f5472616e7366657248656c7065723a205452414e534645525f46524f4d5f464160448201527f494c4544000000000000000000000000000000000000000000000000000000006064820152608401610b74565b505050505050565b604080516001600160a01b038481166024830152604480830185905283518084039091018152606490920183526020820180517bffffffffffffffffffffffffffffffffffffffffffffffffffffffff167fa9059cbb0000000000000000000000000000000000000000000000000000000017905291516000928392908716916133809190613a8d565b6000604051808303816000865af19150503d80600081146133bd576040519150601f19603f3d011682016040523d82523d6000602084013e6133c2565b606091505b50915091508180156133ec5750805115806133ec5750808060200190518101906133ec91906139a8565b6134385760405162461bcd60e51b815260206004820152601f60248201527f5472616e7366657248656c7065723a205452414e534645525f4641494c4544006044820152606401610b74565b5050505050565b604080516000808252602082019092526001600160a01b0384169083906040516134699190613a8d565b60006040518083038185875af1925050503d80600081146134a6576040519150601f19603f3d011682016040523d82523d6000602084013e6134ab565b606091505b505090508061115d5760405162461bcd60e51b815260206004820152602360248201527f5472616e7366657248656c7065723a204554485f5452414e534645525f46414960448201527f4c454400000000000000000000000000000000000000000000000000000000006064820152608401610b74565b6001600160a01b038116600090815260066020526040902054613546908390613afa565b6001600160a01b038216600090815260066020526040902055600f5461356d908390613afa565b600f556040518281526001600160a01b038216906000907fddf252ad1be2c89b69c2b068fc378daa952ba7f163c4a11628f55a4df523b3ef906020015b60405180910390a35050565b6001600160a01b03811660009081526006602052604090205482111561361e5760405162461bcd60e51b815260206004820152601a60248201527f4c6f673a496e737572616e6365506f6f6c3a2164657374726f790000000000006044820152606401610b74565b6001600160a01b038116600090815260066020526040902054613642908390613caf565b6001600160a01b038216600090815260066020526040902055600f54613669908390613caf565b600f556040518281526000906001600160a01b038316907fddf252ad1be2c89b69c2b068fc378daa952ba7f163c4a11628f55a4df523b3ef906020016135aa565b6001546001600160a01b0316156137035760405162461bcd60e51b815260206004820152601b60248201527f4c6f673a50617261737365744261736521696e697469616c697a6500000000006044820152606401610b74565b600180547fffffffffffffffffffffffff0000000000000000000000000000000000000000166001600160a01b0392909216919091178155600055565b82805461374c90613cf2565b90600052602060002090601f01602090048101928261376e57600085556137b4565b82601f1061378757805160ff19168380011785556137b4565b828001600101855582156137b4579182015b828111156137b4578251825591602001919060010190613799565b506137c09291506137c4565b5090565b5b808211156137c057600081556001016137c5565b80356001600160a01b03811681146137f057600080fd5b919050565b600082601f830112613805578081fd5b813567ffffffffffffffff8082111561382057613820613d75565b604051601f83017fffffffffffffffffffffffffffffffffffffffffffffffffffffffffffffffe0908116603f0116810190828211818310171561386657613866613d75565b8160405283815286602085880101111561387e578485fd5b8360208701602083013792830160200193909352509392505050565b6000602082840312156138ab578081fd5b6138b4826137d9565b9392505050565b600080604083850312156138cd578081fd5b6138d6836137d9565b91506138e4602084016137d9565b90509250929050565b600080600060608486031215613901578081fd5b61390a846137d9565b9250613918602085016137d9565b9150604084013590509250925092565b6000806040838503121561393a578182fd5b613943836137d9565b946020939093013593505050565b600080600060608486031215613965578283fd5b61396e846137d9565b925060208401359150613983604085016137d9565b90509250925092565b60006020828403121561399d578081fd5b81356138b481613da4565b6000602082840312156139b9578081fd5b81516138b481613da4565b600080604083850312156139d6578182fd5b823567ffffffffffffffff808211156139ed578384fd5b6139f9868387016137f5565b93506020850135915080821115613a0e578283fd5b50613a1b858286016137f5565b9150509250929050565b600060208284031215613a36578081fd5b5035919050565b600060208284031215613a4e578081fd5b5051919050565b600060208284031215613a66578081fd5b81356138b481613db2565b600060208284031215613a82578081fd5b81516138b481613db2565b60008251613a9f818460208701613cc6565b9190910192915050565b6020815260008251806020840152613ac8816040850160208701613cc6565b601f017fffffffffffffffffffffffffffffffffffffffffffffffffffffffffffffffe0169190910160400192915050565b60008219821115613b0d57613b0d613d46565b500190565b600082613b46577f4e487b710000000000000000000000000000000000000000000000000000000081526012600452602481fd5b500490565b600181815b80851115613ba457817fffffffffffffffffffffffffffffffffffffffffffffffffffffffffffffffff04821115613b8a57613b8a613d46565b80851615613b9757918102915b93841c9390800290613b50565b509250929050565b60006138b48383600082613bc257506001610aa4565b81613bcf57506000610aa4565b8160018114613be55760028114613bef57613c0b565b6001915050610aa4565b60ff841115613c0057613c00613d46565b50506001821b610aa4565b5060208310610133831016604e8410600b8410161715613c2e575081810a610aa4565b613c388383613b4b565b807fffffffffffffffffffffffffffffffffffffffffffffffffffffffffffffffff04821115613c6a57613c6a613d46565b029392505050565b6000817fffffffffffffffffffffffffffffffffffffffffffffffffffffffffffffffff0483118215151615613caa57613caa613d46565b500290565b600082821015613cc157613cc1613d46565b500390565b60005b83811015613ce1578181015183820152602001613cc9565b838111156131795750506000910152565b600181811c90821680613d0657607f821691505b60208210811415613d40577f4e487b7100000000000000000000000000000000000000000000000000000000600052602260045260246000fd5b50919050565b7f4e487b7100000000000000000000000000000000000000000000000000000000600052601160045260246000fd5b7f4e487b7100000000000000000000000000000000000000000000000000000000600052604160045260246000fd5b801515811461294657600080fd5b60ff8116811461294657600080fdfea26469706673582212201ea7084465f53b3e13132dc511d0ccd4c9b61bc236b2963ffddecef0bfe4377b64736f6c63430008040033",
  "linkReferences": {},
  "deployedLinkReferences": {}
}