{
  "_format": "hh-sol-artifact-1",
  "contractName": "InsurancePool",
  "sourceName": "contracts/InsurancePool.sol",
  "abi": [
    {
      "anonymous": false,
      "inputs": [
        {
          "indexed": true,
          "internalType": "address",
          "name": "owner",
          "type": "address"
        },
        {
          "indexed": true,
          "internalType": "address",
          "name": "spender",
          "type": "address"
        },
        {
          "indexed": false,
          "internalType": "uint256",
          "name": "value",
          "type": "uint256"
        }
      ],
      "name": "Approval",
      "type": "event"
    },
    {
      "anonymous": false,
      "inputs": [
        {
          "indexed": false,
          "internalType": "uint256",
          "name": "amount",
          "type": "uint256"
        },
        {
          "indexed": false,
          "internalType": "uint256",
          "name": "allValue",
          "type": "uint256"
        }
      ],
      "name": "Negative",
      "type": "event"
    },
    {
      "anonymous": false,
      "inputs": [
        {
          "indexed": true,
          "internalType": "address",
          "name": "from",
          "type": "address"
        },
        {
          "indexed": true,
          "internalType": "address",
          "name": "to",
          "type": "address"
        },
        {
          "indexed": false,
          "internalType": "uint256",
          "name": "value",
          "type": "uint256"
        }
      ],
      "name": "Transfer",
      "type": "event"
    },
    {
      "inputs": [],
      "name": "_ethIns",
      "outputs": [
        {
          "internalType": "bool",
          "name": "",
          "type": "bool"
        }
      ],
      "stateMutability": "view",
      "type": "function"
    },
    {
      "inputs": [],
      "name": "_feeRate",
      "outputs": [
        {
          "internalType": "uint256",
          "name": "",
          "type": "uint256"
        }
      ],
      "stateMutability": "view",
      "type": "function"
    },
    {
      "inputs": [],
      "name": "_flag",
      "outputs": [
        {
          "internalType": "uint8",
          "name": "",
          "type": "uint8"
        }
      ],
      "stateMutability": "view",
      "type": "function"
    },
    {
      "inputs": [],
      "name": "_governance",
      "outputs": [
        {
          "internalType": "address",
          "name": "",
          "type": "address"
        }
      ],
      "stateMutability": "view",
      "type": "function"
    },
    {
      "inputs": [],
      "name": "_insNegative",
      "outputs": [
        {
          "internalType": "uint256",
          "name": "",
          "type": "uint256"
        }
      ],
      "stateMutability": "view",
      "type": "function"
    },
    {
      "inputs": [],
      "name": "_latestTime",
      "outputs": [
        {
          "internalType": "uint256",
          "name": "",
          "type": "uint256"
        }
      ],
      "stateMutability": "view",
      "type": "function"
    },
    {
      "inputs": [],
      "name": "_mortgagePool",
      "outputs": [
        {
          "internalType": "address",
          "name": "",
          "type": "address"
        }
      ],
      "stateMutability": "view",
      "type": "function"
    },
    {
      "inputs": [],
      "name": "_pTokenAddress",
      "outputs": [
        {
          "internalType": "address",
          "name": "",
          "type": "address"
        }
      ],
      "stateMutability": "view",
      "type": "function"
    },
    {
      "inputs": [],
      "name": "_redemptionCycle",
      "outputs": [
        {
          "internalType": "uint256",
          "name": "",
          "type": "uint256"
        }
      ],
      "stateMutability": "view",
      "type": "function"
    },
    {
      "inputs": [],
      "name": "_underlyingTokenAddress",
      "outputs": [
        {
          "internalType": "address",
          "name": "",
          "type": "address"
        }
      ],
      "stateMutability": "view",
      "type": "function"
    },
    {
      "inputs": [],
      "name": "_waitCycle",
      "outputs": [
        {
          "internalType": "uint256",
          "name": "",
          "type": "uint256"
        }
      ],
      "stateMutability": "view",
      "type": "function"
    },
    {
      "inputs": [],
      "name": "addETH",
      "outputs": [],
      "stateMutability": "payable",
      "type": "function"
    },
    {
      "inputs": [
        {
          "internalType": "address",
          "name": "tokenAddress",
          "type": "address"
        },
        {
          "internalType": "uint256",
          "name": "amount",
          "type": "uint256"
        }
      ],
      "name": "addToken",
      "outputs": [],
      "stateMutability": "nonpayable",
      "type": "function"
    },
    {
      "inputs": [
        {
          "internalType": "address",
          "name": "owner",
          "type": "address"
        },
        {
          "internalType": "address",
          "name": "spender",
          "type": "address"
        }
      ],
      "name": "allowance",
      "outputs": [
        {
          "internalType": "uint256",
          "name": "",
          "type": "uint256"
        }
      ],
      "stateMutability": "view",
      "type": "function"
    },
    {
      "inputs": [
        {
          "internalType": "address",
          "name": "spender",
          "type": "address"
        },
        {
          "internalType": "uint256",
          "name": "value",
          "type": "uint256"
        }
      ],
      "name": "approve",
      "outputs": [
        {
          "internalType": "bool",
          "name": "",
          "type": "bool"
        }
      ],
      "stateMutability": "nonpayable",
      "type": "function"
    },
    {
      "inputs": [
        {
          "internalType": "address",
          "name": "add",
          "type": "address"
        }
      ],
      "name": "balanceOf",
      "outputs": [
        {
          "internalType": "uint256",
          "name": "",
          "type": "uint256"
        }
      ],
      "stateMutability": "view",
      "type": "function"
    },
    {
      "inputs": [],
      "name": "decimals",
      "outputs": [
        {
          "internalType": "uint8",
          "name": "",
          "type": "uint8"
        }
      ],
      "stateMutability": "view",
      "type": "function"
    },
    {
      "inputs": [
        {
          "internalType": "address",
          "name": "spender",
          "type": "address"
        },
        {
          "internalType": "uint256",
          "name": "subtractedValue",
          "type": "uint256"
        }
      ],
      "name": "decreaseAllowance",
      "outputs": [
        {
          "internalType": "bool",
          "name": "",
          "type": "bool"
        }
      ],
      "stateMutability": "nonpayable",
      "type": "function"
    },
    {
      "inputs": [
        {
          "internalType": "uint256",
          "name": "amount",
          "type": "uint256"
        }
      ],
      "name": "destroyPToken",
      "outputs": [],
      "stateMutability": "nonpayable",
      "type": "function"
    },
    {
      "inputs": [],
      "name": "eliminate",
      "outputs": [],
      "stateMutability": "nonpayable",
      "type": "function"
    },
    {
      "inputs": [
        {
          "internalType": "uint256",
          "name": "amount",
          "type": "uint256"
        }
      ],
      "name": "exchangePTokenToUnderlying",
      "outputs": [],
      "stateMutability": "nonpayable",
      "type": "function"
    },
    {
      "inputs": [
        {
          "internalType": "uint256",
          "name": "amount",
          "type": "uint256"
        }
      ],
      "name": "exchangeUnderlyingToPToken",
      "outputs": [],
      "stateMutability": "payable",
      "type": "function"
    },
    {
      "inputs": [
        {
          "internalType": "address",
          "name": "user",
          "type": "address"
        }
      ],
      "name": "getAllLP",
      "outputs": [
        {
          "internalType": "uint256",
          "name": "",
          "type": "uint256"
        }
      ],
      "stateMutability": "view",
      "type": "function"
    },
    {
      "inputs": [
        {
          "internalType": "address",
          "name": "inputToken",
          "type": "address"
        },
        {
          "internalType": "uint256",
          "name": "inputTokenAmount",
          "type": "uint256"
        },
        {
          "internalType": "address",
          "name": "outputToken",
          "type": "address"
        }
      ],
      "name": "getDecimalConversion",
      "outputs": [
        {
          "internalType": "uint256",
          "name": "",
          "type": "uint256"
        }
      ],
      "stateMutability": "view",
      "type": "function"
    },
    {
      "inputs": [
        {
          "internalType": "address",
          "name": "add",
          "type": "address"
        }
      ],
      "name": "getFrozenIns",
      "outputs": [
        {
          "internalType": "uint256",
          "name": "",
          "type": "uint256"
        },
        {
          "internalType": "uint256",
          "name": "",
          "type": "uint256"
        }
      ],
      "stateMutability": "view",
      "type": "function"
    },
    {
      "inputs": [
        {
          "internalType": "address",
          "name": "add",
          "type": "address"
        }
      ],
      "name": "getFrozenInsInTime",
      "outputs": [
        {
          "internalType": "uint256",
          "name": "",
          "type": "uint256"
        }
      ],
      "stateMutability": "view",
      "type": "function"
    },
    {
      "inputs": [],
      "name": "getLPStakingMiningPool",
      "outputs": [
        {
          "internalType": "address",
          "name": "",
          "type": "address"
        }
      ],
      "stateMutability": "view",
      "type": "function"
    },
    {
      "inputs": [
        {
          "internalType": "address",
          "name": "add",
          "type": "address"
        }
      ],
      "name": "getRedemptionAmount",
      "outputs": [
        {
          "internalType": "uint256",
          "name": "",
          "type": "uint256"
        }
      ],
      "stateMutability": "view",
      "type": "function"
    },
    {
      "inputs": [],
      "name": "getRedemptionTime",
      "outputs": [
        {
          "internalType": "uint256",
          "name": "startTime",
          "type": "uint256"
        },
        {
          "internalType": "uint256",
          "name": "endTime",
          "type": "uint256"
        }
      ],
      "stateMutability": "view",
      "type": "function"
    },
    {
      "inputs": [],
      "name": "getRedemptionTimeFront",
      "outputs": [
        {
          "internalType": "uint256",
          "name": "startTime",
          "type": "uint256"
        },
        {
          "internalType": "uint256",
          "name": "endTime",
          "type": "uint256"
        }
      ],
      "stateMutability": "view",
      "type": "function"
    },
    {
      "inputs": [],
      "name": "getTotalSupply",
      "outputs": [
        {
          "internalType": "uint256",
          "name": "",
          "type": "uint256"
        }
      ],
      "stateMutability": "view",
      "type": "function"
    },
    {
      "inputs": [
        {
          "internalType": "address",
          "name": "spender",
          "type": "address"
        },
        {
          "internalType": "uint256",
          "name": "addedValue",
          "type": "uint256"
        }
      ],
      "name": "increaseAllowance",
      "outputs": [
        {
          "internalType": "bool",
          "name": "",
          "type": "bool"
        }
      ],
      "stateMutability": "nonpayable",
      "type": "function"
    },
    {
      "inputs": [
        {
          "internalType": "address",
          "name": "governance",
          "type": "address"
        }
      ],
      "name": "initialize",
      "outputs": [],
      "stateMutability": "nonpayable",
      "type": "function"
    },
    {
      "inputs": [],
      "name": "name",
      "outputs": [
        {
          "internalType": "string",
          "name": "",
          "type": "string"
        }
      ],
      "stateMutability": "view",
      "type": "function"
    },
    {
      "inputs": [
        {
          "internalType": "uint256",
          "name": "amount",
          "type": "uint256"
        }
      ],
      "name": "redemptionIns",
      "outputs": [],
      "stateMutability": "nonpayable",
      "type": "function"
    },
    {
      "inputs": [
        {
          "internalType": "bool",
          "name": "isETHIns",
          "type": "bool"
        }
      ],
      "name": "setETHIns",
      "outputs": [],
      "stateMutability": "nonpayable",
      "type": "function"
    },
    {
      "inputs": [
        {
          "internalType": "uint256",
          "name": "num",
          "type": "uint256"
        }
      ],
      "name": "setFeeRate",
      "outputs": [],
      "stateMutability": "nonpayable",
      "type": "function"
    },
    {
      "inputs": [
        {
          "internalType": "uint8",
          "name": "num",
          "type": "uint8"
        }
      ],
      "name": "setFlag",
      "outputs": [],
      "stateMutability": "nonpayable",
      "type": "function"
    },
    {
      "inputs": [
        {
          "internalType": "address",
          "name": "uToken",
          "type": "address"
        },
        {
          "internalType": "address",
          "name": "pToken",
          "type": "address"
        }
      ],
      "name": "setInfo",
      "outputs": [],
      "stateMutability": "nonpayable",
      "type": "function"
    },
    {
      "inputs": [
        {
          "internalType": "address",
          "name": "add",
          "type": "address"
        }
      ],
      "name": "setLPStakingMiningPool",
      "outputs": [],
      "stateMutability": "nonpayable",
      "type": "function"
    },
    {
      "inputs": [],
      "name": "setLatestTime",
      "outputs": [],
      "stateMutability": "nonpayable",
      "type": "function"
    },
    {
      "inputs": [
        {
          "internalType": "uint256",
          "name": "num",
          "type": "uint256"
        }
      ],
      "name": "setLatestTime",
      "outputs": [],
      "stateMutability": "nonpayable",
      "type": "function"
    },
    {
      "inputs": [
        {
          "internalType": "address",
          "name": "add",
          "type": "address"
        }
      ],
      "name": "setMortgagePool",
      "outputs": [],
      "stateMutability": "nonpayable",
      "type": "function"
    },
    {
      "inputs": [
        {
          "internalType": "uint256",
          "name": "num",
          "type": "uint256"
        }
      ],
      "name": "setRedemptionCycle",
      "outputs": [],
      "stateMutability": "nonpayable",
      "type": "function"
    },
    {
      "inputs": [
        {
          "internalType": "string",
          "name": "_name",
          "type": "string"
        },
        {
          "internalType": "string",
          "name": "_symbol",
          "type": "string"
        }
      ],
      "name": "setTokenInfo",
      "outputs": [],
      "stateMutability": "nonpayable",
      "type": "function"
    },
    {
      "inputs": [
        {
          "internalType": "uint256",
          "name": "num",
          "type": "uint256"
        }
      ],
      "name": "setWaitCycle",
      "outputs": [],
      "stateMutability": "nonpayable",
      "type": "function"
    },
    {
      "inputs": [
        {
          "internalType": "uint256",
          "name": "amount",
          "type": "uint256"
        }
      ],
      "name": "subscribeIns",
      "outputs": [],
      "stateMutability": "payable",
      "type": "function"
    },
    {
      "inputs": [],
      "name": "symbol",
      "outputs": [
        {
          "internalType": "string",
          "name": "",
          "type": "string"
        }
      ],
      "stateMutability": "view",
      "type": "function"
    },
    {
      "inputs": [],
      "name": "totalSupply",
      "outputs": [
        {
          "internalType": "uint256",
          "name": "",
          "type": "uint256"
        }
      ],
      "stateMutability": "view",
      "type": "function"
    },
    {
      "inputs": [
        {
          "internalType": "address",
          "name": "to",
          "type": "address"
        },
        {
          "internalType": "uint256",
          "name": "value",
          "type": "uint256"
        }
      ],
      "name": "transfer",
      "outputs": [
        {
          "internalType": "bool",
          "name": "",
          "type": "bool"
        }
      ],
      "stateMutability": "nonpayable",
      "type": "function"
    },
    {
      "inputs": [
        {
          "internalType": "address",
          "name": "from",
          "type": "address"
        },
        {
          "internalType": "address",
          "name": "to",
          "type": "address"
        },
        {
          "internalType": "uint256",
          "name": "value",
          "type": "uint256"
        }
      ],
      "name": "transferFrom",
      "outputs": [
        {
          "internalType": "bool",
          "name": "",
          "type": "bool"
        }
      ],
      "stateMutability": "nonpayable",
      "type": "function"
    },
    {
      "inputs": [
        {
          "internalType": "address",
          "name": "newGovernance",
          "type": "address"
        }
      ],
      "name": "update",
      "outputs": [],
      "stateMutability": "nonpayable",
      "type": "function"
    },
    {
      "inputs": [],
      "name": "updateLatestTime",
      "outputs": [],
      "stateMutability": "nonpayable",
      "type": "function"
    }
  ],
  "bytecode": "0x608060405234801561001057600080fd5b50613e48806100206000396000f3fe60806040526004361061034a5760003560e01c80637e4d4734116101bb578063bbacf92b116100f7578063da262f5811610095578063de67ae411161006f578063de67ae4114610972578063f544d25b14610992578063f9081591146109b2578063fb606f92146109d257600080fd5b8063da262f581461090c578063dad6dab314610401578063dd62ed3e1461092c57600080fd5b8063c87814a6116100d1578063c87814a61461089c578063cd32045e146108bc578063cf9a197d146108dc578063d8fa1034146108f657600080fd5b8063bbacf92b14610852578063c4d66de814610867578063c4e41b221461088757600080fd5b8063a5831a6211610164578063af81c5b91161013e578063af81c5b9146107f2578063b1bb11d714610812578063b2131f7d14610827578063b7694a931461083d57600080fd5b8063a5831a621461079c578063a65e08ff146107bc578063a9059cbb146107d257600080fd5b806395d89b411161019557806395d89b41146107515780639972585c14610766578063a457c2d71461077c57600080fd5b80637e4d4734146106f75780637ea69a84146107115780638a13c54c1461073157600080fd5b806334e23ad71161028a57806347f6670f1161023357806364af87921161020d57806364af87921461062e57806364fb4fc71461064e57806370a08231146106a15780637120a88b146106d757600080fd5b806347f6670f146105e557806351804a6e146105fb578063646475ef1461061b57600080fd5b80633d5e3f50116102645780633d5e3f501461058557806341ad9882146105a557806345596e2e146105c557600080fd5b806334e23ad71461052857806335dbfde214610552578063395093511461056557600080fd5b80631a8d3f8b116102f757806322d8a580116102d157806322d8a5801461049c57806323b872dd146104bc5780632503f73f146104dc578063313ce567146104fc57600080fd5b80631a8d3f8b1461043c5780631c1b87721461045c5780631c2f3e3d1461047c57600080fd5b8063105259231161032857806310525923146103e157806314ec1c6b1461040357806318160ddd1461041857600080fd5b806306fdde031461034f578063095ea7b31461037a5780630b0289f6146103aa575b600080fd5b34801561035b57600080fd5b506103646109f2565b6040516103719190613afa565b60405180910390f35b34801561038657600080fd5b5061039a610395366004613979565b610a80565b6040519015158152602001610371565b3480156103b657600080fd5b50600e5461010090046001600160a01b03165b6040516001600160a01b039091168152602001610371565b3480156103ed57600080fd5b506104016103fc366004613a76565b610afb565b005b34801561040f57600080fd5b50610401610c31565b34801561042457600080fd5b5061042e600f5481565b604051908152602001610371565b34801561044857600080fd5b50610401610457366004613a76565b610d11565b34801561046857600080fd5b506104016104773660046138eb565b610e42565b34801561048857600080fd5b506001546103c9906001600160a01b031681565b3480156104a857600080fd5b506104016104b7366004613a76565b610f5c565b3480156104c857600080fd5b5061039a6104d736600461393e565b6111b3565b3480156104e857600080fd5b5061042e6104f73660046138eb565b611275565b34801561050857600080fd5b506012546105169060ff1681565b60405160ff9091168152602001610371565b34801561053457600080fd5b5061053d61133a565b60408051928352602083019190915201610371565b610401610560366004613a76565b6113ac565b34801561057157600080fd5b5061039a610580366004613979565b611769565b34801561059157600080fd5b506104016105a0366004613a76565b611804565b3480156105b157600080fd5b50600a546103c9906001600160a01b031681565b3480156105d157600080fd5b506104016105e0366004613a76565b6119f9565b3480156105f157600080fd5b5061042e600c5481565b34801561060757600080fd5b506008546103c9906001600160a01b031681565b610401610629366004613a76565b611acc565b34801561063a57600080fd5b5061042e6106493660046138eb565b611f8d565b34801561065a57600080fd5b5061053d6106693660046138eb565b6001600160a01b0316600090815260056020908152604091829020825180840190935280548084526001909101549290910182905291565b3480156106ad57600080fd5b5061042e6106bc3660046138eb565b6001600160a01b031660009081526006602052604090205490565b3480156106e357600080fd5b506104016106f2366004613aa6565b611fd6565b34801561070357600080fd5b50600e5461039a9060ff1681565b34801561071d57600080fd5b5061040161072c3660046138eb565b6120ba565b34801561073d57600080fd5b506009546103c9906001600160a01b031681565b34801561075d57600080fd5b506103646121c2565b34801561077257600080fd5b5061042e60035481565b34801561078857600080fd5b5061039a610797366004613979565b6121cf565b3480156107a857600080fd5b506104016107b7366004613a76565b612213565b3480156107c857600080fd5b5061042e60025481565b3480156107de57600080fd5b5061039a6107ed366004613979565b61268f565b3480156107fe57600080fd5b5061040161080d366004613979565b6126a5565b34801561081e57600080fd5b5061053d6126b5565b34801561083357600080fd5b5061042e600d5481565b34801561084957600080fd5b5061040161270b565b34801561085e57600080fd5b50610401612949565b34801561087357600080fd5b506104016108823660046138eb565b61299a565b34801561089357600080fd5b50600f5461042e565b3480156108a857600080fd5b5061042e6108b73660046138eb565b612a10565b3480156108c857600080fd5b506104016108d73660046138eb565b612a75565b3480156108e857600080fd5b506004546105169060ff1681565b34801561090257600080fd5b5061042e600b5481565b34801561091857600080fd5b50610401610927366004613a15565b612b82565b34801561093857600080fd5b5061042e61094736600461390c565b6001600160a01b03918216600090815260076020908152604080832093909416825291909152205490565b34801561097e57600080fd5b5061040161098d366004613a76565b612c77565b34801561099e57600080fd5b506104016109ad3660046139dd565b612d45565b3480156109be57600080fd5b5061042e6109cd3660046139a2565b612e26565b3480156109de57600080fd5b506104016109ed36600461390c565b612f6b565b601080546109ff90613d43565b80601f0160208091040260200160405190810160405280929190818152602001828054610a2b90613d43565b8015610a785780601f10610a4d57610100808354040283529160200191610a78565b820191906000526020600020905b815481529060010190602001808311610a5b57829003601f168201915b505050505081565b60006001600160a01b038316610a9557600080fd5b3360008181526007602090815260408083206001600160a01b03881680855290835292819020869055518581529192917f8c5be1e5ebec7d5bd14f71427d1e84f3dd0314c0f7b2291e5b200ac8c7c3b92591015b60405180910390a35060015b92915050565b6001546040516391e1472b60e01b8152336004820152600060248201526001600160a01b03909116906391e1472b9060440160206040518083038186803b158015610b4557600080fd5b505afa158015610b59573d6000803e3d6000fd5b505050506040513d601f19601f82011682018060405250810190610b7d91906139f9565b610bce5760405162461bcd60e51b815260206004820152601560248201527f4c6f673a5061726173736574426173653a21676f76000000000000000000000060448201526064015b60405180910390fd5b60008111610c1e5760405162461bcd60e51b815260206004820152601760248201527f4c6f673a496e737572616e6365506f6f6c3a217a65726f0000000000000000006044820152606401610bc5565b610c2b8162015180613cc3565b600c5550565b6001546040516391e1472b60e01b8152336004820152600060248201526001600160a01b03909116906391e1472b9060440160206040518083038186803b158015610c7b57600080fd5b505afa158015610c8f573d6000803e3d6000fd5b505050506040513d601f19601f82011682018060405250810190610cb391906139f9565b610cff5760405162461bcd60e51b815260206004820152601560248201527f4c6f673a5061726173736574426173653a21676f7600000000000000000000006044820152606401610bc5565b600c54610d0c9042613b4b565b600355565b6001546040516391e1472b60e01b8152336004820152600060248201526001600160a01b03909116906391e1472b9060440160206040518083038186803b158015610d5b57600080fd5b505afa158015610d6f573d6000803e3d6000fd5b505050506040513d601f19601f82011682018060405250810190610d9391906139f9565b610ddf5760405162461bcd60e51b815260206004820152601560248201527f4c6f673a5061726173736574426173653a21676f7600000000000000000000006044820152606401610bc5565b60008111610e2f5760405162461bcd60e51b815260206004820152601760248201527f4c6f673a496e737572616e6365506f6f6c3a217a65726f0000000000000000006044820152606401610bc5565b610e3c8162015180613cc3565b600b5550565b6001546001600160a01b031633811480610ed557506040516391e1472b60e01b8152336004820152600060248201526001600160a01b038216906391e1472b9060440160206040518083038186803b158015610e9d57600080fd5b505afa158015610eb1573d6000803e3d6000fd5b505050506040513d601f19601f82011682018060405250810190610ed591906139f9565b610f215760405162461bcd60e51b815260206004820152601560248201527f4c6f673a5061726173736574426173653a21676f7600000000000000000000006044820152606401610bc5565b50600180547fffffffffffffffffffffffff0000000000000000000000000000000000000000166001600160a01b0392909216919091179055565b600a546001600160a01b03163314610fb65760405162461bcd60e51b815260206004820152601f60248201527f4c6f673a496e737572616e6365506f6f6c3a216d6f727467616765506f6f6c006044820152606401610bc5565b6008546040517f70a082310000000000000000000000000000000000000000000000000000000081523060048201526001600160a01b039091169060009082906370a082319060240160206040518083038186803b15801561101757600080fd5b505afa15801561102b573d6000803e3d6000fd5b505050506040513d601f19601f8201168201806040525081019061104f9190613a8e565b90508281106110d6576040517f8dec3daa000000000000000000000000000000000000000000000000000000008152600481018490523060248201526001600160a01b03831690638dec3daa90604401600060405180830381600087803b1580156110b957600080fd5b505af11580156110cd573d6000803e3d6000fd5b50505050505050565b6040517f8dec3daa000000000000000000000000000000000000000000000000000000008152600481018290523060248201526001600160a01b03831690638dec3daa90604401600060405180830381600087803b15801561113757600080fd5b505af115801561114b573d6000803e3d6000fd5b505050506000818461115d9190613d00565b90508060025461116d9190613b4b565b60028190556040805183815260208101929092527f852905f8d78f14c11a72099edd327ae8e53225b522100935a3fd5f9b8d96ce3f910160405180910390a1505b505050565b6001600160a01b03831660009081526007602090815260408083203384529091528120546111e2908390613d00565b6001600160a01b038516600090815260076020908152604080832033845290915290205561121184848461307f565b6001600160a01b038416600081815260076020908152604080832033808552908352928190205490519081529192917f8c5be1e5ebec7d5bd14f71427d1e84f3dd0314c0f7b2291e5b200ac8c7c3b925910160405180910390a35060019392505050565b600e546040517fd4fac45d0000000000000000000000000000000000000000000000000000000081523060048201526001600160a01b0383811660248301526000926101009004169063d4fac45d9060440160206040518083038186803b1580156112df57600080fd5b505afa1580156112f3573d6000803e3d6000fd5b505050506040513d601f19601f820116820180604052508101906113179190613a8e565b6001600160a01b038316600090815260066020526040902054610af59190613b4b565b600080600060035490508042111561138857600c5460009061135c8342613d00565b6113669190613b63565b905080600c546113769190613cc3565b6113809083613b4b565b935050611398565b600c546113959082613d00565b92505b600b546113a59084613b4b565b9150509091565b60045460ff166001146114015760405162461bcd60e51b815260206004820152601960248201527f4c6f673a496e737572616e6365506f6f6c3a21616374697665000000000000006044820152606401610bc5565b600260005414156114545760405162461bcd60e51b815260206004820152601f60248201527f5265656e7472616e637947756172643a207265656e7472616e742063616c6c006044820152606401610bc5565b6002600055806114a65760405162461bcd60e51b815260206004820152601960248201527f4c6f673a496e737572616e6365506f6f6c3a21616d6f756e74000000000000006044820152606401610bc5565b60006103e8600d54836114b99190613cc3565b6114c39190613b63565b600e5490915060ff1615611525578134146115205760405162461bcd60e51b815260206004820152601c60248201527f4c6f673a496e737572616e6365506f6f6c3a216d73672e76616c7565000000006044820152606401610bc5565b61158b565b34156115735760405162461bcd60e51b815260206004820152601e60248201527f4c6f673a496e737572616e6365506f6f6c3a6d73672e76616c7565213d3000006044820152606401610bc5565b60095461158b906001600160a01b03163330856131d0565b6009546000906115b9906001600160a01b03166115a88486613d00565b6008546001600160a01b0316612e26565b90506000811161160b5760405162461bcd60e51b815260206004820152601f60248201527f4c6f673a496e737572616e6365506f6f6c3a2170546f6b656e416d6f756e74006044820152606401610bc5565b6008546040517f70a082310000000000000000000000000000000000000000000000000000000081523060048201526000916001600160a01b0316906370a082319060240160206040518083038186803b15801561166857600080fd5b505afa15801561167c573d6000803e3d6000fd5b505050506040513d601f19601f820116820180604052508101906116a09190613a8e565b9050818110156117475760006116b68284613d00565b6008546040517f9d8ed858000000000000000000000000000000000000000000000000000000008152600481018390523060248201529192506001600160a01b031690639d8ed85890604401600060405180830381600087803b15801561171c57600080fd5b505af1158015611730573d6000803e3d6000fd5b50505050806002546117429190613b4b565b600255505b60085461175e906001600160a01b03163384613347565b505060016000555050565b60006001600160a01b03831661177e57600080fd5b3360009081526007602090815260408083206001600160a01b03871684529091529020546117ad908390613b4b565b3360008181526007602090815260408083206001600160a01b038916808552908352928190208590555193845290927f8c5be1e5ebec7d5bd14f71427d1e84f3dd0314c0f7b2291e5b200ac8c7c3b9259101610ae9565b60045460ff166001146118595760405162461bcd60e51b815260206004820152601960248201527f4c6f673a496e737572616e6365506f6f6c3a21616374697665000000000000006044820152606401610bc5565b600260005414156118ac5760405162461bcd60e51b815260206004820152601f60248201527f5265656e7472616e637947756172643a207265656e7472616e742063616c6c006044820152606401610bc5565b6002600055806118fe5760405162461bcd60e51b815260206004820152601960248201527f4c6f673a496e737572616e6365506f6f6c3a21616d6f756e74000000000000006044820152606401610bc5565b60006103e8600d54836119119190613cc3565b61191b9190613b63565b600854909150611936906001600160a01b03163330856131d0565b600854600090611964906001600160a01b03166119538486613d00565b6009546001600160a01b0316612e26565b9050600081116119b65760405162461bcd60e51b815260206004820152601f60248201527f4c6f673a496e737572616e6365506f6f6c3a2175546f6b656e416d6f756e74006044820152606401610bc5565b600e5460ff16156119d0576119cb3382613490565b6119e7565b6009546119e7906001600160a01b03163383613347565b6119ef61270b565b5050600160005550565b6001546040516391e1472b60e01b8152336004820152600060248201526001600160a01b03909116906391e1472b9060440160206040518083038186803b158015611a4357600080fd5b505afa158015611a57573d6000803e3d6000fd5b505050506040513d601f19601f82011682018060405250810190611a7b91906139f9565b611ac75760405162461bcd60e51b815260206004820152601560248201527f4c6f673a5061726173736574426173653a21676f7600000000000000000000006044820152606401610bc5565b600d55565b60045460ff16600114611b215760405162461bcd60e51b815260206004820152601960248201527f4c6f673a496e737572616e6365506f6f6c3a21616374697665000000000000006044820152606401610bc5565b60026000541415611b745760405162461bcd60e51b815260206004820152601f60248201527f5265656e7472616e637947756172643a207265656e7472616e742063616c6c006044820152606401610bc5565b600260005580611bc65760405162461bcd60e51b815260206004820152601960248201527f4c6f673a496e737572616e6365506f6f6c3a21616d6f756e74000000000000006044820152606401610bc5565b611bce612949565b3360009081526005602052604090206001810154421115611bee57600081555b6008546040517f70a082310000000000000000000000000000000000000000000000000000000081523060048201526000916001600160a01b0316906370a082319060240160206040518083038186803b158015611c4b57600080fd5b505afa158015611c5f573d6000803e3d6000fd5b505050506040513d601f19601f82011682018060405250810190611c839190613a8e565b600e5490915060009060ff1615611cf457833414611ce35760405162461bcd60e51b815260206004820152601c60248201527f4c6f673a496e737572616e6365506f6f6c3a216d73672e76616c7565000000006044820152606401610bc5565b611ced8447613d00565b9050611dde565b3415611d425760405162461bcd60e51b815260206004820152601e60248201527f4c6f673a496e737572616e6365506f6f6c3a6d73672e76616c7565213d3000006044820152606401610bc5565b6009546040517f70a08231000000000000000000000000000000000000000000000000000000008152306004820152611ddb916001600160a01b03169081906370a08231906024015b60206040518083038186803b158015611da357600080fd5b505afa158015611db7573d6000803e3d6000fd5b505050506040513d601f19601f820116820180604052508101906115a89190613a8e565b90505b600f5460009081611def8585613b4b565b90508115611ebf576002548111611e6e5760405162461bcd60e51b815260206004820152602560248201527f4c6f673a496e737572616e6365506f6f6c3a616c6c42616c616e63654e6f744560448201527f6e6f7567680000000000000000000000000000000000000000000000000000006064820152608401610bc5565b600060025482611e7e9190613d00565b60095460085491925082918591611ea3916001600160a01b03918216918d9116612e26565b611ead9190613cc3565b611eb79190613b63565b935050611ee0565b600954600854611edd916001600160a01b03908116918a9116612e26565b92505b600e5460ff16611f50573415611f385760405162461bcd60e51b815260206004820152601e60248201527f4c6f673a496e737572616e6365506f6f6c3a6d73672e76616c7565213d3000006044820152606401610bc5565b600954611f50906001600160a01b031633308a6131d0565b611f5a8333613573565b8554611f67908490613b4b565b8655600c54600354611f799190613b4b565b600196870155505050600092909255505050565b6001600160a01b03811660009081526005602090815260408083208151808301909252805482526001015491810182905290421115611fcf5750600092915050565b5192915050565b6001546040516391e1472b60e01b8152336004820152600060248201526001600160a01b03909116906391e1472b9060440160206040518083038186803b15801561202057600080fd5b505afa158015612034573d6000803e3d6000fd5b505050506040513d601f19601f8201168201806040525081019061205891906139f9565b6120a45760405162461bcd60e51b815260206004820152601560248201527f4c6f673a5061726173736574426173653a21676f7600000000000000000000006044820152606401610bc5565b6004805460ff191660ff92909216919091179055565b6001546040516391e1472b60e01b8152336004820152600060248201526001600160a01b03909116906391e1472b9060440160206040518083038186803b15801561210457600080fd5b505afa158015612118573d6000803e3d6000fd5b505050506040513d601f19601f8201168201806040525081019061213c91906139f9565b6121885760405162461bcd60e51b815260206004820152601560248201527f4c6f673a5061726173736574426173653a21676f7600000000000000000000006044820152606401610bc5565b600a80547fffffffffffffffffffffffff0000000000000000000000000000000000000000166001600160a01b0392909216919091179055565b601180546109ff90613d43565b60006001600160a01b0383166121e457600080fd5b3360009081526007602090815260408083206001600160a01b03871684529091529020546117ad908390613d00565b60045460ff166122655760405162461bcd60e51b815260206004820152601460248201527f4c6f673a496e737572616e6365506f6f6c3a21300000000000000000000000006044820152606401610bc5565b600260005414156122b85760405162461bcd60e51b815260206004820152601f60248201527f5265656e7472616e637947756172643a207265656e7472616e742063616c6c006044820152606401610bc5565b60026000558061230a5760405162461bcd60e51b815260206004820152601960248201527f4c6f673a496e737572616e6365506f6f6c3a21616d6f756e74000000000000006044820152606401610bc5565b612312612949565b600354600c546123229082613d00565b421015801561234a5750600b54600c5461233c9083613d00565b6123469190613b4b565b4211155b6123965760405162461bcd60e51b815260206004820152601760248201527f4c6f673a496e737572616e6365506f6f6c3a2174696d650000000000000000006044820152606401610bc5565b33600090815260056020526040902060018101544211156123b657600081555b6008546040517f70a082310000000000000000000000000000000000000000000000000000000081523060048201526000916001600160a01b0316906370a082319060240160206040518083038186803b15801561241357600080fd5b505afa158015612427573d6000803e3d6000fd5b505050506040513d601f19601f8201168201806040525081019061244b9190613a8e565b600e5490915060009060ff16156124635750476124b3565b6009546040517f70a082310000000000000000000000000000000000000000000000000000000081523060048201526124b0916001600160a01b03169081906370a0823190602401611d8b565b90505b60006124bf8383613b4b565b905060025481116125385760405162461bcd60e51b815260206004820152602560248201527f4c6f673a496e737572616e6365506f6f6c3a616c6c42616c616e63654e6f744560448201527f6e6f7567680000000000000000000000000000000000000000000000000000006064820152608401610bc5565b6000600254826125489190613d00565b600f5490915060008161255b848b613cc3565b6125659190613b63565b90506125718933613607565b865461257c33611275565b10156125ca5760405162461bcd60e51b815260206004820152601860248201527f4c6f673a496e737572616e6365506f6f6c3a66726f7a656e00000000000000006044820152606401610bc5565b600e5460ff1615612615578085106125eb576125e63382613490565b61267f565b6125f53386613490565b6008546125e6906001600160a01b0316336126108885613d00565b613347565b808510612640576009546008546125e6916001600160a01b0390811691339161261091168584612e26565b600954600854612664916001600160a01b0390811691339161261091168984612e26565b60085461267f906001600160a01b0316336126108885613d00565b5050600160005550505050505050565b600061269c33848461307f565b50600192915050565b6126b1823330846131d0565b5050565b60008060006003549050804211156126fb57600c546000906126d78342613d00565b6126e19190613b63565b90506126ee816001613b4b565b600c546113769190613cc3565b809250600b546113a59084613b4b565b6008546002546040517f70a082310000000000000000000000000000000000000000000000000000000081523060048201526001600160a01b039092169160009083906370a082319060240160206040518083038186803b15801561276f57600080fd5b505afa158015612783573d6000803e3d6000fd5b505050506040513d601f19601f820116820180604052508101906127a79190613a8e565b90506000821180156127b95750600081115b156111ae57808210612891576040517f8dec3daa000000000000000000000000000000000000000000000000000000008152600481018290523060248201526001600160a01b03841690638dec3daa90604401600060405180830381600087803b15801561282657600080fd5b505af115801561283a573d6000803e3d6000fd5b505050508060025461284c9190613d00565b60028190556040805183815260208101929092527f852905f8d78f14c11a72099edd327ae8e53225b522100935a3fd5f9b8d96ce3f91015b60405180910390a1505050565b6040517f8dec3daa000000000000000000000000000000000000000000000000000000008152600481018390523060248201526001600160a01b03841690638dec3daa90604401600060405180830381600087803b1580156128f257600080fd5b505af1158015612906573d6000803e3d6000fd5b5050600060028190556040805186815260208101929092527f852905f8d78f14c11a72099edd327ae8e53225b522100935a3fd5f9b8d96ce3f9350019050612884565b6003544281101561299757600c546000906129648342613d00565b61296e9190613b63565b905061297b816001613b4b565b600c546129889190613cc3565b6129929083613b4b565b600355505b50565b6129a3816136fb565b610384600b55610708600c556002600d55600e805460ff191690556000600f8190556040805160208101918290528290526129e19160109190613791565b50604080516020810191829052600090819052612a0091601191613791565b50506012805460ff191681179055565b6001600160a01b038116600081815260056020908152604080832081518083018352815481526001909101548184019081529484526006909252822054925191929091421115612a61579392505050565b8151612a6d9082613d00565b949350505050565b6001546040516391e1472b60e01b8152336004820152600060248201526001600160a01b03909116906391e1472b9060440160206040518083038186803b158015612abf57600080fd5b505afa158015612ad3573d6000803e3d6000fd5b505050506040513d601f19601f82011682018060405250810190612af791906139f9565b612b435760405162461bcd60e51b815260206004820152601560248201527f4c6f673a5061726173736574426173653a21676f7600000000000000000000006044820152606401610bc5565b600e80546001600160a01b03909216610100027fffffffffffffffffffffff0000000000000000000000000000000000000000ff909216919091179055565b6001546040516391e1472b60e01b8152336004820152600060248201526001600160a01b03909116906391e1472b9060440160206040518083038186803b158015612bcc57600080fd5b505afa158015612be0573d6000803e3d6000fd5b505050506040513d601f19601f82011682018060405250810190612c0491906139f9565b612c505760405162461bcd60e51b815260206004820152601560248201527f4c6f673a5061726173736574426173653a21676f7600000000000000000000006044820152606401610bc5565b8151612c63906010906020850190613791565b5080516111ae906011906020840190613791565b6001546040516391e1472b60e01b8152336004820152600060248201526001600160a01b03909116906391e1472b9060440160206040518083038186803b158015612cc157600080fd5b505afa158015612cd5573d6000803e3d6000fd5b505050506040513d601f19601f82011682018060405250810190612cf991906139f9565b610d0c5760405162461bcd60e51b815260206004820152601560248201527f4c6f673a5061726173736574426173653a21676f7600000000000000000000006044820152606401610bc5565b6001546040516391e1472b60e01b8152336004820152600060248201526001600160a01b03909116906391e1472b9060440160206040518083038186803b158015612d8f57600080fd5b505afa158015612da3573d6000803e3d6000fd5b505050506040513d601f19601f82011682018060405250810190612dc791906139f9565b612e135760405162461bcd60e51b815260206004820152601560248201527f4c6f673a5061726173736574426173653a21676f7600000000000000000000006044820152606401610bc5565b600e805460ff1916911515919091179055565b60006012806001600160a01b03861615612eb157856001600160a01b031663313ce5676040518163ffffffff1660e01b815260040160206040518083038186803b158015612e7357600080fd5b505afa158015612e87573d6000803e3d6000fd5b505050506040513d601f19601f82011682018060405250810190612eab9190613ac2565b60ff1691505b6001600160a01b03841615612f3757836001600160a01b031663313ce5676040518163ffffffff1660e01b815260040160206040518083038186803b158015612ef957600080fd5b505afa158015612f0d573d6000803e3d6000fd5b505050506040513d601f19601f82011682018060405250810190612f319190613ac2565b60ff1690505b612f4282600a613bfd565b612f4d82600a613bfd565b612f579087613cc3565b612f619190613b63565b9695505050505050565b6001546040516391e1472b60e01b8152336004820152600060248201526001600160a01b03909116906391e1472b9060440160206040518083038186803b158015612fb557600080fd5b505afa158015612fc9573d6000803e3d6000fd5b505050506040513d601f19601f82011682018060405250810190612fed91906139f9565b6130395760405162461bcd60e51b815260206004820152601560248201527f4c6f673a5061726173736574426173653a21676f7600000000000000000000006044820152606401610bc5565b600980546001600160a01b039384167fffffffffffffffffffffffff00000000000000000000000000000000000000009182161790915560088054929093169116179055565b613087612949565b33600090815260056020526040902060018101544211156130a757600081555b6001600160a01b0384166000908152600660205260409020546130cb908390613d00565b6001600160a01b0380861660009081526006602052604080822093909355908516815220546130fb908390613b4b565b6001600160a01b0380851660008181526006602052604090819020939093559151908616907fddf252ad1be2c89b69c2b068fc378daa952ba7f163c4a11628f55a4df523b3ef9061314f9086815260200190565b60405180910390a3600e546001600160a01b0384811661010090920416146131ca57805461317c33611275565b10156131ca5760405162461bcd60e51b815260206004820152601860248201527f4c6f673a496e737572616e6365506f6f6c3a66726f7a656e00000000000000006044820152606401610bc5565b50505050565b604080516001600160a01b0385811660248301528481166044830152606480830185905283518084039091018152608490920183526020820180517bffffffffffffffffffffffffffffffffffffffffffffffffffffffff167f23b872dd0000000000000000000000000000000000000000000000000000000017905291516000928392908816916132629190613ade565b6000604051808303816000865af19150503d806000811461329f576040519150601f19603f3d011682016040523d82523d6000602084013e6132a4565b606091505b50915091508180156132ce5750805115806132ce5750808060200190518101906132ce91906139f9565b61333f5760405162461bcd60e51b8152602060048201526024808201527f5472616e7366657248656c7065723a205452414e534645525f46524f4d5f464160448201527f494c4544000000000000000000000000000000000000000000000000000000006064820152608401610bc5565b505050505050565b604080516001600160a01b038481166024830152604480830185905283518084039091018152606490920183526020820180517bffffffffffffffffffffffffffffffffffffffffffffffffffffffff167fa9059cbb0000000000000000000000000000000000000000000000000000000017905291516000928392908716916133d19190613ade565b6000604051808303816000865af19150503d806000811461340e576040519150601f19603f3d011682016040523d82523d6000602084013e613413565b606091505b509150915081801561343d57508051158061343d57508080602001905181019061343d91906139f9565b6134895760405162461bcd60e51b815260206004820152601f60248201527f5472616e7366657248656c7065723a205452414e534645525f4641494c4544006044820152606401610bc5565b5050505050565b604080516000808252602082019092526001600160a01b0384169083906040516134ba9190613ade565b60006040518083038185875af1925050503d80600081146134f7576040519150601f19603f3d011682016040523d82523d6000602084013e6134fc565b606091505b50509050806111ae5760405162461bcd60e51b815260206004820152602360248201527f5472616e7366657248656c7065723a204554485f5452414e534645525f46414960448201527f4c454400000000000000000000000000000000000000000000000000000000006064820152608401610bc5565b6001600160a01b038116600090815260066020526040902054613597908390613b4b565b6001600160a01b038216600090815260066020526040902055600f546135be908390613b4b565b600f556040518281526001600160a01b038216906000907fddf252ad1be2c89b69c2b068fc378daa952ba7f163c4a11628f55a4df523b3ef906020015b60405180910390a35050565b6001600160a01b03811660009081526006602052604090205482111561366f5760405162461bcd60e51b815260206004820152601a60248201527f4c6f673a496e737572616e6365506f6f6c3a2164657374726f790000000000006044820152606401610bc5565b6001600160a01b038116600090815260066020526040902054613693908390613d00565b6001600160a01b038216600090815260066020526040902055600f546136ba908390613d00565b600f556040518281526000906001600160a01b038316907fddf252ad1be2c89b69c2b068fc378daa952ba7f163c4a11628f55a4df523b3ef906020016135fb565b6001546001600160a01b0316156137545760405162461bcd60e51b815260206004820152601b60248201527f4c6f673a50617261737365744261736521696e697469616c697a6500000000006044820152606401610bc5565b600180547fffffffffffffffffffffffff0000000000000000000000000000000000000000166001600160a01b0392909216919091178155600055565b82805461379d90613d43565b90600052602060002090601f0160209004810192826137bf5760008555613805565b82601f106137d857805160ff1916838001178555613805565b82800160010185558215613805579182015b828111156138055782518255916020019190600101906137ea565b50613811929150613815565b5090565b5b808211156138115760008155600101613816565b80356001600160a01b038116811461384157600080fd5b919050565b600082601f830112613856578081fd5b813567ffffffffffffffff8082111561387157613871613dc6565b604051601f83017fffffffffffffffffffffffffffffffffffffffffffffffffffffffffffffffe0908116603f011681019082821181831017156138b7576138b7613dc6565b816040528381528660208588010111156138cf578485fd5b8360208701602083013792830160200193909352509392505050565b6000602082840312156138fc578081fd5b6139058261382a565b9392505050565b6000806040838503121561391e578081fd5b6139278361382a565b91506139356020840161382a565b90509250929050565b600080600060608486031215613952578081fd5b61395b8461382a565b92506139696020850161382a565b9150604084013590509250925092565b6000806040838503121561398b578182fd5b6139948361382a565b946020939093013593505050565b6000806000606084860312156139b6578283fd5b6139bf8461382a565b9250602084013591506139d46040850161382a565b90509250925092565b6000602082840312156139ee578081fd5b813561390581613df5565b600060208284031215613a0a578081fd5b815161390581613df5565b60008060408385031215613a27578182fd5b823567ffffffffffffffff80821115613a3e578384fd5b613a4a86838701613846565b93506020850135915080821115613a5f578283fd5b50613a6c85828601613846565b9150509250929050565b600060208284031215613a87578081fd5b5035919050565b600060208284031215613a9f578081fd5b5051919050565b600060208284031215613ab7578081fd5b813561390581613e03565b600060208284031215613ad3578081fd5b815161390581613e03565b60008251613af0818460208701613d17565b9190910192915050565b6020815260008251806020840152613b19816040850160208701613d17565b601f017fffffffffffffffffffffffffffffffffffffffffffffffffffffffffffffffe0169190910160400192915050565b60008219821115613b5e57613b5e613d97565b500190565b600082613b97577f4e487b710000000000000000000000000000000000000000000000000000000081526012600452602481fd5b500490565b600181815b80851115613bf557817fffffffffffffffffffffffffffffffffffffffffffffffffffffffffffffffff04821115613bdb57613bdb613d97565b80851615613be857918102915b93841c9390800290613ba1565b509250929050565b60006139058383600082613c1357506001610af5565b81613c2057506000610af5565b8160018114613c365760028114613c4057613c5c565b6001915050610af5565b60ff841115613c5157613c51613d97565b50506001821b610af5565b5060208310610133831016604e8410600b8410161715613c7f575081810a610af5565b613c898383613b9c565b807fffffffffffffffffffffffffffffffffffffffffffffffffffffffffffffffff04821115613cbb57613cbb613d97565b029392505050565b6000817fffffffffffffffffffffffffffffffffffffffffffffffffffffffffffffffff0483118215151615613cfb57613cfb613d97565b500290565b600082821015613d1257613d12613d97565b500390565b60005b83811015613d32578181015183820152602001613d1a565b838111156131ca5750506000910152565b600181811c90821680613d5757607f821691505b60208210811415613d91577f4e487b7100000000000000000000000000000000000000000000000000000000600052602260045260246000fd5b50919050565b7f4e487b7100000000000000000000000000000000000000000000000000000000600052601160045260246000fd5b7f4e487b7100000000000000000000000000000000000000000000000000000000600052604160045260246000fd5b801515811461299757600080fd5b60ff8116811461299757600080fdfea2646970667358221220677ba937e0e444d523b6339318ec34525fd0e7b93fac803cc31311f77d8a1a1164736f6c63430008040033",
  "linkReferences": {},
  "deployedLinkReferences": {}
}