{
  "_format": "hh-sol-artifact-1",
  "contractName": "NTokenController",
  "sourceName": "contracts/testContracts/NEST-NTokenController-Test.sol",
  "abi": [
    {
      "inputs": [],
      "stateMutability": "nonpayable",
      "type": "constructor"
    },
    {
      "inputs": [
        {
          "internalType": "address",
          "name": "tokenAddress",
          "type": "address"
        }
      ],
      "name": "getNTokenAddress",
      "outputs": [
        {
          "internalType": "address",
          "name": "",
          "type": "address"
        }
      ],
      "stateMutability": "view",
      "type": "function"
    },
    {
      "inputs": [
        {
          "internalType": "address",
          "name": "token",
          "type": "address"
        },
        {
          "internalType": "address",
          "name": "nToken",
          "type": "address"
        }
      ],
      "name": "setNTokenMapping",
      "outputs": [],
      "stateMutability": "nonpayable",
      "type": "function"
    }
  ],
  "bytecode": "0x608060405234801561001057600080fd5b506101b2806100206000396000f3fe608060405234801561001057600080fd5b50600436106100365760003560e01c80634c86d2f81461003b5780636ca707a61461009e575b600080fd5b61009c61004936600461014a565b73ffffffffffffffffffffffffffffffffffffffff918216600090815260208190526040902080547fffffffffffffffffffffffff00000000000000000000000000000000000000001691909216179055565b005b6100d76100ac366004610129565b73ffffffffffffffffffffffffffffffffffffffff9081166000908152602081905260409020541690565b60405173ffffffffffffffffffffffffffffffffffffffff909116815260200160405180910390f35b803573ffffffffffffffffffffffffffffffffffffffff8116811461012457600080fd5b919050565b60006020828403121561013a578081fd5b61014382610100565b9392505050565b6000806040838503121561015c578081fd5b61016583610100565b915061017360208401610100565b9050925092905056fea2646970667358221220448331cc5a3a23d2e4e7a4af075ea302a74f1edecadbd7f1c18563424760605b64736f6c63430008040033",
  "linkReferences": {},
  "deployedLinkReferences": {}
}