{
  "_format": "hh-sol-artifact-1",
  "contractName": "ParassetBase",
  "sourceName": "contracts/ParassetBase.sol",
  "abi": [
    {
      "inputs": [],
      "name": "_governance",
      "outputs": [
        {
          "internalType": "address",
          "name": "",
          "type": "address"
        }
      ],
      "stateMutability": "view",
      "type": "function"
    },
    {
      "inputs": [
        {
          "internalType": "address",
          "name": "inputToken",
          "type": "address"
        },
        {
          "internalType": "uint256",
          "name": "inputTokenAmount",
          "type": "uint256"
        },
        {
          "internalType": "address",
          "name": "outputToken",
          "type": "address"
        }
      ],
      "name": "getDecimalConversion",
      "outputs": [
        {
          "internalType": "uint256",
          "name": "",
          "type": "uint256"
        }
      ],
      "stateMutability": "view",
      "type": "function"
    },
    {
      "inputs": [
        {
          "internalType": "address",
          "name": "governance",
          "type": "address"
        }
      ],
      "name": "initialize",
      "outputs": [],
      "stateMutability": "nonpayable",
      "type": "function"
    },
    {
      "inputs": [
        {
          "internalType": "address",
          "name": "newGovernance",
          "type": "address"
        }
      ],
      "name": "update",
      "outputs": [],
      "stateMutability": "nonpayable",
      "type": "function"
    }
  ],
  "bytecode": "0x608060405234801561001057600080fd5b5061076a806100206000396000f3fe608060405234801561001057600080fd5b506004361061004c5760003560e01c80631c1b8772146100515780631c2f3e3d14610066578063c4d66de8146100b0578063f9081591146100c3575b600080fd5b61006461005f3660046104c9565b6100e4565b005b6001546100869073ffffffffffffffffffffffffffffffffffffffff1681565b60405173ffffffffffffffffffffffffffffffffffffffff90911681526020015b60405180910390f35b6100646100be3660046104c9565b61025d565b6100d66100d13660046104ea565b610327565b6040519081526020016100a7565b60015473ffffffffffffffffffffffffffffffffffffffff16338114806101aa57506040517f91e1472b0000000000000000000000000000000000000000000000000000000081523360048201526000602482015273ffffffffffffffffffffffffffffffffffffffff8216906391e1472b9060440160206040518083038186803b15801561017257600080fd5b505afa158015610186573d6000803e3d6000fd5b505050506040513d601f19601f820116820180604052508101906101aa9190610525565b610215576040517f08c379a000000000000000000000000000000000000000000000000000000000815260206004820152601560248201527f4c6f673a5061726173736574426173653a21676f76000000000000000000000060448201526064015b60405180910390fd5b50600180547fffffffffffffffffffffffff00000000000000000000000000000000000000001673ffffffffffffffffffffffffffffffffffffffff92909216919091179055565b60015473ffffffffffffffffffffffffffffffffffffffff16156102dd576040517f08c379a000000000000000000000000000000000000000000000000000000000815260206004820152601b60248201527f4c6f673a50617261737365744261736521696e697469616c697a650000000000604482015260640161020c565b600180547fffffffffffffffffffffffff00000000000000000000000000000000000000001673ffffffffffffffffffffffffffffffffffffffff92909216919091178155600055565b600060128073ffffffffffffffffffffffffffffffffffffffff8616156103cc578573ffffffffffffffffffffffffffffffffffffffff1663313ce5676040518163ffffffff1660e01b815260040160206040518083038186803b15801561038e57600080fd5b505afa1580156103a2573d6000803e3d6000fd5b505050506040513d601f19601f820116820180604052508101906103c69190610545565b60ff1691505b73ffffffffffffffffffffffffffffffffffffffff84161561046c578373ffffffffffffffffffffffffffffffffffffffff1663313ce5676040518163ffffffff1660e01b815260040160206040518083038186803b15801561042e57600080fd5b505afa158015610442573d6000803e3d6000fd5b505050506040513d601f19601f820116820180604052508101906104669190610545565b60ff1690505b61047782600a610600565b61048282600a610600565b61048c90876106c8565b6104969190610566565b9695505050505050565b803573ffffffffffffffffffffffffffffffffffffffff811681146104c457600080fd5b919050565b6000602082840312156104da578081fd5b6104e3826104a0565b9392505050565b6000806000606084860312156104fe578182fd5b610507846104a0565b92506020840135915061051c604085016104a0565b90509250925092565b600060208284031215610536578081fd5b815180151581146104e3578182fd5b600060208284031215610556578081fd5b815160ff811681146104e3578182fd5b60008261059a577f4e487b710000000000000000000000000000000000000000000000000000000081526012600452602481fd5b500490565b600181815b808511156105f857817fffffffffffffffffffffffffffffffffffffffffffffffffffffffffffffffff048211156105de576105de610705565b808516156105eb57918102915b93841c93908002906105a4565b509250929050565b60006104e38383600082610616575060016106c2565b81610623575060006106c2565b816001811461063957600281146106435761065f565b60019150506106c2565b60ff84111561065457610654610705565b50506001821b6106c2565b5060208310610133831016604e8410600b8410161715610682575081810a6106c2565b61068c838361059f565b807fffffffffffffffffffffffffffffffffffffffffffffffffffffffffffffffff048211156106be576106be610705565b0290505b92915050565b6000817fffffffffffffffffffffffffffffffffffffffffffffffffffffffffffffffff048311821515161561070057610700610705565b500290565b7f4e487b7100000000000000000000000000000000000000000000000000000000600052601160045260246000fdfea2646970667358221220fc14ecbc43161b04d6c3576ecf0d0d99ae688c0c76647b7d02c1d6e482522b1164736f6c63430008040033",
  "linkReferences": {},
  "deployedLinkReferences": {}
}