{
	"data": {
		"bytecode": {
			"linkReferences": {},
			"object": "608060405234801561001057600080fd5b50604080516060810182526064808252602082015260009101526002805464ffffffffff1916626400641790556107b18061004c6000396000f3fe60806040526004361061007b5760003560e01c8063a19748481161004e578063a1974848146101b7578063c3f909d4146101fc578063cf5ee3e71461028e578063efc47f4a1461030157600080fd5b80634c298029146100805780634c86d2f8146100d357806389f4d6e31461011e57806396bf988a14610151575b600080fd5b61009361008e366004610638565b61035e565b604080519889526020890197909752958701949094526060860192909252608085015260a084015260c083015260e0820152610100015b60405180910390f35b3480156100df57600080fd5b5061011c6100ee366004610638565b6001600160a01b03918216600090815260016020526040902080546001600160a01b03191691909216179055565b005b61013161012c366004610638565b610421565b6040805194855260208501939093529183015260608201526080016100ca565b34801561015d57600080fd5b5061009361016c366004610617565b6001600160a01b03908116600090815260016020908152604080832054918390528083205491909316825291812054909283926001600160801b039081169284928392839216908290565b3480156101c357600080fd5b506101316101d2366004610617565b6001600160a01b0316600090815260208190526040812054909182916001600160801b0316908290565b34801561020857600080fd5b506102606040805160608101825260008082526020820181905291810191909152506040805160608101825260025461ffff8082168352620100008204166020830152640100000000900460ff169181019190915290565b60408051825161ffff9081168252602080850151909116908201529181015160ff16908201526060016100ca565b34801561029a57600080fd5b5061011c6102a93660046106ab565b6040805160608101825261ffff948516808252939094166020850181905260ff9290921693018390526002805463ffffffff1916909217620100009091021764ff000000001916640100000000909202919091179055565b34801561030d57600080fd5b5061011c61031c36600461066a565b6001600160a01b0391909116600090815260208190526040902080546fffffffffffffffffffffffffffffffff19166001600160801b03909216919091179055565b6001600160a01b03828116600090815260016020908152604080832054815160608101835260025461ffff80821680845262010000830490911695830195909552640100000000900460ff16928101929092529293849384938493849384938493849391909216916103d2908d908d6104a3565b506001600160a01b039a8b166000908152602081905260408082205492909c1681529a8b20549a9b8c9b6001600160801b039283169b508c9a508a995089985091909116955086945092505050565b6040805160608101825260025461ffff808216808452620100008304909116602084015264010000000090910460ff16928201929092526000918291829182919061046e908890886104a3565b5050506001600160a01b0384166000908152602081905260408120549092508291506001600160801b03168192959194509250565b6104b3655af3107a40008361072f565b9150813411156104d5576104d0816104cb843461074e565b610520565b505050565b8134146104d05760405162461bcd60e51b81526020600482015260146024820152734e65737450726963654661636164653a2166656560601b60448201526064015b60405180910390fd5b604080516000808252602082019092526001600160a01b03841690839060405161054a91906106f6565b60006040518083038185875af1925050503d8060008114610587576040519150601f19603f3d011682016040523d82523d6000602084013e61058c565b606091505b50509050806104d05760405162461bcd60e51b815260206004820152602360248201527f5472616e7366657248656c7065723a204554485f5452414e534645525f46414960448201526213115160ea1b6064820152608401610517565b80356001600160a01b038116811461060057600080fd5b919050565b803561ffff8116811461060057600080fd5b600060208284031215610628578081fd5b610631826105e9565b9392505050565b6000806040838503121561064a578081fd5b610653836105e9565b9150610661602084016105e9565b90509250929050565b6000806040838503121561067c578182fd5b610685836105e9565b915060208301356001600160801b03811681146106a0578182fd5b809150509250929050565b6000806000606084860312156106bf578081fd5b6106c884610605565b92506106d660208501610605565b9150604084013560ff811681146106eb578182fd5b809150509250925092565b60008251815b8181101561071657602081860181015185830152016106fc565b818111156107245782828501525b509190910192915050565b600081600019048311821515161561074957610749610765565b500290565b60008282101561076057610760610765565b500390565b634e487b7160e01b600052601160045260246000fdfea26469706673582212204fa1e9fcc4956637989eaddeeb587a053f8133f764c23d333d15af55dc9f742a64736f6c63430008040033",
			"opcodes": "PUSH1 0x80 PUSH1 0x40 MSTORE CALLVALUE DUP1 ISZERO PUSH2 0x10 JUMPI PUSH1 0x0 DUP1 REVERT JUMPDEST POP PUSH1 0x40 DUP1 MLOAD PUSH1 0x60 DUP2 ADD DUP3 MSTORE PUSH1 0x64 DUP1 DUP3 MSTORE PUSH1 0x20 DUP3 ADD MSTORE PUSH1 0x0 SWAP2 ADD MSTORE PUSH1 0x2 DUP1 SLOAD PUSH5 0xFFFFFFFFFF NOT AND PUSH3 0x640064 OR SWAP1 SSTORE PUSH2 0x7B1 DUP1 PUSH2 0x4C PUSH1 0x0 CODECOPY PUSH1 0x0 RETURN INVALID PUSH1 0x80 PUSH1 0x40 MSTORE PUSH1 0x4 CALLDATASIZE LT PUSH2 0x7B JUMPI PUSH1 0x0 CALLDATALOAD PUSH1 0xE0 SHR DUP1 PUSH4 0xA1974848 GT PUSH2 0x4E JUMPI DUP1 PUSH4 0xA1974848 EQ PUSH2 0x1B7 JUMPI DUP1 PUSH4 0xC3F909D4 EQ PUSH2 0x1FC JUMPI DUP1 PUSH4 0xCF5EE3E7 EQ PUSH2 0x28E JUMPI DUP1 PUSH4 0xEFC47F4A EQ PUSH2 0x301 JUMPI PUSH1 0x0 DUP1 REVERT JUMPDEST DUP1 PUSH4 0x4C298029 EQ PUSH2 0x80 JUMPI DUP1 PUSH4 0x4C86D2F8 EQ PUSH2 0xD3 JUMPI DUP1 PUSH4 0x89F4D6E3 EQ PUSH2 0x11E JUMPI DUP1 PUSH4 0x96BF988A EQ PUSH2 0x151 JUMPI JUMPDEST PUSH1 0x0 DUP1 REVERT JUMPDEST PUSH2 0x93 PUSH2 0x8E CALLDATASIZE PUSH1 0x4 PUSH2 0x638 JUMP JUMPDEST PUSH2 0x35E JUMP JUMPDEST PUSH1 0x40 DUP1 MLOAD SWAP9 DUP10 MSTORE PUSH1 0x20 DUP10 ADD SWAP8 SWAP1 SWAP8 MSTORE SWAP6 DUP8 ADD SWAP5 SWAP1 SWAP5 MSTORE PUSH1 0x60 DUP7 ADD SWAP3 SWAP1 SWAP3 MSTORE PUSH1 0x80 DUP6 ADD MSTORE PUSH1 0xA0 DUP5 ADD MSTORE PUSH1 0xC0 DUP4 ADD MSTORE PUSH1 0xE0 DUP3 ADD MSTORE PUSH2 0x100 ADD JUMPDEST PUSH1 0x40 MLOAD DUP1 SWAP2 SUB SWAP1 RETURN JUMPDEST CALLVALUE DUP1 ISZERO PUSH2 0xDF JUMPI PUSH1 0x0 DUP1 REVERT JUMPDEST POP PUSH2 0x11C PUSH2 0xEE CALLDATASIZE PUSH1 0x4 PUSH2 0x638 JUMP JUMPDEST PUSH1 0x1 PUSH1 0x1 PUSH1 0xA0 SHL SUB SWAP2 DUP3 AND PUSH1 0x0 SWAP1 DUP2 MSTORE PUSH1 0x1 PUSH1 0x20 MSTORE PUSH1 0x40 SWAP1 KECCAK256 DUP1 SLOAD PUSH1 0x1 PUSH1 0x1 PUSH1 0xA0 SHL SUB NOT AND SWAP2 SWAP1 SWAP3 AND OR SWAP1 SSTORE JUMP JUMPDEST STOP JUMPDEST PUSH2 0x131 PUSH2 0x12C CALLDATASIZE PUSH1 0x4 PUSH2 0x638 JUMP JUMPDEST PUSH2 0x421 JUMP JUMPDEST PUSH1 0x40 DUP1 MLOAD SWAP5 DUP6 MSTORE PUSH1 0x20 DUP6 ADD SWAP4 SWAP1 SWAP4 MSTORE SWAP2 DUP4 ADD MSTORE PUSH1 0x60 DUP3 ADD MSTORE PUSH1 0x80 ADD PUSH2 0xCA JUMP JUMPDEST CALLVALUE DUP1 ISZERO PUSH2 0x15D JUMPI PUSH1 0x0 DUP1 REVERT JUMPDEST POP PUSH2 0x93 PUSH2 0x16C CALLDATASIZE PUSH1 0x4 PUSH2 0x617 JUMP JUMPDEST PUSH1 0x1 PUSH1 0x1 PUSH1 0xA0 SHL SUB SWAP1 DUP2 AND PUSH1 0x0 SWAP1 DUP2 MSTORE PUSH1 0x1 PUSH1 0x20 SWAP1 DUP2 MSTORE PUSH1 0x40 DUP1 DUP4 KECCAK256 SLOAD SWAP2 DUP4 SWAP1 MSTORE DUP1 DUP4 KECCAK256 SLOAD SWAP2 SWAP1 SWAP4 AND DUP3 MSTORE SWAP2 DUP2 KECCAK256 SLOAD SWAP1 SWAP3 DUP4 SWAP3 PUSH1 0x1 PUSH1 0x1 PUSH1 0x80 SHL SUB SWAP1 DUP2 AND SWAP3 DUP5 SWAP3 DUP4 SWAP3 DUP4 SWAP3 AND SWAP1 DUP3 SWAP1 JUMP JUMPDEST CALLVALUE DUP1 ISZERO PUSH2 0x1C3 JUMPI PUSH1 0x0 DUP1 REVERT JUMPDEST POP PUSH2 0x131 PUSH2 0x1D2 CALLDATASIZE PUSH1 0x4 PUSH2 0x617 JUMP JUMPDEST PUSH1 0x1 PUSH1 0x1 PUSH1 0xA0 SHL SUB AND PUSH1 0x0 SWAP1 DUP2 MSTORE PUSH1 0x20 DUP2 SWAP1 MSTORE PUSH1 0x40 DUP2 KECCAK256 SLOAD SWAP1 SWAP2 DUP3 SWAP2 PUSH1 0x1 PUSH1 0x1 PUSH1 0x80 SHL SUB AND SWAP1 DUP3 SWAP1 JUMP JUMPDEST CALLVALUE DUP1 ISZERO PUSH2 0x208 JUMPI PUSH1 0x0 DUP1 REVERT JUMPDEST POP PUSH2 0x260 PUSH1 0x40 DUP1 MLOAD PUSH1 0x60 DUP2 ADD DUP3 MSTORE PUSH1 0x0 DUP1 DUP3 MSTORE PUSH1 0x20 DUP3 ADD DUP2 SWAP1 MSTORE SWAP2 DUP2 ADD SWAP2 SWAP1 SWAP2 MSTORE POP PUSH1 0x40 DUP1 MLOAD PUSH1 0x60 DUP2 ADD DUP3 MSTORE PUSH1 0x2 SLOAD PUSH2 0xFFFF DUP1 DUP3 AND DUP4 MSTORE PUSH3 0x10000 DUP3 DIV AND PUSH1 0x20 DUP4 ADD MSTORE PUSH5 0x100000000 SWAP1 DIV PUSH1 0xFF AND SWAP2 DUP2 ADD SWAP2 SWAP1 SWAP2 MSTORE SWAP1 JUMP JUMPDEST PUSH1 0x40 DUP1 MLOAD DUP3 MLOAD PUSH2 0xFFFF SWAP1 DUP2 AND DUP3 MSTORE PUSH1 0x20 DUP1 DUP6 ADD MLOAD SWAP1 SWAP2 AND SWAP1 DUP3 ADD MSTORE SWAP2 DUP2 ADD MLOAD PUSH1 0xFF AND SWAP1 DUP3 ADD MSTORE PUSH1 0x60 ADD PUSH2 0xCA JUMP JUMPDEST CALLVALUE DUP1 ISZERO PUSH2 0x29A JUMPI PUSH1 0x0 DUP1 REVERT JUMPDEST POP PUSH2 0x11C PUSH2 0x2A9 CALLDATASIZE PUSH1 0x4 PUSH2 0x6AB JUMP JUMPDEST PUSH1 0x40 DUP1 MLOAD PUSH1 0x60 DUP2 ADD DUP3 MSTORE PUSH2 0xFFFF SWAP5 DUP6 AND DUP1 DUP3 MSTORE SWAP4 SWAP1 SWAP5 AND PUSH1 0x20 DUP6 ADD DUP2 SWAP1 MSTORE PUSH1 0xFF SWAP3 SWAP1 SWAP3 AND SWAP4 ADD DUP4 SWAP1 MSTORE PUSH1 0x2 DUP1 SLOAD PUSH4 0xFFFFFFFF NOT AND SWAP1 SWAP3 OR PUSH3 0x10000 SWAP1 SWAP2 MUL OR PUSH5 0xFF00000000 NOT AND PUSH5 0x100000000 SWAP1 SWAP3 MUL SWAP2 SWAP1 SWAP2 OR SWAP1 SSTORE JUMP JUMPDEST CALLVALUE DUP1 ISZERO PUSH2 0x30D JUMPI PUSH1 0x0 DUP1 REVERT JUMPDEST POP PUSH2 0x11C PUSH2 0x31C CALLDATASIZE PUSH1 0x4 PUSH2 0x66A JUMP JUMPDEST PUSH1 0x1 PUSH1 0x1 PUSH1 0xA0 SHL SUB SWAP2 SWAP1 SWAP2 AND PUSH1 0x0 SWAP1 DUP2 MSTORE PUSH1 0x20 DUP2 SWAP1 MSTORE PUSH1 0x40 SWAP1 KECCAK256 DUP1 SLOAD PUSH16 0xFFFFFFFFFFFFFFFFFFFFFFFFFFFFFFFF NOT AND PUSH1 0x1 PUSH1 0x1 PUSH1 0x80 SHL SUB SWAP1 SWAP3 AND SWAP2 SWAP1 SWAP2 OR SWAP1 SSTORE JUMP JUMPDEST PUSH1 0x1 PUSH1 0x1 PUSH1 0xA0 SHL SUB DUP3 DUP2 AND PUSH1 0x0 SWAP1 DUP2 MSTORE PUSH1 0x1 PUSH1 0x20 SWAP1 DUP2 MSTORE PUSH1 0x40 DUP1 DUP4 KECCAK256 SLOAD DUP2 MLOAD PUSH1 0x60 DUP2 ADD DUP4 MSTORE PUSH1 0x2 SLOAD PUSH2 0xFFFF DUP1 DUP3 AND DUP1 DUP5 MSTORE PUSH3 0x10000 DUP4 DIV SWAP1 SWAP2 AND SWAP6 DUP4 ADD SWAP6 SWAP1 SWAP6 MSTORE PUSH5 0x100000000 SWAP1 DIV PUSH1 0xFF AND SWAP3 DUP2 ADD SWAP3 SWAP1 SWAP3 MSTORE SWAP3 SWAP4 DUP5 SWAP4 DUP5 SWAP4 DUP5 SWAP4 DUP5 SWAP4 DUP5 SWAP4 DUP5 SWAP4 DUP5 SWAP4 SWAP2 SWAP1 SWAP3 AND SWAP2 PUSH2 0x3D2 SWAP1 DUP14 SWAP1 DUP14 PUSH2 0x4A3 JUMP JUMPDEST POP PUSH1 0x1 PUSH1 0x1 PUSH1 0xA0 SHL SUB SWAP11 DUP12 AND PUSH1 0x0 SWAP1 DUP2 MSTORE PUSH1 0x20 DUP2 SWAP1 MSTORE PUSH1 0x40 DUP1 DUP3 KECCAK256 SLOAD SWAP3 SWAP1 SWAP13 AND DUP2 MSTORE SWAP11 DUP12 KECCAK256 SLOAD SWAP11 SWAP12 DUP13 SWAP12 PUSH1 0x1 PUSH1 0x1 PUSH1 0x80 SHL SUB SWAP3 DUP4 AND SWAP12 POP DUP13 SWAP11 POP DUP11 SWAP10 POP DUP10 SWAP9 POP SWAP2 SWAP1 SWAP2 AND SWAP6 POP DUP7 SWAP5 POP SWAP3 POP POP POP JUMP JUMPDEST PUSH1 0x40 DUP1 MLOAD PUSH1 0x60 DUP2 ADD DUP3 MSTORE PUSH1 0x2 SLOAD PUSH2 0xFFFF DUP1 DUP3 AND DUP1 DUP5 MSTORE PUSH3 0x10000 DUP4 DIV SWAP1 SWAP2 AND PUSH1 0x20 DUP5 ADD MSTORE PUSH5 0x100000000 SWAP1 SWAP2 DIV PUSH1 0xFF AND SWAP3 DUP3 ADD SWAP3 SWAP1 SWAP3 MSTORE PUSH1 0x0 SWAP2 DUP3 SWAP2 DUP3 SWAP2 DUP3 SWAP2 SWAP1 PUSH2 0x46E SWAP1 DUP9 SWAP1 DUP9 PUSH2 0x4A3 JUMP JUMPDEST POP POP POP PUSH1 0x1 PUSH1 0x1 PUSH1 0xA0 SHL SUB DUP5 AND PUSH1 0x0 SWAP1 DUP2 MSTORE PUSH1 0x20 DUP2 SWAP1 MSTORE PUSH1 0x40 DUP2 KECCAK256 SLOAD SWAP1 SWAP3 POP DUP3 SWAP2 POP PUSH1 0x1 PUSH1 0x1 PUSH1 0x80 SHL SUB AND DUP2 SWAP3 SWAP6 SWAP2 SWAP5 POP SWAP3 POP JUMP JUMPDEST PUSH2 0x4B3 PUSH6 0x5AF3107A4000 DUP4 PUSH2 0x72F JUMP JUMPDEST SWAP2 POP DUP2 CALLVALUE GT ISZERO PUSH2 0x4D5 JUMPI PUSH2 0x4D0 DUP2 PUSH2 0x4CB DUP5 CALLVALUE PUSH2 0x74E JUMP JUMPDEST PUSH2 0x520 JUMP JUMPDEST POP POP POP JUMP JUMPDEST DUP2 CALLVALUE EQ PUSH2 0x4D0 JUMPI PUSH1 0x40 MLOAD PUSH3 0x461BCD PUSH1 0xE5 SHL DUP2 MSTORE PUSH1 0x20 PUSH1 0x4 DUP3 ADD MSTORE PUSH1 0x14 PUSH1 0x24 DUP3 ADD MSTORE PUSH20 0x4E65737450726963654661636164653A21666565 PUSH1 0x60 SHL PUSH1 0x44 DUP3 ADD MSTORE PUSH1 0x64 ADD JUMPDEST PUSH1 0x40 MLOAD DUP1 SWAP2 SUB SWAP1 REVERT JUMPDEST PUSH1 0x40 DUP1 MLOAD PUSH1 0x0 DUP1 DUP3 MSTORE PUSH1 0x20 DUP3 ADD SWAP1 SWAP3 MSTORE PUSH1 0x1 PUSH1 0x1 PUSH1 0xA0 SHL SUB DUP5 AND SWAP1 DUP4 SWAP1 PUSH1 0x40 MLOAD PUSH2 0x54A SWAP2 SWAP1 PUSH2 0x6F6 JUMP JUMPDEST PUSH1 0x0 PUSH1 0x40 MLOAD DUP1 DUP4 SUB DUP2 DUP6 DUP8 GAS CALL SWAP3 POP POP POP RETURNDATASIZE DUP1 PUSH1 0x0 DUP2 EQ PUSH2 0x587 JUMPI PUSH1 0x40 MLOAD SWAP2 POP PUSH1 0x1F NOT PUSH1 0x3F RETURNDATASIZE ADD AND DUP3 ADD PUSH1 0x40 MSTORE RETURNDATASIZE DUP3 MSTORE RETURNDATASIZE PUSH1 0x0 PUSH1 0x20 DUP5 ADD RETURNDATACOPY PUSH2 0x58C JUMP JUMPDEST PUSH1 0x60 SWAP2 POP JUMPDEST POP POP SWAP1 POP DUP1 PUSH2 0x4D0 JUMPI PUSH1 0x40 MLOAD PUSH3 0x461BCD PUSH1 0xE5 SHL DUP2 MSTORE PUSH1 0x20 PUSH1 0x4 DUP3 ADD MSTORE PUSH1 0x23 PUSH1 0x24 DUP3 ADD MSTORE PUSH32 0x5472616E7366657248656C7065723A204554485F5452414E534645525F464149 PUSH1 0x44 DUP3 ADD MSTORE PUSH3 0x131151 PUSH1 0xEA SHL PUSH1 0x64 DUP3 ADD MSTORE PUSH1 0x84 ADD PUSH2 0x517 JUMP JUMPDEST DUP1 CALLDATALOAD PUSH1 0x1 PUSH1 0x1 PUSH1 0xA0 SHL SUB DUP2 AND DUP2 EQ PUSH2 0x600 JUMPI PUSH1 0x0 DUP1 REVERT JUMPDEST SWAP2 SWAP1 POP JUMP JUMPDEST DUP1 CALLDATALOAD PUSH2 0xFFFF DUP2 AND DUP2 EQ PUSH2 0x600 JUMPI PUSH1 0x0 DUP1 REVERT JUMPDEST PUSH1 0x0 PUSH1 0x20 DUP3 DUP5 SUB SLT ISZERO PUSH2 0x628 JUMPI DUP1 DUP2 REVERT JUMPDEST PUSH2 0x631 DUP3 PUSH2 0x5E9 JUMP JUMPDEST SWAP4 SWAP3 POP POP POP JUMP JUMPDEST PUSH1 0x0 DUP1 PUSH1 0x40 DUP4 DUP6 SUB SLT ISZERO PUSH2 0x64A JUMPI DUP1 DUP2 REVERT JUMPDEST PUSH2 0x653 DUP4 PUSH2 0x5E9 JUMP JUMPDEST SWAP2 POP PUSH2 0x661 PUSH1 0x20 DUP5 ADD PUSH2 0x5E9 JUMP JUMPDEST SWAP1 POP SWAP3 POP SWAP3 SWAP1 POP JUMP JUMPDEST PUSH1 0x0 DUP1 PUSH1 0x40 DUP4 DUP6 SUB SLT ISZERO PUSH2 0x67C JUMPI DUP2 DUP3 REVERT JUMPDEST PUSH2 0x685 DUP4 PUSH2 0x5E9 JUMP JUMPDEST SWAP2 POP PUSH1 0x20 DUP4 ADD CALLDATALOAD PUSH1 0x1 PUSH1 0x1 PUSH1 0x80 SHL SUB DUP2 AND DUP2 EQ PUSH2 0x6A0 JUMPI DUP2 DUP3 REVERT JUMPDEST DUP1 SWAP2 POP POP SWAP3 POP SWAP3 SWAP1 POP JUMP JUMPDEST PUSH1 0x0 DUP1 PUSH1 0x0 PUSH1 0x60 DUP5 DUP7 SUB SLT ISZERO PUSH2 0x6BF JUMPI DUP1 DUP2 REVERT JUMPDEST PUSH2 0x6C8 DUP5 PUSH2 0x605 JUMP JUMPDEST SWAP3 POP PUSH2 0x6D6 PUSH1 0x20 DUP6 ADD PUSH2 0x605 JUMP JUMPDEST SWAP2 POP PUSH1 0x40 DUP5 ADD CALLDATALOAD PUSH1 0xFF DUP2 AND DUP2 EQ PUSH2 0x6EB JUMPI DUP2 DUP3 REVERT JUMPDEST DUP1 SWAP2 POP POP SWAP3 POP SWAP3 POP SWAP3 JUMP JUMPDEST PUSH1 0x0 DUP3 MLOAD DUP2 JUMPDEST DUP2 DUP2 LT ISZERO PUSH2 0x716 JUMPI PUSH1 0x20 DUP2 DUP7 ADD DUP2 ADD MLOAD DUP6 DUP4 ADD MSTORE ADD PUSH2 0x6FC JUMP JUMPDEST DUP2 DUP2 GT ISZERO PUSH2 0x724 JUMPI DUP3 DUP3 DUP6 ADD MSTORE JUMPDEST POP SWAP2 SWAP1 SWAP2 ADD SWAP3 SWAP2 POP POP JUMP JUMPDEST PUSH1 0x0 DUP2 PUSH1 0x0 NOT DIV DUP4 GT DUP3 ISZERO ISZERO AND ISZERO PUSH2 0x749 JUMPI PUSH2 0x749 PUSH2 0x765 JUMP JUMPDEST POP MUL SWAP1 JUMP JUMPDEST PUSH1 0x0 DUP3 DUP3 LT ISZERO PUSH2 0x760 JUMPI PUSH2 0x760 PUSH2 0x765 JUMP JUMPDEST POP SUB SWAP1 JUMP JUMPDEST PUSH4 0x4E487B71 PUSH1 0xE0 SHL PUSH1 0x0 MSTORE PUSH1 0x11 PUSH1 0x4 MSTORE PUSH1 0x24 PUSH1 0x0 REVERT INVALID LOG2 PUSH5 0x6970667358 0x22 SLT KECCAK256 0x4F LOG1 0xE9 0xFC 0xC4 SWAP6 PUSH7 0x37989EADDEEB58 PUSH27 0x53F8133F764C23D333D15AF55DC9F742A64736F6C634300080400 CALLER "
		},
		"gasEstimates": {
			"creation": {
				"codeDepositCost": "393800",
				"executionCost": "21314",
				"totalCost": "415114"
			},
			"external": {
				"getConfig()": "1308",
				"setAvg(address,uint128)": "21378",
				"setConfig(uint16,uint16,uint8)": "infinite",
				"setNTokenMapping(address,address)": "infinite",
				"triggeredPriceInfo(address)": "1333",
				"triggeredPriceInfo(address,address)": "infinite",
				"triggeredPriceInfo2(address)": "3235",
				"triggeredPriceInfo2(address,address)": "infinite"
			},
			"internal": {
				"_pay(address,uint256,address)": "infinite",
				"payEth(address,uint256)": "infinite"
			}
		},
		"methodIdentifiers": {
			"getConfig()": "c3f909d4",
			"setAvg(address,uint128)": "efc47f4a",
			"setConfig(uint16,uint16,uint8)": "cf5ee3e7",
			"setNTokenMapping(address,address)": "4c86d2f8",
			"triggeredPriceInfo(address)": "a1974848",
			"triggeredPriceInfo(address,address)": "89f4d6e3",
			"triggeredPriceInfo2(address)": "96bf988a",
			"triggeredPriceInfo2(address,address)": "4c298029"
		}
	},
	"abi": [
		{
			"inputs": [],
			"stateMutability": "nonpayable",
			"type": "constructor"
		},
		{
			"inputs": [],
			"name": "getConfig",
			"outputs": [
				{
					"components": [
						{
							"internalType": "uint16",
							"name": "singleFee",
							"type": "uint16"
						},
						{
							"internalType": "uint16",
							"name": "doubleFee",
							"type": "uint16"
						},
						{
							"internalType": "uint8",
							"name": "normalFlag",
							"type": "uint8"
						}
					],
					"internalType": "struct NestQuery.Config",
					"name": "",
					"type": "tuple"
				}
			],
			"stateMutability": "view",
			"type": "function"
		},
		{
			"inputs": [
				{
					"internalType": "address",
					"name": "token",
					"type": "address"
				},
				{
					"internalType": "uint128",
					"name": "_avg",
					"type": "uint128"
				}
			],
			"name": "setAvg",
			"outputs": [],
			"stateMutability": "nonpayable",
			"type": "function"
		},
		{
			"inputs": [
				{
					"internalType": "uint16",
					"name": "singleFee",
					"type": "uint16"
				},
				{
					"internalType": "uint16",
					"name": "doubleFee",
					"type": "uint16"
				},
				{
					"internalType": "uint8",
					"name": "normalFlag",
					"type": "uint8"
				}
			],
			"name": "setConfig",
			"outputs": [],
			"stateMutability": "nonpayable",
			"type": "function"
		},
		{
			"inputs": [
				{
					"internalType": "address",
					"name": "token",
					"type": "address"
				},
				{
					"internalType": "address",
					"name": "ntoken",
					"type": "address"
				}
			],
			"name": "setNTokenMapping",
			"outputs": [],
			"stateMutability": "nonpayable",
			"type": "function"
		},
		{
			"inputs": [
				{
					"internalType": "address",
					"name": "tokenAddress",
					"type": "address"
				},
				{
					"internalType": "address",
					"name": "paybackAddress",
					"type": "address"
				}
			],
			"name": "triggeredPriceInfo",
			"outputs": [
				{
					"internalType": "uint256",
					"name": "blockNumber",
					"type": "uint256"
				},
				{
					"internalType": "uint256",
					"name": "price",
					"type": "uint256"
				},
				{
					"internalType": "uint256",
					"name": "avgPrice",
					"type": "uint256"
				},
				{
					"internalType": "uint256",
					"name": "sigmaSQ",
					"type": "uint256"
				}
			],
			"stateMutability": "payable",
			"type": "function"
		},
		{
			"inputs": [
				{
					"internalType": "address",
					"name": "tokenAddress",
					"type": "address"
				}
			],
			"name": "triggeredPriceInfo",
			"outputs": [
				{
					"internalType": "uint256",
					"name": "blockNumber",
					"type": "uint256"
				},
				{
					"internalType": "uint256",
					"name": "price",
					"type": "uint256"
				},
				{
					"internalType": "uint256",
					"name": "avgPrice",
					"type": "uint256"
				},
				{
					"internalType": "uint256",
					"name": "sigmaSQ",
					"type": "uint256"
				}
			],
			"stateMutability": "view",
			"type": "function"
		},
		{
			"inputs": [
				{
					"internalType": "address",
					"name": "tokenAddress",
					"type": "address"
				},
				{
					"internalType": "address",
					"name": "paybackAddress",
					"type": "address"
				}
			],
			"name": "triggeredPriceInfo2",
			"outputs": [
				{
					"internalType": "uint256",
					"name": "blockNumber",
					"type": "uint256"
				},
				{
					"internalType": "uint256",
					"name": "price",
					"type": "uint256"
				},
				{
					"internalType": "uint256",
					"name": "avgPrice",
					"type": "uint256"
				},
				{
					"internalType": "uint256",
					"name": "sigmaSQ",
					"type": "uint256"
				},
				{
					"internalType": "uint256",
					"name": "ntokenBlockNumber",
					"type": "uint256"
				},
				{
					"internalType": "uint256",
					"name": "ntokenPrice",
					"type": "uint256"
				},
				{
					"internalType": "uint256",
					"name": "ntokenAvgPrice",
					"type": "uint256"
				},
				{
					"internalType": "uint256",
					"name": "ntokenSigmaSQ",
					"type": "uint256"
				}
			],
			"stateMutability": "payable",
			"type": "function"
		},
		{
			"inputs": [
				{
					"internalType": "address",
					"name": "tokenAddress",
					"type": "address"
				}
			],
			"name": "triggeredPriceInfo2",
			"outputs": [
				{
					"internalType": "uint256",
					"name": "blockNumber",
					"type": "uint256"
				},
				{
					"internalType": "uint256",
					"name": "price",
					"type": "uint256"
				},
				{
					"internalType": "uint256",
					"name": "avgPrice",
					"type": "uint256"
				},
				{
					"internalType": "uint256",
					"name": "sigmaSQ",
					"type": "uint256"
				},
				{
					"internalType": "uint256",
					"name": "ntokenBlockNumber",
					"type": "uint256"
				},
				{
					"internalType": "uint256",
					"name": "ntokenPrice",
					"type": "uint256"
				},
				{
					"internalType": "uint256",
					"name": "ntokenAvgPrice",
					"type": "uint256"
				},
				{
					"internalType": "uint256",
					"name": "ntokenSigmaSQ",
					"type": "uint256"
				}
			],
			"stateMutability": "view",
			"type": "function"
		}
	]
}