{
  "_format": "hh-sol-artifact-1",
  "contractName": "NestQuery",
  "sourceName": "contracts/testContracts/NESTQuary-Test.sol",
  "abi": [
    {
      "inputs": [],
      "stateMutability": "nonpayable",
      "type": "constructor"
    },
    {
      "inputs": [],
      "name": "getConfig",
      "outputs": [
        {
          "components": [
            {
              "internalType": "uint16",
              "name": "singleFee",
              "type": "uint16"
            },
            {
              "internalType": "uint16",
              "name": "doubleFee",
              "type": "uint16"
            },
            {
              "internalType": "uint8",
              "name": "normalFlag",
              "type": "uint8"
            }
          ],
          "internalType": "struct NestQuery.Config",
          "name": "",
          "type": "tuple"
        }
      ],
      "stateMutability": "view",
      "type": "function"
    },
    {
      "inputs": [
        {
          "internalType": "address",
          "name": "token",
          "type": "address"
        },
        {
          "internalType": "uint128",
          "name": "_avg",
          "type": "uint128"
        }
      ],
      "name": "setAvg",
      "outputs": [],
      "stateMutability": "nonpayable",
      "type": "function"
    },
    {
      "inputs": [
        {
          "internalType": "uint16",
          "name": "singleFee",
          "type": "uint16"
        },
        {
          "internalType": "uint16",
          "name": "doubleFee",
          "type": "uint16"
        },
        {
          "internalType": "uint8",
          "name": "normalFlag",
          "type": "uint8"
        }
      ],
      "name": "setConfig",
      "outputs": [],
      "stateMutability": "nonpayable",
      "type": "function"
    },
    {
      "inputs": [
        {
          "internalType": "address",
          "name": "token",
          "type": "address"
        },
        {
          "internalType": "address",
          "name": "ntoken",
          "type": "address"
        }
      ],
      "name": "setNTokenMapping",
      "outputs": [],
      "stateMutability": "nonpayable",
      "type": "function"
    },
    {
      "inputs": [
        {
          "internalType": "address",
          "name": "tokenAddress",
          "type": "address"
        },
        {
          "internalType": "address",
          "name": "paybackAddress",
          "type": "address"
        }
      ],
      "name": "triggeredPriceInfo",
      "outputs": [
        {
          "internalType": "uint256",
          "name": "blockNumber",
          "type": "uint256"
        },
        {
          "internalType": "uint256",
          "name": "price",
          "type": "uint256"
        },
        {
          "internalType": "uint256",
          "name": "avgPrice",
          "type": "uint256"
        },
        {
          "internalType": "uint256",
          "name": "sigmaSQ",
          "type": "uint256"
        }
      ],
      "stateMutability": "payable",
      "type": "function"
    },
    {
      "inputs": [
        {
          "internalType": "address",
          "name": "tokenAddress",
          "type": "address"
        }
      ],
      "name": "triggeredPriceInfo",
      "outputs": [
        {
          "internalType": "uint256",
          "name": "blockNumber",
          "type": "uint256"
        },
        {
          "internalType": "uint256",
          "name": "price",
          "type": "uint256"
        },
        {
          "internalType": "uint256",
          "name": "avgPrice",
          "type": "uint256"
        },
        {
          "internalType": "uint256",
          "name": "sigmaSQ",
          "type": "uint256"
        }
      ],
      "stateMutability": "view",
      "type": "function"
    },
    {
      "inputs": [
        {
          "internalType": "address",
          "name": "tokenAddress",
          "type": "address"
        },
        {
          "internalType": "address",
          "name": "paybackAddress",
          "type": "address"
        }
      ],
      "name": "triggeredPriceInfo2",
      "outputs": [
        {
          "internalType": "uint256",
          "name": "blockNumber",
          "type": "uint256"
        },
        {
          "internalType": "uint256",
          "name": "price",
          "type": "uint256"
        },
        {
          "internalType": "uint256",
          "name": "avgPrice",
          "type": "uint256"
        },
        {
          "internalType": "uint256",
          "name": "sigmaSQ",
          "type": "uint256"
        },
        {
          "internalType": "uint256",
          "name": "ntokenBlockNumber",
          "type": "uint256"
        },
        {
          "internalType": "uint256",
          "name": "ntokenPrice",
          "type": "uint256"
        },
        {
          "internalType": "uint256",
          "name": "ntokenAvgPrice",
          "type": "uint256"
        },
        {
          "internalType": "uint256",
          "name": "ntokenSigmaSQ",
          "type": "uint256"
        }
      ],
      "stateMutability": "payable",
      "type": "function"
    },
    {
      "inputs": [
        {
          "internalType": "address",
          "name": "tokenAddress",
          "type": "address"
        }
      ],
      "name": "triggeredPriceInfo2",
      "outputs": [
        {
          "internalType": "uint256",
          "name": "blockNumber",
          "type": "uint256"
        },
        {
          "internalType": "uint256",
          "name": "price",
          "type": "uint256"
        },
        {
          "internalType": "uint256",
          "name": "avgPrice",
          "type": "uint256"
        },
        {
          "internalType": "uint256",
          "name": "sigmaSQ",
          "type": "uint256"
        },
        {
          "internalType": "uint256",
          "name": "ntokenBlockNumber",
          "type": "uint256"
        },
        {
          "internalType": "uint256",
          "name": "ntokenPrice",
          "type": "uint256"
        },
        {
          "internalType": "uint256",
          "name": "ntokenAvgPrice",
          "type": "uint256"
        },
        {
          "internalType": "uint256",
          "name": "ntokenSigmaSQ",
          "type": "uint256"
        }
      ],
      "stateMutability": "view",
      "type": "function"
    }
  ],
  "bytecode": "0x608060405234801561001057600080fd5b50604080516060810182526064808252602082015260009101526002805464ffffffffff1916626400641790556109468061004c6000396000f3fe60806040526004361061007b5760003560e01c8063a19748481161004e578063a1974848146101f2578063c3f909d41461024d578063cf5ee3e7146102df578063efc47f4a1461038757600080fd5b80634c298029146100805780634c86d2f8146100d357806389f4d6e31461014357806396bf988a14610176575b600080fd5b61009361008e36600461078d565b610409565b604080519889526020890197909752958701949094526060860192909252608085015260a084015260c083015260e0820152610100015b60405180910390f35b3480156100df57600080fd5b506101416100ee36600461078d565b73ffffffffffffffffffffffffffffffffffffffff918216600090815260016020526040902080547fffffffffffffffffffffffff00000000000000000000000000000000000000001691909216179055565b005b61015661015136600461078d565b6104ef565b6040805194855260208501939093529183015260608201526080016100ca565b34801561018257600080fd5b5061009361019136600461076c565b73ffffffffffffffffffffffffffffffffffffffff908116600090815260016020908152604080832054918390528083205491909316825291812054909283926fffffffffffffffffffffffffffffffff9081169284928392839216908290565b3480156101fe57600080fd5b5061015661020d36600461076c565b73ffffffffffffffffffffffffffffffffffffffff16600090815260208190526040812054909182916fffffffffffffffffffffffffffffffff16908290565b34801561025957600080fd5b506102b16040805160608101825260008082526020820181905291810191909152506040805160608101825260025461ffff8082168352620100008204166020830152640100000000900460ff169181019190915290565b60408051825161ffff9081168252602080850151909116908201529181015160ff16908201526060016100ca565b3480156102eb57600080fd5b506101416102fa366004610809565b6040805160608101825261ffff948516808252939094166020850181905260ff929092169301839052600280547fffffffffffffffffffffffffffffffffffffffffffffffffffffffff000000001690921762010000909102177fffffffffffffffffffffffffffffffffffffffffffffffffffffff00ffffffff16640100000000909202919091179055565b34801561039357600080fd5b506101416103a23660046107bf565b73ffffffffffffffffffffffffffffffffffffffff91909116600090815260208190526040902080547fffffffffffffffffffffffffffffffff00000000000000000000000000000000166fffffffffffffffffffffffffffffffff909216919091179055565b73ffffffffffffffffffffffffffffffffffffffff828116600090815260016020908152604080832054815160608101835260025461ffff80821680845262010000830490911695830195909552640100000000900460ff169281019290925292938493849384938493849384938493919092169161048a908d908d610587565b5073ffffffffffffffffffffffffffffffffffffffff9a8b166000908152602081905260408082205492909c1681529a8b20549a9b8c9b6fffffffffffffffffffffffffffffffff9283169b508c9a508a995089985091909116955086945092505050565b6040805160608101825260025461ffff808216808452620100008304909116602084015264010000000090910460ff16928201929092526000918291829182919061053c90889088610587565b50505073ffffffffffffffffffffffffffffffffffffffff84166000908152602081905260408120549092508291506fffffffffffffffffffffffffffffffff168192959194509250565b610597655af3107a40008361088d565b9150813411156105b9576105b4816105af84346108ca565b610627565b505050565b8134146105b4576040517f08c379a000000000000000000000000000000000000000000000000000000000815260206004820152601460248201527f4e65737450726963654661636164653a2166656500000000000000000000000060448201526064015b60405180910390fd5b6040805160008082526020820190925273ffffffffffffffffffffffffffffffffffffffff841690839060405161065e9190610854565b60006040518083038185875af1925050503d806000811461069b576040519150601f19603f3d011682016040523d82523d6000602084013e6106a0565b606091505b50509050806105b4576040517f08c379a000000000000000000000000000000000000000000000000000000000815260206004820152602360248201527f5472616e7366657248656c7065723a204554485f5452414e534645525f46414960448201527f4c45440000000000000000000000000000000000000000000000000000000000606482015260840161061e565b803573ffffffffffffffffffffffffffffffffffffffff8116811461075557600080fd5b919050565b803561ffff8116811461075557600080fd5b60006020828403121561077d578081fd5b61078682610731565b9392505050565b6000806040838503121561079f578081fd5b6107a883610731565b91506107b660208401610731565b90509250929050565b600080604083850312156107d1578182fd5b6107da83610731565b915060208301356fffffffffffffffffffffffffffffffff811681146107fe578182fd5b809150509250929050565b60008060006060848603121561081d578081fd5b6108268461075a565b92506108346020850161075a565b9150604084013560ff81168114610849578182fd5b809150509250925092565b60008251815b81811015610874576020818601810151858301520161085a565b818111156108825782828501525b509190910192915050565b6000817fffffffffffffffffffffffffffffffffffffffffffffffffffffffffffffffff04831182151516156108c5576108c56108e1565b500290565b6000828210156108dc576108dc6108e1565b500390565b7f4e487b7100000000000000000000000000000000000000000000000000000000600052601160045260246000fdfea264697066735822122041abeb7b69cbb67e3d5b5214d58a60129547c74ef249f1287b9b888c48c2306f64736f6c63430008040033",
  "linkReferences": {},
  "deployedLinkReferences": {}
}