{
  "_format": "hh-sol-artifact-1",
  "contractName": "MortgagePool",
  "sourceName": "contracts/MortgagePool.sol",
  "abi": [
    {
      "anonymous": false,
      "inputs": [
        {
          "indexed": false,
          "internalType": "uint256",
          "name": "value",
          "type": "uint256"
        }
      ],
      "name": "FeeValue",
      "type": "event"
    },
    {
      "anonymous": false,
      "inputs": [
        {
          "indexed": false,
          "internalType": "address",
          "name": "mToken",
          "type": "address"
        },
        {
          "indexed": false,
          "internalType": "uint256",
          "name": "mTokenAmount",
          "type": "uint256"
        },
        {
          "indexed": false,
          "internalType": "uint256",
          "name": "pTokenAmount",
          "type": "uint256"
        },
        {
          "indexed": false,
          "internalType": "uint256",
          "name": "tokenPrice",
          "type": "uint256"
        },
        {
          "indexed": false,
          "internalType": "uint256",
          "name": "pTokenPrice",
          "type": "uint256"
        },
        {
          "indexed": false,
          "internalType": "uint88",
          "name": "rate",
          "type": "uint88"
        }
      ],
      "name": "LedgerLog",
      "type": "event"
    },
    {
      "inputs": [],
      "name": "_governance",
      "outputs": [
        {
          "internalType": "address",
          "name": "",
          "type": "address"
        }
      ],
      "stateMutability": "view",
      "type": "function"
    },
    {
      "inputs": [
        {
          "components": [
            {
              "internalType": "uint256",
              "name": "mortgageAssets",
              "type": "uint256"
            },
            {
              "internalType": "uint256",
              "name": "parassetAssets",
              "type": "uint256"
            },
            {
              "internalType": "uint160",
              "name": "blockHeight",
              "type": "uint160"
            },
            {
              "internalType": "uint88",
              "name": "rate",
              "type": "uint88"
            },
            {
              "internalType": "bool",
              "name": "created",
              "type": "bool"
            }
          ],
          "internalType": "struct MortgagePool.PersonalLedger",
          "name": "pLedger",
          "type": "tuple"
        },
        {
          "internalType": "uint256",
          "name": "tokenPrice",
          "type": "uint256"
        },
        {
          "internalType": "uint256",
          "name": "pTokenPrice",
          "type": "uint256"
        },
        {
          "internalType": "uint80",
          "name": "kValue",
          "type": "uint80"
        },
        {
          "internalType": "uint80",
          "name": "r0Value",
          "type": "uint80"
        }
      ],
      "name": "checkLine",
      "outputs": [],
      "stateMutability": "view",
      "type": "function"
    },
    {
      "inputs": [
        {
          "internalType": "address",
          "name": "mortgageToken",
          "type": "address"
        },
        {
          "internalType": "uint256",
          "name": "amount",
          "type": "uint256"
        },
        {
          "internalType": "uint88",
          "name": "rate",
          "type": "uint88"
        }
      ],
      "name": "coin",
      "outputs": [],
      "stateMutability": "payable",
      "type": "function"
    },
    {
      "inputs": [
        {
          "internalType": "address",
          "name": "mortgageToken",
          "type": "address"
        },
        {
          "internalType": "uint256",
          "name": "amount",
          "type": "uint256"
        }
      ],
      "name": "decrease",
      "outputs": [],
      "stateMutability": "payable",
      "type": "function"
    },
    {
      "inputs": [
        {
          "internalType": "address",
          "name": "inputToken",
          "type": "address"
        },
        {
          "internalType": "uint256",
          "name": "inputTokenAmount",
          "type": "uint256"
        },
        {
          "internalType": "address",
          "name": "outputToken",
          "type": "address"
        }
      ],
      "name": "getDecimalConversion",
      "outputs": [
        {
          "internalType": "uint256",
          "name": "",
          "type": "uint256"
        }
      ],
      "stateMutability": "view",
      "type": "function"
    },
    {
      "inputs": [
        {
          "internalType": "uint256",
          "name": "parassetAssets",
          "type": "uint256"
        },
        {
          "internalType": "uint160",
          "name": "blockHeight",
          "type": "uint160"
        },
        {
          "internalType": "uint256",
          "name": "rate",
          "type": "uint256"
        },
        {
          "internalType": "uint256",
          "name": "nowRate",
          "type": "uint256"
        },
        {
          "internalType": "uint80",
          "name": "r0Value",
          "type": "uint80"
        }
      ],
      "name": "getFee",
      "outputs": [
        {
          "internalType": "uint256",
          "name": "",
          "type": "uint256"
        }
      ],
      "stateMutability": "view",
      "type": "function"
    },
    {
      "inputs": [],
      "name": "getFlag",
      "outputs": [
        {
          "internalType": "uint96",
          "name": "",
          "type": "uint96"
        }
      ],
      "stateMutability": "view",
      "type": "function"
    },
    {
      "inputs": [
        {
          "internalType": "address",
          "name": "mortgageToken",
          "type": "address"
        },
        {
          "internalType": "uint256",
          "name": "tokenPrice",
          "type": "uint256"
        },
        {
          "internalType": "uint256",
          "name": "uTokenPrice",
          "type": "uint256"
        },
        {
          "internalType": "uint88",
          "name": "maxRateNum",
          "type": "uint88"
        },
        {
          "internalType": "address",
          "name": "owner",
          "type": "address"
        }
      ],
      "name": "getInfoRealTime",
      "outputs": [
        {
          "internalType": "uint256",
          "name": "fee",
          "type": "uint256"
        },
        {
          "internalType": "uint256",
          "name": "mortgageRate",
          "type": "uint256"
        },
        {
          "internalType": "uint256",
          "name": "maxSubM",
          "type": "uint256"
        },
        {
          "internalType": "uint256",
          "name": "maxAddP",
          "type": "uint256"
        }
      ],
      "stateMutability": "view",
      "type": "function"
    },
    {
      "inputs": [],
      "name": "getInsurancePool",
      "outputs": [
        {
          "internalType": "address",
          "name": "",
          "type": "address"
        }
      ],
      "stateMutability": "view",
      "type": "function"
    },
    {
      "inputs": [
        {
          "internalType": "address",
          "name": "mortgageToken",
          "type": "address"
        }
      ],
      "name": "getK",
      "outputs": [
        {
          "internalType": "uint256",
          "name": "",
          "type": "uint256"
        }
      ],
      "stateMutability": "view",
      "type": "function"
    },
    {
      "inputs": [
        {
          "internalType": "address",
          "name": "mortgageToken",
          "type": "address"
        },
        {
          "internalType": "address",
          "name": "owner",
          "type": "address"
        }
      ],
      "name": "getLedger",
      "outputs": [
        {
          "internalType": "uint256",
          "name": "mortgageAssets",
          "type": "uint256"
        },
        {
          "internalType": "uint256",
          "name": "parassetAssets",
          "type": "uint256"
        },
        {
          "internalType": "uint160",
          "name": "blockHeight",
          "type": "uint160"
        },
        {
          "internalType": "uint88",
          "name": "rate",
          "type": "uint88"
        },
        {
          "internalType": "bool",
          "name": "created",
          "type": "bool"
        }
      ],
      "stateMutability": "view",
      "type": "function"
    },
    {
      "inputs": [
        {
          "internalType": "address",
          "name": "mortgageToken",
          "type": "address"
        },
        {
          "internalType": "uint256",
          "name": "index",
          "type": "uint256"
        }
      ],
      "name": "getLedgerAddress",
      "outputs": [
        {
          "internalType": "address",
          "name": "",
          "type": "address"
        }
      ],
      "stateMutability": "view",
      "type": "function"
    },
    {
      "inputs": [
        {
          "internalType": "address",
          "name": "mortgageToken",
          "type": "address"
        }
      ],
      "name": "getLedgerArrayNum",
      "outputs": [
        {
          "internalType": "uint256",
          "name": "",
          "type": "uint256"
        }
      ],
      "stateMutability": "view",
      "type": "function"
    },
    {
      "inputs": [
        {
          "internalType": "address",
          "name": "mortgageToken",
          "type": "address"
        }
      ],
      "name": "getMaxRate",
      "outputs": [
        {
          "internalType": "uint88",
          "name": "",
          "type": "uint88"
        }
      ],
      "stateMutability": "view",
      "type": "function"
    },
    {
      "inputs": [
        {
          "internalType": "uint256",
          "name": "mortgageAssets",
          "type": "uint256"
        },
        {
          "internalType": "uint256",
          "name": "parassetAssets",
          "type": "uint256"
        },
        {
          "internalType": "uint256",
          "name": "tokenPrice",
          "type": "uint256"
        },
        {
          "internalType": "uint256",
          "name": "pTokenPrice",
          "type": "uint256"
        }
      ],
      "name": "getMortgageRate",
      "outputs": [
        {
          "internalType": "uint88",
          "name": "",
          "type": "uint88"
        }
      ],
      "stateMutability": "pure",
      "type": "function"
    },
    {
      "inputs": [],
      "name": "getOneYear",
      "outputs": [
        {
          "internalType": "uint96",
          "name": "",
          "type": "uint96"
        }
      ],
      "stateMutability": "view",
      "type": "function"
    },
    {
      "inputs": [],
      "name": "getPriceController",
      "outputs": [
        {
          "internalType": "address",
          "name": "",
          "type": "address"
        }
      ],
      "stateMutability": "view",
      "type": "function"
    },
    {
      "inputs": [],
      "name": "getPtokenAddress",
      "outputs": [
        {
          "internalType": "address",
          "name": "",
          "type": "address"
        }
      ],
      "stateMutability": "view",
      "type": "function"
    },
    {
      "inputs": [
        {
          "internalType": "address",
          "name": "mortgageToken",
          "type": "address"
        }
      ],
      "name": "getR0",
      "outputs": [
        {
          "internalType": "uint80",
          "name": "",
          "type": "uint80"
        }
      ],
      "stateMutability": "view",
      "type": "function"
    },
    {
      "inputs": [],
      "name": "getUnderlyingToken",
      "outputs": [
        {
          "internalType": "address",
          "name": "",
          "type": "address"
        }
      ],
      "stateMutability": "view",
      "type": "function"
    },
    {
      "inputs": [
        {
          "internalType": "address",
          "name": "mortgageToken",
          "type": "address"
        },
        {
          "internalType": "uint256",
          "name": "amount",
          "type": "uint256"
        }
      ],
      "name": "increaseCoinage",
      "outputs": [],
      "stateMutability": "payable",
      "type": "function"
    },
    {
      "inputs": [
        {
          "internalType": "address",
          "name": "governance",
          "type": "address"
        }
      ],
      "name": "initialize",
      "outputs": [],
      "stateMutability": "nonpayable",
      "type": "function"
    },
    {
      "inputs": [
        {
          "internalType": "address",
          "name": "mortgageToken",
          "type": "address"
        },
        {
          "internalType": "address",
          "name": "account",
          "type": "address"
        },
        {
          "internalType": "uint256",
          "name": "amount",
          "type": "uint256"
        }
      ],
      "name": "liquidation",
      "outputs": [],
      "stateMutability": "payable",
      "type": "function"
    },
    {
      "inputs": [
        {
          "internalType": "address",
          "name": "mortgageToken",
          "type": "address"
        },
        {
          "internalType": "uint256",
          "name": "amount",
          "type": "uint256"
        }
      ],
      "name": "reducedCoinage",
      "outputs": [],
      "stateMutability": "payable",
      "type": "function"
    },
    {
      "inputs": [
        {
          "internalType": "address",
          "name": "pTokenAdd",
          "type": "address"
        },
        {
          "internalType": "uint96",
          "name": "oneYear",
          "type": "uint96"
        },
        {
          "internalType": "address",
          "name": "underlyingTokenAdd",
          "type": "address"
        },
        {
          "internalType": "uint96",
          "name": "flag",
          "type": "uint96"
        }
      ],
      "name": "setConfig",
      "outputs": [],
      "stateMutability": "nonpayable",
      "type": "function"
    },
    {
      "inputs": [
        {
          "internalType": "uint96",
          "name": "num",
          "type": "uint96"
        }
      ],
      "name": "setFlag",
      "outputs": [],
      "stateMutability": "nonpayable",
      "type": "function"
    },
    {
      "inputs": [
        {
          "internalType": "address",
          "name": "uToken",
          "type": "address"
        },
        {
          "internalType": "address",
          "name": "pToken",
          "type": "address"
        }
      ],
      "name": "setInfo",
      "outputs": [],
      "stateMutability": "nonpayable",
      "type": "function"
    },
    {
      "inputs": [
        {
          "internalType": "address",
          "name": "add",
          "type": "address"
        }
      ],
      "name": "setInsurancePool",
      "outputs": [],
      "stateMutability": "nonpayable",
      "type": "function"
    },
    {
      "inputs": [
        {
          "internalType": "address",
          "name": "mortgageToken",
          "type": "address"
        },
        {
          "internalType": "uint80",
          "name": "num",
          "type": "uint80"
        }
      ],
      "name": "setK",
      "outputs": [],
      "stateMutability": "nonpayable",
      "type": "function"
    },
    {
      "inputs": [
        {
          "internalType": "address",
          "name": "mortgageToken",
          "type": "address"
        },
        {
          "internalType": "uint88",
          "name": "num",
          "type": "uint88"
        }
      ],
      "name": "setMaxRate",
      "outputs": [],
      "stateMutability": "nonpayable",
      "type": "function"
    },
    {
      "inputs": [
        {
          "internalType": "address",
          "name": "mortgageToken",
          "type": "address"
        },
        {
          "internalType": "bool",
          "name": "allow",
          "type": "bool"
        }
      ],
      "name": "setMortgageAllow",
      "outputs": [],
      "stateMutability": "nonpayable",
      "type": "function"
    },
    {
      "inputs": [
        {
          "internalType": "uint96",
          "name": "num",
          "type": "uint96"
        }
      ],
      "name": "setOneYear",
      "outputs": [],
      "stateMutability": "nonpayable",
      "type": "function"
    },
    {
      "inputs": [
        {
          "internalType": "address",
          "name": "add",
          "type": "address"
        }
      ],
      "name": "setPriceController",
      "outputs": [],
      "stateMutability": "nonpayable",
      "type": "function"
    },
    {
      "inputs": [
        {
          "internalType": "address",
          "name": "mortgageToken",
          "type": "address"
        },
        {
          "internalType": "uint80",
          "name": "num",
          "type": "uint80"
        }
      ],
      "name": "setR0",
      "outputs": [],
      "stateMutability": "nonpayable",
      "type": "function"
    },
    {
      "inputs": [
        {
          "internalType": "address",
          "name": "mortgageToken",
          "type": "address"
        },
        {
          "internalType": "uint256",
          "name": "amount",
          "type": "uint256"
        }
      ],
      "name": "supplement",
      "outputs": [],
      "stateMutability": "payable",
      "type": "function"
    },
    {
      "inputs": [
        {
          "internalType": "address",
          "name": "newGovernance",
          "type": "address"
        }
      ],
      "name": "update",
      "outputs": [],
      "stateMutability": "nonpayable",
      "type": "function"
    }
  ],
  "bytecode": "0x608060405234801561001057600080fd5b50614636806100206000396000f3fe60806040526004361061024f5760003560e01c8063983825de11610138578063d0d5665b116100b0578063f1a4252e1161007f578063f908159111610064578063f908159114610839578063f963393014610859578063fb606f921461088357600080fd5b8063f1a4252e146107e3578063f27ac4d91461082657600080fd5b8063d0d5665b14610767578063df5cb90814610785578063e82c1f44146107a5578063ee719bc8146107c557600080fd5b8063a99c53b311610107578063c2862d67116100ec578063c2862d6714610709578063c4d66de814610729578063cc000a1a1461074957600080fd5b8063a99c53b3146106a1578063beefcbcf146106e957600080fd5b8063983825de14610622578063a240b9a814610635578063a831407f14610648578063a94c487e1461068157600080fd5b80633a97bb25116101cb57806378a353201161019a578063800c2b391161017f578063800c2b391461055857806390f5cb091461059857806396171e591461060f57600080fd5b806378a35320146105095780637ff4d02f1461051c57600080fd5b80633a97bb25146104985780633cf045a4146104ab5780633f849820146104c95780635e0ec98f146104e957600080fd5b80631e0f67251161022257806328107acf1161020757806328107acf14610438578063306aceda146104585780633376cb371461047857600080fd5b80631e0f6725146102f357806325404c4f1461035357600080fd5b806303000aa4146102545780630daa6d11146102915780631c1b8772146102b35780631c2f3e3d146102d3575b600080fd5b34801561026057600080fd5b5061027461026f36600461400f565b6108a3565b6040516001600160a01b0390911681526020015b60405180910390f35b34801561029d57600080fd5b506102b16102ac366004614173565b610915565b005b3480156102bf57600080fd5b506102b16102ce366004613f47565b610a1c565b3480156102df57600080fd5b50600154610274906001600160a01b031681565b3480156102ff57600080fd5b5061034561030e366004613f47565b6001600160a01b03166000908152600460205260409020546c01000000000000000000000000900469ffffffffffffffffffff1690565b604051908152602001610288565b34801561035f57600080fd5b506103f461036e366004613f6a565b6001600160a01b039182166000908152600560209081526040808320938516835292815290829020825160a08101845281548082526001830154938201849052600290920154948516938101849052600160a01b85046affffffffffffffffffffff1660608201819052600160f81b90950460ff16151560809091018190529094919391565b6040805195865260208601949094526001600160a01b03909216928401929092526affffffffffffffffffffff90911660608301521515608082015260a001610288565b34801561044457600080fd5b506102b1610453366004614114565b610b2b565b34801561046457600080fd5b506102b161047336600461438c565b610c5d565b34801561048457600080fd5b506102b161049336600461438c565b610d58565b6102b16104a63660046140d7565b610e53565b3480156104b757600080fd5b506006546001600160a01b0316610274565b3480156104d557600080fd5b506102b16104e4366004613f47565b611478565b3480156104f557600080fd5b506102b1610504366004614148565b611575565b6102b161051736600461400f565b61169d565b34801561052857600080fd5b5061053c61053736600461433a565b611b10565b6040516affffffffffffffffffffff9091168152602001610288565b34801561056457600080fd5b5061057861057336600461407b565b611b60565b604080519485526020850193909352918301526060820152608001610288565b3480156105a457600080fd5b506105f46105b3366004613f47565b6001600160a01b0316600090815260046020526040902054760100000000000000000000000000000000000000000000900469ffffffffffffffffffff1690565b60405169ffffffffffffffffffff9091168152602001610288565b6102b161061d366004613fa2565b611d96565b6102b161063036600461400f565b612308565b6102b161064336600461400f565b6127b0565b34801561065457600080fd5b50610345610663366004613f47565b6001600160a01b031660009081526005602052604090206001015490565b34801561068d57600080fd5b506102b161069c366004613f47565b612c20565b3480156106ad57600080fd5b5061053c6106bc366004613f47565b6001600160a01b031660009081526004602052604090205461010090046affffffffffffffffffffff1690565b3480156106f557600080fd5b506102b1610704366004614114565b612d1d565b34801561071557600080fd5b506102b1610724366004613fe2565b612e4f565b34801561073557600080fd5b506102b1610744366004613f47565b612f66565b34801561075557600080fd5b506002546001600160a01b0316610274565b34801561077357600080fd5b506007546001600160a01b0316610274565b34801561079157600080fd5b506102b16107a03660046141e6565b612ff1565b3480156107b157600080fd5b506103456107c03660046142d2565b61313b565b3480156107d157600080fd5b506003546001600160a01b0316610274565b3480156107ef57600080fd5b50600254600160a01b90046bffffffffffffffffffffffff165b6040516bffffffffffffffffffffffff9091168152602001610288565b6102b161083436600461400f565b61323e565b34801561084557600080fd5b5061034561085436600461403a565b6136d0565b34801561086557600080fd5b50600354600160a01b90046bffffffffffffffffffffffff16610809565b34801561088f57600080fd5b506102b161089e366004613f6a565b613815565b6001600160a01b03821660009081526005602052604081206001018054839081106108f7577f4e487b7100000000000000000000000000000000000000000000000000000000600052603260045260246000fd5b6000918252602090912001546001600160a01b031690505b92915050565b6001546040516391e1472b60e01b8152336004820152600060248201526001600160a01b03909116906391e1472b9060440160206040518083038186803b15801561095f57600080fd5b505afa158015610973573d6000803e3d6000fd5b505050506040513d601f19601f8201168201806040525081019061099791906141ca565b6109e85760405162461bcd60e51b815260206004820152601560248201527f4c6f673a5061726173736574426173653a21676f76000000000000000000000060448201526064015b60405180910390fd5b6bffffffffffffffffffffffff928316600160a01b9081026001600160a01b03958616176002559216909102911617600355565b6001546001600160a01b031633811480610aaf57506040516391e1472b60e01b8152336004820152600060248201526001600160a01b038216906391e1472b9060440160206040518083038186803b158015610a7757600080fd5b505afa158015610a8b573d6000803e3d6000fd5b505050506040513d601f19601f82011682018060405250810190610aaf91906141ca565b610afb5760405162461bcd60e51b815260206004820152601560248201527f4c6f673a5061726173736574426173653a21676f76000000000000000000000060448201526064016109df565b506001805473ffffffffffffffffffffffffffffffffffffffff19166001600160a01b0392909216919091179055565b6001546040516391e1472b60e01b8152336004820152600060248201526001600160a01b03909116906391e1472b9060440160206040518083038186803b158015610b7557600080fd5b505afa158015610b89573d6000803e3d6000fd5b505050506040513d601f19601f82011682018060405250810190610bad91906141ca565b610bf95760405162461bcd60e51b815260206004820152601560248201527f4c6f673a5061726173736574426173653a21676f76000000000000000000000060448201526064016109df565b6001600160a01b039091166000908152600460205260409020805469ffffffffffffffffffff9092166c01000000000000000000000000027fffffffffffffffffffff00000000000000000000ffffffffffffffffffffffff909216919091179055565b6001546040516391e1472b60e01b8152336004820152600060248201526001600160a01b03909116906391e1472b9060440160206040518083038186803b158015610ca757600080fd5b505afa158015610cbb573d6000803e3d6000fd5b505050506040513d601f19601f82011682018060405250810190610cdf91906141ca565b610d2b5760405162461bcd60e51b815260206004820152601560248201527f4c6f673a5061726173736574426173653a21676f76000000000000000000000060448201526064016109df565b600380546bffffffffffffffffffffffff909216600160a01b026001600160a01b03909216919091179055565b6001546040516391e1472b60e01b8152336004820152600060248201526001600160a01b03909116906391e1472b9060440160206040518083038186803b158015610da257600080fd5b505afa158015610db6573d6000803e3d6000fd5b505050506040513d601f19601f82011682018060405250810190610dda91906141ca565b610e265760405162461bcd60e51b815260206004820152601560248201527f4c6f673a5061726173736574426173653a21676f76000000000000000000000060448201526064016109df565b600280546bffffffffffffffffffffffff909216600160a01b026001600160a01b03909216919091179055565b6003546bffffffffffffffffffffffff600160a01b90910416600114610ebb5760405162461bcd60e51b815260206004820152601860248201527f4c6f673a4d6f727467616765506f6f6c3a21616374697665000000000000000060448201526064016109df565b60026000541415610f0e5760405162461bcd60e51b815260206004820152601f60248201527f5265656e7472616e637947756172643a207265656e7472616e742063616c6c0060448201526064016109df565b600260009081556001600160a01b0384168152600460209081526040918290208251608081018452905460ff811615158083526affffffffffffffffffffff6101008304169383019390935269ffffffffffffffffffff6c01000000000000000000000000820481169483019490945276010000000000000000000000000000000000000000000090049092166060830152610fec5760405162461bcd60e51b815260206004820152601f60248201527f4c6f673a4d6f727467616765506f6f6c3a216d6f727467616765416c6c6f770060448201526064016109df565b6000826affffffffffffffffffffff16118015611034575080602001516affffffffffffffffffffff16826affffffffffffffffffffff166103e86110319190614557565b11155b6110805760405162461bcd60e51b815260206004820152601860248201527f4c6f673a4d6f727467616765506f6f6c3a72617465213d30000000000000000060448201526064016109df565b600083116110d05760405162461bcd60e51b815260206004820152601a60248201527f4c6f673a4d6f727467616765506f6f6c3a616d6f756e74213d3000000000000060448201526064016109df565b6001600160a01b03841660008181526005602090815260408083203384529091528120600181015481549193909290819015611126576111128933308b613921565b61111c8934613a98565b909250905061118f565b873410156111765760405162461bcd60e51b815260206004820152601b60248201527f4c6f673a4d6f727467616765506f6f6c3a216d73672e76616c7565000000000060448201526064016109df565b611189896111848a34614594565b613a98565b90925090505b6040805160a081018252865481526001870154602082015260028701546001600160a01b03811692820192909252600160a01b82046affffffffffffffffffffff16606080830191909152600160f81b90920460ff1615156080820152908701516112009190849084906000613b50565b600061120d836064614557565b6affffffffffffffffffffff8916611225848c614557565b61122f9190614557565b61123991906143f7565b6002546040517f9d8ed858000000000000000000000000000000000000000000000000000000008152600481018390523360248201529192506001600160a01b031690639d8ed85890604401600060405180830381600087803b15801561129f57600080fd5b505af11580156112b3573d6000803e3d6000fd5b5050505088846112c391906143df565b86556112cf81866143df565b6001870181905560028701805473ffffffffffffffffffffffffffffffffffffffff1916436001600160a01b0316179055865461130d918585611b10565b8660020160146101000a8154816affffffffffffffffffffff02191690836affffffffffffffffffffff1602179055507f36b08d1ec8ecd588007d14ea5be9edb9eeb4cdd2f952162d2d32d4b71a0126a28a8760000154886001015486868b60020160149054906101000a90046affffffffffffffffffffff166040516113d4969594939291906001600160a01b0396909616865260208601949094526040850192909252606084015260808301526affffffffffffffffffffff1660a082015260c00190565b60405180910390a16002860154600160f81b900460ff16611467576001600160a01b038a16600090815260056020908152604082206001908101805491820181558352912001805473ffffffffffffffffffffffffffffffffffffffff1916331790556002860180547effffffffffffffffffffffffffffffffffffffffffffffffffffffffffffff16600160f81b1790555b505060016000555050505050505050565b6001546040516391e1472b60e01b8152336004820152600060248201526001600160a01b03909116906391e1472b9060440160206040518083038186803b1580156114c257600080fd5b505afa1580156114d6573d6000803e3d6000fd5b505050506040513d601f19601f820116820180604052508101906114fa91906141ca565b6115465760405162461bcd60e51b815260206004820152601560248201527f4c6f673a5061726173736574426173653a21676f76000000000000000000000060448201526064016109df565b6006805473ffffffffffffffffffffffffffffffffffffffff19166001600160a01b0392909216919091179055565b6001546040516391e1472b60e01b8152336004820152600060248201526001600160a01b03909116906391e1472b9060440160206040518083038186803b1580156115bf57600080fd5b505afa1580156115d3573d6000803e3d6000fd5b505050506040513d601f19601f820116820180604052508101906115f791906141ca565b6116435760405162461bcd60e51b815260206004820152601560248201527f4c6f673a5061726173736574426173653a21676f76000000000000000000000060448201526064016109df565b6001600160a01b03909116600090815260046020526040902080546affffffffffffffffffffff909216610100027fffffffffffffffffffffffffffffffffffffffff0000000000000000000000ff909216919091179055565b600354600160a01b90046bffffffffffffffffffffffff166117015760405162461bcd60e51b815260206004820152601360248201527f4c6f673a4d6f727467616765506f6f6c3a21300000000000000000000000000060448201526064016109df565b600260005414156117545760405162461bcd60e51b815260206004820152601f60248201527f5265656e7472616e637947756172643a207265656e7472616e742063616c6c0060448201526064016109df565b600260009081556001600160a01b0383168152600460209081526040918290208251608081018452905460ff811615158083526affffffffffffffffffffff6101008304169383019390935269ffffffffffffffffffff6c010000000000000000000000008204811694830194909452760100000000000000000000000000000000000000000000900490921660608301526118325760405162461bcd60e51b815260206004820152601f60248201527f4c6f673a4d6f727467616765506f6f6c3a216d6f727467616765416c6c6f770060448201526064016109df565b6001600160a01b0383166000908152600560209081526040808320338452909152902060018101548154841580159061186b5750818511155b6118b75760405162461bcd60e51b815260206004820152601860248201527f4c6f673a4d6f727467616765506f6f6c3a21616d6f756e74000000000000000060448201526064016109df565b6002830154600160f81b900460ff166119125760405162461bcd60e51b815260206004820152601960248201527f4c6f673a4d6f727467616765506f6f6c3a21637265617465640000000000000060448201526064016109df565b60008061191f8834613a98565b6040805160a081018252885481526001890154602082015260028901546001600160a01b03811692820192909252600160a01b82046affffffffffffffffffffff16606080830191909152600160f81b90920460ff16151560808201529089015192945090925061199491849084908b613b50565b61199e8785614594565b6001860181905560028601805473ffffffffffffffffffffffffffffffffffffffff1916436001600160a01b03161790556119dc9084908484611b10565b6002860180547fff0000000000000000000000ffffffffffffffffffffffffffffffffffffffff16600160a01b6affffffffffffffffffffff9384168102919091179182905587546001890154604080516001600160a01b038f16815260208101939093528201526060810186905260808101859052910490911660a08201527f36b08d1ec8ecd588007d14ea5be9edb9eeb4cdd2f952162d2d32d4b71a0126a29060c00160405180910390a16007546040517f22d8a580000000000000000000000000000000000000000000000000000000008152600481018990526001600160a01b03909116906322d8a580906024015b600060405180830381600087803b158015611ae957600080fd5b505af1158015611afd573d6000803e3d6000fd5b5050600160005550505050505050505050565b6000841580611b1d575081155b15611b2a57506000611b58565b611b348583614557565b611b3e8486614557565b611b4b90620186a0614557565b611b5591906143f7565b90505b949350505050565b6001600160a01b03858116600090815260056020908152604080832085851684528252808320815160a081018352815480825260018301549482019490945260029091015494851691810191909152600160a01b84046affffffffffffffffffffff166060820152600160f81b90930460ff161515608084015290918291829182918a9190158015611bf457506020810151155b15611c0e5760008060008095509550955095505050611d8a565b600354600254600091611c2f916001600160a01b03918216918d91166136d0565b60208301516040840151606085015185519394508e93611cba9392916affffffffffffffffffffff1690611c6590848789611b10565b6001600160a01b0389166000908152600460205260409020546affffffffffffffffffffff9190911690760100000000000000000000000000000000000000000000900469ffffffffffffffffffff1661313b565b9750611cdb8360000151898560200151611cd491906143df565b8385611b10565b6affffffffffffffffffffff90811697508a16808810611d02576000965060009550611d84565b611d0c8382614557565b828560200151611d1c9190614557565b611d2990620186a0614557565b611d3391906143f7565b8451611d3f9190614594565b6020850151909750611d5483620186a0614557565b85518390611d63908790614557565b611d6d9190614557565b611d7791906143f7565b611d819190614594565b95505b50505050505b95509550955095915050565b600354600160a01b90046bffffffffffffffffffffffff16611dfa5760405162461bcd60e51b815260206004820152601360248201527f4c6f673a4d6f727467616765506f6f6c3a21300000000000000000000000000060448201526064016109df565b60026000541415611e4d5760405162461bcd60e51b815260206004820152601f60248201527f5265656e7472616e637947756172643a207265656e7472616e742063616c6c0060448201526064016109df565b600260009081556001600160a01b0384168152600460209081526040918290208251608081018452905460ff811615158083526affffffffffffffffffffff6101008304169383019390935269ffffffffffffffffffff6c01000000000000000000000000820481169483019490945276010000000000000000000000000000000000000000000090049092166060830152611f2b5760405162461bcd60e51b815260206004820152601f60248201527f4c6f673a4d6f727467616765506f6f6c3a216d6f727467616765416c6c6f770060448201526064016109df565b6001600160a01b0384811660009081526005602090815260408083209387168352929052206002810154600160f81b900460ff16611fab5760405162461bcd60e51b815260206004820152601960248201527f4c6f673a4d6f727467616765506f6f6c3a21637265617465640000000000000060448201526064016109df565b600181015481548415801590611fc15750808511155b61200d5760405162461bcd60e51b815260206004820152601860248201527f4c6f673a4d6f727467616765506f6f6c3a21616d6f756e74000000000000000060448201526064016109df565b60008061201a8934613a98565b6040805160a081018252885481526001890154602082015260028901546001600160a01b03811682840152600160a01b81046affffffffffffffffffffff16606080840191909152600160f81b90910460ff1615156080830152918a0151918a015193955091935061208f9285918591612ff1565b600061209c836064614557565b6120a6838a614557565b6120b190605a614557565b6120bb91906143f7565b6002546007549192506120dd916001600160a01b039182169133911684613921565b600760009054906101000a90046001600160a01b03166001600160a01b031663b7694a936040518163ffffffff1660e01b8152600401600060405180830381600087803b15801561212d57600080fd5b505af1158015612141573d6000803e3d6000fd5b5050505060008489876121549190614557565b61215e91906143f7565b6007546040517f22d8a580000000000000000000000000000000000000000000000000000000008152600481018390529192506001600160a01b0316906322d8a58090602401600060405180830381600087803b1580156121be57600080fd5b505af11580156121d2573d6000803e3d6000fd5b5050505088856121e29190614594565b87556121ee8187614594565b87600101819055507f36b08d1ec8ecd588007d14ea5be9edb9eeb4cdd2f952162d2d32d4b71a0126a28b8860000154896001015487878c60020160149054906101000a90046affffffffffffffffffffff1660405161228d969594939291906001600160a01b0396909616865260208601949094526040850192909252606084015260808301526affffffffffffffffffffff1660a082015260c00190565b60405180910390a186546122cd57600060018801556002870180547fff000000000000000000000000000000000000000000000000000000000000001690555b6001600160a01b038b16156122ec576122e78b338b613caa565b6122f6565b6122f6338a613df3565b50506001600055505050505050505050565b6003546bffffffffffffffffffffffff600160a01b909104166001146123705760405162461bcd60e51b815260206004820152601860248201527f4c6f673a4d6f727467616765506f6f6c3a21616374697665000000000000000060448201526064016109df565b600260005414156123c35760405162461bcd60e51b815260206004820152601f60248201527f5265656e7472616e637947756172643a207265656e7472616e742063616c6c0060448201526064016109df565b600260009081556001600160a01b0383168152600460209081526040918290208251608081018452905460ff811615158083526affffffffffffffffffffff6101008304169383019390935269ffffffffffffffffffff6c010000000000000000000000008204811694830194909452760100000000000000000000000000000000000000000000900490921660608301526124a15760405162461bcd60e51b815260206004820152601f60248201527f4c6f673a4d6f727467616765506f6f6c3a216d6f727467616765416c6c6f770060448201526064016109df565b600082116124f15760405162461bcd60e51b815260206004820152601860248201527f4c6f673a4d6f727467616765506f6f6c3a21616d6f756e74000000000000000060448201526064016109df565b6001600160a01b03831660009081526005602090815260408083203384529091529020600181015481546002830154600160f81b900460ff166125765760405162461bcd60e51b815260206004820152601960248201527f4c6f673a4d6f727467616765506f6f6c3a21637265617465640000000000000060448201526064016109df565b6000806125838834613a98565b6040805160a081018252885481526001890154602082015260028901546001600160a01b03811692820192909252600160a01b82046affffffffffffffffffffff16606080830191909152600160f81b90920460ff1615156080820152908901519294509092506125f991849084906000613b50565b61260387856143df565b6001860181905560028601805473ffffffffffffffffffffffffffffffffffffffff1916436001600160a01b03161790556126419084908484611b10565b6002860180547fff0000000000000000000000ffffffffffffffffffffffffffffffffffffffff16600160a01b6affffffffffffffffffffff9384168102919091179182905587546001890154604080516001600160a01b038f16815260208101939093528201526060810186905260808101859052910490911660a08201527f36b08d1ec8ecd588007d14ea5be9edb9eeb4cdd2f952162d2d32d4b71a0126a29060c00160405180910390a1602086015160028601546affffffffffffffffffffff918216600160a01b90910490911611156127605760405162461bcd60e51b815260206004820152601960248201527f4c6f673a4d6f727467616765506f6f6c3a216d6178526174650000000000000060448201526064016109df565b6002546040517f9d8ed858000000000000000000000000000000000000000000000000000000008152600481018990523360248201526001600160a01b0390911690639d8ed85890604401611acf565b600354600160a01b90046bffffffffffffffffffffffff166128145760405162461bcd60e51b815260206004820152601360248201527f4c6f673a4d6f727467616765506f6f6c3a21300000000000000000000000000060448201526064016109df565b600260005414156128675760405162461bcd60e51b815260206004820152601f60248201527f5265656e7472616e637947756172643a207265656e7472616e742063616c6c0060448201526064016109df565b600260009081556001600160a01b0383168152600460209081526040918290208251608081018452905460ff811615158083526affffffffffffffffffffff6101008304169383019390935269ffffffffffffffffffff6c010000000000000000000000008204811694830194909452760100000000000000000000000000000000000000000000900490921660608301526129455760405162461bcd60e51b815260206004820152601f60248201527f4c6f673a4d6f727467616765506f6f6c3a216d6f727467616765416c6c6f770060448201526064016109df565b600082116129955760405162461bcd60e51b815260206004820152601860248201527f4c6f673a4d6f727467616765506f6f6c3a21616d6f756e74000000000000000060448201526064016109df565b6001600160a01b03831660009081526005602090815260408083203384529091529020600181015481546002830154600160f81b900460ff16612a1a5760405162461bcd60e51b815260206004820152601960248201527f4c6f673a4d6f727467616765506f6f6c3a21637265617465640000000000000060448201526064016109df565b6000806001600160a01b03881615612a4c57612a388833308a613921565b612a428834613a98565b9092509050612ab0565b86341015612a9c5760405162461bcd60e51b815260206004820152601b60248201527f4c6f673a4d6f727467616765506f6f6c3a216d73672e76616c7565000000000060448201526064016109df565b612aaa886111848934614594565b90925090505b6040805160a081018252865481526001870154602082015260028701546001600160a01b03811692820192909252600160a01b82046affffffffffffffffffffff16606080830191909152600160f81b90920460ff161515608082015290870151612b219190849084906000613b50565b612b2b87846143df565b80865560028601805473ffffffffffffffffffffffffffffffffffffffff1916436001600160a01b0316179055612b6490858484611b10565b6002860180547fff0000000000000000000000ffffffffffffffffffffffffffffffffffffffff16600160a01b6affffffffffffffffffffff9384168102919091179182905587546001890154604080516001600160a01b038f16815260208101939093528201526060810186905260808101859052910490911660a08201527f36b08d1ec8ecd588007d14ea5be9edb9eeb4cdd2f952162d2d32d4b71a0126a29060c00160405180910390a150506001600055505050505050565b6001546040516391e1472b60e01b8152336004820152600060248201526001600160a01b03909116906391e1472b9060440160206040518083038186803b158015612c6a57600080fd5b505afa158015612c7e573d6000803e3d6000fd5b505050506040513d601f19601f82011682018060405250810190612ca291906141ca565b612cee5760405162461bcd60e51b815260206004820152601560248201527f4c6f673a5061726173736574426173653a21676f76000000000000000000000060448201526064016109df565b6007805473ffffffffffffffffffffffffffffffffffffffff19166001600160a01b0392909216919091179055565b6001546040516391e1472b60e01b8152336004820152600060248201526001600160a01b03909116906391e1472b9060440160206040518083038186803b158015612d6757600080fd5b505afa158015612d7b573d6000803e3d6000fd5b505050506040513d601f19601f82011682018060405250810190612d9f91906141ca565b612deb5760405162461bcd60e51b815260206004820152601560248201527f4c6f673a5061726173736574426173653a21676f76000000000000000000000060448201526064016109df565b6001600160a01b039091166000908152600460205260409020805469ffffffffffffffffffff9092167601000000000000000000000000000000000000000000000275ffffffffffffffffffffffffffffffffffffffffffff909216919091179055565b6001546040516391e1472b60e01b8152336004820152600060248201526001600160a01b03909116906391e1472b9060440160206040518083038186803b158015612e9957600080fd5b505afa158015612ead573d6000803e3d6000fd5b505050506040513d601f19601f82011682018060405250810190612ed191906141ca565b612f1d5760405162461bcd60e51b815260206004820152601560248201527f4c6f673a5061726173736574426173653a21676f76000000000000000000000060448201526064016109df565b6001600160a01b0391909116600090815260046020526040902080547fffffffffffffffffffffffffffffffffffffffffffffffffffffffffffffff0016911515919091179055565b6001546001600160a01b031615612fbf5760405162461bcd60e51b815260206004820152601b60248201527f4c6f673a50617261737365744261736521696e697469616c697a65000000000060448201526064016109df565b6001805473ffffffffffffffffffffffffffffffffffffffff19166001600160a01b0392909216919091178155600055565b60208501518551600061300682848989611b10565b6affffffffffffffffffffff169050600080896040015190506000851180156130405750806001600160a01b0316436001600160a01b0316115b801561305457506001600160a01b03811615155b1561307a5761307785828c606001516affffffffffffffffffffff16868a61313b565b91505b61308489896143f7565b61309185620186a0614557565b69ffffffffffffffffffff89166130a885896143df565b6130b29190614557565b6130bc91906143f7565b1061312f5760405162461bcd60e51b815260206004820152602160248201527f4c6f673a4d6f727467616765506f6f6c3a216c69717569646174696f6e4c696e60448201527f650000000000000000000000000000000000000000000000000000000000000060648201526084016109df565b50505050505050505050565b6000806131516001600160a01b03871643614594565b61316769ffffffffffffffffffff851689614557565b6131719190614557565b9050600061317f85876143df565b905060008160036131996001600160a01b038b1643614594565b6131af69ffffffffffffffffffff89168d614557565b6131b99190614557565b6131c39190614557565b6131cd9190614557565b6002549091506000906131f890600160a01b90046bffffffffffffffffffffffff16620186a0614557565b905061320781620186a0614557565b613212906002614557565b61321c90836143f7565b61322682866143f7565b61323091906143df565b9a9950505050505050505050565b600354600160a01b90046bffffffffffffffffffffffff166132a25760405162461bcd60e51b815260206004820152601360248201527f4c6f673a4d6f727467616765506f6f6c3a21300000000000000000000000000060448201526064016109df565b600260005414156132f55760405162461bcd60e51b815260206004820152601f60248201527f5265656e7472616e637947756172643a207265656e7472616e742063616c6c0060448201526064016109df565b600260009081556001600160a01b0383168152600460209081526040918290208251608081018452905460ff811615158083526affffffffffffffffffffff6101008304169383019390935269ffffffffffffffffffff6c010000000000000000000000008204811694830194909452760100000000000000000000000000000000000000000000900490921660608301526133d35760405162461bcd60e51b815260206004820152601f60248201527f4c6f673a4d6f727467616765506f6f6c3a216d6f727467616765416c6c6f770060448201526064016109df565b6001600160a01b0383166000908152600560209081526040808320338452909152902060018101548154841580159061340c5750808511155b6134585760405162461bcd60e51b815260206004820152601860248201527f4c6f673a4d6f727467616765506f6f6c3a21616d6f756e74000000000000000060448201526064016109df565b6002830154600160f81b900460ff166134b35760405162461bcd60e51b815260206004820152601960248201527f4c6f673a4d6f727467616765506f6f6c3a21637265617465640000000000000060448201526064016109df565b6000806134c08834613a98565b6040805160a081018252885481526001890154602082015260028901546001600160a01b03811692820192909252600160a01b82046affffffffffffffffffffff16606080830191909152600160f81b90920460ff16151560808201529089015192945090925061353691849084906000613b50565b6135408784614594565b80865560028601805473ffffffffffffffffffffffffffffffffffffffff1916436001600160a01b031617905561357990858484611b10565b6002860180547fff0000000000000000000000ffffffffffffffffffffffffffffffffffffffff16600160a01b6affffffffffffffffffffff9384168102919091179182905587546001890154604080516001600160a01b038f16815260208101939093528201526060810186905260808101859052910490911660a08201527f36b08d1ec8ecd588007d14ea5be9edb9eeb4cdd2f952162d2d32d4b71a0126a29060c00160405180910390a1602086015160028601546affffffffffffffffffffff918216600160a01b90910490911611156136985760405162461bcd60e51b815260206004820152601960248201527f4c6f673a4d6f727467616765506f6f6c3a216d6178526174650000000000000060448201526064016109df565b6001600160a01b038816156136b7576136b2883389613caa565b6136c1565b6136c13388613df3565b50506001600055505050505050565b60006012806001600160a01b0386161561375b57856001600160a01b031663313ce5676040518163ffffffff1660e01b815260040160206040518083038186803b15801561371d57600080fd5b505afa158015613731573d6000803e3d6000fd5b505050506040513d601f19601f82011682018060405250810190613755919061436b565b60ff1691505b6001600160a01b038416156137e157836001600160a01b031663313ce5676040518163ffffffff1660e01b815260040160206040518083038186803b1580156137a357600080fd5b505afa1580156137b7573d6000803e3d6000fd5b505050506040513d601f19601f820116820180604052508101906137db919061436b565b60ff1690505b6137ec82600a614491565b6137f782600a614491565b6138019087614557565b61380b91906143f7565b9695505050505050565b6001546040516391e1472b60e01b8152336004820152600060248201526001600160a01b03909116906391e1472b9060440160206040518083038186803b15801561385f57600080fd5b505afa158015613873573d6000803e3d6000fd5b505050506040513d601f19601f8201168201806040525081019061389791906141ca565b6138e35760405162461bcd60e51b815260206004820152601560248201527f4c6f673a5061726173736574426173653a21676f76000000000000000000000060448201526064016109df565b600280546001600160a01b0392831673ffffffffffffffffffffffffffffffffffffffff199182161790915560038054939092169216919091179055565b604080516001600160a01b0385811660248301528481166044830152606480830185905283518084039091018152608490920183526020820180517bffffffffffffffffffffffffffffffffffffffffffffffffffffffff167f23b872dd0000000000000000000000000000000000000000000000000000000017905291516000928392908816916139b391906143a6565b6000604051808303816000865af19150503d80600081146139f0576040519150601f19603f3d011682016040523d82523d6000602084013e6139f5565b606091505b5091509150818015613a1f575080511580613a1f575080806020019051810190613a1f91906141ca565b613a905760405162461bcd60e51b8152602060048201526024808201527f5472616e7366657248656c7065723a205452414e534645525f46524f4d5f464160448201527f494c45440000000000000000000000000000000000000000000000000000000060648201526084016109df565b505050505050565b6006546003546040517f0da33aa90000000000000000000000000000000000000000000000000000000081526001600160a01b038581166004830152918216602482015233604482015260009283921690630da33aa990859060640160408051808303818588803b158015613b0c57600080fd5b505af1158015613b20573d6000803e3d6000fd5b50505050506040513d601f19601f82011682018060405250810190613b459190614317565b909590945092505050565b60208501518551606087015160408801516affffffffffffffffffffff909116908315801590613b915750806001600160a01b0316436001600160a01b0316115b8015613ba557506001600160a01b03811615155b15613c9f576000613bd1858385613bbe888a8f8f611b10565b6affffffffffffffffffffff168b61313b565b600254600754919250613bfc916001600160a01b0391821691339116613bf78a866143df565b613921565b600760009054906101000a90046001600160a01b03166001600160a01b031663b7694a936040518163ffffffff1660e01b8152600401600060405180830381600087803b158015613c4c57600080fd5b505af1158015613c60573d6000803e3d6000fd5b505050507fd22f9c8c29c0808be6387686ac52381992fdeea23a23843e31ee581e6530418281604051613c9591815260200190565b60405180910390a1505b505050505050505050565b604080516001600160a01b038481166024830152604480830185905283518084039091018152606490920183526020820180517bffffffffffffffffffffffffffffffffffffffffffffffffffffffff167fa9059cbb000000000000000000000000000000000000000000000000000000001790529151600092839290871691613d3491906143a6565b6000604051808303816000865af19150503d8060008114613d71576040519150601f19603f3d011682016040523d82523d6000602084013e613d76565b606091505b5091509150818015613da0575080511580613da0575080806020019051810190613da091906141ca565b613dec5760405162461bcd60e51b815260206004820152601f60248201527f5472616e7366657248656c7065723a205452414e534645525f4641494c45440060448201526064016109df565b5050505050565b604080516000808252602082019092526001600160a01b038416908390604051613e1d91906143a6565b60006040518083038185875af1925050503d8060008114613e5a576040519150601f19603f3d011682016040523d82523d6000602084013e613e5f565b606091505b5050905080613ed65760405162461bcd60e51b815260206004820152602360248201527f5472616e7366657248656c7065723a204554485f5452414e534645525f46414960448201527f4c4544000000000000000000000000000000000000000000000000000000000060648201526084016109df565b505050565b8035613ee6816145f2565b919050565b8035613ee6816145da565b803569ffffffffffffffffffff81168114613ee657600080fd5b80356affffffffffffffffffffff81168114613ee657600080fd5b80356bffffffffffffffffffffffff81168114613ee657600080fd5b600060208284031215613f58578081fd5b8135613f63816145da565b9392505050565b60008060408385031215613f7c578081fd5b8235613f87816145da565b91506020830135613f97816145da565b809150509250929050565b600080600060608486031215613fb6578081fd5b8335613fc1816145da565b92506020840135613fd1816145da565b929592945050506040919091013590565b60008060408385031215613ff4578182fd5b8235613fff816145da565b91506020830135613f97816145f2565b60008060408385031215614021578182fd5b823561402c816145da565b946020939093013593505050565b60008060006060848603121561404e578283fd5b8335614059816145da565b9250602084013591506040840135614070816145da565b809150509250925092565b600080600080600060a08688031215614092578081fd5b853561409d816145da565b945060208601359350604086013592506140b960608701613f10565b915060808601356140c9816145da565b809150509295509295909350565b6000806000606084860312156140eb578283fd5b83356140f6816145da565b92506020840135915061410b60408501613f10565b90509250925092565b60008060408385031215614126578182fd5b8235614131816145da565b915061413f60208401613ef6565b90509250929050565b6000806040838503121561415a578182fd5b8235614165816145da565b915061413f60208401613f10565b60008060008060808587031215614188578182fd5b8435614193816145da565b93506141a160208601613f2b565b925060408501356141b1816145da565b91506141bf60608601613f2b565b905092959194509250565b6000602082840312156141db578081fd5b8151613f63816145f2565b60008060008060008587036101208112156141ff578384fd5b60a081121561420c578384fd5b5060405160a0810181811067ffffffffffffffff82111715614255577f4e487b710000000000000000000000000000000000000000000000000000000085526041600452602485fd5b8060405250863581526020870135602082015261427460408801613eeb565b604082015261428560608801613f10565b606082015261429660808801613edb565b6080820152945060a0860135935060c086013592506142b760e08701613ef6565b91506142c66101008701613ef6565b90509295509295909350565b600080600080600060a086880312156142e9578283fd5b8535945060208601356142fb816145da565b935060408601359250606086013591506142c660808701613ef6565b60008060408385031215614329578182fd5b505080516020909101519092909150565b6000806000806080858703121561434f578182fd5b5050823594602084013594506040840135936060013592509050565b60006020828403121561437c578081fd5b815160ff81168114613f63578182fd5b60006020828403121561439d578081fd5b613f6382613f2b565b60008251815b818110156143c657602081860181015185830152016143ac565b818111156143d45782828501525b509190910192915050565b600082198211156143f2576143f26145ab565b500190565b60008261442b577f4e487b710000000000000000000000000000000000000000000000000000000081526012600452602481fd5b500490565b600181815b8085111561448957817fffffffffffffffffffffffffffffffffffffffffffffffffffffffffffffffff0482111561446f5761446f6145ab565b8085161561447c57918102915b93841c9390800290614435565b509250929050565b6000613f6383836000826144a75750600161090f565b816144b45750600061090f565b81600181146144ca57600281146144d4576144f0565b600191505061090f565b60ff8411156144e5576144e56145ab565b50506001821b61090f565b5060208310610133831016604e8410600b8410161715614513575081810a61090f565b61451d8383614430565b807fffffffffffffffffffffffffffffffffffffffffffffffffffffffffffffffff0482111561454f5761454f6145ab565b029392505050565b6000817fffffffffffffffffffffffffffffffffffffffffffffffffffffffffffffffff048311821515161561458f5761458f6145ab565b500290565b6000828210156145a6576145a66145ab565b500390565b7f4e487b7100000000000000000000000000000000000000000000000000000000600052601160045260246000fd5b6001600160a01b03811681146145ef57600080fd5b50565b80151581146145ef57600080fdfea2646970667358221220c8e35e37b0ac63cb4a181f4f7c471b704b39df28858c586d5a161658f545a8c464736f6c63430008040033",
  "linkReferences": {},
  "deployedLinkReferences": {}
}