{
  "_format": "hh-sol-artifact-1",
  "contractName": "PriceController",
  "sourceName": "contracts/PriceController.sol",
  "abi": [
    {
      "inputs": [
        {
          "internalType": "address",
          "name": "nestPriceFacade",
          "type": "address"
        },
        {
          "internalType": "address",
          "name": "ntokenController",
          "type": "address"
        }
      ],
      "stateMutability": "nonpayable",
      "type": "constructor"
    },
    {
      "inputs": [
        {
          "internalType": "address",
          "name": "tokenOne",
          "type": "address"
        },
        {
          "internalType": "address",
          "name": "tokenTwo",
          "type": "address"
        }
      ],
      "name": "checkNToken",
      "outputs": [
        {
          "internalType": "bool",
          "name": "",
          "type": "bool"
        }
      ],
      "stateMutability": "view",
      "type": "function"
    },
    {
      "inputs": [
        {
          "internalType": "address",
          "name": "inputToken",
          "type": "address"
        },
        {
          "internalType": "uint256",
          "name": "inputTokenAmount",
          "type": "uint256"
        },
        {
          "internalType": "address",
          "name": "outputToken",
          "type": "address"
        }
      ],
      "name": "getDecimalConversion",
      "outputs": [
        {
          "internalType": "uint256",
          "name": "",
          "type": "uint256"
        }
      ],
      "stateMutability": "view",
      "type": "function"
    },
    {
      "inputs": [
        {
          "internalType": "address",
          "name": "token",
          "type": "address"
        },
        {
          "internalType": "address",
          "name": "uToken",
          "type": "address"
        },
        {
          "internalType": "address",
          "name": "payback",
          "type": "address"
        }
      ],
      "name": "getPriceForPToken",
      "outputs": [
        {
          "internalType": "uint256",
          "name": "tokenPrice",
          "type": "uint256"
        },
        {
          "internalType": "uint256",
          "name": "pTokenPrice",
          "type": "uint256"
        }
      ],
      "stateMutability": "payable",
      "type": "function"
    }
  ],
  "bytecode": "0x608060405234801561001057600080fd5b50604051610ef5380380610ef583398101604081905261002f9161007c565b600080546001600160a01b039384166001600160a01b031991821617909155600180549290931691161790556100ae565b80516001600160a01b038116811461007757600080fd5b919050565b6000806040838503121561008e578182fd5b61009783610060565b91506100a560208401610060565b90509250929050565b610e38806100bd6000396000f3fe6080604052600436106100345760003560e01c80630da33aa914610039578063bf5ca28a14610066578063f908159114610096575b600080fd5b61004c610047366004610adf565b6100c4565b604080519283526020830191909152015b60405180910390f35b34801561007257600080fd5b50610086610081366004610aa7565b610834565b604051901515815260200161005d565b3480156100a257600080fd5b506100b66100b1366004610b29565b61090b565b60405190815260200161005d565b60008073ffffffffffffffffffffffffffffffffffffffff851661022557600080546040517f89f4d6e300000000000000000000000000000000000000000000000000000000815273ffffffffffffffffffffffffffffffffffffffff87811660048301528681166024830152909116906389f4d6e39034906044016080604051808303818588803b15801561015957600080fd5b505af115801561016d573d6000803e3d6000fd5b50505050506040513d601f19601f820116820180604052508101906101929190610b5f565b509250505060008111610206576040517f08c379a000000000000000000000000000000000000000000000000000000000815260206004820152601960248201527f4c6f673a5072696365436f6e74726f6c6c65723a21617667310000000000000060448201526064015b60405180910390fd5b670de0b6b3a764000061021b8683600061090b565b925092505061082c565b73ffffffffffffffffffffffffffffffffffffffff841661037e57600080546040517f89f4d6e300000000000000000000000000000000000000000000000000000000815273ffffffffffffffffffffffffffffffffffffffff88811660048301528681166024830152909116906389f4d6e39034906044016080604051808303818588803b1580156102b757600080fd5b505af11580156102cb573d6000803e3d6000fd5b50505050506040513d601f19601f820116820180604052508101906102f09190610b5f565b50925050506000811161035f576040517f08c379a000000000000000000000000000000000000000000000000000000000815260206004820152601960248201527f4c6f673a5072696365436f6e74726f6c6c65723a21617667320000000000000060448201526064016101fd565b61036b8582600061090b565b670de0b6b3a7640000925092505061082c565b6103888585610834565b156104d657600080546040517f4c29802900000000000000000000000000000000000000000000000000000000815273ffffffffffffffffffffffffffffffffffffffff8881166004830152868116602483015283921690634c298029903490604401610100604051808303818588803b15801561040557600080fd5b505af1158015610419573d6000803e3d6000fd5b50505050506040513d601f19601f8201168201806040525081019061043e9190610b94565b509650505050935050506000821180156104585750600081115b6104be576040517f08c379a000000000000000000000000000000000000000000000000000000000815260206004820152601960248201527f4c6f673a5072696365436f6e74726f6c6c65723a21617667330000000000000060448201526064016101fd565b816104cb8783600061090b565b93509350505061082c565b6104e08486610834565b1561062357600080546040517f4c29802900000000000000000000000000000000000000000000000000000000815273ffffffffffffffffffffffffffffffffffffffff8781166004830152868116602483015283921690634c298029903490604401610100604051808303818588803b15801561055d57600080fd5b505af1158015610571573d6000803e3d6000fd5b50505050506040513d601f19601f820116820180604052508101906105969190610b94565b509650505050935050506000821180156105b05750600081115b610616576040517f08c379a000000000000000000000000000000000000000000000000000000000815260206004820152601960248201527f4c6f673a5072696365436f6e74726f6c6c65723a21617667340000000000000060448201526064016101fd565b806104cb8784600061090b565b6000610630600234610c11565b600080546040517f89f4d6e300000000000000000000000000000000000000000000000000000000815273ffffffffffffffffffffffffffffffffffffffff8a811660048301528881166024830152939450919216906389f4d6e39084906044016080604051808303818588803b1580156106aa57600080fd5b505af11580156106be573d6000803e3d6000fd5b50505050506040513d601f19601f820116820180604052508101906106e39190610b5f565b50600080546040517f89f4d6e300000000000000000000000000000000000000000000000000000000815273ffffffffffffffffffffffffffffffffffffffff8c811660048301528b811660248301529396509194509190911691506389f4d6e39085906044016080604051808303818588803b15801561076357600080fd5b505af1158015610777573d6000803e3d6000fd5b50505050506040513d601f19601f8201168201806040525081019061079c9190610b5f565b50925050506000821180156107b15750600081115b610817576040517f08c379a000000000000000000000000000000000000000000000000000000000815260206004820152601960248201527f4c6f673a5072696365436f6e74726f6c6c65723a21617667350000000000000060448201526064016101fd565b816108248883600061090b565b945094505050505b935093915050565b6001546040517f6ca707a600000000000000000000000000000000000000000000000000000000815273ffffffffffffffffffffffffffffffffffffffff848116600483015260009284821692911690636ca707a69060240160206040518083038186803b1580156108a557600080fd5b505afa1580156108b9573d6000803e3d6000fd5b505050506040513d601f19601f820116820180604052508101906108dd9190610a84565b73ffffffffffffffffffffffffffffffffffffffff16141561090157506001610905565b5060005b92915050565b600060128073ffffffffffffffffffffffffffffffffffffffff8616156109b0578573ffffffffffffffffffffffffffffffffffffffff1663313ce5676040518163ffffffff1660e01b815260040160206040518083038186803b15801561097257600080fd5b505afa158015610986573d6000803e3d6000fd5b505050506040513d601f19601f820116820180604052508101906109aa9190610bf0565b60ff1691505b73ffffffffffffffffffffffffffffffffffffffff841615610a50578373ffffffffffffffffffffffffffffffffffffffff1663313ce5676040518163ffffffff1660e01b815260040160206040518083038186803b158015610a1257600080fd5b505afa158015610a26573d6000803e3d6000fd5b505050506040513d601f19601f82011682018060405250810190610a4a9190610bf0565b60ff1690505b610a5b82600a610cab565b610a6682600a610cab565b610a709087610d71565b610a7a9190610c11565b9695505050505050565b600060208284031215610a95578081fd5b8151610aa081610ddd565b9392505050565b60008060408385031215610ab9578081fd5b8235610ac481610ddd565b91506020830135610ad481610ddd565b809150509250929050565b600080600060608486031215610af3578081fd5b8335610afe81610ddd565b92506020840135610b0e81610ddd565b91506040840135610b1e81610ddd565b809150509250925092565b600080600060608486031215610b3d578283fd5b8335610b4881610ddd565b9250602084013591506040840135610b1e81610ddd565b60008060008060808587031215610b74578081fd5b505082516020840151604085015160609095015191969095509092509050565b600080600080600080600080610100898b031215610bb0578384fd5b505086516020880151604089015160608a015160808b015160a08c015160c08d015160e0909d0151959e949d50929b919a50985090965094509092509050565b600060208284031215610c01578081fd5b815160ff81168114610aa0578182fd5b600082610c45577f4e487b710000000000000000000000000000000000000000000000000000000081526012600452602481fd5b500490565b600181815b80851115610ca357817fffffffffffffffffffffffffffffffffffffffffffffffffffffffffffffffff04821115610c8957610c89610dae565b80851615610c9657918102915b93841c9390800290610c4f565b509250929050565b6000610aa08383600082610cc157506001610905565b81610cce57506000610905565b8160018114610ce45760028114610cee57610d0a565b6001915050610905565b60ff841115610cff57610cff610dae565b50506001821b610905565b5060208310610133831016604e8410600b8410161715610d2d575081810a610905565b610d378383610c4a565b807fffffffffffffffffffffffffffffffffffffffffffffffffffffffffffffffff04821115610d6957610d69610dae565b029392505050565b6000817fffffffffffffffffffffffffffffffffffffffffffffffffffffffffffffffff0483118215151615610da957610da9610dae565b500290565b7f4e487b7100000000000000000000000000000000000000000000000000000000600052601160045260246000fd5b73ffffffffffffffffffffffffffffffffffffffff81168114610dff57600080fd5b5056fea264697066735822122047a5fa02ca1d135a81bdd05cc19b8e87d6d11f128bdf2af2687ff881d6a191f364736f6c63430008040033",
  "linkReferences": {},
  "deployedLinkReferences": {}
}