{
	"data": {
		"bytecode": {
			"linkReferences": {},
			"object": "608060405234801561001057600080fd5b506138ee806100206000396000f3fe60806040526004361061031a5760003560e01c80637120a88b116101ab578063b7694a93116100f7578063da262f5811610095578063de67ae411161006f578063de67ae411461093e578063f544d25b1461095e578063f90815911461097e578063fb606f921461099e57600080fd5b8063da262f58146108d8578063dad6dab3146103d1578063dd62ed3e146108f857600080fd5b8063c87814a6116100d1578063c87814a614610868578063cd32045e14610888578063cf9a197d146108a8578063d8fa1034146108c257600080fd5b8063b7694a931461081e578063bbacf92b14610833578063c4d66de81461084857600080fd5b8063a457c2d711610164578063a9059cbb1161013e578063a9059cbb146107b3578063af81c5b9146107d3578063b1bb11d7146107f3578063b2131f7d1461080857600080fd5b8063a457c2d71461075d578063a5831a621461077d578063a65e08ff1461079d57600080fd5b80637120a88b146106b85780637e4d4734146106d85780637ea69a84146106f25780638a13c54c1461071257806395d89b41146107325780639972585c1461074757600080fd5b806334e23ad71161026a57806345596e2e11610223578063646475ef116101fd578063646475ef146105fc57806364af87921461060f57806364fb4fc71461062f57806370a082311461068257600080fd5b806345596e2e146105a657806347f6670f146105c657806351804a6e146105dc57600080fd5b806334e23ad7146104e957806335dbfde21461051357806339509351146105265780633d5e3f501461054657806341ad98821461056657806342df063c1461058657600080fd5b80631a8d3f8b116102d757806322d8a580116102b157806322d8a5801461046757806323b872dd146104875780632503f73f146104a7578063313ce567146104c757600080fd5b80631a8d3f8b146104075780631c1b8772146104275780631c2f3e3d1461044757600080fd5b806306fdde031461031f578063095ea7b31461034a5780630b0289f61461037a57806310525923146103b157806314ec1c6b146103d357806318160ddd146103e8575b600080fd5b34801561032b57600080fd5b506103346109be565b6040516103419190613526565b60405180910390f35b34801561035657600080fd5b5061036a610365366004613381565b610a50565b6040519015158152602001610341565b34801561038657600080fd5b5060115461010090046001600160a01b03165b6040516001600160a01b039091168152602001610341565b3480156103bd57600080fd5b506103d16103cc366004613485565b610a67565b005b3480156103df57600080fd5b506103d1610b6c565b3480156103f457600080fd5b506004545b604051908152602001610341565b34801561041357600080fd5b506103d1610422366004613485565b610c1d565b34801561043357600080fd5b506103d16104423660046132f0565b610d19565b34801561045357600080fd5b50600154610399906001600160a01b031681565b34801561047357600080fd5b506103d1610482366004613485565b610dec565b34801561049357600080fd5b5061036a6104a2366004613345565b610ff8565b3480156104b357600080fd5b506103f96104c23660046132f0565b6110a2565b3480156104d357600080fd5b5060125b60405160ff9091168152602001610341565b3480156104f557600080fd5b506104fe61114e565b60408051928352602083019190915201610341565b6103d1610521366004613485565b6111c0565b34801561053257600080fd5b5061036a610541366004613381565b611487565b34801561055257600080fd5b506103d1610561366004613485565b6114c3565b34801561057257600080fd5b50600d54610399906001600160a01b031681565b34801561059257600080fd5b506103d16105a1366004613485565b611624565b3480156105b257600080fd5b506103d16105c1366004613485565b6116c8565b3480156105d257600080fd5b506103f9600f5481565b3480156105e857600080fd5b50600b54610399906001600160a01b031681565b6103d161060a366004613485565b61176c565b34801561061b57600080fd5b506103f961062a3660046132f0565b611ab3565b34801561063b57600080fd5b506104fe61064a3660046132f0565b6001600160a01b03166000908152600a6020908152604091829020825180840190935280548084526001909101549290910182905291565b34801561068e57600080fd5b506103f961069d3660046132f0565b6001600160a01b031660009081526002602052604090205490565b3480156106c457600080fd5b506103d16106d33660046134b7565b611afc565b3480156106e457600080fd5b5060115461036a9060ff1681565b3480156106fe57600080fd5b506103d161070d3660046132f0565b611bb1565b34801561071e57600080fd5b50600c54610399906001600160a01b031681565b34801561073e57600080fd5b50610334611c72565b34801561075357600080fd5b506103f960085481565b34801561076957600080fd5b5061036a610778366004613381565b611c81565b34801561078957600080fd5b506103d1610798366004613485565b611d1a565b3480156107a957600080fd5b506103f960075481565b3480156107bf57600080fd5b5061036a6107ce366004613381565b61209c565b3480156107df57600080fd5b506103d16107ee366004613381565b6120a9565b3480156107ff57600080fd5b506104fe6120b9565b34801561081457600080fd5b506103f960105481565b34801561082a57600080fd5b506103d161210f565b34801561083f57600080fd5b506103d1612302565b34801561085457600080fd5b506103d16108633660046132f0565b612353565b34801561087457600080fd5b506103f96108833660046132f0565b6123b9565b34801561089457600080fd5b506103d16108a33660046132f0565b61241e565b3480156108b457600080fd5b506009546104d79060ff1681565b3480156108ce57600080fd5b506103f9600e5481565b3480156108e457600080fd5b506103d16108f3366004613421565b6124e5565b34801561090457600080fd5b506103f9610913366004613312565b6001600160a01b03918216600090815260036020908152604080832093909416825291909152205490565b34801561094a57600080fd5b506103d1610959366004613485565b6125ab565b34801561096a57600080fd5b506103d16109793660046133e7565b61264a565b34801561098a57600080fd5b506103f96109993660046133ab565b6126fc565b3480156109aa57600080fd5b506103d16109b9366004613312565b612841565b6060600580546109cd90613834565b80601f01602080910402602001604051908101604052809291908181526020018280546109f990613834565b8015610a465780601f10610a1b57610100808354040283529160200191610a46565b820191906000526020600020905b815481529060010190602001808311610a2957829003601f168201915b5050505050905090565b6000610a5d33848461290e565b5060015b92915050565b6001546040516391e1472b60e01b81526001600160a01b03909116906391e1472b90610a9a90339060009060040161350d565b60206040518083038186803b158015610ab257600080fd5b505afa158015610ac6573d6000803e3d6000fd5b505050506040513d601f19601f82011682018060405250810190610aea9190613404565b610b0f5760405162461bcd60e51b8152600401610b069061360c565b60405180910390fd5b60008111610b595760405162461bcd60e51b81526020600482015260176024820152764c6f673a496e737572616e6365506f6f6c3a217a65726f60481b6044820152606401610b06565b610b6681620151806137ce565b600f5550565b6001546040516391e1472b60e01b81526001600160a01b03909116906391e1472b90610b9f90339060009060040161350d565b60206040518083038186803b158015610bb757600080fd5b505afa158015610bcb573d6000803e3d6000fd5b505050506040513d601f19601f82011682018060405250810190610bef9190613404565b610c0b5760405162461bcd60e51b8152600401610b069061360c565b600f54610c1890426136a9565b600855565b6001546040516391e1472b60e01b81526001600160a01b03909116906391e1472b90610c5090339060009060040161350d565b60206040518083038186803b158015610c6857600080fd5b505afa158015610c7c573d6000803e3d6000fd5b505050506040513d601f19601f82011682018060405250810190610ca09190613404565b610cbc5760405162461bcd60e51b8152600401610b069061360c565b60008111610d065760405162461bcd60e51b81526020600482015260176024820152764c6f673a496e737572616e6365506f6f6c3a217a65726f60481b6044820152606401610b06565b610d1381620151806137ce565b600e5550565b6001546001600160a01b031633811480610dad57506040516391e1472b60e01b81526001600160a01b038216906391e1472b90610d5d90339060009060040161350d565b60206040518083038186803b158015610d7557600080fd5b505afa158015610d89573d6000803e3d6000fd5b505050506040513d601f19601f82011682018060405250810190610dad9190613404565b610dc95760405162461bcd60e51b8152600401610b069061360c565b50600180546001600160a01b0319166001600160a01b0392909216919091179055565b600d546001600160a01b03163314610e465760405162461bcd60e51b815260206004820152601f60248201527f4c6f673a496e737572616e6365506f6f6c3a216d6f727467616765506f6f6c006044820152606401610b06565b600b546040516370a0823160e01b81523060048201526001600160a01b039091169060009082906370a082319060240160206040518083038186803b158015610e8e57600080fd5b505afa158015610ea2573d6000803e3d6000fd5b505050506040513d601f19601f82011682018060405250810190610ec6919061349e565b9050828110610f34576040516346f61ed560e11b8152600481018490523060248201526001600160a01b03831690638dec3daa90604401600060405180830381600087803b158015610f1757600080fd5b505af1158015610f2b573d6000803e3d6000fd5b50505050505050565b6040516346f61ed560e11b8152600481018290523060248201526001600160a01b03831690638dec3daa90604401600060405180830381600087803b158015610f7c57600080fd5b505af1158015610f90573d6000803e3d6000fd5b5050505060008184610fa291906137ed565b905080600754610fb291906136a9565b60078190556040805183815260208101929092527f852905f8d78f14c11a72099edd327ae8e53225b522100935a3fd5f9b8d96ce3f910160405180910390a1505b505050565b6000611005848484612a32565b6001600160a01b03841660009081526003602090815260408083203384529091529020548281101561108a5760405162461bcd60e51b815260206004820152602860248201527f45524332303a207472616e7366657220616d6f756e74206578636565647320616044820152676c6c6f77616e636560c01b6064820152608401610b06565b611097853385840361290e565b506001949350505050565b60115460405163d4fac45d60e01b81523060048201526001600160a01b0383811660248301526000926101009004169063d4fac45d9060440160206040518083038186803b1580156110f357600080fd5b505afa158015611107573d6000803e3d6000fd5b505050506040513d601f19601f8201168201806040525081019061112b919061349e565b6001600160a01b038316600090815260026020526040902054610a6191906136a9565b600080600060085490508042111561119c57600f5460009061117083426137ed565b61117a91906136c1565b905080600f5461118a91906137ce565b61119490836136a9565b9350506111ac565b600f546111a990826137ed565b92505b600e546111b990846136a9565b9150509091565b60095460ff166001146111e55760405162461bcd60e51b8152600401610b069061363b565b600054156112055760405162461bcd60e51b8152600401610b069061359e565b6001600055806112275760405162461bcd60e51b8152600401610b0690613672565b60006103e86010548361123a91906137ce565b61124491906136c1565b60115490915060ff16156112a6578134146112a15760405162461bcd60e51b815260206004820152601c60248201527f4c6f673a496e737572616e6365506f6f6c3a216d73672e76616c7565000000006044820152606401610b06565b6112dc565b34156112c45760405162461bcd60e51b8152600401610b06906135d5565b600c546112dc906001600160a01b0316333085612c98565b600c5460009061130a906001600160a01b03166112f984866137ed565b600b546001600160a01b03166126fc565b90506000811161135c5760405162461bcd60e51b815260206004820152601f60248201527f4c6f673a496e737572616e6365506f6f6c3a2170546f6b656e416d6f756e74006044820152606401610b06565b600b546040516370a0823160e01b81523060048201526000916001600160a01b0316906370a082319060240160206040518083038186803b1580156113a057600080fd5b505afa1580156113b4573d6000803e3d6000fd5b505050506040513d601f19601f820116820180604052508101906113d8919061349e565b9050818110156114665760006113ee82846137ed565b600b546040516313b1db0b60e31b8152600481018390523060248201529192506001600160a01b031690639d8ed85890604401600060405180830381600087803b15801561143b57600080fd5b505af115801561144f573d6000803e3d6000fd5b505050508060075461146191906136a9565b600755505b600b5461147d906001600160a01b03163384612dc8565b5050600080555050565b3360008181526003602090815260408083206001600160a01b03871684529091528120549091610a5d9185906114be9086906136a9565b61290e565b60095460ff166001146114e85760405162461bcd60e51b8152600401610b069061363b565b600054156115085760405162461bcd60e51b8152600401610b069061359e565b60016000558061152a5760405162461bcd60e51b8152600401610b0690613672565b60006103e86010548361153d91906137ce565b61154791906136c1565b600b54909150611562906001600160a01b0316333085612c98565b600b54600090611590906001600160a01b031661157f84866137ed565b600c546001600160a01b03166126fc565b9050600081116115e25760405162461bcd60e51b815260206004820152601f60248201527f4c6f673a496e737572616e6365506f6f6c3a2175546f6b656e416d6f756e74006044820152606401610b06565b60115460ff16156115fc576115f73382612ede565b611613565b600c54611613906001600160a01b03163383612dc8565b61161b61210f565b50506000805550565b6001546040516391e1472b60e01b81526001600160a01b03909116906391e1472b9061165790339060009060040161350d565b60206040518083038186803b15801561166f57600080fd5b505afa158015611683573d6000803e3d6000fd5b505050506040513d601f19601f820116820180604052508101906116a79190613404565b6116c35760405162461bcd60e51b8152600401610b069061360c565b600755565b6001546040516391e1472b60e01b81526001600160a01b03909116906391e1472b906116fb90339060009060040161350d565b60206040518083038186803b15801561171357600080fd5b505afa158015611727573d6000803e3d6000fd5b505050506040513d601f19601f8201168201806040525081019061174b9190613404565b6117675760405162461bcd60e51b8152600401610b069061360c565b601055565b60095460ff166001146117915760405162461bcd60e51b8152600401610b069061363b565b600054156117b15760405162461bcd60e51b8152600401610b069061359e565b6001600055806117d35760405162461bcd60e51b8152600401610b0690613672565b6117db612302565b336000908152600a6020526040902060018101544211156117fb57600081555b600b546040516370a0823160e01b81523060048201526000916001600160a01b0316906370a082319060240160206040518083038186803b15801561183f57600080fd5b505afa158015611853573d6000803e3d6000fd5b505050506040513d601f19601f82011682018060405250810190611877919061349e565b60115490915060009060ff16156118e8578334146118d75760405162461bcd60e51b815260206004820152601c60248201527f4c6f673a496e737572616e6365506f6f6c3a216d73672e76616c7565000000006044820152606401610b06565b6118e184476137ed565b9050611989565b34156119065760405162461bcd60e51b8152600401610b06906135d5565b600c546040516370a0823160e01b8152306004820152611986916001600160a01b03169081906370a08231906024015b60206040518083038186803b15801561194e57600080fd5b505afa158015611962573d6000803e3d6000fd5b505050506040513d601f19601f820116820180604052508101906112f9919061349e565b90505b6004546000908161199a85856136a9565b90508115611a145760075481116119c35760405162461bcd60e51b8152600401610b0690613559565b6000600754826119d391906137ed565b600c54600b54919250829185916119f8916001600160a01b03918216918d91166126fc565b611a0291906137ce565b611a0c91906136c1565b935050611a35565b600c54600b54611a32916001600160a01b03908116918a91166126fc565b92505b60115460ff16611a75573415611a5d5760405162461bcd60e51b8152600401610b06906135d5565b600c54611a75906001600160a01b031633308a612c98565b611a7f8333612fa7565b8554611a8c9084906136a9565b8655600f54600854611a9e91906136a9565b60019096019590955550506000805550505050565b6001600160a01b0381166000908152600a602090815260408083208151808301909252805482526001015491810182905290421115611af55750600092915050565b5192915050565b6001546040516391e1472b60e01b81526001600160a01b03909116906391e1472b90611b2f90339060009060040161350d565b60206040518083038186803b158015611b4757600080fd5b505afa158015611b5b573d6000803e3d6000fd5b505050506040513d601f19601f82011682018060405250810190611b7f9190613404565b611b9b5760405162461bcd60e51b8152600401610b069061360c565b6009805460ff191660ff92909216919091179055565b6001546040516391e1472b60e01b81526001600160a01b03909116906391e1472b90611be490339060009060040161350d565b60206040518083038186803b158015611bfc57600080fd5b505afa158015611c10573d6000803e3d6000fd5b505050506040513d601f19601f82011682018060405250810190611c349190613404565b611c505760405162461bcd60e51b8152600401610b069061360c565b600d80546001600160a01b0319166001600160a01b0392909216919091179055565b6060600680546109cd90613834565b3360009081526003602090815260408083206001600160a01b038616845290915281205482811015611d035760405162461bcd60e51b815260206004820152602560248201527f45524332303a2064656372656173656420616c6c6f77616e63652062656c6f77604482015264207a65726f60d81b6064820152608401610b06565b611d10338585840361290e565b5060019392505050565b60095460ff16611d635760405162461bcd60e51b815260206004820152601460248201527304c6f673a496e737572616e6365506f6f6c3a21360641b6044820152606401610b06565b60005415611d835760405162461bcd60e51b8152600401610b069061359e565b600160005580611da55760405162461bcd60e51b8152600401610b0690613672565b611dad612302565b600854600f54611dbd90826137ed565b4210158015611de55750600e54600f54611dd790836137ed565b611de191906136a9565b4211155b611e315760405162461bcd60e51b815260206004820152601760248201527f4c6f673a496e737572616e6365506f6f6c3a2174696d650000000000000000006044820152606401610b06565b336000908152600a602052604090206001810154421115611e5157600081555b600b546040516370a0823160e01b81523060048201526000916001600160a01b0316906370a082319060240160206040518083038186803b158015611e9557600080fd5b505afa158015611ea9573d6000803e3d6000fd5b505050506040513d601f19601f82011682018060405250810190611ecd919061349e565b60115490915060009060ff1615611ee5575047611f1c565b600c546040516370a0823160e01b8152306004820152611f19916001600160a01b03169081906370a0823190602401611936565b90505b6000611f2883836136a9565b90506007548111611f4b5760405162461bcd60e51b8152600401610b0690613559565b600060075482611f5b91906137ed565b600454909150600081611f6e848b6137ce565b611f7891906136c1565b9050611f84893361303b565b8654611f8f336110a2565b1015611fd85760405162461bcd60e51b81526020600482015260186024820152772637b39d24b739bab930b731b2a837b7b61d333937bd32b760411b6044820152606401610b06565b60115460ff161561202357808510611ff957611ff43382612ede565b61208d565b6120033386612ede565b600b54611ff4906001600160a01b03163361201e88856137ed565b612dc8565b80851061204e57600c54600b54611ff4916001600160a01b0390811691339161201e911685846126fc565b600c54600b54612072916001600160a01b0390811691339161201e911689846126fc565b600b5461208d906001600160a01b03163361201e88856137ed565b50506000805550505050505050565b6000610a5d338484612a32565b6120b582333084612c98565b5050565b60008060006008549050804211156120ff57600f546000906120db83426137ed565b6120e591906136c1565b90506120f28160016136a9565b600f5461118a91906137ce565b809250600e546111b990846136a9565b600b546007546040516370a0823160e01b81523060048201526001600160a01b039092169160009083906370a082319060240160206040518083038186803b15801561215a57600080fd5b505afa15801561216e573d6000803e3d6000fd5b505050506040513d601f19601f82011682018060405250810190612192919061349e565b90506000821180156121a45750600081115b15610ff357808210612263576040516346f61ed560e11b8152600481018290523060248201526001600160a01b03841690638dec3daa90604401600060405180830381600087803b1580156121f857600080fd5b505af115801561220c573d6000803e3d6000fd5b505050508060075461221e91906137ed565b60078190556040805183815260208101929092527f852905f8d78f14c11a72099edd327ae8e53225b522100935a3fd5f9b8d96ce3f91015b60405180910390a1505050565b6040516346f61ed560e11b8152600481018390523060248201526001600160a01b03841690638dec3daa90604401600060405180830381600087803b1580156122ab57600080fd5b505af11580156122bf573d6000803e3d6000fd5b5050600060078190556040805186815260208101929092527f852905f8d78f14c11a72099edd327ae8e53225b522100935a3fd5f9b8d96ce3f9350019050612256565b6008544281101561235057600f5460009061231d83426137ed565b61232791906136c1565b90506123348160016136a9565b600f5461234191906137ce565b61234b90836136a9565b600855505b50565b61235c8161312f565b610384600e55610708600f5560026010556011805460ff191690556000600481905560408051602081019182905282905261239a91600591906131ae565b506040805160208101918290526000908190526120b5916006916131ae565b6001600160a01b0381166000818152600a602090815260408083208151808301835281548152600190910154818401908152948452600290925282205492519192909142111561240a579392505050565b815161241690826137ed565b949350505050565b6001546040516391e1472b60e01b81526001600160a01b03909116906391e1472b9061245190339060009060040161350d565b60206040518083038186803b15801561246957600080fd5b505afa15801561247d573d6000803e3d6000fd5b505050506040513d601f19601f820116820180604052508101906124a19190613404565b6124bd5760405162461bcd60e51b8152600401610b069061360c565b601180546001600160a01b0390921661010002610100600160a81b0319909216919091179055565b6001546040516391e1472b60e01b81526001600160a01b03909116906391e1472b9061251890339060009060040161350d565b60206040518083038186803b15801561253057600080fd5b505afa158015612544573d6000803e3d6000fd5b505050506040513d601f19601f820116820180604052508101906125689190613404565b6125845760405162461bcd60e51b8152600401610b069061360c565b81516125979060059060208501906131ae565b508051610ff39060069060208401906131ae565b6001546040516391e1472b60e01b81526001600160a01b03909116906391e1472b906125de90339060009060040161350d565b60206040518083038186803b1580156125f657600080fd5b505afa15801561260a573d6000803e3d6000fd5b505050506040513d601f19601f8201168201806040525081019061262e9190613404565b610c185760405162461bcd60e51b8152600401610b069061360c565b6001546040516391e1472b60e01b81526001600160a01b03909116906391e1472b9061267d90339060009060040161350d565b60206040518083038186803b15801561269557600080fd5b505afa1580156126a9573d6000803e3d6000fd5b505050506040513d601f19601f820116820180604052508101906126cd9190613404565b6126e95760405162461bcd60e51b8152600401610b069061360c565b6011805460ff1916911515919091179055565b60006012806001600160a01b0386161561278757856001600160a01b031663313ce5676040518163ffffffff1660e01b815260040160206040518083038186803b15801561274957600080fd5b505afa15801561275d573d6000803e3d6000fd5b505050506040513d601f19601f8201168201806040525081019061278191906134d4565b60ff1691505b6001600160a01b0384161561280d57836001600160a01b031663313ce5676040518163ffffffff1660e01b815260040160206040518083038186803b1580156127cf57600080fd5b505afa1580156127e3573d6000803e3d6000fd5b505050506040513d601f19601f8201168201806040525081019061280791906134d4565b60ff1690505b61281882600a613726565b61282382600a613726565b61282d90876137ce565b61283791906136c1565b9695505050505050565b6001546040516391e1472b60e01b81526001600160a01b03909116906391e1472b9061287490339060009060040161350d565b60206040518083038186803b15801561288c57600080fd5b505afa1580156128a0573d6000803e3d6000fd5b505050506040513d601f19601f820116820180604052508101906128c49190613404565b6128e05760405162461bcd60e51b8152600401610b069061360c565b600c80546001600160a01b039384166001600160a01b031991821617909155600b8054929093169116179055565b6001600160a01b0383166129705760405162461bcd60e51b8152602060048201526024808201527f45524332303a20617070726f76652066726f6d20746865207a65726f206164646044820152637265737360e01b6064820152608401610b06565b6001600160a01b0382166129d15760405162461bcd60e51b815260206004820152602260248201527f45524332303a20617070726f766520746f20746865207a65726f206164647265604482015261737360f01b6064820152608401610b06565b6001600160a01b0383811660008181526003602090815260408083209487168084529482529182902085905590518481527f8c5be1e5ebec7d5bd14f71427d1e84f3dd0314c0f7b2291e5b200ac8c7c3b925910160405180910390a3505050565b612a3a612302565b336000908152600a602052604090206001810154421115612a5a57600081555b6001600160a01b038416612abe5760405162461bcd60e51b815260206004820152602560248201527f45524332303a207472616e736665722066726f6d20746865207a65726f206164604482015264647265737360d81b6064820152608401610b06565b6001600160a01b038316612b205760405162461bcd60e51b815260206004820152602360248201527f45524332303a207472616e7366657220746f20746865207a65726f206164647260448201526265737360e81b6064820152608401610b06565b6001600160a01b03841660009081526002602052604090205482811015612b985760405162461bcd60e51b815260206004820152602660248201527f45524332303a207472616e7366657220616d6f756e7420657863656564732062604482015265616c616e636560d01b6064820152608401610b06565b6001600160a01b03808616600090815260026020526040808220868503905591861681529081208054859290612bcf9084906136a9565b92505081905550836001600160a01b0316856001600160a01b03167fddf252ad1be2c89b69c2b068fc378daa952ba7f163c4a11628f55a4df523b3ef85604051612c1b91815260200190565b60405180910390a36011546001600160a01b038581166101009092041614612c91578154612c48336110a2565b1015612c915760405162461bcd60e51b81526020600482015260186024820152772637b39d24b739bab930b731b2a837b7b61d333937bd32b760411b6044820152606401610b06565b5050505050565b604080516001600160a01b0385811660248301528481166044830152606480830185905283518084039091018152608490920183526020820180516001600160e01b03166323b872dd60e01b1790529151600092839290881691612cfc91906134f1565b6000604051808303816000865af19150503d8060008114612d39576040519150601f19603f3d011682016040523d82523d6000602084013e612d3e565b606091505b5091509150818015612d68575080511580612d68575080806020019051810190612d689190613404565b612dc05760405162461bcd60e51b8152602060048201526024808201527f5472616e7366657248656c7065723a205452414e534645525f46524f4d5f46416044820152631253115160e21b6064820152608401610b06565b505050505050565b600080846001600160a01b031663a9059cbb8585604051602401612ded92919061350d565b6040516020818303038152906040529060e01b6020820180516001600160e01b038381831617835250505050604051612e2691906134f1565b6000604051808303816000865af19150503d8060008114612e63576040519150601f19603f3d011682016040523d82523d6000602084013e612e68565b606091505b5091509150818015612e92575080511580612e92575080806020019051810190612e929190613404565b612c915760405162461bcd60e51b815260206004820152601f60248201527f5472616e7366657248656c7065723a205452414e534645525f4641494c4544006044820152606401610b06565b604080516000808252602082019092526001600160a01b038416908390604051612f0891906134f1565b60006040518083038185875af1925050503d8060008114612f45576040519150601f19603f3d011682016040523d82523d6000602084013e612f4a565b606091505b5050905080610ff35760405162461bcd60e51b815260206004820152602360248201527f5472616e7366657248656c7065723a204554485f5452414e534645525f46414960448201526213115160ea1b6064820152608401610b06565b6001600160a01b038116600090815260026020526040902054612fcb9083906136a9565b6001600160a01b038216600090815260026020526040902055600454612ff29083906136a9565b6004556040518281526001600160a01b038216906000907fddf252ad1be2c89b69c2b068fc378daa952ba7f163c4a11628f55a4df523b3ef906020015b60405180910390a35050565b6001600160a01b0381166000908152600260205260409020548211156130a35760405162461bcd60e51b815260206004820152601a60248201527f4c6f673a496e737572616e6365506f6f6c3a2164657374726f790000000000006044820152606401610b06565b6001600160a01b0381166000908152600260205260409020546130c79083906137ed565b6001600160a01b0382166000908152600260205260409020556004546130ee9083906137ed565b6004556040518281526000906001600160a01b038316907fddf252ad1be2c89b69c2b068fc378daa952ba7f163c4a11628f55a4df523b3ef9060200161302f565b6001546001600160a01b0316156131885760405162461bcd60e51b815260206004820152601b60248201527f4c6f673a50617261737365744261736521696e697469616c697a6500000000006044820152606401610b06565b600180546001600160a01b0319166001600160a01b039290921691909117905560008055565b8280546131ba90613834565b90600052602060002090601f0160209004810192826131dc5760008555613222565b82601f106131f557805160ff1916838001178555613222565b82800160010185558215613222579182015b82811115613222578251825591602001919060010190613207565b5061322e929150613232565b5090565b5b8082111561322e5760008155600101613233565b80356001600160a01b038116811461325e57600080fd5b919050565b600082601f83011261327457600080fd5b813567ffffffffffffffff8082111561328f5761328f613885565b604051601f8301601f19908116603f011681019082821181831017156132b7576132b7613885565b816040528381528660208588010111156132d057600080fd5b836020870160208301376000602085830101528094505050505092915050565b60006020828403121561330257600080fd5b61330b82613247565b9392505050565b6000806040838503121561332557600080fd5b61332e83613247565b915061333c60208401613247565b90509250929050565b60008060006060848603121561335a57600080fd5b61336384613247565b925061337160208501613247565b9150604084013590509250925092565b6000806040838503121561339457600080fd5b61339d83613247565b946020939093013593505050565b6000806000606084860312156133c057600080fd5b6133c984613247565b9250602084013591506133de60408501613247565b90509250925092565b6000602082840312156133f957600080fd5b813561330b8161389b565b60006020828403121561341657600080fd5b815161330b8161389b565b6000806040838503121561343457600080fd5b823567ffffffffffffffff8082111561344c57600080fd5b61345886838701613263565b9350602085013591508082111561346e57600080fd5b5061347b85828601613263565b9150509250929050565b60006020828403121561349757600080fd5b5035919050565b6000602082840312156134b057600080fd5b5051919050565b6000602082840312156134c957600080fd5b813561330b816138a9565b6000602082840312156134e657600080fd5b815161330b816138a9565b60008251613503818460208701613804565b9190910192915050565b6001600160a01b03929092168252602082015260400190565b6020815260008251806020840152613545816040850160208701613804565b601f01601f19169190910160400192915050565b60208082526025908201527f4c6f673a496e737572616e6365506f6f6c3a616c6c42616c616e63654e6f74456040820152640dcdeeaced60db1b606082015260800190565b60208082526019908201527f4c6f673a5061726173736574426173653a215f6c6f636b656400000000000000604082015260600190565b6020808252601e908201527f4c6f673a496e737572616e6365506f6f6c3a6d73672e76616c7565213d300000604082015260600190565b6020808252601590820152742637b39d2830b930b9b9b2ba2130b9b29d10b3b7bb60591b604082015260600190565b60208082526019908201527f4c6f673a496e737572616e6365506f6f6c3a2161637469766500000000000000604082015260600190565b60208082526019908201527f4c6f673a496e737572616e6365506f6f6c3a21616d6f756e7400000000000000604082015260600190565b600082198211156136bc576136bc61386f565b500190565b6000826136de57634e487b7160e01b600052601260045260246000fd5b500490565b600181815b8085111561371e5781600019048211156137045761370461386f565b8085161561371157918102915b93841c93908002906136e8565b509250929050565b600061330b838360008261373c57506001610a61565b8161374957506000610a61565b816001811461375f576002811461376957613785565b6001915050610a61565b60ff84111561377a5761377a61386f565b50506001821b610a61565b5060208310610133831016604e8410600b84101617156137a8575081810a610a61565b6137b283836136e3565b80600019048211156137c6576137c661386f565b029392505050565b60008160001904831182151516156137e8576137e861386f565b500290565b6000828210156137ff576137ff61386f565b500390565b60005b8381101561381f578181015183820152602001613807565b8381111561382e576000848401525b50505050565b600181811c9082168061384857607f821691505b6020821081141561386957634e487b7160e01b600052602260045260246000fd5b50919050565b634e487b7160e01b600052601160045260246000fd5b634e487b7160e01b600052604160045260246000fd5b801515811461235057600080fd5b60ff8116811461235057600080fdfea2646970667358221220d5264e8584ee3770a8de8d09fb5f870254ac200b864ceb6c1e5951a3993c668f64736f6c63430008060033",
			"opcodes": "PUSH1 0x80 PUSH1 0x40 MSTORE CALLVALUE DUP1 ISZERO PUSH2 0x10 JUMPI PUSH1 0x0 DUP1 REVERT JUMPDEST POP PUSH2 0x38EE DUP1 PUSH2 0x20 PUSH1 0x0 CODECOPY PUSH1 0x0 RETURN INVALID PUSH1 0x80 PUSH1 0x40 MSTORE PUSH1 0x4 CALLDATASIZE LT PUSH2 0x31A JUMPI PUSH1 0x0 CALLDATALOAD PUSH1 0xE0 SHR DUP1 PUSH4 0x7120A88B GT PUSH2 0x1AB JUMPI DUP1 PUSH4 0xB7694A93 GT PUSH2 0xF7 JUMPI DUP1 PUSH4 0xDA262F58 GT PUSH2 0x95 JUMPI DUP1 PUSH4 0xDE67AE41 GT PUSH2 0x6F JUMPI DUP1 PUSH4 0xDE67AE41 EQ PUSH2 0x93E JUMPI DUP1 PUSH4 0xF544D25B EQ PUSH2 0x95E JUMPI DUP1 PUSH4 0xF9081591 EQ PUSH2 0x97E JUMPI DUP1 PUSH4 0xFB606F92 EQ PUSH2 0x99E JUMPI PUSH1 0x0 DUP1 REVERT JUMPDEST DUP1 PUSH4 0xDA262F58 EQ PUSH2 0x8D8 JUMPI DUP1 PUSH4 0xDAD6DAB3 EQ PUSH2 0x3D1 JUMPI DUP1 PUSH4 0xDD62ED3E EQ PUSH2 0x8F8 JUMPI PUSH1 0x0 DUP1 REVERT JUMPDEST DUP1 PUSH4 0xC87814A6 GT PUSH2 0xD1 JUMPI DUP1 PUSH4 0xC87814A6 EQ PUSH2 0x868 JUMPI DUP1 PUSH4 0xCD32045E EQ PUSH2 0x888 JUMPI DUP1 PUSH4 0xCF9A197D EQ PUSH2 0x8A8 JUMPI DUP1 PUSH4 0xD8FA1034 EQ PUSH2 0x8C2 JUMPI PUSH1 0x0 DUP1 REVERT JUMPDEST DUP1 PUSH4 0xB7694A93 EQ PUSH2 0x81E JUMPI DUP1 PUSH4 0xBBACF92B EQ PUSH2 0x833 JUMPI DUP1 PUSH4 0xC4D66DE8 EQ PUSH2 0x848 JUMPI PUSH1 0x0 DUP1 REVERT JUMPDEST DUP1 PUSH4 0xA457C2D7 GT PUSH2 0x164 JUMPI DUP1 PUSH4 0xA9059CBB GT PUSH2 0x13E JUMPI DUP1 PUSH4 0xA9059CBB EQ PUSH2 0x7B3 JUMPI DUP1 PUSH4 0xAF81C5B9 EQ PUSH2 0x7D3 JUMPI DUP1 PUSH4 0xB1BB11D7 EQ PUSH2 0x7F3 JUMPI DUP1 PUSH4 0xB2131F7D EQ PUSH2 0x808 JUMPI PUSH1 0x0 DUP1 REVERT JUMPDEST DUP1 PUSH4 0xA457C2D7 EQ PUSH2 0x75D JUMPI DUP1 PUSH4 0xA5831A62 EQ PUSH2 0x77D JUMPI DUP1 PUSH4 0xA65E08FF EQ PUSH2 0x79D JUMPI PUSH1 0x0 DUP1 REVERT JUMPDEST DUP1 PUSH4 0x7120A88B EQ PUSH2 0x6B8 JUMPI DUP1 PUSH4 0x7E4D4734 EQ PUSH2 0x6D8 JUMPI DUP1 PUSH4 0x7EA69A84 EQ PUSH2 0x6F2 JUMPI DUP1 PUSH4 0x8A13C54C EQ PUSH2 0x712 JUMPI DUP1 PUSH4 0x95D89B41 EQ PUSH2 0x732 JUMPI DUP1 PUSH4 0x9972585C EQ PUSH2 0x747 JUMPI PUSH1 0x0 DUP1 REVERT JUMPDEST DUP1 PUSH4 0x34E23AD7 GT PUSH2 0x26A JUMPI DUP1 PUSH4 0x45596E2E GT PUSH2 0x223 JUMPI DUP1 PUSH4 0x646475EF GT PUSH2 0x1FD JUMPI DUP1 PUSH4 0x646475EF EQ PUSH2 0x5FC JUMPI DUP1 PUSH4 0x64AF8792 EQ PUSH2 0x60F JUMPI DUP1 PUSH4 0x64FB4FC7 EQ PUSH2 0x62F JUMPI DUP1 PUSH4 0x70A08231 EQ PUSH2 0x682 JUMPI PUSH1 0x0 DUP1 REVERT JUMPDEST DUP1 PUSH4 0x45596E2E EQ PUSH2 0x5A6 JUMPI DUP1 PUSH4 0x47F6670F EQ PUSH2 0x5C6 JUMPI DUP1 PUSH4 0x51804A6E EQ PUSH2 0x5DC JUMPI PUSH1 0x0 DUP1 REVERT JUMPDEST DUP1 PUSH4 0x34E23AD7 EQ PUSH2 0x4E9 JUMPI DUP1 PUSH4 0x35DBFDE2 EQ PUSH2 0x513 JUMPI DUP1 PUSH4 0x39509351 EQ PUSH2 0x526 JUMPI DUP1 PUSH4 0x3D5E3F50 EQ PUSH2 0x546 JUMPI DUP1 PUSH4 0x41AD9882 EQ PUSH2 0x566 JUMPI DUP1 PUSH4 0x42DF063C EQ PUSH2 0x586 JUMPI PUSH1 0x0 DUP1 REVERT JUMPDEST DUP1 PUSH4 0x1A8D3F8B GT PUSH2 0x2D7 JUMPI DUP1 PUSH4 0x22D8A580 GT PUSH2 0x2B1 JUMPI DUP1 PUSH4 0x22D8A580 EQ PUSH2 0x467 JUMPI DUP1 PUSH4 0x23B872DD EQ PUSH2 0x487 JUMPI DUP1 PUSH4 0x2503F73F EQ PUSH2 0x4A7 JUMPI DUP1 PUSH4 0x313CE567 EQ PUSH2 0x4C7 JUMPI PUSH1 0x0 DUP1 REVERT JUMPDEST DUP1 PUSH4 0x1A8D3F8B EQ PUSH2 0x407 JUMPI DUP1 PUSH4 0x1C1B8772 EQ PUSH2 0x427 JUMPI DUP1 PUSH4 0x1C2F3E3D EQ PUSH2 0x447 JUMPI PUSH1 0x0 DUP1 REVERT JUMPDEST DUP1 PUSH4 0x6FDDE03 EQ PUSH2 0x31F JUMPI DUP1 PUSH4 0x95EA7B3 EQ PUSH2 0x34A JUMPI DUP1 PUSH4 0xB0289F6 EQ PUSH2 0x37A JUMPI DUP1 PUSH4 0x10525923 EQ PUSH2 0x3B1 JUMPI DUP1 PUSH4 0x14EC1C6B EQ PUSH2 0x3D3 JUMPI DUP1 PUSH4 0x18160DDD EQ PUSH2 0x3E8 JUMPI JUMPDEST PUSH1 0x0 DUP1 REVERT JUMPDEST CALLVALUE DUP1 ISZERO PUSH2 0x32B JUMPI PUSH1 0x0 DUP1 REVERT JUMPDEST POP PUSH2 0x334 PUSH2 0x9BE JUMP JUMPDEST PUSH1 0x40 MLOAD PUSH2 0x341 SWAP2 SWAP1 PUSH2 0x3526 JUMP JUMPDEST PUSH1 0x40 MLOAD DUP1 SWAP2 SUB SWAP1 RETURN JUMPDEST CALLVALUE DUP1 ISZERO PUSH2 0x356 JUMPI PUSH1 0x0 DUP1 REVERT JUMPDEST POP PUSH2 0x36A PUSH2 0x365 CALLDATASIZE PUSH1 0x4 PUSH2 0x3381 JUMP JUMPDEST PUSH2 0xA50 JUMP JUMPDEST PUSH1 0x40 MLOAD SWAP1 ISZERO ISZERO DUP2 MSTORE PUSH1 0x20 ADD PUSH2 0x341 JUMP JUMPDEST CALLVALUE DUP1 ISZERO PUSH2 0x386 JUMPI PUSH1 0x0 DUP1 REVERT JUMPDEST POP PUSH1 0x11 SLOAD PUSH2 0x100 SWAP1 DIV PUSH1 0x1 PUSH1 0x1 PUSH1 0xA0 SHL SUB AND JUMPDEST PUSH1 0x40 MLOAD PUSH1 0x1 PUSH1 0x1 PUSH1 0xA0 SHL SUB SWAP1 SWAP2 AND DUP2 MSTORE PUSH1 0x20 ADD PUSH2 0x341 JUMP JUMPDEST CALLVALUE DUP1 ISZERO PUSH2 0x3BD JUMPI PUSH1 0x0 DUP1 REVERT JUMPDEST POP PUSH2 0x3D1 PUSH2 0x3CC CALLDATASIZE PUSH1 0x4 PUSH2 0x3485 JUMP JUMPDEST PUSH2 0xA67 JUMP JUMPDEST STOP JUMPDEST CALLVALUE DUP1 ISZERO PUSH2 0x3DF JUMPI PUSH1 0x0 DUP1 REVERT JUMPDEST POP PUSH2 0x3D1 PUSH2 0xB6C JUMP JUMPDEST CALLVALUE DUP1 ISZERO PUSH2 0x3F4 JUMPI PUSH1 0x0 DUP1 REVERT JUMPDEST POP PUSH1 0x4 SLOAD JUMPDEST PUSH1 0x40 MLOAD SWAP1 DUP2 MSTORE PUSH1 0x20 ADD PUSH2 0x341 JUMP JUMPDEST CALLVALUE DUP1 ISZERO PUSH2 0x413 JUMPI PUSH1 0x0 DUP1 REVERT JUMPDEST POP PUSH2 0x3D1 PUSH2 0x422 CALLDATASIZE PUSH1 0x4 PUSH2 0x3485 JUMP JUMPDEST PUSH2 0xC1D JUMP JUMPDEST CALLVALUE DUP1 ISZERO PUSH2 0x433 JUMPI PUSH1 0x0 DUP1 REVERT JUMPDEST POP PUSH2 0x3D1 PUSH2 0x442 CALLDATASIZE PUSH1 0x4 PUSH2 0x32F0 JUMP JUMPDEST PUSH2 0xD19 JUMP JUMPDEST CALLVALUE DUP1 ISZERO PUSH2 0x453 JUMPI PUSH1 0x0 DUP1 REVERT JUMPDEST POP PUSH1 0x1 SLOAD PUSH2 0x399 SWAP1 PUSH1 0x1 PUSH1 0x1 PUSH1 0xA0 SHL SUB AND DUP2 JUMP JUMPDEST CALLVALUE DUP1 ISZERO PUSH2 0x473 JUMPI PUSH1 0x0 DUP1 REVERT JUMPDEST POP PUSH2 0x3D1 PUSH2 0x482 CALLDATASIZE PUSH1 0x4 PUSH2 0x3485 JUMP JUMPDEST PUSH2 0xDEC JUMP JUMPDEST CALLVALUE DUP1 ISZERO PUSH2 0x493 JUMPI PUSH1 0x0 DUP1 REVERT JUMPDEST POP PUSH2 0x36A PUSH2 0x4A2 CALLDATASIZE PUSH1 0x4 PUSH2 0x3345 JUMP JUMPDEST PUSH2 0xFF8 JUMP JUMPDEST CALLVALUE DUP1 ISZERO PUSH2 0x4B3 JUMPI PUSH1 0x0 DUP1 REVERT JUMPDEST POP PUSH2 0x3F9 PUSH2 0x4C2 CALLDATASIZE PUSH1 0x4 PUSH2 0x32F0 JUMP JUMPDEST PUSH2 0x10A2 JUMP JUMPDEST CALLVALUE DUP1 ISZERO PUSH2 0x4D3 JUMPI PUSH1 0x0 DUP1 REVERT JUMPDEST POP PUSH1 0x12 JUMPDEST PUSH1 0x40 MLOAD PUSH1 0xFF SWAP1 SWAP2 AND DUP2 MSTORE PUSH1 0x20 ADD PUSH2 0x341 JUMP JUMPDEST CALLVALUE DUP1 ISZERO PUSH2 0x4F5 JUMPI PUSH1 0x0 DUP1 REVERT JUMPDEST POP PUSH2 0x4FE PUSH2 0x114E JUMP JUMPDEST PUSH1 0x40 DUP1 MLOAD SWAP3 DUP4 MSTORE PUSH1 0x20 DUP4 ADD SWAP2 SWAP1 SWAP2 MSTORE ADD PUSH2 0x341 JUMP JUMPDEST PUSH2 0x3D1 PUSH2 0x521 CALLDATASIZE PUSH1 0x4 PUSH2 0x3485 JUMP JUMPDEST PUSH2 0x11C0 JUMP JUMPDEST CALLVALUE DUP1 ISZERO PUSH2 0x532 JUMPI PUSH1 0x0 DUP1 REVERT JUMPDEST POP PUSH2 0x36A PUSH2 0x541 CALLDATASIZE PUSH1 0x4 PUSH2 0x3381 JUMP JUMPDEST PUSH2 0x1487 JUMP JUMPDEST CALLVALUE DUP1 ISZERO PUSH2 0x552 JUMPI PUSH1 0x0 DUP1 REVERT JUMPDEST POP PUSH2 0x3D1 PUSH2 0x561 CALLDATASIZE PUSH1 0x4 PUSH2 0x3485 JUMP JUMPDEST PUSH2 0x14C3 JUMP JUMPDEST CALLVALUE DUP1 ISZERO PUSH2 0x572 JUMPI PUSH1 0x0 DUP1 REVERT JUMPDEST POP PUSH1 0xD SLOAD PUSH2 0x399 SWAP1 PUSH1 0x1 PUSH1 0x1 PUSH1 0xA0 SHL SUB AND DUP2 JUMP JUMPDEST CALLVALUE DUP1 ISZERO PUSH2 0x592 JUMPI PUSH1 0x0 DUP1 REVERT JUMPDEST POP PUSH2 0x3D1 PUSH2 0x5A1 CALLDATASIZE PUSH1 0x4 PUSH2 0x3485 JUMP JUMPDEST PUSH2 0x1624 JUMP JUMPDEST CALLVALUE DUP1 ISZERO PUSH2 0x5B2 JUMPI PUSH1 0x0 DUP1 REVERT JUMPDEST POP PUSH2 0x3D1 PUSH2 0x5C1 CALLDATASIZE PUSH1 0x4 PUSH2 0x3485 JUMP JUMPDEST PUSH2 0x16C8 JUMP JUMPDEST CALLVALUE DUP1 ISZERO PUSH2 0x5D2 JUMPI PUSH1 0x0 DUP1 REVERT JUMPDEST POP PUSH2 0x3F9 PUSH1 0xF SLOAD DUP2 JUMP JUMPDEST CALLVALUE DUP1 ISZERO PUSH2 0x5E8 JUMPI PUSH1 0x0 DUP1 REVERT JUMPDEST POP PUSH1 0xB SLOAD PUSH2 0x399 SWAP1 PUSH1 0x1 PUSH1 0x1 PUSH1 0xA0 SHL SUB AND DUP2 JUMP JUMPDEST PUSH2 0x3D1 PUSH2 0x60A CALLDATASIZE PUSH1 0x4 PUSH2 0x3485 JUMP JUMPDEST PUSH2 0x176C JUMP JUMPDEST CALLVALUE DUP1 ISZERO PUSH2 0x61B JUMPI PUSH1 0x0 DUP1 REVERT JUMPDEST POP PUSH2 0x3F9 PUSH2 0x62A CALLDATASIZE PUSH1 0x4 PUSH2 0x32F0 JUMP JUMPDEST PUSH2 0x1AB3 JUMP JUMPDEST CALLVALUE DUP1 ISZERO PUSH2 0x63B JUMPI PUSH1 0x0 DUP1 REVERT JUMPDEST POP PUSH2 0x4FE PUSH2 0x64A CALLDATASIZE PUSH1 0x4 PUSH2 0x32F0 JUMP JUMPDEST PUSH1 0x1 PUSH1 0x1 PUSH1 0xA0 SHL SUB AND PUSH1 0x0 SWAP1 DUP2 MSTORE PUSH1 0xA PUSH1 0x20 SWAP1 DUP2 MSTORE PUSH1 0x40 SWAP2 DUP3 SWAP1 KECCAK256 DUP3 MLOAD DUP1 DUP5 ADD SWAP1 SWAP4 MSTORE DUP1 SLOAD DUP1 DUP5 MSTORE PUSH1 0x1 SWAP1 SWAP2 ADD SLOAD SWAP3 SWAP1 SWAP2 ADD DUP3 SWAP1 MSTORE SWAP2 JUMP JUMPDEST CALLVALUE DUP1 ISZERO PUSH2 0x68E JUMPI PUSH1 0x0 DUP1 REVERT JUMPDEST POP PUSH2 0x3F9 PUSH2 0x69D CALLDATASIZE PUSH1 0x4 PUSH2 0x32F0 JUMP JUMPDEST PUSH1 0x1 PUSH1 0x1 PUSH1 0xA0 SHL SUB AND PUSH1 0x0 SWAP1 DUP2 MSTORE PUSH1 0x2 PUSH1 0x20 MSTORE PUSH1 0x40 SWAP1 KECCAK256 SLOAD SWAP1 JUMP JUMPDEST CALLVALUE DUP1 ISZERO PUSH2 0x6C4 JUMPI PUSH1 0x0 DUP1 REVERT JUMPDEST POP PUSH2 0x3D1 PUSH2 0x6D3 CALLDATASIZE PUSH1 0x4 PUSH2 0x34B7 JUMP JUMPDEST PUSH2 0x1AFC JUMP JUMPDEST CALLVALUE DUP1 ISZERO PUSH2 0x6E4 JUMPI PUSH1 0x0 DUP1 REVERT JUMPDEST POP PUSH1 0x11 SLOAD PUSH2 0x36A SWAP1 PUSH1 0xFF AND DUP2 JUMP JUMPDEST CALLVALUE DUP1 ISZERO PUSH2 0x6FE JUMPI PUSH1 0x0 DUP1 REVERT JUMPDEST POP PUSH2 0x3D1 PUSH2 0x70D CALLDATASIZE PUSH1 0x4 PUSH2 0x32F0 JUMP JUMPDEST PUSH2 0x1BB1 JUMP JUMPDEST CALLVALUE DUP1 ISZERO PUSH2 0x71E JUMPI PUSH1 0x0 DUP1 REVERT JUMPDEST POP PUSH1 0xC SLOAD PUSH2 0x399 SWAP1 PUSH1 0x1 PUSH1 0x1 PUSH1 0xA0 SHL SUB AND DUP2 JUMP JUMPDEST CALLVALUE DUP1 ISZERO PUSH2 0x73E JUMPI PUSH1 0x0 DUP1 REVERT JUMPDEST POP PUSH2 0x334 PUSH2 0x1C72 JUMP JUMPDEST CALLVALUE DUP1 ISZERO PUSH2 0x753 JUMPI PUSH1 0x0 DUP1 REVERT JUMPDEST POP PUSH2 0x3F9 PUSH1 0x8 SLOAD DUP2 JUMP JUMPDEST CALLVALUE DUP1 ISZERO PUSH2 0x769 JUMPI PUSH1 0x0 DUP1 REVERT JUMPDEST POP PUSH2 0x36A PUSH2 0x778 CALLDATASIZE PUSH1 0x4 PUSH2 0x3381 JUMP JUMPDEST PUSH2 0x1C81 JUMP JUMPDEST CALLVALUE DUP1 ISZERO PUSH2 0x789 JUMPI PUSH1 0x0 DUP1 REVERT JUMPDEST POP PUSH2 0x3D1 PUSH2 0x798 CALLDATASIZE PUSH1 0x4 PUSH2 0x3485 JUMP JUMPDEST PUSH2 0x1D1A JUMP JUMPDEST CALLVALUE DUP1 ISZERO PUSH2 0x7A9 JUMPI PUSH1 0x0 DUP1 REVERT JUMPDEST POP PUSH2 0x3F9 PUSH1 0x7 SLOAD DUP2 JUMP JUMPDEST CALLVALUE DUP1 ISZERO PUSH2 0x7BF JUMPI PUSH1 0x0 DUP1 REVERT JUMPDEST POP PUSH2 0x36A PUSH2 0x7CE CALLDATASIZE PUSH1 0x4 PUSH2 0x3381 JUMP JUMPDEST PUSH2 0x209C JUMP JUMPDEST CALLVALUE DUP1 ISZERO PUSH2 0x7DF JUMPI PUSH1 0x0 DUP1 REVERT JUMPDEST POP PUSH2 0x3D1 PUSH2 0x7EE CALLDATASIZE PUSH1 0x4 PUSH2 0x3381 JUMP JUMPDEST PUSH2 0x20A9 JUMP JUMPDEST CALLVALUE DUP1 ISZERO PUSH2 0x7FF JUMPI PUSH1 0x0 DUP1 REVERT JUMPDEST POP PUSH2 0x4FE PUSH2 0x20B9 JUMP JUMPDEST CALLVALUE DUP1 ISZERO PUSH2 0x814 JUMPI PUSH1 0x0 DUP1 REVERT JUMPDEST POP PUSH2 0x3F9 PUSH1 0x10 SLOAD DUP2 JUMP JUMPDEST CALLVALUE DUP1 ISZERO PUSH2 0x82A JUMPI PUSH1 0x0 DUP1 REVERT JUMPDEST POP PUSH2 0x3D1 PUSH2 0x210F JUMP JUMPDEST CALLVALUE DUP1 ISZERO PUSH2 0x83F JUMPI PUSH1 0x0 DUP1 REVERT JUMPDEST POP PUSH2 0x3D1 PUSH2 0x2302 JUMP JUMPDEST CALLVALUE DUP1 ISZERO PUSH2 0x854 JUMPI PUSH1 0x0 DUP1 REVERT JUMPDEST POP PUSH2 0x3D1 PUSH2 0x863 CALLDATASIZE PUSH1 0x4 PUSH2 0x32F0 JUMP JUMPDEST PUSH2 0x2353 JUMP JUMPDEST CALLVALUE DUP1 ISZERO PUSH2 0x874 JUMPI PUSH1 0x0 DUP1 REVERT JUMPDEST POP PUSH2 0x3F9 PUSH2 0x883 CALLDATASIZE PUSH1 0x4 PUSH2 0x32F0 JUMP JUMPDEST PUSH2 0x23B9 JUMP JUMPDEST CALLVALUE DUP1 ISZERO PUSH2 0x894 JUMPI PUSH1 0x0 DUP1 REVERT JUMPDEST POP PUSH2 0x3D1 PUSH2 0x8A3 CALLDATASIZE PUSH1 0x4 PUSH2 0x32F0 JUMP JUMPDEST PUSH2 0x241E JUMP JUMPDEST CALLVALUE DUP1 ISZERO PUSH2 0x8B4 JUMPI PUSH1 0x0 DUP1 REVERT JUMPDEST POP PUSH1 0x9 SLOAD PUSH2 0x4D7 SWAP1 PUSH1 0xFF AND DUP2 JUMP JUMPDEST CALLVALUE DUP1 ISZERO PUSH2 0x8CE JUMPI PUSH1 0x0 DUP1 REVERT JUMPDEST POP PUSH2 0x3F9 PUSH1 0xE SLOAD DUP2 JUMP JUMPDEST CALLVALUE DUP1 ISZERO PUSH2 0x8E4 JUMPI PUSH1 0x0 DUP1 REVERT JUMPDEST POP PUSH2 0x3D1 PUSH2 0x8F3 CALLDATASIZE PUSH1 0x4 PUSH2 0x3421 JUMP JUMPDEST PUSH2 0x24E5 JUMP JUMPDEST CALLVALUE DUP1 ISZERO PUSH2 0x904 JUMPI PUSH1 0x0 DUP1 REVERT JUMPDEST POP PUSH2 0x3F9 PUSH2 0x913 CALLDATASIZE PUSH1 0x4 PUSH2 0x3312 JUMP JUMPDEST PUSH1 0x1 PUSH1 0x1 PUSH1 0xA0 SHL SUB SWAP2 DUP3 AND PUSH1 0x0 SWAP1 DUP2 MSTORE PUSH1 0x3 PUSH1 0x20 SWAP1 DUP2 MSTORE PUSH1 0x40 DUP1 DUP4 KECCAK256 SWAP4 SWAP1 SWAP5 AND DUP3 MSTORE SWAP2 SWAP1 SWAP2 MSTORE KECCAK256 SLOAD SWAP1 JUMP JUMPDEST CALLVALUE DUP1 ISZERO PUSH2 0x94A JUMPI PUSH1 0x0 DUP1 REVERT JUMPDEST POP PUSH2 0x3D1 PUSH2 0x959 CALLDATASIZE PUSH1 0x4 PUSH2 0x3485 JUMP JUMPDEST PUSH2 0x25AB JUMP JUMPDEST CALLVALUE DUP1 ISZERO PUSH2 0x96A JUMPI PUSH1 0x0 DUP1 REVERT JUMPDEST POP PUSH2 0x3D1 PUSH2 0x979 CALLDATASIZE PUSH1 0x4 PUSH2 0x33E7 JUMP JUMPDEST PUSH2 0x264A JUMP JUMPDEST CALLVALUE DUP1 ISZERO PUSH2 0x98A JUMPI PUSH1 0x0 DUP1 REVERT JUMPDEST POP PUSH2 0x3F9 PUSH2 0x999 CALLDATASIZE PUSH1 0x4 PUSH2 0x33AB JUMP JUMPDEST PUSH2 0x26FC JUMP JUMPDEST CALLVALUE DUP1 ISZERO PUSH2 0x9AA JUMPI PUSH1 0x0 DUP1 REVERT JUMPDEST POP PUSH2 0x3D1 PUSH2 0x9B9 CALLDATASIZE PUSH1 0x4 PUSH2 0x3312 JUMP JUMPDEST PUSH2 0x2841 JUMP JUMPDEST PUSH1 0x60 PUSH1 0x5 DUP1 SLOAD PUSH2 0x9CD SWAP1 PUSH2 0x3834 JUMP JUMPDEST DUP1 PUSH1 0x1F ADD PUSH1 0x20 DUP1 SWAP2 DIV MUL PUSH1 0x20 ADD PUSH1 0x40 MLOAD SWAP1 DUP2 ADD PUSH1 0x40 MSTORE DUP1 SWAP3 SWAP2 SWAP1 DUP2 DUP2 MSTORE PUSH1 0x20 ADD DUP3 DUP1 SLOAD PUSH2 0x9F9 SWAP1 PUSH2 0x3834 JUMP JUMPDEST DUP1 ISZERO PUSH2 0xA46 JUMPI DUP1 PUSH1 0x1F LT PUSH2 0xA1B JUMPI PUSH2 0x100 DUP1 DUP4 SLOAD DIV MUL DUP4 MSTORE SWAP2 PUSH1 0x20 ADD SWAP2 PUSH2 0xA46 JUMP JUMPDEST DUP3 ADD SWAP2 SWAP1 PUSH1 0x0 MSTORE PUSH1 0x20 PUSH1 0x0 KECCAK256 SWAP1 JUMPDEST DUP2 SLOAD DUP2 MSTORE SWAP1 PUSH1 0x1 ADD SWAP1 PUSH1 0x20 ADD DUP1 DUP4 GT PUSH2 0xA29 JUMPI DUP3 SWAP1 SUB PUSH1 0x1F AND DUP3 ADD SWAP2 JUMPDEST POP POP POP POP POP SWAP1 POP SWAP1 JUMP JUMPDEST PUSH1 0x0 PUSH2 0xA5D CALLER DUP5 DUP5 PUSH2 0x290E JUMP JUMPDEST POP PUSH1 0x1 JUMPDEST SWAP3 SWAP2 POP POP JUMP JUMPDEST PUSH1 0x1 SLOAD PUSH1 0x40 MLOAD PUSH4 0x91E1472B PUSH1 0xE0 SHL DUP2 MSTORE PUSH1 0x1 PUSH1 0x1 PUSH1 0xA0 SHL SUB SWAP1 SWAP2 AND SWAP1 PUSH4 0x91E1472B SWAP1 PUSH2 0xA9A SWAP1 CALLER SWAP1 PUSH1 0x0 SWAP1 PUSH1 0x4 ADD PUSH2 0x350D JUMP JUMPDEST PUSH1 0x20 PUSH1 0x40 MLOAD DUP1 DUP4 SUB DUP2 DUP7 DUP1 EXTCODESIZE ISZERO DUP1 ISZERO PUSH2 0xAB2 JUMPI PUSH1 0x0 DUP1 REVERT JUMPDEST POP GAS STATICCALL ISZERO DUP1 ISZERO PUSH2 0xAC6 JUMPI RETURNDATASIZE PUSH1 0x0 DUP1 RETURNDATACOPY RETURNDATASIZE PUSH1 0x0 REVERT JUMPDEST POP POP POP POP PUSH1 0x40 MLOAD RETURNDATASIZE PUSH1 0x1F NOT PUSH1 0x1F DUP3 ADD AND DUP3 ADD DUP1 PUSH1 0x40 MSTORE POP DUP2 ADD SWAP1 PUSH2 0xAEA SWAP2 SWAP1 PUSH2 0x3404 JUMP JUMPDEST PUSH2 0xB0F JUMPI PUSH1 0x40 MLOAD PUSH3 0x461BCD PUSH1 0xE5 SHL DUP2 MSTORE PUSH1 0x4 ADD PUSH2 0xB06 SWAP1 PUSH2 0x360C JUMP JUMPDEST PUSH1 0x40 MLOAD DUP1 SWAP2 SUB SWAP1 REVERT JUMPDEST PUSH1 0x0 DUP2 GT PUSH2 0xB59 JUMPI PUSH1 0x40 MLOAD PUSH3 0x461BCD PUSH1 0xE5 SHL DUP2 MSTORE PUSH1 0x20 PUSH1 0x4 DUP3 ADD MSTORE PUSH1 0x17 PUSH1 0x24 DUP3 ADD MSTORE PUSH23 0x4C6F673A496E737572616E6365506F6F6C3A217A65726F PUSH1 0x48 SHL PUSH1 0x44 DUP3 ADD MSTORE PUSH1 0x64 ADD PUSH2 0xB06 JUMP JUMPDEST PUSH2 0xB66 DUP2 PUSH3 0x15180 PUSH2 0x37CE JUMP JUMPDEST PUSH1 0xF SSTORE POP JUMP JUMPDEST PUSH1 0x1 SLOAD PUSH1 0x40 MLOAD PUSH4 0x91E1472B PUSH1 0xE0 SHL DUP2 MSTORE PUSH1 0x1 PUSH1 0x1 PUSH1 0xA0 SHL SUB SWAP1 SWAP2 AND SWAP1 PUSH4 0x91E1472B SWAP1 PUSH2 0xB9F SWAP1 CALLER SWAP1 PUSH1 0x0 SWAP1 PUSH1 0x4 ADD PUSH2 0x350D JUMP JUMPDEST PUSH1 0x20 PUSH1 0x40 MLOAD DUP1 DUP4 SUB DUP2 DUP7 DUP1 EXTCODESIZE ISZERO DUP1 ISZERO PUSH2 0xBB7 JUMPI PUSH1 0x0 DUP1 REVERT JUMPDEST POP GAS STATICCALL ISZERO DUP1 ISZERO PUSH2 0xBCB JUMPI RETURNDATASIZE PUSH1 0x0 DUP1 RETURNDATACOPY RETURNDATASIZE PUSH1 0x0 REVERT JUMPDEST POP POP POP POP PUSH1 0x40 MLOAD RETURNDATASIZE PUSH1 0x1F NOT PUSH1 0x1F DUP3 ADD AND DUP3 ADD DUP1 PUSH1 0x40 MSTORE POP DUP2 ADD SWAP1 PUSH2 0xBEF SWAP2 SWAP1 PUSH2 0x3404 JUMP JUMPDEST PUSH2 0xC0B JUMPI PUSH1 0x40 MLOAD PUSH3 0x461BCD PUSH1 0xE5 SHL DUP2 MSTORE PUSH1 0x4 ADD PUSH2 0xB06 SWAP1 PUSH2 0x360C JUMP JUMPDEST PUSH1 0xF SLOAD PUSH2 0xC18 SWAP1 TIMESTAMP PUSH2 0x36A9 JUMP JUMPDEST PUSH1 0x8 SSTORE JUMP JUMPDEST PUSH1 0x1 SLOAD PUSH1 0x40 MLOAD PUSH4 0x91E1472B PUSH1 0xE0 SHL DUP2 MSTORE PUSH1 0x1 PUSH1 0x1 PUSH1 0xA0 SHL SUB SWAP1 SWAP2 AND SWAP1 PUSH4 0x91E1472B SWAP1 PUSH2 0xC50 SWAP1 CALLER SWAP1 PUSH1 0x0 SWAP1 PUSH1 0x4 ADD PUSH2 0x350D JUMP JUMPDEST PUSH1 0x20 PUSH1 0x40 MLOAD DUP1 DUP4 SUB DUP2 DUP7 DUP1 EXTCODESIZE ISZERO DUP1 ISZERO PUSH2 0xC68 JUMPI PUSH1 0x0 DUP1 REVERT JUMPDEST POP GAS STATICCALL ISZERO DUP1 ISZERO PUSH2 0xC7C JUMPI RETURNDATASIZE PUSH1 0x0 DUP1 RETURNDATACOPY RETURNDATASIZE PUSH1 0x0 REVERT JUMPDEST POP POP POP POP PUSH1 0x40 MLOAD RETURNDATASIZE PUSH1 0x1F NOT PUSH1 0x1F DUP3 ADD AND DUP3 ADD DUP1 PUSH1 0x40 MSTORE POP DUP2 ADD SWAP1 PUSH2 0xCA0 SWAP2 SWAP1 PUSH2 0x3404 JUMP JUMPDEST PUSH2 0xCBC JUMPI PUSH1 0x40 MLOAD PUSH3 0x461BCD PUSH1 0xE5 SHL DUP2 MSTORE PUSH1 0x4 ADD PUSH2 0xB06 SWAP1 PUSH2 0x360C JUMP JUMPDEST PUSH1 0x0 DUP2 GT PUSH2 0xD06 JUMPI PUSH1 0x40 MLOAD PUSH3 0x461BCD PUSH1 0xE5 SHL DUP2 MSTORE PUSH1 0x20 PUSH1 0x4 DUP3 ADD MSTORE PUSH1 0x17 PUSH1 0x24 DUP3 ADD MSTORE PUSH23 0x4C6F673A496E737572616E6365506F6F6C3A217A65726F PUSH1 0x48 SHL PUSH1 0x44 DUP3 ADD MSTORE PUSH1 0x64 ADD PUSH2 0xB06 JUMP JUMPDEST PUSH2 0xD13 DUP2 PUSH3 0x15180 PUSH2 0x37CE JUMP JUMPDEST PUSH1 0xE SSTORE POP JUMP JUMPDEST PUSH1 0x1 SLOAD PUSH1 0x1 PUSH1 0x1 PUSH1 0xA0 SHL SUB AND CALLER DUP2 EQ DUP1 PUSH2 0xDAD JUMPI POP PUSH1 0x40 MLOAD PUSH4 0x91E1472B PUSH1 0xE0 SHL DUP2 MSTORE PUSH1 0x1 PUSH1 0x1 PUSH1 0xA0 SHL SUB DUP3 AND SWAP1 PUSH4 0x91E1472B SWAP1 PUSH2 0xD5D SWAP1 CALLER SWAP1 PUSH1 0x0 SWAP1 PUSH1 0x4 ADD PUSH2 0x350D JUMP JUMPDEST PUSH1 0x20 PUSH1 0x40 MLOAD DUP1 DUP4 SUB DUP2 DUP7 DUP1 EXTCODESIZE ISZERO DUP1 ISZERO PUSH2 0xD75 JUMPI PUSH1 0x0 DUP1 REVERT JUMPDEST POP GAS STATICCALL ISZERO DUP1 ISZERO PUSH2 0xD89 JUMPI RETURNDATASIZE PUSH1 0x0 DUP1 RETURNDATACOPY RETURNDATASIZE PUSH1 0x0 REVERT JUMPDEST POP POP POP POP PUSH1 0x40 MLOAD RETURNDATASIZE PUSH1 0x1F NOT PUSH1 0x1F DUP3 ADD AND DUP3 ADD DUP1 PUSH1 0x40 MSTORE POP DUP2 ADD SWAP1 PUSH2 0xDAD SWAP2 SWAP1 PUSH2 0x3404 JUMP JUMPDEST PUSH2 0xDC9 JUMPI PUSH1 0x40 MLOAD PUSH3 0x461BCD PUSH1 0xE5 SHL DUP2 MSTORE PUSH1 0x4 ADD PUSH2 0xB06 SWAP1 PUSH2 0x360C JUMP JUMPDEST POP PUSH1 0x1 DUP1 SLOAD PUSH1 0x1 PUSH1 0x1 PUSH1 0xA0 SHL SUB NOT AND PUSH1 0x1 PUSH1 0x1 PUSH1 0xA0 SHL SUB SWAP3 SWAP1 SWAP3 AND SWAP2 SWAP1 SWAP2 OR SWAP1 SSTORE JUMP JUMPDEST PUSH1 0xD SLOAD PUSH1 0x1 PUSH1 0x1 PUSH1 0xA0 SHL SUB AND CALLER EQ PUSH2 0xE46 JUMPI PUSH1 0x40 MLOAD PUSH3 0x461BCD PUSH1 0xE5 SHL DUP2 MSTORE PUSH1 0x20 PUSH1 0x4 DUP3 ADD MSTORE PUSH1 0x1F PUSH1 0x24 DUP3 ADD MSTORE PUSH32 0x4C6F673A496E737572616E6365506F6F6C3A216D6F727467616765506F6F6C00 PUSH1 0x44 DUP3 ADD MSTORE PUSH1 0x64 ADD PUSH2 0xB06 JUMP JUMPDEST PUSH1 0xB SLOAD PUSH1 0x40 MLOAD PUSH4 0x70A08231 PUSH1 0xE0 SHL DUP2 MSTORE ADDRESS PUSH1 0x4 DUP3 ADD MSTORE PUSH1 0x1 PUSH1 0x1 PUSH1 0xA0 SHL SUB SWAP1 SWAP2 AND SWAP1 PUSH1 0x0 SWAP1 DUP3 SWAP1 PUSH4 0x70A08231 SWAP1 PUSH1 0x24 ADD PUSH1 0x20 PUSH1 0x40 MLOAD DUP1 DUP4 SUB DUP2 DUP7 DUP1 EXTCODESIZE ISZERO DUP1 ISZERO PUSH2 0xE8E JUMPI PUSH1 0x0 DUP1 REVERT JUMPDEST POP GAS STATICCALL ISZERO DUP1 ISZERO PUSH2 0xEA2 JUMPI RETURNDATASIZE PUSH1 0x0 DUP1 RETURNDATACOPY RETURNDATASIZE PUSH1 0x0 REVERT JUMPDEST POP POP POP POP PUSH1 0x40 MLOAD RETURNDATASIZE PUSH1 0x1F NOT PUSH1 0x1F DUP3 ADD AND DUP3 ADD DUP1 PUSH1 0x40 MSTORE POP DUP2 ADD SWAP1 PUSH2 0xEC6 SWAP2 SWAP1 PUSH2 0x349E JUMP JUMPDEST SWAP1 POP DUP3 DUP2 LT PUSH2 0xF34 JUMPI PUSH1 0x40 MLOAD PUSH4 0x46F61ED5 PUSH1 0xE1 SHL DUP2 MSTORE PUSH1 0x4 DUP2 ADD DUP5 SWAP1 MSTORE ADDRESS PUSH1 0x24 DUP3 ADD MSTORE PUSH1 0x1 PUSH1 0x1 PUSH1 0xA0 SHL SUB DUP4 AND SWAP1 PUSH4 0x8DEC3DAA SWAP1 PUSH1 0x44 ADD PUSH1 0x0 PUSH1 0x40 MLOAD DUP1 DUP4 SUB DUP2 PUSH1 0x0 DUP8 DUP1 EXTCODESIZE ISZERO DUP1 ISZERO PUSH2 0xF17 JUMPI PUSH1 0x0 DUP1 REVERT JUMPDEST POP GAS CALL ISZERO DUP1 ISZERO PUSH2 0xF2B JUMPI RETURNDATASIZE PUSH1 0x0 DUP1 RETURNDATACOPY RETURNDATASIZE PUSH1 0x0 REVERT JUMPDEST POP POP POP POP POP POP POP JUMP JUMPDEST PUSH1 0x40 MLOAD PUSH4 0x46F61ED5 PUSH1 0xE1 SHL DUP2 MSTORE PUSH1 0x4 DUP2 ADD DUP3 SWAP1 MSTORE ADDRESS PUSH1 0x24 DUP3 ADD MSTORE PUSH1 0x1 PUSH1 0x1 PUSH1 0xA0 SHL SUB DUP4 AND SWAP1 PUSH4 0x8DEC3DAA SWAP1 PUSH1 0x44 ADD PUSH1 0x0 PUSH1 0x40 MLOAD DUP1 DUP4 SUB DUP2 PUSH1 0x0 DUP8 DUP1 EXTCODESIZE ISZERO DUP1 ISZERO PUSH2 0xF7C JUMPI PUSH1 0x0 DUP1 REVERT JUMPDEST POP GAS CALL ISZERO DUP1 ISZERO PUSH2 0xF90 JUMPI RETURNDATASIZE PUSH1 0x0 DUP1 RETURNDATACOPY RETURNDATASIZE PUSH1 0x0 REVERT JUMPDEST POP POP POP POP PUSH1 0x0 DUP2 DUP5 PUSH2 0xFA2 SWAP2 SWAP1 PUSH2 0x37ED JUMP JUMPDEST SWAP1 POP DUP1 PUSH1 0x7 SLOAD PUSH2 0xFB2 SWAP2 SWAP1 PUSH2 0x36A9 JUMP JUMPDEST PUSH1 0x7 DUP2 SWAP1 SSTORE PUSH1 0x40 DUP1 MLOAD DUP4 DUP2 MSTORE PUSH1 0x20 DUP2 ADD SWAP3 SWAP1 SWAP3 MSTORE PUSH32 0x852905F8D78F14C11A72099EDD327AE8E53225B522100935A3FD5F9B8D96CE3F SWAP2 ADD PUSH1 0x40 MLOAD DUP1 SWAP2 SUB SWAP1 LOG1 POP JUMPDEST POP POP POP JUMP JUMPDEST PUSH1 0x0 PUSH2 0x1005 DUP5 DUP5 DUP5 PUSH2 0x2A32 JUMP JUMPDEST PUSH1 0x1 PUSH1 0x1 PUSH1 0xA0 SHL SUB DUP5 AND PUSH1 0x0 SWAP1 DUP2 MSTORE PUSH1 0x3 PUSH1 0x20 SWAP1 DUP2 MSTORE PUSH1 0x40 DUP1 DUP4 KECCAK256 CALLER DUP5 MSTORE SWAP1 SWAP2 MSTORE SWAP1 KECCAK256 SLOAD DUP3 DUP2 LT ISZERO PUSH2 0x108A JUMPI PUSH1 0x40 MLOAD PUSH3 0x461BCD PUSH1 0xE5 SHL DUP2 MSTORE PUSH1 0x20 PUSH1 0x4 DUP3 ADD MSTORE PUSH1 0x28 PUSH1 0x24 DUP3 ADD MSTORE PUSH32 0x45524332303A207472616E7366657220616D6F756E7420657863656564732061 PUSH1 0x44 DUP3 ADD MSTORE PUSH8 0x6C6C6F77616E6365 PUSH1 0xC0 SHL PUSH1 0x64 DUP3 ADD MSTORE PUSH1 0x84 ADD PUSH2 0xB06 JUMP JUMPDEST PUSH2 0x1097 DUP6 CALLER DUP6 DUP5 SUB PUSH2 0x290E JUMP JUMPDEST POP PUSH1 0x1 SWAP5 SWAP4 POP POP POP POP JUMP JUMPDEST PUSH1 0x11 SLOAD PUSH1 0x40 MLOAD PUSH4 0xD4FAC45D PUSH1 0xE0 SHL DUP2 MSTORE ADDRESS PUSH1 0x4 DUP3 ADD MSTORE PUSH1 0x1 PUSH1 0x1 PUSH1 0xA0 SHL SUB DUP4 DUP2 AND PUSH1 0x24 DUP4 ADD MSTORE PUSH1 0x0 SWAP3 PUSH2 0x100 SWAP1 DIV AND SWAP1 PUSH4 0xD4FAC45D SWAP1 PUSH1 0x44 ADD PUSH1 0x20 PUSH1 0x40 MLOAD DUP1 DUP4 SUB DUP2 DUP7 DUP1 EXTCODESIZE ISZERO DUP1 ISZERO PUSH2 0x10F3 JUMPI PUSH1 0x0 DUP1 REVERT JUMPDEST POP GAS STATICCALL ISZERO DUP1 ISZERO PUSH2 0x1107 JUMPI RETURNDATASIZE PUSH1 0x0 DUP1 RETURNDATACOPY RETURNDATASIZE PUSH1 0x0 REVERT JUMPDEST POP POP POP POP PUSH1 0x40 MLOAD RETURNDATASIZE PUSH1 0x1F NOT PUSH1 0x1F DUP3 ADD AND DUP3 ADD DUP1 PUSH1 0x40 MSTORE POP DUP2 ADD SWAP1 PUSH2 0x112B SWAP2 SWAP1 PUSH2 0x349E JUMP JUMPDEST PUSH1 0x1 PUSH1 0x1 PUSH1 0xA0 SHL SUB DUP4 AND PUSH1 0x0 SWAP1 DUP2 MSTORE PUSH1 0x2 PUSH1 0x20 MSTORE PUSH1 0x40 SWAP1 KECCAK256 SLOAD PUSH2 0xA61 SWAP2 SWAP1 PUSH2 0x36A9 JUMP JUMPDEST PUSH1 0x0 DUP1 PUSH1 0x0 PUSH1 0x8 SLOAD SWAP1 POP DUP1 TIMESTAMP GT ISZERO PUSH2 0x119C JUMPI PUSH1 0xF SLOAD PUSH1 0x0 SWAP1 PUSH2 0x1170 DUP4 TIMESTAMP PUSH2 0x37ED JUMP JUMPDEST PUSH2 0x117A SWAP2 SWAP1 PUSH2 0x36C1 JUMP JUMPDEST SWAP1 POP DUP1 PUSH1 0xF SLOAD PUSH2 0x118A SWAP2 SWAP1 PUSH2 0x37CE JUMP JUMPDEST PUSH2 0x1194 SWAP1 DUP4 PUSH2 0x36A9 JUMP JUMPDEST SWAP4 POP POP PUSH2 0x11AC JUMP JUMPDEST PUSH1 0xF SLOAD PUSH2 0x11A9 SWAP1 DUP3 PUSH2 0x37ED JUMP JUMPDEST SWAP3 POP JUMPDEST PUSH1 0xE SLOAD PUSH2 0x11B9 SWAP1 DUP5 PUSH2 0x36A9 JUMP JUMPDEST SWAP2 POP POP SWAP1 SWAP2 JUMP JUMPDEST PUSH1 0x9 SLOAD PUSH1 0xFF AND PUSH1 0x1 EQ PUSH2 0x11E5 JUMPI PUSH1 0x40 MLOAD PUSH3 0x461BCD PUSH1 0xE5 SHL DUP2 MSTORE PUSH1 0x4 ADD PUSH2 0xB06 SWAP1 PUSH2 0x363B JUMP JUMPDEST PUSH1 0x0 SLOAD ISZERO PUSH2 0x1205 JUMPI PUSH1 0x40 MLOAD PUSH3 0x461BCD PUSH1 0xE5 SHL DUP2 MSTORE PUSH1 0x4 ADD PUSH2 0xB06 SWAP1 PUSH2 0x359E JUMP JUMPDEST PUSH1 0x1 PUSH1 0x0 SSTORE DUP1 PUSH2 0x1227 JUMPI PUSH1 0x40 MLOAD PUSH3 0x461BCD PUSH1 0xE5 SHL DUP2 MSTORE PUSH1 0x4 ADD PUSH2 0xB06 SWAP1 PUSH2 0x3672 JUMP JUMPDEST PUSH1 0x0 PUSH2 0x3E8 PUSH1 0x10 SLOAD DUP4 PUSH2 0x123A SWAP2 SWAP1 PUSH2 0x37CE JUMP JUMPDEST PUSH2 0x1244 SWAP2 SWAP1 PUSH2 0x36C1 JUMP JUMPDEST PUSH1 0x11 SLOAD SWAP1 SWAP2 POP PUSH1 0xFF AND ISZERO PUSH2 0x12A6 JUMPI DUP2 CALLVALUE EQ PUSH2 0x12A1 JUMPI PUSH1 0x40 MLOAD PUSH3 0x461BCD PUSH1 0xE5 SHL DUP2 MSTORE PUSH1 0x20 PUSH1 0x4 DUP3 ADD MSTORE PUSH1 0x1C PUSH1 0x24 DUP3 ADD MSTORE PUSH32 0x4C6F673A496E737572616E6365506F6F6C3A216D73672E76616C756500000000 PUSH1 0x44 DUP3 ADD MSTORE PUSH1 0x64 ADD PUSH2 0xB06 JUMP JUMPDEST PUSH2 0x12DC JUMP JUMPDEST CALLVALUE ISZERO PUSH2 0x12C4 JUMPI PUSH1 0x40 MLOAD PUSH3 0x461BCD PUSH1 0xE5 SHL DUP2 MSTORE PUSH1 0x4 ADD PUSH2 0xB06 SWAP1 PUSH2 0x35D5 JUMP JUMPDEST PUSH1 0xC SLOAD PUSH2 0x12DC SWAP1 PUSH1 0x1 PUSH1 0x1 PUSH1 0xA0 SHL SUB AND CALLER ADDRESS DUP6 PUSH2 0x2C98 JUMP JUMPDEST PUSH1 0xC SLOAD PUSH1 0x0 SWAP1 PUSH2 0x130A SWAP1 PUSH1 0x1 PUSH1 0x1 PUSH1 0xA0 SHL SUB AND PUSH2 0x12F9 DUP5 DUP7 PUSH2 0x37ED JUMP JUMPDEST PUSH1 0xB SLOAD PUSH1 0x1 PUSH1 0x1 PUSH1 0xA0 SHL SUB AND PUSH2 0x26FC JUMP JUMPDEST SWAP1 POP PUSH1 0x0 DUP2 GT PUSH2 0x135C JUMPI PUSH1 0x40 MLOAD PUSH3 0x461BCD PUSH1 0xE5 SHL DUP2 MSTORE PUSH1 0x20 PUSH1 0x4 DUP3 ADD MSTORE PUSH1 0x1F PUSH1 0x24 DUP3 ADD MSTORE PUSH32 0x4C6F673A496E737572616E6365506F6F6C3A2170546F6B656E416D6F756E7400 PUSH1 0x44 DUP3 ADD MSTORE PUSH1 0x64 ADD PUSH2 0xB06 JUMP JUMPDEST PUSH1 0xB SLOAD PUSH1 0x40 MLOAD PUSH4 0x70A08231 PUSH1 0xE0 SHL DUP2 MSTORE ADDRESS PUSH1 0x4 DUP3 ADD MSTORE PUSH1 0x0 SWAP2 PUSH1 0x1 PUSH1 0x1 PUSH1 0xA0 SHL SUB AND SWAP1 PUSH4 0x70A08231 SWAP1 PUSH1 0x24 ADD PUSH1 0x20 PUSH1 0x40 MLOAD DUP1 DUP4 SUB DUP2 DUP7 DUP1 EXTCODESIZE ISZERO DUP1 ISZERO PUSH2 0x13A0 JUMPI PUSH1 0x0 DUP1 REVERT JUMPDEST POP GAS STATICCALL ISZERO DUP1 ISZERO PUSH2 0x13B4 JUMPI RETURNDATASIZE PUSH1 0x0 DUP1 RETURNDATACOPY RETURNDATASIZE PUSH1 0x0 REVERT JUMPDEST POP POP POP POP PUSH1 0x40 MLOAD RETURNDATASIZE PUSH1 0x1F NOT PUSH1 0x1F DUP3 ADD AND DUP3 ADD DUP1 PUSH1 0x40 MSTORE POP DUP2 ADD SWAP1 PUSH2 0x13D8 SWAP2 SWAP1 PUSH2 0x349E JUMP JUMPDEST SWAP1 POP DUP2 DUP2 LT ISZERO PUSH2 0x1466 JUMPI PUSH1 0x0 PUSH2 0x13EE DUP3 DUP5 PUSH2 0x37ED JUMP JUMPDEST PUSH1 0xB SLOAD PUSH1 0x40 MLOAD PUSH4 0x13B1DB0B PUSH1 0xE3 SHL DUP2 MSTORE PUSH1 0x4 DUP2 ADD DUP4 SWAP1 MSTORE ADDRESS PUSH1 0x24 DUP3 ADD MSTORE SWAP2 SWAP3 POP PUSH1 0x1 PUSH1 0x1 PUSH1 0xA0 SHL SUB AND SWAP1 PUSH4 0x9D8ED858 SWAP1 PUSH1 0x44 ADD PUSH1 0x0 PUSH1 0x40 MLOAD DUP1 DUP4 SUB DUP2 PUSH1 0x0 DUP8 DUP1 EXTCODESIZE ISZERO DUP1 ISZERO PUSH2 0x143B JUMPI PUSH1 0x0 DUP1 REVERT JUMPDEST POP GAS CALL ISZERO DUP1 ISZERO PUSH2 0x144F JUMPI RETURNDATASIZE PUSH1 0x0 DUP1 RETURNDATACOPY RETURNDATASIZE PUSH1 0x0 REVERT JUMPDEST POP POP POP POP DUP1 PUSH1 0x7 SLOAD PUSH2 0x1461 SWAP2 SWAP1 PUSH2 0x36A9 JUMP JUMPDEST PUSH1 0x7 SSTORE POP JUMPDEST PUSH1 0xB SLOAD PUSH2 0x147D SWAP1 PUSH1 0x1 PUSH1 0x1 PUSH1 0xA0 SHL SUB AND CALLER DUP5 PUSH2 0x2DC8 JUMP JUMPDEST POP POP PUSH1 0x0 DUP1 SSTORE POP POP JUMP JUMPDEST CALLER PUSH1 0x0 DUP2 DUP2 MSTORE PUSH1 0x3 PUSH1 0x20 SWAP1 DUP2 MSTORE PUSH1 0x40 DUP1 DUP4 KECCAK256 PUSH1 0x1 PUSH1 0x1 PUSH1 0xA0 SHL SUB DUP8 AND DUP5 MSTORE SWAP1 SWAP2 MSTORE DUP2 KECCAK256 SLOAD SWAP1 SWAP2 PUSH2 0xA5D SWAP2 DUP6 SWAP1 PUSH2 0x14BE SWAP1 DUP7 SWAP1 PUSH2 0x36A9 JUMP JUMPDEST PUSH2 0x290E JUMP JUMPDEST PUSH1 0x9 SLOAD PUSH1 0xFF AND PUSH1 0x1 EQ PUSH2 0x14E8 JUMPI PUSH1 0x40 MLOAD PUSH3 0x461BCD PUSH1 0xE5 SHL DUP2 MSTORE PUSH1 0x4 ADD PUSH2 0xB06 SWAP1 PUSH2 0x363B JUMP JUMPDEST PUSH1 0x0 SLOAD ISZERO PUSH2 0x1508 JUMPI PUSH1 0x40 MLOAD PUSH3 0x461BCD PUSH1 0xE5 SHL DUP2 MSTORE PUSH1 0x4 ADD PUSH2 0xB06 SWAP1 PUSH2 0x359E JUMP JUMPDEST PUSH1 0x1 PUSH1 0x0 SSTORE DUP1 PUSH2 0x152A JUMPI PUSH1 0x40 MLOAD PUSH3 0x461BCD PUSH1 0xE5 SHL DUP2 MSTORE PUSH1 0x4 ADD PUSH2 0xB06 SWAP1 PUSH2 0x3672 JUMP JUMPDEST PUSH1 0x0 PUSH2 0x3E8 PUSH1 0x10 SLOAD DUP4 PUSH2 0x153D SWAP2 SWAP1 PUSH2 0x37CE JUMP JUMPDEST PUSH2 0x1547 SWAP2 SWAP1 PUSH2 0x36C1 JUMP JUMPDEST PUSH1 0xB SLOAD SWAP1 SWAP2 POP PUSH2 0x1562 SWAP1 PUSH1 0x1 PUSH1 0x1 PUSH1 0xA0 SHL SUB AND CALLER ADDRESS DUP6 PUSH2 0x2C98 JUMP JUMPDEST PUSH1 0xB SLOAD PUSH1 0x0 SWAP1 PUSH2 0x1590 SWAP1 PUSH1 0x1 PUSH1 0x1 PUSH1 0xA0 SHL SUB AND PUSH2 0x157F DUP5 DUP7 PUSH2 0x37ED JUMP JUMPDEST PUSH1 0xC SLOAD PUSH1 0x1 PUSH1 0x1 PUSH1 0xA0 SHL SUB AND PUSH2 0x26FC JUMP JUMPDEST SWAP1 POP PUSH1 0x0 DUP2 GT PUSH2 0x15E2 JUMPI PUSH1 0x40 MLOAD PUSH3 0x461BCD PUSH1 0xE5 SHL DUP2 MSTORE PUSH1 0x20 PUSH1 0x4 DUP3 ADD MSTORE PUSH1 0x1F PUSH1 0x24 DUP3 ADD MSTORE PUSH32 0x4C6F673A496E737572616E6365506F6F6C3A2175546F6B656E416D6F756E7400 PUSH1 0x44 DUP3 ADD MSTORE PUSH1 0x64 ADD PUSH2 0xB06 JUMP JUMPDEST PUSH1 0x11 SLOAD PUSH1 0xFF AND ISZERO PUSH2 0x15FC JUMPI PUSH2 0x15F7 CALLER DUP3 PUSH2 0x2EDE JUMP JUMPDEST PUSH2 0x1613 JUMP JUMPDEST PUSH1 0xC SLOAD PUSH2 0x1613 SWAP1 PUSH1 0x1 PUSH1 0x1 PUSH1 0xA0 SHL SUB AND CALLER DUP4 PUSH2 0x2DC8 JUMP JUMPDEST PUSH2 0x161B PUSH2 0x210F JUMP JUMPDEST POP POP PUSH1 0x0 DUP1 SSTORE POP JUMP JUMPDEST PUSH1 0x1 SLOAD PUSH1 0x40 MLOAD PUSH4 0x91E1472B PUSH1 0xE0 SHL DUP2 MSTORE PUSH1 0x1 PUSH1 0x1 PUSH1 0xA0 SHL SUB SWAP1 SWAP2 AND SWAP1 PUSH4 0x91E1472B SWAP1 PUSH2 0x1657 SWAP1 CALLER SWAP1 PUSH1 0x0 SWAP1 PUSH1 0x4 ADD PUSH2 0x350D JUMP JUMPDEST PUSH1 0x20 PUSH1 0x40 MLOAD DUP1 DUP4 SUB DUP2 DUP7 DUP1 EXTCODESIZE ISZERO DUP1 ISZERO PUSH2 0x166F JUMPI PUSH1 0x0 DUP1 REVERT JUMPDEST POP GAS STATICCALL ISZERO DUP1 ISZERO PUSH2 0x1683 JUMPI RETURNDATASIZE PUSH1 0x0 DUP1 RETURNDATACOPY RETURNDATASIZE PUSH1 0x0 REVERT JUMPDEST POP POP POP POP PUSH1 0x40 MLOAD RETURNDATASIZE PUSH1 0x1F NOT PUSH1 0x1F DUP3 ADD AND DUP3 ADD DUP1 PUSH1 0x40 MSTORE POP DUP2 ADD SWAP1 PUSH2 0x16A7 SWAP2 SWAP1 PUSH2 0x3404 JUMP JUMPDEST PUSH2 0x16C3 JUMPI PUSH1 0x40 MLOAD PUSH3 0x461BCD PUSH1 0xE5 SHL DUP2 MSTORE PUSH1 0x4 ADD PUSH2 0xB06 SWAP1 PUSH2 0x360C JUMP JUMPDEST PUSH1 0x7 SSTORE JUMP JUMPDEST PUSH1 0x1 SLOAD PUSH1 0x40 MLOAD PUSH4 0x91E1472B PUSH1 0xE0 SHL DUP2 MSTORE PUSH1 0x1 PUSH1 0x1 PUSH1 0xA0 SHL SUB SWAP1 SWAP2 AND SWAP1 PUSH4 0x91E1472B SWAP1 PUSH2 0x16FB SWAP1 CALLER SWAP1 PUSH1 0x0 SWAP1 PUSH1 0x4 ADD PUSH2 0x350D JUMP JUMPDEST PUSH1 0x20 PUSH1 0x40 MLOAD DUP1 DUP4 SUB DUP2 DUP7 DUP1 EXTCODESIZE ISZERO DUP1 ISZERO PUSH2 0x1713 JUMPI PUSH1 0x0 DUP1 REVERT JUMPDEST POP GAS STATICCALL ISZERO DUP1 ISZERO PUSH2 0x1727 JUMPI RETURNDATASIZE PUSH1 0x0 DUP1 RETURNDATACOPY RETURNDATASIZE PUSH1 0x0 REVERT JUMPDEST POP POP POP POP PUSH1 0x40 MLOAD RETURNDATASIZE PUSH1 0x1F NOT PUSH1 0x1F DUP3 ADD AND DUP3 ADD DUP1 PUSH1 0x40 MSTORE POP DUP2 ADD SWAP1 PUSH2 0x174B SWAP2 SWAP1 PUSH2 0x3404 JUMP JUMPDEST PUSH2 0x1767 JUMPI PUSH1 0x40 MLOAD PUSH3 0x461BCD PUSH1 0xE5 SHL DUP2 MSTORE PUSH1 0x4 ADD PUSH2 0xB06 SWAP1 PUSH2 0x360C JUMP JUMPDEST PUSH1 0x10 SSTORE JUMP JUMPDEST PUSH1 0x9 SLOAD PUSH1 0xFF AND PUSH1 0x1 EQ PUSH2 0x1791 JUMPI PUSH1 0x40 MLOAD PUSH3 0x461BCD PUSH1 0xE5 SHL DUP2 MSTORE PUSH1 0x4 ADD PUSH2 0xB06 SWAP1 PUSH2 0x363B JUMP JUMPDEST PUSH1 0x0 SLOAD ISZERO PUSH2 0x17B1 JUMPI PUSH1 0x40 MLOAD PUSH3 0x461BCD PUSH1 0xE5 SHL DUP2 MSTORE PUSH1 0x4 ADD PUSH2 0xB06 SWAP1 PUSH2 0x359E JUMP JUMPDEST PUSH1 0x1 PUSH1 0x0 SSTORE DUP1 PUSH2 0x17D3 JUMPI PUSH1 0x40 MLOAD PUSH3 0x461BCD PUSH1 0xE5 SHL DUP2 MSTORE PUSH1 0x4 ADD PUSH2 0xB06 SWAP1 PUSH2 0x3672 JUMP JUMPDEST PUSH2 0x17DB PUSH2 0x2302 JUMP JUMPDEST CALLER PUSH1 0x0 SWAP1 DUP2 MSTORE PUSH1 0xA PUSH1 0x20 MSTORE PUSH1 0x40 SWAP1 KECCAK256 PUSH1 0x1 DUP2 ADD SLOAD TIMESTAMP GT ISZERO PUSH2 0x17FB JUMPI PUSH1 0x0 DUP2 SSTORE JUMPDEST PUSH1 0xB SLOAD PUSH1 0x40 MLOAD PUSH4 0x70A08231 PUSH1 0xE0 SHL DUP2 MSTORE ADDRESS PUSH1 0x4 DUP3 ADD MSTORE PUSH1 0x0 SWAP2 PUSH1 0x1 PUSH1 0x1 PUSH1 0xA0 SHL SUB AND SWAP1 PUSH4 0x70A08231 SWAP1 PUSH1 0x24 ADD PUSH1 0x20 PUSH1 0x40 MLOAD DUP1 DUP4 SUB DUP2 DUP7 DUP1 EXTCODESIZE ISZERO DUP1 ISZERO PUSH2 0x183F JUMPI PUSH1 0x0 DUP1 REVERT JUMPDEST POP GAS STATICCALL ISZERO DUP1 ISZERO PUSH2 0x1853 JUMPI RETURNDATASIZE PUSH1 0x0 DUP1 RETURNDATACOPY RETURNDATASIZE PUSH1 0x0 REVERT JUMPDEST POP POP POP POP PUSH1 0x40 MLOAD RETURNDATASIZE PUSH1 0x1F NOT PUSH1 0x1F DUP3 ADD AND DUP3 ADD DUP1 PUSH1 0x40 MSTORE POP DUP2 ADD SWAP1 PUSH2 0x1877 SWAP2 SWAP1 PUSH2 0x349E JUMP JUMPDEST PUSH1 0x11 SLOAD SWAP1 SWAP2 POP PUSH1 0x0 SWAP1 PUSH1 0xFF AND ISZERO PUSH2 0x18E8 JUMPI DUP4 CALLVALUE EQ PUSH2 0x18D7 JUMPI PUSH1 0x40 MLOAD PUSH3 0x461BCD PUSH1 0xE5 SHL DUP2 MSTORE PUSH1 0x20 PUSH1 0x4 DUP3 ADD MSTORE PUSH1 0x1C PUSH1 0x24 DUP3 ADD MSTORE PUSH32 0x4C6F673A496E737572616E6365506F6F6C3A216D73672E76616C756500000000 PUSH1 0x44 DUP3 ADD MSTORE PUSH1 0x64 ADD PUSH2 0xB06 JUMP JUMPDEST PUSH2 0x18E1 DUP5 SELFBALANCE PUSH2 0x37ED JUMP JUMPDEST SWAP1 POP PUSH2 0x1989 JUMP JUMPDEST CALLVALUE ISZERO PUSH2 0x1906 JUMPI PUSH1 0x40 MLOAD PUSH3 0x461BCD PUSH1 0xE5 SHL DUP2 MSTORE PUSH1 0x4 ADD PUSH2 0xB06 SWAP1 PUSH2 0x35D5 JUMP JUMPDEST PUSH1 0xC SLOAD PUSH1 0x40 MLOAD PUSH4 0x70A08231 PUSH1 0xE0 SHL DUP2 MSTORE ADDRESS PUSH1 0x4 DUP3 ADD MSTORE PUSH2 0x1986 SWAP2 PUSH1 0x1 PUSH1 0x1 PUSH1 0xA0 SHL SUB AND SWAP1 DUP2 SWAP1 PUSH4 0x70A08231 SWAP1 PUSH1 0x24 ADD JUMPDEST PUSH1 0x20 PUSH1 0x40 MLOAD DUP1 DUP4 SUB DUP2 DUP7 DUP1 EXTCODESIZE ISZERO DUP1 ISZERO PUSH2 0x194E JUMPI PUSH1 0x0 DUP1 REVERT JUMPDEST POP GAS STATICCALL ISZERO DUP1 ISZERO PUSH2 0x1962 JUMPI RETURNDATASIZE PUSH1 0x0 DUP1 RETURNDATACOPY RETURNDATASIZE PUSH1 0x0 REVERT JUMPDEST POP POP POP POP PUSH1 0x40 MLOAD RETURNDATASIZE PUSH1 0x1F NOT PUSH1 0x1F DUP3 ADD AND DUP3 ADD DUP1 PUSH1 0x40 MSTORE POP DUP2 ADD SWAP1 PUSH2 0x12F9 SWAP2 SWAP1 PUSH2 0x349E JUMP JUMPDEST SWAP1 POP JUMPDEST PUSH1 0x4 SLOAD PUSH1 0x0 SWAP1 DUP2 PUSH2 0x199A DUP6 DUP6 PUSH2 0x36A9 JUMP JUMPDEST SWAP1 POP DUP2 ISZERO PUSH2 0x1A14 JUMPI PUSH1 0x7 SLOAD DUP2 GT PUSH2 0x19C3 JUMPI PUSH1 0x40 MLOAD PUSH3 0x461BCD PUSH1 0xE5 SHL DUP2 MSTORE PUSH1 0x4 ADD PUSH2 0xB06 SWAP1 PUSH2 0x3559 JUMP JUMPDEST PUSH1 0x0 PUSH1 0x7 SLOAD DUP3 PUSH2 0x19D3 SWAP2 SWAP1 PUSH2 0x37ED JUMP JUMPDEST PUSH1 0xC SLOAD PUSH1 0xB SLOAD SWAP2 SWAP3 POP DUP3 SWAP2 DUP6 SWAP2 PUSH2 0x19F8 SWAP2 PUSH1 0x1 PUSH1 0x1 PUSH1 0xA0 SHL SUB SWAP2 DUP3 AND SWAP2 DUP14 SWAP2 AND PUSH2 0x26FC JUMP JUMPDEST PUSH2 0x1A02 SWAP2 SWAP1 PUSH2 0x37CE JUMP JUMPDEST PUSH2 0x1A0C SWAP2 SWAP1 PUSH2 0x36C1 JUMP JUMPDEST SWAP4 POP POP PUSH2 0x1A35 JUMP JUMPDEST PUSH1 0xC SLOAD PUSH1 0xB SLOAD PUSH2 0x1A32 SWAP2 PUSH1 0x1 PUSH1 0x1 PUSH1 0xA0 SHL SUB SWAP1 DUP2 AND SWAP2 DUP11 SWAP2 AND PUSH2 0x26FC JUMP JUMPDEST SWAP3 POP JUMPDEST PUSH1 0x11 SLOAD PUSH1 0xFF AND PUSH2 0x1A75 JUMPI CALLVALUE ISZERO PUSH2 0x1A5D JUMPI PUSH1 0x40 MLOAD PUSH3 0x461BCD PUSH1 0xE5 SHL DUP2 MSTORE PUSH1 0x4 ADD PUSH2 0xB06 SWAP1 PUSH2 0x35D5 JUMP JUMPDEST PUSH1 0xC SLOAD PUSH2 0x1A75 SWAP1 PUSH1 0x1 PUSH1 0x1 PUSH1 0xA0 SHL SUB AND CALLER ADDRESS DUP11 PUSH2 0x2C98 JUMP JUMPDEST PUSH2 0x1A7F DUP4 CALLER PUSH2 0x2FA7 JUMP JUMPDEST DUP6 SLOAD PUSH2 0x1A8C SWAP1 DUP5 SWAP1 PUSH2 0x36A9 JUMP JUMPDEST DUP7 SSTORE PUSH1 0xF SLOAD PUSH1 0x8 SLOAD PUSH2 0x1A9E SWAP2 SWAP1 PUSH2 0x36A9 JUMP JUMPDEST PUSH1 0x1 SWAP1 SWAP7 ADD SWAP6 SWAP1 SWAP6 SSTORE POP POP PUSH1 0x0 DUP1 SSTORE POP POP POP POP JUMP JUMPDEST PUSH1 0x1 PUSH1 0x1 PUSH1 0xA0 SHL SUB DUP2 AND PUSH1 0x0 SWAP1 DUP2 MSTORE PUSH1 0xA PUSH1 0x20 SWAP1 DUP2 MSTORE PUSH1 0x40 DUP1 DUP4 KECCAK256 DUP2 MLOAD DUP1 DUP4 ADD SWAP1 SWAP3 MSTORE DUP1 SLOAD DUP3 MSTORE PUSH1 0x1 ADD SLOAD SWAP2 DUP2 ADD DUP3 SWAP1 MSTORE SWAP1 TIMESTAMP GT ISZERO PUSH2 0x1AF5 JUMPI POP PUSH1 0x0 SWAP3 SWAP2 POP POP JUMP JUMPDEST MLOAD SWAP3 SWAP2 POP POP JUMP JUMPDEST PUSH1 0x1 SLOAD PUSH1 0x40 MLOAD PUSH4 0x91E1472B PUSH1 0xE0 SHL DUP2 MSTORE PUSH1 0x1 PUSH1 0x1 PUSH1 0xA0 SHL SUB SWAP1 SWAP2 AND SWAP1 PUSH4 0x91E1472B SWAP1 PUSH2 0x1B2F SWAP1 CALLER SWAP1 PUSH1 0x0 SWAP1 PUSH1 0x4 ADD PUSH2 0x350D JUMP JUMPDEST PUSH1 0x20 PUSH1 0x40 MLOAD DUP1 DUP4 SUB DUP2 DUP7 DUP1 EXTCODESIZE ISZERO DUP1 ISZERO PUSH2 0x1B47 JUMPI PUSH1 0x0 DUP1 REVERT JUMPDEST POP GAS STATICCALL ISZERO DUP1 ISZERO PUSH2 0x1B5B JUMPI RETURNDATASIZE PUSH1 0x0 DUP1 RETURNDATACOPY RETURNDATASIZE PUSH1 0x0 REVERT JUMPDEST POP POP POP POP PUSH1 0x40 MLOAD RETURNDATASIZE PUSH1 0x1F NOT PUSH1 0x1F DUP3 ADD AND DUP3 ADD DUP1 PUSH1 0x40 MSTORE POP DUP2 ADD SWAP1 PUSH2 0x1B7F SWAP2 SWAP1 PUSH2 0x3404 JUMP JUMPDEST PUSH2 0x1B9B JUMPI PUSH1 0x40 MLOAD PUSH3 0x461BCD PUSH1 0xE5 SHL DUP2 MSTORE PUSH1 0x4 ADD PUSH2 0xB06 SWAP1 PUSH2 0x360C JUMP JUMPDEST PUSH1 0x9 DUP1 SLOAD PUSH1 0xFF NOT AND PUSH1 0xFF SWAP3 SWAP1 SWAP3 AND SWAP2 SWAP1 SWAP2 OR SWAP1 SSTORE JUMP JUMPDEST PUSH1 0x1 SLOAD PUSH1 0x40 MLOAD PUSH4 0x91E1472B PUSH1 0xE0 SHL DUP2 MSTORE PUSH1 0x1 PUSH1 0x1 PUSH1 0xA0 SHL SUB SWAP1 SWAP2 AND SWAP1 PUSH4 0x91E1472B SWAP1 PUSH2 0x1BE4 SWAP1 CALLER SWAP1 PUSH1 0x0 SWAP1 PUSH1 0x4 ADD PUSH2 0x350D JUMP JUMPDEST PUSH1 0x20 PUSH1 0x40 MLOAD DUP1 DUP4 SUB DUP2 DUP7 DUP1 EXTCODESIZE ISZERO DUP1 ISZERO PUSH2 0x1BFC JUMPI PUSH1 0x0 DUP1 REVERT JUMPDEST POP GAS STATICCALL ISZERO DUP1 ISZERO PUSH2 0x1C10 JUMPI RETURNDATASIZE PUSH1 0x0 DUP1 RETURNDATACOPY RETURNDATASIZE PUSH1 0x0 REVERT JUMPDEST POP POP POP POP PUSH1 0x40 MLOAD RETURNDATASIZE PUSH1 0x1F NOT PUSH1 0x1F DUP3 ADD AND DUP3 ADD DUP1 PUSH1 0x40 MSTORE POP DUP2 ADD SWAP1 PUSH2 0x1C34 SWAP2 SWAP1 PUSH2 0x3404 JUMP JUMPDEST PUSH2 0x1C50 JUMPI PUSH1 0x40 MLOAD PUSH3 0x461BCD PUSH1 0xE5 SHL DUP2 MSTORE PUSH1 0x4 ADD PUSH2 0xB06 SWAP1 PUSH2 0x360C JUMP JUMPDEST PUSH1 0xD DUP1 SLOAD PUSH1 0x1 PUSH1 0x1 PUSH1 0xA0 SHL SUB NOT AND PUSH1 0x1 PUSH1 0x1 PUSH1 0xA0 SHL SUB SWAP3 SWAP1 SWAP3 AND SWAP2 SWAP1 SWAP2 OR SWAP1 SSTORE JUMP JUMPDEST PUSH1 0x60 PUSH1 0x6 DUP1 SLOAD PUSH2 0x9CD SWAP1 PUSH2 0x3834 JUMP JUMPDEST CALLER PUSH1 0x0 SWAP1 DUP2 MSTORE PUSH1 0x3 PUSH1 0x20 SWAP1 DUP2 MSTORE PUSH1 0x40 DUP1 DUP4 KECCAK256 PUSH1 0x1 PUSH1 0x1 PUSH1 0xA0 SHL SUB DUP7 AND DUP5 MSTORE SWAP1 SWAP2 MSTORE DUP2 KECCAK256 SLOAD DUP3 DUP2 LT ISZERO PUSH2 0x1D03 JUMPI PUSH1 0x40 MLOAD PUSH3 0x461BCD PUSH1 0xE5 SHL DUP2 MSTORE PUSH1 0x20 PUSH1 0x4 DUP3 ADD MSTORE PUSH1 0x25 PUSH1 0x24 DUP3 ADD MSTORE PUSH32 0x45524332303A2064656372656173656420616C6C6F77616E63652062656C6F77 PUSH1 0x44 DUP3 ADD MSTORE PUSH5 0x207A65726F PUSH1 0xD8 SHL PUSH1 0x64 DUP3 ADD MSTORE PUSH1 0x84 ADD PUSH2 0xB06 JUMP JUMPDEST PUSH2 0x1D10 CALLER DUP6 DUP6 DUP5 SUB PUSH2 0x290E JUMP JUMPDEST POP PUSH1 0x1 SWAP4 SWAP3 POP POP POP JUMP JUMPDEST PUSH1 0x9 SLOAD PUSH1 0xFF AND PUSH2 0x1D63 JUMPI PUSH1 0x40 MLOAD PUSH3 0x461BCD PUSH1 0xE5 SHL DUP2 MSTORE PUSH1 0x20 PUSH1 0x4 DUP3 ADD MSTORE PUSH1 0x14 PUSH1 0x24 DUP3 ADD MSTORE PUSH20 0x4C6F673A496E737572616E6365506F6F6C3A213 PUSH1 0x64 SHL PUSH1 0x44 DUP3 ADD MSTORE PUSH1 0x64 ADD PUSH2 0xB06 JUMP JUMPDEST PUSH1 0x0 SLOAD ISZERO PUSH2 0x1D83 JUMPI PUSH1 0x40 MLOAD PUSH3 0x461BCD PUSH1 0xE5 SHL DUP2 MSTORE PUSH1 0x4 ADD PUSH2 0xB06 SWAP1 PUSH2 0x359E JUMP JUMPDEST PUSH1 0x1 PUSH1 0x0 SSTORE DUP1 PUSH2 0x1DA5 JUMPI PUSH1 0x40 MLOAD PUSH3 0x461BCD PUSH1 0xE5 SHL DUP2 MSTORE PUSH1 0x4 ADD PUSH2 0xB06 SWAP1 PUSH2 0x3672 JUMP JUMPDEST PUSH2 0x1DAD PUSH2 0x2302 JUMP JUMPDEST PUSH1 0x8 SLOAD PUSH1 0xF SLOAD PUSH2 0x1DBD SWAP1 DUP3 PUSH2 0x37ED JUMP JUMPDEST TIMESTAMP LT ISZERO DUP1 ISZERO PUSH2 0x1DE5 JUMPI POP PUSH1 0xE SLOAD PUSH1 0xF SLOAD PUSH2 0x1DD7 SWAP1 DUP4 PUSH2 0x37ED JUMP JUMPDEST PUSH2 0x1DE1 SWAP2 SWAP1 PUSH2 0x36A9 JUMP JUMPDEST TIMESTAMP GT ISZERO JUMPDEST PUSH2 0x1E31 JUMPI PUSH1 0x40 MLOAD PUSH3 0x461BCD PUSH1 0xE5 SHL DUP2 MSTORE PUSH1 0x20 PUSH1 0x4 DUP3 ADD MSTORE PUSH1 0x17 PUSH1 0x24 DUP3 ADD MSTORE PUSH32 0x4C6F673A496E737572616E6365506F6F6C3A2174696D65000000000000000000 PUSH1 0x44 DUP3 ADD MSTORE PUSH1 0x64 ADD PUSH2 0xB06 JUMP JUMPDEST CALLER PUSH1 0x0 SWAP1 DUP2 MSTORE PUSH1 0xA PUSH1 0x20 MSTORE PUSH1 0x40 SWAP1 KECCAK256 PUSH1 0x1 DUP2 ADD SLOAD TIMESTAMP GT ISZERO PUSH2 0x1E51 JUMPI PUSH1 0x0 DUP2 SSTORE JUMPDEST PUSH1 0xB SLOAD PUSH1 0x40 MLOAD PUSH4 0x70A08231 PUSH1 0xE0 SHL DUP2 MSTORE ADDRESS PUSH1 0x4 DUP3 ADD MSTORE PUSH1 0x0 SWAP2 PUSH1 0x1 PUSH1 0x1 PUSH1 0xA0 SHL SUB AND SWAP1 PUSH4 0x70A08231 SWAP1 PUSH1 0x24 ADD PUSH1 0x20 PUSH1 0x40 MLOAD DUP1 DUP4 SUB DUP2 DUP7 DUP1 EXTCODESIZE ISZERO DUP1 ISZERO PUSH2 0x1E95 JUMPI PUSH1 0x0 DUP1 REVERT JUMPDEST POP GAS STATICCALL ISZERO DUP1 ISZERO PUSH2 0x1EA9 JUMPI RETURNDATASIZE PUSH1 0x0 DUP1 RETURNDATACOPY RETURNDATASIZE PUSH1 0x0 REVERT JUMPDEST POP POP POP POP PUSH1 0x40 MLOAD RETURNDATASIZE PUSH1 0x1F NOT PUSH1 0x1F DUP3 ADD AND DUP3 ADD DUP1 PUSH1 0x40 MSTORE POP DUP2 ADD SWAP1 PUSH2 0x1ECD SWAP2 SWAP1 PUSH2 0x349E JUMP JUMPDEST PUSH1 0x11 SLOAD SWAP1 SWAP2 POP PUSH1 0x0 SWAP1 PUSH1 0xFF AND ISZERO PUSH2 0x1EE5 JUMPI POP SELFBALANCE PUSH2 0x1F1C JUMP JUMPDEST PUSH1 0xC SLOAD PUSH1 0x40 MLOAD PUSH4 0x70A08231 PUSH1 0xE0 SHL DUP2 MSTORE ADDRESS PUSH1 0x4 DUP3 ADD MSTORE PUSH2 0x1F19 SWAP2 PUSH1 0x1 PUSH1 0x1 PUSH1 0xA0 SHL SUB AND SWAP1 DUP2 SWAP1 PUSH4 0x70A08231 SWAP1 PUSH1 0x24 ADD PUSH2 0x1936 JUMP JUMPDEST SWAP1 POP JUMPDEST PUSH1 0x0 PUSH2 0x1F28 DUP4 DUP4 PUSH2 0x36A9 JUMP JUMPDEST SWAP1 POP PUSH1 0x7 SLOAD DUP2 GT PUSH2 0x1F4B JUMPI PUSH1 0x40 MLOAD PUSH3 0x461BCD PUSH1 0xE5 SHL DUP2 MSTORE PUSH1 0x4 ADD PUSH2 0xB06 SWAP1 PUSH2 0x3559 JUMP JUMPDEST PUSH1 0x0 PUSH1 0x7 SLOAD DUP3 PUSH2 0x1F5B SWAP2 SWAP1 PUSH2 0x37ED JUMP JUMPDEST PUSH1 0x4 SLOAD SWAP1 SWAP2 POP PUSH1 0x0 DUP2 PUSH2 0x1F6E DUP5 DUP12 PUSH2 0x37CE JUMP JUMPDEST PUSH2 0x1F78 SWAP2 SWAP1 PUSH2 0x36C1 JUMP JUMPDEST SWAP1 POP PUSH2 0x1F84 DUP10 CALLER PUSH2 0x303B JUMP JUMPDEST DUP7 SLOAD PUSH2 0x1F8F CALLER PUSH2 0x10A2 JUMP JUMPDEST LT ISZERO PUSH2 0x1FD8 JUMPI PUSH1 0x40 MLOAD PUSH3 0x461BCD PUSH1 0xE5 SHL DUP2 MSTORE PUSH1 0x20 PUSH1 0x4 DUP3 ADD MSTORE PUSH1 0x18 PUSH1 0x24 DUP3 ADD MSTORE PUSH24 0x2637B39D24B739BAB930B731B2A837B7B61D333937BD32B7 PUSH1 0x41 SHL PUSH1 0x44 DUP3 ADD MSTORE PUSH1 0x64 ADD PUSH2 0xB06 JUMP JUMPDEST PUSH1 0x11 SLOAD PUSH1 0xFF AND ISZERO PUSH2 0x2023 JUMPI DUP1 DUP6 LT PUSH2 0x1FF9 JUMPI PUSH2 0x1FF4 CALLER DUP3 PUSH2 0x2EDE JUMP JUMPDEST PUSH2 0x208D JUMP JUMPDEST PUSH2 0x2003 CALLER DUP7 PUSH2 0x2EDE JUMP JUMPDEST PUSH1 0xB SLOAD PUSH2 0x1FF4 SWAP1 PUSH1 0x1 PUSH1 0x1 PUSH1 0xA0 SHL SUB AND CALLER PUSH2 0x201E DUP9 DUP6 PUSH2 0x37ED JUMP JUMPDEST PUSH2 0x2DC8 JUMP JUMPDEST DUP1 DUP6 LT PUSH2 0x204E JUMPI PUSH1 0xC SLOAD PUSH1 0xB SLOAD PUSH2 0x1FF4 SWAP2 PUSH1 0x1 PUSH1 0x1 PUSH1 0xA0 SHL SUB SWAP1 DUP2 AND SWAP2 CALLER SWAP2 PUSH2 0x201E SWAP2 AND DUP6 DUP5 PUSH2 0x26FC JUMP JUMPDEST PUSH1 0xC SLOAD PUSH1 0xB SLOAD PUSH2 0x2072 SWAP2 PUSH1 0x1 PUSH1 0x1 PUSH1 0xA0 SHL SUB SWAP1 DUP2 AND SWAP2 CALLER SWAP2 PUSH2 0x201E SWAP2 AND DUP10 DUP5 PUSH2 0x26FC JUMP JUMPDEST PUSH1 0xB SLOAD PUSH2 0x208D SWAP1 PUSH1 0x1 PUSH1 0x1 PUSH1 0xA0 SHL SUB AND CALLER PUSH2 0x201E DUP9 DUP6 PUSH2 0x37ED JUMP JUMPDEST POP POP PUSH1 0x0 DUP1 SSTORE POP POP POP POP POP POP POP JUMP JUMPDEST PUSH1 0x0 PUSH2 0xA5D CALLER DUP5 DUP5 PUSH2 0x2A32 JUMP JUMPDEST PUSH2 0x20B5 DUP3 CALLER ADDRESS DUP5 PUSH2 0x2C98 JUMP JUMPDEST POP POP JUMP JUMPDEST PUSH1 0x0 DUP1 PUSH1 0x0 PUSH1 0x8 SLOAD SWAP1 POP DUP1 TIMESTAMP GT ISZERO PUSH2 0x20FF JUMPI PUSH1 0xF SLOAD PUSH1 0x0 SWAP1 PUSH2 0x20DB DUP4 TIMESTAMP PUSH2 0x37ED JUMP JUMPDEST PUSH2 0x20E5 SWAP2 SWAP1 PUSH2 0x36C1 JUMP JUMPDEST SWAP1 POP PUSH2 0x20F2 DUP2 PUSH1 0x1 PUSH2 0x36A9 JUMP JUMPDEST PUSH1 0xF SLOAD PUSH2 0x118A SWAP2 SWAP1 PUSH2 0x37CE JUMP JUMPDEST DUP1 SWAP3 POP PUSH1 0xE SLOAD PUSH2 0x11B9 SWAP1 DUP5 PUSH2 0x36A9 JUMP JUMPDEST PUSH1 0xB SLOAD PUSH1 0x7 SLOAD PUSH1 0x40 MLOAD PUSH4 0x70A08231 PUSH1 0xE0 SHL DUP2 MSTORE ADDRESS PUSH1 0x4 DUP3 ADD MSTORE PUSH1 0x1 PUSH1 0x1 PUSH1 0xA0 SHL SUB SWAP1 SWAP3 AND SWAP2 PUSH1 0x0 SWAP1 DUP4 SWAP1 PUSH4 0x70A08231 SWAP1 PUSH1 0x24 ADD PUSH1 0x20 PUSH1 0x40 MLOAD DUP1 DUP4 SUB DUP2 DUP7 DUP1 EXTCODESIZE ISZERO DUP1 ISZERO PUSH2 0x215A JUMPI PUSH1 0x0 DUP1 REVERT JUMPDEST POP GAS STATICCALL ISZERO DUP1 ISZERO PUSH2 0x216E JUMPI RETURNDATASIZE PUSH1 0x0 DUP1 RETURNDATACOPY RETURNDATASIZE PUSH1 0x0 REVERT JUMPDEST POP POP POP POP PUSH1 0x40 MLOAD RETURNDATASIZE PUSH1 0x1F NOT PUSH1 0x1F DUP3 ADD AND DUP3 ADD DUP1 PUSH1 0x40 MSTORE POP DUP2 ADD SWAP1 PUSH2 0x2192 SWAP2 SWAP1 PUSH2 0x349E JUMP JUMPDEST SWAP1 POP PUSH1 0x0 DUP3 GT DUP1 ISZERO PUSH2 0x21A4 JUMPI POP PUSH1 0x0 DUP2 GT JUMPDEST ISZERO PUSH2 0xFF3 JUMPI DUP1 DUP3 LT PUSH2 0x2263 JUMPI PUSH1 0x40 MLOAD PUSH4 0x46F61ED5 PUSH1 0xE1 SHL DUP2 MSTORE PUSH1 0x4 DUP2 ADD DUP3 SWAP1 MSTORE ADDRESS PUSH1 0x24 DUP3 ADD MSTORE PUSH1 0x1 PUSH1 0x1 PUSH1 0xA0 SHL SUB DUP5 AND SWAP1 PUSH4 0x8DEC3DAA SWAP1 PUSH1 0x44 ADD PUSH1 0x0 PUSH1 0x40 MLOAD DUP1 DUP4 SUB DUP2 PUSH1 0x0 DUP8 DUP1 EXTCODESIZE ISZERO DUP1 ISZERO PUSH2 0x21F8 JUMPI PUSH1 0x0 DUP1 REVERT JUMPDEST POP GAS CALL ISZERO DUP1 ISZERO PUSH2 0x220C JUMPI RETURNDATASIZE PUSH1 0x0 DUP1 RETURNDATACOPY RETURNDATASIZE PUSH1 0x0 REVERT JUMPDEST POP POP POP POP DUP1 PUSH1 0x7 SLOAD PUSH2 0x221E SWAP2 SWAP1 PUSH2 0x37ED JUMP JUMPDEST PUSH1 0x7 DUP2 SWAP1 SSTORE PUSH1 0x40 DUP1 MLOAD DUP4 DUP2 MSTORE PUSH1 0x20 DUP2 ADD SWAP3 SWAP1 SWAP3 MSTORE PUSH32 0x852905F8D78F14C11A72099EDD327AE8E53225B522100935A3FD5F9B8D96CE3F SWAP2 ADD JUMPDEST PUSH1 0x40 MLOAD DUP1 SWAP2 SUB SWAP1 LOG1 POP POP POP JUMP JUMPDEST PUSH1 0x40 MLOAD PUSH4 0x46F61ED5 PUSH1 0xE1 SHL DUP2 MSTORE PUSH1 0x4 DUP2 ADD DUP4 SWAP1 MSTORE ADDRESS PUSH1 0x24 DUP3 ADD MSTORE PUSH1 0x1 PUSH1 0x1 PUSH1 0xA0 SHL SUB DUP5 AND SWAP1 PUSH4 0x8DEC3DAA SWAP1 PUSH1 0x44 ADD PUSH1 0x0 PUSH1 0x40 MLOAD DUP1 DUP4 SUB DUP2 PUSH1 0x0 DUP8 DUP1 EXTCODESIZE ISZERO DUP1 ISZERO PUSH2 0x22AB JUMPI PUSH1 0x0 DUP1 REVERT JUMPDEST POP GAS CALL ISZERO DUP1 ISZERO PUSH2 0x22BF JUMPI RETURNDATASIZE PUSH1 0x0 DUP1 RETURNDATACOPY RETURNDATASIZE PUSH1 0x0 REVERT JUMPDEST POP POP PUSH1 0x0 PUSH1 0x7 DUP2 SWAP1 SSTORE PUSH1 0x40 DUP1 MLOAD DUP7 DUP2 MSTORE PUSH1 0x20 DUP2 ADD SWAP3 SWAP1 SWAP3 MSTORE PUSH32 0x852905F8D78F14C11A72099EDD327AE8E53225B522100935A3FD5F9B8D96CE3F SWAP4 POP ADD SWAP1 POP PUSH2 0x2256 JUMP JUMPDEST PUSH1 0x8 SLOAD TIMESTAMP DUP2 LT ISZERO PUSH2 0x2350 JUMPI PUSH1 0xF SLOAD PUSH1 0x0 SWAP1 PUSH2 0x231D DUP4 TIMESTAMP PUSH2 0x37ED JUMP JUMPDEST PUSH2 0x2327 SWAP2 SWAP1 PUSH2 0x36C1 JUMP JUMPDEST SWAP1 POP PUSH2 0x2334 DUP2 PUSH1 0x1 PUSH2 0x36A9 JUMP JUMPDEST PUSH1 0xF SLOAD PUSH2 0x2341 SWAP2 SWAP1 PUSH2 0x37CE JUMP JUMPDEST PUSH2 0x234B SWAP1 DUP4 PUSH2 0x36A9 JUMP JUMPDEST PUSH1 0x8 SSTORE POP JUMPDEST POP JUMP JUMPDEST PUSH2 0x235C DUP2 PUSH2 0x312F JUMP JUMPDEST PUSH2 0x384 PUSH1 0xE SSTORE PUSH2 0x708 PUSH1 0xF SSTORE PUSH1 0x2 PUSH1 0x10 SSTORE PUSH1 0x11 DUP1 SLOAD PUSH1 0xFF NOT AND SWAP1 SSTORE PUSH1 0x0 PUSH1 0x4 DUP2 SWAP1 SSTORE PUSH1 0x40 DUP1 MLOAD PUSH1 0x20 DUP2 ADD SWAP2 DUP3 SWAP1 MSTORE DUP3 SWAP1 MSTORE PUSH2 0x239A SWAP2 PUSH1 0x5 SWAP2 SWAP1 PUSH2 0x31AE JUMP JUMPDEST POP PUSH1 0x40 DUP1 MLOAD PUSH1 0x20 DUP2 ADD SWAP2 DUP3 SWAP1 MSTORE PUSH1 0x0 SWAP1 DUP2 SWAP1 MSTORE PUSH2 0x20B5 SWAP2 PUSH1 0x6 SWAP2 PUSH2 0x31AE JUMP JUMPDEST PUSH1 0x1 PUSH1 0x1 PUSH1 0xA0 SHL SUB DUP2 AND PUSH1 0x0 DUP2 DUP2 MSTORE PUSH1 0xA PUSH1 0x20 SWAP1 DUP2 MSTORE PUSH1 0x40 DUP1 DUP4 KECCAK256 DUP2 MLOAD DUP1 DUP4 ADD DUP4 MSTORE DUP2 SLOAD DUP2 MSTORE PUSH1 0x1 SWAP1 SWAP2 ADD SLOAD DUP2 DUP5 ADD SWAP1 DUP2 MSTORE SWAP5 DUP5 MSTORE PUSH1 0x2 SWAP1 SWAP3 MSTORE DUP3 KECCAK256 SLOAD SWAP3 MLOAD SWAP2 SWAP3 SWAP1 SWAP2 TIMESTAMP GT ISZERO PUSH2 0x240A JUMPI SWAP4 SWAP3 POP POP POP JUMP JUMPDEST DUP2 MLOAD PUSH2 0x2416 SWAP1 DUP3 PUSH2 0x37ED JUMP JUMPDEST SWAP5 SWAP4 POP POP POP POP JUMP JUMPDEST PUSH1 0x1 SLOAD PUSH1 0x40 MLOAD PUSH4 0x91E1472B PUSH1 0xE0 SHL DUP2 MSTORE PUSH1 0x1 PUSH1 0x1 PUSH1 0xA0 SHL SUB SWAP1 SWAP2 AND SWAP1 PUSH4 0x91E1472B SWAP1 PUSH2 0x2451 SWAP1 CALLER SWAP1 PUSH1 0x0 SWAP1 PUSH1 0x4 ADD PUSH2 0x350D JUMP JUMPDEST PUSH1 0x20 PUSH1 0x40 MLOAD DUP1 DUP4 SUB DUP2 DUP7 DUP1 EXTCODESIZE ISZERO DUP1 ISZERO PUSH2 0x2469 JUMPI PUSH1 0x0 DUP1 REVERT JUMPDEST POP GAS STATICCALL ISZERO DUP1 ISZERO PUSH2 0x247D JUMPI RETURNDATASIZE PUSH1 0x0 DUP1 RETURNDATACOPY RETURNDATASIZE PUSH1 0x0 REVERT JUMPDEST POP POP POP POP PUSH1 0x40 MLOAD RETURNDATASIZE PUSH1 0x1F NOT PUSH1 0x1F DUP3 ADD AND DUP3 ADD DUP1 PUSH1 0x40 MSTORE POP DUP2 ADD SWAP1 PUSH2 0x24A1 SWAP2 SWAP1 PUSH2 0x3404 JUMP JUMPDEST PUSH2 0x24BD JUMPI PUSH1 0x40 MLOAD PUSH3 0x461BCD PUSH1 0xE5 SHL DUP2 MSTORE PUSH1 0x4 ADD PUSH2 0xB06 SWAP1 PUSH2 0x360C JUMP JUMPDEST PUSH1 0x11 DUP1 SLOAD PUSH1 0x1 PUSH1 0x1 PUSH1 0xA0 SHL SUB SWAP1 SWAP3 AND PUSH2 0x100 MUL PUSH2 0x100 PUSH1 0x1 PUSH1 0xA8 SHL SUB NOT SWAP1 SWAP3 AND SWAP2 SWAP1 SWAP2 OR SWAP1 SSTORE JUMP JUMPDEST PUSH1 0x1 SLOAD PUSH1 0x40 MLOAD PUSH4 0x91E1472B PUSH1 0xE0 SHL DUP2 MSTORE PUSH1 0x1 PUSH1 0x1 PUSH1 0xA0 SHL SUB SWAP1 SWAP2 AND SWAP1 PUSH4 0x91E1472B SWAP1 PUSH2 0x2518 SWAP1 CALLER SWAP1 PUSH1 0x0 SWAP1 PUSH1 0x4 ADD PUSH2 0x350D JUMP JUMPDEST PUSH1 0x20 PUSH1 0x40 MLOAD DUP1 DUP4 SUB DUP2 DUP7 DUP1 EXTCODESIZE ISZERO DUP1 ISZERO PUSH2 0x2530 JUMPI PUSH1 0x0 DUP1 REVERT JUMPDEST POP GAS STATICCALL ISZERO DUP1 ISZERO PUSH2 0x2544 JUMPI RETURNDATASIZE PUSH1 0x0 DUP1 RETURNDATACOPY RETURNDATASIZE PUSH1 0x0 REVERT JUMPDEST POP POP POP POP PUSH1 0x40 MLOAD RETURNDATASIZE PUSH1 0x1F NOT PUSH1 0x1F DUP3 ADD AND DUP3 ADD DUP1 PUSH1 0x40 MSTORE POP DUP2 ADD SWAP1 PUSH2 0x2568 SWAP2 SWAP1 PUSH2 0x3404 JUMP JUMPDEST PUSH2 0x2584 JUMPI PUSH1 0x40 MLOAD PUSH3 0x461BCD PUSH1 0xE5 SHL DUP2 MSTORE PUSH1 0x4 ADD PUSH2 0xB06 SWAP1 PUSH2 0x360C JUMP JUMPDEST DUP2 MLOAD PUSH2 0x2597 SWAP1 PUSH1 0x5 SWAP1 PUSH1 0x20 DUP6 ADD SWAP1 PUSH2 0x31AE JUMP JUMPDEST POP DUP1 MLOAD PUSH2 0xFF3 SWAP1 PUSH1 0x6 SWAP1 PUSH1 0x20 DUP5 ADD SWAP1 PUSH2 0x31AE JUMP JUMPDEST PUSH1 0x1 SLOAD PUSH1 0x40 MLOAD PUSH4 0x91E1472B PUSH1 0xE0 SHL DUP2 MSTORE PUSH1 0x1 PUSH1 0x1 PUSH1 0xA0 SHL SUB SWAP1 SWAP2 AND SWAP1 PUSH4 0x91E1472B SWAP1 PUSH2 0x25DE SWAP1 CALLER SWAP1 PUSH1 0x0 SWAP1 PUSH1 0x4 ADD PUSH2 0x350D JUMP JUMPDEST PUSH1 0x20 PUSH1 0x40 MLOAD DUP1 DUP4 SUB DUP2 DUP7 DUP1 EXTCODESIZE ISZERO DUP1 ISZERO PUSH2 0x25F6 JUMPI PUSH1 0x0 DUP1 REVERT JUMPDEST POP GAS STATICCALL ISZERO DUP1 ISZERO PUSH2 0x260A JUMPI RETURNDATASIZE PUSH1 0x0 DUP1 RETURNDATACOPY RETURNDATASIZE PUSH1 0x0 REVERT JUMPDEST POP POP POP POP PUSH1 0x40 MLOAD RETURNDATASIZE PUSH1 0x1F NOT PUSH1 0x1F DUP3 ADD AND DUP3 ADD DUP1 PUSH1 0x40 MSTORE POP DUP2 ADD SWAP1 PUSH2 0x262E SWAP2 SWAP1 PUSH2 0x3404 JUMP JUMPDEST PUSH2 0xC18 JUMPI PUSH1 0x40 MLOAD PUSH3 0x461BCD PUSH1 0xE5 SHL DUP2 MSTORE PUSH1 0x4 ADD PUSH2 0xB06 SWAP1 PUSH2 0x360C JUMP JUMPDEST PUSH1 0x1 SLOAD PUSH1 0x40 MLOAD PUSH4 0x91E1472B PUSH1 0xE0 SHL DUP2 MSTORE PUSH1 0x1 PUSH1 0x1 PUSH1 0xA0 SHL SUB SWAP1 SWAP2 AND SWAP1 PUSH4 0x91E1472B SWAP1 PUSH2 0x267D SWAP1 CALLER SWAP1 PUSH1 0x0 SWAP1 PUSH1 0x4 ADD PUSH2 0x350D JUMP JUMPDEST PUSH1 0x20 PUSH1 0x40 MLOAD DUP1 DUP4 SUB DUP2 DUP7 DUP1 EXTCODESIZE ISZERO DUP1 ISZERO PUSH2 0x2695 JUMPI PUSH1 0x0 DUP1 REVERT JUMPDEST POP GAS STATICCALL ISZERO DUP1 ISZERO PUSH2 0x26A9 JUMPI RETURNDATASIZE PUSH1 0x0 DUP1 RETURNDATACOPY RETURNDATASIZE PUSH1 0x0 REVERT JUMPDEST POP POP POP POP PUSH1 0x40 MLOAD RETURNDATASIZE PUSH1 0x1F NOT PUSH1 0x1F DUP3 ADD AND DUP3 ADD DUP1 PUSH1 0x40 MSTORE POP DUP2 ADD SWAP1 PUSH2 0x26CD SWAP2 SWAP1 PUSH2 0x3404 JUMP JUMPDEST PUSH2 0x26E9 JUMPI PUSH1 0x40 MLOAD PUSH3 0x461BCD PUSH1 0xE5 SHL DUP2 MSTORE PUSH1 0x4 ADD PUSH2 0xB06 SWAP1 PUSH2 0x360C JUMP JUMPDEST PUSH1 0x11 DUP1 SLOAD PUSH1 0xFF NOT AND SWAP2 ISZERO ISZERO SWAP2 SWAP1 SWAP2 OR SWAP1 SSTORE JUMP JUMPDEST PUSH1 0x0 PUSH1 0x12 DUP1 PUSH1 0x1 PUSH1 0x1 PUSH1 0xA0 SHL SUB DUP7 AND ISZERO PUSH2 0x2787 JUMPI DUP6 PUSH1 0x1 PUSH1 0x1 PUSH1 0xA0 SHL SUB AND PUSH4 0x313CE567 PUSH1 0x40 MLOAD DUP2 PUSH4 0xFFFFFFFF AND PUSH1 0xE0 SHL DUP2 MSTORE PUSH1 0x4 ADD PUSH1 0x20 PUSH1 0x40 MLOAD DUP1 DUP4 SUB DUP2 DUP7 DUP1 EXTCODESIZE ISZERO DUP1 ISZERO PUSH2 0x2749 JUMPI PUSH1 0x0 DUP1 REVERT JUMPDEST POP GAS STATICCALL ISZERO DUP1 ISZERO PUSH2 0x275D JUMPI RETURNDATASIZE PUSH1 0x0 DUP1 RETURNDATACOPY RETURNDATASIZE PUSH1 0x0 REVERT JUMPDEST POP POP POP POP PUSH1 0x40 MLOAD RETURNDATASIZE PUSH1 0x1F NOT PUSH1 0x1F DUP3 ADD AND DUP3 ADD DUP1 PUSH1 0x40 MSTORE POP DUP2 ADD SWAP1 PUSH2 0x2781 SWAP2 SWAP1 PUSH2 0x34D4 JUMP JUMPDEST PUSH1 0xFF AND SWAP2 POP JUMPDEST PUSH1 0x1 PUSH1 0x1 PUSH1 0xA0 SHL SUB DUP5 AND ISZERO PUSH2 0x280D JUMPI DUP4 PUSH1 0x1 PUSH1 0x1 PUSH1 0xA0 SHL SUB AND PUSH4 0x313CE567 PUSH1 0x40 MLOAD DUP2 PUSH4 0xFFFFFFFF AND PUSH1 0xE0 SHL DUP2 MSTORE PUSH1 0x4 ADD PUSH1 0x20 PUSH1 0x40 MLOAD DUP1 DUP4 SUB DUP2 DUP7 DUP1 EXTCODESIZE ISZERO DUP1 ISZERO PUSH2 0x27CF JUMPI PUSH1 0x0 DUP1 REVERT JUMPDEST POP GAS STATICCALL ISZERO DUP1 ISZERO PUSH2 0x27E3 JUMPI RETURNDATASIZE PUSH1 0x0 DUP1 RETURNDATACOPY RETURNDATASIZE PUSH1 0x0 REVERT JUMPDEST POP POP POP POP PUSH1 0x40 MLOAD RETURNDATASIZE PUSH1 0x1F NOT PUSH1 0x1F DUP3 ADD AND DUP3 ADD DUP1 PUSH1 0x40 MSTORE POP DUP2 ADD SWAP1 PUSH2 0x2807 SWAP2 SWAP1 PUSH2 0x34D4 JUMP JUMPDEST PUSH1 0xFF AND SWAP1 POP JUMPDEST PUSH2 0x2818 DUP3 PUSH1 0xA PUSH2 0x3726 JUMP JUMPDEST PUSH2 0x2823 DUP3 PUSH1 0xA PUSH2 0x3726 JUMP JUMPDEST PUSH2 0x282D SWAP1 DUP8 PUSH2 0x37CE JUMP JUMPDEST PUSH2 0x2837 SWAP2 SWAP1 PUSH2 0x36C1 JUMP JUMPDEST SWAP7 SWAP6 POP POP POP POP POP POP JUMP JUMPDEST PUSH1 0x1 SLOAD PUSH1 0x40 MLOAD PUSH4 0x91E1472B PUSH1 0xE0 SHL DUP2 MSTORE PUSH1 0x1 PUSH1 0x1 PUSH1 0xA0 SHL SUB SWAP1 SWAP2 AND SWAP1 PUSH4 0x91E1472B SWAP1 PUSH2 0x2874 SWAP1 CALLER SWAP1 PUSH1 0x0 SWAP1 PUSH1 0x4 ADD PUSH2 0x350D JUMP JUMPDEST PUSH1 0x20 PUSH1 0x40 MLOAD DUP1 DUP4 SUB DUP2 DUP7 DUP1 EXTCODESIZE ISZERO DUP1 ISZERO PUSH2 0x288C JUMPI PUSH1 0x0 DUP1 REVERT JUMPDEST POP GAS STATICCALL ISZERO DUP1 ISZERO PUSH2 0x28A0 JUMPI RETURNDATASIZE PUSH1 0x0 DUP1 RETURNDATACOPY RETURNDATASIZE PUSH1 0x0 REVERT JUMPDEST POP POP POP POP PUSH1 0x40 MLOAD RETURNDATASIZE PUSH1 0x1F NOT PUSH1 0x1F DUP3 ADD AND DUP3 ADD DUP1 PUSH1 0x40 MSTORE POP DUP2 ADD SWAP1 PUSH2 0x28C4 SWAP2 SWAP1 PUSH2 0x3404 JUMP JUMPDEST PUSH2 0x28E0 JUMPI PUSH1 0x40 MLOAD PUSH3 0x461BCD PUSH1 0xE5 SHL DUP2 MSTORE PUSH1 0x4 ADD PUSH2 0xB06 SWAP1 PUSH2 0x360C JUMP JUMPDEST PUSH1 0xC DUP1 SLOAD PUSH1 0x1 PUSH1 0x1 PUSH1 0xA0 SHL SUB SWAP4 DUP5 AND PUSH1 0x1 PUSH1 0x1 PUSH1 0xA0 SHL SUB NOT SWAP2 DUP3 AND OR SWAP1 SWAP2 SSTORE PUSH1 0xB DUP1 SLOAD SWAP3 SWAP1 SWAP4 AND SWAP2 AND OR SWAP1 SSTORE JUMP JUMPDEST PUSH1 0x1 PUSH1 0x1 PUSH1 0xA0 SHL SUB DUP4 AND PUSH2 0x2970 JUMPI PUSH1 0x40 MLOAD PUSH3 0x461BCD PUSH1 0xE5 SHL DUP2 MSTORE PUSH1 0x20 PUSH1 0x4 DUP3 ADD MSTORE PUSH1 0x24 DUP1 DUP3 ADD MSTORE PUSH32 0x45524332303A20617070726F76652066726F6D20746865207A65726F20616464 PUSH1 0x44 DUP3 ADD MSTORE PUSH4 0x72657373 PUSH1 0xE0 SHL PUSH1 0x64 DUP3 ADD MSTORE PUSH1 0x84 ADD PUSH2 0xB06 JUMP JUMPDEST PUSH1 0x1 PUSH1 0x1 PUSH1 0xA0 SHL SUB DUP3 AND PUSH2 0x29D1 JUMPI PUSH1 0x40 MLOAD PUSH3 0x461BCD PUSH1 0xE5 SHL DUP2 MSTORE PUSH1 0x20 PUSH1 0x4 DUP3 ADD MSTORE PUSH1 0x22 PUSH1 0x24 DUP3 ADD MSTORE PUSH32 0x45524332303A20617070726F766520746F20746865207A65726F206164647265 PUSH1 0x44 DUP3 ADD MSTORE PUSH2 0x7373 PUSH1 0xF0 SHL PUSH1 0x64 DUP3 ADD MSTORE PUSH1 0x84 ADD PUSH2 0xB06 JUMP JUMPDEST PUSH1 0x1 PUSH1 0x1 PUSH1 0xA0 SHL SUB DUP4 DUP2 AND PUSH1 0x0 DUP2 DUP2 MSTORE PUSH1 0x3 PUSH1 0x20 SWAP1 DUP2 MSTORE PUSH1 0x40 DUP1 DUP4 KECCAK256 SWAP5 DUP8 AND DUP1 DUP5 MSTORE SWAP5 DUP3 MSTORE SWAP2 DUP3 SWAP1 KECCAK256 DUP6 SWAP1 SSTORE SWAP1 MLOAD DUP5 DUP2 MSTORE PUSH32 0x8C5BE1E5EBEC7D5BD14F71427D1E84F3DD0314C0F7B2291E5B200AC8C7C3B925 SWAP2 ADD PUSH1 0x40 MLOAD DUP1 SWAP2 SUB SWAP1 LOG3 POP POP POP JUMP JUMPDEST PUSH2 0x2A3A PUSH2 0x2302 JUMP JUMPDEST CALLER PUSH1 0x0 SWAP1 DUP2 MSTORE PUSH1 0xA PUSH1 0x20 MSTORE PUSH1 0x40 SWAP1 KECCAK256 PUSH1 0x1 DUP2 ADD SLOAD TIMESTAMP GT ISZERO PUSH2 0x2A5A JUMPI PUSH1 0x0 DUP2 SSTORE JUMPDEST PUSH1 0x1 PUSH1 0x1 PUSH1 0xA0 SHL SUB DUP5 AND PUSH2 0x2ABE JUMPI PUSH1 0x40 MLOAD PUSH3 0x461BCD PUSH1 0xE5 SHL DUP2 MSTORE PUSH1 0x20 PUSH1 0x4 DUP3 ADD MSTORE PUSH1 0x25 PUSH1 0x24 DUP3 ADD MSTORE PUSH32 0x45524332303A207472616E736665722066726F6D20746865207A65726F206164 PUSH1 0x44 DUP3 ADD MSTORE PUSH5 0x6472657373 PUSH1 0xD8 SHL PUSH1 0x64 DUP3 ADD MSTORE PUSH1 0x84 ADD PUSH2 0xB06 JUMP JUMPDEST PUSH1 0x1 PUSH1 0x1 PUSH1 0xA0 SHL SUB DUP4 AND PUSH2 0x2B20 JUMPI PUSH1 0x40 MLOAD PUSH3 0x461BCD PUSH1 0xE5 SHL DUP2 MSTORE PUSH1 0x20 PUSH1 0x4 DUP3 ADD MSTORE PUSH1 0x23 PUSH1 0x24 DUP3 ADD MSTORE PUSH32 0x45524332303A207472616E7366657220746F20746865207A65726F2061646472 PUSH1 0x44 DUP3 ADD MSTORE PUSH3 0x657373 PUSH1 0xE8 SHL PUSH1 0x64 DUP3 ADD MSTORE PUSH1 0x84 ADD PUSH2 0xB06 JUMP JUMPDEST PUSH1 0x1 PUSH1 0x1 PUSH1 0xA0 SHL SUB DUP5 AND PUSH1 0x0 SWAP1 DUP2 MSTORE PUSH1 0x2 PUSH1 0x20 MSTORE PUSH1 0x40 SWAP1 KECCAK256 SLOAD DUP3 DUP2 LT ISZERO PUSH2 0x2B98 JUMPI PUSH1 0x40 MLOAD PUSH3 0x461BCD PUSH1 0xE5 SHL DUP2 MSTORE PUSH1 0x20 PUSH1 0x4 DUP3 ADD MSTORE PUSH1 0x26 PUSH1 0x24 DUP3 ADD MSTORE PUSH32 0x45524332303A207472616E7366657220616D6F756E7420657863656564732062 PUSH1 0x44 DUP3 ADD MSTORE PUSH6 0x616C616E6365 PUSH1 0xD0 SHL PUSH1 0x64 DUP3 ADD MSTORE PUSH1 0x84 ADD PUSH2 0xB06 JUMP JUMPDEST PUSH1 0x1 PUSH1 0x1 PUSH1 0xA0 SHL SUB DUP1 DUP7 AND PUSH1 0x0 SWAP1 DUP2 MSTORE PUSH1 0x2 PUSH1 0x20 MSTORE PUSH1 0x40 DUP1 DUP3 KECCAK256 DUP7 DUP6 SUB SWAP1 SSTORE SWAP2 DUP7 AND DUP2 MSTORE SWAP1 DUP2 KECCAK256 DUP1 SLOAD DUP6 SWAP3 SWAP1 PUSH2 0x2BCF SWAP1 DUP5 SWAP1 PUSH2 0x36A9 JUMP JUMPDEST SWAP3 POP POP DUP2 SWAP1 SSTORE POP DUP4 PUSH1 0x1 PUSH1 0x1 PUSH1 0xA0 SHL SUB AND DUP6 PUSH1 0x1 PUSH1 0x1 PUSH1 0xA0 SHL SUB AND PUSH32 0xDDF252AD1BE2C89B69C2B068FC378DAA952BA7F163C4A11628F55A4DF523B3EF DUP6 PUSH1 0x40 MLOAD PUSH2 0x2C1B SWAP2 DUP2 MSTORE PUSH1 0x20 ADD SWAP1 JUMP JUMPDEST PUSH1 0x40 MLOAD DUP1 SWAP2 SUB SWAP1 LOG3 PUSH1 0x11 SLOAD PUSH1 0x1 PUSH1 0x1 PUSH1 0xA0 SHL SUB DUP6 DUP2 AND PUSH2 0x100 SWAP1 SWAP3 DIV AND EQ PUSH2 0x2C91 JUMPI DUP2 SLOAD PUSH2 0x2C48 CALLER PUSH2 0x10A2 JUMP JUMPDEST LT ISZERO PUSH2 0x2C91 JUMPI PUSH1 0x40 MLOAD PUSH3 0x461BCD PUSH1 0xE5 SHL DUP2 MSTORE PUSH1 0x20 PUSH1 0x4 DUP3 ADD MSTORE PUSH1 0x18 PUSH1 0x24 DUP3 ADD MSTORE PUSH24 0x2637B39D24B739BAB930B731B2A837B7B61D333937BD32B7 PUSH1 0x41 SHL PUSH1 0x44 DUP3 ADD MSTORE PUSH1 0x64 ADD PUSH2 0xB06 JUMP JUMPDEST POP POP POP POP POP JUMP JUMPDEST PUSH1 0x40 DUP1 MLOAD PUSH1 0x1 PUSH1 0x1 PUSH1 0xA0 SHL SUB DUP6 DUP2 AND PUSH1 0x24 DUP4 ADD MSTORE DUP5 DUP2 AND PUSH1 0x44 DUP4 ADD MSTORE PUSH1 0x64 DUP1 DUP4 ADD DUP6 SWAP1 MSTORE DUP4 MLOAD DUP1 DUP5 SUB SWAP1 SWAP2 ADD DUP2 MSTORE PUSH1 0x84 SWAP1 SWAP3 ADD DUP4 MSTORE PUSH1 0x20 DUP3 ADD DUP1 MLOAD PUSH1 0x1 PUSH1 0x1 PUSH1 0xE0 SHL SUB AND PUSH4 0x23B872DD PUSH1 0xE0 SHL OR SWAP1 MSTORE SWAP2 MLOAD PUSH1 0x0 SWAP3 DUP4 SWAP3 SWAP1 DUP9 AND SWAP2 PUSH2 0x2CFC SWAP2 SWAP1 PUSH2 0x34F1 JUMP JUMPDEST PUSH1 0x0 PUSH1 0x40 MLOAD DUP1 DUP4 SUB DUP2 PUSH1 0x0 DUP7 GAS CALL SWAP2 POP POP RETURNDATASIZE DUP1 PUSH1 0x0 DUP2 EQ PUSH2 0x2D39 JUMPI PUSH1 0x40 MLOAD SWAP2 POP PUSH1 0x1F NOT PUSH1 0x3F RETURNDATASIZE ADD AND DUP3 ADD PUSH1 0x40 MSTORE RETURNDATASIZE DUP3 MSTORE RETURNDATASIZE PUSH1 0x0 PUSH1 0x20 DUP5 ADD RETURNDATACOPY PUSH2 0x2D3E JUMP JUMPDEST PUSH1 0x60 SWAP2 POP JUMPDEST POP SWAP2 POP SWAP2 POP DUP2 DUP1 ISZERO PUSH2 0x2D68 JUMPI POP DUP1 MLOAD ISZERO DUP1 PUSH2 0x2D68 JUMPI POP DUP1 DUP1 PUSH1 0x20 ADD SWAP1 MLOAD DUP2 ADD SWAP1 PUSH2 0x2D68 SWAP2 SWAP1 PUSH2 0x3404 JUMP JUMPDEST PUSH2 0x2DC0 JUMPI PUSH1 0x40 MLOAD PUSH3 0x461BCD PUSH1 0xE5 SHL DUP2 MSTORE PUSH1 0x20 PUSH1 0x4 DUP3 ADD MSTORE PUSH1 0x24 DUP1 DUP3 ADD MSTORE PUSH32 0x5472616E7366657248656C7065723A205452414E534645525F46524F4D5F4641 PUSH1 0x44 DUP3 ADD MSTORE PUSH4 0x12531151 PUSH1 0xE2 SHL PUSH1 0x64 DUP3 ADD MSTORE PUSH1 0x84 ADD PUSH2 0xB06 JUMP JUMPDEST POP POP POP POP POP POP JUMP JUMPDEST PUSH1 0x0 DUP1 DUP5 PUSH1 0x1 PUSH1 0x1 PUSH1 0xA0 SHL SUB AND PUSH4 0xA9059CBB DUP6 DUP6 PUSH1 0x40 MLOAD PUSH1 0x24 ADD PUSH2 0x2DED SWAP3 SWAP2 SWAP1 PUSH2 0x350D JUMP JUMPDEST PUSH1 0x40 MLOAD PUSH1 0x20 DUP2 DUP4 SUB SUB DUP2 MSTORE SWAP1 PUSH1 0x40 MSTORE SWAP1 PUSH1 0xE0 SHL PUSH1 0x20 DUP3 ADD DUP1 MLOAD PUSH1 0x1 PUSH1 0x1 PUSH1 0xE0 SHL SUB DUP4 DUP2 DUP4 AND OR DUP4 MSTORE POP POP POP POP PUSH1 0x40 MLOAD PUSH2 0x2E26 SWAP2 SWAP1 PUSH2 0x34F1 JUMP JUMPDEST PUSH1 0x0 PUSH1 0x40 MLOAD DUP1 DUP4 SUB DUP2 PUSH1 0x0 DUP7 GAS CALL SWAP2 POP POP RETURNDATASIZE DUP1 PUSH1 0x0 DUP2 EQ PUSH2 0x2E63 JUMPI PUSH1 0x40 MLOAD SWAP2 POP PUSH1 0x1F NOT PUSH1 0x3F RETURNDATASIZE ADD AND DUP3 ADD PUSH1 0x40 MSTORE RETURNDATASIZE DUP3 MSTORE RETURNDATASIZE PUSH1 0x0 PUSH1 0x20 DUP5 ADD RETURNDATACOPY PUSH2 0x2E68 JUMP JUMPDEST PUSH1 0x60 SWAP2 POP JUMPDEST POP SWAP2 POP SWAP2 POP DUP2 DUP1 ISZERO PUSH2 0x2E92 JUMPI POP DUP1 MLOAD ISZERO DUP1 PUSH2 0x2E92 JUMPI POP DUP1 DUP1 PUSH1 0x20 ADD SWAP1 MLOAD DUP2 ADD SWAP1 PUSH2 0x2E92 SWAP2 SWAP1 PUSH2 0x3404 JUMP JUMPDEST PUSH2 0x2C91 JUMPI PUSH1 0x40 MLOAD PUSH3 0x461BCD PUSH1 0xE5 SHL DUP2 MSTORE PUSH1 0x20 PUSH1 0x4 DUP3 ADD MSTORE PUSH1 0x1F PUSH1 0x24 DUP3 ADD MSTORE PUSH32 0x5472616E7366657248656C7065723A205452414E534645525F4641494C454400 PUSH1 0x44 DUP3 ADD MSTORE PUSH1 0x64 ADD PUSH2 0xB06 JUMP JUMPDEST PUSH1 0x40 DUP1 MLOAD PUSH1 0x0 DUP1 DUP3 MSTORE PUSH1 0x20 DUP3 ADD SWAP1 SWAP3 MSTORE PUSH1 0x1 PUSH1 0x1 PUSH1 0xA0 SHL SUB DUP5 AND SWAP1 DUP4 SWAP1 PUSH1 0x40 MLOAD PUSH2 0x2F08 SWAP2 SWAP1 PUSH2 0x34F1 JUMP JUMPDEST PUSH1 0x0 PUSH1 0x40 MLOAD DUP1 DUP4 SUB DUP2 DUP6 DUP8 GAS CALL SWAP3 POP POP POP RETURNDATASIZE DUP1 PUSH1 0x0 DUP2 EQ PUSH2 0x2F45 JUMPI PUSH1 0x40 MLOAD SWAP2 POP PUSH1 0x1F NOT PUSH1 0x3F RETURNDATASIZE ADD AND DUP3 ADD PUSH1 0x40 MSTORE RETURNDATASIZE DUP3 MSTORE RETURNDATASIZE PUSH1 0x0 PUSH1 0x20 DUP5 ADD RETURNDATACOPY PUSH2 0x2F4A JUMP JUMPDEST PUSH1 0x60 SWAP2 POP JUMPDEST POP POP SWAP1 POP DUP1 PUSH2 0xFF3 JUMPI PUSH1 0x40 MLOAD PUSH3 0x461BCD PUSH1 0xE5 SHL DUP2 MSTORE PUSH1 0x20 PUSH1 0x4 DUP3 ADD MSTORE PUSH1 0x23 PUSH1 0x24 DUP3 ADD MSTORE PUSH32 0x5472616E7366657248656C7065723A204554485F5452414E534645525F464149 PUSH1 0x44 DUP3 ADD MSTORE PUSH3 0x131151 PUSH1 0xEA SHL PUSH1 0x64 DUP3 ADD MSTORE PUSH1 0x84 ADD PUSH2 0xB06 JUMP JUMPDEST PUSH1 0x1 PUSH1 0x1 PUSH1 0xA0 SHL SUB DUP2 AND PUSH1 0x0 SWAP1 DUP2 MSTORE PUSH1 0x2 PUSH1 0x20 MSTORE PUSH1 0x40 SWAP1 KECCAK256 SLOAD PUSH2 0x2FCB SWAP1 DUP4 SWAP1 PUSH2 0x36A9 JUMP JUMPDEST PUSH1 0x1 PUSH1 0x1 PUSH1 0xA0 SHL SUB DUP3 AND PUSH1 0x0 SWAP1 DUP2 MSTORE PUSH1 0x2 PUSH1 0x20 MSTORE PUSH1 0x40 SWAP1 KECCAK256 SSTORE PUSH1 0x4 SLOAD PUSH2 0x2FF2 SWAP1 DUP4 SWAP1 PUSH2 0x36A9 JUMP JUMPDEST PUSH1 0x4 SSTORE PUSH1 0x40 MLOAD DUP3 DUP2 MSTORE PUSH1 0x1 PUSH1 0x1 PUSH1 0xA0 SHL SUB DUP3 AND SWAP1 PUSH1 0x0 SWAP1 PUSH32 0xDDF252AD1BE2C89B69C2B068FC378DAA952BA7F163C4A11628F55A4DF523B3EF SWAP1 PUSH1 0x20 ADD JUMPDEST PUSH1 0x40 MLOAD DUP1 SWAP2 SUB SWAP1 LOG3 POP POP JUMP JUMPDEST PUSH1 0x1 PUSH1 0x1 PUSH1 0xA0 SHL SUB DUP2 AND PUSH1 0x0 SWAP1 DUP2 MSTORE PUSH1 0x2 PUSH1 0x20 MSTORE PUSH1 0x40 SWAP1 KECCAK256 SLOAD DUP3 GT ISZERO PUSH2 0x30A3 JUMPI PUSH1 0x40 MLOAD PUSH3 0x461BCD PUSH1 0xE5 SHL DUP2 MSTORE PUSH1 0x20 PUSH1 0x4 DUP3 ADD MSTORE PUSH1 0x1A PUSH1 0x24 DUP3 ADD MSTORE PUSH32 0x4C6F673A496E737572616E6365506F6F6C3A2164657374726F79000000000000 PUSH1 0x44 DUP3 ADD MSTORE PUSH1 0x64 ADD PUSH2 0xB06 JUMP JUMPDEST PUSH1 0x1 PUSH1 0x1 PUSH1 0xA0 SHL SUB DUP2 AND PUSH1 0x0 SWAP1 DUP2 MSTORE PUSH1 0x2 PUSH1 0x20 MSTORE PUSH1 0x40 SWAP1 KECCAK256 SLOAD PUSH2 0x30C7 SWAP1 DUP4 SWAP1 PUSH2 0x37ED JUMP JUMPDEST PUSH1 0x1 PUSH1 0x1 PUSH1 0xA0 SHL SUB DUP3 AND PUSH1 0x0 SWAP1 DUP2 MSTORE PUSH1 0x2 PUSH1 0x20 MSTORE PUSH1 0x40 SWAP1 KECCAK256 SSTORE PUSH1 0x4 SLOAD PUSH2 0x30EE SWAP1 DUP4 SWAP1 PUSH2 0x37ED JUMP JUMPDEST PUSH1 0x4 SSTORE PUSH1 0x40 MLOAD DUP3 DUP2 MSTORE PUSH1 0x0 SWAP1 PUSH1 0x1 PUSH1 0x1 PUSH1 0xA0 SHL SUB DUP4 AND SWAP1 PUSH32 0xDDF252AD1BE2C89B69C2B068FC378DAA952BA7F163C4A11628F55A4DF523B3EF SWAP1 PUSH1 0x20 ADD PUSH2 0x302F JUMP JUMPDEST PUSH1 0x1 SLOAD PUSH1 0x1 PUSH1 0x1 PUSH1 0xA0 SHL SUB AND ISZERO PUSH2 0x3188 JUMPI PUSH1 0x40 MLOAD PUSH3 0x461BCD PUSH1 0xE5 SHL DUP2 MSTORE PUSH1 0x20 PUSH1 0x4 DUP3 ADD MSTORE PUSH1 0x1B PUSH1 0x24 DUP3 ADD MSTORE PUSH32 0x4C6F673A50617261737365744261736521696E697469616C697A650000000000 PUSH1 0x44 DUP3 ADD MSTORE PUSH1 0x64 ADD PUSH2 0xB06 JUMP JUMPDEST PUSH1 0x1 DUP1 SLOAD PUSH1 0x1 PUSH1 0x1 PUSH1 0xA0 SHL SUB NOT AND PUSH1 0x1 PUSH1 0x1 PUSH1 0xA0 SHL SUB SWAP3 SWAP1 SWAP3 AND SWAP2 SWAP1 SWAP2 OR SWAP1 SSTORE PUSH1 0x0 DUP1 SSTORE JUMP JUMPDEST DUP3 DUP1 SLOAD PUSH2 0x31BA SWAP1 PUSH2 0x3834 JUMP JUMPDEST SWAP1 PUSH1 0x0 MSTORE PUSH1 0x20 PUSH1 0x0 KECCAK256 SWAP1 PUSH1 0x1F ADD PUSH1 0x20 SWAP1 DIV DUP2 ADD SWAP3 DUP3 PUSH2 0x31DC JUMPI PUSH1 0x0 DUP6 SSTORE PUSH2 0x3222 JUMP JUMPDEST DUP3 PUSH1 0x1F LT PUSH2 0x31F5 JUMPI DUP1 MLOAD PUSH1 0xFF NOT AND DUP4 DUP1 ADD OR DUP6 SSTORE PUSH2 0x3222 JUMP JUMPDEST DUP3 DUP1 ADD PUSH1 0x1 ADD DUP6 SSTORE DUP3 ISZERO PUSH2 0x3222 JUMPI SWAP2 DUP3 ADD JUMPDEST DUP3 DUP2 GT ISZERO PUSH2 0x3222 JUMPI DUP3 MLOAD DUP3 SSTORE SWAP2 PUSH1 0x20 ADD SWAP2 SWAP1 PUSH1 0x1 ADD SWAP1 PUSH2 0x3207 JUMP JUMPDEST POP PUSH2 0x322E SWAP3 SWAP2 POP PUSH2 0x3232 JUMP JUMPDEST POP SWAP1 JUMP JUMPDEST JUMPDEST DUP1 DUP3 GT ISZERO PUSH2 0x322E JUMPI PUSH1 0x0 DUP2 SSTORE PUSH1 0x1 ADD PUSH2 0x3233 JUMP JUMPDEST DUP1 CALLDATALOAD PUSH1 0x1 PUSH1 0x1 PUSH1 0xA0 SHL SUB DUP2 AND DUP2 EQ PUSH2 0x325E JUMPI PUSH1 0x0 DUP1 REVERT JUMPDEST SWAP2 SWAP1 POP JUMP JUMPDEST PUSH1 0x0 DUP3 PUSH1 0x1F DUP4 ADD SLT PUSH2 0x3274 JUMPI PUSH1 0x0 DUP1 REVERT JUMPDEST DUP2 CALLDATALOAD PUSH8 0xFFFFFFFFFFFFFFFF DUP1 DUP3 GT ISZERO PUSH2 0x328F JUMPI PUSH2 0x328F PUSH2 0x3885 JUMP JUMPDEST PUSH1 0x40 MLOAD PUSH1 0x1F DUP4 ADD PUSH1 0x1F NOT SWAP1 DUP2 AND PUSH1 0x3F ADD AND DUP2 ADD SWAP1 DUP3 DUP3 GT DUP2 DUP4 LT OR ISZERO PUSH2 0x32B7 JUMPI PUSH2 0x32B7 PUSH2 0x3885 JUMP JUMPDEST DUP2 PUSH1 0x40 MSTORE DUP4 DUP2 MSTORE DUP7 PUSH1 0x20 DUP6 DUP9 ADD ADD GT ISZERO PUSH2 0x32D0 JUMPI PUSH1 0x0 DUP1 REVERT JUMPDEST DUP4 PUSH1 0x20 DUP8 ADD PUSH1 0x20 DUP4 ADD CALLDATACOPY PUSH1 0x0 PUSH1 0x20 DUP6 DUP4 ADD ADD MSTORE DUP1 SWAP5 POP POP POP POP POP SWAP3 SWAP2 POP POP JUMP JUMPDEST PUSH1 0x0 PUSH1 0x20 DUP3 DUP5 SUB SLT ISZERO PUSH2 0x3302 JUMPI PUSH1 0x0 DUP1 REVERT JUMPDEST PUSH2 0x330B DUP3 PUSH2 0x3247 JUMP JUMPDEST SWAP4 SWAP3 POP POP POP JUMP JUMPDEST PUSH1 0x0 DUP1 PUSH1 0x40 DUP4 DUP6 SUB SLT ISZERO PUSH2 0x3325 JUMPI PUSH1 0x0 DUP1 REVERT JUMPDEST PUSH2 0x332E DUP4 PUSH2 0x3247 JUMP JUMPDEST SWAP2 POP PUSH2 0x333C PUSH1 0x20 DUP5 ADD PUSH2 0x3247 JUMP JUMPDEST SWAP1 POP SWAP3 POP SWAP3 SWAP1 POP JUMP JUMPDEST PUSH1 0x0 DUP1 PUSH1 0x0 PUSH1 0x60 DUP5 DUP7 SUB SLT ISZERO PUSH2 0x335A JUMPI PUSH1 0x0 DUP1 REVERT JUMPDEST PUSH2 0x3363 DUP5 PUSH2 0x3247 JUMP JUMPDEST SWAP3 POP PUSH2 0x3371 PUSH1 0x20 DUP6 ADD PUSH2 0x3247 JUMP JUMPDEST SWAP2 POP PUSH1 0x40 DUP5 ADD CALLDATALOAD SWAP1 POP SWAP3 POP SWAP3 POP SWAP3 JUMP JUMPDEST PUSH1 0x0 DUP1 PUSH1 0x40 DUP4 DUP6 SUB SLT ISZERO PUSH2 0x3394 JUMPI PUSH1 0x0 DUP1 REVERT JUMPDEST PUSH2 0x339D DUP4 PUSH2 0x3247 JUMP JUMPDEST SWAP5 PUSH1 0x20 SWAP4 SWAP1 SWAP4 ADD CALLDATALOAD SWAP4 POP POP POP JUMP JUMPDEST PUSH1 0x0 DUP1 PUSH1 0x0 PUSH1 0x60 DUP5 DUP7 SUB SLT ISZERO PUSH2 0x33C0 JUMPI PUSH1 0x0 DUP1 REVERT JUMPDEST PUSH2 0x33C9 DUP5 PUSH2 0x3247 JUMP JUMPDEST SWAP3 POP PUSH1 0x20 DUP5 ADD CALLDATALOAD SWAP2 POP PUSH2 0x33DE PUSH1 0x40 DUP6 ADD PUSH2 0x3247 JUMP JUMPDEST SWAP1 POP SWAP3 POP SWAP3 POP SWAP3 JUMP JUMPDEST PUSH1 0x0 PUSH1 0x20 DUP3 DUP5 SUB SLT ISZERO PUSH2 0x33F9 JUMPI PUSH1 0x0 DUP1 REVERT JUMPDEST DUP2 CALLDATALOAD PUSH2 0x330B DUP2 PUSH2 0x389B JUMP JUMPDEST PUSH1 0x0 PUSH1 0x20 DUP3 DUP5 SUB SLT ISZERO PUSH2 0x3416 JUMPI PUSH1 0x0 DUP1 REVERT JUMPDEST DUP2 MLOAD PUSH2 0x330B DUP2 PUSH2 0x389B JUMP JUMPDEST PUSH1 0x0 DUP1 PUSH1 0x40 DUP4 DUP6 SUB SLT ISZERO PUSH2 0x3434 JUMPI PUSH1 0x0 DUP1 REVERT JUMPDEST DUP3 CALLDATALOAD PUSH8 0xFFFFFFFFFFFFFFFF DUP1 DUP3 GT ISZERO PUSH2 0x344C JUMPI PUSH1 0x0 DUP1 REVERT JUMPDEST PUSH2 0x3458 DUP7 DUP4 DUP8 ADD PUSH2 0x3263 JUMP JUMPDEST SWAP4 POP PUSH1 0x20 DUP6 ADD CALLDATALOAD SWAP2 POP DUP1 DUP3 GT ISZERO PUSH2 0x346E JUMPI PUSH1 0x0 DUP1 REVERT JUMPDEST POP PUSH2 0x347B DUP6 DUP3 DUP7 ADD PUSH2 0x3263 JUMP JUMPDEST SWAP2 POP POP SWAP3 POP SWAP3 SWAP1 POP JUMP JUMPDEST PUSH1 0x0 PUSH1 0x20 DUP3 DUP5 SUB SLT ISZERO PUSH2 0x3497 JUMPI PUSH1 0x0 DUP1 REVERT JUMPDEST POP CALLDATALOAD SWAP2 SWAP1 POP JUMP JUMPDEST PUSH1 0x0 PUSH1 0x20 DUP3 DUP5 SUB SLT ISZERO PUSH2 0x34B0 JUMPI PUSH1 0x0 DUP1 REVERT JUMPDEST POP MLOAD SWAP2 SWAP1 POP JUMP JUMPDEST PUSH1 0x0 PUSH1 0x20 DUP3 DUP5 SUB SLT ISZERO PUSH2 0x34C9 JUMPI PUSH1 0x0 DUP1 REVERT JUMPDEST DUP2 CALLDATALOAD PUSH2 0x330B DUP2 PUSH2 0x38A9 JUMP JUMPDEST PUSH1 0x0 PUSH1 0x20 DUP3 DUP5 SUB SLT ISZERO PUSH2 0x34E6 JUMPI PUSH1 0x0 DUP1 REVERT JUMPDEST DUP2 MLOAD PUSH2 0x330B DUP2 PUSH2 0x38A9 JUMP JUMPDEST PUSH1 0x0 DUP3 MLOAD PUSH2 0x3503 DUP2 DUP5 PUSH1 0x20 DUP8 ADD PUSH2 0x3804 JUMP JUMPDEST SWAP2 SWAP1 SWAP2 ADD SWAP3 SWAP2 POP POP JUMP JUMPDEST PUSH1 0x1 PUSH1 0x1 PUSH1 0xA0 SHL SUB SWAP3 SWAP1 SWAP3 AND DUP3 MSTORE PUSH1 0x20 DUP3 ADD MSTORE PUSH1 0x40 ADD SWAP1 JUMP JUMPDEST PUSH1 0x20 DUP2 MSTORE PUSH1 0x0 DUP3 MLOAD DUP1 PUSH1 0x20 DUP5 ADD MSTORE PUSH2 0x3545 DUP2 PUSH1 0x40 DUP6 ADD PUSH1 0x20 DUP8 ADD PUSH2 0x3804 JUMP JUMPDEST PUSH1 0x1F ADD PUSH1 0x1F NOT AND SWAP2 SWAP1 SWAP2 ADD PUSH1 0x40 ADD SWAP3 SWAP2 POP POP JUMP JUMPDEST PUSH1 0x20 DUP1 DUP3 MSTORE PUSH1 0x25 SWAP1 DUP3 ADD MSTORE PUSH32 0x4C6F673A496E737572616E6365506F6F6C3A616C6C42616C616E63654E6F7445 PUSH1 0x40 DUP3 ADD MSTORE PUSH5 0xDCDEEACED PUSH1 0xDB SHL PUSH1 0x60 DUP3 ADD MSTORE PUSH1 0x80 ADD SWAP1 JUMP JUMPDEST PUSH1 0x20 DUP1 DUP3 MSTORE PUSH1 0x19 SWAP1 DUP3 ADD MSTORE PUSH32 0x4C6F673A5061726173736574426173653A215F6C6F636B656400000000000000 PUSH1 0x40 DUP3 ADD MSTORE PUSH1 0x60 ADD SWAP1 JUMP JUMPDEST PUSH1 0x20 DUP1 DUP3 MSTORE PUSH1 0x1E SWAP1 DUP3 ADD MSTORE PUSH32 0x4C6F673A496E737572616E6365506F6F6C3A6D73672E76616C7565213D300000 PUSH1 0x40 DUP3 ADD MSTORE PUSH1 0x60 ADD SWAP1 JUMP JUMPDEST PUSH1 0x20 DUP1 DUP3 MSTORE PUSH1 0x15 SWAP1 DUP3 ADD MSTORE PUSH21 0x2637B39D2830B930B9B9B2BA2130B9B29D10B3B7BB PUSH1 0x59 SHL PUSH1 0x40 DUP3 ADD MSTORE PUSH1 0x60 ADD SWAP1 JUMP JUMPDEST PUSH1 0x20 DUP1 DUP3 MSTORE PUSH1 0x19 SWAP1 DUP3 ADD MSTORE PUSH32 0x4C6F673A496E737572616E6365506F6F6C3A2161637469766500000000000000 PUSH1 0x40 DUP3 ADD MSTORE PUSH1 0x60 ADD SWAP1 JUMP JUMPDEST PUSH1 0x20 DUP1 DUP3 MSTORE PUSH1 0x19 SWAP1 DUP3 ADD MSTORE PUSH32 0x4C6F673A496E737572616E6365506F6F6C3A21616D6F756E7400000000000000 PUSH1 0x40 DUP3 ADD MSTORE PUSH1 0x60 ADD SWAP1 JUMP JUMPDEST PUSH1 0x0 DUP3 NOT DUP3 GT ISZERO PUSH2 0x36BC JUMPI PUSH2 0x36BC PUSH2 0x386F JUMP JUMPDEST POP ADD SWAP1 JUMP JUMPDEST PUSH1 0x0 DUP3 PUSH2 0x36DE JUMPI PUSH4 0x4E487B71 PUSH1 0xE0 SHL PUSH1 0x0 MSTORE PUSH1 0x12 PUSH1 0x4 MSTORE PUSH1 0x24 PUSH1 0x0 REVERT JUMPDEST POP DIV SWAP1 JUMP JUMPDEST PUSH1 0x1 DUP2 DUP2 JUMPDEST DUP1 DUP6 GT ISZERO PUSH2 0x371E JUMPI DUP2 PUSH1 0x0 NOT DIV DUP3 GT ISZERO PUSH2 0x3704 JUMPI PUSH2 0x3704 PUSH2 0x386F JUMP JUMPDEST DUP1 DUP6 AND ISZERO PUSH2 0x3711 JUMPI SWAP2 DUP2 MUL SWAP2 JUMPDEST SWAP4 DUP5 SHR SWAP4 SWAP1 DUP1 MUL SWAP1 PUSH2 0x36E8 JUMP JUMPDEST POP SWAP3 POP SWAP3 SWAP1 POP JUMP JUMPDEST PUSH1 0x0 PUSH2 0x330B DUP4 DUP4 PUSH1 0x0 DUP3 PUSH2 0x373C JUMPI POP PUSH1 0x1 PUSH2 0xA61 JUMP JUMPDEST DUP2 PUSH2 0x3749 JUMPI POP PUSH1 0x0 PUSH2 0xA61 JUMP JUMPDEST DUP2 PUSH1 0x1 DUP2 EQ PUSH2 0x375F JUMPI PUSH1 0x2 DUP2 EQ PUSH2 0x3769 JUMPI PUSH2 0x3785 JUMP JUMPDEST PUSH1 0x1 SWAP2 POP POP PUSH2 0xA61 JUMP JUMPDEST PUSH1 0xFF DUP5 GT ISZERO PUSH2 0x377A JUMPI PUSH2 0x377A PUSH2 0x386F JUMP JUMPDEST POP POP PUSH1 0x1 DUP3 SHL PUSH2 0xA61 JUMP JUMPDEST POP PUSH1 0x20 DUP4 LT PUSH2 0x133 DUP4 LT AND PUSH1 0x4E DUP5 LT PUSH1 0xB DUP5 LT AND OR ISZERO PUSH2 0x37A8 JUMPI POP DUP2 DUP2 EXP PUSH2 0xA61 JUMP JUMPDEST PUSH2 0x37B2 DUP4 DUP4 PUSH2 0x36E3 JUMP JUMPDEST DUP1 PUSH1 0x0 NOT DIV DUP3 GT ISZERO PUSH2 0x37C6 JUMPI PUSH2 0x37C6 PUSH2 0x386F JUMP JUMPDEST MUL SWAP4 SWAP3 POP POP POP JUMP JUMPDEST PUSH1 0x0 DUP2 PUSH1 0x0 NOT DIV DUP4 GT DUP3 ISZERO ISZERO AND ISZERO PUSH2 0x37E8 JUMPI PUSH2 0x37E8 PUSH2 0x386F JUMP JUMPDEST POP MUL SWAP1 JUMP JUMPDEST PUSH1 0x0 DUP3 DUP3 LT ISZERO PUSH2 0x37FF JUMPI PUSH2 0x37FF PUSH2 0x386F JUMP JUMPDEST POP SUB SWAP1 JUMP JUMPDEST PUSH1 0x0 JUMPDEST DUP4 DUP2 LT ISZERO PUSH2 0x381F JUMPI DUP2 DUP2 ADD MLOAD DUP4 DUP3 ADD MSTORE PUSH1 0x20 ADD PUSH2 0x3807 JUMP JUMPDEST DUP4 DUP2 GT ISZERO PUSH2 0x382E JUMPI PUSH1 0x0 DUP5 DUP5 ADD MSTORE JUMPDEST POP POP POP POP JUMP JUMPDEST PUSH1 0x1 DUP2 DUP2 SHR SWAP1 DUP3 AND DUP1 PUSH2 0x3848 JUMPI PUSH1 0x7F DUP3 AND SWAP2 POP JUMPDEST PUSH1 0x20 DUP3 LT DUP2 EQ ISZERO PUSH2 0x3869 JUMPI PUSH4 0x4E487B71 PUSH1 0xE0 SHL PUSH1 0x0 MSTORE PUSH1 0x22 PUSH1 0x4 MSTORE PUSH1 0x24 PUSH1 0x0 REVERT JUMPDEST POP SWAP2 SWAP1 POP JUMP JUMPDEST PUSH4 0x4E487B71 PUSH1 0xE0 SHL PUSH1 0x0 MSTORE PUSH1 0x11 PUSH1 0x4 MSTORE PUSH1 0x24 PUSH1 0x0 REVERT JUMPDEST PUSH4 0x4E487B71 PUSH1 0xE0 SHL PUSH1 0x0 MSTORE PUSH1 0x41 PUSH1 0x4 MSTORE PUSH1 0x24 PUSH1 0x0 REVERT JUMPDEST DUP1 ISZERO ISZERO DUP2 EQ PUSH2 0x2350 JUMPI PUSH1 0x0 DUP1 REVERT JUMPDEST PUSH1 0xFF DUP2 AND DUP2 EQ PUSH2 0x2350 JUMPI PUSH1 0x0 DUP1 REVERT INVALID LOG2 PUSH5 0x6970667358 0x22 SLT KECCAK256 0xD5 0x26 0x4E DUP6 DUP5 0xEE CALLDATACOPY PUSH17 0xA8DE8D09FB5F870254AC200B864CEB6C1E MSIZE MLOAD LOG3 SWAP10 EXTCODECOPY PUSH7 0x8F64736F6C6343 STOP ADDMOD MOD STOP CALLER "
		},
		"gasEstimates": {
			"creation": {
				"codeDepositCost": "2914800",
				"executionCost": "3193",
				"totalCost": "2917993"
			},
			"external": {
				"_ethIns()": "2378",
				"_feeRate()": "2428",
				"_flag()": "2424",
				"_governance()": "2450",
				"_insNegative()": "2407",
				"_latestTime()": "2451",
				"_mortgagePool()": "2471",
				"_pTokenAddress()": "2449",
				"_redemptionCycle()": "2428",
				"_underlyingTokenAddress()": "2449",
				"_waitCycle()": "2385",
				"addETH()": "185",
				"addToken(address,uint256)": "infinite",
				"allowance(address,address)": "infinite",
				"approve(address,uint256)": "24666",
				"balanceOf(address)": "2670",
				"decimals()": "324",
				"decreaseAllowance(address,uint256)": "26956",
				"destroyPToken(uint256)": "infinite",
				"eliminate()": "infinite",
				"exchangePTokenToUnderlying(uint256)": "infinite",
				"exchangeUnderlyingToPToken(uint256)": "infinite",
				"getAllLP(address)": "infinite",
				"getDecimalConversion(address,uint256,address)": "infinite",
				"getFrozenIns(address)": "4859",
				"getFrozenInsInTime(address)": "4849",
				"getLPStakingMiningPool()": "2422",
				"getRedemptionAmount(address)": "7084",
				"getRedemptionTime()": "infinite",
				"getRedemptionTimeFront()": "infinite",
				"increaseAllowance(address,uint256)": "27025",
				"initialize(address)": "infinite",
				"name()": "infinite",
				"redemptionIns(uint256)": "infinite",
				"setETHIns(bool)": "infinite",
				"setFeeRate(uint256)": "infinite",
				"setFlag(uint8)": "infinite",
				"setInfo(address,address)": "infinite",
				"setLPStakingMiningPool(address)": "infinite",
				"setLatestTime()": "infinite",
				"setLatestTime(uint256)": "infinite",
				"setMortgagePool(address)": "infinite",
				"setRedemptionCycle(uint256)": "infinite",
				"setTokenInfo(string,string)": "infinite",
				"setWaitCycle(uint256)": "infinite",
				"subscribeIns(uint256)": "infinite",
				"symbol()": "infinite",
				"test_insNegative(uint256)": "infinite",
				"totalSupply()": "2438",
				"transfer(address,uint256)": "infinite",
				"transferFrom(address,address,uint256)": "infinite",
				"update(address)": "infinite",
				"updateLatestTime()": "infinite"
			},
			"internal": {
				"_destroy(uint256,address)": "infinite",
				"_issuance(uint256,address)": "infinite",
				"_transfer(address,address,uint256)": "infinite"
			}
		},
		"methodIdentifiers": {
			"_ethIns()": "7e4d4734",
			"_feeRate()": "b2131f7d",
			"_flag()": "cf9a197d",
			"_governance()": "1c2f3e3d",
			"_insNegative()": "a65e08ff",
			"_latestTime()": "9972585c",
			"_mortgagePool()": "41ad9882",
			"_pTokenAddress()": "51804a6e",
			"_redemptionCycle()": "d8fa1034",
			"_underlyingTokenAddress()": "8a13c54c",
			"_waitCycle()": "47f6670f",
			"addETH()": "dad6dab3",
			"addToken(address,uint256)": "af81c5b9",
			"allowance(address,address)": "dd62ed3e",
			"approve(address,uint256)": "095ea7b3",
			"balanceOf(address)": "70a08231",
			"decimals()": "313ce567",
			"decreaseAllowance(address,uint256)": "a457c2d7",
			"destroyPToken(uint256)": "22d8a580",
			"eliminate()": "b7694a93",
			"exchangePTokenToUnderlying(uint256)": "3d5e3f50",
			"exchangeUnderlyingToPToken(uint256)": "35dbfde2",
			"getAllLP(address)": "2503f73f",
			"getDecimalConversion(address,uint256,address)": "f9081591",
			"getFrozenIns(address)": "64fb4fc7",
			"getFrozenInsInTime(address)": "64af8792",
			"getLPStakingMiningPool()": "0b0289f6",
			"getRedemptionAmount(address)": "c87814a6",
			"getRedemptionTime()": "b1bb11d7",
			"getRedemptionTimeFront()": "34e23ad7",
			"increaseAllowance(address,uint256)": "39509351",
			"initialize(address)": "c4d66de8",
			"name()": "06fdde03",
			"redemptionIns(uint256)": "a5831a62",
			"setETHIns(bool)": "f544d25b",
			"setFeeRate(uint256)": "45596e2e",
			"setFlag(uint8)": "7120a88b",
			"setInfo(address,address)": "fb606f92",
			"setLPStakingMiningPool(address)": "cd32045e",
			"setLatestTime()": "14ec1c6b",
			"setLatestTime(uint256)": "de67ae41",
			"setMortgagePool(address)": "7ea69a84",
			"setRedemptionCycle(uint256)": "1a8d3f8b",
			"setTokenInfo(string,string)": "da262f58",
			"setWaitCycle(uint256)": "10525923",
			"subscribeIns(uint256)": "646475ef",
			"symbol()": "95d89b41",
			"test_insNegative(uint256)": "42df063c",
			"totalSupply()": "18160ddd",
			"transfer(address,uint256)": "a9059cbb",
			"transferFrom(address,address,uint256)": "23b872dd",
			"update(address)": "1c1b8772",
			"updateLatestTime()": "bbacf92b"
		}
	},
	"abi": [
		{
			"anonymous": false,
			"inputs": [
				{
					"indexed": true,
					"internalType": "address",
					"name": "owner",
					"type": "address"
				},
				{
					"indexed": true,
					"internalType": "address",
					"name": "spender",
					"type": "address"
				},
				{
					"indexed": false,
					"internalType": "uint256",
					"name": "value",
					"type": "uint256"
				}
			],
			"name": "Approval",
			"type": "event"
		},
		{
			"anonymous": false,
			"inputs": [
				{
					"indexed": false,
					"internalType": "uint256",
					"name": "amount",
					"type": "uint256"
				},
				{
					"indexed": false,
					"internalType": "uint256",
					"name": "allValue",
					"type": "uint256"
				}
			],
			"name": "Negative",
			"type": "event"
		},
		{
			"anonymous": false,
			"inputs": [
				{
					"indexed": true,
					"internalType": "address",
					"name": "from",
					"type": "address"
				},
				{
					"indexed": true,
					"internalType": "address",
					"name": "to",
					"type": "address"
				},
				{
					"indexed": false,
					"internalType": "uint256",
					"name": "value",
					"type": "uint256"
				}
			],
			"name": "Transfer",
			"type": "event"
		},
		{
			"inputs": [],
			"name": "_ethIns",
			"outputs": [
				{
					"internalType": "bool",
					"name": "",
					"type": "bool"
				}
			],
			"stateMutability": "view",
			"type": "function"
		},
		{
			"inputs": [],
			"name": "_feeRate",
			"outputs": [
				{
					"internalType": "uint256",
					"name": "",
					"type": "uint256"
				}
			],
			"stateMutability": "view",
			"type": "function"
		},
		{
			"inputs": [],
			"name": "_flag",
			"outputs": [
				{
					"internalType": "uint8",
					"name": "",
					"type": "uint8"
				}
			],
			"stateMutability": "view",
			"type": "function"
		},
		{
			"inputs": [],
			"name": "_governance",
			"outputs": [
				{
					"internalType": "address",
					"name": "",
					"type": "address"
				}
			],
			"stateMutability": "view",
			"type": "function"
		},
		{
			"inputs": [],
			"name": "_insNegative",
			"outputs": [
				{
					"internalType": "uint256",
					"name": "",
					"type": "uint256"
				}
			],
			"stateMutability": "view",
			"type": "function"
		},
		{
			"inputs": [],
			"name": "_latestTime",
			"outputs": [
				{
					"internalType": "uint256",
					"name": "",
					"type": "uint256"
				}
			],
			"stateMutability": "view",
			"type": "function"
		},
		{
			"inputs": [],
			"name": "_mortgagePool",
			"outputs": [
				{
					"internalType": "address",
					"name": "",
					"type": "address"
				}
			],
			"stateMutability": "view",
			"type": "function"
		},
		{
			"inputs": [],
			"name": "_pTokenAddress",
			"outputs": [
				{
					"internalType": "address",
					"name": "",
					"type": "address"
				}
			],
			"stateMutability": "view",
			"type": "function"
		},
		{
			"inputs": [],
			"name": "_redemptionCycle",
			"outputs": [
				{
					"internalType": "uint256",
					"name": "",
					"type": "uint256"
				}
			],
			"stateMutability": "view",
			"type": "function"
		},
		{
			"inputs": [],
			"name": "_underlyingTokenAddress",
			"outputs": [
				{
					"internalType": "address",
					"name": "",
					"type": "address"
				}
			],
			"stateMutability": "view",
			"type": "function"
		},
		{
			"inputs": [],
			"name": "_waitCycle",
			"outputs": [
				{
					"internalType": "uint256",
					"name": "",
					"type": "uint256"
				}
			],
			"stateMutability": "view",
			"type": "function"
		},
		{
			"inputs": [],
			"name": "addETH",
			"outputs": [],
			"stateMutability": "payable",
			"type": "function"
		},
		{
			"inputs": [
				{
					"internalType": "address",
					"name": "tokenAddress",
					"type": "address"
				},
				{
					"internalType": "uint256",
					"name": "amount",
					"type": "uint256"
				}
			],
			"name": "addToken",
			"outputs": [],
			"stateMutability": "nonpayable",
			"type": "function"
		},
		{
			"inputs": [
				{
					"internalType": "address",
					"name": "owner",
					"type": "address"
				},
				{
					"internalType": "address",
					"name": "spender",
					"type": "address"
				}
			],
			"name": "allowance",
			"outputs": [
				{
					"internalType": "uint256",
					"name": "",
					"type": "uint256"
				}
			],
			"stateMutability": "view",
			"type": "function"
		},
		{
			"inputs": [
				{
					"internalType": "address",
					"name": "spender",
					"type": "address"
				},
				{
					"internalType": "uint256",
					"name": "amount",
					"type": "uint256"
				}
			],
			"name": "approve",
			"outputs": [
				{
					"internalType": "bool",
					"name": "",
					"type": "bool"
				}
			],
			"stateMutability": "nonpayable",
			"type": "function"
		},
		{
			"inputs": [
				{
					"internalType": "address",
					"name": "account",
					"type": "address"
				}
			],
			"name": "balanceOf",
			"outputs": [
				{
					"internalType": "uint256",
					"name": "",
					"type": "uint256"
				}
			],
			"stateMutability": "view",
			"type": "function"
		},
		{
			"inputs": [],
			"name": "decimals",
			"outputs": [
				{
					"internalType": "uint8",
					"name": "",
					"type": "uint8"
				}
			],
			"stateMutability": "view",
			"type": "function"
		},
		{
			"inputs": [
				{
					"internalType": "address",
					"name": "spender",
					"type": "address"
				},
				{
					"internalType": "uint256",
					"name": "subtractedValue",
					"type": "uint256"
				}
			],
			"name": "decreaseAllowance",
			"outputs": [
				{
					"internalType": "bool",
					"name": "",
					"type": "bool"
				}
			],
			"stateMutability": "nonpayable",
			"type": "function"
		},
		{
			"inputs": [
				{
					"internalType": "uint256",
					"name": "amount",
					"type": "uint256"
				}
			],
			"name": "destroyPToken",
			"outputs": [],
			"stateMutability": "nonpayable",
			"type": "function"
		},
		{
			"inputs": [],
			"name": "eliminate",
			"outputs": [],
			"stateMutability": "nonpayable",
			"type": "function"
		},
		{
			"inputs": [
				{
					"internalType": "uint256",
					"name": "amount",
					"type": "uint256"
				}
			],
			"name": "exchangePTokenToUnderlying",
			"outputs": [],
			"stateMutability": "nonpayable",
			"type": "function"
		},
		{
			"inputs": [
				{
					"internalType": "uint256",
					"name": "amount",
					"type": "uint256"
				}
			],
			"name": "exchangeUnderlyingToPToken",
			"outputs": [],
			"stateMutability": "payable",
			"type": "function"
		},
		{
			"inputs": [
				{
					"internalType": "address",
					"name": "user",
					"type": "address"
				}
			],
			"name": "getAllLP",
			"outputs": [
				{
					"internalType": "uint256",
					"name": "",
					"type": "uint256"
				}
			],
			"stateMutability": "view",
			"type": "function"
		},
		{
			"inputs": [
				{
					"internalType": "address",
					"name": "inputToken",
					"type": "address"
				},
				{
					"internalType": "uint256",
					"name": "inputTokenAmount",
					"type": "uint256"
				},
				{
					"internalType": "address",
					"name": "outputToken",
					"type": "address"
				}
			],
			"name": "getDecimalConversion",
			"outputs": [
				{
					"internalType": "uint256",
					"name": "",
					"type": "uint256"
				}
			],
			"stateMutability": "view",
			"type": "function"
		},
		{
			"inputs": [
				{
					"internalType": "address",
					"name": "add",
					"type": "address"
				}
			],
			"name": "getFrozenIns",
			"outputs": [
				{
					"internalType": "uint256",
					"name": "",
					"type": "uint256"
				},
				{
					"internalType": "uint256",
					"name": "",
					"type": "uint256"
				}
			],
			"stateMutability": "view",
			"type": "function"
		},
		{
			"inputs": [
				{
					"internalType": "address",
					"name": "add",
					"type": "address"
				}
			],
			"name": "getFrozenInsInTime",
			"outputs": [
				{
					"internalType": "uint256",
					"name": "",
					"type": "uint256"
				}
			],
			"stateMutability": "view",
			"type": "function"
		},
		{
			"inputs": [],
			"name": "getLPStakingMiningPool",
			"outputs": [
				{
					"internalType": "address",
					"name": "",
					"type": "address"
				}
			],
			"stateMutability": "view",
			"type": "function"
		},
		{
			"inputs": [
				{
					"internalType": "address",
					"name": "add",
					"type": "address"
				}
			],
			"name": "getRedemptionAmount",
			"outputs": [
				{
					"internalType": "uint256",
					"name": "",
					"type": "uint256"
				}
			],
			"stateMutability": "view",
			"type": "function"
		},
		{
			"inputs": [],
			"name": "getRedemptionTime",
			"outputs": [
				{
					"internalType": "uint256",
					"name": "startTime",
					"type": "uint256"
				},
				{
					"internalType": "uint256",
					"name": "endTime",
					"type": "uint256"
				}
			],
			"stateMutability": "view",
			"type": "function"
		},
		{
			"inputs": [],
			"name": "getRedemptionTimeFront",
			"outputs": [
				{
					"internalType": "uint256",
					"name": "startTime",
					"type": "uint256"
				},
				{
					"internalType": "uint256",
					"name": "endTime",
					"type": "uint256"
				}
			],
			"stateMutability": "view",
			"type": "function"
		},
		{
			"inputs": [
				{
					"internalType": "address",
					"name": "spender",
					"type": "address"
				},
				{
					"internalType": "uint256",
					"name": "addedValue",
					"type": "uint256"
				}
			],
			"name": "increaseAllowance",
			"outputs": [
				{
					"internalType": "bool",
					"name": "",
					"type": "bool"
				}
			],
			"stateMutability": "nonpayable",
			"type": "function"
		},
		{
			"inputs": [
				{
					"internalType": "address",
					"name": "governance",
					"type": "address"
				}
			],
			"name": "initialize",
			"outputs": [],
			"stateMutability": "nonpayable",
			"type": "function"
		},
		{
			"inputs": [],
			"name": "name",
			"outputs": [
				{
					"internalType": "string",
					"name": "",
					"type": "string"
				}
			],
			"stateMutability": "view",
			"type": "function"
		},
		{
			"inputs": [
				{
					"internalType": "uint256",
					"name": "amount",
					"type": "uint256"
				}
			],
			"name": "redemptionIns",
			"outputs": [],
			"stateMutability": "nonpayable",
			"type": "function"
		},
		{
			"inputs": [
				{
					"internalType": "bool",
					"name": "isETHIns",
					"type": "bool"
				}
			],
			"name": "setETHIns",
			"outputs": [],
			"stateMutability": "nonpayable",
			"type": "function"
		},
		{
			"inputs": [
				{
					"internalType": "uint256",
					"name": "num",
					"type": "uint256"
				}
			],
			"name": "setFeeRate",
			"outputs": [],
			"stateMutability": "nonpayable",
			"type": "function"
		},
		{
			"inputs": [
				{
					"internalType": "uint8",
					"name": "num",
					"type": "uint8"
				}
			],
			"name": "setFlag",
			"outputs": [],
			"stateMutability": "nonpayable",
			"type": "function"
		},
		{
			"inputs": [
				{
					"internalType": "address",
					"name": "uToken",
					"type": "address"
				},
				{
					"internalType": "address",
					"name": "pToken",
					"type": "address"
				}
			],
			"name": "setInfo",
			"outputs": [],
			"stateMutability": "nonpayable",
			"type": "function"
		},
		{
			"inputs": [
				{
					"internalType": "address",
					"name": "add",
					"type": "address"
				}
			],
			"name": "setLPStakingMiningPool",
			"outputs": [],
			"stateMutability": "nonpayable",
			"type": "function"
		},
		{
			"inputs": [],
			"name": "setLatestTime",
			"outputs": [],
			"stateMutability": "nonpayable",
			"type": "function"
		},
		{
			"inputs": [
				{
					"internalType": "uint256",
					"name": "num",
					"type": "uint256"
				}
			],
			"name": "setLatestTime",
			"outputs": [],
			"stateMutability": "nonpayable",
			"type": "function"
		},
		{
			"inputs": [
				{
					"internalType": "address",
					"name": "add",
					"type": "address"
				}
			],
			"name": "setMortgagePool",
			"outputs": [],
			"stateMutability": "nonpayable",
			"type": "function"
		},
		{
			"inputs": [
				{
					"internalType": "uint256",
					"name": "num",
					"type": "uint256"
				}
			],
			"name": "setRedemptionCycle",
			"outputs": [],
			"stateMutability": "nonpayable",
			"type": "function"
		},
		{
			"inputs": [
				{
					"internalType": "string",
					"name": "name",
					"type": "string"
				},
				{
					"internalType": "string",
					"name": "symbol",
					"type": "string"
				}
			],
			"name": "setTokenInfo",
			"outputs": [],
			"stateMutability": "nonpayable",
			"type": "function"
		},
		{
			"inputs": [
				{
					"internalType": "uint256",
					"name": "num",
					"type": "uint256"
				}
			],
			"name": "setWaitCycle",
			"outputs": [],
			"stateMutability": "nonpayable",
			"type": "function"
		},
		{
			"inputs": [
				{
					"internalType": "uint256",
					"name": "amount",
					"type": "uint256"
				}
			],
			"name": "subscribeIns",
			"outputs": [],
			"stateMutability": "payable",
			"type": "function"
		},
		{
			"inputs": [],
			"name": "symbol",
			"outputs": [
				{
					"internalType": "string",
					"name": "",
					"type": "string"
				}
			],
			"stateMutability": "view",
			"type": "function"
		},
		{
			"inputs": [
				{
					"internalType": "uint256",
					"name": "amount",
					"type": "uint256"
				}
			],
			"name": "test_insNegative",
			"outputs": [],
			"stateMutability": "nonpayable",
			"type": "function"
		},
		{
			"inputs": [],
			"name": "totalSupply",
			"outputs": [
				{
					"internalType": "uint256",
					"name": "",
					"type": "uint256"
				}
			],
			"stateMutability": "view",
			"type": "function"
		},
		{
			"inputs": [
				{
					"internalType": "address",
					"name": "recipient",
					"type": "address"
				},
				{
					"internalType": "uint256",
					"name": "amount",
					"type": "uint256"
				}
			],
			"name": "transfer",
			"outputs": [
				{
					"internalType": "bool",
					"name": "",
					"type": "bool"
				}
			],
			"stateMutability": "nonpayable",
			"type": "function"
		},
		{
			"inputs": [
				{
					"internalType": "address",
					"name": "sender",
					"type": "address"
				},
				{
					"internalType": "address",
					"name": "recipient",
					"type": "address"
				},
				{
					"internalType": "uint256",
					"name": "amount",
					"type": "uint256"
				}
			],
			"name": "transferFrom",
			"outputs": [
				{
					"internalType": "bool",
					"name": "",
					"type": "bool"
				}
			],
			"stateMutability": "nonpayable",
			"type": "function"
		},
		{
			"inputs": [
				{
					"internalType": "address",
					"name": "newGovernance",
					"type": "address"
				}
			],
			"name": "update",
			"outputs": [],
			"stateMutability": "nonpayable",
			"type": "function"
		},
		{
			"inputs": [],
			"name": "updateLatestTime",
			"outputs": [],
			"stateMutability": "nonpayable",
			"type": "function"
		}
	]
}