{
	"data": {
		"bytecode": {
			"linkReferences": {},
			"object": "608060405234801561001057600080fd5b506114e6806100206000396000f3fe608060405234801561001057600080fd5b50600436106100ff5760003560e01c80639d955d7911610097578063d4fac45d11610066578063d4fac45d146102f0578063de320cc114610336578063e03452df14610349578063f90815911461035c57600080fd5b80639d955d791461022f578063c00007b0146102b7578063c4d66de8146102ca578063d3314f3c146102dd57600080fd5b8063213794e8116100d3578063213794e81461017d5780636332fef6146101905780637acb77571461020957806383beae2e1461021c57600080fd5b8062f714ce1461010457806304c07569146101195780631c1b87721461013f5780631c2f3e3d14610152575b600080fd5b6101176101123660046111e7565b61036f565b005b61012c6101273660046111b7565b61048c565b6040519081526020015b60405180910390f35b61011761014d366004611109565b6104a4565b600154610165906001600160a01b031681565b6040516001600160a01b039091168152602001610136565b61011761018b366004611209565b610576565b6101f461019e36600461112a565b6001600160a01b039182166000908152600360209081526040808320939094168252600290920182528290208251808401909352546001600160801b03808216808552600160801b909204169290910182905291565b60408051928352602083019190915201610136565b6101176102173660046111e7565b6106bf565b600254610165906001600160a01b031681565b61028f61023d366004611109565b6001600160a01b03166000908152600360205260409020805460019091015463ffffffff808316936401000000008404909116926001600160601b03600160401b8204811693600160a01b9092041691565b604080519586526020860194909452928401919091526060830152608082015260a001610136565b6101176102c5366004611109565b6107cb565b6101176102d8366004611109565b610819565b61012c6102eb36600461112a565b610898565b61012c6102fe36600461112a565b6001600160a01b039182166000908152600360209081526040808320939094168252600290920190915220546001600160801b031690565b610117610344366004611109565b6108c6565b610117610357366004611255565b610986565b61012c61036a36600461115c565b610a95565b600054156103985760405162461bcd60e51b815260040161038f906112db565b60405180910390fd5b6001600055816103ea5760405162461bcd60e51b815260206004820152601a60248201527f4c6f673a4c505374616b696e674d696e696e67506f6f6c3a2130000000000000604482015260640161038f565b6001600160a01b038116600090815260036020526040902061040c8133610bda565b82816001015461041c9190611483565b60018201553360009081526002820160205260409020546104479084906001600160801b0316611483565b336000818152600284016020526040902080546001600160801b0319166001600160801b03939093169290921790915561048390839085610c8b565b50506000805550565b6000438281111561049e575090919050565b92915050565b6001546001600160a01b03163381148061053757506040516391e1472b60e01b8152336004820152600060248201526001600160a01b038216906391e1472b9060440160206040518083038186803b1580156104ff57600080fd5b505afa158015610513573d6000803e3d6000fd5b505050506040513d601f19601f820116820180604052508101906105379190611197565b6105535760405162461bcd60e51b815260040161038f90611312565b50600180546001600160a01b0319166001600160a01b0392909216919091179055565b6001546040516391e1472b60e01b8152336004820152600060248201526001600160a01b03909116906391e1472b9060440160206040518083038186803b1580156105c057600080fd5b505afa1580156105d4573d6000803e3d6000fd5b505050506040513d601f19601f820116820180604052508101906105f89190611197565b6106145760405162461bcd60e51b815260040161038f90611312565b60025461062c906001600160a01b0316843087610d9f565b6001600160a01b038116600090815260036020526040902080546001600160601b038416600160401b810273ffffffffffffffffffffffff00000000ffffffff1990921663ffffffff439081169190911792909217835561068d9087611359565b6106979190611341565b815463ffffffff919091166401000000000267ffffffff000000001990911617905550505050565b600054156106df5760405162461bcd60e51b815260040161038f906112db565b6001600055816107315760405162461bcd60e51b815260206004820152601a60248201527f4c6f673a4c505374616b696e674d696e696e67506f6f6c3a2130000000000000604482015260640161038f565b6001600160a01b03811660009081526003602052604090206107538133610bda565b8281600101546107639190611341565b600182015533600090815260028201602052604090205461078e9084906001600160801b0316611341565b336000818152600284016020526040902080546001600160801b0319166001600160801b0393909316929092179091556104839083903086610d9f565b600054156107eb5760405162461bcd60e51b815260040161038f906112db565b600160009081556001600160a01b03821681526003602052604090206108118133610bda565b505060008055565b6001546001600160a01b0316156108725760405162461bcd60e51b815260206004820152601b60248201527f4c6f673a50617261737365744261736521696e697469616c697a650000000000604482015260640161038f565b600180546001600160a01b0319166001600160a01b039290921691909117905560008055565b6001600160a01b0382166000908152600360205260408120816108bb8285610ecf565b979650505050505050565b6001546040516391e1472b60e01b8152336004820152600060248201526001600160a01b03909116906391e1472b9060440160206040518083038186803b15801561091057600080fd5b505afa158015610924573d6000803e3d6000fd5b505050506040513d601f19601f820116820180604052508101906109489190611197565b6109645760405162461bcd60e51b815260040161038f90611312565b600280546001600160a01b0319166001600160a01b0392909216919091179055565b6001546040516391e1472b60e01b8152336004820152600060248201526001600160a01b03909116906391e1472b9060440160206040518083038186803b1580156109d057600080fd5b505afa1580156109e4573d6000803e3d6000fd5b505050506040513d601f19601f82011682018060405250810190610a089190611197565b610a245760405162461bcd60e51b815260040161038f90611312565b6001600160a01b0316600090815260036020526040902080546001600160601b03909216600160401b0273ffffffffffffffffffffffff00000000000000001963ffffffff9485166401000000000267ffffffffffffffff1990941694909516939093179190911792909216179055565b60006012806001600160a01b03861615610b2057856001600160a01b031663313ce5676040518163ffffffff1660e01b815260040160206040518083038186803b158015610ae257600080fd5b505afa158015610af6573d6000803e3d6000fd5b505050506040513d601f19601f82011682018060405250810190610b1a9190611281565b60ff1691505b6001600160a01b03841615610ba657836001600160a01b031663313ce5676040518163ffffffff1660e01b815260040160206040518083038186803b158015610b6857600080fd5b505afa158015610b7c573d6000803e3d6000fd5b505050506040513d601f19601f82011682018060405250810190610ba09190611281565b60ff1690505b610bb182600a6113bc565b610bbc82600a6113bc565b610bc69087611464565b610bd09190611359565b9695505050505050565b6000806000610be98585610ecf565b875473ffffffffffffffffffffffffffffffff0000000016600160a01b6001600160601b0384160263ffffffff19161763ffffffff8416178855919450925090506001600160a01b03841615610c84578015610c4b57610c498482611015565b505b6001600160a01b0384166000908152600286016020526040902080546001600160801b03166001600160601b038416600160801b021790555b5050505050565b604080516001600160a01b038481166024830152604480830185905283518084039091018152606490920183526020820180516001600160e01b031663a9059cbb60e01b1790529151600092839290871691610ce791906112a2565b6000604051808303816000865af19150503d8060008114610d24576040519150601f19603f3d011682016040523d82523d6000602084013e610d29565b606091505b5091509150818015610d53575080511580610d53575080806020019051810190610d539190611197565b610c845760405162461bcd60e51b815260206004820152601f60248201527f5472616e7366657248656c7065723a205452414e534645525f4641494c454400604482015260640161038f565b604080516001600160a01b0385811660248301528481166044830152606480830185905283518084039091018152608490920183526020820180516001600160e01b03166323b872dd60e01b1790529151600092839290881691610e0391906112a2565b6000604051808303816000865af19150503d8060008114610e40576040519150601f19603f3d011682016040523d82523d6000602084013e610e45565b606091505b5091509150818015610e6f575080511580610e6f575080806020019051810190610e6f9190611197565b610ec75760405162461bcd60e51b8152602060048201526024808201527f5472616e7366657248656c7065723a205452414e534645525f46524f4d5f46416044820152631253115160e21b606482015260840161038f565b505050505050565b8154600090819081908190610ef190640100000000900463ffffffff1661048c565b60018701548754919250906001600160601b03600160a01b8204169063ffffffff1660008115610f46578954600160401b90046001600160601b0316610f378387611483565b610f419190611464565b610f49565b60005b905084975083600014610f825783610f6982670de0b6b3a7640000611464565b610f739190611359565b610f7d9084611341565b610f84565b825b6001600160a01b038a16600090815260028c016020526040902054909750670de0b6b3a764000090610fcf90600160801b90046001600160801b03166001600160601b038a16611483565b6001600160a01b038b16600090815260028d016020526040902054610ffd91906001600160801b0316611464565b6110079190611359565b955050505050509250925092565b6002546040516370a0823160e01b815230600482015260009182916001600160a01b03909116906370a082319060240160206040518083038186803b15801561105d57600080fd5b505afa158015611071573d6000803e3d6000fd5b505050506040513d601f19601f8201168201806040525081019061109591906111cf565b9050808311156110a3578092505b6002546110ba906001600160a01b03168585610c8b565b509092915050565b80356001600160a01b03811681146110d957600080fd5b919050565b803563ffffffff811681146110d957600080fd5b80356001600160601b03811681146110d957600080fd5b60006020828403121561111a578081fd5b611123826110c2565b9392505050565b6000806040838503121561113c578081fd5b611145836110c2565b9150611153602084016110c2565b90509250929050565b600080600060608486031215611170578081fd5b611179846110c2565b92506020840135915061118e604085016110c2565b90509250925092565b6000602082840312156111a8578081fd5b81518015158114611123578182fd5b6000602082840312156111c8578081fd5b5035919050565b6000602082840312156111e0578081fd5b5051919050565b600080604083850312156111f9578182fd5b82359150611153602084016110c2565b6000806000806080858703121561121e578081fd5b8435935061122e602086016110c2565b925061123c604086016110f2565b915061124a606086016110c2565b905092959194509250565b6000806000806080858703121561126a578384fd5b611273856110de565b935061122e602086016110de565b600060208284031215611292578081fd5b815160ff81168114611123578182fd5b60008251815b818110156112c257602081860181015185830152016112a8565b818111156112d05782828501525b509190910192915050565b60208082526019908201527f4c6f673a5061726173736574426173653a215f6c6f636b656400000000000000604082015260600190565b6020808252601590820152742637b39d2830b930b9b9b2ba2130b9b29d10b3b7bb60591b604082015260600190565b600082198211156113545761135461149a565b500190565b60008261137457634e487b7160e01b81526012600452602481fd5b500490565b600181815b808511156113b457816000190482111561139a5761139a61149a565b808516156113a757918102915b93841c939080029061137e565b509250929050565b600061112383836000826113d25750600161049e565b816113df5750600061049e565b81600181146113f557600281146113ff5761141b565b600191505061049e565b60ff8411156114105761141061149a565b50506001821b61049e565b5060208310610133831016604e8410600b841016171561143e575081810a61049e565b6114488383611379565b806000190482111561145c5761145c61149a565b029392505050565b600081600019048311821515161561147e5761147e61149a565b500290565b6000828210156114955761149561149a565b500390565b634e487b7160e01b600052601160045260246000fdfea2646970667358221220029d90869724ec235366f344c1c8ae15e8b949b1b9930b7ab2b3b076c6a69bd864736f6c63430008040033",
			"opcodes": "PUSH1 0x80 PUSH1 0x40 MSTORE CALLVALUE DUP1 ISZERO PUSH2 0x10 JUMPI PUSH1 0x0 DUP1 REVERT JUMPDEST POP PUSH2 0x14E6 DUP1 PUSH2 0x20 PUSH1 0x0 CODECOPY PUSH1 0x0 RETURN INVALID PUSH1 0x80 PUSH1 0x40 MSTORE CALLVALUE DUP1 ISZERO PUSH2 0x10 JUMPI PUSH1 0x0 DUP1 REVERT JUMPDEST POP PUSH1 0x4 CALLDATASIZE LT PUSH2 0xFF JUMPI PUSH1 0x0 CALLDATALOAD PUSH1 0xE0 SHR DUP1 PUSH4 0x9D955D79 GT PUSH2 0x97 JUMPI DUP1 PUSH4 0xD4FAC45D GT PUSH2 0x66 JUMPI DUP1 PUSH4 0xD4FAC45D EQ PUSH2 0x2F0 JUMPI DUP1 PUSH4 0xDE320CC1 EQ PUSH2 0x336 JUMPI DUP1 PUSH4 0xE03452DF EQ PUSH2 0x349 JUMPI DUP1 PUSH4 0xF9081591 EQ PUSH2 0x35C JUMPI PUSH1 0x0 DUP1 REVERT JUMPDEST DUP1 PUSH4 0x9D955D79 EQ PUSH2 0x22F JUMPI DUP1 PUSH4 0xC00007B0 EQ PUSH2 0x2B7 JUMPI DUP1 PUSH4 0xC4D66DE8 EQ PUSH2 0x2CA JUMPI DUP1 PUSH4 0xD3314F3C EQ PUSH2 0x2DD JUMPI PUSH1 0x0 DUP1 REVERT JUMPDEST DUP1 PUSH4 0x213794E8 GT PUSH2 0xD3 JUMPI DUP1 PUSH4 0x213794E8 EQ PUSH2 0x17D JUMPI DUP1 PUSH4 0x6332FEF6 EQ PUSH2 0x190 JUMPI DUP1 PUSH4 0x7ACB7757 EQ PUSH2 0x209 JUMPI DUP1 PUSH4 0x83BEAE2E EQ PUSH2 0x21C JUMPI PUSH1 0x0 DUP1 REVERT JUMPDEST DUP1 PUSH3 0xF714CE EQ PUSH2 0x104 JUMPI DUP1 PUSH4 0x4C07569 EQ PUSH2 0x119 JUMPI DUP1 PUSH4 0x1C1B8772 EQ PUSH2 0x13F JUMPI DUP1 PUSH4 0x1C2F3E3D EQ PUSH2 0x152 JUMPI JUMPDEST PUSH1 0x0 DUP1 REVERT JUMPDEST PUSH2 0x117 PUSH2 0x112 CALLDATASIZE PUSH1 0x4 PUSH2 0x11E7 JUMP JUMPDEST PUSH2 0x36F JUMP JUMPDEST STOP JUMPDEST PUSH2 0x12C PUSH2 0x127 CALLDATASIZE PUSH1 0x4 PUSH2 0x11B7 JUMP JUMPDEST PUSH2 0x48C JUMP JUMPDEST PUSH1 0x40 MLOAD SWAP1 DUP2 MSTORE PUSH1 0x20 ADD JUMPDEST PUSH1 0x40 MLOAD DUP1 SWAP2 SUB SWAP1 RETURN JUMPDEST PUSH2 0x117 PUSH2 0x14D CALLDATASIZE PUSH1 0x4 PUSH2 0x1109 JUMP JUMPDEST PUSH2 0x4A4 JUMP JUMPDEST PUSH1 0x1 SLOAD PUSH2 0x165 SWAP1 PUSH1 0x1 PUSH1 0x1 PUSH1 0xA0 SHL SUB AND DUP2 JUMP JUMPDEST PUSH1 0x40 MLOAD PUSH1 0x1 PUSH1 0x1 PUSH1 0xA0 SHL SUB SWAP1 SWAP2 AND DUP2 MSTORE PUSH1 0x20 ADD PUSH2 0x136 JUMP JUMPDEST PUSH2 0x117 PUSH2 0x18B CALLDATASIZE PUSH1 0x4 PUSH2 0x1209 JUMP JUMPDEST PUSH2 0x576 JUMP JUMPDEST PUSH2 0x1F4 PUSH2 0x19E CALLDATASIZE PUSH1 0x4 PUSH2 0x112A JUMP JUMPDEST PUSH1 0x1 PUSH1 0x1 PUSH1 0xA0 SHL SUB SWAP2 DUP3 AND PUSH1 0x0 SWAP1 DUP2 MSTORE PUSH1 0x3 PUSH1 0x20 SWAP1 DUP2 MSTORE PUSH1 0x40 DUP1 DUP4 KECCAK256 SWAP4 SWAP1 SWAP5 AND DUP3 MSTORE PUSH1 0x2 SWAP1 SWAP3 ADD DUP3 MSTORE DUP3 SWAP1 KECCAK256 DUP3 MLOAD DUP1 DUP5 ADD SWAP1 SWAP4 MSTORE SLOAD PUSH1 0x1 PUSH1 0x1 PUSH1 0x80 SHL SUB DUP1 DUP3 AND DUP1 DUP6 MSTORE PUSH1 0x1 PUSH1 0x80 SHL SWAP1 SWAP3 DIV AND SWAP3 SWAP1 SWAP2 ADD DUP3 SWAP1 MSTORE SWAP2 JUMP JUMPDEST PUSH1 0x40 DUP1 MLOAD SWAP3 DUP4 MSTORE PUSH1 0x20 DUP4 ADD SWAP2 SWAP1 SWAP2 MSTORE ADD PUSH2 0x136 JUMP JUMPDEST PUSH2 0x117 PUSH2 0x217 CALLDATASIZE PUSH1 0x4 PUSH2 0x11E7 JUMP JUMPDEST PUSH2 0x6BF JUMP JUMPDEST PUSH1 0x2 SLOAD PUSH2 0x165 SWAP1 PUSH1 0x1 PUSH1 0x1 PUSH1 0xA0 SHL SUB AND DUP2 JUMP JUMPDEST PUSH2 0x28F PUSH2 0x23D CALLDATASIZE PUSH1 0x4 PUSH2 0x1109 JUMP JUMPDEST PUSH1 0x1 PUSH1 0x1 PUSH1 0xA0 SHL SUB AND PUSH1 0x0 SWAP1 DUP2 MSTORE PUSH1 0x3 PUSH1 0x20 MSTORE PUSH1 0x40 SWAP1 KECCAK256 DUP1 SLOAD PUSH1 0x1 SWAP1 SWAP2 ADD SLOAD PUSH4 0xFFFFFFFF DUP1 DUP4 AND SWAP4 PUSH5 0x100000000 DUP5 DIV SWAP1 SWAP2 AND SWAP3 PUSH1 0x1 PUSH1 0x1 PUSH1 0x60 SHL SUB PUSH1 0x1 PUSH1 0x40 SHL DUP3 DIV DUP2 AND SWAP4 PUSH1 0x1 PUSH1 0xA0 SHL SWAP1 SWAP3 DIV AND SWAP2 JUMP JUMPDEST PUSH1 0x40 DUP1 MLOAD SWAP6 DUP7 MSTORE PUSH1 0x20 DUP7 ADD SWAP5 SWAP1 SWAP5 MSTORE SWAP3 DUP5 ADD SWAP2 SWAP1 SWAP2 MSTORE PUSH1 0x60 DUP4 ADD MSTORE PUSH1 0x80 DUP3 ADD MSTORE PUSH1 0xA0 ADD PUSH2 0x136 JUMP JUMPDEST PUSH2 0x117 PUSH2 0x2C5 CALLDATASIZE PUSH1 0x4 PUSH2 0x1109 JUMP JUMPDEST PUSH2 0x7CB JUMP JUMPDEST PUSH2 0x117 PUSH2 0x2D8 CALLDATASIZE PUSH1 0x4 PUSH2 0x1109 JUMP JUMPDEST PUSH2 0x819 JUMP JUMPDEST PUSH2 0x12C PUSH2 0x2EB CALLDATASIZE PUSH1 0x4 PUSH2 0x112A JUMP JUMPDEST PUSH2 0x898 JUMP JUMPDEST PUSH2 0x12C PUSH2 0x2FE CALLDATASIZE PUSH1 0x4 PUSH2 0x112A JUMP JUMPDEST PUSH1 0x1 PUSH1 0x1 PUSH1 0xA0 SHL SUB SWAP2 DUP3 AND PUSH1 0x0 SWAP1 DUP2 MSTORE PUSH1 0x3 PUSH1 0x20 SWAP1 DUP2 MSTORE PUSH1 0x40 DUP1 DUP4 KECCAK256 SWAP4 SWAP1 SWAP5 AND DUP3 MSTORE PUSH1 0x2 SWAP1 SWAP3 ADD SWAP1 SWAP2 MSTORE KECCAK256 SLOAD PUSH1 0x1 PUSH1 0x1 PUSH1 0x80 SHL SUB AND SWAP1 JUMP JUMPDEST PUSH2 0x117 PUSH2 0x344 CALLDATASIZE PUSH1 0x4 PUSH2 0x1109 JUMP JUMPDEST PUSH2 0x8C6 JUMP JUMPDEST PUSH2 0x117 PUSH2 0x357 CALLDATASIZE PUSH1 0x4 PUSH2 0x1255 JUMP JUMPDEST PUSH2 0x986 JUMP JUMPDEST PUSH2 0x12C PUSH2 0x36A CALLDATASIZE PUSH1 0x4 PUSH2 0x115C JUMP JUMPDEST PUSH2 0xA95 JUMP JUMPDEST PUSH1 0x0 SLOAD ISZERO PUSH2 0x398 JUMPI PUSH1 0x40 MLOAD PUSH3 0x461BCD PUSH1 0xE5 SHL DUP2 MSTORE PUSH1 0x4 ADD PUSH2 0x38F SWAP1 PUSH2 0x12DB JUMP JUMPDEST PUSH1 0x40 MLOAD DUP1 SWAP2 SUB SWAP1 REVERT JUMPDEST PUSH1 0x1 PUSH1 0x0 SSTORE DUP2 PUSH2 0x3EA JUMPI PUSH1 0x40 MLOAD PUSH3 0x461BCD PUSH1 0xE5 SHL DUP2 MSTORE PUSH1 0x20 PUSH1 0x4 DUP3 ADD MSTORE PUSH1 0x1A PUSH1 0x24 DUP3 ADD MSTORE PUSH32 0x4C6F673A4C505374616B696E674D696E696E67506F6F6C3A2130000000000000 PUSH1 0x44 DUP3 ADD MSTORE PUSH1 0x64 ADD PUSH2 0x38F JUMP JUMPDEST PUSH1 0x1 PUSH1 0x1 PUSH1 0xA0 SHL SUB DUP2 AND PUSH1 0x0 SWAP1 DUP2 MSTORE PUSH1 0x3 PUSH1 0x20 MSTORE PUSH1 0x40 SWAP1 KECCAK256 PUSH2 0x40C DUP2 CALLER PUSH2 0xBDA JUMP JUMPDEST DUP3 DUP2 PUSH1 0x1 ADD SLOAD PUSH2 0x41C SWAP2 SWAP1 PUSH2 0x1483 JUMP JUMPDEST PUSH1 0x1 DUP3 ADD SSTORE CALLER PUSH1 0x0 SWAP1 DUP2 MSTORE PUSH1 0x2 DUP3 ADD PUSH1 0x20 MSTORE PUSH1 0x40 SWAP1 KECCAK256 SLOAD PUSH2 0x447 SWAP1 DUP5 SWAP1 PUSH1 0x1 PUSH1 0x1 PUSH1 0x80 SHL SUB AND PUSH2 0x1483 JUMP JUMPDEST CALLER PUSH1 0x0 DUP2 DUP2 MSTORE PUSH1 0x2 DUP5 ADD PUSH1 0x20 MSTORE PUSH1 0x40 SWAP1 KECCAK256 DUP1 SLOAD PUSH1 0x1 PUSH1 0x1 PUSH1 0x80 SHL SUB NOT AND PUSH1 0x1 PUSH1 0x1 PUSH1 0x80 SHL SUB SWAP4 SWAP1 SWAP4 AND SWAP3 SWAP1 SWAP3 OR SWAP1 SWAP2 SSTORE PUSH2 0x483 SWAP1 DUP4 SWAP1 DUP6 PUSH2 0xC8B JUMP JUMPDEST POP POP PUSH1 0x0 DUP1 SSTORE POP JUMP JUMPDEST PUSH1 0x0 NUMBER DUP3 DUP2 GT ISZERO PUSH2 0x49E JUMPI POP SWAP1 SWAP2 SWAP1 POP JUMP JUMPDEST SWAP3 SWAP2 POP POP JUMP JUMPDEST PUSH1 0x1 SLOAD PUSH1 0x1 PUSH1 0x1 PUSH1 0xA0 SHL SUB AND CALLER DUP2 EQ DUP1 PUSH2 0x537 JUMPI POP PUSH1 0x40 MLOAD PUSH4 0x91E1472B PUSH1 0xE0 SHL DUP2 MSTORE CALLER PUSH1 0x4 DUP3 ADD MSTORE PUSH1 0x0 PUSH1 0x24 DUP3 ADD MSTORE PUSH1 0x1 PUSH1 0x1 PUSH1 0xA0 SHL SUB DUP3 AND SWAP1 PUSH4 0x91E1472B SWAP1 PUSH1 0x44 ADD PUSH1 0x20 PUSH1 0x40 MLOAD DUP1 DUP4 SUB DUP2 DUP7 DUP1 EXTCODESIZE ISZERO DUP1 ISZERO PUSH2 0x4FF JUMPI PUSH1 0x0 DUP1 REVERT JUMPDEST POP GAS STATICCALL ISZERO DUP1 ISZERO PUSH2 0x513 JUMPI RETURNDATASIZE PUSH1 0x0 DUP1 RETURNDATACOPY RETURNDATASIZE PUSH1 0x0 REVERT JUMPDEST POP POP POP POP PUSH1 0x40 MLOAD RETURNDATASIZE PUSH1 0x1F NOT PUSH1 0x1F DUP3 ADD AND DUP3 ADD DUP1 PUSH1 0x40 MSTORE POP DUP2 ADD SWAP1 PUSH2 0x537 SWAP2 SWAP1 PUSH2 0x1197 JUMP JUMPDEST PUSH2 0x553 JUMPI PUSH1 0x40 MLOAD PUSH3 0x461BCD PUSH1 0xE5 SHL DUP2 MSTORE PUSH1 0x4 ADD PUSH2 0x38F SWAP1 PUSH2 0x1312 JUMP JUMPDEST POP PUSH1 0x1 DUP1 SLOAD PUSH1 0x1 PUSH1 0x1 PUSH1 0xA0 SHL SUB NOT AND PUSH1 0x1 PUSH1 0x1 PUSH1 0xA0 SHL SUB SWAP3 SWAP1 SWAP3 AND SWAP2 SWAP1 SWAP2 OR SWAP1 SSTORE JUMP JUMPDEST PUSH1 0x1 SLOAD PUSH1 0x40 MLOAD PUSH4 0x91E1472B PUSH1 0xE0 SHL DUP2 MSTORE CALLER PUSH1 0x4 DUP3 ADD MSTORE PUSH1 0x0 PUSH1 0x24 DUP3 ADD MSTORE PUSH1 0x1 PUSH1 0x1 PUSH1 0xA0 SHL SUB SWAP1 SWAP2 AND SWAP1 PUSH4 0x91E1472B SWAP1 PUSH1 0x44 ADD PUSH1 0x20 PUSH1 0x40 MLOAD DUP1 DUP4 SUB DUP2 DUP7 DUP1 EXTCODESIZE ISZERO DUP1 ISZERO PUSH2 0x5C0 JUMPI PUSH1 0x0 DUP1 REVERT JUMPDEST POP GAS STATICCALL ISZERO DUP1 ISZERO PUSH2 0x5D4 JUMPI RETURNDATASIZE PUSH1 0x0 DUP1 RETURNDATACOPY RETURNDATASIZE PUSH1 0x0 REVERT JUMPDEST POP POP POP POP PUSH1 0x40 MLOAD RETURNDATASIZE PUSH1 0x1F NOT PUSH1 0x1F DUP3 ADD AND DUP3 ADD DUP1 PUSH1 0x40 MSTORE POP DUP2 ADD SWAP1 PUSH2 0x5F8 SWAP2 SWAP1 PUSH2 0x1197 JUMP JUMPDEST PUSH2 0x614 JUMPI PUSH1 0x40 MLOAD PUSH3 0x461BCD PUSH1 0xE5 SHL DUP2 MSTORE PUSH1 0x4 ADD PUSH2 0x38F SWAP1 PUSH2 0x1312 JUMP JUMPDEST PUSH1 0x2 SLOAD PUSH2 0x62C SWAP1 PUSH1 0x1 PUSH1 0x1 PUSH1 0xA0 SHL SUB AND DUP5 ADDRESS DUP8 PUSH2 0xD9F JUMP JUMPDEST PUSH1 0x1 PUSH1 0x1 PUSH1 0xA0 SHL SUB DUP2 AND PUSH1 0x0 SWAP1 DUP2 MSTORE PUSH1 0x3 PUSH1 0x20 MSTORE PUSH1 0x40 SWAP1 KECCAK256 DUP1 SLOAD PUSH1 0x1 PUSH1 0x1 PUSH1 0x60 SHL SUB DUP5 AND PUSH1 0x1 PUSH1 0x40 SHL DUP2 MUL PUSH20 0xFFFFFFFFFFFFFFFFFFFFFFFF00000000FFFFFFFF NOT SWAP1 SWAP3 AND PUSH4 0xFFFFFFFF NUMBER SWAP1 DUP2 AND SWAP2 SWAP1 SWAP2 OR SWAP3 SWAP1 SWAP3 OR DUP4 SSTORE PUSH2 0x68D SWAP1 DUP8 PUSH2 0x1359 JUMP JUMPDEST PUSH2 0x697 SWAP2 SWAP1 PUSH2 0x1341 JUMP JUMPDEST DUP2 SLOAD PUSH4 0xFFFFFFFF SWAP2 SWAP1 SWAP2 AND PUSH5 0x100000000 MUL PUSH8 0xFFFFFFFF00000000 NOT SWAP1 SWAP2 AND OR SWAP1 SSTORE POP POP POP POP JUMP JUMPDEST PUSH1 0x0 SLOAD ISZERO PUSH2 0x6DF JUMPI PUSH1 0x40 MLOAD PUSH3 0x461BCD PUSH1 0xE5 SHL DUP2 MSTORE PUSH1 0x4 ADD PUSH2 0x38F SWAP1 PUSH2 0x12DB JUMP JUMPDEST PUSH1 0x1 PUSH1 0x0 SSTORE DUP2 PUSH2 0x731 JUMPI PUSH1 0x40 MLOAD PUSH3 0x461BCD PUSH1 0xE5 SHL DUP2 MSTORE PUSH1 0x20 PUSH1 0x4 DUP3 ADD MSTORE PUSH1 0x1A PUSH1 0x24 DUP3 ADD MSTORE PUSH32 0x4C6F673A4C505374616B696E674D696E696E67506F6F6C3A2130000000000000 PUSH1 0x44 DUP3 ADD MSTORE PUSH1 0x64 ADD PUSH2 0x38F JUMP JUMPDEST PUSH1 0x1 PUSH1 0x1 PUSH1 0xA0 SHL SUB DUP2 AND PUSH1 0x0 SWAP1 DUP2 MSTORE PUSH1 0x3 PUSH1 0x20 MSTORE PUSH1 0x40 SWAP1 KECCAK256 PUSH2 0x753 DUP2 CALLER PUSH2 0xBDA JUMP JUMPDEST DUP3 DUP2 PUSH1 0x1 ADD SLOAD PUSH2 0x763 SWAP2 SWAP1 PUSH2 0x1341 JUMP JUMPDEST PUSH1 0x1 DUP3 ADD SSTORE CALLER PUSH1 0x0 SWAP1 DUP2 MSTORE PUSH1 0x2 DUP3 ADD PUSH1 0x20 MSTORE PUSH1 0x40 SWAP1 KECCAK256 SLOAD PUSH2 0x78E SWAP1 DUP5 SWAP1 PUSH1 0x1 PUSH1 0x1 PUSH1 0x80 SHL SUB AND PUSH2 0x1341 JUMP JUMPDEST CALLER PUSH1 0x0 DUP2 DUP2 MSTORE PUSH1 0x2 DUP5 ADD PUSH1 0x20 MSTORE PUSH1 0x40 SWAP1 KECCAK256 DUP1 SLOAD PUSH1 0x1 PUSH1 0x1 PUSH1 0x80 SHL SUB NOT AND PUSH1 0x1 PUSH1 0x1 PUSH1 0x80 SHL SUB SWAP4 SWAP1 SWAP4 AND SWAP3 SWAP1 SWAP3 OR SWAP1 SWAP2 SSTORE PUSH2 0x483 SWAP1 DUP4 SWAP1 ADDRESS DUP7 PUSH2 0xD9F JUMP JUMPDEST PUSH1 0x0 SLOAD ISZERO PUSH2 0x7EB JUMPI PUSH1 0x40 MLOAD PUSH3 0x461BCD PUSH1 0xE5 SHL DUP2 MSTORE PUSH1 0x4 ADD PUSH2 0x38F SWAP1 PUSH2 0x12DB JUMP JUMPDEST PUSH1 0x1 PUSH1 0x0 SWAP1 DUP2 SSTORE PUSH1 0x1 PUSH1 0x1 PUSH1 0xA0 SHL SUB DUP3 AND DUP2 MSTORE PUSH1 0x3 PUSH1 0x20 MSTORE PUSH1 0x40 SWAP1 KECCAK256 PUSH2 0x811 DUP2 CALLER PUSH2 0xBDA JUMP JUMPDEST POP POP PUSH1 0x0 DUP1 SSTORE JUMP JUMPDEST PUSH1 0x1 SLOAD PUSH1 0x1 PUSH1 0x1 PUSH1 0xA0 SHL SUB AND ISZERO PUSH2 0x872 JUMPI PUSH1 0x40 MLOAD PUSH3 0x461BCD PUSH1 0xE5 SHL DUP2 MSTORE PUSH1 0x20 PUSH1 0x4 DUP3 ADD MSTORE PUSH1 0x1B PUSH1 0x24 DUP3 ADD MSTORE PUSH32 0x4C6F673A50617261737365744261736521696E697469616C697A650000000000 PUSH1 0x44 DUP3 ADD MSTORE PUSH1 0x64 ADD PUSH2 0x38F JUMP JUMPDEST PUSH1 0x1 DUP1 SLOAD PUSH1 0x1 PUSH1 0x1 PUSH1 0xA0 SHL SUB NOT AND PUSH1 0x1 PUSH1 0x1 PUSH1 0xA0 SHL SUB SWAP3 SWAP1 SWAP3 AND SWAP2 SWAP1 SWAP2 OR SWAP1 SSTORE PUSH1 0x0 DUP1 SSTORE JUMP JUMPDEST PUSH1 0x1 PUSH1 0x1 PUSH1 0xA0 SHL SUB DUP3 AND PUSH1 0x0 SWAP1 DUP2 MSTORE PUSH1 0x3 PUSH1 0x20 MSTORE PUSH1 0x40 DUP2 KECCAK256 DUP2 PUSH2 0x8BB DUP3 DUP6 PUSH2 0xECF JUMP JUMPDEST SWAP8 SWAP7 POP POP POP POP POP POP POP JUMP JUMPDEST PUSH1 0x1 SLOAD PUSH1 0x40 MLOAD PUSH4 0x91E1472B PUSH1 0xE0 SHL DUP2 MSTORE CALLER PUSH1 0x4 DUP3 ADD MSTORE PUSH1 0x0 PUSH1 0x24 DUP3 ADD MSTORE PUSH1 0x1 PUSH1 0x1 PUSH1 0xA0 SHL SUB SWAP1 SWAP2 AND SWAP1 PUSH4 0x91E1472B SWAP1 PUSH1 0x44 ADD PUSH1 0x20 PUSH1 0x40 MLOAD DUP1 DUP4 SUB DUP2 DUP7 DUP1 EXTCODESIZE ISZERO DUP1 ISZERO PUSH2 0x910 JUMPI PUSH1 0x0 DUP1 REVERT JUMPDEST POP GAS STATICCALL ISZERO DUP1 ISZERO PUSH2 0x924 JUMPI RETURNDATASIZE PUSH1 0x0 DUP1 RETURNDATACOPY RETURNDATASIZE PUSH1 0x0 REVERT JUMPDEST POP POP POP POP PUSH1 0x40 MLOAD RETURNDATASIZE PUSH1 0x1F NOT PUSH1 0x1F DUP3 ADD AND DUP3 ADD DUP1 PUSH1 0x40 MSTORE POP DUP2 ADD SWAP1 PUSH2 0x948 SWAP2 SWAP1 PUSH2 0x1197 JUMP JUMPDEST PUSH2 0x964 JUMPI PUSH1 0x40 MLOAD PUSH3 0x461BCD PUSH1 0xE5 SHL DUP2 MSTORE PUSH1 0x4 ADD PUSH2 0x38F SWAP1 PUSH2 0x1312 JUMP JUMPDEST PUSH1 0x2 DUP1 SLOAD PUSH1 0x1 PUSH1 0x1 PUSH1 0xA0 SHL SUB NOT AND PUSH1 0x1 PUSH1 0x1 PUSH1 0xA0 SHL SUB SWAP3 SWAP1 SWAP3 AND SWAP2 SWAP1 SWAP2 OR SWAP1 SSTORE JUMP JUMPDEST PUSH1 0x1 SLOAD PUSH1 0x40 MLOAD PUSH4 0x91E1472B PUSH1 0xE0 SHL DUP2 MSTORE CALLER PUSH1 0x4 DUP3 ADD MSTORE PUSH1 0x0 PUSH1 0x24 DUP3 ADD MSTORE PUSH1 0x1 PUSH1 0x1 PUSH1 0xA0 SHL SUB SWAP1 SWAP2 AND SWAP1 PUSH4 0x91E1472B SWAP1 PUSH1 0x44 ADD PUSH1 0x20 PUSH1 0x40 MLOAD DUP1 DUP4 SUB DUP2 DUP7 DUP1 EXTCODESIZE ISZERO DUP1 ISZERO PUSH2 0x9D0 JUMPI PUSH1 0x0 DUP1 REVERT JUMPDEST POP GAS STATICCALL ISZERO DUP1 ISZERO PUSH2 0x9E4 JUMPI RETURNDATASIZE PUSH1 0x0 DUP1 RETURNDATACOPY RETURNDATASIZE PUSH1 0x0 REVERT JUMPDEST POP POP POP POP PUSH1 0x40 MLOAD RETURNDATASIZE PUSH1 0x1F NOT PUSH1 0x1F DUP3 ADD AND DUP3 ADD DUP1 PUSH1 0x40 MSTORE POP DUP2 ADD SWAP1 PUSH2 0xA08 SWAP2 SWAP1 PUSH2 0x1197 JUMP JUMPDEST PUSH2 0xA24 JUMPI PUSH1 0x40 MLOAD PUSH3 0x461BCD PUSH1 0xE5 SHL DUP2 MSTORE PUSH1 0x4 ADD PUSH2 0x38F SWAP1 PUSH2 0x1312 JUMP JUMPDEST PUSH1 0x1 PUSH1 0x1 PUSH1 0xA0 SHL SUB AND PUSH1 0x0 SWAP1 DUP2 MSTORE PUSH1 0x3 PUSH1 0x20 MSTORE PUSH1 0x40 SWAP1 KECCAK256 DUP1 SLOAD PUSH1 0x1 PUSH1 0x1 PUSH1 0x60 SHL SUB SWAP1 SWAP3 AND PUSH1 0x1 PUSH1 0x40 SHL MUL PUSH20 0xFFFFFFFFFFFFFFFFFFFFFFFF0000000000000000 NOT PUSH4 0xFFFFFFFF SWAP5 DUP6 AND PUSH5 0x100000000 MUL PUSH8 0xFFFFFFFFFFFFFFFF NOT SWAP1 SWAP5 AND SWAP5 SWAP1 SWAP6 AND SWAP4 SWAP1 SWAP4 OR SWAP2 SWAP1 SWAP2 OR SWAP3 SWAP1 SWAP3 AND OR SWAP1 SSTORE JUMP JUMPDEST PUSH1 0x0 PUSH1 0x12 DUP1 PUSH1 0x1 PUSH1 0x1 PUSH1 0xA0 SHL SUB DUP7 AND ISZERO PUSH2 0xB20 JUMPI DUP6 PUSH1 0x1 PUSH1 0x1 PUSH1 0xA0 SHL SUB AND PUSH4 0x313CE567 PUSH1 0x40 MLOAD DUP2 PUSH4 0xFFFFFFFF AND PUSH1 0xE0 SHL DUP2 MSTORE PUSH1 0x4 ADD PUSH1 0x20 PUSH1 0x40 MLOAD DUP1 DUP4 SUB DUP2 DUP7 DUP1 EXTCODESIZE ISZERO DUP1 ISZERO PUSH2 0xAE2 JUMPI PUSH1 0x0 DUP1 REVERT JUMPDEST POP GAS STATICCALL ISZERO DUP1 ISZERO PUSH2 0xAF6 JUMPI RETURNDATASIZE PUSH1 0x0 DUP1 RETURNDATACOPY RETURNDATASIZE PUSH1 0x0 REVERT JUMPDEST POP POP POP POP PUSH1 0x40 MLOAD RETURNDATASIZE PUSH1 0x1F NOT PUSH1 0x1F DUP3 ADD AND DUP3 ADD DUP1 PUSH1 0x40 MSTORE POP DUP2 ADD SWAP1 PUSH2 0xB1A SWAP2 SWAP1 PUSH2 0x1281 JUMP JUMPDEST PUSH1 0xFF AND SWAP2 POP JUMPDEST PUSH1 0x1 PUSH1 0x1 PUSH1 0xA0 SHL SUB DUP5 AND ISZERO PUSH2 0xBA6 JUMPI DUP4 PUSH1 0x1 PUSH1 0x1 PUSH1 0xA0 SHL SUB AND PUSH4 0x313CE567 PUSH1 0x40 MLOAD DUP2 PUSH4 0xFFFFFFFF AND PUSH1 0xE0 SHL DUP2 MSTORE PUSH1 0x4 ADD PUSH1 0x20 PUSH1 0x40 MLOAD DUP1 DUP4 SUB DUP2 DUP7 DUP1 EXTCODESIZE ISZERO DUP1 ISZERO PUSH2 0xB68 JUMPI PUSH1 0x0 DUP1 REVERT JUMPDEST POP GAS STATICCALL ISZERO DUP1 ISZERO PUSH2 0xB7C JUMPI RETURNDATASIZE PUSH1 0x0 DUP1 RETURNDATACOPY RETURNDATASIZE PUSH1 0x0 REVERT JUMPDEST POP POP POP POP PUSH1 0x40 MLOAD RETURNDATASIZE PUSH1 0x1F NOT PUSH1 0x1F DUP3 ADD AND DUP3 ADD DUP1 PUSH1 0x40 MSTORE POP DUP2 ADD SWAP1 PUSH2 0xBA0 SWAP2 SWAP1 PUSH2 0x1281 JUMP JUMPDEST PUSH1 0xFF AND SWAP1 POP JUMPDEST PUSH2 0xBB1 DUP3 PUSH1 0xA PUSH2 0x13BC JUMP JUMPDEST PUSH2 0xBBC DUP3 PUSH1 0xA PUSH2 0x13BC JUMP JUMPDEST PUSH2 0xBC6 SWAP1 DUP8 PUSH2 0x1464 JUMP JUMPDEST PUSH2 0xBD0 SWAP2 SWAP1 PUSH2 0x1359 JUMP JUMPDEST SWAP7 SWAP6 POP POP POP POP POP POP JUMP JUMPDEST PUSH1 0x0 DUP1 PUSH1 0x0 PUSH2 0xBE9 DUP6 DUP6 PUSH2 0xECF JUMP JUMPDEST DUP8 SLOAD PUSH20 0xFFFFFFFFFFFFFFFFFFFFFFFFFFFFFFFF00000000 AND PUSH1 0x1 PUSH1 0xA0 SHL PUSH1 0x1 PUSH1 0x1 PUSH1 0x60 SHL SUB DUP5 AND MUL PUSH4 0xFFFFFFFF NOT AND OR PUSH4 0xFFFFFFFF DUP5 AND OR DUP9 SSTORE SWAP2 SWAP5 POP SWAP3 POP SWAP1 POP PUSH1 0x1 PUSH1 0x1 PUSH1 0xA0 SHL SUB DUP5 AND ISZERO PUSH2 0xC84 JUMPI DUP1 ISZERO PUSH2 0xC4B JUMPI PUSH2 0xC49 DUP5 DUP3 PUSH2 0x1015 JUMP JUMPDEST POP JUMPDEST PUSH1 0x1 PUSH1 0x1 PUSH1 0xA0 SHL SUB DUP5 AND PUSH1 0x0 SWAP1 DUP2 MSTORE PUSH1 0x2 DUP7 ADD PUSH1 0x20 MSTORE PUSH1 0x40 SWAP1 KECCAK256 DUP1 SLOAD PUSH1 0x1 PUSH1 0x1 PUSH1 0x80 SHL SUB AND PUSH1 0x1 PUSH1 0x1 PUSH1 0x60 SHL SUB DUP5 AND PUSH1 0x1 PUSH1 0x80 SHL MUL OR SWAP1 SSTORE JUMPDEST POP POP POP POP POP JUMP JUMPDEST PUSH1 0x40 DUP1 MLOAD PUSH1 0x1 PUSH1 0x1 PUSH1 0xA0 SHL SUB DUP5 DUP2 AND PUSH1 0x24 DUP4 ADD MSTORE PUSH1 0x44 DUP1 DUP4 ADD DUP6 SWAP1 MSTORE DUP4 MLOAD DUP1 DUP5 SUB SWAP1 SWAP2 ADD DUP2 MSTORE PUSH1 0x64 SWAP1 SWAP3 ADD DUP4 MSTORE PUSH1 0x20 DUP3 ADD DUP1 MLOAD PUSH1 0x1 PUSH1 0x1 PUSH1 0xE0 SHL SUB AND PUSH4 0xA9059CBB PUSH1 0xE0 SHL OR SWAP1 MSTORE SWAP2 MLOAD PUSH1 0x0 SWAP3 DUP4 SWAP3 SWAP1 DUP8 AND SWAP2 PUSH2 0xCE7 SWAP2 SWAP1 PUSH2 0x12A2 JUMP JUMPDEST PUSH1 0x0 PUSH1 0x40 MLOAD DUP1 DUP4 SUB DUP2 PUSH1 0x0 DUP7 GAS CALL SWAP2 POP POP RETURNDATASIZE DUP1 PUSH1 0x0 DUP2 EQ PUSH2 0xD24 JUMPI PUSH1 0x40 MLOAD SWAP2 POP PUSH1 0x1F NOT PUSH1 0x3F RETURNDATASIZE ADD AND DUP3 ADD PUSH1 0x40 MSTORE RETURNDATASIZE DUP3 MSTORE RETURNDATASIZE PUSH1 0x0 PUSH1 0x20 DUP5 ADD RETURNDATACOPY PUSH2 0xD29 JUMP JUMPDEST PUSH1 0x60 SWAP2 POP JUMPDEST POP SWAP2 POP SWAP2 POP DUP2 DUP1 ISZERO PUSH2 0xD53 JUMPI POP DUP1 MLOAD ISZERO DUP1 PUSH2 0xD53 JUMPI POP DUP1 DUP1 PUSH1 0x20 ADD SWAP1 MLOAD DUP2 ADD SWAP1 PUSH2 0xD53 SWAP2 SWAP1 PUSH2 0x1197 JUMP JUMPDEST PUSH2 0xC84 JUMPI PUSH1 0x40 MLOAD PUSH3 0x461BCD PUSH1 0xE5 SHL DUP2 MSTORE PUSH1 0x20 PUSH1 0x4 DUP3 ADD MSTORE PUSH1 0x1F PUSH1 0x24 DUP3 ADD MSTORE PUSH32 0x5472616E7366657248656C7065723A205452414E534645525F4641494C454400 PUSH1 0x44 DUP3 ADD MSTORE PUSH1 0x64 ADD PUSH2 0x38F JUMP JUMPDEST PUSH1 0x40 DUP1 MLOAD PUSH1 0x1 PUSH1 0x1 PUSH1 0xA0 SHL SUB DUP6 DUP2 AND PUSH1 0x24 DUP4 ADD MSTORE DUP5 DUP2 AND PUSH1 0x44 DUP4 ADD MSTORE PUSH1 0x64 DUP1 DUP4 ADD DUP6 SWAP1 MSTORE DUP4 MLOAD DUP1 DUP5 SUB SWAP1 SWAP2 ADD DUP2 MSTORE PUSH1 0x84 SWAP1 SWAP3 ADD DUP4 MSTORE PUSH1 0x20 DUP3 ADD DUP1 MLOAD PUSH1 0x1 PUSH1 0x1 PUSH1 0xE0 SHL SUB AND PUSH4 0x23B872DD PUSH1 0xE0 SHL OR SWAP1 MSTORE SWAP2 MLOAD PUSH1 0x0 SWAP3 DUP4 SWAP3 SWAP1 DUP9 AND SWAP2 PUSH2 0xE03 SWAP2 SWAP1 PUSH2 0x12A2 JUMP JUMPDEST PUSH1 0x0 PUSH1 0x40 MLOAD DUP1 DUP4 SUB DUP2 PUSH1 0x0 DUP7 GAS CALL SWAP2 POP POP RETURNDATASIZE DUP1 PUSH1 0x0 DUP2 EQ PUSH2 0xE40 JUMPI PUSH1 0x40 MLOAD SWAP2 POP PUSH1 0x1F NOT PUSH1 0x3F RETURNDATASIZE ADD AND DUP3 ADD PUSH1 0x40 MSTORE RETURNDATASIZE DUP3 MSTORE RETURNDATASIZE PUSH1 0x0 PUSH1 0x20 DUP5 ADD RETURNDATACOPY PUSH2 0xE45 JUMP JUMPDEST PUSH1 0x60 SWAP2 POP JUMPDEST POP SWAP2 POP SWAP2 POP DUP2 DUP1 ISZERO PUSH2 0xE6F JUMPI POP DUP1 MLOAD ISZERO DUP1 PUSH2 0xE6F JUMPI POP DUP1 DUP1 PUSH1 0x20 ADD SWAP1 MLOAD DUP2 ADD SWAP1 PUSH2 0xE6F SWAP2 SWAP1 PUSH2 0x1197 JUMP JUMPDEST PUSH2 0xEC7 JUMPI PUSH1 0x40 MLOAD PUSH3 0x461BCD PUSH1 0xE5 SHL DUP2 MSTORE PUSH1 0x20 PUSH1 0x4 DUP3 ADD MSTORE PUSH1 0x24 DUP1 DUP3 ADD MSTORE PUSH32 0x5472616E7366657248656C7065723A205452414E534645525F46524F4D5F4641 PUSH1 0x44 DUP3 ADD MSTORE PUSH4 0x12531151 PUSH1 0xE2 SHL PUSH1 0x64 DUP3 ADD MSTORE PUSH1 0x84 ADD PUSH2 0x38F JUMP JUMPDEST POP POP POP POP POP POP JUMP JUMPDEST DUP2 SLOAD PUSH1 0x0 SWAP1 DUP2 SWAP1 DUP2 SWAP1 DUP2 SWAP1 PUSH2 0xEF1 SWAP1 PUSH5 0x100000000 SWAP1 DIV PUSH4 0xFFFFFFFF AND PUSH2 0x48C JUMP JUMPDEST PUSH1 0x1 DUP8 ADD SLOAD DUP8 SLOAD SWAP2 SWAP3 POP SWAP1 PUSH1 0x1 PUSH1 0x1 PUSH1 0x60 SHL SUB PUSH1 0x1 PUSH1 0xA0 SHL DUP3 DIV AND SWAP1 PUSH4 0xFFFFFFFF AND PUSH1 0x0 DUP2 ISZERO PUSH2 0xF46 JUMPI DUP10 SLOAD PUSH1 0x1 PUSH1 0x40 SHL SWAP1 DIV PUSH1 0x1 PUSH1 0x1 PUSH1 0x60 SHL SUB AND PUSH2 0xF37 DUP4 DUP8 PUSH2 0x1483 JUMP JUMPDEST PUSH2 0xF41 SWAP2 SWAP1 PUSH2 0x1464 JUMP JUMPDEST PUSH2 0xF49 JUMP JUMPDEST PUSH1 0x0 JUMPDEST SWAP1 POP DUP5 SWAP8 POP DUP4 PUSH1 0x0 EQ PUSH2 0xF82 JUMPI DUP4 PUSH2 0xF69 DUP3 PUSH8 0xDE0B6B3A7640000 PUSH2 0x1464 JUMP JUMPDEST PUSH2 0xF73 SWAP2 SWAP1 PUSH2 0x1359 JUMP JUMPDEST PUSH2 0xF7D SWAP1 DUP5 PUSH2 0x1341 JUMP JUMPDEST PUSH2 0xF84 JUMP JUMPDEST DUP3 JUMPDEST PUSH1 0x1 PUSH1 0x1 PUSH1 0xA0 SHL SUB DUP11 AND PUSH1 0x0 SWAP1 DUP2 MSTORE PUSH1 0x2 DUP13 ADD PUSH1 0x20 MSTORE PUSH1 0x40 SWAP1 KECCAK256 SLOAD SWAP1 SWAP8 POP PUSH8 0xDE0B6B3A7640000 SWAP1 PUSH2 0xFCF SWAP1 PUSH1 0x1 PUSH1 0x80 SHL SWAP1 DIV PUSH1 0x1 PUSH1 0x1 PUSH1 0x80 SHL SUB AND PUSH1 0x1 PUSH1 0x1 PUSH1 0x60 SHL SUB DUP11 AND PUSH2 0x1483 JUMP JUMPDEST PUSH1 0x1 PUSH1 0x1 PUSH1 0xA0 SHL SUB DUP12 AND PUSH1 0x0 SWAP1 DUP2 MSTORE PUSH1 0x2 DUP14 ADD PUSH1 0x20 MSTORE PUSH1 0x40 SWAP1 KECCAK256 SLOAD PUSH2 0xFFD SWAP2 SWAP1 PUSH1 0x1 PUSH1 0x1 PUSH1 0x80 SHL SUB AND PUSH2 0x1464 JUMP JUMPDEST PUSH2 0x1007 SWAP2 SWAP1 PUSH2 0x1359 JUMP JUMPDEST SWAP6 POP POP POP POP POP POP SWAP3 POP SWAP3 POP SWAP3 JUMP JUMPDEST PUSH1 0x2 SLOAD PUSH1 0x40 MLOAD PUSH4 0x70A08231 PUSH1 0xE0 SHL DUP2 MSTORE ADDRESS PUSH1 0x4 DUP3 ADD MSTORE PUSH1 0x0 SWAP2 DUP3 SWAP2 PUSH1 0x1 PUSH1 0x1 PUSH1 0xA0 SHL SUB SWAP1 SWAP2 AND SWAP1 PUSH4 0x70A08231 SWAP1 PUSH1 0x24 ADD PUSH1 0x20 PUSH1 0x40 MLOAD DUP1 DUP4 SUB DUP2 DUP7 DUP1 EXTCODESIZE ISZERO DUP1 ISZERO PUSH2 0x105D JUMPI PUSH1 0x0 DUP1 REVERT JUMPDEST POP GAS STATICCALL ISZERO DUP1 ISZERO PUSH2 0x1071 JUMPI RETURNDATASIZE PUSH1 0x0 DUP1 RETURNDATACOPY RETURNDATASIZE PUSH1 0x0 REVERT JUMPDEST POP POP POP POP PUSH1 0x40 MLOAD RETURNDATASIZE PUSH1 0x1F NOT PUSH1 0x1F DUP3 ADD AND DUP3 ADD DUP1 PUSH1 0x40 MSTORE POP DUP2 ADD SWAP1 PUSH2 0x1095 SWAP2 SWAP1 PUSH2 0x11CF JUMP JUMPDEST SWAP1 POP DUP1 DUP4 GT ISZERO PUSH2 0x10A3 JUMPI DUP1 SWAP3 POP JUMPDEST PUSH1 0x2 SLOAD PUSH2 0x10BA SWAP1 PUSH1 0x1 PUSH1 0x1 PUSH1 0xA0 SHL SUB AND DUP6 DUP6 PUSH2 0xC8B JUMP JUMPDEST POP SWAP1 SWAP3 SWAP2 POP POP JUMP JUMPDEST DUP1 CALLDATALOAD PUSH1 0x1 PUSH1 0x1 PUSH1 0xA0 SHL SUB DUP2 AND DUP2 EQ PUSH2 0x10D9 JUMPI PUSH1 0x0 DUP1 REVERT JUMPDEST SWAP2 SWAP1 POP JUMP JUMPDEST DUP1 CALLDATALOAD PUSH4 0xFFFFFFFF DUP2 AND DUP2 EQ PUSH2 0x10D9 JUMPI PUSH1 0x0 DUP1 REVERT JUMPDEST DUP1 CALLDATALOAD PUSH1 0x1 PUSH1 0x1 PUSH1 0x60 SHL SUB DUP2 AND DUP2 EQ PUSH2 0x10D9 JUMPI PUSH1 0x0 DUP1 REVERT JUMPDEST PUSH1 0x0 PUSH1 0x20 DUP3 DUP5 SUB SLT ISZERO PUSH2 0x111A JUMPI DUP1 DUP2 REVERT JUMPDEST PUSH2 0x1123 DUP3 PUSH2 0x10C2 JUMP JUMPDEST SWAP4 SWAP3 POP POP POP JUMP JUMPDEST PUSH1 0x0 DUP1 PUSH1 0x40 DUP4 DUP6 SUB SLT ISZERO PUSH2 0x113C JUMPI DUP1 DUP2 REVERT JUMPDEST PUSH2 0x1145 DUP4 PUSH2 0x10C2 JUMP JUMPDEST SWAP2 POP PUSH2 0x1153 PUSH1 0x20 DUP5 ADD PUSH2 0x10C2 JUMP JUMPDEST SWAP1 POP SWAP3 POP SWAP3 SWAP1 POP JUMP JUMPDEST PUSH1 0x0 DUP1 PUSH1 0x0 PUSH1 0x60 DUP5 DUP7 SUB SLT ISZERO PUSH2 0x1170 JUMPI DUP1 DUP2 REVERT JUMPDEST PUSH2 0x1179 DUP5 PUSH2 0x10C2 JUMP JUMPDEST SWAP3 POP PUSH1 0x20 DUP5 ADD CALLDATALOAD SWAP2 POP PUSH2 0x118E PUSH1 0x40 DUP6 ADD PUSH2 0x10C2 JUMP JUMPDEST SWAP1 POP SWAP3 POP SWAP3 POP SWAP3 JUMP JUMPDEST PUSH1 0x0 PUSH1 0x20 DUP3 DUP5 SUB SLT ISZERO PUSH2 0x11A8 JUMPI DUP1 DUP2 REVERT JUMPDEST DUP2 MLOAD DUP1 ISZERO ISZERO DUP2 EQ PUSH2 0x1123 JUMPI DUP2 DUP3 REVERT JUMPDEST PUSH1 0x0 PUSH1 0x20 DUP3 DUP5 SUB SLT ISZERO PUSH2 0x11C8 JUMPI DUP1 DUP2 REVERT JUMPDEST POP CALLDATALOAD SWAP2 SWAP1 POP JUMP JUMPDEST PUSH1 0x0 PUSH1 0x20 DUP3 DUP5 SUB SLT ISZERO PUSH2 0x11E0 JUMPI DUP1 DUP2 REVERT JUMPDEST POP MLOAD SWAP2 SWAP1 POP JUMP JUMPDEST PUSH1 0x0 DUP1 PUSH1 0x40 DUP4 DUP6 SUB SLT ISZERO PUSH2 0x11F9 JUMPI DUP2 DUP3 REVERT JUMPDEST DUP3 CALLDATALOAD SWAP2 POP PUSH2 0x1153 PUSH1 0x20 DUP5 ADD PUSH2 0x10C2 JUMP JUMPDEST PUSH1 0x0 DUP1 PUSH1 0x0 DUP1 PUSH1 0x80 DUP6 DUP8 SUB SLT ISZERO PUSH2 0x121E JUMPI DUP1 DUP2 REVERT JUMPDEST DUP5 CALLDATALOAD SWAP4 POP PUSH2 0x122E PUSH1 0x20 DUP7 ADD PUSH2 0x10C2 JUMP JUMPDEST SWAP3 POP PUSH2 0x123C PUSH1 0x40 DUP7 ADD PUSH2 0x10F2 JUMP JUMPDEST SWAP2 POP PUSH2 0x124A PUSH1 0x60 DUP7 ADD PUSH2 0x10C2 JUMP JUMPDEST SWAP1 POP SWAP3 SWAP6 SWAP2 SWAP5 POP SWAP3 POP JUMP JUMPDEST PUSH1 0x0 DUP1 PUSH1 0x0 DUP1 PUSH1 0x80 DUP6 DUP8 SUB SLT ISZERO PUSH2 0x126A JUMPI DUP4 DUP5 REVERT JUMPDEST PUSH2 0x1273 DUP6 PUSH2 0x10DE JUMP JUMPDEST SWAP4 POP PUSH2 0x122E PUSH1 0x20 DUP7 ADD PUSH2 0x10DE JUMP JUMPDEST PUSH1 0x0 PUSH1 0x20 DUP3 DUP5 SUB SLT ISZERO PUSH2 0x1292 JUMPI DUP1 DUP2 REVERT JUMPDEST DUP2 MLOAD PUSH1 0xFF DUP2 AND DUP2 EQ PUSH2 0x1123 JUMPI DUP2 DUP3 REVERT JUMPDEST PUSH1 0x0 DUP3 MLOAD DUP2 JUMPDEST DUP2 DUP2 LT ISZERO PUSH2 0x12C2 JUMPI PUSH1 0x20 DUP2 DUP7 ADD DUP2 ADD MLOAD DUP6 DUP4 ADD MSTORE ADD PUSH2 0x12A8 JUMP JUMPDEST DUP2 DUP2 GT ISZERO PUSH2 0x12D0 JUMPI DUP3 DUP3 DUP6 ADD MSTORE JUMPDEST POP SWAP2 SWAP1 SWAP2 ADD SWAP3 SWAP2 POP POP JUMP JUMPDEST PUSH1 0x20 DUP1 DUP3 MSTORE PUSH1 0x19 SWAP1 DUP3 ADD MSTORE PUSH32 0x4C6F673A5061726173736574426173653A215F6C6F636B656400000000000000 PUSH1 0x40 DUP3 ADD MSTORE PUSH1 0x60 ADD SWAP1 JUMP JUMPDEST PUSH1 0x20 DUP1 DUP3 MSTORE PUSH1 0x15 SWAP1 DUP3 ADD MSTORE PUSH21 0x2637B39D2830B930B9B9B2BA2130B9B29D10B3B7BB PUSH1 0x59 SHL PUSH1 0x40 DUP3 ADD MSTORE PUSH1 0x60 ADD SWAP1 JUMP JUMPDEST PUSH1 0x0 DUP3 NOT DUP3 GT ISZERO PUSH2 0x1354 JUMPI PUSH2 0x1354 PUSH2 0x149A JUMP JUMPDEST POP ADD SWAP1 JUMP JUMPDEST PUSH1 0x0 DUP3 PUSH2 0x1374 JUMPI PUSH4 0x4E487B71 PUSH1 0xE0 SHL DUP2 MSTORE PUSH1 0x12 PUSH1 0x4 MSTORE PUSH1 0x24 DUP2 REVERT JUMPDEST POP DIV SWAP1 JUMP JUMPDEST PUSH1 0x1 DUP2 DUP2 JUMPDEST DUP1 DUP6 GT ISZERO PUSH2 0x13B4 JUMPI DUP2 PUSH1 0x0 NOT DIV DUP3 GT ISZERO PUSH2 0x139A JUMPI PUSH2 0x139A PUSH2 0x149A JUMP JUMPDEST DUP1 DUP6 AND ISZERO PUSH2 0x13A7 JUMPI SWAP2 DUP2 MUL SWAP2 JUMPDEST SWAP4 DUP5 SHR SWAP4 SWAP1 DUP1 MUL SWAP1 PUSH2 0x137E JUMP JUMPDEST POP SWAP3 POP SWAP3 SWAP1 POP JUMP JUMPDEST PUSH1 0x0 PUSH2 0x1123 DUP4 DUP4 PUSH1 0x0 DUP3 PUSH2 0x13D2 JUMPI POP PUSH1 0x1 PUSH2 0x49E JUMP JUMPDEST DUP2 PUSH2 0x13DF JUMPI POP PUSH1 0x0 PUSH2 0x49E JUMP JUMPDEST DUP2 PUSH1 0x1 DUP2 EQ PUSH2 0x13F5 JUMPI PUSH1 0x2 DUP2 EQ PUSH2 0x13FF JUMPI PUSH2 0x141B JUMP JUMPDEST PUSH1 0x1 SWAP2 POP POP PUSH2 0x49E JUMP JUMPDEST PUSH1 0xFF DUP5 GT ISZERO PUSH2 0x1410 JUMPI PUSH2 0x1410 PUSH2 0x149A JUMP JUMPDEST POP POP PUSH1 0x1 DUP3 SHL PUSH2 0x49E JUMP JUMPDEST POP PUSH1 0x20 DUP4 LT PUSH2 0x133 DUP4 LT AND PUSH1 0x4E DUP5 LT PUSH1 0xB DUP5 LT AND OR ISZERO PUSH2 0x143E JUMPI POP DUP2 DUP2 EXP PUSH2 0x49E JUMP JUMPDEST PUSH2 0x1448 DUP4 DUP4 PUSH2 0x1379 JUMP JUMPDEST DUP1 PUSH1 0x0 NOT DIV DUP3 GT ISZERO PUSH2 0x145C JUMPI PUSH2 0x145C PUSH2 0x149A JUMP JUMPDEST MUL SWAP4 SWAP3 POP POP POP JUMP JUMPDEST PUSH1 0x0 DUP2 PUSH1 0x0 NOT DIV DUP4 GT DUP3 ISZERO ISZERO AND ISZERO PUSH2 0x147E JUMPI PUSH2 0x147E PUSH2 0x149A JUMP JUMPDEST POP MUL SWAP1 JUMP JUMPDEST PUSH1 0x0 DUP3 DUP3 LT ISZERO PUSH2 0x1495 JUMPI PUSH2 0x1495 PUSH2 0x149A JUMP JUMPDEST POP SUB SWAP1 JUMP JUMPDEST PUSH4 0x4E487B71 PUSH1 0xE0 SHL PUSH1 0x0 MSTORE PUSH1 0x11 PUSH1 0x4 MSTORE PUSH1 0x24 PUSH1 0x0 REVERT INVALID LOG2 PUSH5 0x6970667358 0x22 SLT KECCAK256 MUL SWAP14 SWAP1 DUP7 SWAP8 0x24 0xEC 0x23 MSTORE8 PUSH7 0xF344C1C8AE15E8 0xB9 0x49 0xB1 0xB9 SWAP4 SIGNEXTEND PUSH27 0xB2B3B076C6A69BD864736F6C634300080400330000000000000000 "
		},
		"gasEstimates": {
			"creation": {
				"codeDepositCost": "1070000",
				"executionCost": "1114",
				"totalCost": "1071114"
			},
			"external": {
				"_governance()": "1127",
				"_rewardsToken()": "1126",
				"addToken(uint256,address,uint96,address)": "infinite",
				"getAccountInfo(address,address)": "infinite",
				"getAccountReward(address,address)": "infinite",
				"getBalance(address,address)": "infinite",
				"getBlock(uint256)": "356",
				"getChannelInfo(address)": "2258",
				"getDecimalConversion(address,uint256,address)": "infinite",
				"getReward(address)": "infinite",
				"initialize(address)": "27082",
				"setChannelInfo(uint32,uint32,uint96,address)": "infinite",
				"setRewardsToken(address)": "infinite",
				"stake(uint256,address)": "infinite",
				"update(address)": "infinite",
				"withdraw(uint256,address)": "infinite"
			},
			"internal": {
				"_calcReward(struct LPStakingMiningPool.Channel storage pointer,address)": "4787",
				"_gerReward(struct LPStakingMiningPool.Channel storage pointer,address)": "infinite",
				"_safeAsetTransfer(address,uint256)": "infinite"
			}
		},
		"methodIdentifiers": {
			"_governance()": "1c2f3e3d",
			"_rewardsToken()": "83beae2e",
			"addToken(uint256,address,uint96,address)": "213794e8",
			"getAccountInfo(address,address)": "6332fef6",
			"getAccountReward(address,address)": "d3314f3c",
			"getBalance(address,address)": "d4fac45d",
			"getBlock(uint256)": "04c07569",
			"getChannelInfo(address)": "9d955d79",
			"getDecimalConversion(address,uint256,address)": "f9081591",
			"getReward(address)": "c00007b0",
			"initialize(address)": "c4d66de8",
			"setChannelInfo(uint32,uint32,uint96,address)": "e03452df",
			"setRewardsToken(address)": "de320cc1",
			"stake(uint256,address)": "7acb7757",
			"update(address)": "1c1b8772",
			"withdraw(uint256,address)": "00f714ce"
		}
	},
	"abi": [
		{
			"inputs": [],
			"name": "_governance",
			"outputs": [
				{
					"internalType": "address",
					"name": "",
					"type": "address"
				}
			],
			"stateMutability": "view",
			"type": "function"
		},
		{
			"inputs": [],
			"name": "_rewardsToken",
			"outputs": [
				{
					"internalType": "address",
					"name": "",
					"type": "address"
				}
			],
			"stateMutability": "view",
			"type": "function"
		},
		{
			"inputs": [
				{
					"internalType": "uint256",
					"name": "tokenAmount",
					"type": "uint256"
				},
				{
					"internalType": "address",
					"name": "from",
					"type": "address"
				},
				{
					"internalType": "uint96",
					"name": "rewardRate",
					"type": "uint96"
				},
				{
					"internalType": "address",
					"name": "stakingToken",
					"type": "address"
				}
			],
			"name": "addToken",
			"outputs": [],
			"stateMutability": "nonpayable",
			"type": "function"
		},
		{
			"inputs": [
				{
					"internalType": "address",
					"name": "stakingToken",
					"type": "address"
				},
				{
					"internalType": "address",
					"name": "account",
					"type": "address"
				}
			],
			"name": "getAccountInfo",
			"outputs": [
				{
					"internalType": "uint256",
					"name": "balance",
					"type": "uint256"
				},
				{
					"internalType": "uint256",
					"name": "userRewardPerTokenPaid",
					"type": "uint256"
				}
			],
			"stateMutability": "view",
			"type": "function"
		},
		{
			"inputs": [
				{
					"internalType": "address",
					"name": "stakingToken",
					"type": "address"
				},
				{
					"internalType": "address",
					"name": "account",
					"type": "address"
				}
			],
			"name": "getAccountReward",
			"outputs": [
				{
					"internalType": "uint256",
					"name": "",
					"type": "uint256"
				}
			],
			"stateMutability": "view",
			"type": "function"
		},
		{
			"inputs": [
				{
					"internalType": "address",
					"name": "stakingToken",
					"type": "address"
				},
				{
					"internalType": "address",
					"name": "account",
					"type": "address"
				}
			],
			"name": "getBalance",
			"outputs": [
				{
					"internalType": "uint256",
					"name": "",
					"type": "uint256"
				}
			],
			"stateMutability": "view",
			"type": "function"
		},
		{
			"inputs": [
				{
					"internalType": "uint256",
					"name": "endBlock",
					"type": "uint256"
				}
			],
			"name": "getBlock",
			"outputs": [
				{
					"internalType": "uint256",
					"name": "",
					"type": "uint256"
				}
			],
			"stateMutability": "view",
			"type": "function"
		},
		{
			"inputs": [
				{
					"internalType": "address",
					"name": "stakingToken",
					"type": "address"
				}
			],
			"name": "getChannelInfo",
			"outputs": [
				{
					"internalType": "uint256",
					"name": "lastUpdateBlock",
					"type": "uint256"
				},
				{
					"internalType": "uint256",
					"name": "endBlock",
					"type": "uint256"
				},
				{
					"internalType": "uint256",
					"name": "rewardRate",
					"type": "uint256"
				},
				{
					"internalType": "uint256",
					"name": "rewardPerTokenStored",
					"type": "uint256"
				},
				{
					"internalType": "uint256",
					"name": "totalSupply",
					"type": "uint256"
				}
			],
			"stateMutability": "view",
			"type": "function"
		},
		{
			"inputs": [
				{
					"internalType": "address",
					"name": "inputToken",
					"type": "address"
				},
				{
					"internalType": "uint256",
					"name": "inputTokenAmount",
					"type": "uint256"
				},
				{
					"internalType": "address",
					"name": "outputToken",
					"type": "address"
				}
			],
			"name": "getDecimalConversion",
			"outputs": [
				{
					"internalType": "uint256",
					"name": "",
					"type": "uint256"
				}
			],
			"stateMutability": "view",
			"type": "function"
		},
		{
			"inputs": [
				{
					"internalType": "address",
					"name": "stakingToken",
					"type": "address"
				}
			],
			"name": "getReward",
			"outputs": [],
			"stateMutability": "nonpayable",
			"type": "function"
		},
		{
			"inputs": [
				{
					"internalType": "address",
					"name": "governance",
					"type": "address"
				}
			],
			"name": "initialize",
			"outputs": [],
			"stateMutability": "nonpayable",
			"type": "function"
		},
		{
			"inputs": [
				{
					"internalType": "uint32",
					"name": "lastUpdateBlock",
					"type": "uint32"
				},
				{
					"internalType": "uint32",
					"name": "endBlock",
					"type": "uint32"
				},
				{
					"internalType": "uint96",
					"name": "rewardRate",
					"type": "uint96"
				},
				{
					"internalType": "address",
					"name": "stakingToken",
					"type": "address"
				}
			],
			"name": "setChannelInfo",
			"outputs": [],
			"stateMutability": "nonpayable",
			"type": "function"
		},
		{
			"inputs": [
				{
					"internalType": "address",
					"name": "add",
					"type": "address"
				}
			],
			"name": "setRewardsToken",
			"outputs": [],
			"stateMutability": "nonpayable",
			"type": "function"
		},
		{
			"inputs": [
				{
					"internalType": "uint256",
					"name": "amount",
					"type": "uint256"
				},
				{
					"internalType": "address",
					"name": "stakingToken",
					"type": "address"
				}
			],
			"name": "stake",
			"outputs": [],
			"stateMutability": "nonpayable",
			"type": "function"
		},
		{
			"inputs": [
				{
					"internalType": "address",
					"name": "newGovernance",
					"type": "address"
				}
			],
			"name": "update",
			"outputs": [],
			"stateMutability": "nonpayable",
			"type": "function"
		},
		{
			"inputs": [
				{
					"internalType": "uint256",
					"name": "amount",
					"type": "uint256"
				},
				{
					"internalType": "address",
					"name": "stakingToken",
					"type": "address"
				}
			],
			"name": "withdraw",
			"outputs": [],
			"stateMutability": "nonpayable",
			"type": "function"
		}
	]
}