{
	"data": {
		"bytecode": {
			"linkReferences": {},
			"object": "608060405234801561001057600080fd5b50611418806100206000396000f3fe608060405234801561001057600080fd5b50600436106100ff5760003560e01c80639d955d7911610097578063d4fac45d11610066578063d4fac45d146102dd578063de320cc114610317578063e03452df1461032a578063f90815911461033d57600080fd5b80639d955d791461021f578063c00007b0146102a4578063c4d66de8146102b7578063d3314f3c146102ca57600080fd5b8063213794e8116100d3578063213794e81461017d5780636332fef6146101905780637acb7757146101f957806383beae2e1461020c57600080fd5b8062f714ce1461010457806304c07569146101195780631c1b87721461013f5780631c2f3e3d14610152575b600080fd5b610117610112366004611119565b610350565b005b61012c6101273660046110e9565b610449565b6040519081526020015b60405180910390f35b61011761014d36600461103b565b610461565b600154610165906001600160a01b031681565b6040516001600160a01b039091168152602001610136565b61011761018b36600461113b565b610533565b6101e461019e36600461105c565b6001600160a01b03918216600090815260036020818152604080842094909516835292018252829020825180840190935280548084526001909101549290910182905291565b60408051928352602083019190915201610136565b610117610207366004611119565b61066e565b600254610165906001600160a01b031681565b61027c61022d36600461103b565b6001600160a01b031660009081526003602052604090208054600182015460029092015463ffffffff80831694640100000000840490911693600160401b9093046001600160c01b0316929190565b604080519586526020860194909452928401919091526060830152608082015260a001610136565b6101176102b236600461103b565b610759565b6101176102c536600461103b565b6107a7565b61012c6102d836600461105c565b610826565b61012c6102eb36600461105c565b6001600160a01b0391821660009081526003602081815260408084209490951683529201909152205490565b61011761032536600461103b565b610854565b610117610338366004611187565b610914565b61012c61034b36600461108e565b610a29565b600054156103795760405162461bcd60e51b81526004016103709061120d565b60405180910390fd5b6001600055816103cb5760405162461bcd60e51b815260206004820152601a60248201527f4c6f673a4c505374616b696e674d696e696e67506f6f6c3a21300000000000006044820152606401610370565b6001600160a01b03811660009081526003602052604090206103ed8133610b6e565b8281600201546103fd91906113b5565b600282015533600090815260038201602052604090205461041f9084906113b5565b33600081815260038401602052604090209190915561044090839085610be7565b50506000805550565b6000438281111561045b575090919050565b92915050565b6001546001600160a01b0316338114806104f457506040516391e1472b60e01b8152336004820152600060248201526001600160a01b038216906391e1472b9060440160206040518083038186803b1580156104bc57600080fd5b505afa1580156104d0573d6000803e3d6000fd5b505050506040513d601f19601f820116820180604052508101906104f491906110c9565b6105105760405162461bcd60e51b815260040161037090611244565b50600180546001600160a01b0319166001600160a01b0392909216919091179055565b6001546040516391e1472b60e01b8152336004820152600060248201526001600160a01b03909116906391e1472b9060440160206040518083038186803b15801561057d57600080fd5b505afa158015610591573d6000803e3d6000fd5b505050506040513d601f19601f820116820180604052508101906105b591906110c9565b6105d15760405162461bcd60e51b815260040161037090611244565b6002546105e9906001600160a01b0316843087610cfb565b6001600160a01b038116600090815260036020526040902080544363ffffffff811667ffffffff00000000909216919091176001600160601b038516600160401b810291909117835561063c908761128b565b6106469190611273565b815463ffffffff919091166401000000000267ffffffff000000001990911617905550505050565b6000541561068e5760405162461bcd60e51b81526004016103709061120d565b6001600055816106e05760405162461bcd60e51b815260206004820152601a60248201527f4c6f673a4c505374616b696e674d696e696e67506f6f6c3a21300000000000006044820152606401610370565b6001600160a01b03811660009081526003602052604090206107028133610b6e565b61070e82333086610cfb565b82816002015461071e9190611273565b6002820155336000908152600382016020526040902054610740908490611273565b3360009081526003909201602052604082205580555050565b600054156107795760405162461bcd60e51b81526004016103709061120d565b600160009081556001600160a01b038216815260036020526040902061079f8133610b6e565b505060008055565b6001546001600160a01b0316156108005760405162461bcd60e51b815260206004820152601b60248201527f4c6f673a50617261737365744261736521696e697469616c697a6500000000006044820152606401610370565b600180546001600160a01b0319166001600160a01b039290921691909117905560008055565b6001600160a01b0382166000908152600360205260408120816108498285610e2b565b979650505050505050565b6001546040516391e1472b60e01b8152336004820152600060248201526001600160a01b03909116906391e1472b9060440160206040518083038186803b15801561089e57600080fd5b505afa1580156108b2573d6000803e3d6000fd5b505050506040513d601f19601f820116820180604052508101906108d691906110c9565b6108f25760405162461bcd60e51b815260040161037090611244565b600280546001600160a01b0319166001600160a01b0392909216919091179055565b6001546040516391e1472b60e01b8152336004820152600060248201526001600160a01b03909116906391e1472b9060440160206040518083038186803b15801561095e57600080fd5b505afa158015610972573d6000803e3d6000fd5b505050506040513d601f19601f8201168201806040525081019061099691906110c9565b6109b25760405162461bcd60e51b815260040161037090611244565b6001600160a01b0381166000908152600360205260408120906109d58230610e2b565b5060018401555050805463ffffffff95861667ffffffffffffffff199091161764010000000094909516939093029390931767ffffffffffffffff166001600160601b0391909116600160401b0217905550565b60006012806001600160a01b03861615610ab457856001600160a01b031663313ce5676040518163ffffffff1660e01b815260040160206040518083038186803b158015610a7657600080fd5b505afa158015610a8a573d6000803e3d6000fd5b505050506040513d601f19601f82011682018060405250810190610aae91906111b3565b60ff1691505b6001600160a01b03841615610b3a57836001600160a01b031663313ce5676040518163ffffffff1660e01b815260040160206040518083038186803b158015610afc57600080fd5b505afa158015610b10573d6000803e3d6000fd5b505050506040513d601f19601f82011682018060405250810190610b3491906111b3565b60ff1690505b610b4582600a6112ee565b610b5082600a6112ee565b610b5a9087611396565b610b64919061128b565b9695505050505050565b6000806000610b7d8585610e2b565b60018801829055875463ffffffff191663ffffffff8416178855919450925090506001600160a01b03841615610be0578015610bbf57610bbd8482610f47565b505b6001600160a01b038416600090815260038601602052604090206001018290555b5050505050565b604080516001600160a01b038481166024830152604480830185905283518084039091018152606490920183526020820180516001600160e01b031663a9059cbb60e01b1790529151600092839290871691610c4391906111d4565b6000604051808303816000865af19150503d8060008114610c80576040519150601f19603f3d011682016040523d82523d6000602084013e610c85565b606091505b5091509150818015610caf575080511580610caf575080806020019051810190610caf91906110c9565b610be05760405162461bcd60e51b815260206004820152601f60248201527f5472616e7366657248656c7065723a205452414e534645525f4641494c4544006044820152606401610370565b604080516001600160a01b0385811660248301528481166044830152606480830185905283518084039091018152608490920183526020820180516001600160e01b03166323b872dd60e01b1790529151600092839290881691610d5f91906111d4565b6000604051808303816000865af19150503d8060008114610d9c576040519150601f19603f3d011682016040523d82523d6000602084013e610da1565b606091505b5091509150818015610dcb575080511580610dcb575080806020019051810190610dcb91906110c9565b610e235760405162461bcd60e51b8152602060048201526024808201527f5472616e7366657248656c7065723a205452414e534645525f46524f4d5f46416044820152631253115160e21b6064820152608401610370565b505050505050565b8154600090819081908190610e4d90640100000000900463ffffffff16610449565b600287015460018801548854929350909163ffffffff1660008115610e97578954600160401b90046001600160c01b0316610e8883876113b5565b610e929190611396565b610e9a565b60005b905084975083600014610ed35783610eba82670de0b6b3a7640000611396565b610ec4919061128b565b610ece9084611273565b610ed5565b825b6001600160a01b038a16600090815260038c016020526040902060010154909750670de0b6b3a764000090610f0a90896113b5565b6001600160a01b038b16600090815260038d016020526040902054610f2f9190611396565b610f39919061128b565b955050505050509250925092565b6002546040516370a0823160e01b815230600482015260009182916001600160a01b03909116906370a082319060240160206040518083038186803b158015610f8f57600080fd5b505afa158015610fa3573d6000803e3d6000fd5b505050506040513d601f19601f82011682018060405250810190610fc79190611101565b905080831115610fd5578092505b600254610fec906001600160a01b03168585610be7565b509092915050565b80356001600160a01b038116811461100b57600080fd5b919050565b803563ffffffff8116811461100b57600080fd5b80356001600160601b038116811461100b57600080fd5b60006020828403121561104c578081fd5b61105582610ff4565b9392505050565b6000806040838503121561106e578081fd5b61107783610ff4565b915061108560208401610ff4565b90509250929050565b6000806000606084860312156110a2578081fd5b6110ab84610ff4565b9250602084013591506110c060408501610ff4565b90509250925092565b6000602082840312156110da578081fd5b81518015158114611055578182fd5b6000602082840312156110fa578081fd5b5035919050565b600060208284031215611112578081fd5b5051919050565b6000806040838503121561112b578182fd5b8235915061108560208401610ff4565b60008060008060808587031215611150578081fd5b8435935061116060208601610ff4565b925061116e60408601611024565b915061117c60608601610ff4565b905092959194509250565b6000806000806080858703121561119c578384fd5b6111a585611010565b935061116060208601611010565b6000602082840312156111c4578081fd5b815160ff81168114611055578182fd5b60008251815b818110156111f457602081860181015185830152016111da565b818111156112025782828501525b509190910192915050565b60208082526019908201527f4c6f673a5061726173736574426173653a215f6c6f636b656400000000000000604082015260600190565b6020808252601590820152742637b39d2830b930b9b9b2ba2130b9b29d10b3b7bb60591b604082015260600190565b60008219821115611286576112866113cc565b500190565b6000826112a657634e487b7160e01b81526012600452602481fd5b500490565b600181815b808511156112e65781600019048211156112cc576112cc6113cc565b808516156112d957918102915b93841c93908002906112b0565b509250929050565b600061105583836000826113045750600161045b565b816113115750600061045b565b816001811461132757600281146113315761134d565b600191505061045b565b60ff841115611342576113426113cc565b50506001821b61045b565b5060208310610133831016604e8410600b8410161715611370575081810a61045b565b61137a83836112ab565b806000190482111561138e5761138e6113cc565b029392505050565b60008160001904831182151516156113b0576113b06113cc565b500290565b6000828210156113c7576113c76113cc565b500390565b634e487b7160e01b600052601160045260246000fdfea2646970667358221220524506c791350404074e516ada39414051a9174540e090113ef2ad024d14c4e964736f6c63430008040033",
			"opcodes": "PUSH1 0x80 PUSH1 0x40 MSTORE CALLVALUE DUP1 ISZERO PUSH2 0x10 JUMPI PUSH1 0x0 DUP1 REVERT JUMPDEST POP PUSH2 0x1418 DUP1 PUSH2 0x20 PUSH1 0x0 CODECOPY PUSH1 0x0 RETURN INVALID PUSH1 0x80 PUSH1 0x40 MSTORE CALLVALUE DUP1 ISZERO PUSH2 0x10 JUMPI PUSH1 0x0 DUP1 REVERT JUMPDEST POP PUSH1 0x4 CALLDATASIZE LT PUSH2 0xFF JUMPI PUSH1 0x0 CALLDATALOAD PUSH1 0xE0 SHR DUP1 PUSH4 0x9D955D79 GT PUSH2 0x97 JUMPI DUP1 PUSH4 0xD4FAC45D GT PUSH2 0x66 JUMPI DUP1 PUSH4 0xD4FAC45D EQ PUSH2 0x2DD JUMPI DUP1 PUSH4 0xDE320CC1 EQ PUSH2 0x317 JUMPI DUP1 PUSH4 0xE03452DF EQ PUSH2 0x32A JUMPI DUP1 PUSH4 0xF9081591 EQ PUSH2 0x33D JUMPI PUSH1 0x0 DUP1 REVERT JUMPDEST DUP1 PUSH4 0x9D955D79 EQ PUSH2 0x21F JUMPI DUP1 PUSH4 0xC00007B0 EQ PUSH2 0x2A4 JUMPI DUP1 PUSH4 0xC4D66DE8 EQ PUSH2 0x2B7 JUMPI DUP1 PUSH4 0xD3314F3C EQ PUSH2 0x2CA JUMPI PUSH1 0x0 DUP1 REVERT JUMPDEST DUP1 PUSH4 0x213794E8 GT PUSH2 0xD3 JUMPI DUP1 PUSH4 0x213794E8 EQ PUSH2 0x17D JUMPI DUP1 PUSH4 0x6332FEF6 EQ PUSH2 0x190 JUMPI DUP1 PUSH4 0x7ACB7757 EQ PUSH2 0x1F9 JUMPI DUP1 PUSH4 0x83BEAE2E EQ PUSH2 0x20C JUMPI PUSH1 0x0 DUP1 REVERT JUMPDEST DUP1 PUSH3 0xF714CE EQ PUSH2 0x104 JUMPI DUP1 PUSH4 0x4C07569 EQ PUSH2 0x119 JUMPI DUP1 PUSH4 0x1C1B8772 EQ PUSH2 0x13F JUMPI DUP1 PUSH4 0x1C2F3E3D EQ PUSH2 0x152 JUMPI JUMPDEST PUSH1 0x0 DUP1 REVERT JUMPDEST PUSH2 0x117 PUSH2 0x112 CALLDATASIZE PUSH1 0x4 PUSH2 0x1119 JUMP JUMPDEST PUSH2 0x350 JUMP JUMPDEST STOP JUMPDEST PUSH2 0x12C PUSH2 0x127 CALLDATASIZE PUSH1 0x4 PUSH2 0x10E9 JUMP JUMPDEST PUSH2 0x449 JUMP JUMPDEST PUSH1 0x40 MLOAD SWAP1 DUP2 MSTORE PUSH1 0x20 ADD JUMPDEST PUSH1 0x40 MLOAD DUP1 SWAP2 SUB SWAP1 RETURN JUMPDEST PUSH2 0x117 PUSH2 0x14D CALLDATASIZE PUSH1 0x4 PUSH2 0x103B JUMP JUMPDEST PUSH2 0x461 JUMP JUMPDEST PUSH1 0x1 SLOAD PUSH2 0x165 SWAP1 PUSH1 0x1 PUSH1 0x1 PUSH1 0xA0 SHL SUB AND DUP2 JUMP JUMPDEST PUSH1 0x40 MLOAD PUSH1 0x1 PUSH1 0x1 PUSH1 0xA0 SHL SUB SWAP1 SWAP2 AND DUP2 MSTORE PUSH1 0x20 ADD PUSH2 0x136 JUMP JUMPDEST PUSH2 0x117 PUSH2 0x18B CALLDATASIZE PUSH1 0x4 PUSH2 0x113B JUMP JUMPDEST PUSH2 0x533 JUMP JUMPDEST PUSH2 0x1E4 PUSH2 0x19E CALLDATASIZE PUSH1 0x4 PUSH2 0x105C JUMP JUMPDEST PUSH1 0x1 PUSH1 0x1 PUSH1 0xA0 SHL SUB SWAP2 DUP3 AND PUSH1 0x0 SWAP1 DUP2 MSTORE PUSH1 0x3 PUSH1 0x20 DUP2 DUP2 MSTORE PUSH1 0x40 DUP1 DUP5 KECCAK256 SWAP5 SWAP1 SWAP6 AND DUP4 MSTORE SWAP3 ADD DUP3 MSTORE DUP3 SWAP1 KECCAK256 DUP3 MLOAD DUP1 DUP5 ADD SWAP1 SWAP4 MSTORE DUP1 SLOAD DUP1 DUP5 MSTORE PUSH1 0x1 SWAP1 SWAP2 ADD SLOAD SWAP3 SWAP1 SWAP2 ADD DUP3 SWAP1 MSTORE SWAP2 JUMP JUMPDEST PUSH1 0x40 DUP1 MLOAD SWAP3 DUP4 MSTORE PUSH1 0x20 DUP4 ADD SWAP2 SWAP1 SWAP2 MSTORE ADD PUSH2 0x136 JUMP JUMPDEST PUSH2 0x117 PUSH2 0x207 CALLDATASIZE PUSH1 0x4 PUSH2 0x1119 JUMP JUMPDEST PUSH2 0x66E JUMP JUMPDEST PUSH1 0x2 SLOAD PUSH2 0x165 SWAP1 PUSH1 0x1 PUSH1 0x1 PUSH1 0xA0 SHL SUB AND DUP2 JUMP JUMPDEST PUSH2 0x27C PUSH2 0x22D CALLDATASIZE PUSH1 0x4 PUSH2 0x103B JUMP JUMPDEST PUSH1 0x1 PUSH1 0x1 PUSH1 0xA0 SHL SUB AND PUSH1 0x0 SWAP1 DUP2 MSTORE PUSH1 0x3 PUSH1 0x20 MSTORE PUSH1 0x40 SWAP1 KECCAK256 DUP1 SLOAD PUSH1 0x1 DUP3 ADD SLOAD PUSH1 0x2 SWAP1 SWAP3 ADD SLOAD PUSH4 0xFFFFFFFF DUP1 DUP4 AND SWAP5 PUSH5 0x100000000 DUP5 DIV SWAP1 SWAP2 AND SWAP4 PUSH1 0x1 PUSH1 0x40 SHL SWAP1 SWAP4 DIV PUSH1 0x1 PUSH1 0x1 PUSH1 0xC0 SHL SUB AND SWAP3 SWAP2 SWAP1 JUMP JUMPDEST PUSH1 0x40 DUP1 MLOAD SWAP6 DUP7 MSTORE PUSH1 0x20 DUP7 ADD SWAP5 SWAP1 SWAP5 MSTORE SWAP3 DUP5 ADD SWAP2 SWAP1 SWAP2 MSTORE PUSH1 0x60 DUP4 ADD MSTORE PUSH1 0x80 DUP3 ADD MSTORE PUSH1 0xA0 ADD PUSH2 0x136 JUMP JUMPDEST PUSH2 0x117 PUSH2 0x2B2 CALLDATASIZE PUSH1 0x4 PUSH2 0x103B JUMP JUMPDEST PUSH2 0x759 JUMP JUMPDEST PUSH2 0x117 PUSH2 0x2C5 CALLDATASIZE PUSH1 0x4 PUSH2 0x103B JUMP JUMPDEST PUSH2 0x7A7 JUMP JUMPDEST PUSH2 0x12C PUSH2 0x2D8 CALLDATASIZE PUSH1 0x4 PUSH2 0x105C JUMP JUMPDEST PUSH2 0x826 JUMP JUMPDEST PUSH2 0x12C PUSH2 0x2EB CALLDATASIZE PUSH1 0x4 PUSH2 0x105C JUMP JUMPDEST PUSH1 0x1 PUSH1 0x1 PUSH1 0xA0 SHL SUB SWAP2 DUP3 AND PUSH1 0x0 SWAP1 DUP2 MSTORE PUSH1 0x3 PUSH1 0x20 DUP2 DUP2 MSTORE PUSH1 0x40 DUP1 DUP5 KECCAK256 SWAP5 SWAP1 SWAP6 AND DUP4 MSTORE SWAP3 ADD SWAP1 SWAP2 MSTORE KECCAK256 SLOAD SWAP1 JUMP JUMPDEST PUSH2 0x117 PUSH2 0x325 CALLDATASIZE PUSH1 0x4 PUSH2 0x103B JUMP JUMPDEST PUSH2 0x854 JUMP JUMPDEST PUSH2 0x117 PUSH2 0x338 CALLDATASIZE PUSH1 0x4 PUSH2 0x1187 JUMP JUMPDEST PUSH2 0x914 JUMP JUMPDEST PUSH2 0x12C PUSH2 0x34B CALLDATASIZE PUSH1 0x4 PUSH2 0x108E JUMP JUMPDEST PUSH2 0xA29 JUMP JUMPDEST PUSH1 0x0 SLOAD ISZERO PUSH2 0x379 JUMPI PUSH1 0x40 MLOAD PUSH3 0x461BCD PUSH1 0xE5 SHL DUP2 MSTORE PUSH1 0x4 ADD PUSH2 0x370 SWAP1 PUSH2 0x120D JUMP JUMPDEST PUSH1 0x40 MLOAD DUP1 SWAP2 SUB SWAP1 REVERT JUMPDEST PUSH1 0x1 PUSH1 0x0 SSTORE DUP2 PUSH2 0x3CB JUMPI PUSH1 0x40 MLOAD PUSH3 0x461BCD PUSH1 0xE5 SHL DUP2 MSTORE PUSH1 0x20 PUSH1 0x4 DUP3 ADD MSTORE PUSH1 0x1A PUSH1 0x24 DUP3 ADD MSTORE PUSH32 0x4C6F673A4C505374616B696E674D696E696E67506F6F6C3A2130000000000000 PUSH1 0x44 DUP3 ADD MSTORE PUSH1 0x64 ADD PUSH2 0x370 JUMP JUMPDEST PUSH1 0x1 PUSH1 0x1 PUSH1 0xA0 SHL SUB DUP2 AND PUSH1 0x0 SWAP1 DUP2 MSTORE PUSH1 0x3 PUSH1 0x20 MSTORE PUSH1 0x40 SWAP1 KECCAK256 PUSH2 0x3ED DUP2 CALLER PUSH2 0xB6E JUMP JUMPDEST DUP3 DUP2 PUSH1 0x2 ADD SLOAD PUSH2 0x3FD SWAP2 SWAP1 PUSH2 0x13B5 JUMP JUMPDEST PUSH1 0x2 DUP3 ADD SSTORE CALLER PUSH1 0x0 SWAP1 DUP2 MSTORE PUSH1 0x3 DUP3 ADD PUSH1 0x20 MSTORE PUSH1 0x40 SWAP1 KECCAK256 SLOAD PUSH2 0x41F SWAP1 DUP5 SWAP1 PUSH2 0x13B5 JUMP JUMPDEST CALLER PUSH1 0x0 DUP2 DUP2 MSTORE PUSH1 0x3 DUP5 ADD PUSH1 0x20 MSTORE PUSH1 0x40 SWAP1 KECCAK256 SWAP2 SWAP1 SWAP2 SSTORE PUSH2 0x440 SWAP1 DUP4 SWAP1 DUP6 PUSH2 0xBE7 JUMP JUMPDEST POP POP PUSH1 0x0 DUP1 SSTORE POP JUMP JUMPDEST PUSH1 0x0 NUMBER DUP3 DUP2 GT ISZERO PUSH2 0x45B JUMPI POP SWAP1 SWAP2 SWAP1 POP JUMP JUMPDEST SWAP3 SWAP2 POP POP JUMP JUMPDEST PUSH1 0x1 SLOAD PUSH1 0x1 PUSH1 0x1 PUSH1 0xA0 SHL SUB AND CALLER DUP2 EQ DUP1 PUSH2 0x4F4 JUMPI POP PUSH1 0x40 MLOAD PUSH4 0x91E1472B PUSH1 0xE0 SHL DUP2 MSTORE CALLER PUSH1 0x4 DUP3 ADD MSTORE PUSH1 0x0 PUSH1 0x24 DUP3 ADD MSTORE PUSH1 0x1 PUSH1 0x1 PUSH1 0xA0 SHL SUB DUP3 AND SWAP1 PUSH4 0x91E1472B SWAP1 PUSH1 0x44 ADD PUSH1 0x20 PUSH1 0x40 MLOAD DUP1 DUP4 SUB DUP2 DUP7 DUP1 EXTCODESIZE ISZERO DUP1 ISZERO PUSH2 0x4BC JUMPI PUSH1 0x0 DUP1 REVERT JUMPDEST POP GAS STATICCALL ISZERO DUP1 ISZERO PUSH2 0x4D0 JUMPI RETURNDATASIZE PUSH1 0x0 DUP1 RETURNDATACOPY RETURNDATASIZE PUSH1 0x0 REVERT JUMPDEST POP POP POP POP PUSH1 0x40 MLOAD RETURNDATASIZE PUSH1 0x1F NOT PUSH1 0x1F DUP3 ADD AND DUP3 ADD DUP1 PUSH1 0x40 MSTORE POP DUP2 ADD SWAP1 PUSH2 0x4F4 SWAP2 SWAP1 PUSH2 0x10C9 JUMP JUMPDEST PUSH2 0x510 JUMPI PUSH1 0x40 MLOAD PUSH3 0x461BCD PUSH1 0xE5 SHL DUP2 MSTORE PUSH1 0x4 ADD PUSH2 0x370 SWAP1 PUSH2 0x1244 JUMP JUMPDEST POP PUSH1 0x1 DUP1 SLOAD PUSH1 0x1 PUSH1 0x1 PUSH1 0xA0 SHL SUB NOT AND PUSH1 0x1 PUSH1 0x1 PUSH1 0xA0 SHL SUB SWAP3 SWAP1 SWAP3 AND SWAP2 SWAP1 SWAP2 OR SWAP1 SSTORE JUMP JUMPDEST PUSH1 0x1 SLOAD PUSH1 0x40 MLOAD PUSH4 0x91E1472B PUSH1 0xE0 SHL DUP2 MSTORE CALLER PUSH1 0x4 DUP3 ADD MSTORE PUSH1 0x0 PUSH1 0x24 DUP3 ADD MSTORE PUSH1 0x1 PUSH1 0x1 PUSH1 0xA0 SHL SUB SWAP1 SWAP2 AND SWAP1 PUSH4 0x91E1472B SWAP1 PUSH1 0x44 ADD PUSH1 0x20 PUSH1 0x40 MLOAD DUP1 DUP4 SUB DUP2 DUP7 DUP1 EXTCODESIZE ISZERO DUP1 ISZERO PUSH2 0x57D JUMPI PUSH1 0x0 DUP1 REVERT JUMPDEST POP GAS STATICCALL ISZERO DUP1 ISZERO PUSH2 0x591 JUMPI RETURNDATASIZE PUSH1 0x0 DUP1 RETURNDATACOPY RETURNDATASIZE PUSH1 0x0 REVERT JUMPDEST POP POP POP POP PUSH1 0x40 MLOAD RETURNDATASIZE PUSH1 0x1F NOT PUSH1 0x1F DUP3 ADD AND DUP3 ADD DUP1 PUSH1 0x40 MSTORE POP DUP2 ADD SWAP1 PUSH2 0x5B5 SWAP2 SWAP1 PUSH2 0x10C9 JUMP JUMPDEST PUSH2 0x5D1 JUMPI PUSH1 0x40 MLOAD PUSH3 0x461BCD PUSH1 0xE5 SHL DUP2 MSTORE PUSH1 0x4 ADD PUSH2 0x370 SWAP1 PUSH2 0x1244 JUMP JUMPDEST PUSH1 0x2 SLOAD PUSH2 0x5E9 SWAP1 PUSH1 0x1 PUSH1 0x1 PUSH1 0xA0 SHL SUB AND DUP5 ADDRESS DUP8 PUSH2 0xCFB JUMP JUMPDEST PUSH1 0x1 PUSH1 0x1 PUSH1 0xA0 SHL SUB DUP2 AND PUSH1 0x0 SWAP1 DUP2 MSTORE PUSH1 0x3 PUSH1 0x20 MSTORE PUSH1 0x40 SWAP1 KECCAK256 DUP1 SLOAD NUMBER PUSH4 0xFFFFFFFF DUP2 AND PUSH8 0xFFFFFFFF00000000 SWAP1 SWAP3 AND SWAP2 SWAP1 SWAP2 OR PUSH1 0x1 PUSH1 0x1 PUSH1 0x60 SHL SUB DUP6 AND PUSH1 0x1 PUSH1 0x40 SHL DUP2 MUL SWAP2 SWAP1 SWAP2 OR DUP4 SSTORE PUSH2 0x63C SWAP1 DUP8 PUSH2 0x128B JUMP JUMPDEST PUSH2 0x646 SWAP2 SWAP1 PUSH2 0x1273 JUMP JUMPDEST DUP2 SLOAD PUSH4 0xFFFFFFFF SWAP2 SWAP1 SWAP2 AND PUSH5 0x100000000 MUL PUSH8 0xFFFFFFFF00000000 NOT SWAP1 SWAP2 AND OR SWAP1 SSTORE POP POP POP POP JUMP JUMPDEST PUSH1 0x0 SLOAD ISZERO PUSH2 0x68E JUMPI PUSH1 0x40 MLOAD PUSH3 0x461BCD PUSH1 0xE5 SHL DUP2 MSTORE PUSH1 0x4 ADD PUSH2 0x370 SWAP1 PUSH2 0x120D JUMP JUMPDEST PUSH1 0x1 PUSH1 0x0 SSTORE DUP2 PUSH2 0x6E0 JUMPI PUSH1 0x40 MLOAD PUSH3 0x461BCD PUSH1 0xE5 SHL DUP2 MSTORE PUSH1 0x20 PUSH1 0x4 DUP3 ADD MSTORE PUSH1 0x1A PUSH1 0x24 DUP3 ADD MSTORE PUSH32 0x4C6F673A4C505374616B696E674D696E696E67506F6F6C3A2130000000000000 PUSH1 0x44 DUP3 ADD MSTORE PUSH1 0x64 ADD PUSH2 0x370 JUMP JUMPDEST PUSH1 0x1 PUSH1 0x1 PUSH1 0xA0 SHL SUB DUP2 AND PUSH1 0x0 SWAP1 DUP2 MSTORE PUSH1 0x3 PUSH1 0x20 MSTORE PUSH1 0x40 SWAP1 KECCAK256 PUSH2 0x702 DUP2 CALLER PUSH2 0xB6E JUMP JUMPDEST PUSH2 0x70E DUP3 CALLER ADDRESS DUP7 PUSH2 0xCFB JUMP JUMPDEST DUP3 DUP2 PUSH1 0x2 ADD SLOAD PUSH2 0x71E SWAP2 SWAP1 PUSH2 0x1273 JUMP JUMPDEST PUSH1 0x2 DUP3 ADD SSTORE CALLER PUSH1 0x0 SWAP1 DUP2 MSTORE PUSH1 0x3 DUP3 ADD PUSH1 0x20 MSTORE PUSH1 0x40 SWAP1 KECCAK256 SLOAD PUSH2 0x740 SWAP1 DUP5 SWAP1 PUSH2 0x1273 JUMP JUMPDEST CALLER PUSH1 0x0 SWAP1 DUP2 MSTORE PUSH1 0x3 SWAP1 SWAP3 ADD PUSH1 0x20 MSTORE PUSH1 0x40 DUP3 KECCAK256 SSTORE DUP1 SSTORE POP POP JUMP JUMPDEST PUSH1 0x0 SLOAD ISZERO PUSH2 0x779 JUMPI PUSH1 0x40 MLOAD PUSH3 0x461BCD PUSH1 0xE5 SHL DUP2 MSTORE PUSH1 0x4 ADD PUSH2 0x370 SWAP1 PUSH2 0x120D JUMP JUMPDEST PUSH1 0x1 PUSH1 0x0 SWAP1 DUP2 SSTORE PUSH1 0x1 PUSH1 0x1 PUSH1 0xA0 SHL SUB DUP3 AND DUP2 MSTORE PUSH1 0x3 PUSH1 0x20 MSTORE PUSH1 0x40 SWAP1 KECCAK256 PUSH2 0x79F DUP2 CALLER PUSH2 0xB6E JUMP JUMPDEST POP POP PUSH1 0x0 DUP1 SSTORE JUMP JUMPDEST PUSH1 0x1 SLOAD PUSH1 0x1 PUSH1 0x1 PUSH1 0xA0 SHL SUB AND ISZERO PUSH2 0x800 JUMPI PUSH1 0x40 MLOAD PUSH3 0x461BCD PUSH1 0xE5 SHL DUP2 MSTORE PUSH1 0x20 PUSH1 0x4 DUP3 ADD MSTORE PUSH1 0x1B PUSH1 0x24 DUP3 ADD MSTORE PUSH32 0x4C6F673A50617261737365744261736521696E697469616C697A650000000000 PUSH1 0x44 DUP3 ADD MSTORE PUSH1 0x64 ADD PUSH2 0x370 JUMP JUMPDEST PUSH1 0x1 DUP1 SLOAD PUSH1 0x1 PUSH1 0x1 PUSH1 0xA0 SHL SUB NOT AND PUSH1 0x1 PUSH1 0x1 PUSH1 0xA0 SHL SUB SWAP3 SWAP1 SWAP3 AND SWAP2 SWAP1 SWAP2 OR SWAP1 SSTORE PUSH1 0x0 DUP1 SSTORE JUMP JUMPDEST PUSH1 0x1 PUSH1 0x1 PUSH1 0xA0 SHL SUB DUP3 AND PUSH1 0x0 SWAP1 DUP2 MSTORE PUSH1 0x3 PUSH1 0x20 MSTORE PUSH1 0x40 DUP2 KECCAK256 DUP2 PUSH2 0x849 DUP3 DUP6 PUSH2 0xE2B JUMP JUMPDEST SWAP8 SWAP7 POP POP POP POP POP POP POP JUMP JUMPDEST PUSH1 0x1 SLOAD PUSH1 0x40 MLOAD PUSH4 0x91E1472B PUSH1 0xE0 SHL DUP2 MSTORE CALLER PUSH1 0x4 DUP3 ADD MSTORE PUSH1 0x0 PUSH1 0x24 DUP3 ADD MSTORE PUSH1 0x1 PUSH1 0x1 PUSH1 0xA0 SHL SUB SWAP1 SWAP2 AND SWAP1 PUSH4 0x91E1472B SWAP1 PUSH1 0x44 ADD PUSH1 0x20 PUSH1 0x40 MLOAD DUP1 DUP4 SUB DUP2 DUP7 DUP1 EXTCODESIZE ISZERO DUP1 ISZERO PUSH2 0x89E JUMPI PUSH1 0x0 DUP1 REVERT JUMPDEST POP GAS STATICCALL ISZERO DUP1 ISZERO PUSH2 0x8B2 JUMPI RETURNDATASIZE PUSH1 0x0 DUP1 RETURNDATACOPY RETURNDATASIZE PUSH1 0x0 REVERT JUMPDEST POP POP POP POP PUSH1 0x40 MLOAD RETURNDATASIZE PUSH1 0x1F NOT PUSH1 0x1F DUP3 ADD AND DUP3 ADD DUP1 PUSH1 0x40 MSTORE POP DUP2 ADD SWAP1 PUSH2 0x8D6 SWAP2 SWAP1 PUSH2 0x10C9 JUMP JUMPDEST PUSH2 0x8F2 JUMPI PUSH1 0x40 MLOAD PUSH3 0x461BCD PUSH1 0xE5 SHL DUP2 MSTORE PUSH1 0x4 ADD PUSH2 0x370 SWAP1 PUSH2 0x1244 JUMP JUMPDEST PUSH1 0x2 DUP1 SLOAD PUSH1 0x1 PUSH1 0x1 PUSH1 0xA0 SHL SUB NOT AND PUSH1 0x1 PUSH1 0x1 PUSH1 0xA0 SHL SUB SWAP3 SWAP1 SWAP3 AND SWAP2 SWAP1 SWAP2 OR SWAP1 SSTORE JUMP JUMPDEST PUSH1 0x1 SLOAD PUSH1 0x40 MLOAD PUSH4 0x91E1472B PUSH1 0xE0 SHL DUP2 MSTORE CALLER PUSH1 0x4 DUP3 ADD MSTORE PUSH1 0x0 PUSH1 0x24 DUP3 ADD MSTORE PUSH1 0x1 PUSH1 0x1 PUSH1 0xA0 SHL SUB SWAP1 SWAP2 AND SWAP1 PUSH4 0x91E1472B SWAP1 PUSH1 0x44 ADD PUSH1 0x20 PUSH1 0x40 MLOAD DUP1 DUP4 SUB DUP2 DUP7 DUP1 EXTCODESIZE ISZERO DUP1 ISZERO PUSH2 0x95E JUMPI PUSH1 0x0 DUP1 REVERT JUMPDEST POP GAS STATICCALL ISZERO DUP1 ISZERO PUSH2 0x972 JUMPI RETURNDATASIZE PUSH1 0x0 DUP1 RETURNDATACOPY RETURNDATASIZE PUSH1 0x0 REVERT JUMPDEST POP POP POP POP PUSH1 0x40 MLOAD RETURNDATASIZE PUSH1 0x1F NOT PUSH1 0x1F DUP3 ADD AND DUP3 ADD DUP1 PUSH1 0x40 MSTORE POP DUP2 ADD SWAP1 PUSH2 0x996 SWAP2 SWAP1 PUSH2 0x10C9 JUMP JUMPDEST PUSH2 0x9B2 JUMPI PUSH1 0x40 MLOAD PUSH3 0x461BCD PUSH1 0xE5 SHL DUP2 MSTORE PUSH1 0x4 ADD PUSH2 0x370 SWAP1 PUSH2 0x1244 JUMP JUMPDEST PUSH1 0x1 PUSH1 0x1 PUSH1 0xA0 SHL SUB DUP2 AND PUSH1 0x0 SWAP1 DUP2 MSTORE PUSH1 0x3 PUSH1 0x20 MSTORE PUSH1 0x40 DUP2 KECCAK256 SWAP1 PUSH2 0x9D5 DUP3 ADDRESS PUSH2 0xE2B JUMP JUMPDEST POP PUSH1 0x1 DUP5 ADD SSTORE POP POP DUP1 SLOAD PUSH4 0xFFFFFFFF SWAP6 DUP7 AND PUSH8 0xFFFFFFFFFFFFFFFF NOT SWAP1 SWAP2 AND OR PUSH5 0x100000000 SWAP5 SWAP1 SWAP6 AND SWAP4 SWAP1 SWAP4 MUL SWAP4 SWAP1 SWAP4 OR PUSH8 0xFFFFFFFFFFFFFFFF AND PUSH1 0x1 PUSH1 0x1 PUSH1 0x60 SHL SUB SWAP2 SWAP1 SWAP2 AND PUSH1 0x1 PUSH1 0x40 SHL MUL OR SWAP1 SSTORE POP JUMP JUMPDEST PUSH1 0x0 PUSH1 0x12 DUP1 PUSH1 0x1 PUSH1 0x1 PUSH1 0xA0 SHL SUB DUP7 AND ISZERO PUSH2 0xAB4 JUMPI DUP6 PUSH1 0x1 PUSH1 0x1 PUSH1 0xA0 SHL SUB AND PUSH4 0x313CE567 PUSH1 0x40 MLOAD DUP2 PUSH4 0xFFFFFFFF AND PUSH1 0xE0 SHL DUP2 MSTORE PUSH1 0x4 ADD PUSH1 0x20 PUSH1 0x40 MLOAD DUP1 DUP4 SUB DUP2 DUP7 DUP1 EXTCODESIZE ISZERO DUP1 ISZERO PUSH2 0xA76 JUMPI PUSH1 0x0 DUP1 REVERT JUMPDEST POP GAS STATICCALL ISZERO DUP1 ISZERO PUSH2 0xA8A JUMPI RETURNDATASIZE PUSH1 0x0 DUP1 RETURNDATACOPY RETURNDATASIZE PUSH1 0x0 REVERT JUMPDEST POP POP POP POP PUSH1 0x40 MLOAD RETURNDATASIZE PUSH1 0x1F NOT PUSH1 0x1F DUP3 ADD AND DUP3 ADD DUP1 PUSH1 0x40 MSTORE POP DUP2 ADD SWAP1 PUSH2 0xAAE SWAP2 SWAP1 PUSH2 0x11B3 JUMP JUMPDEST PUSH1 0xFF AND SWAP2 POP JUMPDEST PUSH1 0x1 PUSH1 0x1 PUSH1 0xA0 SHL SUB DUP5 AND ISZERO PUSH2 0xB3A JUMPI DUP4 PUSH1 0x1 PUSH1 0x1 PUSH1 0xA0 SHL SUB AND PUSH4 0x313CE567 PUSH1 0x40 MLOAD DUP2 PUSH4 0xFFFFFFFF AND PUSH1 0xE0 SHL DUP2 MSTORE PUSH1 0x4 ADD PUSH1 0x20 PUSH1 0x40 MLOAD DUP1 DUP4 SUB DUP2 DUP7 DUP1 EXTCODESIZE ISZERO DUP1 ISZERO PUSH2 0xAFC JUMPI PUSH1 0x0 DUP1 REVERT JUMPDEST POP GAS STATICCALL ISZERO DUP1 ISZERO PUSH2 0xB10 JUMPI RETURNDATASIZE PUSH1 0x0 DUP1 RETURNDATACOPY RETURNDATASIZE PUSH1 0x0 REVERT JUMPDEST POP POP POP POP PUSH1 0x40 MLOAD RETURNDATASIZE PUSH1 0x1F NOT PUSH1 0x1F DUP3 ADD AND DUP3 ADD DUP1 PUSH1 0x40 MSTORE POP DUP2 ADD SWAP1 PUSH2 0xB34 SWAP2 SWAP1 PUSH2 0x11B3 JUMP JUMPDEST PUSH1 0xFF AND SWAP1 POP JUMPDEST PUSH2 0xB45 DUP3 PUSH1 0xA PUSH2 0x12EE JUMP JUMPDEST PUSH2 0xB50 DUP3 PUSH1 0xA PUSH2 0x12EE JUMP JUMPDEST PUSH2 0xB5A SWAP1 DUP8 PUSH2 0x1396 JUMP JUMPDEST PUSH2 0xB64 SWAP2 SWAP1 PUSH2 0x128B JUMP JUMPDEST SWAP7 SWAP6 POP POP POP POP POP POP JUMP JUMPDEST PUSH1 0x0 DUP1 PUSH1 0x0 PUSH2 0xB7D DUP6 DUP6 PUSH2 0xE2B JUMP JUMPDEST PUSH1 0x1 DUP9 ADD DUP3 SWAP1 SSTORE DUP8 SLOAD PUSH4 0xFFFFFFFF NOT AND PUSH4 0xFFFFFFFF DUP5 AND OR DUP9 SSTORE SWAP2 SWAP5 POP SWAP3 POP SWAP1 POP PUSH1 0x1 PUSH1 0x1 PUSH1 0xA0 SHL SUB DUP5 AND ISZERO PUSH2 0xBE0 JUMPI DUP1 ISZERO PUSH2 0xBBF JUMPI PUSH2 0xBBD DUP5 DUP3 PUSH2 0xF47 JUMP JUMPDEST POP JUMPDEST PUSH1 0x1 PUSH1 0x1 PUSH1 0xA0 SHL SUB DUP5 AND PUSH1 0x0 SWAP1 DUP2 MSTORE PUSH1 0x3 DUP7 ADD PUSH1 0x20 MSTORE PUSH1 0x40 SWAP1 KECCAK256 PUSH1 0x1 ADD DUP3 SWAP1 SSTORE JUMPDEST POP POP POP POP POP JUMP JUMPDEST PUSH1 0x40 DUP1 MLOAD PUSH1 0x1 PUSH1 0x1 PUSH1 0xA0 SHL SUB DUP5 DUP2 AND PUSH1 0x24 DUP4 ADD MSTORE PUSH1 0x44 DUP1 DUP4 ADD DUP6 SWAP1 MSTORE DUP4 MLOAD DUP1 DUP5 SUB SWAP1 SWAP2 ADD DUP2 MSTORE PUSH1 0x64 SWAP1 SWAP3 ADD DUP4 MSTORE PUSH1 0x20 DUP3 ADD DUP1 MLOAD PUSH1 0x1 PUSH1 0x1 PUSH1 0xE0 SHL SUB AND PUSH4 0xA9059CBB PUSH1 0xE0 SHL OR SWAP1 MSTORE SWAP2 MLOAD PUSH1 0x0 SWAP3 DUP4 SWAP3 SWAP1 DUP8 AND SWAP2 PUSH2 0xC43 SWAP2 SWAP1 PUSH2 0x11D4 JUMP JUMPDEST PUSH1 0x0 PUSH1 0x40 MLOAD DUP1 DUP4 SUB DUP2 PUSH1 0x0 DUP7 GAS CALL SWAP2 POP POP RETURNDATASIZE DUP1 PUSH1 0x0 DUP2 EQ PUSH2 0xC80 JUMPI PUSH1 0x40 MLOAD SWAP2 POP PUSH1 0x1F NOT PUSH1 0x3F RETURNDATASIZE ADD AND DUP3 ADD PUSH1 0x40 MSTORE RETURNDATASIZE DUP3 MSTORE RETURNDATASIZE PUSH1 0x0 PUSH1 0x20 DUP5 ADD RETURNDATACOPY PUSH2 0xC85 JUMP JUMPDEST PUSH1 0x60 SWAP2 POP JUMPDEST POP SWAP2 POP SWAP2 POP DUP2 DUP1 ISZERO PUSH2 0xCAF JUMPI POP DUP1 MLOAD ISZERO DUP1 PUSH2 0xCAF JUMPI POP DUP1 DUP1 PUSH1 0x20 ADD SWAP1 MLOAD DUP2 ADD SWAP1 PUSH2 0xCAF SWAP2 SWAP1 PUSH2 0x10C9 JUMP JUMPDEST PUSH2 0xBE0 JUMPI PUSH1 0x40 MLOAD PUSH3 0x461BCD PUSH1 0xE5 SHL DUP2 MSTORE PUSH1 0x20 PUSH1 0x4 DUP3 ADD MSTORE PUSH1 0x1F PUSH1 0x24 DUP3 ADD MSTORE PUSH32 0x5472616E7366657248656C7065723A205452414E534645525F4641494C454400 PUSH1 0x44 DUP3 ADD MSTORE PUSH1 0x64 ADD PUSH2 0x370 JUMP JUMPDEST PUSH1 0x40 DUP1 MLOAD PUSH1 0x1 PUSH1 0x1 PUSH1 0xA0 SHL SUB DUP6 DUP2 AND PUSH1 0x24 DUP4 ADD MSTORE DUP5 DUP2 AND PUSH1 0x44 DUP4 ADD MSTORE PUSH1 0x64 DUP1 DUP4 ADD DUP6 SWAP1 MSTORE DUP4 MLOAD DUP1 DUP5 SUB SWAP1 SWAP2 ADD DUP2 MSTORE PUSH1 0x84 SWAP1 SWAP3 ADD DUP4 MSTORE PUSH1 0x20 DUP3 ADD DUP1 MLOAD PUSH1 0x1 PUSH1 0x1 PUSH1 0xE0 SHL SUB AND PUSH4 0x23B872DD PUSH1 0xE0 SHL OR SWAP1 MSTORE SWAP2 MLOAD PUSH1 0x0 SWAP3 DUP4 SWAP3 SWAP1 DUP9 AND SWAP2 PUSH2 0xD5F SWAP2 SWAP1 PUSH2 0x11D4 JUMP JUMPDEST PUSH1 0x0 PUSH1 0x40 MLOAD DUP1 DUP4 SUB DUP2 PUSH1 0x0 DUP7 GAS CALL SWAP2 POP POP RETURNDATASIZE DUP1 PUSH1 0x0 DUP2 EQ PUSH2 0xD9C JUMPI PUSH1 0x40 MLOAD SWAP2 POP PUSH1 0x1F NOT PUSH1 0x3F RETURNDATASIZE ADD AND DUP3 ADD PUSH1 0x40 MSTORE RETURNDATASIZE DUP3 MSTORE RETURNDATASIZE PUSH1 0x0 PUSH1 0x20 DUP5 ADD RETURNDATACOPY PUSH2 0xDA1 JUMP JUMPDEST PUSH1 0x60 SWAP2 POP JUMPDEST POP SWAP2 POP SWAP2 POP DUP2 DUP1 ISZERO PUSH2 0xDCB JUMPI POP DUP1 MLOAD ISZERO DUP1 PUSH2 0xDCB JUMPI POP DUP1 DUP1 PUSH1 0x20 ADD SWAP1 MLOAD DUP2 ADD SWAP1 PUSH2 0xDCB SWAP2 SWAP1 PUSH2 0x10C9 JUMP JUMPDEST PUSH2 0xE23 JUMPI PUSH1 0x40 MLOAD PUSH3 0x461BCD PUSH1 0xE5 SHL DUP2 MSTORE PUSH1 0x20 PUSH1 0x4 DUP3 ADD MSTORE PUSH1 0x24 DUP1 DUP3 ADD MSTORE PUSH32 0x5472616E7366657248656C7065723A205452414E534645525F46524F4D5F4641 PUSH1 0x44 DUP3 ADD MSTORE PUSH4 0x12531151 PUSH1 0xE2 SHL PUSH1 0x64 DUP3 ADD MSTORE PUSH1 0x84 ADD PUSH2 0x370 JUMP JUMPDEST POP POP POP POP POP POP JUMP JUMPDEST DUP2 SLOAD PUSH1 0x0 SWAP1 DUP2 SWAP1 DUP2 SWAP1 DUP2 SWAP1 PUSH2 0xE4D SWAP1 PUSH5 0x100000000 SWAP1 DIV PUSH4 0xFFFFFFFF AND PUSH2 0x449 JUMP JUMPDEST PUSH1 0x2 DUP8 ADD SLOAD PUSH1 0x1 DUP9 ADD SLOAD DUP9 SLOAD SWAP3 SWAP4 POP SWAP1 SWAP2 PUSH4 0xFFFFFFFF AND PUSH1 0x0 DUP2 ISZERO PUSH2 0xE97 JUMPI DUP10 SLOAD PUSH1 0x1 PUSH1 0x40 SHL SWAP1 DIV PUSH1 0x1 PUSH1 0x1 PUSH1 0xC0 SHL SUB AND PUSH2 0xE88 DUP4 DUP8 PUSH2 0x13B5 JUMP JUMPDEST PUSH2 0xE92 SWAP2 SWAP1 PUSH2 0x1396 JUMP JUMPDEST PUSH2 0xE9A JUMP JUMPDEST PUSH1 0x0 JUMPDEST SWAP1 POP DUP5 SWAP8 POP DUP4 PUSH1 0x0 EQ PUSH2 0xED3 JUMPI DUP4 PUSH2 0xEBA DUP3 PUSH8 0xDE0B6B3A7640000 PUSH2 0x1396 JUMP JUMPDEST PUSH2 0xEC4 SWAP2 SWAP1 PUSH2 0x128B JUMP JUMPDEST PUSH2 0xECE SWAP1 DUP5 PUSH2 0x1273 JUMP JUMPDEST PUSH2 0xED5 JUMP JUMPDEST DUP3 JUMPDEST PUSH1 0x1 PUSH1 0x1 PUSH1 0xA0 SHL SUB DUP11 AND PUSH1 0x0 SWAP1 DUP2 MSTORE PUSH1 0x3 DUP13 ADD PUSH1 0x20 MSTORE PUSH1 0x40 SWAP1 KECCAK256 PUSH1 0x1 ADD SLOAD SWAP1 SWAP8 POP PUSH8 0xDE0B6B3A7640000 SWAP1 PUSH2 0xF0A SWAP1 DUP10 PUSH2 0x13B5 JUMP JUMPDEST PUSH1 0x1 PUSH1 0x1 PUSH1 0xA0 SHL SUB DUP12 AND PUSH1 0x0 SWAP1 DUP2 MSTORE PUSH1 0x3 DUP14 ADD PUSH1 0x20 MSTORE PUSH1 0x40 SWAP1 KECCAK256 SLOAD PUSH2 0xF2F SWAP2 SWAP1 PUSH2 0x1396 JUMP JUMPDEST PUSH2 0xF39 SWAP2 SWAP1 PUSH2 0x128B JUMP JUMPDEST SWAP6 POP POP POP POP POP POP SWAP3 POP SWAP3 POP SWAP3 JUMP JUMPDEST PUSH1 0x2 SLOAD PUSH1 0x40 MLOAD PUSH4 0x70A08231 PUSH1 0xE0 SHL DUP2 MSTORE ADDRESS PUSH1 0x4 DUP3 ADD MSTORE PUSH1 0x0 SWAP2 DUP3 SWAP2 PUSH1 0x1 PUSH1 0x1 PUSH1 0xA0 SHL SUB SWAP1 SWAP2 AND SWAP1 PUSH4 0x70A08231 SWAP1 PUSH1 0x24 ADD PUSH1 0x20 PUSH1 0x40 MLOAD DUP1 DUP4 SUB DUP2 DUP7 DUP1 EXTCODESIZE ISZERO DUP1 ISZERO PUSH2 0xF8F JUMPI PUSH1 0x0 DUP1 REVERT JUMPDEST POP GAS STATICCALL ISZERO DUP1 ISZERO PUSH2 0xFA3 JUMPI RETURNDATASIZE PUSH1 0x0 DUP1 RETURNDATACOPY RETURNDATASIZE PUSH1 0x0 REVERT JUMPDEST POP POP POP POP PUSH1 0x40 MLOAD RETURNDATASIZE PUSH1 0x1F NOT PUSH1 0x1F DUP3 ADD AND DUP3 ADD DUP1 PUSH1 0x40 MSTORE POP DUP2 ADD SWAP1 PUSH2 0xFC7 SWAP2 SWAP1 PUSH2 0x1101 JUMP JUMPDEST SWAP1 POP DUP1 DUP4 GT ISZERO PUSH2 0xFD5 JUMPI DUP1 SWAP3 POP JUMPDEST PUSH1 0x2 SLOAD PUSH2 0xFEC SWAP1 PUSH1 0x1 PUSH1 0x1 PUSH1 0xA0 SHL SUB AND DUP6 DUP6 PUSH2 0xBE7 JUMP JUMPDEST POP SWAP1 SWAP3 SWAP2 POP POP JUMP JUMPDEST DUP1 CALLDATALOAD PUSH1 0x1 PUSH1 0x1 PUSH1 0xA0 SHL SUB DUP2 AND DUP2 EQ PUSH2 0x100B JUMPI PUSH1 0x0 DUP1 REVERT JUMPDEST SWAP2 SWAP1 POP JUMP JUMPDEST DUP1 CALLDATALOAD PUSH4 0xFFFFFFFF DUP2 AND DUP2 EQ PUSH2 0x100B JUMPI PUSH1 0x0 DUP1 REVERT JUMPDEST DUP1 CALLDATALOAD PUSH1 0x1 PUSH1 0x1 PUSH1 0x60 SHL SUB DUP2 AND DUP2 EQ PUSH2 0x100B JUMPI PUSH1 0x0 DUP1 REVERT JUMPDEST PUSH1 0x0 PUSH1 0x20 DUP3 DUP5 SUB SLT ISZERO PUSH2 0x104C JUMPI DUP1 DUP2 REVERT JUMPDEST PUSH2 0x1055 DUP3 PUSH2 0xFF4 JUMP JUMPDEST SWAP4 SWAP3 POP POP POP JUMP JUMPDEST PUSH1 0x0 DUP1 PUSH1 0x40 DUP4 DUP6 SUB SLT ISZERO PUSH2 0x106E JUMPI DUP1 DUP2 REVERT JUMPDEST PUSH2 0x1077 DUP4 PUSH2 0xFF4 JUMP JUMPDEST SWAP2 POP PUSH2 0x1085 PUSH1 0x20 DUP5 ADD PUSH2 0xFF4 JUMP JUMPDEST SWAP1 POP SWAP3 POP SWAP3 SWAP1 POP JUMP JUMPDEST PUSH1 0x0 DUP1 PUSH1 0x0 PUSH1 0x60 DUP5 DUP7 SUB SLT ISZERO PUSH2 0x10A2 JUMPI DUP1 DUP2 REVERT JUMPDEST PUSH2 0x10AB DUP5 PUSH2 0xFF4 JUMP JUMPDEST SWAP3 POP PUSH1 0x20 DUP5 ADD CALLDATALOAD SWAP2 POP PUSH2 0x10C0 PUSH1 0x40 DUP6 ADD PUSH2 0xFF4 JUMP JUMPDEST SWAP1 POP SWAP3 POP SWAP3 POP SWAP3 JUMP JUMPDEST PUSH1 0x0 PUSH1 0x20 DUP3 DUP5 SUB SLT ISZERO PUSH2 0x10DA JUMPI DUP1 DUP2 REVERT JUMPDEST DUP2 MLOAD DUP1 ISZERO ISZERO DUP2 EQ PUSH2 0x1055 JUMPI DUP2 DUP3 REVERT JUMPDEST PUSH1 0x0 PUSH1 0x20 DUP3 DUP5 SUB SLT ISZERO PUSH2 0x10FA JUMPI DUP1 DUP2 REVERT JUMPDEST POP CALLDATALOAD SWAP2 SWAP1 POP JUMP JUMPDEST PUSH1 0x0 PUSH1 0x20 DUP3 DUP5 SUB SLT ISZERO PUSH2 0x1112 JUMPI DUP1 DUP2 REVERT JUMPDEST POP MLOAD SWAP2 SWAP1 POP JUMP JUMPDEST PUSH1 0x0 DUP1 PUSH1 0x40 DUP4 DUP6 SUB SLT ISZERO PUSH2 0x112B JUMPI DUP2 DUP3 REVERT JUMPDEST DUP3 CALLDATALOAD SWAP2 POP PUSH2 0x1085 PUSH1 0x20 DUP5 ADD PUSH2 0xFF4 JUMP JUMPDEST PUSH1 0x0 DUP1 PUSH1 0x0 DUP1 PUSH1 0x80 DUP6 DUP8 SUB SLT ISZERO PUSH2 0x1150 JUMPI DUP1 DUP2 REVERT JUMPDEST DUP5 CALLDATALOAD SWAP4 POP PUSH2 0x1160 PUSH1 0x20 DUP7 ADD PUSH2 0xFF4 JUMP JUMPDEST SWAP3 POP PUSH2 0x116E PUSH1 0x40 DUP7 ADD PUSH2 0x1024 JUMP JUMPDEST SWAP2 POP PUSH2 0x117C PUSH1 0x60 DUP7 ADD PUSH2 0xFF4 JUMP JUMPDEST SWAP1 POP SWAP3 SWAP6 SWAP2 SWAP5 POP SWAP3 POP JUMP JUMPDEST PUSH1 0x0 DUP1 PUSH1 0x0 DUP1 PUSH1 0x80 DUP6 DUP8 SUB SLT ISZERO PUSH2 0x119C JUMPI DUP4 DUP5 REVERT JUMPDEST PUSH2 0x11A5 DUP6 PUSH2 0x1010 JUMP JUMPDEST SWAP4 POP PUSH2 0x1160 PUSH1 0x20 DUP7 ADD PUSH2 0x1010 JUMP JUMPDEST PUSH1 0x0 PUSH1 0x20 DUP3 DUP5 SUB SLT ISZERO PUSH2 0x11C4 JUMPI DUP1 DUP2 REVERT JUMPDEST DUP2 MLOAD PUSH1 0xFF DUP2 AND DUP2 EQ PUSH2 0x1055 JUMPI DUP2 DUP3 REVERT JUMPDEST PUSH1 0x0 DUP3 MLOAD DUP2 JUMPDEST DUP2 DUP2 LT ISZERO PUSH2 0x11F4 JUMPI PUSH1 0x20 DUP2 DUP7 ADD DUP2 ADD MLOAD DUP6 DUP4 ADD MSTORE ADD PUSH2 0x11DA JUMP JUMPDEST DUP2 DUP2 GT ISZERO PUSH2 0x1202 JUMPI DUP3 DUP3 DUP6 ADD MSTORE JUMPDEST POP SWAP2 SWAP1 SWAP2 ADD SWAP3 SWAP2 POP POP JUMP JUMPDEST PUSH1 0x20 DUP1 DUP3 MSTORE PUSH1 0x19 SWAP1 DUP3 ADD MSTORE PUSH32 0x4C6F673A5061726173736574426173653A215F6C6F636B656400000000000000 PUSH1 0x40 DUP3 ADD MSTORE PUSH1 0x60 ADD SWAP1 JUMP JUMPDEST PUSH1 0x20 DUP1 DUP3 MSTORE PUSH1 0x15 SWAP1 DUP3 ADD MSTORE PUSH21 0x2637B39D2830B930B9B9B2BA2130B9B29D10B3B7BB PUSH1 0x59 SHL PUSH1 0x40 DUP3 ADD MSTORE PUSH1 0x60 ADD SWAP1 JUMP JUMPDEST PUSH1 0x0 DUP3 NOT DUP3 GT ISZERO PUSH2 0x1286 JUMPI PUSH2 0x1286 PUSH2 0x13CC JUMP JUMPDEST POP ADD SWAP1 JUMP JUMPDEST PUSH1 0x0 DUP3 PUSH2 0x12A6 JUMPI PUSH4 0x4E487B71 PUSH1 0xE0 SHL DUP2 MSTORE PUSH1 0x12 PUSH1 0x4 MSTORE PUSH1 0x24 DUP2 REVERT JUMPDEST POP DIV SWAP1 JUMP JUMPDEST PUSH1 0x1 DUP2 DUP2 JUMPDEST DUP1 DUP6 GT ISZERO PUSH2 0x12E6 JUMPI DUP2 PUSH1 0x0 NOT DIV DUP3 GT ISZERO PUSH2 0x12CC JUMPI PUSH2 0x12CC PUSH2 0x13CC JUMP JUMPDEST DUP1 DUP6 AND ISZERO PUSH2 0x12D9 JUMPI SWAP2 DUP2 MUL SWAP2 JUMPDEST SWAP4 DUP5 SHR SWAP4 SWAP1 DUP1 MUL SWAP1 PUSH2 0x12B0 JUMP JUMPDEST POP SWAP3 POP SWAP3 SWAP1 POP JUMP JUMPDEST PUSH1 0x0 PUSH2 0x1055 DUP4 DUP4 PUSH1 0x0 DUP3 PUSH2 0x1304 JUMPI POP PUSH1 0x1 PUSH2 0x45B JUMP JUMPDEST DUP2 PUSH2 0x1311 JUMPI POP PUSH1 0x0 PUSH2 0x45B JUMP JUMPDEST DUP2 PUSH1 0x1 DUP2 EQ PUSH2 0x1327 JUMPI PUSH1 0x2 DUP2 EQ PUSH2 0x1331 JUMPI PUSH2 0x134D JUMP JUMPDEST PUSH1 0x1 SWAP2 POP POP PUSH2 0x45B JUMP JUMPDEST PUSH1 0xFF DUP5 GT ISZERO PUSH2 0x1342 JUMPI PUSH2 0x1342 PUSH2 0x13CC JUMP JUMPDEST POP POP PUSH1 0x1 DUP3 SHL PUSH2 0x45B JUMP JUMPDEST POP PUSH1 0x20 DUP4 LT PUSH2 0x133 DUP4 LT AND PUSH1 0x4E DUP5 LT PUSH1 0xB DUP5 LT AND OR ISZERO PUSH2 0x1370 JUMPI POP DUP2 DUP2 EXP PUSH2 0x45B JUMP JUMPDEST PUSH2 0x137A DUP4 DUP4 PUSH2 0x12AB JUMP JUMPDEST DUP1 PUSH1 0x0 NOT DIV DUP3 GT ISZERO PUSH2 0x138E JUMPI PUSH2 0x138E PUSH2 0x13CC JUMP JUMPDEST MUL SWAP4 SWAP3 POP POP POP JUMP JUMPDEST PUSH1 0x0 DUP2 PUSH1 0x0 NOT DIV DUP4 GT DUP3 ISZERO ISZERO AND ISZERO PUSH2 0x13B0 JUMPI PUSH2 0x13B0 PUSH2 0x13CC JUMP JUMPDEST POP MUL SWAP1 JUMP JUMPDEST PUSH1 0x0 DUP3 DUP3 LT ISZERO PUSH2 0x13C7 JUMPI PUSH2 0x13C7 PUSH2 0x13CC JUMP JUMPDEST POP SUB SWAP1 JUMP JUMPDEST PUSH4 0x4E487B71 PUSH1 0xE0 SHL PUSH1 0x0 MSTORE PUSH1 0x11 PUSH1 0x4 MSTORE PUSH1 0x24 PUSH1 0x0 REVERT INVALID LOG2 PUSH5 0x6970667358 0x22 SLT KECCAK256 MSTORE GASLIMIT MOD 0xC7 SWAP2 CALLDATALOAD DIV DIV SMOD 0x4E MLOAD PUSH11 0xDA39414051A9174540E090 GT RETURNDATACOPY CALLCODE 0xAD MUL 0x4D EQ 0xC4 0xE9 PUSH5 0x736F6C6343 STOP ADDMOD DIV STOP CALLER "
		},
		"gasEstimates": {
			"creation": {
				"codeDepositCost": "1028800",
				"executionCost": "1067",
				"totalCost": "1029867"
			},
			"external": {
				"_governance()": "1127",
				"_rewardsToken()": "1126",
				"addToken(uint256,address,uint96,address)": "infinite",
				"getAccountInfo(address,address)": "infinite",
				"getAccountReward(address,address)": "infinite",
				"getBalance(address,address)": "infinite",
				"getBlock(uint256)": "356",
				"getChannelInfo(address)": "3047",
				"getDecimalConversion(address,uint256,address)": "infinite",
				"getReward(address)": "infinite",
				"initialize(address)": "27082",
				"setChannelInfo(uint32,uint32,uint96,address)": "infinite",
				"setRewardsToken(address)": "infinite",
				"stake(uint256,address)": "infinite",
				"update(address)": "infinite",
				"withdraw(uint256,address)": "infinite"
			},
			"internal": {
				"_calcReward(struct LPStakingMiningPool.Channel storage pointer,address)": "5496",
				"_getReward(struct LPStakingMiningPool.Channel storage pointer,address)": "infinite",
				"_safeAsetTransfer(address,uint256)": "infinite"
			}
		},
		"methodIdentifiers": {
			"_governance()": "1c2f3e3d",
			"_rewardsToken()": "83beae2e",
			"addToken(uint256,address,uint96,address)": "213794e8",
			"getAccountInfo(address,address)": "6332fef6",
			"getAccountReward(address,address)": "d3314f3c",
			"getBalance(address,address)": "d4fac45d",
			"getBlock(uint256)": "04c07569",
			"getChannelInfo(address)": "9d955d79",
			"getDecimalConversion(address,uint256,address)": "f9081591",
			"getReward(address)": "c00007b0",
			"initialize(address)": "c4d66de8",
			"setChannelInfo(uint32,uint32,uint96,address)": "e03452df",
			"setRewardsToken(address)": "de320cc1",
			"stake(uint256,address)": "7acb7757",
			"update(address)": "1c1b8772",
			"withdraw(uint256,address)": "00f714ce"
		}
	},
	"abi": [
		{
			"inputs": [],
			"name": "_governance",
			"outputs": [
				{
					"internalType": "address",
					"name": "",
					"type": "address"
				}
			],
			"stateMutability": "view",
			"type": "function"
		},
		{
			"inputs": [],
			"name": "_rewardsToken",
			"outputs": [
				{
					"internalType": "address",
					"name": "",
					"type": "address"
				}
			],
			"stateMutability": "view",
			"type": "function"
		},
		{
			"inputs": [
				{
					"internalType": "uint256",
					"name": "tokenAmount",
					"type": "uint256"
				},
				{
					"internalType": "address",
					"name": "from",
					"type": "address"
				},
				{
					"internalType": "uint96",
					"name": "rewardRate",
					"type": "uint96"
				},
				{
					"internalType": "address",
					"name": "stakingToken",
					"type": "address"
				}
			],
			"name": "addToken",
			"outputs": [],
			"stateMutability": "nonpayable",
			"type": "function"
		},
		{
			"inputs": [
				{
					"internalType": "address",
					"name": "stakingToken",
					"type": "address"
				},
				{
					"internalType": "address",
					"name": "account",
					"type": "address"
				}
			],
			"name": "getAccountInfo",
			"outputs": [
				{
					"internalType": "uint256",
					"name": "balance",
					"type": "uint256"
				},
				{
					"internalType": "uint256",
					"name": "userRewardPerTokenPaid",
					"type": "uint256"
				}
			],
			"stateMutability": "view",
			"type": "function"
		},
		{
			"inputs": [
				{
					"internalType": "address",
					"name": "stakingToken",
					"type": "address"
				},
				{
					"internalType": "address",
					"name": "account",
					"type": "address"
				}
			],
			"name": "getAccountReward",
			"outputs": [
				{
					"internalType": "uint256",
					"name": "",
					"type": "uint256"
				}
			],
			"stateMutability": "view",
			"type": "function"
		},
		{
			"inputs": [
				{
					"internalType": "address",
					"name": "stakingToken",
					"type": "address"
				},
				{
					"internalType": "address",
					"name": "account",
					"type": "address"
				}
			],
			"name": "getBalance",
			"outputs": [
				{
					"internalType": "uint256",
					"name": "",
					"type": "uint256"
				}
			],
			"stateMutability": "view",
			"type": "function"
		},
		{
			"inputs": [
				{
					"internalType": "uint256",
					"name": "endBlock",
					"type": "uint256"
				}
			],
			"name": "getBlock",
			"outputs": [
				{
					"internalType": "uint256",
					"name": "",
					"type": "uint256"
				}
			],
			"stateMutability": "view",
			"type": "function"
		},
		{
			"inputs": [
				{
					"internalType": "address",
					"name": "stakingToken",
					"type": "address"
				}
			],
			"name": "getChannelInfo",
			"outputs": [
				{
					"internalType": "uint256",
					"name": "lastUpdateBlock",
					"type": "uint256"
				},
				{
					"internalType": "uint256",
					"name": "endBlock",
					"type": "uint256"
				},
				{
					"internalType": "uint256",
					"name": "rewardRate",
					"type": "uint256"
				},
				{
					"internalType": "uint256",
					"name": "rewardPerTokenStored",
					"type": "uint256"
				},
				{
					"internalType": "uint256",
					"name": "totalSupply",
					"type": "uint256"
				}
			],
			"stateMutability": "view",
			"type": "function"
		},
		{
			"inputs": [
				{
					"internalType": "address",
					"name": "inputToken",
					"type": "address"
				},
				{
					"internalType": "uint256",
					"name": "inputTokenAmount",
					"type": "uint256"
				},
				{
					"internalType": "address",
					"name": "outputToken",
					"type": "address"
				}
			],
			"name": "getDecimalConversion",
			"outputs": [
				{
					"internalType": "uint256",
					"name": "",
					"type": "uint256"
				}
			],
			"stateMutability": "view",
			"type": "function"
		},
		{
			"inputs": [
				{
					"internalType": "address",
					"name": "stakingToken",
					"type": "address"
				}
			],
			"name": "getReward",
			"outputs": [],
			"stateMutability": "nonpayable",
			"type": "function"
		},
		{
			"inputs": [
				{
					"internalType": "address",
					"name": "governance",
					"type": "address"
				}
			],
			"name": "initialize",
			"outputs": [],
			"stateMutability": "nonpayable",
			"type": "function"
		},
		{
			"inputs": [
				{
					"internalType": "uint32",
					"name": "lastUpdateBlock",
					"type": "uint32"
				},
				{
					"internalType": "uint32",
					"name": "endBlock",
					"type": "uint32"
				},
				{
					"internalType": "uint96",
					"name": "rewardRate",
					"type": "uint96"
				},
				{
					"internalType": "address",
					"name": "stakingToken",
					"type": "address"
				}
			],
			"name": "setChannelInfo",
			"outputs": [],
			"stateMutability": "nonpayable",
			"type": "function"
		},
		{
			"inputs": [
				{
					"internalType": "address",
					"name": "add",
					"type": "address"
				}
			],
			"name": "setRewardsToken",
			"outputs": [],
			"stateMutability": "nonpayable",
			"type": "function"
		},
		{
			"inputs": [
				{
					"internalType": "uint256",
					"name": "amount",
					"type": "uint256"
				},
				{
					"internalType": "address",
					"name": "stakingToken",
					"type": "address"
				}
			],
			"name": "stake",
			"outputs": [],
			"stateMutability": "nonpayable",
			"type": "function"
		},
		{
			"inputs": [
				{
					"internalType": "address",
					"name": "newGovernance",
					"type": "address"
				}
			],
			"name": "update",
			"outputs": [],
			"stateMutability": "nonpayable",
			"type": "function"
		},
		{
			"inputs": [
				{
					"internalType": "uint256",
					"name": "amount",
					"type": "uint256"
				},
				{
					"internalType": "address",
					"name": "stakingToken",
					"type": "address"
				}
			],
			"name": "withdraw",
			"outputs": [],
			"stateMutability": "nonpayable",
			"type": "function"
		}
	]
}