{
	"data": {
		"bytecode": {
			"linkReferences": {},
			"object": "608060405234801561001057600080fd5b50613e0d806100206000396000f3fe6080604052600436106102255760003560e01c806390f5cb0911610123578063cb919485116100ab578063f1a4252e1161006f578063f1a4252e14610764578063f27ac4d91461079d578063f9081591146107b0578063f9633930146107d0578063fb606f92146107f557600080fd5b8063cb919485146106c8578063d0d5665b146106e8578063ee719bc814610706578063efdecaef14610724578063f042fc6b1461074457600080fd5b8063a831407f116100f2578063a831407f146105d6578063a94c487e1461060c578063a99c53b31461062c578063c2862d6714610688578063c4d66de8146106a857600080fd5b806390f5cb0914610512578063983825de1461056c5780639cf2aa2a1461057f578063a240b9a8146105c357600080fd5b80633a97bb25116101b15780635d6f1533116101755780635d6f15331461045f5780635e0ec98f1461047f57806378a353201461049f5780637ff4d02f146104b2578063800c2b39146104d257600080fd5b80633a97bb25146103d05780633ac68750146103e35780633cf045a4146104035780633f8498201461042157806342d177451461044157600080fd5b8063219f7753116101f8578063219f7753146102fd57806325404c4f1461031057806328107acf14610370578063306aceda146103905780633376cb37146103b057600080fd5b80630daa6d111461022a5780631c1b87721461024c5780631c2f3e3d1461026c5780631e0f6725146102a9575b600080fd5b34801561023657600080fd5b5061024a610245366004613854565b610815565b005b34801561025857600080fd5b5061024a6102673660046135f8565b6108ec565b34801561027857600080fd5b5060015461028c906001600160a01b031681565b6040516001600160a01b0390911681526020015b60405180910390f35b3480156102b557600080fd5b506102ef6102c43660046135f8565b6001600160a01b0316600090815260046020526040902054600160601b90046001600160501b031690565b6040519081526020016102a0565b61024a61030b366004613653565b6109bf565b34801561031c57600080fd5b5061033061032b36600461361b565b610dc9565b6040805195865260208601949094526001600160a01b03909216928401929092526001600160581b0390911660608301521515608082015260a0016102a0565b34801561037c57600080fd5b5061024a61038b3660046137fe565b610ed5565b34801561039c57600080fd5b5061024a6103ab366004613a42565b610fba565b3480156103bc57600080fd5b5061024a6103cb366004613a42565b611081565b61024a6103de36600461378d565b611148565b3480156103ef57600080fd5b506102ef6103fe366004613988565b611631565b34801561040f57600080fd5b506006546001600160a01b031661028c565b34801561042d57600080fd5b5061024a61043c3660046135f8565b6116d9565b34801561044d57600080fd5b506002546001600160a01b031661028c565b34801561046b57600080fd5b5061024a61047a3660046137ca565b61179a565b34801561048b57600080fd5b5061024a61049a366004613829565b611876565b61024a6104ad3660046136c5565b611958565b3480156104be57600080fd5b506102ef6104cd3660046139f0565b611c92565b3480156104de57600080fd5b506104f26104ed366004613731565b611cd8565b6040805194855260208501939093529183015260608201526080016102a0565b34801561051e57600080fd5b5061055661052d3660046135f8565b6001600160a01b0316600090815260046020526040902054600160b01b900464ffffffffff1690565b60405164ffffffffff90911681526020016102a0565b61024a61057a3660046136c5565b611f47565b34801561058b57600080fd5b5061055661059a3660046135f8565b6001600160a01b0316600090815260046020526040902054600160d81b900464ffffffffff1690565b61024a6105d13660046136c5565b61234e565b3480156105e257600080fd5b506102ef6105f13660046135f8565b6001600160a01b031660009081526005602052604090205490565b34801561061857600080fd5b5061024a6106273660046135f8565b6126a7565b34801561063857600080fd5b506106706106473660046135f8565b6001600160a01b031660009081526004602052604090205461010090046001600160581b031690565b6040516001600160581b0390911681526020016102a0565b34801561069457600080fd5b5061024a6106a3366004613698565b612768565b3480156106b457600080fd5b5061024a6106c33660046135f8565b612832565b3480156106d457600080fd5b506102ef6106e336600461361b565b6128b1565b3480156106f457600080fd5b506007546001600160a01b031661028c565b34801561071257600080fd5b506003546001600160a01b031661028c565b34801561073057600080fd5b5061024a61073f3660046137ca565b6128e2565b34801561075057600080fd5b5061024a61075f3660046138c7565b6129c0565b34801561077057600080fd5b50600254600160a01b90046001600160601b03165b6040516001600160601b0390911681526020016102a0565b61024a6107ab3660046136c5565b612ad1565b3480156107bc57600080fd5b506102ef6107cb3660046136f0565b612e89565b3480156107dc57600080fd5b50600354600160a01b90046001600160601b0316610785565b34801561080157600080fd5b5061024a61081036600461361b565b612fce565b6001546040516391e1472b60e01b81526001600160a01b03909116906391e1472b90610848903390600090600401613a95565b60206040518083038186803b15801561086057600080fd5b505afa158015610874573d6000803e3d6000fd5b505050506040513d601f19601f8201168201806040525081019061089891906138ab565b6108bd5760405162461bcd60e51b81526004016108b490613b8f565b60405180910390fd5b6001600160601b03928316600160a01b9081026001600160a01b03958616176002559216909102911617600355565b6001546001600160a01b03163381148061098057506040516391e1472b60e01b81526001600160a01b038216906391e1472b90610930903390600090600401613a95565b60206040518083038186803b15801561094857600080fd5b505afa15801561095c573d6000803e3d6000fd5b505050506040513d601f19601f8201168201806040525081019061098091906138ab565b61099c5760405162461bcd60e51b81526004016108b490613b8f565b50600180546001600160a01b0319166001600160a01b0392909216919091179055565b600354600160a01b90046001600160601b03166109ee5760405162461bcd60e51b81526004016108b490613bf5565b60005415610a0e5760405162461bcd60e51b81526004016108b490613b21565b600160009081556001600160a01b038516815260046020908152604091829020825160a081018452905460ff811615158083526001600160581b03610100830416938301939093526001600160501b03600160601b8204169382019390935264ffffffffff600160b01b840481166060830152600160d81b9093049092166080830152610aad5760405162461bcd60e51b81526004016108b490613bbe565b6001600160a01b03808616600090815260056020908152604080832093881683526001840190915290205480610af55760405162461bcd60e51b81526004016108b490613b58565b600082610b03600184613d64565b81548110610b2157634e487b7160e01b600052603260045260246000fd5b6000918252602090912060039091020160018101548154919250908715801590610b4b5750808811155b610b675760405162461bcd60e51b81526004016108b490613aea565b600080610b748c3461309e565b60408051608081018252885481526001890154602082015260028901546001600160a01b03811682840152600160a01b90046001600160581b0316606080830191909152918c0151918c0151939550919350610bd392859185916129c0565b6000610be2620186a084613d45565b60808a015164ffffffffff16610bf8848e613d45565b610c029190613d45565b610c0c9190613c3a565b905089811115610c6a5760405162461bcd60e51b815260206004820152602360248201527f4c6f673a4d6f727467616765506f6f6c3a2170546f6b656e416d6f756e744c696044820152621b5a5d60ea1b60648201526084016108b4565b600254600754610c89916001600160a01b03908116913391168461313d565b600084610c968d88613d45565b610ca09190613c3a565b6007546040516245b14b60e71b8152600481018390529192506001600160a01b0316906322d8a58090602401600060405180830381600087803b158015610ce657600080fd5b505af1158015610cfa573d6000803e3d6000fd5b505050508b85610d0a9190613d64565b8755610d168187613d64565b8760010181905550600080516020613db88339815191528e8860000154896001015487878c60020160149054906101000a90046001600160581b0316604051610d6496959493929190613aae565b60405180910390a18654610d8c57600060018801556002870180546001600160f81b03191690555b6001600160a01b038e1615610dab57610da68e338e61326d565b610db5565b610db5338d61338a565b505060008055505050505050505050505050565b6001600160a01b0380831660009081526005602090815260408083209385168352600184019091528120549091829182918291829190610e1b5760008060008060009550955095509550955050610ecb565b6001600160a01b0387166000908152600180830160205260408220548391610e4291613d64565b81548110610e6057634e487b7160e01b600052603260045260246000fd5b600091825260209182902060408051608081018252600390930290910180548084526001808301549585018690526002909201546001600160a01b0381169385018490526001600160581b03600160a01b9091041660609094018490529a5092985096509450925050505b9295509295909350565b6001546040516391e1472b60e01b81526001600160a01b03909116906391e1472b90610f08903390600090600401613a95565b60206040518083038186803b158015610f2057600080fd5b505afa158015610f34573d6000803e3d6000fd5b505050506040513d601f19601f82011682018060405250810190610f5891906138ab565b610f745760405162461bcd60e51b81526004016108b490613b8f565b6001600160a01b03909116600090815260046020526040902080546001600160501b03909216600160601b0269ffffffffffffffffffff60601b19909216919091179055565b6001546040516391e1472b60e01b81526001600160a01b03909116906391e1472b90610fed903390600090600401613a95565b60206040518083038186803b15801561100557600080fd5b505afa158015611019573d6000803e3d6000fd5b505050506040513d601f19601f8201168201806040525081019061103d91906138ab565b6110595760405162461bcd60e51b81526004016108b490613b8f565b600380546001600160601b03909216600160a01b026001600160a01b03909216919091179055565b6001546040516391e1472b60e01b81526001600160a01b03909116906391e1472b906110b4903390600090600401613a95565b60206040518083038186803b1580156110cc57600080fd5b505afa1580156110e0573d6000803e3d6000fd5b505050506040513d601f19601f8201168201806040525081019061110491906138ab565b6111205760405162461bcd60e51b81526004016108b490613b8f565b600280546001600160601b03909216600160a01b026001600160a01b03909216919091179055565b6003546001600160601b03600160a01b909104166001146111a65760405162461bcd60e51b81526020600482015260186024820152774c6f673a4d6f727467616765506f6f6c3a2161637469766560401b60448201526064016108b4565b600054156111c65760405162461bcd60e51b81526004016108b490613b21565b600160009081556001600160a01b038416815260046020908152604091829020825160a081018452905460ff811615158083526001600160581b03610100830416938301939093526001600160501b03600160601b8204169382019390935264ffffffffff600160b01b840481166060830152600160d81b90930490921660808301526112655760405162461bcd60e51b81526004016108b490613bbe565b6000826001600160581b0316118015611294575080602001516001600160581b0316826001600160581b031611155b6112e05760405162461bcd60e51b815260206004820152601860248201527f4c6f673a4d6f727467616765506f6f6c3a72617465213d30000000000000000060448201526064016108b4565b600083116113305760405162461bcd60e51b815260206004820152601a60248201527f4c6f673a4d6f727467616765506f6f6c3a616d6f756e74213d3000000000000060448201526064016108b4565b6001600160a01b038416600090815260056020908152604080832033845260018101909252909120548061137b57815460019081018084553360009081529184016020526040909120555b33600090815260018084016020526040822054849161139991613d64565b815481106113b757634e487b7160e01b600052603260045260246000fd5b600091825260208220600160039092020190810154815491935091806001600160a01b038b1615611402576113ee8b33308d61313d565b6113f88b3461309e565b909250905061146b565b893410156114525760405162461bcd60e51b815260206004820152601b60248201527f4c6f673a4d6f727467616765506f6f6c3a216d73672e76616c7565000000000060448201526064016108b4565b6114658b6114608c34613d64565b61309e565b90925090505b60408051608081018252865481526001870154602082015260028701546001600160a01b03811692820192909252600160a01b9091046001600160581b03166060808301919091528901516114c4919084908490613458565b60006114d3620186a084613d45565b6001600160581b038b166114e7848e613d45565b6114f19190613d45565b6114fb9190613c3a565b6002546040516313b1db0b60e31b8152600481018390523360248201529192506001600160a01b031690639d8ed85890604401600060405180830381600087803b15801561154857600080fd5b505af115801561155c573d6000803e3d6000fd5b505050508a8461156c9190613c22565b86556115788186613c22565b600187018190556002870180546001600160a01b031916436001600160a01b031617905586546115a9918585611c92565b8660020160146101000a8154816001600160581b0302191690836001600160581b03160217905550600080516020613db88339815191528c8760000154886001015486868b60020160149054906101000a90046001600160581b031660405161161796959493929190613aae565b60405180910390a150506000805550505050505050505050565b6000806116476001600160a01b03871643613d64565b64ffffffffff841688620186a061165e888a613c22565b611669906002613d45565b6116739190613c22565b61167d9190613d45565b6116879190613d45565b6116919190613d45565b600254909150600090600160a01b90046001600160601b03166116b7620186a080613d45565b6116c19190613d45565b90506116cd8183613c3a565b98975050505050505050565b6001546040516391e1472b60e01b81526001600160a01b03909116906391e1472b9061170c903390600090600401613a95565b60206040518083038186803b15801561172457600080fd5b505afa158015611738573d6000803e3d6000fd5b505050506040513d601f19601f8201168201806040525081019061175c91906138ab565b6117785760405162461bcd60e51b81526004016108b490613b8f565b600680546001600160a01b0319166001600160a01b0392909216919091179055565b6001546040516391e1472b60e01b81526001600160a01b03909116906391e1472b906117cd903390600090600401613a95565b60206040518083038186803b1580156117e557600080fd5b505afa1580156117f9573d6000803e3d6000fd5b505050506040513d601f19601f8201168201806040525081019061181d91906138ab565b6118395760405162461bcd60e51b81526004016108b490613b8f565b6001600160a01b039091166000908152600460205260409020805464ffffffffff909216600160d81b026001600160d81b03909216919091179055565b6001546040516391e1472b60e01b81526001600160a01b03909116906391e1472b906118a9903390600090600401613a95565b60206040518083038186803b1580156118c157600080fd5b505afa1580156118d5573d6000803e3d6000fd5b505050506040513d601f19601f820116820180604052508101906118f991906138ab565b6119155760405162461bcd60e51b81526004016108b490613b8f565b6001600160a01b03909116600090815260046020526040902080546001600160581b03909216610100026bffffffffffffffffffffff0019909216919091179055565b600354600160a01b90046001600160601b03166119875760405162461bcd60e51b81526004016108b490613bf5565b600054156119a75760405162461bcd60e51b81526004016108b490613b21565b600160009081556001600160a01b038316815260046020908152604091829020825160a081018452905460ff811615158083526001600160581b03610100830416938301939093526001600160501b03600160601b8204169382019390935264ffffffffff600160b01b840481166060830152600160d81b9093049092166080830152611a465760405162461bcd60e51b81526004016108b490613bbe565b6001600160a01b0383166000908152600560209081526040808320338452600181019092529091205480611a8c5760405162461bcd60e51b81526004016108b490613b58565b600082611a9a600184613d64565b81548110611ab857634e487b7160e01b600052603260045260246000fd5b6000918252602090912060039091020160018101548154919250908615801590611ae25750818711155b611afe5760405162461bcd60e51b81526004016108b490613aea565b600080611b0b8a3461309e565b60408051608081018252885481526001890154602082015260028901546001600160a01b03811692820192909252600160a01b9091046001600160581b03166060808301919091528b0151929450909250611b699184908490613458565b611b738985613d64565b600186018190556002860180546001600160a01b031916436001600160a01b0316179055611ba49084908484611c92565b8560020160146101000a8154816001600160581b0302191690836001600160581b03160217905550600080516020613db88339815191528a8660000154876001015485858a60020160149054906101000a90046001600160581b0316604051611c1296959493929190613aae565b60405180910390a1600254611c32906001600160a01b031633308c61313d565b6002546040516346f61ed560e11b8152600481018b90523060248201526001600160a01b0390911690638dec3daa90604401600060405180830381600087803b158015611c7e57600080fd5b505af1158015610db5573d6000803e3d6000fd5b600084611ca157506000611cd0565b611cab8583613d45565b620186a0611cb98587613d45565b611cc39190613d45565b611ccd9190613c3a565b90505b949350505050565b6001600160a01b03808616600090815260056020908152604080832093851683526001840190915281205490918291829182918a9190611d275760008060008095509550955095505050611f3b565b6001600160a01b0387166000908152600180830160205260408220548391611d4e91613d64565b81548110611d6c57634e487b7160e01b600052603260045260246000fd5b60009182526020918290206040805160808101825260039093029091018054808452600182015494840194909452600201546001600160a01b038116918301919091526001600160581b03600160a01b9091041660608201529150158015611dd657506020810151155b15611df1576000806000809650965096509650505050611f3b565b600354600254600091611e12916001600160a01b03918216918e9116612e89565b60208301516040840151606085015185519394508f93611e709392916001600160581b031690611e4490848789611c92565b6001600160a01b038a16600090815260046020526040902054600160b01b900464ffffffffff16611631565b9850611e9183600001518a8560200151611e8a9190613c22565b8385611c92565b97506001600160581b038b16808910611eb1576000975060009650611f34565b611ebb8382613d45565b620186a0838660200151611ecf9190613d45565b611ed99190613d45565b611ee39190613c3a565b8451611eef9190613d64565b6020850151909850611f0483620186a0613d45565b85518390611f13908790613d45565b611f1d9190613d45565b611f279190613c3a565b611f319190613d64565b96505b5050505050505b95509550955095915050565b6003546001600160601b03600160a01b90910416600114611fa55760405162461bcd60e51b81526020600482015260186024820152774c6f673a4d6f727467616765506f6f6c3a2161637469766560401b60448201526064016108b4565b60005415611fc55760405162461bcd60e51b81526004016108b490613b21565b600160009081556001600160a01b038316815260046020908152604091829020825160a081018452905460ff811615158083526001600160581b03610100830416938301939093526001600160501b03600160601b8204169382019390935264ffffffffff600160b01b840481166060830152600160d81b90930490921660808301526120645760405162461bcd60e51b81526004016108b490613bbe565b600082116120845760405162461bcd60e51b81526004016108b490613aea565b6001600160a01b03831660009081526005602090815260408083203384526001810190925290912054806120ca5760405162461bcd60e51b81526004016108b490613b58565b6000826120d8600184613d64565b815481106120f657634e487b7160e01b600052603260045260246000fd5b6000918252602090912060039091020160018101548154919250908061215e5760405162461bcd60e51b815260206004820181905260248201527f4c6f673a4d6f727467616765506f6f6c3a216d6f72746761676541737365747360448201526064016108b4565b60008061216b8a3461309e565b60408051608081018252885481526001890154602082015260028901546001600160a01b03811692820192909252600160a01b9091046001600160581b03166060808301919091528b01519294509092506121c99184908490613458565b6121d38985613c22565b600186018190556002860180546001600160a01b031916436001600160a01b03161790556000906122079085908585611c92565b905088602001516001600160581b03168111156122625760405162461bcd60e51b81526020600482015260196024820152784c6f673a4d6f727467616765506f6f6c3a216d61785261746560381b60448201526064016108b4565b808660020160146101000a8154816001600160581b0302191690836001600160581b03160217905550600080516020613db88339815191528b8760000154886001015486868b60020160149054906101000a90046001600160581b03166040516122d196959493929190613aae565b60405180910390a16002546040516313b1db0b60e31b8152600481018c90523360248201526001600160a01b0390911690639d8ed85890604401600060405180830381600087803b15801561232557600080fd5b505af1158015612339573d6000803e3d6000fd5b50506000805550505050505050505050505050565b600354600160a01b90046001600160601b031661237d5760405162461bcd60e51b81526004016108b490613bf5565b6000541561239d5760405162461bcd60e51b81526004016108b490613b21565b600160009081556001600160a01b038316815260046020908152604091829020825160a081018452905460ff811615158083526001600160581b03610100830416938301939093526001600160501b03600160601b8204169382019390935264ffffffffff600160b01b840481166060830152600160d81b909304909216608083015261243c5760405162461bcd60e51b81526004016108b490613bbe565b6000821161245c5760405162461bcd60e51b81526004016108b490613aea565b6001600160a01b03831660009081526005602090815260408083203384526001810190925290912054806124a757815460019081018084553360009081529184016020526040909120555b3360009081526001808401602052604082205484916124c591613d64565b815481106124e357634e487b7160e01b600052603260045260246000fd5b600091825260208220600160039092020190810154815491935091806001600160a01b038a161561252e5761251a8a33308c61313d565b6125248a3461309e565b9092509050612592565b8834101561257e5760405162461bcd60e51b815260206004820152601b60248201527f4c6f673a4d6f727467616765506f6f6c3a216d73672e76616c7565000000000060448201526064016108b4565b61258c8a6114608b34613d64565b90925090505b60408051608081018252865481526001870154602082015260028701546001600160a01b03811692820192909252600160a01b9091046001600160581b03166060808301919091528901516125eb919084908490613458565b6125f58984613c22565b8086556002860180546001600160a01b031916436001600160a01b031617905561262190858484611c92565b8560020160146101000a8154816001600160581b0302191690836001600160581b03160217905550600080516020613db88339815191528a8660000154876001015485858a60020160149054906101000a90046001600160581b031660405161268f96959493929190613aae565b60405180910390a15050600080555050505050505050565b6001546040516391e1472b60e01b81526001600160a01b03909116906391e1472b906126da903390600090600401613a95565b60206040518083038186803b1580156126f257600080fd5b505afa158015612706573d6000803e3d6000fd5b505050506040513d601f19601f8201168201806040525081019061272a91906138ab565b6127465760405162461bcd60e51b81526004016108b490613b8f565b600780546001600160a01b0319166001600160a01b0392909216919091179055565b6001546040516391e1472b60e01b81526001600160a01b03909116906391e1472b9061279b903390600090600401613a95565b60206040518083038186803b1580156127b357600080fd5b505afa1580156127c7573d6000803e3d6000fd5b505050506040513d601f19601f820116820180604052508101906127eb91906138ab565b6128075760405162461bcd60e51b81526004016108b490613b8f565b6001600160a01b03919091166000908152600460205260409020805460ff1916911515919091179055565b6001546001600160a01b03161561288b5760405162461bcd60e51b815260206004820152601b60248201527f4c6f673a50617261737365744261736521696e697469616c697a65000000000060448201526064016108b4565b600180546001600160a01b0319166001600160a01b039290921691909117905560008055565b6001600160a01b03808316600090815260056020908152604080832093851683526001909301905220545b92915050565b6001546040516391e1472b60e01b81526001600160a01b03909116906391e1472b90612915903390600090600401613a95565b60206040518083038186803b15801561292d57600080fd5b505afa158015612941573d6000803e3d6000fd5b505050506040513d601f19601f8201168201806040525081019061296591906138ab565b6129815760405162461bcd60e51b81526004016108b490613b8f565b6001600160a01b039091166000908152600460205260409020805464ffffffffff909216600160b01b0264ffffffffff60b01b19909216919091179055565b6020850151855160006129d582848989611c92565b604089015190915060009084158015906129f75750806001600160a01b031643115b8015612a0b57506001600160a01b03811615155b15612a2d57612a2a85828c606001516001600160581b0316868a611631565b91505b87612a3b620186a086613d45565b8a6001600160501b038a16612a50868a613c22565b612a5a9190613d45565b612a649190613d45565b612a6e9190613c3a565b11612ac55760405162461bcd60e51b815260206004820152602160248201527f4c6f673a4d6f727467616765506f6f6c3a216c69717569646174696f6e4c696e6044820152606560f81b60648201526084016108b4565b50505050505050505050565b600354600160a01b90046001600160601b0316612b005760405162461bcd60e51b81526004016108b490613bf5565b60005415612b205760405162461bcd60e51b81526004016108b490613b21565b600160009081556001600160a01b038316815260046020908152604091829020825160a081018452905460ff811615158083526001600160581b03610100830416938301939093526001600160501b03600160601b8204169382019390935264ffffffffff600160b01b840481166060830152600160d81b9093049092166080830152612bbf5760405162461bcd60e51b81526004016108b490613bbe565b6001600160a01b0383166000908152600560209081526040808320338452600181019092529091205480612c055760405162461bcd60e51b81526004016108b490613b58565b600082612c13600184613d64565b81548110612c3157634e487b7160e01b600052603260045260246000fd5b6000918252602090912060039091020160018101548154919250908615801590612c5b5750808711155b612c775760405162461bcd60e51b81526004016108b490613aea565b600080612c848a3461309e565b60408051608081018252885481526001890154602082015260028901546001600160a01b03811692820192909252600160a01b9091046001600160581b03166060808301919091528b0151929450909250612ce29184908490613458565b612cec8984613d64565b8086556002860180546001600160a01b031916436001600160a01b0316179055612d6757600185015415612d625760405162461bcd60e51b815260206004820181905260248201527f4c6f673a4d6f727467616765506f6f6c3a21706172617373657441737365747360448201526064016108b4565b612e05565b6000612d798660000154868585611c92565b905088602001516001600160581b0316811115612dd45760405162461bcd60e51b81526020600482015260196024820152784c6f673a4d6f727467616765506f6f6c3a216d61785261746560381b60448201526064016108b4565b6002860180546001600160581b03909216600160a01b026affffffffffffffffffffff60a01b199092169190911790555b845460018601546002870154604051600080516020613db883398151915293612e48938f939192909188918891600160a01b90046001600160581b031690613aae565b60405180910390a16001600160a01b038a1615612e6f57612e6a8a338b61326d565b612e79565b612e79338a61338a565b5050600080555050505050505050565b60006012806001600160a01b03861615612f1457856001600160a01b031663313ce5676040518163ffffffff1660e01b815260040160206040518083038186803b158015612ed657600080fd5b505afa158015612eea573d6000803e3d6000fd5b505050506040513d601f19601f82011682018060405250810190612f0e9190613a21565b60ff1691505b6001600160a01b03841615612f9a57836001600160a01b031663313ce5676040518163ffffffff1660e01b815260040160206040518083038186803b158015612f5c57600080fd5b505afa158015612f70573d6000803e3d6000fd5b505050506040513d601f19601f82011682018060405250810190612f949190613a21565b60ff1690505b612fa582600a613c9d565b612fb082600a613c9d565b612fba9087613d45565b612fc49190613c3a565b9695505050505050565b6001546040516391e1472b60e01b81526001600160a01b03909116906391e1472b90613001903390600090600401613a95565b60206040518083038186803b15801561301957600080fd5b505afa15801561302d573d6000803e3d6000fd5b505050506040513d601f19601f8201168201806040525081019061305191906138ab565b61306d5760405162461bcd60e51b81526004016108b490613b8f565b600280546001600160a01b039283166001600160a01b03199182161790915560038054939092169216919091179055565b600654600354604051630da33aa960e01b81526001600160a01b038581166004830152918216602482015233604482015260009283921690630da33aa990859060640160408051808303818588803b1580156130f957600080fd5b505af115801561310d573d6000803e3d6000fd5b50505050506040513d601f19601f8201168201806040525081019061313291906139cd565b909590945092505050565b604080516001600160a01b0385811660248301528481166044830152606480830185905283518084039091018152608490920183526020820180516001600160e01b03166323b872dd60e01b17905291516000928392908816916131a19190613a5c565b6000604051808303816000865af19150503d80600081146131de576040519150601f19603f3d011682016040523d82523d6000602084013e6131e3565b606091505b509150915081801561320d57508051158061320d57508080602001905181019061320d91906138ab565b6132655760405162461bcd60e51b8152602060048201526024808201527f5472616e7366657248656c7065723a205452414e534645525f46524f4d5f46416044820152631253115160e21b60648201526084016108b4565b505050505050565b600080846001600160a01b031663a9059cbb8585604051602401613292929190613a95565b6040516020818303038152906040529060e01b6020820180516001600160e01b0383818316178352505050506040516132cb9190613a5c565b6000604051808303816000865af19150503d8060008114613308576040519150601f19603f3d011682016040523d82523d6000602084013e61330d565b606091505b509150915081801561333757508051158061333757508080602001905181019061333791906138ab565b6133835760405162461bcd60e51b815260206004820152601f60248201527f5472616e7366657248656c7065723a205452414e534645525f4641494c45440060448201526064016108b4565b5050505050565b604080516000808252602082019092526001600160a01b0384169083906040516133b49190613a5c565b60006040518083038185875af1925050503d80600081146133f1576040519150601f19603f3d011682016040523d82523d6000602084013e6133f6565b606091505b50509050806134535760405162461bcd60e51b815260206004820152602360248201527f5472616e7366657248656c7065723a204554485f5452414e534645525f46414960448201526213115160ea1b60648201526084016108b4565b505050565b60208401518451606086015160408701516001600160581b0390911690831580159061348c5750806001600160a01b031643115b80156134a057506001600160a01b03811615155b156135845760006134bf8583856134b9888a8e8e611c92565b8a611631565b6002546007549192506134e1916001600160a01b03918216913391168461313d565b600760009054906101000a90046001600160a01b03166001600160a01b031663b7694a936040518163ffffffff1660e01b8152600401600060405180830381600087803b15801561353157600080fd5b505af1158015613545573d6000803e3d6000fd5b505050507fd22f9c8c29c0808be6387686ac52381992fdeea23a23843e31ee581e653041828160405161357a91815260200190565b60405180910390a1505b5050505050505050565b803561359981613d91565b919050565b803564ffffffffff8116811461359957600080fd5b80356001600160501b038116811461359957600080fd5b80356001600160581b038116811461359957600080fd5b80356001600160601b038116811461359957600080fd5b600060208284031215613609578081fd5b813561361481613d91565b9392505050565b6000806040838503121561362d578081fd5b823561363881613d91565b9150602083013561364881613d91565b809150509250929050565b60008060008060808587031215613668578182fd5b843561367381613d91565b9350602085013561368381613d91565b93969395505050506040820135916060013590565b600080604083850312156136aa578182fd5b82356136b581613d91565b9150602083013561364881613da9565b600080604083850312156136d7578182fd5b82356136e281613d91565b946020939093013593505050565b600080600060608486031215613704578283fd5b833561370f81613d91565b925060208401359150604084013561372681613d91565b809150509250925092565b600080600080600060a08688031215613748578081fd5b853561375381613d91565b9450602086013593506040860135925061376f606087016135ca565b9150608086013561377f81613d91565b809150509295509295909350565b6000806000606084860312156137a1578283fd5b83356137ac81613d91565b9250602084013591506137c1604085016135ca565b90509250925092565b600080604083850312156137dc578182fd5b82356137e781613d91565b91506137f56020840161359e565b90509250929050565b60008060408385031215613810578081fd5b823561381b81613d91565b91506137f5602084016135b3565b6000806040838503121561383b578182fd5b823561384681613d91565b91506137f5602084016135ca565b60008060008060808587031215613869578182fd5b843561387481613d91565b9350613882602086016135e1565b9250604085013561389281613d91565b91506138a0606086016135e1565b905092959194509250565b6000602082840312156138bc578081fd5b815161361481613da9565b60008060008060008587036101008112156138e0578384fd5b60808112156138ed578384fd5b506040516080810181811067ffffffffffffffff8211171561391d57634e487b7160e01b85526041600452602485fd5b8060405250863581526020870135602082015261393c6040880161358e565b604082015261394d606088016135ca565b606082015294506080860135935060a0860135925061396e60c087016135b3565b915061397c60e0870161359e565b90509295509295909350565b600080600080600060a0868803121561399f578283fd5b8535945060208601356139b181613d91565b9350604086013592506060860135915061397c6080870161359e565b600080604083850312156139df578182fd5b505080516020909101519092909150565b60008060008060808587031215613a05578182fd5b5050823594602084013594506040840135936060013592509050565b600060208284031215613a32578081fd5b815160ff81168114613614578182fd5b600060208284031215613a53578081fd5b613614826135e1565b60008251815b81811015613a7c5760208186018101518583015201613a62565b81811115613a8a5782828501525b509190910192915050565b6001600160a01b03929092168252602082015260400190565b6001600160a01b0396909616865260208601949094526040850192909252606084015260808301526001600160581b031660a082015260c00190565b60208082526018908201527f4c6f673a4d6f727467616765506f6f6c3a21616d6f756e740000000000000000604082015260600190565b60208082526019908201527f4c6f673a5061726173736574426173653a215f6c6f636b656400000000000000604082015260600190565b60208082526018908201527f4c6f673a4d6f727467616765506f6f6c3a696e6465783d300000000000000000604082015260600190565b6020808252601590820152742637b39d2830b930b9b9b2ba2130b9b29d10b3b7bb60591b604082015260600190565b6020808252601f908201527f4c6f673a4d6f727467616765506f6f6c3a216d6f727467616765416c6c6f7700604082015260600190565b60208082526013908201527204c6f673a4d6f727467616765506f6f6c3a213606c1b604082015260600190565b60008219821115613c3557613c35613d7b565b500190565b600082613c5557634e487b7160e01b81526012600452602481fd5b500490565b600181815b80851115613c95578160001904821115613c7b57613c7b613d7b565b80851615613c8857918102915b93841c9390800290613c5f565b509250929050565b60006136148383600082613cb3575060016128dc565b81613cc0575060006128dc565b8160018114613cd65760028114613ce057613cfc565b60019150506128dc565b60ff841115613cf157613cf1613d7b565b50506001821b6128dc565b5060208310610133831016604e8410600b8410161715613d1f575081810a6128dc565b613d298383613c5a565b8060001904821115613d3d57613d3d613d7b565b029392505050565b6000816000190483118215151615613d5f57613d5f613d7b565b500290565b600082821015613d7657613d76613d7b565b500390565b634e487b7160e01b600052601160045260246000fd5b6001600160a01b0381168114613da657600080fd5b50565b8015158114613da657600080fdfe36b08d1ec8ecd588007d14ea5be9edb9eeb4cdd2f952162d2d32d4b71a0126a2a2646970667358221220b540e476853e0140bf6640f8c7b9b0fcfa922d9ec2d9bbb71a931deb34337e3c64736f6c63430008040033",
			"opcodes": "PUSH1 0x80 PUSH1 0x40 MSTORE CALLVALUE DUP1 ISZERO PUSH2 0x10 JUMPI PUSH1 0x0 DUP1 REVERT JUMPDEST POP PUSH2 0x3E0D DUP1 PUSH2 0x20 PUSH1 0x0 CODECOPY PUSH1 0x0 RETURN INVALID PUSH1 0x80 PUSH1 0x40 MSTORE PUSH1 0x4 CALLDATASIZE LT PUSH2 0x225 JUMPI PUSH1 0x0 CALLDATALOAD PUSH1 0xE0 SHR DUP1 PUSH4 0x90F5CB09 GT PUSH2 0x123 JUMPI DUP1 PUSH4 0xCB919485 GT PUSH2 0xAB JUMPI DUP1 PUSH4 0xF1A4252E GT PUSH2 0x6F JUMPI DUP1 PUSH4 0xF1A4252E EQ PUSH2 0x764 JUMPI DUP1 PUSH4 0xF27AC4D9 EQ PUSH2 0x79D JUMPI DUP1 PUSH4 0xF9081591 EQ PUSH2 0x7B0 JUMPI DUP1 PUSH4 0xF9633930 EQ PUSH2 0x7D0 JUMPI DUP1 PUSH4 0xFB606F92 EQ PUSH2 0x7F5 JUMPI PUSH1 0x0 DUP1 REVERT JUMPDEST DUP1 PUSH4 0xCB919485 EQ PUSH2 0x6C8 JUMPI DUP1 PUSH4 0xD0D5665B EQ PUSH2 0x6E8 JUMPI DUP1 PUSH4 0xEE719BC8 EQ PUSH2 0x706 JUMPI DUP1 PUSH4 0xEFDECAEF EQ PUSH2 0x724 JUMPI DUP1 PUSH4 0xF042FC6B EQ PUSH2 0x744 JUMPI PUSH1 0x0 DUP1 REVERT JUMPDEST DUP1 PUSH4 0xA831407F GT PUSH2 0xF2 JUMPI DUP1 PUSH4 0xA831407F EQ PUSH2 0x5D6 JUMPI DUP1 PUSH4 0xA94C487E EQ PUSH2 0x60C JUMPI DUP1 PUSH4 0xA99C53B3 EQ PUSH2 0x62C JUMPI DUP1 PUSH4 0xC2862D67 EQ PUSH2 0x688 JUMPI DUP1 PUSH4 0xC4D66DE8 EQ PUSH2 0x6A8 JUMPI PUSH1 0x0 DUP1 REVERT JUMPDEST DUP1 PUSH4 0x90F5CB09 EQ PUSH2 0x512 JUMPI DUP1 PUSH4 0x983825DE EQ PUSH2 0x56C JUMPI DUP1 PUSH4 0x9CF2AA2A EQ PUSH2 0x57F JUMPI DUP1 PUSH4 0xA240B9A8 EQ PUSH2 0x5C3 JUMPI PUSH1 0x0 DUP1 REVERT JUMPDEST DUP1 PUSH4 0x3A97BB25 GT PUSH2 0x1B1 JUMPI DUP1 PUSH4 0x5D6F1533 GT PUSH2 0x175 JUMPI DUP1 PUSH4 0x5D6F1533 EQ PUSH2 0x45F JUMPI DUP1 PUSH4 0x5E0EC98F EQ PUSH2 0x47F JUMPI DUP1 PUSH4 0x78A35320 EQ PUSH2 0x49F JUMPI DUP1 PUSH4 0x7FF4D02F EQ PUSH2 0x4B2 JUMPI DUP1 PUSH4 0x800C2B39 EQ PUSH2 0x4D2 JUMPI PUSH1 0x0 DUP1 REVERT JUMPDEST DUP1 PUSH4 0x3A97BB25 EQ PUSH2 0x3D0 JUMPI DUP1 PUSH4 0x3AC68750 EQ PUSH2 0x3E3 JUMPI DUP1 PUSH4 0x3CF045A4 EQ PUSH2 0x403 JUMPI DUP1 PUSH4 0x3F849820 EQ PUSH2 0x421 JUMPI DUP1 PUSH4 0x42D17745 EQ PUSH2 0x441 JUMPI PUSH1 0x0 DUP1 REVERT JUMPDEST DUP1 PUSH4 0x219F7753 GT PUSH2 0x1F8 JUMPI DUP1 PUSH4 0x219F7753 EQ PUSH2 0x2FD JUMPI DUP1 PUSH4 0x25404C4F EQ PUSH2 0x310 JUMPI DUP1 PUSH4 0x28107ACF EQ PUSH2 0x370 JUMPI DUP1 PUSH4 0x306ACEDA EQ PUSH2 0x390 JUMPI DUP1 PUSH4 0x3376CB37 EQ PUSH2 0x3B0 JUMPI PUSH1 0x0 DUP1 REVERT JUMPDEST DUP1 PUSH4 0xDAA6D11 EQ PUSH2 0x22A JUMPI DUP1 PUSH4 0x1C1B8772 EQ PUSH2 0x24C JUMPI DUP1 PUSH4 0x1C2F3E3D EQ PUSH2 0x26C JUMPI DUP1 PUSH4 0x1E0F6725 EQ PUSH2 0x2A9 JUMPI JUMPDEST PUSH1 0x0 DUP1 REVERT JUMPDEST CALLVALUE DUP1 ISZERO PUSH2 0x236 JUMPI PUSH1 0x0 DUP1 REVERT JUMPDEST POP PUSH2 0x24A PUSH2 0x245 CALLDATASIZE PUSH1 0x4 PUSH2 0x3854 JUMP JUMPDEST PUSH2 0x815 JUMP JUMPDEST STOP JUMPDEST CALLVALUE DUP1 ISZERO PUSH2 0x258 JUMPI PUSH1 0x0 DUP1 REVERT JUMPDEST POP PUSH2 0x24A PUSH2 0x267 CALLDATASIZE PUSH1 0x4 PUSH2 0x35F8 JUMP JUMPDEST PUSH2 0x8EC JUMP JUMPDEST CALLVALUE DUP1 ISZERO PUSH2 0x278 JUMPI PUSH1 0x0 DUP1 REVERT JUMPDEST POP PUSH1 0x1 SLOAD PUSH2 0x28C SWAP1 PUSH1 0x1 PUSH1 0x1 PUSH1 0xA0 SHL SUB AND DUP2 JUMP JUMPDEST PUSH1 0x40 MLOAD PUSH1 0x1 PUSH1 0x1 PUSH1 0xA0 SHL SUB SWAP1 SWAP2 AND DUP2 MSTORE PUSH1 0x20 ADD JUMPDEST PUSH1 0x40 MLOAD DUP1 SWAP2 SUB SWAP1 RETURN JUMPDEST CALLVALUE DUP1 ISZERO PUSH2 0x2B5 JUMPI PUSH1 0x0 DUP1 REVERT JUMPDEST POP PUSH2 0x2EF PUSH2 0x2C4 CALLDATASIZE PUSH1 0x4 PUSH2 0x35F8 JUMP JUMPDEST PUSH1 0x1 PUSH1 0x1 PUSH1 0xA0 SHL SUB AND PUSH1 0x0 SWAP1 DUP2 MSTORE PUSH1 0x4 PUSH1 0x20 MSTORE PUSH1 0x40 SWAP1 KECCAK256 SLOAD PUSH1 0x1 PUSH1 0x60 SHL SWAP1 DIV PUSH1 0x1 PUSH1 0x1 PUSH1 0x50 SHL SUB AND SWAP1 JUMP JUMPDEST PUSH1 0x40 MLOAD SWAP1 DUP2 MSTORE PUSH1 0x20 ADD PUSH2 0x2A0 JUMP JUMPDEST PUSH2 0x24A PUSH2 0x30B CALLDATASIZE PUSH1 0x4 PUSH2 0x3653 JUMP JUMPDEST PUSH2 0x9BF JUMP JUMPDEST CALLVALUE DUP1 ISZERO PUSH2 0x31C JUMPI PUSH1 0x0 DUP1 REVERT JUMPDEST POP PUSH2 0x330 PUSH2 0x32B CALLDATASIZE PUSH1 0x4 PUSH2 0x361B JUMP JUMPDEST PUSH2 0xDC9 JUMP JUMPDEST PUSH1 0x40 DUP1 MLOAD SWAP6 DUP7 MSTORE PUSH1 0x20 DUP7 ADD SWAP5 SWAP1 SWAP5 MSTORE PUSH1 0x1 PUSH1 0x1 PUSH1 0xA0 SHL SUB SWAP1 SWAP3 AND SWAP3 DUP5 ADD SWAP3 SWAP1 SWAP3 MSTORE PUSH1 0x1 PUSH1 0x1 PUSH1 0x58 SHL SUB SWAP1 SWAP2 AND PUSH1 0x60 DUP4 ADD MSTORE ISZERO ISZERO PUSH1 0x80 DUP3 ADD MSTORE PUSH1 0xA0 ADD PUSH2 0x2A0 JUMP JUMPDEST CALLVALUE DUP1 ISZERO PUSH2 0x37C JUMPI PUSH1 0x0 DUP1 REVERT JUMPDEST POP PUSH2 0x24A PUSH2 0x38B CALLDATASIZE PUSH1 0x4 PUSH2 0x37FE JUMP JUMPDEST PUSH2 0xED5 JUMP JUMPDEST CALLVALUE DUP1 ISZERO PUSH2 0x39C JUMPI PUSH1 0x0 DUP1 REVERT JUMPDEST POP PUSH2 0x24A PUSH2 0x3AB CALLDATASIZE PUSH1 0x4 PUSH2 0x3A42 JUMP JUMPDEST PUSH2 0xFBA JUMP JUMPDEST CALLVALUE DUP1 ISZERO PUSH2 0x3BC JUMPI PUSH1 0x0 DUP1 REVERT JUMPDEST POP PUSH2 0x24A PUSH2 0x3CB CALLDATASIZE PUSH1 0x4 PUSH2 0x3A42 JUMP JUMPDEST PUSH2 0x1081 JUMP JUMPDEST PUSH2 0x24A PUSH2 0x3DE CALLDATASIZE PUSH1 0x4 PUSH2 0x378D JUMP JUMPDEST PUSH2 0x1148 JUMP JUMPDEST CALLVALUE DUP1 ISZERO PUSH2 0x3EF JUMPI PUSH1 0x0 DUP1 REVERT JUMPDEST POP PUSH2 0x2EF PUSH2 0x3FE CALLDATASIZE PUSH1 0x4 PUSH2 0x3988 JUMP JUMPDEST PUSH2 0x1631 JUMP JUMPDEST CALLVALUE DUP1 ISZERO PUSH2 0x40F JUMPI PUSH1 0x0 DUP1 REVERT JUMPDEST POP PUSH1 0x6 SLOAD PUSH1 0x1 PUSH1 0x1 PUSH1 0xA0 SHL SUB AND PUSH2 0x28C JUMP JUMPDEST CALLVALUE DUP1 ISZERO PUSH2 0x42D JUMPI PUSH1 0x0 DUP1 REVERT JUMPDEST POP PUSH2 0x24A PUSH2 0x43C CALLDATASIZE PUSH1 0x4 PUSH2 0x35F8 JUMP JUMPDEST PUSH2 0x16D9 JUMP JUMPDEST CALLVALUE DUP1 ISZERO PUSH2 0x44D JUMPI PUSH1 0x0 DUP1 REVERT JUMPDEST POP PUSH1 0x2 SLOAD PUSH1 0x1 PUSH1 0x1 PUSH1 0xA0 SHL SUB AND PUSH2 0x28C JUMP JUMPDEST CALLVALUE DUP1 ISZERO PUSH2 0x46B JUMPI PUSH1 0x0 DUP1 REVERT JUMPDEST POP PUSH2 0x24A PUSH2 0x47A CALLDATASIZE PUSH1 0x4 PUSH2 0x37CA JUMP JUMPDEST PUSH2 0x179A JUMP JUMPDEST CALLVALUE DUP1 ISZERO PUSH2 0x48B JUMPI PUSH1 0x0 DUP1 REVERT JUMPDEST POP PUSH2 0x24A PUSH2 0x49A CALLDATASIZE PUSH1 0x4 PUSH2 0x3829 JUMP JUMPDEST PUSH2 0x1876 JUMP JUMPDEST PUSH2 0x24A PUSH2 0x4AD CALLDATASIZE PUSH1 0x4 PUSH2 0x36C5 JUMP JUMPDEST PUSH2 0x1958 JUMP JUMPDEST CALLVALUE DUP1 ISZERO PUSH2 0x4BE JUMPI PUSH1 0x0 DUP1 REVERT JUMPDEST POP PUSH2 0x2EF PUSH2 0x4CD CALLDATASIZE PUSH1 0x4 PUSH2 0x39F0 JUMP JUMPDEST PUSH2 0x1C92 JUMP JUMPDEST CALLVALUE DUP1 ISZERO PUSH2 0x4DE JUMPI PUSH1 0x0 DUP1 REVERT JUMPDEST POP PUSH2 0x4F2 PUSH2 0x4ED CALLDATASIZE PUSH1 0x4 PUSH2 0x3731 JUMP JUMPDEST PUSH2 0x1CD8 JUMP JUMPDEST PUSH1 0x40 DUP1 MLOAD SWAP5 DUP6 MSTORE PUSH1 0x20 DUP6 ADD SWAP4 SWAP1 SWAP4 MSTORE SWAP2 DUP4 ADD MSTORE PUSH1 0x60 DUP3 ADD MSTORE PUSH1 0x80 ADD PUSH2 0x2A0 JUMP JUMPDEST CALLVALUE DUP1 ISZERO PUSH2 0x51E JUMPI PUSH1 0x0 DUP1 REVERT JUMPDEST POP PUSH2 0x556 PUSH2 0x52D CALLDATASIZE PUSH1 0x4 PUSH2 0x35F8 JUMP JUMPDEST PUSH1 0x1 PUSH1 0x1 PUSH1 0xA0 SHL SUB AND PUSH1 0x0 SWAP1 DUP2 MSTORE PUSH1 0x4 PUSH1 0x20 MSTORE PUSH1 0x40 SWAP1 KECCAK256 SLOAD PUSH1 0x1 PUSH1 0xB0 SHL SWAP1 DIV PUSH5 0xFFFFFFFFFF AND SWAP1 JUMP JUMPDEST PUSH1 0x40 MLOAD PUSH5 0xFFFFFFFFFF SWAP1 SWAP2 AND DUP2 MSTORE PUSH1 0x20 ADD PUSH2 0x2A0 JUMP JUMPDEST PUSH2 0x24A PUSH2 0x57A CALLDATASIZE PUSH1 0x4 PUSH2 0x36C5 JUMP JUMPDEST PUSH2 0x1F47 JUMP JUMPDEST CALLVALUE DUP1 ISZERO PUSH2 0x58B JUMPI PUSH1 0x0 DUP1 REVERT JUMPDEST POP PUSH2 0x556 PUSH2 0x59A CALLDATASIZE PUSH1 0x4 PUSH2 0x35F8 JUMP JUMPDEST PUSH1 0x1 PUSH1 0x1 PUSH1 0xA0 SHL SUB AND PUSH1 0x0 SWAP1 DUP2 MSTORE PUSH1 0x4 PUSH1 0x20 MSTORE PUSH1 0x40 SWAP1 KECCAK256 SLOAD PUSH1 0x1 PUSH1 0xD8 SHL SWAP1 DIV PUSH5 0xFFFFFFFFFF AND SWAP1 JUMP JUMPDEST PUSH2 0x24A PUSH2 0x5D1 CALLDATASIZE PUSH1 0x4 PUSH2 0x36C5 JUMP JUMPDEST PUSH2 0x234E JUMP JUMPDEST CALLVALUE DUP1 ISZERO PUSH2 0x5E2 JUMPI PUSH1 0x0 DUP1 REVERT JUMPDEST POP PUSH2 0x2EF PUSH2 0x5F1 CALLDATASIZE PUSH1 0x4 PUSH2 0x35F8 JUMP JUMPDEST PUSH1 0x1 PUSH1 0x1 PUSH1 0xA0 SHL SUB AND PUSH1 0x0 SWAP1 DUP2 MSTORE PUSH1 0x5 PUSH1 0x20 MSTORE PUSH1 0x40 SWAP1 KECCAK256 SLOAD SWAP1 JUMP JUMPDEST CALLVALUE DUP1 ISZERO PUSH2 0x618 JUMPI PUSH1 0x0 DUP1 REVERT JUMPDEST POP PUSH2 0x24A PUSH2 0x627 CALLDATASIZE PUSH1 0x4 PUSH2 0x35F8 JUMP JUMPDEST PUSH2 0x26A7 JUMP JUMPDEST CALLVALUE DUP1 ISZERO PUSH2 0x638 JUMPI PUSH1 0x0 DUP1 REVERT JUMPDEST POP PUSH2 0x670 PUSH2 0x647 CALLDATASIZE PUSH1 0x4 PUSH2 0x35F8 JUMP JUMPDEST PUSH1 0x1 PUSH1 0x1 PUSH1 0xA0 SHL SUB AND PUSH1 0x0 SWAP1 DUP2 MSTORE PUSH1 0x4 PUSH1 0x20 MSTORE PUSH1 0x40 SWAP1 KECCAK256 SLOAD PUSH2 0x100 SWAP1 DIV PUSH1 0x1 PUSH1 0x1 PUSH1 0x58 SHL SUB AND SWAP1 JUMP JUMPDEST PUSH1 0x40 MLOAD PUSH1 0x1 PUSH1 0x1 PUSH1 0x58 SHL SUB SWAP1 SWAP2 AND DUP2 MSTORE PUSH1 0x20 ADD PUSH2 0x2A0 JUMP JUMPDEST CALLVALUE DUP1 ISZERO PUSH2 0x694 JUMPI PUSH1 0x0 DUP1 REVERT JUMPDEST POP PUSH2 0x24A PUSH2 0x6A3 CALLDATASIZE PUSH1 0x4 PUSH2 0x3698 JUMP JUMPDEST PUSH2 0x2768 JUMP JUMPDEST CALLVALUE DUP1 ISZERO PUSH2 0x6B4 JUMPI PUSH1 0x0 DUP1 REVERT JUMPDEST POP PUSH2 0x24A PUSH2 0x6C3 CALLDATASIZE PUSH1 0x4 PUSH2 0x35F8 JUMP JUMPDEST PUSH2 0x2832 JUMP JUMPDEST CALLVALUE DUP1 ISZERO PUSH2 0x6D4 JUMPI PUSH1 0x0 DUP1 REVERT JUMPDEST POP PUSH2 0x2EF PUSH2 0x6E3 CALLDATASIZE PUSH1 0x4 PUSH2 0x361B JUMP JUMPDEST PUSH2 0x28B1 JUMP JUMPDEST CALLVALUE DUP1 ISZERO PUSH2 0x6F4 JUMPI PUSH1 0x0 DUP1 REVERT JUMPDEST POP PUSH1 0x7 SLOAD PUSH1 0x1 PUSH1 0x1 PUSH1 0xA0 SHL SUB AND PUSH2 0x28C JUMP JUMPDEST CALLVALUE DUP1 ISZERO PUSH2 0x712 JUMPI PUSH1 0x0 DUP1 REVERT JUMPDEST POP PUSH1 0x3 SLOAD PUSH1 0x1 PUSH1 0x1 PUSH1 0xA0 SHL SUB AND PUSH2 0x28C JUMP JUMPDEST CALLVALUE DUP1 ISZERO PUSH2 0x730 JUMPI PUSH1 0x0 DUP1 REVERT JUMPDEST POP PUSH2 0x24A PUSH2 0x73F CALLDATASIZE PUSH1 0x4 PUSH2 0x37CA JUMP JUMPDEST PUSH2 0x28E2 JUMP JUMPDEST CALLVALUE DUP1 ISZERO PUSH2 0x750 JUMPI PUSH1 0x0 DUP1 REVERT JUMPDEST POP PUSH2 0x24A PUSH2 0x75F CALLDATASIZE PUSH1 0x4 PUSH2 0x38C7 JUMP JUMPDEST PUSH2 0x29C0 JUMP JUMPDEST CALLVALUE DUP1 ISZERO PUSH2 0x770 JUMPI PUSH1 0x0 DUP1 REVERT JUMPDEST POP PUSH1 0x2 SLOAD PUSH1 0x1 PUSH1 0xA0 SHL SWAP1 DIV PUSH1 0x1 PUSH1 0x1 PUSH1 0x60 SHL SUB AND JUMPDEST PUSH1 0x40 MLOAD PUSH1 0x1 PUSH1 0x1 PUSH1 0x60 SHL SUB SWAP1 SWAP2 AND DUP2 MSTORE PUSH1 0x20 ADD PUSH2 0x2A0 JUMP JUMPDEST PUSH2 0x24A PUSH2 0x7AB CALLDATASIZE PUSH1 0x4 PUSH2 0x36C5 JUMP JUMPDEST PUSH2 0x2AD1 JUMP JUMPDEST CALLVALUE DUP1 ISZERO PUSH2 0x7BC JUMPI PUSH1 0x0 DUP1 REVERT JUMPDEST POP PUSH2 0x2EF PUSH2 0x7CB CALLDATASIZE PUSH1 0x4 PUSH2 0x36F0 JUMP JUMPDEST PUSH2 0x2E89 JUMP JUMPDEST CALLVALUE DUP1 ISZERO PUSH2 0x7DC JUMPI PUSH1 0x0 DUP1 REVERT JUMPDEST POP PUSH1 0x3 SLOAD PUSH1 0x1 PUSH1 0xA0 SHL SWAP1 DIV PUSH1 0x1 PUSH1 0x1 PUSH1 0x60 SHL SUB AND PUSH2 0x785 JUMP JUMPDEST CALLVALUE DUP1 ISZERO PUSH2 0x801 JUMPI PUSH1 0x0 DUP1 REVERT JUMPDEST POP PUSH2 0x24A PUSH2 0x810 CALLDATASIZE PUSH1 0x4 PUSH2 0x361B JUMP JUMPDEST PUSH2 0x2FCE JUMP JUMPDEST PUSH1 0x1 SLOAD PUSH1 0x40 MLOAD PUSH4 0x91E1472B PUSH1 0xE0 SHL DUP2 MSTORE PUSH1 0x1 PUSH1 0x1 PUSH1 0xA0 SHL SUB SWAP1 SWAP2 AND SWAP1 PUSH4 0x91E1472B SWAP1 PUSH2 0x848 SWAP1 CALLER SWAP1 PUSH1 0x0 SWAP1 PUSH1 0x4 ADD PUSH2 0x3A95 JUMP JUMPDEST PUSH1 0x20 PUSH1 0x40 MLOAD DUP1 DUP4 SUB DUP2 DUP7 DUP1 EXTCODESIZE ISZERO DUP1 ISZERO PUSH2 0x860 JUMPI PUSH1 0x0 DUP1 REVERT JUMPDEST POP GAS STATICCALL ISZERO DUP1 ISZERO PUSH2 0x874 JUMPI RETURNDATASIZE PUSH1 0x0 DUP1 RETURNDATACOPY RETURNDATASIZE PUSH1 0x0 REVERT JUMPDEST POP POP POP POP PUSH1 0x40 MLOAD RETURNDATASIZE PUSH1 0x1F NOT PUSH1 0x1F DUP3 ADD AND DUP3 ADD DUP1 PUSH1 0x40 MSTORE POP DUP2 ADD SWAP1 PUSH2 0x898 SWAP2 SWAP1 PUSH2 0x38AB JUMP JUMPDEST PUSH2 0x8BD JUMPI PUSH1 0x40 MLOAD PUSH3 0x461BCD PUSH1 0xE5 SHL DUP2 MSTORE PUSH1 0x4 ADD PUSH2 0x8B4 SWAP1 PUSH2 0x3B8F JUMP JUMPDEST PUSH1 0x40 MLOAD DUP1 SWAP2 SUB SWAP1 REVERT JUMPDEST PUSH1 0x1 PUSH1 0x1 PUSH1 0x60 SHL SUB SWAP3 DUP4 AND PUSH1 0x1 PUSH1 0xA0 SHL SWAP1 DUP2 MUL PUSH1 0x1 PUSH1 0x1 PUSH1 0xA0 SHL SUB SWAP6 DUP7 AND OR PUSH1 0x2 SSTORE SWAP3 AND SWAP1 SWAP2 MUL SWAP2 AND OR PUSH1 0x3 SSTORE JUMP JUMPDEST PUSH1 0x1 SLOAD PUSH1 0x1 PUSH1 0x1 PUSH1 0xA0 SHL SUB AND CALLER DUP2 EQ DUP1 PUSH2 0x980 JUMPI POP PUSH1 0x40 MLOAD PUSH4 0x91E1472B PUSH1 0xE0 SHL DUP2 MSTORE PUSH1 0x1 PUSH1 0x1 PUSH1 0xA0 SHL SUB DUP3 AND SWAP1 PUSH4 0x91E1472B SWAP1 PUSH2 0x930 SWAP1 CALLER SWAP1 PUSH1 0x0 SWAP1 PUSH1 0x4 ADD PUSH2 0x3A95 JUMP JUMPDEST PUSH1 0x20 PUSH1 0x40 MLOAD DUP1 DUP4 SUB DUP2 DUP7 DUP1 EXTCODESIZE ISZERO DUP1 ISZERO PUSH2 0x948 JUMPI PUSH1 0x0 DUP1 REVERT JUMPDEST POP GAS STATICCALL ISZERO DUP1 ISZERO PUSH2 0x95C JUMPI RETURNDATASIZE PUSH1 0x0 DUP1 RETURNDATACOPY RETURNDATASIZE PUSH1 0x0 REVERT JUMPDEST POP POP POP POP PUSH1 0x40 MLOAD RETURNDATASIZE PUSH1 0x1F NOT PUSH1 0x1F DUP3 ADD AND DUP3 ADD DUP1 PUSH1 0x40 MSTORE POP DUP2 ADD SWAP1 PUSH2 0x980 SWAP2 SWAP1 PUSH2 0x38AB JUMP JUMPDEST PUSH2 0x99C JUMPI PUSH1 0x40 MLOAD PUSH3 0x461BCD PUSH1 0xE5 SHL DUP2 MSTORE PUSH1 0x4 ADD PUSH2 0x8B4 SWAP1 PUSH2 0x3B8F JUMP JUMPDEST POP PUSH1 0x1 DUP1 SLOAD PUSH1 0x1 PUSH1 0x1 PUSH1 0xA0 SHL SUB NOT AND PUSH1 0x1 PUSH1 0x1 PUSH1 0xA0 SHL SUB SWAP3 SWAP1 SWAP3 AND SWAP2 SWAP1 SWAP2 OR SWAP1 SSTORE JUMP JUMPDEST PUSH1 0x3 SLOAD PUSH1 0x1 PUSH1 0xA0 SHL SWAP1 DIV PUSH1 0x1 PUSH1 0x1 PUSH1 0x60 SHL SUB AND PUSH2 0x9EE JUMPI PUSH1 0x40 MLOAD PUSH3 0x461BCD PUSH1 0xE5 SHL DUP2 MSTORE PUSH1 0x4 ADD PUSH2 0x8B4 SWAP1 PUSH2 0x3BF5 JUMP JUMPDEST PUSH1 0x0 SLOAD ISZERO PUSH2 0xA0E JUMPI PUSH1 0x40 MLOAD PUSH3 0x461BCD PUSH1 0xE5 SHL DUP2 MSTORE PUSH1 0x4 ADD PUSH2 0x8B4 SWAP1 PUSH2 0x3B21 JUMP JUMPDEST PUSH1 0x1 PUSH1 0x0 SWAP1 DUP2 SSTORE PUSH1 0x1 PUSH1 0x1 PUSH1 0xA0 SHL SUB DUP6 AND DUP2 MSTORE PUSH1 0x4 PUSH1 0x20 SWAP1 DUP2 MSTORE PUSH1 0x40 SWAP2 DUP3 SWAP1 KECCAK256 DUP3 MLOAD PUSH1 0xA0 DUP2 ADD DUP5 MSTORE SWAP1 SLOAD PUSH1 0xFF DUP2 AND ISZERO ISZERO DUP1 DUP4 MSTORE PUSH1 0x1 PUSH1 0x1 PUSH1 0x58 SHL SUB PUSH2 0x100 DUP4 DIV AND SWAP4 DUP4 ADD SWAP4 SWAP1 SWAP4 MSTORE PUSH1 0x1 PUSH1 0x1 PUSH1 0x50 SHL SUB PUSH1 0x1 PUSH1 0x60 SHL DUP3 DIV AND SWAP4 DUP3 ADD SWAP4 SWAP1 SWAP4 MSTORE PUSH5 0xFFFFFFFFFF PUSH1 0x1 PUSH1 0xB0 SHL DUP5 DIV DUP2 AND PUSH1 0x60 DUP4 ADD MSTORE PUSH1 0x1 PUSH1 0xD8 SHL SWAP1 SWAP4 DIV SWAP1 SWAP3 AND PUSH1 0x80 DUP4 ADD MSTORE PUSH2 0xAAD JUMPI PUSH1 0x40 MLOAD PUSH3 0x461BCD PUSH1 0xE5 SHL DUP2 MSTORE PUSH1 0x4 ADD PUSH2 0x8B4 SWAP1 PUSH2 0x3BBE JUMP JUMPDEST PUSH1 0x1 PUSH1 0x1 PUSH1 0xA0 SHL SUB DUP1 DUP7 AND PUSH1 0x0 SWAP1 DUP2 MSTORE PUSH1 0x5 PUSH1 0x20 SWAP1 DUP2 MSTORE PUSH1 0x40 DUP1 DUP4 KECCAK256 SWAP4 DUP9 AND DUP4 MSTORE PUSH1 0x1 DUP5 ADD SWAP1 SWAP2 MSTORE SWAP1 KECCAK256 SLOAD DUP1 PUSH2 0xAF5 JUMPI PUSH1 0x40 MLOAD PUSH3 0x461BCD PUSH1 0xE5 SHL DUP2 MSTORE PUSH1 0x4 ADD PUSH2 0x8B4 SWAP1 PUSH2 0x3B58 JUMP JUMPDEST PUSH1 0x0 DUP3 PUSH2 0xB03 PUSH1 0x1 DUP5 PUSH2 0x3D64 JUMP JUMPDEST DUP2 SLOAD DUP2 LT PUSH2 0xB21 JUMPI PUSH4 0x4E487B71 PUSH1 0xE0 SHL PUSH1 0x0 MSTORE PUSH1 0x32 PUSH1 0x4 MSTORE PUSH1 0x24 PUSH1 0x0 REVERT JUMPDEST PUSH1 0x0 SWAP2 DUP3 MSTORE PUSH1 0x20 SWAP1 SWAP2 KECCAK256 PUSH1 0x3 SWAP1 SWAP2 MUL ADD PUSH1 0x1 DUP2 ADD SLOAD DUP2 SLOAD SWAP2 SWAP3 POP SWAP1 DUP8 ISZERO DUP1 ISZERO SWAP1 PUSH2 0xB4B JUMPI POP DUP1 DUP9 GT ISZERO JUMPDEST PUSH2 0xB67 JUMPI PUSH1 0x40 MLOAD PUSH3 0x461BCD PUSH1 0xE5 SHL DUP2 MSTORE PUSH1 0x4 ADD PUSH2 0x8B4 SWAP1 PUSH2 0x3AEA JUMP JUMPDEST PUSH1 0x0 DUP1 PUSH2 0xB74 DUP13 CALLVALUE PUSH2 0x309E JUMP JUMPDEST PUSH1 0x40 DUP1 MLOAD PUSH1 0x80 DUP2 ADD DUP3 MSTORE DUP9 SLOAD DUP2 MSTORE PUSH1 0x1 DUP10 ADD SLOAD PUSH1 0x20 DUP3 ADD MSTORE PUSH1 0x2 DUP10 ADD SLOAD PUSH1 0x1 PUSH1 0x1 PUSH1 0xA0 SHL SUB DUP2 AND DUP3 DUP5 ADD MSTORE PUSH1 0x1 PUSH1 0xA0 SHL SWAP1 DIV PUSH1 0x1 PUSH1 0x1 PUSH1 0x58 SHL SUB AND PUSH1 0x60 DUP1 DUP4 ADD SWAP2 SWAP1 SWAP2 MSTORE SWAP2 DUP13 ADD MLOAD SWAP2 DUP13 ADD MLOAD SWAP4 SWAP6 POP SWAP2 SWAP4 POP PUSH2 0xBD3 SWAP3 DUP6 SWAP2 DUP6 SWAP2 PUSH2 0x29C0 JUMP JUMPDEST PUSH1 0x0 PUSH2 0xBE2 PUSH3 0x186A0 DUP5 PUSH2 0x3D45 JUMP JUMPDEST PUSH1 0x80 DUP11 ADD MLOAD PUSH5 0xFFFFFFFFFF AND PUSH2 0xBF8 DUP5 DUP15 PUSH2 0x3D45 JUMP JUMPDEST PUSH2 0xC02 SWAP2 SWAP1 PUSH2 0x3D45 JUMP JUMPDEST PUSH2 0xC0C SWAP2 SWAP1 PUSH2 0x3C3A JUMP JUMPDEST SWAP1 POP DUP10 DUP2 GT ISZERO PUSH2 0xC6A JUMPI PUSH1 0x40 MLOAD PUSH3 0x461BCD PUSH1 0xE5 SHL DUP2 MSTORE PUSH1 0x20 PUSH1 0x4 DUP3 ADD MSTORE PUSH1 0x23 PUSH1 0x24 DUP3 ADD MSTORE PUSH32 0x4C6F673A4D6F727467616765506F6F6C3A2170546F6B656E416D6F756E744C69 PUSH1 0x44 DUP3 ADD MSTORE PUSH3 0x1B5A5D PUSH1 0xEA SHL PUSH1 0x64 DUP3 ADD MSTORE PUSH1 0x84 ADD PUSH2 0x8B4 JUMP JUMPDEST PUSH1 0x2 SLOAD PUSH1 0x7 SLOAD PUSH2 0xC89 SWAP2 PUSH1 0x1 PUSH1 0x1 PUSH1 0xA0 SHL SUB SWAP1 DUP2 AND SWAP2 CALLER SWAP2 AND DUP5 PUSH2 0x313D JUMP JUMPDEST PUSH1 0x0 DUP5 PUSH2 0xC96 DUP14 DUP9 PUSH2 0x3D45 JUMP JUMPDEST PUSH2 0xCA0 SWAP2 SWAP1 PUSH2 0x3C3A JUMP JUMPDEST PUSH1 0x7 SLOAD PUSH1 0x40 MLOAD PUSH3 0x45B14B PUSH1 0xE7 SHL DUP2 MSTORE PUSH1 0x4 DUP2 ADD DUP4 SWAP1 MSTORE SWAP2 SWAP3 POP PUSH1 0x1 PUSH1 0x1 PUSH1 0xA0 SHL SUB AND SWAP1 PUSH4 0x22D8A580 SWAP1 PUSH1 0x24 ADD PUSH1 0x0 PUSH1 0x40 MLOAD DUP1 DUP4 SUB DUP2 PUSH1 0x0 DUP8 DUP1 EXTCODESIZE ISZERO DUP1 ISZERO PUSH2 0xCE6 JUMPI PUSH1 0x0 DUP1 REVERT JUMPDEST POP GAS CALL ISZERO DUP1 ISZERO PUSH2 0xCFA JUMPI RETURNDATASIZE PUSH1 0x0 DUP1 RETURNDATACOPY RETURNDATASIZE PUSH1 0x0 REVERT JUMPDEST POP POP POP POP DUP12 DUP6 PUSH2 0xD0A SWAP2 SWAP1 PUSH2 0x3D64 JUMP JUMPDEST DUP8 SSTORE PUSH2 0xD16 DUP2 DUP8 PUSH2 0x3D64 JUMP JUMPDEST DUP8 PUSH1 0x1 ADD DUP2 SWAP1 SSTORE POP PUSH1 0x0 DUP1 MLOAD PUSH1 0x20 PUSH2 0x3DB8 DUP4 CODECOPY DUP2 MLOAD SWAP2 MSTORE DUP15 DUP9 PUSH1 0x0 ADD SLOAD DUP10 PUSH1 0x1 ADD SLOAD DUP8 DUP8 DUP13 PUSH1 0x2 ADD PUSH1 0x14 SWAP1 SLOAD SWAP1 PUSH2 0x100 EXP SWAP1 DIV PUSH1 0x1 PUSH1 0x1 PUSH1 0x58 SHL SUB AND PUSH1 0x40 MLOAD PUSH2 0xD64 SWAP7 SWAP6 SWAP5 SWAP4 SWAP3 SWAP2 SWAP1 PUSH2 0x3AAE JUMP JUMPDEST PUSH1 0x40 MLOAD DUP1 SWAP2 SUB SWAP1 LOG1 DUP7 SLOAD PUSH2 0xD8C JUMPI PUSH1 0x0 PUSH1 0x1 DUP9 ADD SSTORE PUSH1 0x2 DUP8 ADD DUP1 SLOAD PUSH1 0x1 PUSH1 0x1 PUSH1 0xF8 SHL SUB NOT AND SWAP1 SSTORE JUMPDEST PUSH1 0x1 PUSH1 0x1 PUSH1 0xA0 SHL SUB DUP15 AND ISZERO PUSH2 0xDAB JUMPI PUSH2 0xDA6 DUP15 CALLER DUP15 PUSH2 0x326D JUMP JUMPDEST PUSH2 0xDB5 JUMP JUMPDEST PUSH2 0xDB5 CALLER DUP14 PUSH2 0x338A JUMP JUMPDEST POP POP PUSH1 0x0 DUP1 SSTORE POP POP POP POP POP POP POP POP POP POP POP POP JUMP JUMPDEST PUSH1 0x1 PUSH1 0x1 PUSH1 0xA0 SHL SUB DUP1 DUP4 AND PUSH1 0x0 SWAP1 DUP2 MSTORE PUSH1 0x5 PUSH1 0x20 SWAP1 DUP2 MSTORE PUSH1 0x40 DUP1 DUP4 KECCAK256 SWAP4 DUP6 AND DUP4 MSTORE PUSH1 0x1 DUP5 ADD SWAP1 SWAP2 MSTORE DUP2 KECCAK256 SLOAD SWAP1 SWAP2 DUP3 SWAP2 DUP3 SWAP2 DUP3 SWAP2 DUP3 SWAP2 SWAP1 PUSH2 0xE1B JUMPI PUSH1 0x0 DUP1 PUSH1 0x0 DUP1 PUSH1 0x0 SWAP6 POP SWAP6 POP SWAP6 POP SWAP6 POP SWAP6 POP POP PUSH2 0xECB JUMP JUMPDEST PUSH1 0x1 PUSH1 0x1 PUSH1 0xA0 SHL SUB DUP8 AND PUSH1 0x0 SWAP1 DUP2 MSTORE PUSH1 0x1 DUP1 DUP4 ADD PUSH1 0x20 MSTORE PUSH1 0x40 DUP3 KECCAK256 SLOAD DUP4 SWAP2 PUSH2 0xE42 SWAP2 PUSH2 0x3D64 JUMP JUMPDEST DUP2 SLOAD DUP2 LT PUSH2 0xE60 JUMPI PUSH4 0x4E487B71 PUSH1 0xE0 SHL PUSH1 0x0 MSTORE PUSH1 0x32 PUSH1 0x4 MSTORE PUSH1 0x24 PUSH1 0x0 REVERT JUMPDEST PUSH1 0x0 SWAP2 DUP3 MSTORE PUSH1 0x20 SWAP2 DUP3 SWAP1 KECCAK256 PUSH1 0x40 DUP1 MLOAD PUSH1 0x80 DUP2 ADD DUP3 MSTORE PUSH1 0x3 SWAP1 SWAP4 MUL SWAP1 SWAP2 ADD DUP1 SLOAD DUP1 DUP5 MSTORE PUSH1 0x1 DUP1 DUP4 ADD SLOAD SWAP6 DUP6 ADD DUP7 SWAP1 MSTORE PUSH1 0x2 SWAP1 SWAP3 ADD SLOAD PUSH1 0x1 PUSH1 0x1 PUSH1 0xA0 SHL SUB DUP2 AND SWAP4 DUP6 ADD DUP5 SWAP1 MSTORE PUSH1 0x1 PUSH1 0x1 PUSH1 0x58 SHL SUB PUSH1 0x1 PUSH1 0xA0 SHL SWAP1 SWAP2 DIV AND PUSH1 0x60 SWAP1 SWAP5 ADD DUP5 SWAP1 MSTORE SWAP11 POP SWAP3 SWAP9 POP SWAP7 POP SWAP5 POP SWAP3 POP POP POP JUMPDEST SWAP3 SWAP6 POP SWAP3 SWAP6 SWAP1 SWAP4 POP JUMP JUMPDEST PUSH1 0x1 SLOAD PUSH1 0x40 MLOAD PUSH4 0x91E1472B PUSH1 0xE0 SHL DUP2 MSTORE PUSH1 0x1 PUSH1 0x1 PUSH1 0xA0 SHL SUB SWAP1 SWAP2 AND SWAP1 PUSH4 0x91E1472B SWAP1 PUSH2 0xF08 SWAP1 CALLER SWAP1 PUSH1 0x0 SWAP1 PUSH1 0x4 ADD PUSH2 0x3A95 JUMP JUMPDEST PUSH1 0x20 PUSH1 0x40 MLOAD DUP1 DUP4 SUB DUP2 DUP7 DUP1 EXTCODESIZE ISZERO DUP1 ISZERO PUSH2 0xF20 JUMPI PUSH1 0x0 DUP1 REVERT JUMPDEST POP GAS STATICCALL ISZERO DUP1 ISZERO PUSH2 0xF34 JUMPI RETURNDATASIZE PUSH1 0x0 DUP1 RETURNDATACOPY RETURNDATASIZE PUSH1 0x0 REVERT JUMPDEST POP POP POP POP PUSH1 0x40 MLOAD RETURNDATASIZE PUSH1 0x1F NOT PUSH1 0x1F DUP3 ADD AND DUP3 ADD DUP1 PUSH1 0x40 MSTORE POP DUP2 ADD SWAP1 PUSH2 0xF58 SWAP2 SWAP1 PUSH2 0x38AB JUMP JUMPDEST PUSH2 0xF74 JUMPI PUSH1 0x40 MLOAD PUSH3 0x461BCD PUSH1 0xE5 SHL DUP2 MSTORE PUSH1 0x4 ADD PUSH2 0x8B4 SWAP1 PUSH2 0x3B8F JUMP JUMPDEST PUSH1 0x1 PUSH1 0x1 PUSH1 0xA0 SHL SUB SWAP1 SWAP2 AND PUSH1 0x0 SWAP1 DUP2 MSTORE PUSH1 0x4 PUSH1 0x20 MSTORE PUSH1 0x40 SWAP1 KECCAK256 DUP1 SLOAD PUSH1 0x1 PUSH1 0x1 PUSH1 0x50 SHL SUB SWAP1 SWAP3 AND PUSH1 0x1 PUSH1 0x60 SHL MUL PUSH10 0xFFFFFFFFFFFFFFFFFFFF PUSH1 0x60 SHL NOT SWAP1 SWAP3 AND SWAP2 SWAP1 SWAP2 OR SWAP1 SSTORE JUMP JUMPDEST PUSH1 0x1 SLOAD PUSH1 0x40 MLOAD PUSH4 0x91E1472B PUSH1 0xE0 SHL DUP2 MSTORE PUSH1 0x1 PUSH1 0x1 PUSH1 0xA0 SHL SUB SWAP1 SWAP2 AND SWAP1 PUSH4 0x91E1472B SWAP1 PUSH2 0xFED SWAP1 CALLER SWAP1 PUSH1 0x0 SWAP1 PUSH1 0x4 ADD PUSH2 0x3A95 JUMP JUMPDEST PUSH1 0x20 PUSH1 0x40 MLOAD DUP1 DUP4 SUB DUP2 DUP7 DUP1 EXTCODESIZE ISZERO DUP1 ISZERO PUSH2 0x1005 JUMPI PUSH1 0x0 DUP1 REVERT JUMPDEST POP GAS STATICCALL ISZERO DUP1 ISZERO PUSH2 0x1019 JUMPI RETURNDATASIZE PUSH1 0x0 DUP1 RETURNDATACOPY RETURNDATASIZE PUSH1 0x0 REVERT JUMPDEST POP POP POP POP PUSH1 0x40 MLOAD RETURNDATASIZE PUSH1 0x1F NOT PUSH1 0x1F DUP3 ADD AND DUP3 ADD DUP1 PUSH1 0x40 MSTORE POP DUP2 ADD SWAP1 PUSH2 0x103D SWAP2 SWAP1 PUSH2 0x38AB JUMP JUMPDEST PUSH2 0x1059 JUMPI PUSH1 0x40 MLOAD PUSH3 0x461BCD PUSH1 0xE5 SHL DUP2 MSTORE PUSH1 0x4 ADD PUSH2 0x8B4 SWAP1 PUSH2 0x3B8F JUMP JUMPDEST PUSH1 0x3 DUP1 SLOAD PUSH1 0x1 PUSH1 0x1 PUSH1 0x60 SHL SUB SWAP1 SWAP3 AND PUSH1 0x1 PUSH1 0xA0 SHL MUL PUSH1 0x1 PUSH1 0x1 PUSH1 0xA0 SHL SUB SWAP1 SWAP3 AND SWAP2 SWAP1 SWAP2 OR SWAP1 SSTORE JUMP JUMPDEST PUSH1 0x1 SLOAD PUSH1 0x40 MLOAD PUSH4 0x91E1472B PUSH1 0xE0 SHL DUP2 MSTORE PUSH1 0x1 PUSH1 0x1 PUSH1 0xA0 SHL SUB SWAP1 SWAP2 AND SWAP1 PUSH4 0x91E1472B SWAP1 PUSH2 0x10B4 SWAP1 CALLER SWAP1 PUSH1 0x0 SWAP1 PUSH1 0x4 ADD PUSH2 0x3A95 JUMP JUMPDEST PUSH1 0x20 PUSH1 0x40 MLOAD DUP1 DUP4 SUB DUP2 DUP7 DUP1 EXTCODESIZE ISZERO DUP1 ISZERO PUSH2 0x10CC JUMPI PUSH1 0x0 DUP1 REVERT JUMPDEST POP GAS STATICCALL ISZERO DUP1 ISZERO PUSH2 0x10E0 JUMPI RETURNDATASIZE PUSH1 0x0 DUP1 RETURNDATACOPY RETURNDATASIZE PUSH1 0x0 REVERT JUMPDEST POP POP POP POP PUSH1 0x40 MLOAD RETURNDATASIZE PUSH1 0x1F NOT PUSH1 0x1F DUP3 ADD AND DUP3 ADD DUP1 PUSH1 0x40 MSTORE POP DUP2 ADD SWAP1 PUSH2 0x1104 SWAP2 SWAP1 PUSH2 0x38AB JUMP JUMPDEST PUSH2 0x1120 JUMPI PUSH1 0x40 MLOAD PUSH3 0x461BCD PUSH1 0xE5 SHL DUP2 MSTORE PUSH1 0x4 ADD PUSH2 0x8B4 SWAP1 PUSH2 0x3B8F JUMP JUMPDEST PUSH1 0x2 DUP1 SLOAD PUSH1 0x1 PUSH1 0x1 PUSH1 0x60 SHL SUB SWAP1 SWAP3 AND PUSH1 0x1 PUSH1 0xA0 SHL MUL PUSH1 0x1 PUSH1 0x1 PUSH1 0xA0 SHL SUB SWAP1 SWAP3 AND SWAP2 SWAP1 SWAP2 OR SWAP1 SSTORE JUMP JUMPDEST PUSH1 0x3 SLOAD PUSH1 0x1 PUSH1 0x1 PUSH1 0x60 SHL SUB PUSH1 0x1 PUSH1 0xA0 SHL SWAP1 SWAP2 DIV AND PUSH1 0x1 EQ PUSH2 0x11A6 JUMPI PUSH1 0x40 MLOAD PUSH3 0x461BCD PUSH1 0xE5 SHL DUP2 MSTORE PUSH1 0x20 PUSH1 0x4 DUP3 ADD MSTORE PUSH1 0x18 PUSH1 0x24 DUP3 ADD MSTORE PUSH24 0x4C6F673A4D6F727467616765506F6F6C3A21616374697665 PUSH1 0x40 SHL PUSH1 0x44 DUP3 ADD MSTORE PUSH1 0x64 ADD PUSH2 0x8B4 JUMP JUMPDEST PUSH1 0x0 SLOAD ISZERO PUSH2 0x11C6 JUMPI PUSH1 0x40 MLOAD PUSH3 0x461BCD PUSH1 0xE5 SHL DUP2 MSTORE PUSH1 0x4 ADD PUSH2 0x8B4 SWAP1 PUSH2 0x3B21 JUMP JUMPDEST PUSH1 0x1 PUSH1 0x0 SWAP1 DUP2 SSTORE PUSH1 0x1 PUSH1 0x1 PUSH1 0xA0 SHL SUB DUP5 AND DUP2 MSTORE PUSH1 0x4 PUSH1 0x20 SWAP1 DUP2 MSTORE PUSH1 0x40 SWAP2 DUP3 SWAP1 KECCAK256 DUP3 MLOAD PUSH1 0xA0 DUP2 ADD DUP5 MSTORE SWAP1 SLOAD PUSH1 0xFF DUP2 AND ISZERO ISZERO DUP1 DUP4 MSTORE PUSH1 0x1 PUSH1 0x1 PUSH1 0x58 SHL SUB PUSH2 0x100 DUP4 DIV AND SWAP4 DUP4 ADD SWAP4 SWAP1 SWAP4 MSTORE PUSH1 0x1 PUSH1 0x1 PUSH1 0x50 SHL SUB PUSH1 0x1 PUSH1 0x60 SHL DUP3 DIV AND SWAP4 DUP3 ADD SWAP4 SWAP1 SWAP4 MSTORE PUSH5 0xFFFFFFFFFF PUSH1 0x1 PUSH1 0xB0 SHL DUP5 DIV DUP2 AND PUSH1 0x60 DUP4 ADD MSTORE PUSH1 0x1 PUSH1 0xD8 SHL SWAP1 SWAP4 DIV SWAP1 SWAP3 AND PUSH1 0x80 DUP4 ADD MSTORE PUSH2 0x1265 JUMPI PUSH1 0x40 MLOAD PUSH3 0x461BCD PUSH1 0xE5 SHL DUP2 MSTORE PUSH1 0x4 ADD PUSH2 0x8B4 SWAP1 PUSH2 0x3BBE JUMP JUMPDEST PUSH1 0x0 DUP3 PUSH1 0x1 PUSH1 0x1 PUSH1 0x58 SHL SUB AND GT DUP1 ISZERO PUSH2 0x1294 JUMPI POP DUP1 PUSH1 0x20 ADD MLOAD PUSH1 0x1 PUSH1 0x1 PUSH1 0x58 SHL SUB AND DUP3 PUSH1 0x1 PUSH1 0x1 PUSH1 0x58 SHL SUB AND GT ISZERO JUMPDEST PUSH2 0x12E0 JUMPI PUSH1 0x40 MLOAD PUSH3 0x461BCD PUSH1 0xE5 SHL DUP2 MSTORE PUSH1 0x20 PUSH1 0x4 DUP3 ADD MSTORE PUSH1 0x18 PUSH1 0x24 DUP3 ADD MSTORE PUSH32 0x4C6F673A4D6F727467616765506F6F6C3A72617465213D300000000000000000 PUSH1 0x44 DUP3 ADD MSTORE PUSH1 0x64 ADD PUSH2 0x8B4 JUMP JUMPDEST PUSH1 0x0 DUP4 GT PUSH2 0x1330 JUMPI PUSH1 0x40 MLOAD PUSH3 0x461BCD PUSH1 0xE5 SHL DUP2 MSTORE PUSH1 0x20 PUSH1 0x4 DUP3 ADD MSTORE PUSH1 0x1A PUSH1 0x24 DUP3 ADD MSTORE PUSH32 0x4C6F673A4D6F727467616765506F6F6C3A616D6F756E74213D30000000000000 PUSH1 0x44 DUP3 ADD MSTORE PUSH1 0x64 ADD PUSH2 0x8B4 JUMP JUMPDEST PUSH1 0x1 PUSH1 0x1 PUSH1 0xA0 SHL SUB DUP5 AND PUSH1 0x0 SWAP1 DUP2 MSTORE PUSH1 0x5 PUSH1 0x20 SWAP1 DUP2 MSTORE PUSH1 0x40 DUP1 DUP4 KECCAK256 CALLER DUP5 MSTORE PUSH1 0x1 DUP2 ADD SWAP1 SWAP3 MSTORE SWAP1 SWAP2 KECCAK256 SLOAD DUP1 PUSH2 0x137B JUMPI DUP2 SLOAD PUSH1 0x1 SWAP1 DUP2 ADD DUP1 DUP5 SSTORE CALLER PUSH1 0x0 SWAP1 DUP2 MSTORE SWAP2 DUP5 ADD PUSH1 0x20 MSTORE PUSH1 0x40 SWAP1 SWAP2 KECCAK256 SSTORE JUMPDEST CALLER PUSH1 0x0 SWAP1 DUP2 MSTORE PUSH1 0x1 DUP1 DUP5 ADD PUSH1 0x20 MSTORE PUSH1 0x40 DUP3 KECCAK256 SLOAD DUP5 SWAP2 PUSH2 0x1399 SWAP2 PUSH2 0x3D64 JUMP JUMPDEST DUP2 SLOAD DUP2 LT PUSH2 0x13B7 JUMPI PUSH4 0x4E487B71 PUSH1 0xE0 SHL PUSH1 0x0 MSTORE PUSH1 0x32 PUSH1 0x4 MSTORE PUSH1 0x24 PUSH1 0x0 REVERT JUMPDEST PUSH1 0x0 SWAP2 DUP3 MSTORE PUSH1 0x20 DUP3 KECCAK256 PUSH1 0x1 PUSH1 0x3 SWAP1 SWAP3 MUL ADD SWAP1 DUP2 ADD SLOAD DUP2 SLOAD SWAP2 SWAP4 POP SWAP2 DUP1 PUSH1 0x1 PUSH1 0x1 PUSH1 0xA0 SHL SUB DUP12 AND ISZERO PUSH2 0x1402 JUMPI PUSH2 0x13EE DUP12 CALLER ADDRESS DUP14 PUSH2 0x313D JUMP JUMPDEST PUSH2 0x13F8 DUP12 CALLVALUE PUSH2 0x309E JUMP JUMPDEST SWAP1 SWAP3 POP SWAP1 POP PUSH2 0x146B JUMP JUMPDEST DUP10 CALLVALUE LT ISZERO PUSH2 0x1452 JUMPI PUSH1 0x40 MLOAD PUSH3 0x461BCD PUSH1 0xE5 SHL DUP2 MSTORE PUSH1 0x20 PUSH1 0x4 DUP3 ADD MSTORE PUSH1 0x1B PUSH1 0x24 DUP3 ADD MSTORE PUSH32 0x4C6F673A4D6F727467616765506F6F6C3A216D73672E76616C75650000000000 PUSH1 0x44 DUP3 ADD MSTORE PUSH1 0x64 ADD PUSH2 0x8B4 JUMP JUMPDEST PUSH2 0x1465 DUP12 PUSH2 0x1460 DUP13 CALLVALUE PUSH2 0x3D64 JUMP JUMPDEST PUSH2 0x309E JUMP JUMPDEST SWAP1 SWAP3 POP SWAP1 POP JUMPDEST PUSH1 0x40 DUP1 MLOAD PUSH1 0x80 DUP2 ADD DUP3 MSTORE DUP7 SLOAD DUP2 MSTORE PUSH1 0x1 DUP8 ADD SLOAD PUSH1 0x20 DUP3 ADD MSTORE PUSH1 0x2 DUP8 ADD SLOAD PUSH1 0x1 PUSH1 0x1 PUSH1 0xA0 SHL SUB DUP2 AND SWAP3 DUP3 ADD SWAP3 SWAP1 SWAP3 MSTORE PUSH1 0x1 PUSH1 0xA0 SHL SWAP1 SWAP2 DIV PUSH1 0x1 PUSH1 0x1 PUSH1 0x58 SHL SUB AND PUSH1 0x60 DUP1 DUP4 ADD SWAP2 SWAP1 SWAP2 MSTORE DUP10 ADD MLOAD PUSH2 0x14C4 SWAP2 SWAP1 DUP5 SWAP1 DUP5 SWAP1 PUSH2 0x3458 JUMP JUMPDEST PUSH1 0x0 PUSH2 0x14D3 PUSH3 0x186A0 DUP5 PUSH2 0x3D45 JUMP JUMPDEST PUSH1 0x1 PUSH1 0x1 PUSH1 0x58 SHL SUB DUP12 AND PUSH2 0x14E7 DUP5 DUP15 PUSH2 0x3D45 JUMP JUMPDEST PUSH2 0x14F1 SWAP2 SWAP1 PUSH2 0x3D45 JUMP JUMPDEST PUSH2 0x14FB SWAP2 SWAP1 PUSH2 0x3C3A JUMP JUMPDEST PUSH1 0x2 SLOAD PUSH1 0x40 MLOAD PUSH4 0x13B1DB0B PUSH1 0xE3 SHL DUP2 MSTORE PUSH1 0x4 DUP2 ADD DUP4 SWAP1 MSTORE CALLER PUSH1 0x24 DUP3 ADD MSTORE SWAP2 SWAP3 POP PUSH1 0x1 PUSH1 0x1 PUSH1 0xA0 SHL SUB AND SWAP1 PUSH4 0x9D8ED858 SWAP1 PUSH1 0x44 ADD PUSH1 0x0 PUSH1 0x40 MLOAD DUP1 DUP4 SUB DUP2 PUSH1 0x0 DUP8 DUP1 EXTCODESIZE ISZERO DUP1 ISZERO PUSH2 0x1548 JUMPI PUSH1 0x0 DUP1 REVERT JUMPDEST POP GAS CALL ISZERO DUP1 ISZERO PUSH2 0x155C JUMPI RETURNDATASIZE PUSH1 0x0 DUP1 RETURNDATACOPY RETURNDATASIZE PUSH1 0x0 REVERT JUMPDEST POP POP POP POP DUP11 DUP5 PUSH2 0x156C SWAP2 SWAP1 PUSH2 0x3C22 JUMP JUMPDEST DUP7 SSTORE PUSH2 0x1578 DUP2 DUP7 PUSH2 0x3C22 JUMP JUMPDEST PUSH1 0x1 DUP8 ADD DUP2 SWAP1 SSTORE PUSH1 0x2 DUP8 ADD DUP1 SLOAD PUSH1 0x1 PUSH1 0x1 PUSH1 0xA0 SHL SUB NOT AND NUMBER PUSH1 0x1 PUSH1 0x1 PUSH1 0xA0 SHL SUB AND OR SWAP1 SSTORE DUP7 SLOAD PUSH2 0x15A9 SWAP2 DUP6 DUP6 PUSH2 0x1C92 JUMP JUMPDEST DUP7 PUSH1 0x2 ADD PUSH1 0x14 PUSH2 0x100 EXP DUP2 SLOAD DUP2 PUSH1 0x1 PUSH1 0x1 PUSH1 0x58 SHL SUB MUL NOT AND SWAP1 DUP4 PUSH1 0x1 PUSH1 0x1 PUSH1 0x58 SHL SUB AND MUL OR SWAP1 SSTORE POP PUSH1 0x0 DUP1 MLOAD PUSH1 0x20 PUSH2 0x3DB8 DUP4 CODECOPY DUP2 MLOAD SWAP2 MSTORE DUP13 DUP8 PUSH1 0x0 ADD SLOAD DUP9 PUSH1 0x1 ADD SLOAD DUP7 DUP7 DUP12 PUSH1 0x2 ADD PUSH1 0x14 SWAP1 SLOAD SWAP1 PUSH2 0x100 EXP SWAP1 DIV PUSH1 0x1 PUSH1 0x1 PUSH1 0x58 SHL SUB AND PUSH1 0x40 MLOAD PUSH2 0x1617 SWAP7 SWAP6 SWAP5 SWAP4 SWAP3 SWAP2 SWAP1 PUSH2 0x3AAE JUMP JUMPDEST PUSH1 0x40 MLOAD DUP1 SWAP2 SUB SWAP1 LOG1 POP POP PUSH1 0x0 DUP1 SSTORE POP POP POP POP POP POP POP POP POP POP JUMP JUMPDEST PUSH1 0x0 DUP1 PUSH2 0x1647 PUSH1 0x1 PUSH1 0x1 PUSH1 0xA0 SHL SUB DUP8 AND NUMBER PUSH2 0x3D64 JUMP JUMPDEST PUSH5 0xFFFFFFFFFF DUP5 AND DUP9 PUSH3 0x186A0 PUSH2 0x165E DUP9 DUP11 PUSH2 0x3C22 JUMP JUMPDEST PUSH2 0x1669 SWAP1 PUSH1 0x2 PUSH2 0x3D45 JUMP JUMPDEST PUSH2 0x1673 SWAP2 SWAP1 PUSH2 0x3C22 JUMP JUMPDEST PUSH2 0x167D SWAP2 SWAP1 PUSH2 0x3D45 JUMP JUMPDEST PUSH2 0x1687 SWAP2 SWAP1 PUSH2 0x3D45 JUMP JUMPDEST PUSH2 0x1691 SWAP2 SWAP1 PUSH2 0x3D45 JUMP JUMPDEST PUSH1 0x2 SLOAD SWAP1 SWAP2 POP PUSH1 0x0 SWAP1 PUSH1 0x1 PUSH1 0xA0 SHL SWAP1 DIV PUSH1 0x1 PUSH1 0x1 PUSH1 0x60 SHL SUB AND PUSH2 0x16B7 PUSH3 0x186A0 DUP1 PUSH2 0x3D45 JUMP JUMPDEST PUSH2 0x16C1 SWAP2 SWAP1 PUSH2 0x3D45 JUMP JUMPDEST SWAP1 POP PUSH2 0x16CD DUP2 DUP4 PUSH2 0x3C3A JUMP JUMPDEST SWAP9 SWAP8 POP POP POP POP POP POP POP POP JUMP JUMPDEST PUSH1 0x1 SLOAD PUSH1 0x40 MLOAD PUSH4 0x91E1472B PUSH1 0xE0 SHL DUP2 MSTORE PUSH1 0x1 PUSH1 0x1 PUSH1 0xA0 SHL SUB SWAP1 SWAP2 AND SWAP1 PUSH4 0x91E1472B SWAP1 PUSH2 0x170C SWAP1 CALLER SWAP1 PUSH1 0x0 SWAP1 PUSH1 0x4 ADD PUSH2 0x3A95 JUMP JUMPDEST PUSH1 0x20 PUSH1 0x40 MLOAD DUP1 DUP4 SUB DUP2 DUP7 DUP1 EXTCODESIZE ISZERO DUP1 ISZERO PUSH2 0x1724 JUMPI PUSH1 0x0 DUP1 REVERT JUMPDEST POP GAS STATICCALL ISZERO DUP1 ISZERO PUSH2 0x1738 JUMPI RETURNDATASIZE PUSH1 0x0 DUP1 RETURNDATACOPY RETURNDATASIZE PUSH1 0x0 REVERT JUMPDEST POP POP POP POP PUSH1 0x40 MLOAD RETURNDATASIZE PUSH1 0x1F NOT PUSH1 0x1F DUP3 ADD AND DUP3 ADD DUP1 PUSH1 0x40 MSTORE POP DUP2 ADD SWAP1 PUSH2 0x175C SWAP2 SWAP1 PUSH2 0x38AB JUMP JUMPDEST PUSH2 0x1778 JUMPI PUSH1 0x40 MLOAD PUSH3 0x461BCD PUSH1 0xE5 SHL DUP2 MSTORE PUSH1 0x4 ADD PUSH2 0x8B4 SWAP1 PUSH2 0x3B8F JUMP JUMPDEST PUSH1 0x6 DUP1 SLOAD PUSH1 0x1 PUSH1 0x1 PUSH1 0xA0 SHL SUB NOT AND PUSH1 0x1 PUSH1 0x1 PUSH1 0xA0 SHL SUB SWAP3 SWAP1 SWAP3 AND SWAP2 SWAP1 SWAP2 OR SWAP1 SSTORE JUMP JUMPDEST PUSH1 0x1 SLOAD PUSH1 0x40 MLOAD PUSH4 0x91E1472B PUSH1 0xE0 SHL DUP2 MSTORE PUSH1 0x1 PUSH1 0x1 PUSH1 0xA0 SHL SUB SWAP1 SWAP2 AND SWAP1 PUSH4 0x91E1472B SWAP1 PUSH2 0x17CD SWAP1 CALLER SWAP1 PUSH1 0x0 SWAP1 PUSH1 0x4 ADD PUSH2 0x3A95 JUMP JUMPDEST PUSH1 0x20 PUSH1 0x40 MLOAD DUP1 DUP4 SUB DUP2 DUP7 DUP1 EXTCODESIZE ISZERO DUP1 ISZERO PUSH2 0x17E5 JUMPI PUSH1 0x0 DUP1 REVERT JUMPDEST POP GAS STATICCALL ISZERO DUP1 ISZERO PUSH2 0x17F9 JUMPI RETURNDATASIZE PUSH1 0x0 DUP1 RETURNDATACOPY RETURNDATASIZE PUSH1 0x0 REVERT JUMPDEST POP POP POP POP PUSH1 0x40 MLOAD RETURNDATASIZE PUSH1 0x1F NOT PUSH1 0x1F DUP3 ADD AND DUP3 ADD DUP1 PUSH1 0x40 MSTORE POP DUP2 ADD SWAP1 PUSH2 0x181D SWAP2 SWAP1 PUSH2 0x38AB JUMP JUMPDEST PUSH2 0x1839 JUMPI PUSH1 0x40 MLOAD PUSH3 0x461BCD PUSH1 0xE5 SHL DUP2 MSTORE PUSH1 0x4 ADD PUSH2 0x8B4 SWAP1 PUSH2 0x3B8F JUMP JUMPDEST PUSH1 0x1 PUSH1 0x1 PUSH1 0xA0 SHL SUB SWAP1 SWAP2 AND PUSH1 0x0 SWAP1 DUP2 MSTORE PUSH1 0x4 PUSH1 0x20 MSTORE PUSH1 0x40 SWAP1 KECCAK256 DUP1 SLOAD PUSH5 0xFFFFFFFFFF SWAP1 SWAP3 AND PUSH1 0x1 PUSH1 0xD8 SHL MUL PUSH1 0x1 PUSH1 0x1 PUSH1 0xD8 SHL SUB SWAP1 SWAP3 AND SWAP2 SWAP1 SWAP2 OR SWAP1 SSTORE JUMP JUMPDEST PUSH1 0x1 SLOAD PUSH1 0x40 MLOAD PUSH4 0x91E1472B PUSH1 0xE0 SHL DUP2 MSTORE PUSH1 0x1 PUSH1 0x1 PUSH1 0xA0 SHL SUB SWAP1 SWAP2 AND SWAP1 PUSH4 0x91E1472B SWAP1 PUSH2 0x18A9 SWAP1 CALLER SWAP1 PUSH1 0x0 SWAP1 PUSH1 0x4 ADD PUSH2 0x3A95 JUMP JUMPDEST PUSH1 0x20 PUSH1 0x40 MLOAD DUP1 DUP4 SUB DUP2 DUP7 DUP1 EXTCODESIZE ISZERO DUP1 ISZERO PUSH2 0x18C1 JUMPI PUSH1 0x0 DUP1 REVERT JUMPDEST POP GAS STATICCALL ISZERO DUP1 ISZERO PUSH2 0x18D5 JUMPI RETURNDATASIZE PUSH1 0x0 DUP1 RETURNDATACOPY RETURNDATASIZE PUSH1 0x0 REVERT JUMPDEST POP POP POP POP PUSH1 0x40 MLOAD RETURNDATASIZE PUSH1 0x1F NOT PUSH1 0x1F DUP3 ADD AND DUP3 ADD DUP1 PUSH1 0x40 MSTORE POP DUP2 ADD SWAP1 PUSH2 0x18F9 SWAP2 SWAP1 PUSH2 0x38AB JUMP JUMPDEST PUSH2 0x1915 JUMPI PUSH1 0x40 MLOAD PUSH3 0x461BCD PUSH1 0xE5 SHL DUP2 MSTORE PUSH1 0x4 ADD PUSH2 0x8B4 SWAP1 PUSH2 0x3B8F JUMP JUMPDEST PUSH1 0x1 PUSH1 0x1 PUSH1 0xA0 SHL SUB SWAP1 SWAP2 AND PUSH1 0x0 SWAP1 DUP2 MSTORE PUSH1 0x4 PUSH1 0x20 MSTORE PUSH1 0x40 SWAP1 KECCAK256 DUP1 SLOAD PUSH1 0x1 PUSH1 0x1 PUSH1 0x58 SHL SUB SWAP1 SWAP3 AND PUSH2 0x100 MUL PUSH12 0xFFFFFFFFFFFFFFFFFFFFFF00 NOT SWAP1 SWAP3 AND SWAP2 SWAP1 SWAP2 OR SWAP1 SSTORE JUMP JUMPDEST PUSH1 0x3 SLOAD PUSH1 0x1 PUSH1 0xA0 SHL SWAP1 DIV PUSH1 0x1 PUSH1 0x1 PUSH1 0x60 SHL SUB AND PUSH2 0x1987 JUMPI PUSH1 0x40 MLOAD PUSH3 0x461BCD PUSH1 0xE5 SHL DUP2 MSTORE PUSH1 0x4 ADD PUSH2 0x8B4 SWAP1 PUSH2 0x3BF5 JUMP JUMPDEST PUSH1 0x0 SLOAD ISZERO PUSH2 0x19A7 JUMPI PUSH1 0x40 MLOAD PUSH3 0x461BCD PUSH1 0xE5 SHL DUP2 MSTORE PUSH1 0x4 ADD PUSH2 0x8B4 SWAP1 PUSH2 0x3B21 JUMP JUMPDEST PUSH1 0x1 PUSH1 0x0 SWAP1 DUP2 SSTORE PUSH1 0x1 PUSH1 0x1 PUSH1 0xA0 SHL SUB DUP4 AND DUP2 MSTORE PUSH1 0x4 PUSH1 0x20 SWAP1 DUP2 MSTORE PUSH1 0x40 SWAP2 DUP3 SWAP1 KECCAK256 DUP3 MLOAD PUSH1 0xA0 DUP2 ADD DUP5 MSTORE SWAP1 SLOAD PUSH1 0xFF DUP2 AND ISZERO ISZERO DUP1 DUP4 MSTORE PUSH1 0x1 PUSH1 0x1 PUSH1 0x58 SHL SUB PUSH2 0x100 DUP4 DIV AND SWAP4 DUP4 ADD SWAP4 SWAP1 SWAP4 MSTORE PUSH1 0x1 PUSH1 0x1 PUSH1 0x50 SHL SUB PUSH1 0x1 PUSH1 0x60 SHL DUP3 DIV AND SWAP4 DUP3 ADD SWAP4 SWAP1 SWAP4 MSTORE PUSH5 0xFFFFFFFFFF PUSH1 0x1 PUSH1 0xB0 SHL DUP5 DIV DUP2 AND PUSH1 0x60 DUP4 ADD MSTORE PUSH1 0x1 PUSH1 0xD8 SHL SWAP1 SWAP4 DIV SWAP1 SWAP3 AND PUSH1 0x80 DUP4 ADD MSTORE PUSH2 0x1A46 JUMPI PUSH1 0x40 MLOAD PUSH3 0x461BCD PUSH1 0xE5 SHL DUP2 MSTORE PUSH1 0x4 ADD PUSH2 0x8B4 SWAP1 PUSH2 0x3BBE JUMP JUMPDEST PUSH1 0x1 PUSH1 0x1 PUSH1 0xA0 SHL SUB DUP4 AND PUSH1 0x0 SWAP1 DUP2 MSTORE PUSH1 0x5 PUSH1 0x20 SWAP1 DUP2 MSTORE PUSH1 0x40 DUP1 DUP4 KECCAK256 CALLER DUP5 MSTORE PUSH1 0x1 DUP2 ADD SWAP1 SWAP3 MSTORE SWAP1 SWAP2 KECCAK256 SLOAD DUP1 PUSH2 0x1A8C JUMPI PUSH1 0x40 MLOAD PUSH3 0x461BCD PUSH1 0xE5 SHL DUP2 MSTORE PUSH1 0x4 ADD PUSH2 0x8B4 SWAP1 PUSH2 0x3B58 JUMP JUMPDEST PUSH1 0x0 DUP3 PUSH2 0x1A9A PUSH1 0x1 DUP5 PUSH2 0x3D64 JUMP JUMPDEST DUP2 SLOAD DUP2 LT PUSH2 0x1AB8 JUMPI PUSH4 0x4E487B71 PUSH1 0xE0 SHL PUSH1 0x0 MSTORE PUSH1 0x32 PUSH1 0x4 MSTORE PUSH1 0x24 PUSH1 0x0 REVERT JUMPDEST PUSH1 0x0 SWAP2 DUP3 MSTORE PUSH1 0x20 SWAP1 SWAP2 KECCAK256 PUSH1 0x3 SWAP1 SWAP2 MUL ADD PUSH1 0x1 DUP2 ADD SLOAD DUP2 SLOAD SWAP2 SWAP3 POP SWAP1 DUP7 ISZERO DUP1 ISZERO SWAP1 PUSH2 0x1AE2 JUMPI POP DUP2 DUP8 GT ISZERO JUMPDEST PUSH2 0x1AFE JUMPI PUSH1 0x40 MLOAD PUSH3 0x461BCD PUSH1 0xE5 SHL DUP2 MSTORE PUSH1 0x4 ADD PUSH2 0x8B4 SWAP1 PUSH2 0x3AEA JUMP JUMPDEST PUSH1 0x0 DUP1 PUSH2 0x1B0B DUP11 CALLVALUE PUSH2 0x309E JUMP JUMPDEST PUSH1 0x40 DUP1 MLOAD PUSH1 0x80 DUP2 ADD DUP3 MSTORE DUP9 SLOAD DUP2 MSTORE PUSH1 0x1 DUP10 ADD SLOAD PUSH1 0x20 DUP3 ADD MSTORE PUSH1 0x2 DUP10 ADD SLOAD PUSH1 0x1 PUSH1 0x1 PUSH1 0xA0 SHL SUB DUP2 AND SWAP3 DUP3 ADD SWAP3 SWAP1 SWAP3 MSTORE PUSH1 0x1 PUSH1 0xA0 SHL SWAP1 SWAP2 DIV PUSH1 0x1 PUSH1 0x1 PUSH1 0x58 SHL SUB AND PUSH1 0x60 DUP1 DUP4 ADD SWAP2 SWAP1 SWAP2 MSTORE DUP12 ADD MLOAD SWAP3 SWAP5 POP SWAP1 SWAP3 POP PUSH2 0x1B69 SWAP2 DUP5 SWAP1 DUP5 SWAP1 PUSH2 0x3458 JUMP JUMPDEST PUSH2 0x1B73 DUP10 DUP6 PUSH2 0x3D64 JUMP JUMPDEST PUSH1 0x1 DUP7 ADD DUP2 SWAP1 SSTORE PUSH1 0x2 DUP7 ADD DUP1 SLOAD PUSH1 0x1 PUSH1 0x1 PUSH1 0xA0 SHL SUB NOT AND NUMBER PUSH1 0x1 PUSH1 0x1 PUSH1 0xA0 SHL SUB AND OR SWAP1 SSTORE PUSH2 0x1BA4 SWAP1 DUP5 SWAP1 DUP5 DUP5 PUSH2 0x1C92 JUMP JUMPDEST DUP6 PUSH1 0x2 ADD PUSH1 0x14 PUSH2 0x100 EXP DUP2 SLOAD DUP2 PUSH1 0x1 PUSH1 0x1 PUSH1 0x58 SHL SUB MUL NOT AND SWAP1 DUP4 PUSH1 0x1 PUSH1 0x1 PUSH1 0x58 SHL SUB AND MUL OR SWAP1 SSTORE POP PUSH1 0x0 DUP1 MLOAD PUSH1 0x20 PUSH2 0x3DB8 DUP4 CODECOPY DUP2 MLOAD SWAP2 MSTORE DUP11 DUP7 PUSH1 0x0 ADD SLOAD DUP8 PUSH1 0x1 ADD SLOAD DUP6 DUP6 DUP11 PUSH1 0x2 ADD PUSH1 0x14 SWAP1 SLOAD SWAP1 PUSH2 0x100 EXP SWAP1 DIV PUSH1 0x1 PUSH1 0x1 PUSH1 0x58 SHL SUB AND PUSH1 0x40 MLOAD PUSH2 0x1C12 SWAP7 SWAP6 SWAP5 SWAP4 SWAP3 SWAP2 SWAP1 PUSH2 0x3AAE JUMP JUMPDEST PUSH1 0x40 MLOAD DUP1 SWAP2 SUB SWAP1 LOG1 PUSH1 0x2 SLOAD PUSH2 0x1C32 SWAP1 PUSH1 0x1 PUSH1 0x1 PUSH1 0xA0 SHL SUB AND CALLER ADDRESS DUP13 PUSH2 0x313D JUMP JUMPDEST PUSH1 0x2 SLOAD PUSH1 0x40 MLOAD PUSH4 0x46F61ED5 PUSH1 0xE1 SHL DUP2 MSTORE PUSH1 0x4 DUP2 ADD DUP12 SWAP1 MSTORE ADDRESS PUSH1 0x24 DUP3 ADD MSTORE PUSH1 0x1 PUSH1 0x1 PUSH1 0xA0 SHL SUB SWAP1 SWAP2 AND SWAP1 PUSH4 0x8DEC3DAA SWAP1 PUSH1 0x44 ADD PUSH1 0x0 PUSH1 0x40 MLOAD DUP1 DUP4 SUB DUP2 PUSH1 0x0 DUP8 DUP1 EXTCODESIZE ISZERO DUP1 ISZERO PUSH2 0x1C7E JUMPI PUSH1 0x0 DUP1 REVERT JUMPDEST POP GAS CALL ISZERO DUP1 ISZERO PUSH2 0xDB5 JUMPI RETURNDATASIZE PUSH1 0x0 DUP1 RETURNDATACOPY RETURNDATASIZE PUSH1 0x0 REVERT JUMPDEST PUSH1 0x0 DUP5 PUSH2 0x1CA1 JUMPI POP PUSH1 0x0 PUSH2 0x1CD0 JUMP JUMPDEST PUSH2 0x1CAB DUP6 DUP4 PUSH2 0x3D45 JUMP JUMPDEST PUSH3 0x186A0 PUSH2 0x1CB9 DUP6 DUP8 PUSH2 0x3D45 JUMP JUMPDEST PUSH2 0x1CC3 SWAP2 SWAP1 PUSH2 0x3D45 JUMP JUMPDEST PUSH2 0x1CCD SWAP2 SWAP1 PUSH2 0x3C3A JUMP JUMPDEST SWAP1 POP JUMPDEST SWAP5 SWAP4 POP POP POP POP JUMP JUMPDEST PUSH1 0x1 PUSH1 0x1 PUSH1 0xA0 SHL SUB DUP1 DUP7 AND PUSH1 0x0 SWAP1 DUP2 MSTORE PUSH1 0x5 PUSH1 0x20 SWAP1 DUP2 MSTORE PUSH1 0x40 DUP1 DUP4 KECCAK256 SWAP4 DUP6 AND DUP4 MSTORE PUSH1 0x1 DUP5 ADD SWAP1 SWAP2 MSTORE DUP2 KECCAK256 SLOAD SWAP1 SWAP2 DUP3 SWAP2 DUP3 SWAP2 DUP3 SWAP2 DUP11 SWAP2 SWAP1 PUSH2 0x1D27 JUMPI PUSH1 0x0 DUP1 PUSH1 0x0 DUP1 SWAP6 POP SWAP6 POP SWAP6 POP SWAP6 POP POP POP PUSH2 0x1F3B JUMP JUMPDEST PUSH1 0x1 PUSH1 0x1 PUSH1 0xA0 SHL SUB DUP8 AND PUSH1 0x0 SWAP1 DUP2 MSTORE PUSH1 0x1 DUP1 DUP4 ADD PUSH1 0x20 MSTORE PUSH1 0x40 DUP3 KECCAK256 SLOAD DUP4 SWAP2 PUSH2 0x1D4E SWAP2 PUSH2 0x3D64 JUMP JUMPDEST DUP2 SLOAD DUP2 LT PUSH2 0x1D6C JUMPI PUSH4 0x4E487B71 PUSH1 0xE0 SHL PUSH1 0x0 MSTORE PUSH1 0x32 PUSH1 0x4 MSTORE PUSH1 0x24 PUSH1 0x0 REVERT JUMPDEST PUSH1 0x0 SWAP2 DUP3 MSTORE PUSH1 0x20 SWAP2 DUP3 SWAP1 KECCAK256 PUSH1 0x40 DUP1 MLOAD PUSH1 0x80 DUP2 ADD DUP3 MSTORE PUSH1 0x3 SWAP1 SWAP4 MUL SWAP1 SWAP2 ADD DUP1 SLOAD DUP1 DUP5 MSTORE PUSH1 0x1 DUP3 ADD SLOAD SWAP5 DUP5 ADD SWAP5 SWAP1 SWAP5 MSTORE PUSH1 0x2 ADD SLOAD PUSH1 0x1 PUSH1 0x1 PUSH1 0xA0 SHL SUB DUP2 AND SWAP2 DUP4 ADD SWAP2 SWAP1 SWAP2 MSTORE PUSH1 0x1 PUSH1 0x1 PUSH1 0x58 SHL SUB PUSH1 0x1 PUSH1 0xA0 SHL SWAP1 SWAP2 DIV AND PUSH1 0x60 DUP3 ADD MSTORE SWAP2 POP ISZERO DUP1 ISZERO PUSH2 0x1DD6 JUMPI POP PUSH1 0x20 DUP2 ADD MLOAD ISZERO JUMPDEST ISZERO PUSH2 0x1DF1 JUMPI PUSH1 0x0 DUP1 PUSH1 0x0 DUP1 SWAP7 POP SWAP7 POP SWAP7 POP SWAP7 POP POP POP POP PUSH2 0x1F3B JUMP JUMPDEST PUSH1 0x3 SLOAD PUSH1 0x2 SLOAD PUSH1 0x0 SWAP2 PUSH2 0x1E12 SWAP2 PUSH1 0x1 PUSH1 0x1 PUSH1 0xA0 SHL SUB SWAP2 DUP3 AND SWAP2 DUP15 SWAP2 AND PUSH2 0x2E89 JUMP JUMPDEST PUSH1 0x20 DUP4 ADD MLOAD PUSH1 0x40 DUP5 ADD MLOAD PUSH1 0x60 DUP6 ADD MLOAD DUP6 MLOAD SWAP4 SWAP5 POP DUP16 SWAP4 PUSH2 0x1E70 SWAP4 SWAP3 SWAP2 PUSH1 0x1 PUSH1 0x1 PUSH1 0x58 SHL SUB AND SWAP1 PUSH2 0x1E44 SWAP1 DUP5 DUP8 DUP10 PUSH2 0x1C92 JUMP JUMPDEST PUSH1 0x1 PUSH1 0x1 PUSH1 0xA0 SHL SUB DUP11 AND PUSH1 0x0 SWAP1 DUP2 MSTORE PUSH1 0x4 PUSH1 0x20 MSTORE PUSH1 0x40 SWAP1 KECCAK256 SLOAD PUSH1 0x1 PUSH1 0xB0 SHL SWAP1 DIV PUSH5 0xFFFFFFFFFF AND PUSH2 0x1631 JUMP JUMPDEST SWAP9 POP PUSH2 0x1E91 DUP4 PUSH1 0x0 ADD MLOAD DUP11 DUP6 PUSH1 0x20 ADD MLOAD PUSH2 0x1E8A SWAP2 SWAP1 PUSH2 0x3C22 JUMP JUMPDEST DUP4 DUP6 PUSH2 0x1C92 JUMP JUMPDEST SWAP8 POP PUSH1 0x1 PUSH1 0x1 PUSH1 0x58 SHL SUB DUP12 AND DUP1 DUP10 LT PUSH2 0x1EB1 JUMPI PUSH1 0x0 SWAP8 POP PUSH1 0x0 SWAP7 POP PUSH2 0x1F34 JUMP JUMPDEST PUSH2 0x1EBB DUP4 DUP3 PUSH2 0x3D45 JUMP JUMPDEST PUSH3 0x186A0 DUP4 DUP7 PUSH1 0x20 ADD MLOAD PUSH2 0x1ECF SWAP2 SWAP1 PUSH2 0x3D45 JUMP JUMPDEST PUSH2 0x1ED9 SWAP2 SWAP1 PUSH2 0x3D45 JUMP JUMPDEST PUSH2 0x1EE3 SWAP2 SWAP1 PUSH2 0x3C3A JUMP JUMPDEST DUP5 MLOAD PUSH2 0x1EEF SWAP2 SWAP1 PUSH2 0x3D64 JUMP JUMPDEST PUSH1 0x20 DUP6 ADD MLOAD SWAP1 SWAP9 POP PUSH2 0x1F04 DUP4 PUSH3 0x186A0 PUSH2 0x3D45 JUMP JUMPDEST DUP6 MLOAD DUP4 SWAP1 PUSH2 0x1F13 SWAP1 DUP8 SWAP1 PUSH2 0x3D45 JUMP JUMPDEST PUSH2 0x1F1D SWAP2 SWAP1 PUSH2 0x3D45 JUMP JUMPDEST PUSH2 0x1F27 SWAP2 SWAP1 PUSH2 0x3C3A JUMP JUMPDEST PUSH2 0x1F31 SWAP2 SWAP1 PUSH2 0x3D64 JUMP JUMPDEST SWAP7 POP JUMPDEST POP POP POP POP POP POP JUMPDEST SWAP6 POP SWAP6 POP SWAP6 POP SWAP6 SWAP2 POP POP JUMP JUMPDEST PUSH1 0x3 SLOAD PUSH1 0x1 PUSH1 0x1 PUSH1 0x60 SHL SUB PUSH1 0x1 PUSH1 0xA0 SHL SWAP1 SWAP2 DIV AND PUSH1 0x1 EQ PUSH2 0x1FA5 JUMPI PUSH1 0x40 MLOAD PUSH3 0x461BCD PUSH1 0xE5 SHL DUP2 MSTORE PUSH1 0x20 PUSH1 0x4 DUP3 ADD MSTORE PUSH1 0x18 PUSH1 0x24 DUP3 ADD MSTORE PUSH24 0x4C6F673A4D6F727467616765506F6F6C3A21616374697665 PUSH1 0x40 SHL PUSH1 0x44 DUP3 ADD MSTORE PUSH1 0x64 ADD PUSH2 0x8B4 JUMP JUMPDEST PUSH1 0x0 SLOAD ISZERO PUSH2 0x1FC5 JUMPI PUSH1 0x40 MLOAD PUSH3 0x461BCD PUSH1 0xE5 SHL DUP2 MSTORE PUSH1 0x4 ADD PUSH2 0x8B4 SWAP1 PUSH2 0x3B21 JUMP JUMPDEST PUSH1 0x1 PUSH1 0x0 SWAP1 DUP2 SSTORE PUSH1 0x1 PUSH1 0x1 PUSH1 0xA0 SHL SUB DUP4 AND DUP2 MSTORE PUSH1 0x4 PUSH1 0x20 SWAP1 DUP2 MSTORE PUSH1 0x40 SWAP2 DUP3 SWAP1 KECCAK256 DUP3 MLOAD PUSH1 0xA0 DUP2 ADD DUP5 MSTORE SWAP1 SLOAD PUSH1 0xFF DUP2 AND ISZERO ISZERO DUP1 DUP4 MSTORE PUSH1 0x1 PUSH1 0x1 PUSH1 0x58 SHL SUB PUSH2 0x100 DUP4 DIV AND SWAP4 DUP4 ADD SWAP4 SWAP1 SWAP4 MSTORE PUSH1 0x1 PUSH1 0x1 PUSH1 0x50 SHL SUB PUSH1 0x1 PUSH1 0x60 SHL DUP3 DIV AND SWAP4 DUP3 ADD SWAP4 SWAP1 SWAP4 MSTORE PUSH5 0xFFFFFFFFFF PUSH1 0x1 PUSH1 0xB0 SHL DUP5 DIV DUP2 AND PUSH1 0x60 DUP4 ADD MSTORE PUSH1 0x1 PUSH1 0xD8 SHL SWAP1 SWAP4 DIV SWAP1 SWAP3 AND PUSH1 0x80 DUP4 ADD MSTORE PUSH2 0x2064 JUMPI PUSH1 0x40 MLOAD PUSH3 0x461BCD PUSH1 0xE5 SHL DUP2 MSTORE PUSH1 0x4 ADD PUSH2 0x8B4 SWAP1 PUSH2 0x3BBE JUMP JUMPDEST PUSH1 0x0 DUP3 GT PUSH2 0x2084 JUMPI PUSH1 0x40 MLOAD PUSH3 0x461BCD PUSH1 0xE5 SHL DUP2 MSTORE PUSH1 0x4 ADD PUSH2 0x8B4 SWAP1 PUSH2 0x3AEA JUMP JUMPDEST PUSH1 0x1 PUSH1 0x1 PUSH1 0xA0 SHL SUB DUP4 AND PUSH1 0x0 SWAP1 DUP2 MSTORE PUSH1 0x5 PUSH1 0x20 SWAP1 DUP2 MSTORE PUSH1 0x40 DUP1 DUP4 KECCAK256 CALLER DUP5 MSTORE PUSH1 0x1 DUP2 ADD SWAP1 SWAP3 MSTORE SWAP1 SWAP2 KECCAK256 SLOAD DUP1 PUSH2 0x20CA JUMPI PUSH1 0x40 MLOAD PUSH3 0x461BCD PUSH1 0xE5 SHL DUP2 MSTORE PUSH1 0x4 ADD PUSH2 0x8B4 SWAP1 PUSH2 0x3B58 JUMP JUMPDEST PUSH1 0x0 DUP3 PUSH2 0x20D8 PUSH1 0x1 DUP5 PUSH2 0x3D64 JUMP JUMPDEST DUP2 SLOAD DUP2 LT PUSH2 0x20F6 JUMPI PUSH4 0x4E487B71 PUSH1 0xE0 SHL PUSH1 0x0 MSTORE PUSH1 0x32 PUSH1 0x4 MSTORE PUSH1 0x24 PUSH1 0x0 REVERT JUMPDEST PUSH1 0x0 SWAP2 DUP3 MSTORE PUSH1 0x20 SWAP1 SWAP2 KECCAK256 PUSH1 0x3 SWAP1 SWAP2 MUL ADD PUSH1 0x1 DUP2 ADD SLOAD DUP2 SLOAD SWAP2 SWAP3 POP SWAP1 DUP1 PUSH2 0x215E JUMPI PUSH1 0x40 MLOAD PUSH3 0x461BCD PUSH1 0xE5 SHL DUP2 MSTORE PUSH1 0x20 PUSH1 0x4 DUP3 ADD DUP2 SWAP1 MSTORE PUSH1 0x24 DUP3 ADD MSTORE PUSH32 0x4C6F673A4D6F727467616765506F6F6C3A216D6F727467616765417373657473 PUSH1 0x44 DUP3 ADD MSTORE PUSH1 0x64 ADD PUSH2 0x8B4 JUMP JUMPDEST PUSH1 0x0 DUP1 PUSH2 0x216B DUP11 CALLVALUE PUSH2 0x309E JUMP JUMPDEST PUSH1 0x40 DUP1 MLOAD PUSH1 0x80 DUP2 ADD DUP3 MSTORE DUP9 SLOAD DUP2 MSTORE PUSH1 0x1 DUP10 ADD SLOAD PUSH1 0x20 DUP3 ADD MSTORE PUSH1 0x2 DUP10 ADD SLOAD PUSH1 0x1 PUSH1 0x1 PUSH1 0xA0 SHL SUB DUP2 AND SWAP3 DUP3 ADD SWAP3 SWAP1 SWAP3 MSTORE PUSH1 0x1 PUSH1 0xA0 SHL SWAP1 SWAP2 DIV PUSH1 0x1 PUSH1 0x1 PUSH1 0x58 SHL SUB AND PUSH1 0x60 DUP1 DUP4 ADD SWAP2 SWAP1 SWAP2 MSTORE DUP12 ADD MLOAD SWAP3 SWAP5 POP SWAP1 SWAP3 POP PUSH2 0x21C9 SWAP2 DUP5 SWAP1 DUP5 SWAP1 PUSH2 0x3458 JUMP JUMPDEST PUSH2 0x21D3 DUP10 DUP6 PUSH2 0x3C22 JUMP JUMPDEST PUSH1 0x1 DUP7 ADD DUP2 SWAP1 SSTORE PUSH1 0x2 DUP7 ADD DUP1 SLOAD PUSH1 0x1 PUSH1 0x1 PUSH1 0xA0 SHL SUB NOT AND NUMBER PUSH1 0x1 PUSH1 0x1 PUSH1 0xA0 SHL SUB AND OR SWAP1 SSTORE PUSH1 0x0 SWAP1 PUSH2 0x2207 SWAP1 DUP6 SWAP1 DUP6 DUP6 PUSH2 0x1C92 JUMP JUMPDEST SWAP1 POP DUP9 PUSH1 0x20 ADD MLOAD PUSH1 0x1 PUSH1 0x1 PUSH1 0x58 SHL SUB AND DUP2 GT ISZERO PUSH2 0x2262 JUMPI PUSH1 0x40 MLOAD PUSH3 0x461BCD PUSH1 0xE5 SHL DUP2 MSTORE PUSH1 0x20 PUSH1 0x4 DUP3 ADD MSTORE PUSH1 0x19 PUSH1 0x24 DUP3 ADD MSTORE PUSH25 0x4C6F673A4D6F727467616765506F6F6C3A216D617852617465 PUSH1 0x38 SHL PUSH1 0x44 DUP3 ADD MSTORE PUSH1 0x64 ADD PUSH2 0x8B4 JUMP JUMPDEST DUP1 DUP7 PUSH1 0x2 ADD PUSH1 0x14 PUSH2 0x100 EXP DUP2 SLOAD DUP2 PUSH1 0x1 PUSH1 0x1 PUSH1 0x58 SHL SUB MUL NOT AND SWAP1 DUP4 PUSH1 0x1 PUSH1 0x1 PUSH1 0x58 SHL SUB AND MUL OR SWAP1 SSTORE POP PUSH1 0x0 DUP1 MLOAD PUSH1 0x20 PUSH2 0x3DB8 DUP4 CODECOPY DUP2 MLOAD SWAP2 MSTORE DUP12 DUP8 PUSH1 0x0 ADD SLOAD DUP9 PUSH1 0x1 ADD SLOAD DUP7 DUP7 DUP12 PUSH1 0x2 ADD PUSH1 0x14 SWAP1 SLOAD SWAP1 PUSH2 0x100 EXP SWAP1 DIV PUSH1 0x1 PUSH1 0x1 PUSH1 0x58 SHL SUB AND PUSH1 0x40 MLOAD PUSH2 0x22D1 SWAP7 SWAP6 SWAP5 SWAP4 SWAP3 SWAP2 SWAP1 PUSH2 0x3AAE JUMP JUMPDEST PUSH1 0x40 MLOAD DUP1 SWAP2 SUB SWAP1 LOG1 PUSH1 0x2 SLOAD PUSH1 0x40 MLOAD PUSH4 0x13B1DB0B PUSH1 0xE3 SHL DUP2 MSTORE PUSH1 0x4 DUP2 ADD DUP13 SWAP1 MSTORE CALLER PUSH1 0x24 DUP3 ADD MSTORE PUSH1 0x1 PUSH1 0x1 PUSH1 0xA0 SHL SUB SWAP1 SWAP2 AND SWAP1 PUSH4 0x9D8ED858 SWAP1 PUSH1 0x44 ADD PUSH1 0x0 PUSH1 0x40 MLOAD DUP1 DUP4 SUB DUP2 PUSH1 0x0 DUP8 DUP1 EXTCODESIZE ISZERO DUP1 ISZERO PUSH2 0x2325 JUMPI PUSH1 0x0 DUP1 REVERT JUMPDEST POP GAS CALL ISZERO DUP1 ISZERO PUSH2 0x2339 JUMPI RETURNDATASIZE PUSH1 0x0 DUP1 RETURNDATACOPY RETURNDATASIZE PUSH1 0x0 REVERT JUMPDEST POP POP PUSH1 0x0 DUP1 SSTORE POP POP POP POP POP POP POP POP POP POP POP POP POP JUMP JUMPDEST PUSH1 0x3 SLOAD PUSH1 0x1 PUSH1 0xA0 SHL SWAP1 DIV PUSH1 0x1 PUSH1 0x1 PUSH1 0x60 SHL SUB AND PUSH2 0x237D JUMPI PUSH1 0x40 MLOAD PUSH3 0x461BCD PUSH1 0xE5 SHL DUP2 MSTORE PUSH1 0x4 ADD PUSH2 0x8B4 SWAP1 PUSH2 0x3BF5 JUMP JUMPDEST PUSH1 0x0 SLOAD ISZERO PUSH2 0x239D JUMPI PUSH1 0x40 MLOAD PUSH3 0x461BCD PUSH1 0xE5 SHL DUP2 MSTORE PUSH1 0x4 ADD PUSH2 0x8B4 SWAP1 PUSH2 0x3B21 JUMP JUMPDEST PUSH1 0x1 PUSH1 0x0 SWAP1 DUP2 SSTORE PUSH1 0x1 PUSH1 0x1 PUSH1 0xA0 SHL SUB DUP4 AND DUP2 MSTORE PUSH1 0x4 PUSH1 0x20 SWAP1 DUP2 MSTORE PUSH1 0x40 SWAP2 DUP3 SWAP1 KECCAK256 DUP3 MLOAD PUSH1 0xA0 DUP2 ADD DUP5 MSTORE SWAP1 SLOAD PUSH1 0xFF DUP2 AND ISZERO ISZERO DUP1 DUP4 MSTORE PUSH1 0x1 PUSH1 0x1 PUSH1 0x58 SHL SUB PUSH2 0x100 DUP4 DIV AND SWAP4 DUP4 ADD SWAP4 SWAP1 SWAP4 MSTORE PUSH1 0x1 PUSH1 0x1 PUSH1 0x50 SHL SUB PUSH1 0x1 PUSH1 0x60 SHL DUP3 DIV AND SWAP4 DUP3 ADD SWAP4 SWAP1 SWAP4 MSTORE PUSH5 0xFFFFFFFFFF PUSH1 0x1 PUSH1 0xB0 SHL DUP5 DIV DUP2 AND PUSH1 0x60 DUP4 ADD MSTORE PUSH1 0x1 PUSH1 0xD8 SHL SWAP1 SWAP4 DIV SWAP1 SWAP3 AND PUSH1 0x80 DUP4 ADD MSTORE PUSH2 0x243C JUMPI PUSH1 0x40 MLOAD PUSH3 0x461BCD PUSH1 0xE5 SHL DUP2 MSTORE PUSH1 0x4 ADD PUSH2 0x8B4 SWAP1 PUSH2 0x3BBE JUMP JUMPDEST PUSH1 0x0 DUP3 GT PUSH2 0x245C JUMPI PUSH1 0x40 MLOAD PUSH3 0x461BCD PUSH1 0xE5 SHL DUP2 MSTORE PUSH1 0x4 ADD PUSH2 0x8B4 SWAP1 PUSH2 0x3AEA JUMP JUMPDEST PUSH1 0x1 PUSH1 0x1 PUSH1 0xA0 SHL SUB DUP4 AND PUSH1 0x0 SWAP1 DUP2 MSTORE PUSH1 0x5 PUSH1 0x20 SWAP1 DUP2 MSTORE PUSH1 0x40 DUP1 DUP4 KECCAK256 CALLER DUP5 MSTORE PUSH1 0x1 DUP2 ADD SWAP1 SWAP3 MSTORE SWAP1 SWAP2 KECCAK256 SLOAD DUP1 PUSH2 0x24A7 JUMPI DUP2 SLOAD PUSH1 0x1 SWAP1 DUP2 ADD DUP1 DUP5 SSTORE CALLER PUSH1 0x0 SWAP1 DUP2 MSTORE SWAP2 DUP5 ADD PUSH1 0x20 MSTORE PUSH1 0x40 SWAP1 SWAP2 KECCAK256 SSTORE JUMPDEST CALLER PUSH1 0x0 SWAP1 DUP2 MSTORE PUSH1 0x1 DUP1 DUP5 ADD PUSH1 0x20 MSTORE PUSH1 0x40 DUP3 KECCAK256 SLOAD DUP5 SWAP2 PUSH2 0x24C5 SWAP2 PUSH2 0x3D64 JUMP JUMPDEST DUP2 SLOAD DUP2 LT PUSH2 0x24E3 JUMPI PUSH4 0x4E487B71 PUSH1 0xE0 SHL PUSH1 0x0 MSTORE PUSH1 0x32 PUSH1 0x4 MSTORE PUSH1 0x24 PUSH1 0x0 REVERT JUMPDEST PUSH1 0x0 SWAP2 DUP3 MSTORE PUSH1 0x20 DUP3 KECCAK256 PUSH1 0x1 PUSH1 0x3 SWAP1 SWAP3 MUL ADD SWAP1 DUP2 ADD SLOAD DUP2 SLOAD SWAP2 SWAP4 POP SWAP2 DUP1 PUSH1 0x1 PUSH1 0x1 PUSH1 0xA0 SHL SUB DUP11 AND ISZERO PUSH2 0x252E JUMPI PUSH2 0x251A DUP11 CALLER ADDRESS DUP13 PUSH2 0x313D JUMP JUMPDEST PUSH2 0x2524 DUP11 CALLVALUE PUSH2 0x309E JUMP JUMPDEST SWAP1 SWAP3 POP SWAP1 POP PUSH2 0x2592 JUMP JUMPDEST DUP9 CALLVALUE LT ISZERO PUSH2 0x257E JUMPI PUSH1 0x40 MLOAD PUSH3 0x461BCD PUSH1 0xE5 SHL DUP2 MSTORE PUSH1 0x20 PUSH1 0x4 DUP3 ADD MSTORE PUSH1 0x1B PUSH1 0x24 DUP3 ADD MSTORE PUSH32 0x4C6F673A4D6F727467616765506F6F6C3A216D73672E76616C75650000000000 PUSH1 0x44 DUP3 ADD MSTORE PUSH1 0x64 ADD PUSH2 0x8B4 JUMP JUMPDEST PUSH2 0x258C DUP11 PUSH2 0x1460 DUP12 CALLVALUE PUSH2 0x3D64 JUMP JUMPDEST SWAP1 SWAP3 POP SWAP1 POP JUMPDEST PUSH1 0x40 DUP1 MLOAD PUSH1 0x80 DUP2 ADD DUP3 MSTORE DUP7 SLOAD DUP2 MSTORE PUSH1 0x1 DUP8 ADD SLOAD PUSH1 0x20 DUP3 ADD MSTORE PUSH1 0x2 DUP8 ADD SLOAD PUSH1 0x1 PUSH1 0x1 PUSH1 0xA0 SHL SUB DUP2 AND SWAP3 DUP3 ADD SWAP3 SWAP1 SWAP3 MSTORE PUSH1 0x1 PUSH1 0xA0 SHL SWAP1 SWAP2 DIV PUSH1 0x1 PUSH1 0x1 PUSH1 0x58 SHL SUB AND PUSH1 0x60 DUP1 DUP4 ADD SWAP2 SWAP1 SWAP2 MSTORE DUP10 ADD MLOAD PUSH2 0x25EB SWAP2 SWAP1 DUP5 SWAP1 DUP5 SWAP1 PUSH2 0x3458 JUMP JUMPDEST PUSH2 0x25F5 DUP10 DUP5 PUSH2 0x3C22 JUMP JUMPDEST DUP1 DUP7 SSTORE PUSH1 0x2 DUP7 ADD DUP1 SLOAD PUSH1 0x1 PUSH1 0x1 PUSH1 0xA0 SHL SUB NOT AND NUMBER PUSH1 0x1 PUSH1 0x1 PUSH1 0xA0 SHL SUB AND OR SWAP1 SSTORE PUSH2 0x2621 SWAP1 DUP6 DUP5 DUP5 PUSH2 0x1C92 JUMP JUMPDEST DUP6 PUSH1 0x2 ADD PUSH1 0x14 PUSH2 0x100 EXP DUP2 SLOAD DUP2 PUSH1 0x1 PUSH1 0x1 PUSH1 0x58 SHL SUB MUL NOT AND SWAP1 DUP4 PUSH1 0x1 PUSH1 0x1 PUSH1 0x58 SHL SUB AND MUL OR SWAP1 SSTORE POP PUSH1 0x0 DUP1 MLOAD PUSH1 0x20 PUSH2 0x3DB8 DUP4 CODECOPY DUP2 MLOAD SWAP2 MSTORE DUP11 DUP7 PUSH1 0x0 ADD SLOAD DUP8 PUSH1 0x1 ADD SLOAD DUP6 DUP6 DUP11 PUSH1 0x2 ADD PUSH1 0x14 SWAP1 SLOAD SWAP1 PUSH2 0x100 EXP SWAP1 DIV PUSH1 0x1 PUSH1 0x1 PUSH1 0x58 SHL SUB AND PUSH1 0x40 MLOAD PUSH2 0x268F SWAP7 SWAP6 SWAP5 SWAP4 SWAP3 SWAP2 SWAP1 PUSH2 0x3AAE JUMP JUMPDEST PUSH1 0x40 MLOAD DUP1 SWAP2 SUB SWAP1 LOG1 POP POP PUSH1 0x0 DUP1 SSTORE POP POP POP POP POP POP POP POP JUMP JUMPDEST PUSH1 0x1 SLOAD PUSH1 0x40 MLOAD PUSH4 0x91E1472B PUSH1 0xE0 SHL DUP2 MSTORE PUSH1 0x1 PUSH1 0x1 PUSH1 0xA0 SHL SUB SWAP1 SWAP2 AND SWAP1 PUSH4 0x91E1472B SWAP1 PUSH2 0x26DA SWAP1 CALLER SWAP1 PUSH1 0x0 SWAP1 PUSH1 0x4 ADD PUSH2 0x3A95 JUMP JUMPDEST PUSH1 0x20 PUSH1 0x40 MLOAD DUP1 DUP4 SUB DUP2 DUP7 DUP1 EXTCODESIZE ISZERO DUP1 ISZERO PUSH2 0x26F2 JUMPI PUSH1 0x0 DUP1 REVERT JUMPDEST POP GAS STATICCALL ISZERO DUP1 ISZERO PUSH2 0x2706 JUMPI RETURNDATASIZE PUSH1 0x0 DUP1 RETURNDATACOPY RETURNDATASIZE PUSH1 0x0 REVERT JUMPDEST POP POP POP POP PUSH1 0x40 MLOAD RETURNDATASIZE PUSH1 0x1F NOT PUSH1 0x1F DUP3 ADD AND DUP3 ADD DUP1 PUSH1 0x40 MSTORE POP DUP2 ADD SWAP1 PUSH2 0x272A SWAP2 SWAP1 PUSH2 0x38AB JUMP JUMPDEST PUSH2 0x2746 JUMPI PUSH1 0x40 MLOAD PUSH3 0x461BCD PUSH1 0xE5 SHL DUP2 MSTORE PUSH1 0x4 ADD PUSH2 0x8B4 SWAP1 PUSH2 0x3B8F JUMP JUMPDEST PUSH1 0x7 DUP1 SLOAD PUSH1 0x1 PUSH1 0x1 PUSH1 0xA0 SHL SUB NOT AND PUSH1 0x1 PUSH1 0x1 PUSH1 0xA0 SHL SUB SWAP3 SWAP1 SWAP3 AND SWAP2 SWAP1 SWAP2 OR SWAP1 SSTORE JUMP JUMPDEST PUSH1 0x1 SLOAD PUSH1 0x40 MLOAD PUSH4 0x91E1472B PUSH1 0xE0 SHL DUP2 MSTORE PUSH1 0x1 PUSH1 0x1 PUSH1 0xA0 SHL SUB SWAP1 SWAP2 AND SWAP1 PUSH4 0x91E1472B SWAP1 PUSH2 0x279B SWAP1 CALLER SWAP1 PUSH1 0x0 SWAP1 PUSH1 0x4 ADD PUSH2 0x3A95 JUMP JUMPDEST PUSH1 0x20 PUSH1 0x40 MLOAD DUP1 DUP4 SUB DUP2 DUP7 DUP1 EXTCODESIZE ISZERO DUP1 ISZERO PUSH2 0x27B3 JUMPI PUSH1 0x0 DUP1 REVERT JUMPDEST POP GAS STATICCALL ISZERO DUP1 ISZERO PUSH2 0x27C7 JUMPI RETURNDATASIZE PUSH1 0x0 DUP1 RETURNDATACOPY RETURNDATASIZE PUSH1 0x0 REVERT JUMPDEST POP POP POP POP PUSH1 0x40 MLOAD RETURNDATASIZE PUSH1 0x1F NOT PUSH1 0x1F DUP3 ADD AND DUP3 ADD DUP1 PUSH1 0x40 MSTORE POP DUP2 ADD SWAP1 PUSH2 0x27EB SWAP2 SWAP1 PUSH2 0x38AB JUMP JUMPDEST PUSH2 0x2807 JUMPI PUSH1 0x40 MLOAD PUSH3 0x461BCD PUSH1 0xE5 SHL DUP2 MSTORE PUSH1 0x4 ADD PUSH2 0x8B4 SWAP1 PUSH2 0x3B8F JUMP JUMPDEST PUSH1 0x1 PUSH1 0x1 PUSH1 0xA0 SHL SUB SWAP2 SWAP1 SWAP2 AND PUSH1 0x0 SWAP1 DUP2 MSTORE PUSH1 0x4 PUSH1 0x20 MSTORE PUSH1 0x40 SWAP1 KECCAK256 DUP1 SLOAD PUSH1 0xFF NOT AND SWAP2 ISZERO ISZERO SWAP2 SWAP1 SWAP2 OR SWAP1 SSTORE JUMP JUMPDEST PUSH1 0x1 SLOAD PUSH1 0x1 PUSH1 0x1 PUSH1 0xA0 SHL SUB AND ISZERO PUSH2 0x288B JUMPI PUSH1 0x40 MLOAD PUSH3 0x461BCD PUSH1 0xE5 SHL DUP2 MSTORE PUSH1 0x20 PUSH1 0x4 DUP3 ADD MSTORE PUSH1 0x1B PUSH1 0x24 DUP3 ADD MSTORE PUSH32 0x4C6F673A50617261737365744261736521696E697469616C697A650000000000 PUSH1 0x44 DUP3 ADD MSTORE PUSH1 0x64 ADD PUSH2 0x8B4 JUMP JUMPDEST PUSH1 0x1 DUP1 SLOAD PUSH1 0x1 PUSH1 0x1 PUSH1 0xA0 SHL SUB NOT AND PUSH1 0x1 PUSH1 0x1 PUSH1 0xA0 SHL SUB SWAP3 SWAP1 SWAP3 AND SWAP2 SWAP1 SWAP2 OR SWAP1 SSTORE PUSH1 0x0 DUP1 SSTORE JUMP JUMPDEST PUSH1 0x1 PUSH1 0x1 PUSH1 0xA0 SHL SUB DUP1 DUP4 AND PUSH1 0x0 SWAP1 DUP2 MSTORE PUSH1 0x5 PUSH1 0x20 SWAP1 DUP2 MSTORE PUSH1 0x40 DUP1 DUP4 KECCAK256 SWAP4 DUP6 AND DUP4 MSTORE PUSH1 0x1 SWAP1 SWAP4 ADD SWAP1 MSTORE KECCAK256 SLOAD JUMPDEST SWAP3 SWAP2 POP POP JUMP JUMPDEST PUSH1 0x1 SLOAD PUSH1 0x40 MLOAD PUSH4 0x91E1472B PUSH1 0xE0 SHL DUP2 MSTORE PUSH1 0x1 PUSH1 0x1 PUSH1 0xA0 SHL SUB SWAP1 SWAP2 AND SWAP1 PUSH4 0x91E1472B SWAP1 PUSH2 0x2915 SWAP1 CALLER SWAP1 PUSH1 0x0 SWAP1 PUSH1 0x4 ADD PUSH2 0x3A95 JUMP JUMPDEST PUSH1 0x20 PUSH1 0x40 MLOAD DUP1 DUP4 SUB DUP2 DUP7 DUP1 EXTCODESIZE ISZERO DUP1 ISZERO PUSH2 0x292D JUMPI PUSH1 0x0 DUP1 REVERT JUMPDEST POP GAS STATICCALL ISZERO DUP1 ISZERO PUSH2 0x2941 JUMPI RETURNDATASIZE PUSH1 0x0 DUP1 RETURNDATACOPY RETURNDATASIZE PUSH1 0x0 REVERT JUMPDEST POP POP POP POP PUSH1 0x40 MLOAD RETURNDATASIZE PUSH1 0x1F NOT PUSH1 0x1F DUP3 ADD AND DUP3 ADD DUP1 PUSH1 0x40 MSTORE POP DUP2 ADD SWAP1 PUSH2 0x2965 SWAP2 SWAP1 PUSH2 0x38AB JUMP JUMPDEST PUSH2 0x2981 JUMPI PUSH1 0x40 MLOAD PUSH3 0x461BCD PUSH1 0xE5 SHL DUP2 MSTORE PUSH1 0x4 ADD PUSH2 0x8B4 SWAP1 PUSH2 0x3B8F JUMP JUMPDEST PUSH1 0x1 PUSH1 0x1 PUSH1 0xA0 SHL SUB SWAP1 SWAP2 AND PUSH1 0x0 SWAP1 DUP2 MSTORE PUSH1 0x4 PUSH1 0x20 MSTORE PUSH1 0x40 SWAP1 KECCAK256 DUP1 SLOAD PUSH5 0xFFFFFFFFFF SWAP1 SWAP3 AND PUSH1 0x1 PUSH1 0xB0 SHL MUL PUSH5 0xFFFFFFFFFF PUSH1 0xB0 SHL NOT SWAP1 SWAP3 AND SWAP2 SWAP1 SWAP2 OR SWAP1 SSTORE JUMP JUMPDEST PUSH1 0x20 DUP6 ADD MLOAD DUP6 MLOAD PUSH1 0x0 PUSH2 0x29D5 DUP3 DUP5 DUP10 DUP10 PUSH2 0x1C92 JUMP JUMPDEST PUSH1 0x40 DUP10 ADD MLOAD SWAP1 SWAP2 POP PUSH1 0x0 SWAP1 DUP5 ISZERO DUP1 ISZERO SWAP1 PUSH2 0x29F7 JUMPI POP DUP1 PUSH1 0x1 PUSH1 0x1 PUSH1 0xA0 SHL SUB AND NUMBER GT JUMPDEST DUP1 ISZERO PUSH2 0x2A0B JUMPI POP PUSH1 0x1 PUSH1 0x1 PUSH1 0xA0 SHL SUB DUP2 AND ISZERO ISZERO JUMPDEST ISZERO PUSH2 0x2A2D JUMPI PUSH2 0x2A2A DUP6 DUP3 DUP13 PUSH1 0x60 ADD MLOAD PUSH1 0x1 PUSH1 0x1 PUSH1 0x58 SHL SUB AND DUP7 DUP11 PUSH2 0x1631 JUMP JUMPDEST SWAP2 POP JUMPDEST DUP8 PUSH2 0x2A3B PUSH3 0x186A0 DUP7 PUSH2 0x3D45 JUMP JUMPDEST DUP11 PUSH1 0x1 PUSH1 0x1 PUSH1 0x50 SHL SUB DUP11 AND PUSH2 0x2A50 DUP7 DUP11 PUSH2 0x3C22 JUMP JUMPDEST PUSH2 0x2A5A SWAP2 SWAP1 PUSH2 0x3D45 JUMP JUMPDEST PUSH2 0x2A64 SWAP2 SWAP1 PUSH2 0x3D45 JUMP JUMPDEST PUSH2 0x2A6E SWAP2 SWAP1 PUSH2 0x3C3A JUMP JUMPDEST GT PUSH2 0x2AC5 JUMPI PUSH1 0x40 MLOAD PUSH3 0x461BCD PUSH1 0xE5 SHL DUP2 MSTORE PUSH1 0x20 PUSH1 0x4 DUP3 ADD MSTORE PUSH1 0x21 PUSH1 0x24 DUP3 ADD MSTORE PUSH32 0x4C6F673A4D6F727467616765506F6F6C3A216C69717569646174696F6E4C696E PUSH1 0x44 DUP3 ADD MSTORE PUSH1 0x65 PUSH1 0xF8 SHL PUSH1 0x64 DUP3 ADD MSTORE PUSH1 0x84 ADD PUSH2 0x8B4 JUMP JUMPDEST POP POP POP POP POP POP POP POP POP POP JUMP JUMPDEST PUSH1 0x3 SLOAD PUSH1 0x1 PUSH1 0xA0 SHL SWAP1 DIV PUSH1 0x1 PUSH1 0x1 PUSH1 0x60 SHL SUB AND PUSH2 0x2B00 JUMPI PUSH1 0x40 MLOAD PUSH3 0x461BCD PUSH1 0xE5 SHL DUP2 MSTORE PUSH1 0x4 ADD PUSH2 0x8B4 SWAP1 PUSH2 0x3BF5 JUMP JUMPDEST PUSH1 0x0 SLOAD ISZERO PUSH2 0x2B20 JUMPI PUSH1 0x40 MLOAD PUSH3 0x461BCD PUSH1 0xE5 SHL DUP2 MSTORE PUSH1 0x4 ADD PUSH2 0x8B4 SWAP1 PUSH2 0x3B21 JUMP JUMPDEST PUSH1 0x1 PUSH1 0x0 SWAP1 DUP2 SSTORE PUSH1 0x1 PUSH1 0x1 PUSH1 0xA0 SHL SUB DUP4 AND DUP2 MSTORE PUSH1 0x4 PUSH1 0x20 SWAP1 DUP2 MSTORE PUSH1 0x40 SWAP2 DUP3 SWAP1 KECCAK256 DUP3 MLOAD PUSH1 0xA0 DUP2 ADD DUP5 MSTORE SWAP1 SLOAD PUSH1 0xFF DUP2 AND ISZERO ISZERO DUP1 DUP4 MSTORE PUSH1 0x1 PUSH1 0x1 PUSH1 0x58 SHL SUB PUSH2 0x100 DUP4 DIV AND SWAP4 DUP4 ADD SWAP4 SWAP1 SWAP4 MSTORE PUSH1 0x1 PUSH1 0x1 PUSH1 0x50 SHL SUB PUSH1 0x1 PUSH1 0x60 SHL DUP3 DIV AND SWAP4 DUP3 ADD SWAP4 SWAP1 SWAP4 MSTORE PUSH5 0xFFFFFFFFFF PUSH1 0x1 PUSH1 0xB0 SHL DUP5 DIV DUP2 AND PUSH1 0x60 DUP4 ADD MSTORE PUSH1 0x1 PUSH1 0xD8 SHL SWAP1 SWAP4 DIV SWAP1 SWAP3 AND PUSH1 0x80 DUP4 ADD MSTORE PUSH2 0x2BBF JUMPI PUSH1 0x40 MLOAD PUSH3 0x461BCD PUSH1 0xE5 SHL DUP2 MSTORE PUSH1 0x4 ADD PUSH2 0x8B4 SWAP1 PUSH2 0x3BBE JUMP JUMPDEST PUSH1 0x1 PUSH1 0x1 PUSH1 0xA0 SHL SUB DUP4 AND PUSH1 0x0 SWAP1 DUP2 MSTORE PUSH1 0x5 PUSH1 0x20 SWAP1 DUP2 MSTORE PUSH1 0x40 DUP1 DUP4 KECCAK256 CALLER DUP5 MSTORE PUSH1 0x1 DUP2 ADD SWAP1 SWAP3 MSTORE SWAP1 SWAP2 KECCAK256 SLOAD DUP1 PUSH2 0x2C05 JUMPI PUSH1 0x40 MLOAD PUSH3 0x461BCD PUSH1 0xE5 SHL DUP2 MSTORE PUSH1 0x4 ADD PUSH2 0x8B4 SWAP1 PUSH2 0x3B58 JUMP JUMPDEST PUSH1 0x0 DUP3 PUSH2 0x2C13 PUSH1 0x1 DUP5 PUSH2 0x3D64 JUMP JUMPDEST DUP2 SLOAD DUP2 LT PUSH2 0x2C31 JUMPI PUSH4 0x4E487B71 PUSH1 0xE0 SHL PUSH1 0x0 MSTORE PUSH1 0x32 PUSH1 0x4 MSTORE PUSH1 0x24 PUSH1 0x0 REVERT JUMPDEST PUSH1 0x0 SWAP2 DUP3 MSTORE PUSH1 0x20 SWAP1 SWAP2 KECCAK256 PUSH1 0x3 SWAP1 SWAP2 MUL ADD PUSH1 0x1 DUP2 ADD SLOAD DUP2 SLOAD SWAP2 SWAP3 POP SWAP1 DUP7 ISZERO DUP1 ISZERO SWAP1 PUSH2 0x2C5B JUMPI POP DUP1 DUP8 GT ISZERO JUMPDEST PUSH2 0x2C77 JUMPI PUSH1 0x40 MLOAD PUSH3 0x461BCD PUSH1 0xE5 SHL DUP2 MSTORE PUSH1 0x4 ADD PUSH2 0x8B4 SWAP1 PUSH2 0x3AEA JUMP JUMPDEST PUSH1 0x0 DUP1 PUSH2 0x2C84 DUP11 CALLVALUE PUSH2 0x309E JUMP JUMPDEST PUSH1 0x40 DUP1 MLOAD PUSH1 0x80 DUP2 ADD DUP3 MSTORE DUP9 SLOAD DUP2 MSTORE PUSH1 0x1 DUP10 ADD SLOAD PUSH1 0x20 DUP3 ADD MSTORE PUSH1 0x2 DUP10 ADD SLOAD PUSH1 0x1 PUSH1 0x1 PUSH1 0xA0 SHL SUB DUP2 AND SWAP3 DUP3 ADD SWAP3 SWAP1 SWAP3 MSTORE PUSH1 0x1 PUSH1 0xA0 SHL SWAP1 SWAP2 DIV PUSH1 0x1 PUSH1 0x1 PUSH1 0x58 SHL SUB AND PUSH1 0x60 DUP1 DUP4 ADD SWAP2 SWAP1 SWAP2 MSTORE DUP12 ADD MLOAD SWAP3 SWAP5 POP SWAP1 SWAP3 POP PUSH2 0x2CE2 SWAP2 DUP5 SWAP1 DUP5 SWAP1 PUSH2 0x3458 JUMP JUMPDEST PUSH2 0x2CEC DUP10 DUP5 PUSH2 0x3D64 JUMP JUMPDEST DUP1 DUP7 SSTORE PUSH1 0x2 DUP7 ADD DUP1 SLOAD PUSH1 0x1 PUSH1 0x1 PUSH1 0xA0 SHL SUB NOT AND NUMBER PUSH1 0x1 PUSH1 0x1 PUSH1 0xA0 SHL SUB AND OR SWAP1 SSTORE PUSH2 0x2D67 JUMPI PUSH1 0x1 DUP6 ADD SLOAD ISZERO PUSH2 0x2D62 JUMPI PUSH1 0x40 MLOAD PUSH3 0x461BCD PUSH1 0xE5 SHL DUP2 MSTORE PUSH1 0x20 PUSH1 0x4 DUP3 ADD DUP2 SWAP1 MSTORE PUSH1 0x24 DUP3 ADD MSTORE PUSH32 0x4C6F673A4D6F727467616765506F6F6C3A217061726173736574417373657473 PUSH1 0x44 DUP3 ADD MSTORE PUSH1 0x64 ADD PUSH2 0x8B4 JUMP JUMPDEST PUSH2 0x2E05 JUMP JUMPDEST PUSH1 0x0 PUSH2 0x2D79 DUP7 PUSH1 0x0 ADD SLOAD DUP7 DUP6 DUP6 PUSH2 0x1C92 JUMP JUMPDEST SWAP1 POP DUP9 PUSH1 0x20 ADD MLOAD PUSH1 0x1 PUSH1 0x1 PUSH1 0x58 SHL SUB AND DUP2 GT ISZERO PUSH2 0x2DD4 JUMPI PUSH1 0x40 MLOAD PUSH3 0x461BCD PUSH1 0xE5 SHL DUP2 MSTORE PUSH1 0x20 PUSH1 0x4 DUP3 ADD MSTORE PUSH1 0x19 PUSH1 0x24 DUP3 ADD MSTORE PUSH25 0x4C6F673A4D6F727467616765506F6F6C3A216D617852617465 PUSH1 0x38 SHL PUSH1 0x44 DUP3 ADD MSTORE PUSH1 0x64 ADD PUSH2 0x8B4 JUMP JUMPDEST PUSH1 0x2 DUP7 ADD DUP1 SLOAD PUSH1 0x1 PUSH1 0x1 PUSH1 0x58 SHL SUB SWAP1 SWAP3 AND PUSH1 0x1 PUSH1 0xA0 SHL MUL PUSH11 0xFFFFFFFFFFFFFFFFFFFFFF PUSH1 0xA0 SHL NOT SWAP1 SWAP3 AND SWAP2 SWAP1 SWAP2 OR SWAP1 SSTORE JUMPDEST DUP5 SLOAD PUSH1 0x1 DUP7 ADD SLOAD PUSH1 0x2 DUP8 ADD SLOAD PUSH1 0x40 MLOAD PUSH1 0x0 DUP1 MLOAD PUSH1 0x20 PUSH2 0x3DB8 DUP4 CODECOPY DUP2 MLOAD SWAP2 MSTORE SWAP4 PUSH2 0x2E48 SWAP4 DUP16 SWAP4 SWAP2 SWAP3 SWAP1 SWAP2 DUP9 SWAP2 DUP9 SWAP2 PUSH1 0x1 PUSH1 0xA0 SHL SWAP1 DIV PUSH1 0x1 PUSH1 0x1 PUSH1 0x58 SHL SUB AND SWAP1 PUSH2 0x3AAE JUMP JUMPDEST PUSH1 0x40 MLOAD DUP1 SWAP2 SUB SWAP1 LOG1 PUSH1 0x1 PUSH1 0x1 PUSH1 0xA0 SHL SUB DUP11 AND ISZERO PUSH2 0x2E6F JUMPI PUSH2 0x2E6A DUP11 CALLER DUP12 PUSH2 0x326D JUMP JUMPDEST PUSH2 0x2E79 JUMP JUMPDEST PUSH2 0x2E79 CALLER DUP11 PUSH2 0x338A JUMP JUMPDEST POP POP PUSH1 0x0 DUP1 SSTORE POP POP POP POP POP POP POP POP JUMP JUMPDEST PUSH1 0x0 PUSH1 0x12 DUP1 PUSH1 0x1 PUSH1 0x1 PUSH1 0xA0 SHL SUB DUP7 AND ISZERO PUSH2 0x2F14 JUMPI DUP6 PUSH1 0x1 PUSH1 0x1 PUSH1 0xA0 SHL SUB AND PUSH4 0x313CE567 PUSH1 0x40 MLOAD DUP2 PUSH4 0xFFFFFFFF AND PUSH1 0xE0 SHL DUP2 MSTORE PUSH1 0x4 ADD PUSH1 0x20 PUSH1 0x40 MLOAD DUP1 DUP4 SUB DUP2 DUP7 DUP1 EXTCODESIZE ISZERO DUP1 ISZERO PUSH2 0x2ED6 JUMPI PUSH1 0x0 DUP1 REVERT JUMPDEST POP GAS STATICCALL ISZERO DUP1 ISZERO PUSH2 0x2EEA JUMPI RETURNDATASIZE PUSH1 0x0 DUP1 RETURNDATACOPY RETURNDATASIZE PUSH1 0x0 REVERT JUMPDEST POP POP POP POP PUSH1 0x40 MLOAD RETURNDATASIZE PUSH1 0x1F NOT PUSH1 0x1F DUP3 ADD AND DUP3 ADD DUP1 PUSH1 0x40 MSTORE POP DUP2 ADD SWAP1 PUSH2 0x2F0E SWAP2 SWAP1 PUSH2 0x3A21 JUMP JUMPDEST PUSH1 0xFF AND SWAP2 POP JUMPDEST PUSH1 0x1 PUSH1 0x1 PUSH1 0xA0 SHL SUB DUP5 AND ISZERO PUSH2 0x2F9A JUMPI DUP4 PUSH1 0x1 PUSH1 0x1 PUSH1 0xA0 SHL SUB AND PUSH4 0x313CE567 PUSH1 0x40 MLOAD DUP2 PUSH4 0xFFFFFFFF AND PUSH1 0xE0 SHL DUP2 MSTORE PUSH1 0x4 ADD PUSH1 0x20 PUSH1 0x40 MLOAD DUP1 DUP4 SUB DUP2 DUP7 DUP1 EXTCODESIZE ISZERO DUP1 ISZERO PUSH2 0x2F5C JUMPI PUSH1 0x0 DUP1 REVERT JUMPDEST POP GAS STATICCALL ISZERO DUP1 ISZERO PUSH2 0x2F70 JUMPI RETURNDATASIZE PUSH1 0x0 DUP1 RETURNDATACOPY RETURNDATASIZE PUSH1 0x0 REVERT JUMPDEST POP POP POP POP PUSH1 0x40 MLOAD RETURNDATASIZE PUSH1 0x1F NOT PUSH1 0x1F DUP3 ADD AND DUP3 ADD DUP1 PUSH1 0x40 MSTORE POP DUP2 ADD SWAP1 PUSH2 0x2F94 SWAP2 SWAP1 PUSH2 0x3A21 JUMP JUMPDEST PUSH1 0xFF AND SWAP1 POP JUMPDEST PUSH2 0x2FA5 DUP3 PUSH1 0xA PUSH2 0x3C9D JUMP JUMPDEST PUSH2 0x2FB0 DUP3 PUSH1 0xA PUSH2 0x3C9D JUMP JUMPDEST PUSH2 0x2FBA SWAP1 DUP8 PUSH2 0x3D45 JUMP JUMPDEST PUSH2 0x2FC4 SWAP2 SWAP1 PUSH2 0x3C3A JUMP JUMPDEST SWAP7 SWAP6 POP POP POP POP POP POP JUMP JUMPDEST PUSH1 0x1 SLOAD PUSH1 0x40 MLOAD PUSH4 0x91E1472B PUSH1 0xE0 SHL DUP2 MSTORE PUSH1 0x1 PUSH1 0x1 PUSH1 0xA0 SHL SUB SWAP1 SWAP2 AND SWAP1 PUSH4 0x91E1472B SWAP1 PUSH2 0x3001 SWAP1 CALLER SWAP1 PUSH1 0x0 SWAP1 PUSH1 0x4 ADD PUSH2 0x3A95 JUMP JUMPDEST PUSH1 0x20 PUSH1 0x40 MLOAD DUP1 DUP4 SUB DUP2 DUP7 DUP1 EXTCODESIZE ISZERO DUP1 ISZERO PUSH2 0x3019 JUMPI PUSH1 0x0 DUP1 REVERT JUMPDEST POP GAS STATICCALL ISZERO DUP1 ISZERO PUSH2 0x302D JUMPI RETURNDATASIZE PUSH1 0x0 DUP1 RETURNDATACOPY RETURNDATASIZE PUSH1 0x0 REVERT JUMPDEST POP POP POP POP PUSH1 0x40 MLOAD RETURNDATASIZE PUSH1 0x1F NOT PUSH1 0x1F DUP3 ADD AND DUP3 ADD DUP1 PUSH1 0x40 MSTORE POP DUP2 ADD SWAP1 PUSH2 0x3051 SWAP2 SWAP1 PUSH2 0x38AB JUMP JUMPDEST PUSH2 0x306D JUMPI PUSH1 0x40 MLOAD PUSH3 0x461BCD PUSH1 0xE5 SHL DUP2 MSTORE PUSH1 0x4 ADD PUSH2 0x8B4 SWAP1 PUSH2 0x3B8F JUMP JUMPDEST PUSH1 0x2 DUP1 SLOAD PUSH1 0x1 PUSH1 0x1 PUSH1 0xA0 SHL SUB SWAP3 DUP4 AND PUSH1 0x1 PUSH1 0x1 PUSH1 0xA0 SHL SUB NOT SWAP2 DUP3 AND OR SWAP1 SWAP2 SSTORE PUSH1 0x3 DUP1 SLOAD SWAP4 SWAP1 SWAP3 AND SWAP3 AND SWAP2 SWAP1 SWAP2 OR SWAP1 SSTORE JUMP JUMPDEST PUSH1 0x6 SLOAD PUSH1 0x3 SLOAD PUSH1 0x40 MLOAD PUSH4 0xDA33AA9 PUSH1 0xE0 SHL DUP2 MSTORE PUSH1 0x1 PUSH1 0x1 PUSH1 0xA0 SHL SUB DUP6 DUP2 AND PUSH1 0x4 DUP4 ADD MSTORE SWAP2 DUP3 AND PUSH1 0x24 DUP3 ADD MSTORE CALLER PUSH1 0x44 DUP3 ADD MSTORE PUSH1 0x0 SWAP3 DUP4 SWAP3 AND SWAP1 PUSH4 0xDA33AA9 SWAP1 DUP6 SWAP1 PUSH1 0x64 ADD PUSH1 0x40 DUP1 MLOAD DUP1 DUP4 SUB DUP2 DUP6 DUP9 DUP1 EXTCODESIZE ISZERO DUP1 ISZERO PUSH2 0x30F9 JUMPI PUSH1 0x0 DUP1 REVERT JUMPDEST POP GAS CALL ISZERO DUP1 ISZERO PUSH2 0x310D JUMPI RETURNDATASIZE PUSH1 0x0 DUP1 RETURNDATACOPY RETURNDATASIZE PUSH1 0x0 REVERT JUMPDEST POP POP POP POP POP PUSH1 0x40 MLOAD RETURNDATASIZE PUSH1 0x1F NOT PUSH1 0x1F DUP3 ADD AND DUP3 ADD DUP1 PUSH1 0x40 MSTORE POP DUP2 ADD SWAP1 PUSH2 0x3132 SWAP2 SWAP1 PUSH2 0x39CD JUMP JUMPDEST SWAP1 SWAP6 SWAP1 SWAP5 POP SWAP3 POP POP POP JUMP JUMPDEST PUSH1 0x40 DUP1 MLOAD PUSH1 0x1 PUSH1 0x1 PUSH1 0xA0 SHL SUB DUP6 DUP2 AND PUSH1 0x24 DUP4 ADD MSTORE DUP5 DUP2 AND PUSH1 0x44 DUP4 ADD MSTORE PUSH1 0x64 DUP1 DUP4 ADD DUP6 SWAP1 MSTORE DUP4 MLOAD DUP1 DUP5 SUB SWAP1 SWAP2 ADD DUP2 MSTORE PUSH1 0x84 SWAP1 SWAP3 ADD DUP4 MSTORE PUSH1 0x20 DUP3 ADD DUP1 MLOAD PUSH1 0x1 PUSH1 0x1 PUSH1 0xE0 SHL SUB AND PUSH4 0x23B872DD PUSH1 0xE0 SHL OR SWAP1 MSTORE SWAP2 MLOAD PUSH1 0x0 SWAP3 DUP4 SWAP3 SWAP1 DUP9 AND SWAP2 PUSH2 0x31A1 SWAP2 SWAP1 PUSH2 0x3A5C JUMP JUMPDEST PUSH1 0x0 PUSH1 0x40 MLOAD DUP1 DUP4 SUB DUP2 PUSH1 0x0 DUP7 GAS CALL SWAP2 POP POP RETURNDATASIZE DUP1 PUSH1 0x0 DUP2 EQ PUSH2 0x31DE JUMPI PUSH1 0x40 MLOAD SWAP2 POP PUSH1 0x1F NOT PUSH1 0x3F RETURNDATASIZE ADD AND DUP3 ADD PUSH1 0x40 MSTORE RETURNDATASIZE DUP3 MSTORE RETURNDATASIZE PUSH1 0x0 PUSH1 0x20 DUP5 ADD RETURNDATACOPY PUSH2 0x31E3 JUMP JUMPDEST PUSH1 0x60 SWAP2 POP JUMPDEST POP SWAP2 POP SWAP2 POP DUP2 DUP1 ISZERO PUSH2 0x320D JUMPI POP DUP1 MLOAD ISZERO DUP1 PUSH2 0x320D JUMPI POP DUP1 DUP1 PUSH1 0x20 ADD SWAP1 MLOAD DUP2 ADD SWAP1 PUSH2 0x320D SWAP2 SWAP1 PUSH2 0x38AB JUMP JUMPDEST PUSH2 0x3265 JUMPI PUSH1 0x40 MLOAD PUSH3 0x461BCD PUSH1 0xE5 SHL DUP2 MSTORE PUSH1 0x20 PUSH1 0x4 DUP3 ADD MSTORE PUSH1 0x24 DUP1 DUP3 ADD MSTORE PUSH32 0x5472616E7366657248656C7065723A205452414E534645525F46524F4D5F4641 PUSH1 0x44 DUP3 ADD MSTORE PUSH4 0x12531151 PUSH1 0xE2 SHL PUSH1 0x64 DUP3 ADD MSTORE PUSH1 0x84 ADD PUSH2 0x8B4 JUMP JUMPDEST POP POP POP POP POP POP JUMP JUMPDEST PUSH1 0x0 DUP1 DUP5 PUSH1 0x1 PUSH1 0x1 PUSH1 0xA0 SHL SUB AND PUSH4 0xA9059CBB DUP6 DUP6 PUSH1 0x40 MLOAD PUSH1 0x24 ADD PUSH2 0x3292 SWAP3 SWAP2 SWAP1 PUSH2 0x3A95 JUMP JUMPDEST PUSH1 0x40 MLOAD PUSH1 0x20 DUP2 DUP4 SUB SUB DUP2 MSTORE SWAP1 PUSH1 0x40 MSTORE SWAP1 PUSH1 0xE0 SHL PUSH1 0x20 DUP3 ADD DUP1 MLOAD PUSH1 0x1 PUSH1 0x1 PUSH1 0xE0 SHL SUB DUP4 DUP2 DUP4 AND OR DUP4 MSTORE POP POP POP POP PUSH1 0x40 MLOAD PUSH2 0x32CB SWAP2 SWAP1 PUSH2 0x3A5C JUMP JUMPDEST PUSH1 0x0 PUSH1 0x40 MLOAD DUP1 DUP4 SUB DUP2 PUSH1 0x0 DUP7 GAS CALL SWAP2 POP POP RETURNDATASIZE DUP1 PUSH1 0x0 DUP2 EQ PUSH2 0x3308 JUMPI PUSH1 0x40 MLOAD SWAP2 POP PUSH1 0x1F NOT PUSH1 0x3F RETURNDATASIZE ADD AND DUP3 ADD PUSH1 0x40 MSTORE RETURNDATASIZE DUP3 MSTORE RETURNDATASIZE PUSH1 0x0 PUSH1 0x20 DUP5 ADD RETURNDATACOPY PUSH2 0x330D JUMP JUMPDEST PUSH1 0x60 SWAP2 POP JUMPDEST POP SWAP2 POP SWAP2 POP DUP2 DUP1 ISZERO PUSH2 0x3337 JUMPI POP DUP1 MLOAD ISZERO DUP1 PUSH2 0x3337 JUMPI POP DUP1 DUP1 PUSH1 0x20 ADD SWAP1 MLOAD DUP2 ADD SWAP1 PUSH2 0x3337 SWAP2 SWAP1 PUSH2 0x38AB JUMP JUMPDEST PUSH2 0x3383 JUMPI PUSH1 0x40 MLOAD PUSH3 0x461BCD PUSH1 0xE5 SHL DUP2 MSTORE PUSH1 0x20 PUSH1 0x4 DUP3 ADD MSTORE PUSH1 0x1F PUSH1 0x24 DUP3 ADD MSTORE PUSH32 0x5472616E7366657248656C7065723A205452414E534645525F4641494C454400 PUSH1 0x44 DUP3 ADD MSTORE PUSH1 0x64 ADD PUSH2 0x8B4 JUMP JUMPDEST POP POP POP POP POP JUMP JUMPDEST PUSH1 0x40 DUP1 MLOAD PUSH1 0x0 DUP1 DUP3 MSTORE PUSH1 0x20 DUP3 ADD SWAP1 SWAP3 MSTORE PUSH1 0x1 PUSH1 0x1 PUSH1 0xA0 SHL SUB DUP5 AND SWAP1 DUP4 SWAP1 PUSH1 0x40 MLOAD PUSH2 0x33B4 SWAP2 SWAP1 PUSH2 0x3A5C JUMP JUMPDEST PUSH1 0x0 PUSH1 0x40 MLOAD DUP1 DUP4 SUB DUP2 DUP6 DUP8 GAS CALL SWAP3 POP POP POP RETURNDATASIZE DUP1 PUSH1 0x0 DUP2 EQ PUSH2 0x33F1 JUMPI PUSH1 0x40 MLOAD SWAP2 POP PUSH1 0x1F NOT PUSH1 0x3F RETURNDATASIZE ADD AND DUP3 ADD PUSH1 0x40 MSTORE RETURNDATASIZE DUP3 MSTORE RETURNDATASIZE PUSH1 0x0 PUSH1 0x20 DUP5 ADD RETURNDATACOPY PUSH2 0x33F6 JUMP JUMPDEST PUSH1 0x60 SWAP2 POP JUMPDEST POP POP SWAP1 POP DUP1 PUSH2 0x3453 JUMPI PUSH1 0x40 MLOAD PUSH3 0x461BCD PUSH1 0xE5 SHL DUP2 MSTORE PUSH1 0x20 PUSH1 0x4 DUP3 ADD MSTORE PUSH1 0x23 PUSH1 0x24 DUP3 ADD MSTORE PUSH32 0x5472616E7366657248656C7065723A204554485F5452414E534645525F464149 PUSH1 0x44 DUP3 ADD MSTORE PUSH3 0x131151 PUSH1 0xEA SHL PUSH1 0x64 DUP3 ADD MSTORE PUSH1 0x84 ADD PUSH2 0x8B4 JUMP JUMPDEST POP POP POP JUMP JUMPDEST PUSH1 0x20 DUP5 ADD MLOAD DUP5 MLOAD PUSH1 0x60 DUP7 ADD MLOAD PUSH1 0x40 DUP8 ADD MLOAD PUSH1 0x1 PUSH1 0x1 PUSH1 0x58 SHL SUB SWAP1 SWAP2 AND SWAP1 DUP4 ISZERO DUP1 ISZERO SWAP1 PUSH2 0x348C JUMPI POP DUP1 PUSH1 0x1 PUSH1 0x1 PUSH1 0xA0 SHL SUB AND NUMBER GT JUMPDEST DUP1 ISZERO PUSH2 0x34A0 JUMPI POP PUSH1 0x1 PUSH1 0x1 PUSH1 0xA0 SHL SUB DUP2 AND ISZERO ISZERO JUMPDEST ISZERO PUSH2 0x3584 JUMPI PUSH1 0x0 PUSH2 0x34BF DUP6 DUP4 DUP6 PUSH2 0x34B9 DUP9 DUP11 DUP15 DUP15 PUSH2 0x1C92 JUMP JUMPDEST DUP11 PUSH2 0x1631 JUMP JUMPDEST PUSH1 0x2 SLOAD PUSH1 0x7 SLOAD SWAP2 SWAP3 POP PUSH2 0x34E1 SWAP2 PUSH1 0x1 PUSH1 0x1 PUSH1 0xA0 SHL SUB SWAP2 DUP3 AND SWAP2 CALLER SWAP2 AND DUP5 PUSH2 0x313D JUMP JUMPDEST PUSH1 0x7 PUSH1 0x0 SWAP1 SLOAD SWAP1 PUSH2 0x100 EXP SWAP1 DIV PUSH1 0x1 PUSH1 0x1 PUSH1 0xA0 SHL SUB AND PUSH1 0x1 PUSH1 0x1 PUSH1 0xA0 SHL SUB AND PUSH4 0xB7694A93 PUSH1 0x40 MLOAD DUP2 PUSH4 0xFFFFFFFF AND PUSH1 0xE0 SHL DUP2 MSTORE PUSH1 0x4 ADD PUSH1 0x0 PUSH1 0x40 MLOAD DUP1 DUP4 SUB DUP2 PUSH1 0x0 DUP8 DUP1 EXTCODESIZE ISZERO DUP1 ISZERO PUSH2 0x3531 JUMPI PUSH1 0x0 DUP1 REVERT JUMPDEST POP GAS CALL ISZERO DUP1 ISZERO PUSH2 0x3545 JUMPI RETURNDATASIZE PUSH1 0x0 DUP1 RETURNDATACOPY RETURNDATASIZE PUSH1 0x0 REVERT JUMPDEST POP POP POP POP PUSH32 0xD22F9C8C29C0808BE6387686AC52381992FDEEA23A23843E31EE581E65304182 DUP2 PUSH1 0x40 MLOAD PUSH2 0x357A SWAP2 DUP2 MSTORE PUSH1 0x20 ADD SWAP1 JUMP JUMPDEST PUSH1 0x40 MLOAD DUP1 SWAP2 SUB SWAP1 LOG1 POP JUMPDEST POP POP POP POP POP POP POP POP JUMP JUMPDEST DUP1 CALLDATALOAD PUSH2 0x3599 DUP2 PUSH2 0x3D91 JUMP JUMPDEST SWAP2 SWAP1 POP JUMP JUMPDEST DUP1 CALLDATALOAD PUSH5 0xFFFFFFFFFF DUP2 AND DUP2 EQ PUSH2 0x3599 JUMPI PUSH1 0x0 DUP1 REVERT JUMPDEST DUP1 CALLDATALOAD PUSH1 0x1 PUSH1 0x1 PUSH1 0x50 SHL SUB DUP2 AND DUP2 EQ PUSH2 0x3599 JUMPI PUSH1 0x0 DUP1 REVERT JUMPDEST DUP1 CALLDATALOAD PUSH1 0x1 PUSH1 0x1 PUSH1 0x58 SHL SUB DUP2 AND DUP2 EQ PUSH2 0x3599 JUMPI PUSH1 0x0 DUP1 REVERT JUMPDEST DUP1 CALLDATALOAD PUSH1 0x1 PUSH1 0x1 PUSH1 0x60 SHL SUB DUP2 AND DUP2 EQ PUSH2 0x3599 JUMPI PUSH1 0x0 DUP1 REVERT JUMPDEST PUSH1 0x0 PUSH1 0x20 DUP3 DUP5 SUB SLT ISZERO PUSH2 0x3609 JUMPI DUP1 DUP2 REVERT JUMPDEST DUP2 CALLDATALOAD PUSH2 0x3614 DUP2 PUSH2 0x3D91 JUMP JUMPDEST SWAP4 SWAP3 POP POP POP JUMP JUMPDEST PUSH1 0x0 DUP1 PUSH1 0x40 DUP4 DUP6 SUB SLT ISZERO PUSH2 0x362D JUMPI DUP1 DUP2 REVERT JUMPDEST DUP3 CALLDATALOAD PUSH2 0x3638 DUP2 PUSH2 0x3D91 JUMP JUMPDEST SWAP2 POP PUSH1 0x20 DUP4 ADD CALLDATALOAD PUSH2 0x3648 DUP2 PUSH2 0x3D91 JUMP JUMPDEST DUP1 SWAP2 POP POP SWAP3 POP SWAP3 SWAP1 POP JUMP JUMPDEST PUSH1 0x0 DUP1 PUSH1 0x0 DUP1 PUSH1 0x80 DUP6 DUP8 SUB SLT ISZERO PUSH2 0x3668 JUMPI DUP2 DUP3 REVERT JUMPDEST DUP5 CALLDATALOAD PUSH2 0x3673 DUP2 PUSH2 0x3D91 JUMP JUMPDEST SWAP4 POP PUSH1 0x20 DUP6 ADD CALLDATALOAD PUSH2 0x3683 DUP2 PUSH2 0x3D91 JUMP JUMPDEST SWAP4 SWAP7 SWAP4 SWAP6 POP POP POP POP PUSH1 0x40 DUP3 ADD CALLDATALOAD SWAP2 PUSH1 0x60 ADD CALLDATALOAD SWAP1 JUMP JUMPDEST PUSH1 0x0 DUP1 PUSH1 0x40 DUP4 DUP6 SUB SLT ISZERO PUSH2 0x36AA JUMPI DUP2 DUP3 REVERT JUMPDEST DUP3 CALLDATALOAD PUSH2 0x36B5 DUP2 PUSH2 0x3D91 JUMP JUMPDEST SWAP2 POP PUSH1 0x20 DUP4 ADD CALLDATALOAD PUSH2 0x3648 DUP2 PUSH2 0x3DA9 JUMP JUMPDEST PUSH1 0x0 DUP1 PUSH1 0x40 DUP4 DUP6 SUB SLT ISZERO PUSH2 0x36D7 JUMPI DUP2 DUP3 REVERT JUMPDEST DUP3 CALLDATALOAD PUSH2 0x36E2 DUP2 PUSH2 0x3D91 JUMP JUMPDEST SWAP5 PUSH1 0x20 SWAP4 SWAP1 SWAP4 ADD CALLDATALOAD SWAP4 POP POP POP JUMP JUMPDEST PUSH1 0x0 DUP1 PUSH1 0x0 PUSH1 0x60 DUP5 DUP7 SUB SLT ISZERO PUSH2 0x3704 JUMPI DUP3 DUP4 REVERT JUMPDEST DUP4 CALLDATALOAD PUSH2 0x370F DUP2 PUSH2 0x3D91 JUMP JUMPDEST SWAP3 POP PUSH1 0x20 DUP5 ADD CALLDATALOAD SWAP2 POP PUSH1 0x40 DUP5 ADD CALLDATALOAD PUSH2 0x3726 DUP2 PUSH2 0x3D91 JUMP JUMPDEST DUP1 SWAP2 POP POP SWAP3 POP SWAP3 POP SWAP3 JUMP JUMPDEST PUSH1 0x0 DUP1 PUSH1 0x0 DUP1 PUSH1 0x0 PUSH1 0xA0 DUP7 DUP9 SUB SLT ISZERO PUSH2 0x3748 JUMPI DUP1 DUP2 REVERT JUMPDEST DUP6 CALLDATALOAD PUSH2 0x3753 DUP2 PUSH2 0x3D91 JUMP JUMPDEST SWAP5 POP PUSH1 0x20 DUP7 ADD CALLDATALOAD SWAP4 POP PUSH1 0x40 DUP7 ADD CALLDATALOAD SWAP3 POP PUSH2 0x376F PUSH1 0x60 DUP8 ADD PUSH2 0x35CA JUMP JUMPDEST SWAP2 POP PUSH1 0x80 DUP7 ADD CALLDATALOAD PUSH2 0x377F DUP2 PUSH2 0x3D91 JUMP JUMPDEST DUP1 SWAP2 POP POP SWAP3 SWAP6 POP SWAP3 SWAP6 SWAP1 SWAP4 POP JUMP JUMPDEST PUSH1 0x0 DUP1 PUSH1 0x0 PUSH1 0x60 DUP5 DUP7 SUB SLT ISZERO PUSH2 0x37A1 JUMPI DUP3 DUP4 REVERT JUMPDEST DUP4 CALLDATALOAD PUSH2 0x37AC DUP2 PUSH2 0x3D91 JUMP JUMPDEST SWAP3 POP PUSH1 0x20 DUP5 ADD CALLDATALOAD SWAP2 POP PUSH2 0x37C1 PUSH1 0x40 DUP6 ADD PUSH2 0x35CA JUMP JUMPDEST SWAP1 POP SWAP3 POP SWAP3 POP SWAP3 JUMP JUMPDEST PUSH1 0x0 DUP1 PUSH1 0x40 DUP4 DUP6 SUB SLT ISZERO PUSH2 0x37DC JUMPI DUP2 DUP3 REVERT JUMPDEST DUP3 CALLDATALOAD PUSH2 0x37E7 DUP2 PUSH2 0x3D91 JUMP JUMPDEST SWAP2 POP PUSH2 0x37F5 PUSH1 0x20 DUP5 ADD PUSH2 0x359E JUMP JUMPDEST SWAP1 POP SWAP3 POP SWAP3 SWAP1 POP JUMP JUMPDEST PUSH1 0x0 DUP1 PUSH1 0x40 DUP4 DUP6 SUB SLT ISZERO PUSH2 0x3810 JUMPI DUP1 DUP2 REVERT JUMPDEST DUP3 CALLDATALOAD PUSH2 0x381B DUP2 PUSH2 0x3D91 JUMP JUMPDEST SWAP2 POP PUSH2 0x37F5 PUSH1 0x20 DUP5 ADD PUSH2 0x35B3 JUMP JUMPDEST PUSH1 0x0 DUP1 PUSH1 0x40 DUP4 DUP6 SUB SLT ISZERO PUSH2 0x383B JUMPI DUP2 DUP3 REVERT JUMPDEST DUP3 CALLDATALOAD PUSH2 0x3846 DUP2 PUSH2 0x3D91 JUMP JUMPDEST SWAP2 POP PUSH2 0x37F5 PUSH1 0x20 DUP5 ADD PUSH2 0x35CA JUMP JUMPDEST PUSH1 0x0 DUP1 PUSH1 0x0 DUP1 PUSH1 0x80 DUP6 DUP8 SUB SLT ISZERO PUSH2 0x3869 JUMPI DUP2 DUP3 REVERT JUMPDEST DUP5 CALLDATALOAD PUSH2 0x3874 DUP2 PUSH2 0x3D91 JUMP JUMPDEST SWAP4 POP PUSH2 0x3882 PUSH1 0x20 DUP7 ADD PUSH2 0x35E1 JUMP JUMPDEST SWAP3 POP PUSH1 0x40 DUP6 ADD CALLDATALOAD PUSH2 0x3892 DUP2 PUSH2 0x3D91 JUMP JUMPDEST SWAP2 POP PUSH2 0x38A0 PUSH1 0x60 DUP7 ADD PUSH2 0x35E1 JUMP JUMPDEST SWAP1 POP SWAP3 SWAP6 SWAP2 SWAP5 POP SWAP3 POP JUMP JUMPDEST PUSH1 0x0 PUSH1 0x20 DUP3 DUP5 SUB SLT ISZERO PUSH2 0x38BC JUMPI DUP1 DUP2 REVERT JUMPDEST DUP2 MLOAD PUSH2 0x3614 DUP2 PUSH2 0x3DA9 JUMP JUMPDEST PUSH1 0x0 DUP1 PUSH1 0x0 DUP1 PUSH1 0x0 DUP6 DUP8 SUB PUSH2 0x100 DUP2 SLT ISZERO PUSH2 0x38E0 JUMPI DUP4 DUP5 REVERT JUMPDEST PUSH1 0x80 DUP2 SLT ISZERO PUSH2 0x38ED JUMPI DUP4 DUP5 REVERT JUMPDEST POP PUSH1 0x40 MLOAD PUSH1 0x80 DUP2 ADD DUP2 DUP2 LT PUSH8 0xFFFFFFFFFFFFFFFF DUP3 GT OR ISZERO PUSH2 0x391D JUMPI PUSH4 0x4E487B71 PUSH1 0xE0 SHL DUP6 MSTORE PUSH1 0x41 PUSH1 0x4 MSTORE PUSH1 0x24 DUP6 REVERT JUMPDEST DUP1 PUSH1 0x40 MSTORE POP DUP7 CALLDATALOAD DUP2 MSTORE PUSH1 0x20 DUP8 ADD CALLDATALOAD PUSH1 0x20 DUP3 ADD MSTORE PUSH2 0x393C PUSH1 0x40 DUP9 ADD PUSH2 0x358E JUMP JUMPDEST PUSH1 0x40 DUP3 ADD MSTORE PUSH2 0x394D PUSH1 0x60 DUP9 ADD PUSH2 0x35CA JUMP JUMPDEST PUSH1 0x60 DUP3 ADD MSTORE SWAP5 POP PUSH1 0x80 DUP7 ADD CALLDATALOAD SWAP4 POP PUSH1 0xA0 DUP7 ADD CALLDATALOAD SWAP3 POP PUSH2 0x396E PUSH1 0xC0 DUP8 ADD PUSH2 0x35B3 JUMP JUMPDEST SWAP2 POP PUSH2 0x397C PUSH1 0xE0 DUP8 ADD PUSH2 0x359E JUMP JUMPDEST SWAP1 POP SWAP3 SWAP6 POP SWAP3 SWAP6 SWAP1 SWAP4 POP JUMP JUMPDEST PUSH1 0x0 DUP1 PUSH1 0x0 DUP1 PUSH1 0x0 PUSH1 0xA0 DUP7 DUP9 SUB SLT ISZERO PUSH2 0x399F JUMPI DUP3 DUP4 REVERT JUMPDEST DUP6 CALLDATALOAD SWAP5 POP PUSH1 0x20 DUP7 ADD CALLDATALOAD PUSH2 0x39B1 DUP2 PUSH2 0x3D91 JUMP JUMPDEST SWAP4 POP PUSH1 0x40 DUP7 ADD CALLDATALOAD SWAP3 POP PUSH1 0x60 DUP7 ADD CALLDATALOAD SWAP2 POP PUSH2 0x397C PUSH1 0x80 DUP8 ADD PUSH2 0x359E JUMP JUMPDEST PUSH1 0x0 DUP1 PUSH1 0x40 DUP4 DUP6 SUB SLT ISZERO PUSH2 0x39DF JUMPI DUP2 DUP3 REVERT JUMPDEST POP POP DUP1 MLOAD PUSH1 0x20 SWAP1 SWAP2 ADD MLOAD SWAP1 SWAP3 SWAP1 SWAP2 POP JUMP JUMPDEST PUSH1 0x0 DUP1 PUSH1 0x0 DUP1 PUSH1 0x80 DUP6 DUP8 SUB SLT ISZERO PUSH2 0x3A05 JUMPI DUP2 DUP3 REVERT JUMPDEST POP POP DUP3 CALLDATALOAD SWAP5 PUSH1 0x20 DUP5 ADD CALLDATALOAD SWAP5 POP PUSH1 0x40 DUP5 ADD CALLDATALOAD SWAP4 PUSH1 0x60 ADD CALLDATALOAD SWAP3 POP SWAP1 POP JUMP JUMPDEST PUSH1 0x0 PUSH1 0x20 DUP3 DUP5 SUB SLT ISZERO PUSH2 0x3A32 JUMPI DUP1 DUP2 REVERT JUMPDEST DUP2 MLOAD PUSH1 0xFF DUP2 AND DUP2 EQ PUSH2 0x3614 JUMPI DUP2 DUP3 REVERT JUMPDEST PUSH1 0x0 PUSH1 0x20 DUP3 DUP5 SUB SLT ISZERO PUSH2 0x3A53 JUMPI DUP1 DUP2 REVERT JUMPDEST PUSH2 0x3614 DUP3 PUSH2 0x35E1 JUMP JUMPDEST PUSH1 0x0 DUP3 MLOAD DUP2 JUMPDEST DUP2 DUP2 LT ISZERO PUSH2 0x3A7C JUMPI PUSH1 0x20 DUP2 DUP7 ADD DUP2 ADD MLOAD DUP6 DUP4 ADD MSTORE ADD PUSH2 0x3A62 JUMP JUMPDEST DUP2 DUP2 GT ISZERO PUSH2 0x3A8A JUMPI DUP3 DUP3 DUP6 ADD MSTORE JUMPDEST POP SWAP2 SWAP1 SWAP2 ADD SWAP3 SWAP2 POP POP JUMP JUMPDEST PUSH1 0x1 PUSH1 0x1 PUSH1 0xA0 SHL SUB SWAP3 SWAP1 SWAP3 AND DUP3 MSTORE PUSH1 0x20 DUP3 ADD MSTORE PUSH1 0x40 ADD SWAP1 JUMP JUMPDEST PUSH1 0x1 PUSH1 0x1 PUSH1 0xA0 SHL SUB SWAP7 SWAP1 SWAP7 AND DUP7 MSTORE PUSH1 0x20 DUP7 ADD SWAP5 SWAP1 SWAP5 MSTORE PUSH1 0x40 DUP6 ADD SWAP3 SWAP1 SWAP3 MSTORE PUSH1 0x60 DUP5 ADD MSTORE PUSH1 0x80 DUP4 ADD MSTORE PUSH1 0x1 PUSH1 0x1 PUSH1 0x58 SHL SUB AND PUSH1 0xA0 DUP3 ADD MSTORE PUSH1 0xC0 ADD SWAP1 JUMP JUMPDEST PUSH1 0x20 DUP1 DUP3 MSTORE PUSH1 0x18 SWAP1 DUP3 ADD MSTORE PUSH32 0x4C6F673A4D6F727467616765506F6F6C3A21616D6F756E740000000000000000 PUSH1 0x40 DUP3 ADD MSTORE PUSH1 0x60 ADD SWAP1 JUMP JUMPDEST PUSH1 0x20 DUP1 DUP3 MSTORE PUSH1 0x19 SWAP1 DUP3 ADD MSTORE PUSH32 0x4C6F673A5061726173736574426173653A215F6C6F636B656400000000000000 PUSH1 0x40 DUP3 ADD MSTORE PUSH1 0x60 ADD SWAP1 JUMP JUMPDEST PUSH1 0x20 DUP1 DUP3 MSTORE PUSH1 0x18 SWAP1 DUP3 ADD MSTORE PUSH32 0x4C6F673A4D6F727467616765506F6F6C3A696E6465783D300000000000000000 PUSH1 0x40 DUP3 ADD MSTORE PUSH1 0x60 ADD SWAP1 JUMP JUMPDEST PUSH1 0x20 DUP1 DUP3 MSTORE PUSH1 0x15 SWAP1 DUP3 ADD MSTORE PUSH21 0x2637B39D2830B930B9B9B2BA2130B9B29D10B3B7BB PUSH1 0x59 SHL PUSH1 0x40 DUP3 ADD MSTORE PUSH1 0x60 ADD SWAP1 JUMP JUMPDEST PUSH1 0x20 DUP1 DUP3 MSTORE PUSH1 0x1F SWAP1 DUP3 ADD MSTORE PUSH32 0x4C6F673A4D6F727467616765506F6F6C3A216D6F727467616765416C6C6F7700 PUSH1 0x40 DUP3 ADD MSTORE PUSH1 0x60 ADD SWAP1 JUMP JUMPDEST PUSH1 0x20 DUP1 DUP3 MSTORE PUSH1 0x13 SWAP1 DUP3 ADD MSTORE PUSH19 0x4C6F673A4D6F727467616765506F6F6C3A213 PUSH1 0x6C SHL PUSH1 0x40 DUP3 ADD MSTORE PUSH1 0x60 ADD SWAP1 JUMP JUMPDEST PUSH1 0x0 DUP3 NOT DUP3 GT ISZERO PUSH2 0x3C35 JUMPI PUSH2 0x3C35 PUSH2 0x3D7B JUMP JUMPDEST POP ADD SWAP1 JUMP JUMPDEST PUSH1 0x0 DUP3 PUSH2 0x3C55 JUMPI PUSH4 0x4E487B71 PUSH1 0xE0 SHL DUP2 MSTORE PUSH1 0x12 PUSH1 0x4 MSTORE PUSH1 0x24 DUP2 REVERT JUMPDEST POP DIV SWAP1 JUMP JUMPDEST PUSH1 0x1 DUP2 DUP2 JUMPDEST DUP1 DUP6 GT ISZERO PUSH2 0x3C95 JUMPI DUP2 PUSH1 0x0 NOT DIV DUP3 GT ISZERO PUSH2 0x3C7B JUMPI PUSH2 0x3C7B PUSH2 0x3D7B JUMP JUMPDEST DUP1 DUP6 AND ISZERO PUSH2 0x3C88 JUMPI SWAP2 DUP2 MUL SWAP2 JUMPDEST SWAP4 DUP5 SHR SWAP4 SWAP1 DUP1 MUL SWAP1 PUSH2 0x3C5F JUMP JUMPDEST POP SWAP3 POP SWAP3 SWAP1 POP JUMP JUMPDEST PUSH1 0x0 PUSH2 0x3614 DUP4 DUP4 PUSH1 0x0 DUP3 PUSH2 0x3CB3 JUMPI POP PUSH1 0x1 PUSH2 0x28DC JUMP JUMPDEST DUP2 PUSH2 0x3CC0 JUMPI POP PUSH1 0x0 PUSH2 0x28DC JUMP JUMPDEST DUP2 PUSH1 0x1 DUP2 EQ PUSH2 0x3CD6 JUMPI PUSH1 0x2 DUP2 EQ PUSH2 0x3CE0 JUMPI PUSH2 0x3CFC JUMP JUMPDEST PUSH1 0x1 SWAP2 POP POP PUSH2 0x28DC JUMP JUMPDEST PUSH1 0xFF DUP5 GT ISZERO PUSH2 0x3CF1 JUMPI PUSH2 0x3CF1 PUSH2 0x3D7B JUMP JUMPDEST POP POP PUSH1 0x1 DUP3 SHL PUSH2 0x28DC JUMP JUMPDEST POP PUSH1 0x20 DUP4 LT PUSH2 0x133 DUP4 LT AND PUSH1 0x4E DUP5 LT PUSH1 0xB DUP5 LT AND OR ISZERO PUSH2 0x3D1F JUMPI POP DUP2 DUP2 EXP PUSH2 0x28DC JUMP JUMPDEST PUSH2 0x3D29 DUP4 DUP4 PUSH2 0x3C5A JUMP JUMPDEST DUP1 PUSH1 0x0 NOT DIV DUP3 GT ISZERO PUSH2 0x3D3D JUMPI PUSH2 0x3D3D PUSH2 0x3D7B JUMP JUMPDEST MUL SWAP4 SWAP3 POP POP POP JUMP JUMPDEST PUSH1 0x0 DUP2 PUSH1 0x0 NOT DIV DUP4 GT DUP3 ISZERO ISZERO AND ISZERO PUSH2 0x3D5F JUMPI PUSH2 0x3D5F PUSH2 0x3D7B JUMP JUMPDEST POP MUL SWAP1 JUMP JUMPDEST PUSH1 0x0 DUP3 DUP3 LT ISZERO PUSH2 0x3D76 JUMPI PUSH2 0x3D76 PUSH2 0x3D7B JUMP JUMPDEST POP SUB SWAP1 JUMP JUMPDEST PUSH4 0x4E487B71 PUSH1 0xE0 SHL PUSH1 0x0 MSTORE PUSH1 0x11 PUSH1 0x4 MSTORE PUSH1 0x24 PUSH1 0x0 REVERT JUMPDEST PUSH1 0x1 PUSH1 0x1 PUSH1 0xA0 SHL SUB DUP2 AND DUP2 EQ PUSH2 0x3DA6 JUMPI PUSH1 0x0 DUP1 REVERT JUMPDEST POP JUMP JUMPDEST DUP1 ISZERO ISZERO DUP2 EQ PUSH2 0x3DA6 JUMPI PUSH1 0x0 DUP1 REVERT INVALID CALLDATASIZE 0xB0 DUP14 0x1E 0xC8 0xEC 0xD5 DUP9 STOP PUSH30 0x14EA5BE9EDB9EEB4CDD2F952162D2D32D4B71A0126A2A264697066735822 SLT KECCAK256 0xB5 BLOCKHASH 0xE4 PUSH23 0x853E0140BF6640F8C7B9B0FCFA922D9EC2D9BBB71A931D 0xEB CALLVALUE CALLER PUSH31 0x3C64736F6C6343000804003300000000000000000000000000000000000000 "
		},
		"gasEstimates": {
			"creation": {
				"codeDepositCost": "3177000",
				"executionCost": "3515",
				"totalCost": "3180515"
			},
			"external": {
				"_checkLine((uint256,uint256,uint160,uint88),uint256,uint256,uint80,uint40)": "infinite",
				"_governance()": "1117",
				"coin(address,uint256,uint88)": "infinite",
				"decrease(address,uint256)": "infinite",
				"getDecimalConversion(address,uint256,address)": "infinite",
				"getFee(uint256,uint160,uint256,uint256,uint40)": "infinite",
				"getFlag()": "1158",
				"getInfoRealTime(address,uint256,uint256,uint88,address)": "infinite",
				"getInsurancePool()": "1087",
				"getK(address)": "1379",
				"getLedger(address,address)": "infinite",
				"getLedgerArrayNum(address)": "1276",
				"getLedgerIndex(address,address)": "infinite",
				"getLiquidateRate(address)": "1353",
				"getMaxRate(address)": "1370",
				"getMortgageRate(uint256,uint256,uint256,uint256)": "infinite",
				"getOneYear()": "1081",
				"getPTokenAddress()": "1154",
				"getPriceController()": "1110",
				"getR0(address)": "1309",
				"getUnderlyingToken()": "1109",
				"increaseCoinage(address,uint256)": "infinite",
				"initialize(address)": "27142",
				"liquidation(address,address,uint256,uint256)": "infinite",
				"reducedCoinage(address,uint256)": "infinite",
				"setConfig(address,uint96,address,uint96)": "infinite",
				"setFlag(uint96)": "infinite",
				"setInfo(address,address)": "infinite",
				"setInsurancePool(address)": "infinite",
				"setK(address,uint80)": "infinite",
				"setLiquidateRate(address,uint40)": "infinite",
				"setMaxRate(address,uint88)": "infinite",
				"setMortgageAllow(address,bool)": "infinite",
				"setOneYear(uint96)": "infinite",
				"setPriceController(address)": "infinite",
				"setR0(address,uint40)": "infinite",
				"supplement(address,uint256)": "infinite",
				"update(address)": "infinite"
			},
			"internal": {
				"getPriceForPToken(address,uint256)": "infinite",
				"transferFee(struct MortgagePool.PersonalLedger memory,uint256,uint256,uint40)": "infinite"
			}
		},
		"methodIdentifiers": {
			"_checkLine((uint256,uint256,uint160,uint88),uint256,uint256,uint80,uint40)": "f042fc6b",
			"_governance()": "1c2f3e3d",
			"coin(address,uint256,uint88)": "3a97bb25",
			"decrease(address,uint256)": "f27ac4d9",
			"getDecimalConversion(address,uint256,address)": "f9081591",
			"getFee(uint256,uint160,uint256,uint256,uint40)": "3ac68750",
			"getFlag()": "f9633930",
			"getInfoRealTime(address,uint256,uint256,uint88,address)": "800c2b39",
			"getInsurancePool()": "d0d5665b",
			"getK(address)": "1e0f6725",
			"getLedger(address,address)": "25404c4f",
			"getLedgerArrayNum(address)": "a831407f",
			"getLedgerIndex(address,address)": "cb919485",
			"getLiquidateRate(address)": "9cf2aa2a",
			"getMaxRate(address)": "a99c53b3",
			"getMortgageRate(uint256,uint256,uint256,uint256)": "7ff4d02f",
			"getOneYear()": "f1a4252e",
			"getPTokenAddress()": "42d17745",
			"getPriceController()": "3cf045a4",
			"getR0(address)": "90f5cb09",
			"getUnderlyingToken()": "ee719bc8",
			"increaseCoinage(address,uint256)": "983825de",
			"initialize(address)": "c4d66de8",
			"liquidation(address,address,uint256,uint256)": "219f7753",
			"reducedCoinage(address,uint256)": "78a35320",
			"setConfig(address,uint96,address,uint96)": "0daa6d11",
			"setFlag(uint96)": "306aceda",
			"setInfo(address,address)": "fb606f92",
			"setInsurancePool(address)": "a94c487e",
			"setK(address,uint80)": "28107acf",
			"setLiquidateRate(address,uint40)": "5d6f1533",
			"setMaxRate(address,uint88)": "5e0ec98f",
			"setMortgageAllow(address,bool)": "c2862d67",
			"setOneYear(uint96)": "3376cb37",
			"setPriceController(address)": "3f849820",
			"setR0(address,uint40)": "efdecaef",
			"supplement(address,uint256)": "a240b9a8",
			"update(address)": "1c1b8772"
		}
	},
	"abi": [
		{
			"anonymous": false,
			"inputs": [
				{
					"indexed": false,
					"internalType": "uint256",
					"name": "value",
					"type": "uint256"
				}
			],
			"name": "FeeValue",
			"type": "event"
		},
		{
			"anonymous": false,
			"inputs": [
				{
					"indexed": false,
					"internalType": "address",
					"name": "mToken",
					"type": "address"
				},
				{
					"indexed": false,
					"internalType": "uint256",
					"name": "mTokenAmount",
					"type": "uint256"
				},
				{
					"indexed": false,
					"internalType": "uint256",
					"name": "pTokenAmount",
					"type": "uint256"
				},
				{
					"indexed": false,
					"internalType": "uint256",
					"name": "tokenPrice",
					"type": "uint256"
				},
				{
					"indexed": false,
					"internalType": "uint256",
					"name": "pTokenPrice",
					"type": "uint256"
				},
				{
					"indexed": false,
					"internalType": "uint88",
					"name": "rate",
					"type": "uint88"
				}
			],
			"name": "LedgerLog",
			"type": "event"
		},
		{
			"inputs": [
				{
					"components": [
						{
							"internalType": "uint256",
							"name": "mortgageAssets",
							"type": "uint256"
						},
						{
							"internalType": "uint256",
							"name": "parassetAssets",
							"type": "uint256"
						},
						{
							"internalType": "uint160",
							"name": "blockHeight",
							"type": "uint160"
						},
						{
							"internalType": "uint88",
							"name": "rate",
							"type": "uint88"
						}
					],
					"internalType": "struct MortgagePool.PersonalLedger",
					"name": "pLedger",
					"type": "tuple"
				},
				{
					"internalType": "uint256",
					"name": "tokenPrice",
					"type": "uint256"
				},
				{
					"internalType": "uint256",
					"name": "pTokenPrice",
					"type": "uint256"
				},
				{
					"internalType": "uint80",
					"name": "kValue",
					"type": "uint80"
				},
				{
					"internalType": "uint40",
					"name": "r0Value",
					"type": "uint40"
				}
			],
			"name": "_checkLine",
			"outputs": [],
			"stateMutability": "view",
			"type": "function"
		},
		{
			"inputs": [],
			"name": "_governance",
			"outputs": [
				{
					"internalType": "address",
					"name": "",
					"type": "address"
				}
			],
			"stateMutability": "view",
			"type": "function"
		},
		{
			"inputs": [
				{
					"internalType": "address",
					"name": "mortgageToken",
					"type": "address"
				},
				{
					"internalType": "uint256",
					"name": "amount",
					"type": "uint256"
				},
				{
					"internalType": "uint88",
					"name": "rate",
					"type": "uint88"
				}
			],
			"name": "coin",
			"outputs": [],
			"stateMutability": "payable",
			"type": "function"
		},
		{
			"inputs": [
				{
					"internalType": "address",
					"name": "mortgageToken",
					"type": "address"
				},
				{
					"internalType": "uint256",
					"name": "amount",
					"type": "uint256"
				}
			],
			"name": "decrease",
			"outputs": [],
			"stateMutability": "payable",
			"type": "function"
		},
		{
			"inputs": [
				{
					"internalType": "address",
					"name": "inputToken",
					"type": "address"
				},
				{
					"internalType": "uint256",
					"name": "inputTokenAmount",
					"type": "uint256"
				},
				{
					"internalType": "address",
					"name": "outputToken",
					"type": "address"
				}
			],
			"name": "getDecimalConversion",
			"outputs": [
				{
					"internalType": "uint256",
					"name": "",
					"type": "uint256"
				}
			],
			"stateMutability": "view",
			"type": "function"
		},
		{
			"inputs": [
				{
					"internalType": "uint256",
					"name": "parassetAssets",
					"type": "uint256"
				},
				{
					"internalType": "uint160",
					"name": "blockHeight",
					"type": "uint160"
				},
				{
					"internalType": "uint256",
					"name": "rate",
					"type": "uint256"
				},
				{
					"internalType": "uint256",
					"name": "nowRate",
					"type": "uint256"
				},
				{
					"internalType": "uint40",
					"name": "r0Value",
					"type": "uint40"
				}
			],
			"name": "getFee",
			"outputs": [
				{
					"internalType": "uint256",
					"name": "",
					"type": "uint256"
				}
			],
			"stateMutability": "view",
			"type": "function"
		},
		{
			"inputs": [],
			"name": "getFlag",
			"outputs": [
				{
					"internalType": "uint96",
					"name": "",
					"type": "uint96"
				}
			],
			"stateMutability": "view",
			"type": "function"
		},
		{
			"inputs": [
				{
					"internalType": "address",
					"name": "mortgageToken",
					"type": "address"
				},
				{
					"internalType": "uint256",
					"name": "tokenPrice",
					"type": "uint256"
				},
				{
					"internalType": "uint256",
					"name": "uTokenPrice",
					"type": "uint256"
				},
				{
					"internalType": "uint88",
					"name": "maxRateNum",
					"type": "uint88"
				},
				{
					"internalType": "address",
					"name": "owner",
					"type": "address"
				}
			],
			"name": "getInfoRealTime",
			"outputs": [
				{
					"internalType": "uint256",
					"name": "fee",
					"type": "uint256"
				},
				{
					"internalType": "uint256",
					"name": "mortgageRate",
					"type": "uint256"
				},
				{
					"internalType": "uint256",
					"name": "maxSubM",
					"type": "uint256"
				},
				{
					"internalType": "uint256",
					"name": "maxAddP",
					"type": "uint256"
				}
			],
			"stateMutability": "view",
			"type": "function"
		},
		{
			"inputs": [],
			"name": "getInsurancePool",
			"outputs": [
				{
					"internalType": "address",
					"name": "",
					"type": "address"
				}
			],
			"stateMutability": "view",
			"type": "function"
		},
		{
			"inputs": [
				{
					"internalType": "address",
					"name": "mortgageToken",
					"type": "address"
				}
			],
			"name": "getK",
			"outputs": [
				{
					"internalType": "uint256",
					"name": "",
					"type": "uint256"
				}
			],
			"stateMutability": "view",
			"type": "function"
		},
		{
			"inputs": [
				{
					"internalType": "address",
					"name": "mortgageToken",
					"type": "address"
				},
				{
					"internalType": "address",
					"name": "owner",
					"type": "address"
				}
			],
			"name": "getLedger",
			"outputs": [
				{
					"internalType": "uint256",
					"name": "mortgageAssets",
					"type": "uint256"
				},
				{
					"internalType": "uint256",
					"name": "parassetAssets",
					"type": "uint256"
				},
				{
					"internalType": "uint160",
					"name": "blockHeight",
					"type": "uint160"
				},
				{
					"internalType": "uint88",
					"name": "rate",
					"type": "uint88"
				},
				{
					"internalType": "bool",
					"name": "created",
					"type": "bool"
				}
			],
			"stateMutability": "view",
			"type": "function"
		},
		{
			"inputs": [
				{
					"internalType": "address",
					"name": "mortgageToken",
					"type": "address"
				}
			],
			"name": "getLedgerArrayNum",
			"outputs": [
				{
					"internalType": "uint256",
					"name": "",
					"type": "uint256"
				}
			],
			"stateMutability": "view",
			"type": "function"
		},
		{
			"inputs": [
				{
					"internalType": "address",
					"name": "mortgageToken",
					"type": "address"
				},
				{
					"internalType": "address",
					"name": "owner",
					"type": "address"
				}
			],
			"name": "getLedgerIndex",
			"outputs": [
				{
					"internalType": "uint256",
					"name": "",
					"type": "uint256"
				}
			],
			"stateMutability": "view",
			"type": "function"
		},
		{
			"inputs": [
				{
					"internalType": "address",
					"name": "mortgageToken",
					"type": "address"
				}
			],
			"name": "getLiquidateRate",
			"outputs": [
				{
					"internalType": "uint40",
					"name": "",
					"type": "uint40"
				}
			],
			"stateMutability": "view",
			"type": "function"
		},
		{
			"inputs": [
				{
					"internalType": "address",
					"name": "mortgageToken",
					"type": "address"
				}
			],
			"name": "getMaxRate",
			"outputs": [
				{
					"internalType": "uint88",
					"name": "",
					"type": "uint88"
				}
			],
			"stateMutability": "view",
			"type": "function"
		},
		{
			"inputs": [
				{
					"internalType": "uint256",
					"name": "mortgageAssets",
					"type": "uint256"
				},
				{
					"internalType": "uint256",
					"name": "parassetAssets",
					"type": "uint256"
				},
				{
					"internalType": "uint256",
					"name": "tokenPrice",
					"type": "uint256"
				},
				{
					"internalType": "uint256",
					"name": "pTokenPrice",
					"type": "uint256"
				}
			],
			"name": "getMortgageRate",
			"outputs": [
				{
					"internalType": "uint256",
					"name": "",
					"type": "uint256"
				}
			],
			"stateMutability": "pure",
			"type": "function"
		},
		{
			"inputs": [],
			"name": "getOneYear",
			"outputs": [
				{
					"internalType": "uint96",
					"name": "",
					"type": "uint96"
				}
			],
			"stateMutability": "view",
			"type": "function"
		},
		{
			"inputs": [],
			"name": "getPTokenAddress",
			"outputs": [
				{
					"internalType": "address",
					"name": "",
					"type": "address"
				}
			],
			"stateMutability": "view",
			"type": "function"
		},
		{
			"inputs": [],
			"name": "getPriceController",
			"outputs": [
				{
					"internalType": "address",
					"name": "",
					"type": "address"
				}
			],
			"stateMutability": "view",
			"type": "function"
		},
		{
			"inputs": [
				{
					"internalType": "address",
					"name": "mortgageToken",
					"type": "address"
				}
			],
			"name": "getR0",
			"outputs": [
				{
					"internalType": "uint40",
					"name": "",
					"type": "uint40"
				}
			],
			"stateMutability": "view",
			"type": "function"
		},
		{
			"inputs": [],
			"name": "getUnderlyingToken",
			"outputs": [
				{
					"internalType": "address",
					"name": "",
					"type": "address"
				}
			],
			"stateMutability": "view",
			"type": "function"
		},
		{
			"inputs": [
				{
					"internalType": "address",
					"name": "mortgageToken",
					"type": "address"
				},
				{
					"internalType": "uint256",
					"name": "amount",
					"type": "uint256"
				}
			],
			"name": "increaseCoinage",
			"outputs": [],
			"stateMutability": "payable",
			"type": "function"
		},
		{
			"inputs": [
				{
					"internalType": "address",
					"name": "governance",
					"type": "address"
				}
			],
			"name": "initialize",
			"outputs": [],
			"stateMutability": "nonpayable",
			"type": "function"
		},
		{
			"inputs": [
				{
					"internalType": "address",
					"name": "mortgageToken",
					"type": "address"
				},
				{
					"internalType": "address",
					"name": "account",
					"type": "address"
				},
				{
					"internalType": "uint256",
					"name": "amount",
					"type": "uint256"
				},
				{
					"internalType": "uint256",
					"name": "pTokenAmountLimit",
					"type": "uint256"
				}
			],
			"name": "liquidation",
			"outputs": [],
			"stateMutability": "payable",
			"type": "function"
		},
		{
			"inputs": [
				{
					"internalType": "address",
					"name": "mortgageToken",
					"type": "address"
				},
				{
					"internalType": "uint256",
					"name": "amount",
					"type": "uint256"
				}
			],
			"name": "reducedCoinage",
			"outputs": [],
			"stateMutability": "payable",
			"type": "function"
		},
		{
			"inputs": [
				{
					"internalType": "address",
					"name": "pTokenAdd",
					"type": "address"
				},
				{
					"internalType": "uint96",
					"name": "oneYear",
					"type": "uint96"
				},
				{
					"internalType": "address",
					"name": "underlyingTokenAdd",
					"type": "address"
				},
				{
					"internalType": "uint96",
					"name": "flag",
					"type": "uint96"
				}
			],
			"name": "setConfig",
			"outputs": [],
			"stateMutability": "nonpayable",
			"type": "function"
		},
		{
			"inputs": [
				{
					"internalType": "uint96",
					"name": "num",
					"type": "uint96"
				}
			],
			"name": "setFlag",
			"outputs": [],
			"stateMutability": "nonpayable",
			"type": "function"
		},
		{
			"inputs": [
				{
					"internalType": "address",
					"name": "uToken",
					"type": "address"
				},
				{
					"internalType": "address",
					"name": "pToken",
					"type": "address"
				}
			],
			"name": "setInfo",
			"outputs": [],
			"stateMutability": "nonpayable",
			"type": "function"
		},
		{
			"inputs": [
				{
					"internalType": "address",
					"name": "add",
					"type": "address"
				}
			],
			"name": "setInsurancePool",
			"outputs": [],
			"stateMutability": "nonpayable",
			"type": "function"
		},
		{
			"inputs": [
				{
					"internalType": "address",
					"name": "mortgageToken",
					"type": "address"
				},
				{
					"internalType": "uint80",
					"name": "num",
					"type": "uint80"
				}
			],
			"name": "setK",
			"outputs": [],
			"stateMutability": "nonpayable",
			"type": "function"
		},
		{
			"inputs": [
				{
					"internalType": "address",
					"name": "mortgageToken",
					"type": "address"
				},
				{
					"internalType": "uint40",
					"name": "num",
					"type": "uint40"
				}
			],
			"name": "setLiquidateRate",
			"outputs": [],
			"stateMutability": "nonpayable",
			"type": "function"
		},
		{
			"inputs": [
				{
					"internalType": "address",
					"name": "mortgageToken",
					"type": "address"
				},
				{
					"internalType": "uint88",
					"name": "num",
					"type": "uint88"
				}
			],
			"name": "setMaxRate",
			"outputs": [],
			"stateMutability": "nonpayable",
			"type": "function"
		},
		{
			"inputs": [
				{
					"internalType": "address",
					"name": "mortgageToken",
					"type": "address"
				},
				{
					"internalType": "bool",
					"name": "allow",
					"type": "bool"
				}
			],
			"name": "setMortgageAllow",
			"outputs": [],
			"stateMutability": "nonpayable",
			"type": "function"
		},
		{
			"inputs": [
				{
					"internalType": "uint96",
					"name": "num",
					"type": "uint96"
				}
			],
			"name": "setOneYear",
			"outputs": [],
			"stateMutability": "nonpayable",
			"type": "function"
		},
		{
			"inputs": [
				{
					"internalType": "address",
					"name": "add",
					"type": "address"
				}
			],
			"name": "setPriceController",
			"outputs": [],
			"stateMutability": "nonpayable",
			"type": "function"
		},
		{
			"inputs": [
				{
					"internalType": "address",
					"name": "mortgageToken",
					"type": "address"
				},
				{
					"internalType": "uint40",
					"name": "num",
					"type": "uint40"
				}
			],
			"name": "setR0",
			"outputs": [],
			"stateMutability": "nonpayable",
			"type": "function"
		},
		{
			"inputs": [
				{
					"internalType": "address",
					"name": "mortgageToken",
					"type": "address"
				},
				{
					"internalType": "uint256",
					"name": "amount",
					"type": "uint256"
				}
			],
			"name": "supplement",
			"outputs": [],
			"stateMutability": "payable",
			"type": "function"
		},
		{
			"inputs": [
				{
					"internalType": "address",
					"name": "newGovernance",
					"type": "address"
				}
			],
			"name": "update",
			"outputs": [],
			"stateMutability": "nonpayable",
			"type": "function"
		}
	]
}