{
	"data": {
		"bytecode": {
			"linkReferences": {},
			"object": "6080604052620186a060085534801561001757600080fd5b50613da8806100276000396000f3fe6080604052600436106102255760003560e01c806390f5cb0911610123578063cb919485116100ab578063f1a4252e1161006f578063f1a4252e14610764578063f27ac4d91461079d578063f9081591146107b0578063f9633930146107d0578063fb606f92146107f557600080fd5b8063cb919485146106c8578063d0d5665b146106e8578063ee719bc814610706578063efdecaef14610724578063f042fc6b1461074457600080fd5b8063a831407f116100f2578063a831407f146105d6578063a94c487e1461060c578063a99c53b31461062c578063c2862d6714610688578063c4d66de8146106a857600080fd5b806390f5cb0914610512578063983825de1461056c5780639cf2aa2a1461057f578063a240b9a8146105c357600080fd5b80633a97bb25116101b15780635d6f1533116101755780635d6f15331461045f5780635e0ec98f1461047f57806378a353201461049f5780637ff4d02f146104b2578063800c2b39146104d257600080fd5b80633a97bb25146103d05780633ac68750146103e35780633cf045a4146104035780633f8498201461042157806342d177451461044157600080fd5b8063219f7753116101f8578063219f7753146102fd57806325404c4f1461031057806328107acf14610370578063306aceda146103905780633376cb37146103b057600080fd5b80630daa6d111461022a5780631c1b87721461024c5780631c2f3e3d1461026c5780631e0f6725146102a9575b600080fd5b34801561023657600080fd5b5061024a6102453660046137ef565b610815565b005b34801561025857600080fd5b5061024a610267366004613593565b6108ec565b34801561027857600080fd5b5060015461028c906001600160a01b031681565b6040516001600160a01b0390911681526020015b60405180910390f35b3480156102b557600080fd5b506102ef6102c4366004613593565b6001600160a01b0316600090815260046020526040902054600160601b90046001600160501b031690565b6040519081526020016102a0565b61024a61030b3660046135ee565b6109bf565b34801561031c57600080fd5b5061033061032b3660046135b6565b610dca565b6040805195865260208601949094526001600160a01b03909216928401929092526001600160581b0390911660608301521515608082015260a0016102a0565b34801561037c57600080fd5b5061024a61038b366004613799565b610e9e565b34801561039c57600080fd5b5061024a6103ab3660046139dd565b610f83565b3480156103bc57600080fd5b5061024a6103cb3660046139dd565b61104a565b61024a6103de366004613728565b611111565b3480156103ef57600080fd5b506102ef6103fe366004613923565b6115fb565b34801561040f57600080fd5b506006546001600160a01b031661028c565b34801561042d57600080fd5b5061024a61043c366004613593565b6116a6565b34801561044d57600080fd5b506002546001600160a01b031661028c565b34801561046b57600080fd5b5061024a61047a366004613765565b611767565b34801561048b57600080fd5b5061024a61049a3660046137c4565b611843565b61024a6104ad366004613660565b611925565b3480156104be57600080fd5b506102ef6104cd36600461398b565b611c5f565b3480156104de57600080fd5b506104f26104ed3660046136cc565b611ca4565b6040805194855260208501939093529183015260608201526080016102a0565b34801561051e57600080fd5b5061055661052d366004613593565b6001600160a01b0316600090815260046020526040902054600160b01b900464ffffffffff1690565b60405164ffffffffff90911681526020016102a0565b61024a61057a366004613660565b611ee1565b34801561058b57600080fd5b5061055661059a366004613593565b6001600160a01b0316600090815260046020526040902054600160d81b900464ffffffffff1690565b61024a6105d1366004613660565b6122e8565b3480156105e257600080fd5b506102ef6105f1366004613593565b6001600160a01b031660009081526005602052604090205490565b34801561061857600080fd5b5061024a610627366004613593565b612641565b34801561063857600080fd5b50610670610647366004613593565b6001600160a01b031660009081526004602052604090205461010090046001600160581b031690565b6040516001600160581b0390911681526020016102a0565b34801561069457600080fd5b5061024a6106a3366004613633565b612702565b3480156106b457600080fd5b5061024a6106c3366004613593565b6127cc565b3480156106d457600080fd5b506102ef6106e33660046135b6565b61284b565b3480156106f457600080fd5b506007546001600160a01b031661028c565b34801561071257600080fd5b506003546001600160a01b031661028c565b34801561073057600080fd5b5061024a61073f366004613765565b61287c565b34801561075057600080fd5b5061024a61075f366004613862565b61295a565b34801561077057600080fd5b50600254600160a01b90046001600160601b03165b6040516001600160601b0390911681526020016102a0565b61024a6107ab366004613660565b612a6c565b3480156107bc57600080fd5b506102ef6107cb36600461368b565b612e24565b3480156107dc57600080fd5b50600354600160a01b90046001600160601b0316610785565b34801561080157600080fd5b5061024a6108103660046135b6565b612f69565b6001546040516391e1472b60e01b81526001600160a01b03909116906391e1472b90610848903390600090600401613a30565b60206040518083038186803b15801561086057600080fd5b505afa158015610874573d6000803e3d6000fd5b505050506040513d601f19601f820116820180604052508101906108989190613846565b6108bd5760405162461bcd60e51b81526004016108b490613b2a565b60405180910390fd5b6001600160601b03928316600160a01b9081026001600160a01b03958616176002559216909102911617600355565b6001546001600160a01b03163381148061098057506040516391e1472b60e01b81526001600160a01b038216906391e1472b90610930903390600090600401613a30565b60206040518083038186803b15801561094857600080fd5b505afa15801561095c573d6000803e3d6000fd5b505050506040513d601f19601f820116820180604052508101906109809190613846565b61099c5760405162461bcd60e51b81526004016108b490613b2a565b50600180546001600160a01b0319166001600160a01b0392909216919091179055565b600354600160a01b90046001600160601b03166109ee5760405162461bcd60e51b81526004016108b490613b90565b60005415610a0e5760405162461bcd60e51b81526004016108b490613abc565b600160009081556001600160a01b038516815260046020908152604091829020825160a081018452905460ff811615158083526001600160581b03610100830416938301939093526001600160501b03600160601b8204169382019390935264ffffffffff600160b01b840481166060830152600160d81b9093049092166080830152610aad5760405162461bcd60e51b81526004016108b490613b59565b6001600160a01b03808616600090815260056020908152604080832093881683526001840190915290205480610af55760405162461bcd60e51b81526004016108b490613af3565b600082610b03600184613cff565b81548110610b2157634e487b7160e01b600052603260045260246000fd5b6000918252602090912060039091020160018101548154919250908715801590610b4b5750808811155b610b675760405162461bcd60e51b81526004016108b490613a85565b600080610b748c34613039565b60408051608081018252885481526001890154602082015260028901546001600160a01b03811682840152600160a01b90046001600160581b0316606080830191909152918c0151918c0151939550919350610bd3928591859161295a565b600060085483610be39190613ce0565b60808a015164ffffffffff16610bf9848e613ce0565b610c039190613ce0565b610c0d9190613bd5565b905089811115610c6b5760405162461bcd60e51b815260206004820152602360248201527f4c6f673a4d6f727467616765506f6f6c3a2170546f6b656e416d6f756e744c696044820152621b5a5d60ea1b60648201526084016108b4565b600254600754610c8a916001600160a01b0390811691339116846130d8565b600084610c978d88613ce0565b610ca19190613bd5565b6007546040516245b14b60e71b8152600481018390529192506001600160a01b0316906322d8a58090602401600060405180830381600087803b158015610ce757600080fd5b505af1158015610cfb573d6000803e3d6000fd5b505050508b85610d0b9190613cff565b8755610d178187613cff565b8760010181905550600080516020613d538339815191528e8860000154896001015487878c60020160149054906101000a90046001600160581b0316604051610d6596959493929190613a49565b60405180910390a18654610d8d57600060018801556002870180546001600160f81b03191690555b6001600160a01b038e1615610dac57610da78e338e613208565b610db6565b610db6338d613325565b505060008055505050505050505050505050565b6001600160a01b0380831660009081526005602090815260408083209385168352600180850190925282205491928392839283928392909183918391610e0f91613cff565b81548110610e2d57634e487b7160e01b600052603260045260246000fd5b60009182526020918290206040805160808101825260039390930290910180548084526001808301549585018690526002909201546001600160a01b038116938501849052600160a01b90046001600160581b031660609094018490529d939c50909a509098509650945050505050565b6001546040516391e1472b60e01b81526001600160a01b03909116906391e1472b90610ed1903390600090600401613a30565b60206040518083038186803b158015610ee957600080fd5b505afa158015610efd573d6000803e3d6000fd5b505050506040513d601f19601f82011682018060405250810190610f219190613846565b610f3d5760405162461bcd60e51b81526004016108b490613b2a565b6001600160a01b03909116600090815260046020526040902080546001600160501b03909216600160601b0269ffffffffffffffffffff60601b19909216919091179055565b6001546040516391e1472b60e01b81526001600160a01b03909116906391e1472b90610fb6903390600090600401613a30565b60206040518083038186803b158015610fce57600080fd5b505afa158015610fe2573d6000803e3d6000fd5b505050506040513d601f19601f820116820180604052508101906110069190613846565b6110225760405162461bcd60e51b81526004016108b490613b2a565b600380546001600160601b03909216600160a01b026001600160a01b03909216919091179055565b6001546040516391e1472b60e01b81526001600160a01b03909116906391e1472b9061107d903390600090600401613a30565b60206040518083038186803b15801561109557600080fd5b505afa1580156110a9573d6000803e3d6000fd5b505050506040513d601f19601f820116820180604052508101906110cd9190613846565b6110e95760405162461bcd60e51b81526004016108b490613b2a565b600280546001600160601b03909216600160a01b026001600160a01b03909216919091179055565b6003546001600160601b03600160a01b9091041660011461116f5760405162461bcd60e51b81526020600482015260186024820152774c6f673a4d6f727467616765506f6f6c3a2161637469766560401b60448201526064016108b4565b6000541561118f5760405162461bcd60e51b81526004016108b490613abc565b600160009081556001600160a01b038416815260046020908152604091829020825160a081018452905460ff811615158083526001600160581b03610100830416938301939093526001600160501b03600160601b8204169382019390935264ffffffffff600160b01b840481166060830152600160d81b909304909216608083015261122e5760405162461bcd60e51b81526004016108b490613b59565b6000826001600160581b031611801561125d575080602001516001600160581b0316826001600160581b031611155b6112a95760405162461bcd60e51b815260206004820152601860248201527f4c6f673a4d6f727467616765506f6f6c3a72617465213d30000000000000000060448201526064016108b4565b600083116112f95760405162461bcd60e51b815260206004820152601a60248201527f4c6f673a4d6f727467616765506f6f6c3a616d6f756e74213d3000000000000060448201526064016108b4565b6001600160a01b038416600090815260056020908152604080832033845260018101909252909120548061134457815460019081018084553360009081529184016020526040909120555b33600090815260018084016020526040822054849161136291613cff565b8154811061138057634e487b7160e01b600052603260045260246000fd5b600091825260208220600160039092020190810154815491935091806001600160a01b038b16156113cb576113b78b33308d6130d8565b6113c18b34613039565b9092509050611434565b8934101561141b5760405162461bcd60e51b815260206004820152601b60248201527f4c6f673a4d6f727467616765506f6f6c3a216d73672e76616c7565000000000060448201526064016108b4565b61142e8b6114298c34613cff565b613039565b90925090505b60408051608081018252865481526001870154602082015260028701546001600160a01b03811692820192909252600160a01b9091046001600160581b031660608083019190915289015161148d9190849084906133f3565b60006008548361149d9190613ce0565b6001600160581b038b166114b1848e613ce0565b6114bb9190613ce0565b6114c59190613bd5565b6002546040516313b1db0b60e31b8152600481018390523360248201529192506001600160a01b031690639d8ed85890604401600060405180830381600087803b15801561151257600080fd5b505af1158015611526573d6000803e3d6000fd5b505050508a846115369190613bbd565b86556115428186613bbd565b600187018190556002870180546001600160a01b031916436001600160a01b03161790558654611573918585611c5f565b8660020160146101000a8154816001600160581b0302191690836001600160581b03160217905550600080516020613d538339815191528c8760000154886001015486868b60020160149054906101000a90046001600160581b03166040516115e196959493929190613a49565b60405180910390a150506000805550505050505050505050565b6000806116116001600160a01b03871643613cff565b8364ffffffffff168860085487896116299190613bbd565b611634906002613ce0565b61163e9190613bbd565b6116489190613ce0565b6116529190613ce0565b61165c9190613ce0565b600254600854919250600091600160a01b9091046001600160601b0316906116849080613ce0565b61168e9190613ce0565b905061169a8183613bd5565b98975050505050505050565b6001546040516391e1472b60e01b81526001600160a01b03909116906391e1472b906116d9903390600090600401613a30565b60206040518083038186803b1580156116f157600080fd5b505afa158015611705573d6000803e3d6000fd5b505050506040513d601f19601f820116820180604052508101906117299190613846565b6117455760405162461bcd60e51b81526004016108b490613b2a565b600680546001600160a01b0319166001600160a01b0392909216919091179055565b6001546040516391e1472b60e01b81526001600160a01b03909116906391e1472b9061179a903390600090600401613a30565b60206040518083038186803b1580156117b257600080fd5b505afa1580156117c6573d6000803e3d6000fd5b505050506040513d601f19601f820116820180604052508101906117ea9190613846565b6118065760405162461bcd60e51b81526004016108b490613b2a565b6001600160a01b039091166000908152600460205260409020805464ffffffffff909216600160d81b026001600160d81b03909216919091179055565b6001546040516391e1472b60e01b81526001600160a01b03909116906391e1472b90611876903390600090600401613a30565b60206040518083038186803b15801561188e57600080fd5b505afa1580156118a2573d6000803e3d6000fd5b505050506040513d601f19601f820116820180604052508101906118c69190613846565b6118e25760405162461bcd60e51b81526004016108b490613b2a565b6001600160a01b03909116600090815260046020526040902080546001600160581b03909216610100026bffffffffffffffffffffff0019909216919091179055565b600354600160a01b90046001600160601b03166119545760405162461bcd60e51b81526004016108b490613b90565b600054156119745760405162461bcd60e51b81526004016108b490613abc565b600160009081556001600160a01b038316815260046020908152604091829020825160a081018452905460ff811615158083526001600160581b03610100830416938301939093526001600160501b03600160601b8204169382019390935264ffffffffff600160b01b840481166060830152600160d81b9093049092166080830152611a135760405162461bcd60e51b81526004016108b490613b59565b6001600160a01b0383166000908152600560209081526040808320338452600181019092529091205480611a595760405162461bcd60e51b81526004016108b490613af3565b600082611a67600184613cff565b81548110611a8557634e487b7160e01b600052603260045260246000fd5b6000918252602090912060039091020160018101548154919250908615801590611aaf5750818711155b611acb5760405162461bcd60e51b81526004016108b490613a85565b600080611ad88a34613039565b60408051608081018252885481526001890154602082015260028901546001600160a01b03811692820192909252600160a01b9091046001600160581b03166060808301919091528b0151929450909250611b3691849084906133f3565b611b408985613cff565b600186018190556002860180546001600160a01b031916436001600160a01b0316179055611b719084908484611c5f565b8560020160146101000a8154816001600160581b0302191690836001600160581b03160217905550600080516020613d538339815191528a8660000154876001015485858a60020160149054906101000a90046001600160581b0316604051611bdf96959493929190613a49565b60405180910390a1600254611bff906001600160a01b031633308c6130d8565b6002546040516346f61ed560e11b8152600481018b90523060248201526001600160a01b0390911690638dec3daa90604401600060405180830381600087803b158015611c4b57600080fd5b505af1158015610db6573d6000803e3d6000fd5b600084611c6e57506000611c9c565b611c788583613ce0565b600854611c858587613ce0565b611c8f9190613ce0565b611c999190613bd5565b90505b949350505050565b6001600160a01b0380861660009081526005602090815260408083209385168352600180850190925282205491928392839283928b92909184918391611ce991613cff565b81548110611d0757634e487b7160e01b600052603260045260246000fd5b60009182526020918290206040805160808101825260039093029091018054808452600182015494840194909452600201546001600160a01b038116918301919091526001600160581b03600160a01b9091041660608201529150158015611d7157506020810151155b15611d8c576000806000809650965096509650505050611ed5565b600354600254600091611dad916001600160a01b03918216918e9116612e24565b60208301516040840151606085015185519394508f93611e0b9392916001600160581b031690611ddf90848789611c5f565b6001600160a01b038a16600090815260046020526040902054600160b01b900464ffffffffff166115fb565b9850611e2c83600001518a8560200151611e259190613bbd565b8385611c5f565b97506001600160581b038b16808910611e4c576000975060009650611ece565b611e568382613ce0565b600854838660200151611e699190613ce0565b611e739190613ce0565b611e7d9190613bd5565b8451611e899190613cff565b9750836020015182600854611e9e9190613ce0565b85518390611ead908790613ce0565b611eb79190613ce0565b611ec19190613bd5565b611ecb9190613cff565b96505b5050505050505b95509550955095915050565b6003546001600160601b03600160a01b90910416600114611f3f5760405162461bcd60e51b81526020600482015260186024820152774c6f673a4d6f727467616765506f6f6c3a2161637469766560401b60448201526064016108b4565b60005415611f5f5760405162461bcd60e51b81526004016108b490613abc565b600160009081556001600160a01b038316815260046020908152604091829020825160a081018452905460ff811615158083526001600160581b03610100830416938301939093526001600160501b03600160601b8204169382019390935264ffffffffff600160b01b840481166060830152600160d81b9093049092166080830152611ffe5760405162461bcd60e51b81526004016108b490613b59565b6000821161201e5760405162461bcd60e51b81526004016108b490613a85565b6001600160a01b03831660009081526005602090815260408083203384526001810190925290912054806120645760405162461bcd60e51b81526004016108b490613af3565b600082612072600184613cff565b8154811061209057634e487b7160e01b600052603260045260246000fd5b600091825260209091206003909102016001810154815491925090806120f85760405162461bcd60e51b815260206004820181905260248201527f4c6f673a4d6f727467616765506f6f6c3a216d6f72746761676541737365747360448201526064016108b4565b6000806121058a34613039565b60408051608081018252885481526001890154602082015260028901546001600160a01b03811692820192909252600160a01b9091046001600160581b03166060808301919091528b015192945090925061216391849084906133f3565b61216d8985613bbd565b600186018190556002860180546001600160a01b031916436001600160a01b03161790556000906121a19085908585611c5f565b905088602001516001600160581b03168111156121fc5760405162461bcd60e51b81526020600482015260196024820152784c6f673a4d6f727467616765506f6f6c3a216d61785261746560381b60448201526064016108b4565b808660020160146101000a8154816001600160581b0302191690836001600160581b03160217905550600080516020613d538339815191528b8760000154886001015486868b60020160149054906101000a90046001600160581b031660405161226b96959493929190613a49565b60405180910390a16002546040516313b1db0b60e31b8152600481018c90523360248201526001600160a01b0390911690639d8ed85890604401600060405180830381600087803b1580156122bf57600080fd5b505af11580156122d3573d6000803e3d6000fd5b50506000805550505050505050505050505050565b600354600160a01b90046001600160601b03166123175760405162461bcd60e51b81526004016108b490613b90565b600054156123375760405162461bcd60e51b81526004016108b490613abc565b600160009081556001600160a01b038316815260046020908152604091829020825160a081018452905460ff811615158083526001600160581b03610100830416938301939093526001600160501b03600160601b8204169382019390935264ffffffffff600160b01b840481166060830152600160d81b90930490921660808301526123d65760405162461bcd60e51b81526004016108b490613b59565b600082116123f65760405162461bcd60e51b81526004016108b490613a85565b6001600160a01b038316600090815260056020908152604080832033845260018101909252909120548061244157815460019081018084553360009081529184016020526040909120555b33600090815260018084016020526040822054849161245f91613cff565b8154811061247d57634e487b7160e01b600052603260045260246000fd5b600091825260208220600160039092020190810154815491935091806001600160a01b038a16156124c8576124b48a33308c6130d8565b6124be8a34613039565b909250905061252c565b883410156125185760405162461bcd60e51b815260206004820152601b60248201527f4c6f673a4d6f727467616765506f6f6c3a216d73672e76616c7565000000000060448201526064016108b4565b6125268a6114298b34613cff565b90925090505b60408051608081018252865481526001870154602082015260028701546001600160a01b03811692820192909252600160a01b9091046001600160581b03166060808301919091528901516125859190849084906133f3565b61258f8984613bbd565b8086556002860180546001600160a01b031916436001600160a01b03161790556125bb90858484611c5f565b8560020160146101000a8154816001600160581b0302191690836001600160581b03160217905550600080516020613d538339815191528a8660000154876001015485858a60020160149054906101000a90046001600160581b031660405161262996959493929190613a49565b60405180910390a15050600080555050505050505050565b6001546040516391e1472b60e01b81526001600160a01b03909116906391e1472b90612674903390600090600401613a30565b60206040518083038186803b15801561268c57600080fd5b505afa1580156126a0573d6000803e3d6000fd5b505050506040513d601f19601f820116820180604052508101906126c49190613846565b6126e05760405162461bcd60e51b81526004016108b490613b2a565b600780546001600160a01b0319166001600160a01b0392909216919091179055565b6001546040516391e1472b60e01b81526001600160a01b03909116906391e1472b90612735903390600090600401613a30565b60206040518083038186803b15801561274d57600080fd5b505afa158015612761573d6000803e3d6000fd5b505050506040513d601f19601f820116820180604052508101906127859190613846565b6127a15760405162461bcd60e51b81526004016108b490613b2a565b6001600160a01b03919091166000908152600460205260409020805460ff1916911515919091179055565b6001546001600160a01b0316156128255760405162461bcd60e51b815260206004820152601b60248201527f4c6f673a50617261737365744261736521696e697469616c697a65000000000060448201526064016108b4565b600180546001600160a01b0319166001600160a01b039290921691909117905560008055565b6001600160a01b03808316600090815260056020908152604080832093851683526001909301905220545b92915050565b6001546040516391e1472b60e01b81526001600160a01b03909116906391e1472b906128af903390600090600401613a30565b60206040518083038186803b1580156128c757600080fd5b505afa1580156128db573d6000803e3d6000fd5b505050506040513d601f19601f820116820180604052508101906128ff9190613846565b61291b5760405162461bcd60e51b81526004016108b490613b2a565b6001600160a01b039091166000908152600460205260409020805464ffffffffff909216600160b01b0264ffffffffff60b01b19909216919091179055565b60208501518551600061296f82848989611c5f565b604089015190915060009084158015906129915750806001600160a01b031643115b80156129a557506001600160a01b03811615155b156129c7576129c485828c606001516001600160581b0316868a6115fb565b91505b87600854856129d69190613ce0565b8a6001600160501b038a166129eb868a613bbd565b6129f59190613ce0565b6129ff9190613ce0565b612a099190613bd5565b11612a605760405162461bcd60e51b815260206004820152602160248201527f4c6f673a4d6f727467616765506f6f6c3a216c69717569646174696f6e4c696e6044820152606560f81b60648201526084016108b4565b50505050505050505050565b600354600160a01b90046001600160601b0316612a9b5760405162461bcd60e51b81526004016108b490613b90565b60005415612abb5760405162461bcd60e51b81526004016108b490613abc565b600160009081556001600160a01b038316815260046020908152604091829020825160a081018452905460ff811615158083526001600160581b03610100830416938301939093526001600160501b03600160601b8204169382019390935264ffffffffff600160b01b840481166060830152600160d81b9093049092166080830152612b5a5760405162461bcd60e51b81526004016108b490613b59565b6001600160a01b0383166000908152600560209081526040808320338452600181019092529091205480612ba05760405162461bcd60e51b81526004016108b490613af3565b600082612bae600184613cff565b81548110612bcc57634e487b7160e01b600052603260045260246000fd5b6000918252602090912060039091020160018101548154919250908615801590612bf65750808711155b612c125760405162461bcd60e51b81526004016108b490613a85565b600080612c1f8a34613039565b60408051608081018252885481526001890154602082015260028901546001600160a01b03811692820192909252600160a01b9091046001600160581b03166060808301919091528b0151929450909250612c7d91849084906133f3565b612c878984613cff565b8086556002860180546001600160a01b031916436001600160a01b0316179055612d0257600185015415612cfd5760405162461bcd60e51b815260206004820181905260248201527f4c6f673a4d6f727467616765506f6f6c3a21706172617373657441737365747360448201526064016108b4565b612da0565b6000612d148660000154868585611c5f565b905088602001516001600160581b0316811115612d6f5760405162461bcd60e51b81526020600482015260196024820152784c6f673a4d6f727467616765506f6f6c3a216d61785261746560381b60448201526064016108b4565b6002860180546001600160581b03909216600160a01b026affffffffffffffffffffff60a01b199092169190911790555b845460018601546002870154604051600080516020613d5383398151915293612de3938f939192909188918891600160a01b90046001600160581b031690613a49565b60405180910390a16001600160a01b038a1615612e0a57612e058a338b613208565b612e14565b612e14338a613325565b5050600080555050505050505050565b60006012806001600160a01b03861615612eaf57856001600160a01b031663313ce5676040518163ffffffff1660e01b815260040160206040518083038186803b158015612e7157600080fd5b505afa158015612e85573d6000803e3d6000fd5b505050506040513d601f19601f82011682018060405250810190612ea991906139bc565b60ff1691505b6001600160a01b03841615612f3557836001600160a01b031663313ce5676040518163ffffffff1660e01b815260040160206040518083038186803b158015612ef757600080fd5b505afa158015612f0b573d6000803e3d6000fd5b505050506040513d601f19601f82011682018060405250810190612f2f91906139bc565b60ff1690505b612f4082600a613c38565b612f4b82600a613c38565b612f559087613ce0565b612f5f9190613bd5565b9695505050505050565b6001546040516391e1472b60e01b81526001600160a01b03909116906391e1472b90612f9c903390600090600401613a30565b60206040518083038186803b158015612fb457600080fd5b505afa158015612fc8573d6000803e3d6000fd5b505050506040513d601f19601f82011682018060405250810190612fec9190613846565b6130085760405162461bcd60e51b81526004016108b490613b2a565b600280546001600160a01b039283166001600160a01b03199182161790915560038054939092169216919091179055565b600654600354604051630da33aa960e01b81526001600160a01b038581166004830152918216602482015233604482015260009283921690630da33aa990859060640160408051808303818588803b15801561309457600080fd5b505af11580156130a8573d6000803e3d6000fd5b50505050506040513d601f19601f820116820180604052508101906130cd9190613968565b909590945092505050565b604080516001600160a01b0385811660248301528481166044830152606480830185905283518084039091018152608490920183526020820180516001600160e01b03166323b872dd60e01b179052915160009283929088169161313c91906139f7565b6000604051808303816000865af19150503d8060008114613179576040519150601f19603f3d011682016040523d82523d6000602084013e61317e565b606091505b50915091508180156131a85750805115806131a85750808060200190518101906131a89190613846565b6132005760405162461bcd60e51b8152602060048201526024808201527f5472616e7366657248656c7065723a205452414e534645525f46524f4d5f46416044820152631253115160e21b60648201526084016108b4565b505050505050565b600080846001600160a01b031663a9059cbb858560405160240161322d929190613a30565b6040516020818303038152906040529060e01b6020820180516001600160e01b03838183161783525050505060405161326691906139f7565b6000604051808303816000865af19150503d80600081146132a3576040519150601f19603f3d011682016040523d82523d6000602084013e6132a8565b606091505b50915091508180156132d25750805115806132d25750808060200190518101906132d29190613846565b61331e5760405162461bcd60e51b815260206004820152601f60248201527f5472616e7366657248656c7065723a205452414e534645525f4641494c45440060448201526064016108b4565b5050505050565b604080516000808252602082019092526001600160a01b03841690839060405161334f91906139f7565b60006040518083038185875af1925050503d806000811461338c576040519150601f19603f3d011682016040523d82523d6000602084013e613391565b606091505b50509050806133ee5760405162461bcd60e51b815260206004820152602360248201527f5472616e7366657248656c7065723a204554485f5452414e534645525f46414960448201526213115160ea1b60648201526084016108b4565b505050565b60208401518451606086015160408701516001600160581b039091169083158015906134275750806001600160a01b031643115b801561343b57506001600160a01b03811615155b1561351f57600061345a858385613454888a8e8e611c5f565b8a6115fb565b60025460075491925061347c916001600160a01b0391821691339116846130d8565b600760009054906101000a90046001600160a01b03166001600160a01b031663b7694a936040518163ffffffff1660e01b8152600401600060405180830381600087803b1580156134cc57600080fd5b505af11580156134e0573d6000803e3d6000fd5b505050507fd22f9c8c29c0808be6387686ac52381992fdeea23a23843e31ee581e653041828160405161351591815260200190565b60405180910390a1505b5050505050505050565b803561353481613d2c565b919050565b803564ffffffffff8116811461353457600080fd5b80356001600160501b038116811461353457600080fd5b80356001600160581b038116811461353457600080fd5b80356001600160601b038116811461353457600080fd5b6000602082840312156135a4578081fd5b81356135af81613d2c565b9392505050565b600080604083850312156135c8578081fd5b82356135d381613d2c565b915060208301356135e381613d2c565b809150509250929050565b60008060008060808587031215613603578182fd5b843561360e81613d2c565b9350602085013561361e81613d2c565b93969395505050506040820135916060013590565b60008060408385031215613645578182fd5b823561365081613d2c565b915060208301356135e381613d44565b60008060408385031215613672578182fd5b823561367d81613d2c565b946020939093013593505050565b60008060006060848603121561369f578283fd5b83356136aa81613d2c565b92506020840135915060408401356136c181613d2c565b809150509250925092565b600080600080600060a086880312156136e3578081fd5b85356136ee81613d2c565b9450602086013593506040860135925061370a60608701613565565b9150608086013561371a81613d2c565b809150509295509295909350565b60008060006060848603121561373c578283fd5b833561374781613d2c565b92506020840135915061375c60408501613565565b90509250925092565b60008060408385031215613777578182fd5b823561378281613d2c565b915061379060208401613539565b90509250929050565b600080604083850312156137ab578081fd5b82356137b681613d2c565b91506137906020840161354e565b600080604083850312156137d6578182fd5b82356137e181613d2c565b915061379060208401613565565b60008060008060808587031215613804578182fd5b843561380f81613d2c565b935061381d6020860161357c565b9250604085013561382d81613d2c565b915061383b6060860161357c565b905092959194509250565b600060208284031215613857578081fd5b81516135af81613d44565b600080600080600085870361010081121561387b578384fd5b6080811215613888578384fd5b506040516080810181811067ffffffffffffffff821117156138b857634e487b7160e01b85526041600452602485fd5b806040525086358152602087013560208201526138d760408801613529565b60408201526138e860608801613565565b606082015294506080860135935060a0860135925061390960c0870161354e565b915061391760e08701613539565b90509295509295909350565b600080600080600060a0868803121561393a578283fd5b85359450602086013561394c81613d2c565b9350604086013592506060860135915061391760808701613539565b6000806040838503121561397a578182fd5b505080516020909101519092909150565b600080600080608085870312156139a0578182fd5b5050823594602084013594506040840135936060013592509050565b6000602082840312156139cd578081fd5b815160ff811681146135af578182fd5b6000602082840312156139ee578081fd5b6135af8261357c565b60008251815b81811015613a1757602081860181015185830152016139fd565b81811115613a255782828501525b509190910192915050565b6001600160a01b03929092168252602082015260400190565b6001600160a01b0396909616865260208601949094526040850192909252606084015260808301526001600160581b031660a082015260c00190565b60208082526018908201527f4c6f673a4d6f727467616765506f6f6c3a21616d6f756e740000000000000000604082015260600190565b60208082526019908201527f4c6f673a5061726173736574426173653a215f6c6f636b656400000000000000604082015260600190565b60208082526018908201527f4c6f673a4d6f727467616765506f6f6c3a696e6465783d300000000000000000604082015260600190565b6020808252601590820152742637b39d2830b930b9b9b2ba2130b9b29d10b3b7bb60591b604082015260600190565b6020808252601f908201527f4c6f673a4d6f727467616765506f6f6c3a216d6f727467616765416c6c6f7700604082015260600190565b60208082526013908201527204c6f673a4d6f727467616765506f6f6c3a213606c1b604082015260600190565b60008219821115613bd057613bd0613d16565b500190565b600082613bf057634e487b7160e01b81526012600452602481fd5b500490565b600181815b80851115613c30578160001904821115613c1657613c16613d16565b80851615613c2357918102915b93841c9390800290613bfa565b509250929050565b60006135af8383600082613c4e57506001612876565b81613c5b57506000612876565b8160018114613c715760028114613c7b57613c97565b6001915050612876565b60ff841115613c8c57613c8c613d16565b50506001821b612876565b5060208310610133831016604e8410600b8410161715613cba575081810a612876565b613cc48383613bf5565b8060001904821115613cd857613cd8613d16565b029392505050565b6000816000190483118215151615613cfa57613cfa613d16565b500290565b600082821015613d1157613d11613d16565b500390565b634e487b7160e01b600052601160045260246000fd5b6001600160a01b0381168114613d4157600080fd5b50565b8015158114613d4157600080fdfe36b08d1ec8ecd588007d14ea5be9edb9eeb4cdd2f952162d2d32d4b71a0126a2a2646970667358221220812d537557ba268220c15d53c077e35cd63b8c54780e20755064fa0fc4ff875664736f6c63430008040033",
			"opcodes": "PUSH1 0x80 PUSH1 0x40 MSTORE PUSH3 0x186A0 PUSH1 0x8 SSTORE CALLVALUE DUP1 ISZERO PUSH2 0x17 JUMPI PUSH1 0x0 DUP1 REVERT JUMPDEST POP PUSH2 0x3DA8 DUP1 PUSH2 0x27 PUSH1 0x0 CODECOPY PUSH1 0x0 RETURN INVALID PUSH1 0x80 PUSH1 0x40 MSTORE PUSH1 0x4 CALLDATASIZE LT PUSH2 0x225 JUMPI PUSH1 0x0 CALLDATALOAD PUSH1 0xE0 SHR DUP1 PUSH4 0x90F5CB09 GT PUSH2 0x123 JUMPI DUP1 PUSH4 0xCB919485 GT PUSH2 0xAB JUMPI DUP1 PUSH4 0xF1A4252E GT PUSH2 0x6F JUMPI DUP1 PUSH4 0xF1A4252E EQ PUSH2 0x764 JUMPI DUP1 PUSH4 0xF27AC4D9 EQ PUSH2 0x79D JUMPI DUP1 PUSH4 0xF9081591 EQ PUSH2 0x7B0 JUMPI DUP1 PUSH4 0xF9633930 EQ PUSH2 0x7D0 JUMPI DUP1 PUSH4 0xFB606F92 EQ PUSH2 0x7F5 JUMPI PUSH1 0x0 DUP1 REVERT JUMPDEST DUP1 PUSH4 0xCB919485 EQ PUSH2 0x6C8 JUMPI DUP1 PUSH4 0xD0D5665B EQ PUSH2 0x6E8 JUMPI DUP1 PUSH4 0xEE719BC8 EQ PUSH2 0x706 JUMPI DUP1 PUSH4 0xEFDECAEF EQ PUSH2 0x724 JUMPI DUP1 PUSH4 0xF042FC6B EQ PUSH2 0x744 JUMPI PUSH1 0x0 DUP1 REVERT JUMPDEST DUP1 PUSH4 0xA831407F GT PUSH2 0xF2 JUMPI DUP1 PUSH4 0xA831407F EQ PUSH2 0x5D6 JUMPI DUP1 PUSH4 0xA94C487E EQ PUSH2 0x60C JUMPI DUP1 PUSH4 0xA99C53B3 EQ PUSH2 0x62C JUMPI DUP1 PUSH4 0xC2862D67 EQ PUSH2 0x688 JUMPI DUP1 PUSH4 0xC4D66DE8 EQ PUSH2 0x6A8 JUMPI PUSH1 0x0 DUP1 REVERT JUMPDEST DUP1 PUSH4 0x90F5CB09 EQ PUSH2 0x512 JUMPI DUP1 PUSH4 0x983825DE EQ PUSH2 0x56C JUMPI DUP1 PUSH4 0x9CF2AA2A EQ PUSH2 0x57F JUMPI DUP1 PUSH4 0xA240B9A8 EQ PUSH2 0x5C3 JUMPI PUSH1 0x0 DUP1 REVERT JUMPDEST DUP1 PUSH4 0x3A97BB25 GT PUSH2 0x1B1 JUMPI DUP1 PUSH4 0x5D6F1533 GT PUSH2 0x175 JUMPI DUP1 PUSH4 0x5D6F1533 EQ PUSH2 0x45F JUMPI DUP1 PUSH4 0x5E0EC98F EQ PUSH2 0x47F JUMPI DUP1 PUSH4 0x78A35320 EQ PUSH2 0x49F JUMPI DUP1 PUSH4 0x7FF4D02F EQ PUSH2 0x4B2 JUMPI DUP1 PUSH4 0x800C2B39 EQ PUSH2 0x4D2 JUMPI PUSH1 0x0 DUP1 REVERT JUMPDEST DUP1 PUSH4 0x3A97BB25 EQ PUSH2 0x3D0 JUMPI DUP1 PUSH4 0x3AC68750 EQ PUSH2 0x3E3 JUMPI DUP1 PUSH4 0x3CF045A4 EQ PUSH2 0x403 JUMPI DUP1 PUSH4 0x3F849820 EQ PUSH2 0x421 JUMPI DUP1 PUSH4 0x42D17745 EQ PUSH2 0x441 JUMPI PUSH1 0x0 DUP1 REVERT JUMPDEST DUP1 PUSH4 0x219F7753 GT PUSH2 0x1F8 JUMPI DUP1 PUSH4 0x219F7753 EQ PUSH2 0x2FD JUMPI DUP1 PUSH4 0x25404C4F EQ PUSH2 0x310 JUMPI DUP1 PUSH4 0x28107ACF EQ PUSH2 0x370 JUMPI DUP1 PUSH4 0x306ACEDA EQ PUSH2 0x390 JUMPI DUP1 PUSH4 0x3376CB37 EQ PUSH2 0x3B0 JUMPI PUSH1 0x0 DUP1 REVERT JUMPDEST DUP1 PUSH4 0xDAA6D11 EQ PUSH2 0x22A JUMPI DUP1 PUSH4 0x1C1B8772 EQ PUSH2 0x24C JUMPI DUP1 PUSH4 0x1C2F3E3D EQ PUSH2 0x26C JUMPI DUP1 PUSH4 0x1E0F6725 EQ PUSH2 0x2A9 JUMPI JUMPDEST PUSH1 0x0 DUP1 REVERT JUMPDEST CALLVALUE DUP1 ISZERO PUSH2 0x236 JUMPI PUSH1 0x0 DUP1 REVERT JUMPDEST POP PUSH2 0x24A PUSH2 0x245 CALLDATASIZE PUSH1 0x4 PUSH2 0x37EF JUMP JUMPDEST PUSH2 0x815 JUMP JUMPDEST STOP JUMPDEST CALLVALUE DUP1 ISZERO PUSH2 0x258 JUMPI PUSH1 0x0 DUP1 REVERT JUMPDEST POP PUSH2 0x24A PUSH2 0x267 CALLDATASIZE PUSH1 0x4 PUSH2 0x3593 JUMP JUMPDEST PUSH2 0x8EC JUMP JUMPDEST CALLVALUE DUP1 ISZERO PUSH2 0x278 JUMPI PUSH1 0x0 DUP1 REVERT JUMPDEST POP PUSH1 0x1 SLOAD PUSH2 0x28C SWAP1 PUSH1 0x1 PUSH1 0x1 PUSH1 0xA0 SHL SUB AND DUP2 JUMP JUMPDEST PUSH1 0x40 MLOAD PUSH1 0x1 PUSH1 0x1 PUSH1 0xA0 SHL SUB SWAP1 SWAP2 AND DUP2 MSTORE PUSH1 0x20 ADD JUMPDEST PUSH1 0x40 MLOAD DUP1 SWAP2 SUB SWAP1 RETURN JUMPDEST CALLVALUE DUP1 ISZERO PUSH2 0x2B5 JUMPI PUSH1 0x0 DUP1 REVERT JUMPDEST POP PUSH2 0x2EF PUSH2 0x2C4 CALLDATASIZE PUSH1 0x4 PUSH2 0x3593 JUMP JUMPDEST PUSH1 0x1 PUSH1 0x1 PUSH1 0xA0 SHL SUB AND PUSH1 0x0 SWAP1 DUP2 MSTORE PUSH1 0x4 PUSH1 0x20 MSTORE PUSH1 0x40 SWAP1 KECCAK256 SLOAD PUSH1 0x1 PUSH1 0x60 SHL SWAP1 DIV PUSH1 0x1 PUSH1 0x1 PUSH1 0x50 SHL SUB AND SWAP1 JUMP JUMPDEST PUSH1 0x40 MLOAD SWAP1 DUP2 MSTORE PUSH1 0x20 ADD PUSH2 0x2A0 JUMP JUMPDEST PUSH2 0x24A PUSH2 0x30B CALLDATASIZE PUSH1 0x4 PUSH2 0x35EE JUMP JUMPDEST PUSH2 0x9BF JUMP JUMPDEST CALLVALUE DUP1 ISZERO PUSH2 0x31C JUMPI PUSH1 0x0 DUP1 REVERT JUMPDEST POP PUSH2 0x330 PUSH2 0x32B CALLDATASIZE PUSH1 0x4 PUSH2 0x35B6 JUMP JUMPDEST PUSH2 0xDCA JUMP JUMPDEST PUSH1 0x40 DUP1 MLOAD SWAP6 DUP7 MSTORE PUSH1 0x20 DUP7 ADD SWAP5 SWAP1 SWAP5 MSTORE PUSH1 0x1 PUSH1 0x1 PUSH1 0xA0 SHL SUB SWAP1 SWAP3 AND SWAP3 DUP5 ADD SWAP3 SWAP1 SWAP3 MSTORE PUSH1 0x1 PUSH1 0x1 PUSH1 0x58 SHL SUB SWAP1 SWAP2 AND PUSH1 0x60 DUP4 ADD MSTORE ISZERO ISZERO PUSH1 0x80 DUP3 ADD MSTORE PUSH1 0xA0 ADD PUSH2 0x2A0 JUMP JUMPDEST CALLVALUE DUP1 ISZERO PUSH2 0x37C JUMPI PUSH1 0x0 DUP1 REVERT JUMPDEST POP PUSH2 0x24A PUSH2 0x38B CALLDATASIZE PUSH1 0x4 PUSH2 0x3799 JUMP JUMPDEST PUSH2 0xE9E JUMP JUMPDEST CALLVALUE DUP1 ISZERO PUSH2 0x39C JUMPI PUSH1 0x0 DUP1 REVERT JUMPDEST POP PUSH2 0x24A PUSH2 0x3AB CALLDATASIZE PUSH1 0x4 PUSH2 0x39DD JUMP JUMPDEST PUSH2 0xF83 JUMP JUMPDEST CALLVALUE DUP1 ISZERO PUSH2 0x3BC JUMPI PUSH1 0x0 DUP1 REVERT JUMPDEST POP PUSH2 0x24A PUSH2 0x3CB CALLDATASIZE PUSH1 0x4 PUSH2 0x39DD JUMP JUMPDEST PUSH2 0x104A JUMP JUMPDEST PUSH2 0x24A PUSH2 0x3DE CALLDATASIZE PUSH1 0x4 PUSH2 0x3728 JUMP JUMPDEST PUSH2 0x1111 JUMP JUMPDEST CALLVALUE DUP1 ISZERO PUSH2 0x3EF JUMPI PUSH1 0x0 DUP1 REVERT JUMPDEST POP PUSH2 0x2EF PUSH2 0x3FE CALLDATASIZE PUSH1 0x4 PUSH2 0x3923 JUMP JUMPDEST PUSH2 0x15FB JUMP JUMPDEST CALLVALUE DUP1 ISZERO PUSH2 0x40F JUMPI PUSH1 0x0 DUP1 REVERT JUMPDEST POP PUSH1 0x6 SLOAD PUSH1 0x1 PUSH1 0x1 PUSH1 0xA0 SHL SUB AND PUSH2 0x28C JUMP JUMPDEST CALLVALUE DUP1 ISZERO PUSH2 0x42D JUMPI PUSH1 0x0 DUP1 REVERT JUMPDEST POP PUSH2 0x24A PUSH2 0x43C CALLDATASIZE PUSH1 0x4 PUSH2 0x3593 JUMP JUMPDEST PUSH2 0x16A6 JUMP JUMPDEST CALLVALUE DUP1 ISZERO PUSH2 0x44D JUMPI PUSH1 0x0 DUP1 REVERT JUMPDEST POP PUSH1 0x2 SLOAD PUSH1 0x1 PUSH1 0x1 PUSH1 0xA0 SHL SUB AND PUSH2 0x28C JUMP JUMPDEST CALLVALUE DUP1 ISZERO PUSH2 0x46B JUMPI PUSH1 0x0 DUP1 REVERT JUMPDEST POP PUSH2 0x24A PUSH2 0x47A CALLDATASIZE PUSH1 0x4 PUSH2 0x3765 JUMP JUMPDEST PUSH2 0x1767 JUMP JUMPDEST CALLVALUE DUP1 ISZERO PUSH2 0x48B JUMPI PUSH1 0x0 DUP1 REVERT JUMPDEST POP PUSH2 0x24A PUSH2 0x49A CALLDATASIZE PUSH1 0x4 PUSH2 0x37C4 JUMP JUMPDEST PUSH2 0x1843 JUMP JUMPDEST PUSH2 0x24A PUSH2 0x4AD CALLDATASIZE PUSH1 0x4 PUSH2 0x3660 JUMP JUMPDEST PUSH2 0x1925 JUMP JUMPDEST CALLVALUE DUP1 ISZERO PUSH2 0x4BE JUMPI PUSH1 0x0 DUP1 REVERT JUMPDEST POP PUSH2 0x2EF PUSH2 0x4CD CALLDATASIZE PUSH1 0x4 PUSH2 0x398B JUMP JUMPDEST PUSH2 0x1C5F JUMP JUMPDEST CALLVALUE DUP1 ISZERO PUSH2 0x4DE JUMPI PUSH1 0x0 DUP1 REVERT JUMPDEST POP PUSH2 0x4F2 PUSH2 0x4ED CALLDATASIZE PUSH1 0x4 PUSH2 0x36CC JUMP JUMPDEST PUSH2 0x1CA4 JUMP JUMPDEST PUSH1 0x40 DUP1 MLOAD SWAP5 DUP6 MSTORE PUSH1 0x20 DUP6 ADD SWAP4 SWAP1 SWAP4 MSTORE SWAP2 DUP4 ADD MSTORE PUSH1 0x60 DUP3 ADD MSTORE PUSH1 0x80 ADD PUSH2 0x2A0 JUMP JUMPDEST CALLVALUE DUP1 ISZERO PUSH2 0x51E JUMPI PUSH1 0x0 DUP1 REVERT JUMPDEST POP PUSH2 0x556 PUSH2 0x52D CALLDATASIZE PUSH1 0x4 PUSH2 0x3593 JUMP JUMPDEST PUSH1 0x1 PUSH1 0x1 PUSH1 0xA0 SHL SUB AND PUSH1 0x0 SWAP1 DUP2 MSTORE PUSH1 0x4 PUSH1 0x20 MSTORE PUSH1 0x40 SWAP1 KECCAK256 SLOAD PUSH1 0x1 PUSH1 0xB0 SHL SWAP1 DIV PUSH5 0xFFFFFFFFFF AND SWAP1 JUMP JUMPDEST PUSH1 0x40 MLOAD PUSH5 0xFFFFFFFFFF SWAP1 SWAP2 AND DUP2 MSTORE PUSH1 0x20 ADD PUSH2 0x2A0 JUMP JUMPDEST PUSH2 0x24A PUSH2 0x57A CALLDATASIZE PUSH1 0x4 PUSH2 0x3660 JUMP JUMPDEST PUSH2 0x1EE1 JUMP JUMPDEST CALLVALUE DUP1 ISZERO PUSH2 0x58B JUMPI PUSH1 0x0 DUP1 REVERT JUMPDEST POP PUSH2 0x556 PUSH2 0x59A CALLDATASIZE PUSH1 0x4 PUSH2 0x3593 JUMP JUMPDEST PUSH1 0x1 PUSH1 0x1 PUSH1 0xA0 SHL SUB AND PUSH1 0x0 SWAP1 DUP2 MSTORE PUSH1 0x4 PUSH1 0x20 MSTORE PUSH1 0x40 SWAP1 KECCAK256 SLOAD PUSH1 0x1 PUSH1 0xD8 SHL SWAP1 DIV PUSH5 0xFFFFFFFFFF AND SWAP1 JUMP JUMPDEST PUSH2 0x24A PUSH2 0x5D1 CALLDATASIZE PUSH1 0x4 PUSH2 0x3660 JUMP JUMPDEST PUSH2 0x22E8 JUMP JUMPDEST CALLVALUE DUP1 ISZERO PUSH2 0x5E2 JUMPI PUSH1 0x0 DUP1 REVERT JUMPDEST POP PUSH2 0x2EF PUSH2 0x5F1 CALLDATASIZE PUSH1 0x4 PUSH2 0x3593 JUMP JUMPDEST PUSH1 0x1 PUSH1 0x1 PUSH1 0xA0 SHL SUB AND PUSH1 0x0 SWAP1 DUP2 MSTORE PUSH1 0x5 PUSH1 0x20 MSTORE PUSH1 0x40 SWAP1 KECCAK256 SLOAD SWAP1 JUMP JUMPDEST CALLVALUE DUP1 ISZERO PUSH2 0x618 JUMPI PUSH1 0x0 DUP1 REVERT JUMPDEST POP PUSH2 0x24A PUSH2 0x627 CALLDATASIZE PUSH1 0x4 PUSH2 0x3593 JUMP JUMPDEST PUSH2 0x2641 JUMP JUMPDEST CALLVALUE DUP1 ISZERO PUSH2 0x638 JUMPI PUSH1 0x0 DUP1 REVERT JUMPDEST POP PUSH2 0x670 PUSH2 0x647 CALLDATASIZE PUSH1 0x4 PUSH2 0x3593 JUMP JUMPDEST PUSH1 0x1 PUSH1 0x1 PUSH1 0xA0 SHL SUB AND PUSH1 0x0 SWAP1 DUP2 MSTORE PUSH1 0x4 PUSH1 0x20 MSTORE PUSH1 0x40 SWAP1 KECCAK256 SLOAD PUSH2 0x100 SWAP1 DIV PUSH1 0x1 PUSH1 0x1 PUSH1 0x58 SHL SUB AND SWAP1 JUMP JUMPDEST PUSH1 0x40 MLOAD PUSH1 0x1 PUSH1 0x1 PUSH1 0x58 SHL SUB SWAP1 SWAP2 AND DUP2 MSTORE PUSH1 0x20 ADD PUSH2 0x2A0 JUMP JUMPDEST CALLVALUE DUP1 ISZERO PUSH2 0x694 JUMPI PUSH1 0x0 DUP1 REVERT JUMPDEST POP PUSH2 0x24A PUSH2 0x6A3 CALLDATASIZE PUSH1 0x4 PUSH2 0x3633 JUMP JUMPDEST PUSH2 0x2702 JUMP JUMPDEST CALLVALUE DUP1 ISZERO PUSH2 0x6B4 JUMPI PUSH1 0x0 DUP1 REVERT JUMPDEST POP PUSH2 0x24A PUSH2 0x6C3 CALLDATASIZE PUSH1 0x4 PUSH2 0x3593 JUMP JUMPDEST PUSH2 0x27CC JUMP JUMPDEST CALLVALUE DUP1 ISZERO PUSH2 0x6D4 JUMPI PUSH1 0x0 DUP1 REVERT JUMPDEST POP PUSH2 0x2EF PUSH2 0x6E3 CALLDATASIZE PUSH1 0x4 PUSH2 0x35B6 JUMP JUMPDEST PUSH2 0x284B JUMP JUMPDEST CALLVALUE DUP1 ISZERO PUSH2 0x6F4 JUMPI PUSH1 0x0 DUP1 REVERT JUMPDEST POP PUSH1 0x7 SLOAD PUSH1 0x1 PUSH1 0x1 PUSH1 0xA0 SHL SUB AND PUSH2 0x28C JUMP JUMPDEST CALLVALUE DUP1 ISZERO PUSH2 0x712 JUMPI PUSH1 0x0 DUP1 REVERT JUMPDEST POP PUSH1 0x3 SLOAD PUSH1 0x1 PUSH1 0x1 PUSH1 0xA0 SHL SUB AND PUSH2 0x28C JUMP JUMPDEST CALLVALUE DUP1 ISZERO PUSH2 0x730 JUMPI PUSH1 0x0 DUP1 REVERT JUMPDEST POP PUSH2 0x24A PUSH2 0x73F CALLDATASIZE PUSH1 0x4 PUSH2 0x3765 JUMP JUMPDEST PUSH2 0x287C JUMP JUMPDEST CALLVALUE DUP1 ISZERO PUSH2 0x750 JUMPI PUSH1 0x0 DUP1 REVERT JUMPDEST POP PUSH2 0x24A PUSH2 0x75F CALLDATASIZE PUSH1 0x4 PUSH2 0x3862 JUMP JUMPDEST PUSH2 0x295A JUMP JUMPDEST CALLVALUE DUP1 ISZERO PUSH2 0x770 JUMPI PUSH1 0x0 DUP1 REVERT JUMPDEST POP PUSH1 0x2 SLOAD PUSH1 0x1 PUSH1 0xA0 SHL SWAP1 DIV PUSH1 0x1 PUSH1 0x1 PUSH1 0x60 SHL SUB AND JUMPDEST PUSH1 0x40 MLOAD PUSH1 0x1 PUSH1 0x1 PUSH1 0x60 SHL SUB SWAP1 SWAP2 AND DUP2 MSTORE PUSH1 0x20 ADD PUSH2 0x2A0 JUMP JUMPDEST PUSH2 0x24A PUSH2 0x7AB CALLDATASIZE PUSH1 0x4 PUSH2 0x3660 JUMP JUMPDEST PUSH2 0x2A6C JUMP JUMPDEST CALLVALUE DUP1 ISZERO PUSH2 0x7BC JUMPI PUSH1 0x0 DUP1 REVERT JUMPDEST POP PUSH2 0x2EF PUSH2 0x7CB CALLDATASIZE PUSH1 0x4 PUSH2 0x368B JUMP JUMPDEST PUSH2 0x2E24 JUMP JUMPDEST CALLVALUE DUP1 ISZERO PUSH2 0x7DC JUMPI PUSH1 0x0 DUP1 REVERT JUMPDEST POP PUSH1 0x3 SLOAD PUSH1 0x1 PUSH1 0xA0 SHL SWAP1 DIV PUSH1 0x1 PUSH1 0x1 PUSH1 0x60 SHL SUB AND PUSH2 0x785 JUMP JUMPDEST CALLVALUE DUP1 ISZERO PUSH2 0x801 JUMPI PUSH1 0x0 DUP1 REVERT JUMPDEST POP PUSH2 0x24A PUSH2 0x810 CALLDATASIZE PUSH1 0x4 PUSH2 0x35B6 JUMP JUMPDEST PUSH2 0x2F69 JUMP JUMPDEST PUSH1 0x1 SLOAD PUSH1 0x40 MLOAD PUSH4 0x91E1472B PUSH1 0xE0 SHL DUP2 MSTORE PUSH1 0x1 PUSH1 0x1 PUSH1 0xA0 SHL SUB SWAP1 SWAP2 AND SWAP1 PUSH4 0x91E1472B SWAP1 PUSH2 0x848 SWAP1 CALLER SWAP1 PUSH1 0x0 SWAP1 PUSH1 0x4 ADD PUSH2 0x3A30 JUMP JUMPDEST PUSH1 0x20 PUSH1 0x40 MLOAD DUP1 DUP4 SUB DUP2 DUP7 DUP1 EXTCODESIZE ISZERO DUP1 ISZERO PUSH2 0x860 JUMPI PUSH1 0x0 DUP1 REVERT JUMPDEST POP GAS STATICCALL ISZERO DUP1 ISZERO PUSH2 0x874 JUMPI RETURNDATASIZE PUSH1 0x0 DUP1 RETURNDATACOPY RETURNDATASIZE PUSH1 0x0 REVERT JUMPDEST POP POP POP POP PUSH1 0x40 MLOAD RETURNDATASIZE PUSH1 0x1F NOT PUSH1 0x1F DUP3 ADD AND DUP3 ADD DUP1 PUSH1 0x40 MSTORE POP DUP2 ADD SWAP1 PUSH2 0x898 SWAP2 SWAP1 PUSH2 0x3846 JUMP JUMPDEST PUSH2 0x8BD JUMPI PUSH1 0x40 MLOAD PUSH3 0x461BCD PUSH1 0xE5 SHL DUP2 MSTORE PUSH1 0x4 ADD PUSH2 0x8B4 SWAP1 PUSH2 0x3B2A JUMP JUMPDEST PUSH1 0x40 MLOAD DUP1 SWAP2 SUB SWAP1 REVERT JUMPDEST PUSH1 0x1 PUSH1 0x1 PUSH1 0x60 SHL SUB SWAP3 DUP4 AND PUSH1 0x1 PUSH1 0xA0 SHL SWAP1 DUP2 MUL PUSH1 0x1 PUSH1 0x1 PUSH1 0xA0 SHL SUB SWAP6 DUP7 AND OR PUSH1 0x2 SSTORE SWAP3 AND SWAP1 SWAP2 MUL SWAP2 AND OR PUSH1 0x3 SSTORE JUMP JUMPDEST PUSH1 0x1 SLOAD PUSH1 0x1 PUSH1 0x1 PUSH1 0xA0 SHL SUB AND CALLER DUP2 EQ DUP1 PUSH2 0x980 JUMPI POP PUSH1 0x40 MLOAD PUSH4 0x91E1472B PUSH1 0xE0 SHL DUP2 MSTORE PUSH1 0x1 PUSH1 0x1 PUSH1 0xA0 SHL SUB DUP3 AND SWAP1 PUSH4 0x91E1472B SWAP1 PUSH2 0x930 SWAP1 CALLER SWAP1 PUSH1 0x0 SWAP1 PUSH1 0x4 ADD PUSH2 0x3A30 JUMP JUMPDEST PUSH1 0x20 PUSH1 0x40 MLOAD DUP1 DUP4 SUB DUP2 DUP7 DUP1 EXTCODESIZE ISZERO DUP1 ISZERO PUSH2 0x948 JUMPI PUSH1 0x0 DUP1 REVERT JUMPDEST POP GAS STATICCALL ISZERO DUP1 ISZERO PUSH2 0x95C JUMPI RETURNDATASIZE PUSH1 0x0 DUP1 RETURNDATACOPY RETURNDATASIZE PUSH1 0x0 REVERT JUMPDEST POP POP POP POP PUSH1 0x40 MLOAD RETURNDATASIZE PUSH1 0x1F NOT PUSH1 0x1F DUP3 ADD AND DUP3 ADD DUP1 PUSH1 0x40 MSTORE POP DUP2 ADD SWAP1 PUSH2 0x980 SWAP2 SWAP1 PUSH2 0x3846 JUMP JUMPDEST PUSH2 0x99C JUMPI PUSH1 0x40 MLOAD PUSH3 0x461BCD PUSH1 0xE5 SHL DUP2 MSTORE PUSH1 0x4 ADD PUSH2 0x8B4 SWAP1 PUSH2 0x3B2A JUMP JUMPDEST POP PUSH1 0x1 DUP1 SLOAD PUSH1 0x1 PUSH1 0x1 PUSH1 0xA0 SHL SUB NOT AND PUSH1 0x1 PUSH1 0x1 PUSH1 0xA0 SHL SUB SWAP3 SWAP1 SWAP3 AND SWAP2 SWAP1 SWAP2 OR SWAP1 SSTORE JUMP JUMPDEST PUSH1 0x3 SLOAD PUSH1 0x1 PUSH1 0xA0 SHL SWAP1 DIV PUSH1 0x1 PUSH1 0x1 PUSH1 0x60 SHL SUB AND PUSH2 0x9EE JUMPI PUSH1 0x40 MLOAD PUSH3 0x461BCD PUSH1 0xE5 SHL DUP2 MSTORE PUSH1 0x4 ADD PUSH2 0x8B4 SWAP1 PUSH2 0x3B90 JUMP JUMPDEST PUSH1 0x0 SLOAD ISZERO PUSH2 0xA0E JUMPI PUSH1 0x40 MLOAD PUSH3 0x461BCD PUSH1 0xE5 SHL DUP2 MSTORE PUSH1 0x4 ADD PUSH2 0x8B4 SWAP1 PUSH2 0x3ABC JUMP JUMPDEST PUSH1 0x1 PUSH1 0x0 SWAP1 DUP2 SSTORE PUSH1 0x1 PUSH1 0x1 PUSH1 0xA0 SHL SUB DUP6 AND DUP2 MSTORE PUSH1 0x4 PUSH1 0x20 SWAP1 DUP2 MSTORE PUSH1 0x40 SWAP2 DUP3 SWAP1 KECCAK256 DUP3 MLOAD PUSH1 0xA0 DUP2 ADD DUP5 MSTORE SWAP1 SLOAD PUSH1 0xFF DUP2 AND ISZERO ISZERO DUP1 DUP4 MSTORE PUSH1 0x1 PUSH1 0x1 PUSH1 0x58 SHL SUB PUSH2 0x100 DUP4 DIV AND SWAP4 DUP4 ADD SWAP4 SWAP1 SWAP4 MSTORE PUSH1 0x1 PUSH1 0x1 PUSH1 0x50 SHL SUB PUSH1 0x1 PUSH1 0x60 SHL DUP3 DIV AND SWAP4 DUP3 ADD SWAP4 SWAP1 SWAP4 MSTORE PUSH5 0xFFFFFFFFFF PUSH1 0x1 PUSH1 0xB0 SHL DUP5 DIV DUP2 AND PUSH1 0x60 DUP4 ADD MSTORE PUSH1 0x1 PUSH1 0xD8 SHL SWAP1 SWAP4 DIV SWAP1 SWAP3 AND PUSH1 0x80 DUP4 ADD MSTORE PUSH2 0xAAD JUMPI PUSH1 0x40 MLOAD PUSH3 0x461BCD PUSH1 0xE5 SHL DUP2 MSTORE PUSH1 0x4 ADD PUSH2 0x8B4 SWAP1 PUSH2 0x3B59 JUMP JUMPDEST PUSH1 0x1 PUSH1 0x1 PUSH1 0xA0 SHL SUB DUP1 DUP7 AND PUSH1 0x0 SWAP1 DUP2 MSTORE PUSH1 0x5 PUSH1 0x20 SWAP1 DUP2 MSTORE PUSH1 0x40 DUP1 DUP4 KECCAK256 SWAP4 DUP9 AND DUP4 MSTORE PUSH1 0x1 DUP5 ADD SWAP1 SWAP2 MSTORE SWAP1 KECCAK256 SLOAD DUP1 PUSH2 0xAF5 JUMPI PUSH1 0x40 MLOAD PUSH3 0x461BCD PUSH1 0xE5 SHL DUP2 MSTORE PUSH1 0x4 ADD PUSH2 0x8B4 SWAP1 PUSH2 0x3AF3 JUMP JUMPDEST PUSH1 0x0 DUP3 PUSH2 0xB03 PUSH1 0x1 DUP5 PUSH2 0x3CFF JUMP JUMPDEST DUP2 SLOAD DUP2 LT PUSH2 0xB21 JUMPI PUSH4 0x4E487B71 PUSH1 0xE0 SHL PUSH1 0x0 MSTORE PUSH1 0x32 PUSH1 0x4 MSTORE PUSH1 0x24 PUSH1 0x0 REVERT JUMPDEST PUSH1 0x0 SWAP2 DUP3 MSTORE PUSH1 0x20 SWAP1 SWAP2 KECCAK256 PUSH1 0x3 SWAP1 SWAP2 MUL ADD PUSH1 0x1 DUP2 ADD SLOAD DUP2 SLOAD SWAP2 SWAP3 POP SWAP1 DUP8 ISZERO DUP1 ISZERO SWAP1 PUSH2 0xB4B JUMPI POP DUP1 DUP9 GT ISZERO JUMPDEST PUSH2 0xB67 JUMPI PUSH1 0x40 MLOAD PUSH3 0x461BCD PUSH1 0xE5 SHL DUP2 MSTORE PUSH1 0x4 ADD PUSH2 0x8B4 SWAP1 PUSH2 0x3A85 JUMP JUMPDEST PUSH1 0x0 DUP1 PUSH2 0xB74 DUP13 CALLVALUE PUSH2 0x3039 JUMP JUMPDEST PUSH1 0x40 DUP1 MLOAD PUSH1 0x80 DUP2 ADD DUP3 MSTORE DUP9 SLOAD DUP2 MSTORE PUSH1 0x1 DUP10 ADD SLOAD PUSH1 0x20 DUP3 ADD MSTORE PUSH1 0x2 DUP10 ADD SLOAD PUSH1 0x1 PUSH1 0x1 PUSH1 0xA0 SHL SUB DUP2 AND DUP3 DUP5 ADD MSTORE PUSH1 0x1 PUSH1 0xA0 SHL SWAP1 DIV PUSH1 0x1 PUSH1 0x1 PUSH1 0x58 SHL SUB AND PUSH1 0x60 DUP1 DUP4 ADD SWAP2 SWAP1 SWAP2 MSTORE SWAP2 DUP13 ADD MLOAD SWAP2 DUP13 ADD MLOAD SWAP4 SWAP6 POP SWAP2 SWAP4 POP PUSH2 0xBD3 SWAP3 DUP6 SWAP2 DUP6 SWAP2 PUSH2 0x295A JUMP JUMPDEST PUSH1 0x0 PUSH1 0x8 SLOAD DUP4 PUSH2 0xBE3 SWAP2 SWAP1 PUSH2 0x3CE0 JUMP JUMPDEST PUSH1 0x80 DUP11 ADD MLOAD PUSH5 0xFFFFFFFFFF AND PUSH2 0xBF9 DUP5 DUP15 PUSH2 0x3CE0 JUMP JUMPDEST PUSH2 0xC03 SWAP2 SWAP1 PUSH2 0x3CE0 JUMP JUMPDEST PUSH2 0xC0D SWAP2 SWAP1 PUSH2 0x3BD5 JUMP JUMPDEST SWAP1 POP DUP10 DUP2 GT ISZERO PUSH2 0xC6B JUMPI PUSH1 0x40 MLOAD PUSH3 0x461BCD PUSH1 0xE5 SHL DUP2 MSTORE PUSH1 0x20 PUSH1 0x4 DUP3 ADD MSTORE PUSH1 0x23 PUSH1 0x24 DUP3 ADD MSTORE PUSH32 0x4C6F673A4D6F727467616765506F6F6C3A2170546F6B656E416D6F756E744C69 PUSH1 0x44 DUP3 ADD MSTORE PUSH3 0x1B5A5D PUSH1 0xEA SHL PUSH1 0x64 DUP3 ADD MSTORE PUSH1 0x84 ADD PUSH2 0x8B4 JUMP JUMPDEST PUSH1 0x2 SLOAD PUSH1 0x7 SLOAD PUSH2 0xC8A SWAP2 PUSH1 0x1 PUSH1 0x1 PUSH1 0xA0 SHL SUB SWAP1 DUP2 AND SWAP2 CALLER SWAP2 AND DUP5 PUSH2 0x30D8 JUMP JUMPDEST PUSH1 0x0 DUP5 PUSH2 0xC97 DUP14 DUP9 PUSH2 0x3CE0 JUMP JUMPDEST PUSH2 0xCA1 SWAP2 SWAP1 PUSH2 0x3BD5 JUMP JUMPDEST PUSH1 0x7 SLOAD PUSH1 0x40 MLOAD PUSH3 0x45B14B PUSH1 0xE7 SHL DUP2 MSTORE PUSH1 0x4 DUP2 ADD DUP4 SWAP1 MSTORE SWAP2 SWAP3 POP PUSH1 0x1 PUSH1 0x1 PUSH1 0xA0 SHL SUB AND SWAP1 PUSH4 0x22D8A580 SWAP1 PUSH1 0x24 ADD PUSH1 0x0 PUSH1 0x40 MLOAD DUP1 DUP4 SUB DUP2 PUSH1 0x0 DUP8 DUP1 EXTCODESIZE ISZERO DUP1 ISZERO PUSH2 0xCE7 JUMPI PUSH1 0x0 DUP1 REVERT JUMPDEST POP GAS CALL ISZERO DUP1 ISZERO PUSH2 0xCFB JUMPI RETURNDATASIZE PUSH1 0x0 DUP1 RETURNDATACOPY RETURNDATASIZE PUSH1 0x0 REVERT JUMPDEST POP POP POP POP DUP12 DUP6 PUSH2 0xD0B SWAP2 SWAP1 PUSH2 0x3CFF JUMP JUMPDEST DUP8 SSTORE PUSH2 0xD17 DUP2 DUP8 PUSH2 0x3CFF JUMP JUMPDEST DUP8 PUSH1 0x1 ADD DUP2 SWAP1 SSTORE POP PUSH1 0x0 DUP1 MLOAD PUSH1 0x20 PUSH2 0x3D53 DUP4 CODECOPY DUP2 MLOAD SWAP2 MSTORE DUP15 DUP9 PUSH1 0x0 ADD SLOAD DUP10 PUSH1 0x1 ADD SLOAD DUP8 DUP8 DUP13 PUSH1 0x2 ADD PUSH1 0x14 SWAP1 SLOAD SWAP1 PUSH2 0x100 EXP SWAP1 DIV PUSH1 0x1 PUSH1 0x1 PUSH1 0x58 SHL SUB AND PUSH1 0x40 MLOAD PUSH2 0xD65 SWAP7 SWAP6 SWAP5 SWAP4 SWAP3 SWAP2 SWAP1 PUSH2 0x3A49 JUMP JUMPDEST PUSH1 0x40 MLOAD DUP1 SWAP2 SUB SWAP1 LOG1 DUP7 SLOAD PUSH2 0xD8D JUMPI PUSH1 0x0 PUSH1 0x1 DUP9 ADD SSTORE PUSH1 0x2 DUP8 ADD DUP1 SLOAD PUSH1 0x1 PUSH1 0x1 PUSH1 0xF8 SHL SUB NOT AND SWAP1 SSTORE JUMPDEST PUSH1 0x1 PUSH1 0x1 PUSH1 0xA0 SHL SUB DUP15 AND ISZERO PUSH2 0xDAC JUMPI PUSH2 0xDA7 DUP15 CALLER DUP15 PUSH2 0x3208 JUMP JUMPDEST PUSH2 0xDB6 JUMP JUMPDEST PUSH2 0xDB6 CALLER DUP14 PUSH2 0x3325 JUMP JUMPDEST POP POP PUSH1 0x0 DUP1 SSTORE POP POP POP POP POP POP POP POP POP POP POP POP JUMP JUMPDEST PUSH1 0x1 PUSH1 0x1 PUSH1 0xA0 SHL SUB DUP1 DUP4 AND PUSH1 0x0 SWAP1 DUP2 MSTORE PUSH1 0x5 PUSH1 0x20 SWAP1 DUP2 MSTORE PUSH1 0x40 DUP1 DUP4 KECCAK256 SWAP4 DUP6 AND DUP4 MSTORE PUSH1 0x1 DUP1 DUP6 ADD SWAP1 SWAP3 MSTORE DUP3 KECCAK256 SLOAD SWAP2 SWAP3 DUP4 SWAP3 DUP4 SWAP3 DUP4 SWAP3 DUP4 SWAP3 SWAP1 SWAP2 DUP4 SWAP2 DUP4 SWAP2 PUSH2 0xE0F SWAP2 PUSH2 0x3CFF JUMP JUMPDEST DUP2 SLOAD DUP2 LT PUSH2 0xE2D JUMPI PUSH4 0x4E487B71 PUSH1 0xE0 SHL PUSH1 0x0 MSTORE PUSH1 0x32 PUSH1 0x4 MSTORE PUSH1 0x24 PUSH1 0x0 REVERT JUMPDEST PUSH1 0x0 SWAP2 DUP3 MSTORE PUSH1 0x20 SWAP2 DUP3 SWAP1 KECCAK256 PUSH1 0x40 DUP1 MLOAD PUSH1 0x80 DUP2 ADD DUP3 MSTORE PUSH1 0x3 SWAP4 SWAP1 SWAP4 MUL SWAP1 SWAP2 ADD DUP1 SLOAD DUP1 DUP5 MSTORE PUSH1 0x1 DUP1 DUP4 ADD SLOAD SWAP6 DUP6 ADD DUP7 SWAP1 MSTORE PUSH1 0x2 SWAP1 SWAP3 ADD SLOAD PUSH1 0x1 PUSH1 0x1 PUSH1 0xA0 SHL SUB DUP2 AND SWAP4 DUP6 ADD DUP5 SWAP1 MSTORE PUSH1 0x1 PUSH1 0xA0 SHL SWAP1 DIV PUSH1 0x1 PUSH1 0x1 PUSH1 0x58 SHL SUB AND PUSH1 0x60 SWAP1 SWAP5 ADD DUP5 SWAP1 MSTORE SWAP14 SWAP4 SWAP13 POP SWAP1 SWAP11 POP SWAP1 SWAP9 POP SWAP7 POP SWAP5 POP POP POP POP POP JUMP JUMPDEST PUSH1 0x1 SLOAD PUSH1 0x40 MLOAD PUSH4 0x91E1472B PUSH1 0xE0 SHL DUP2 MSTORE PUSH1 0x1 PUSH1 0x1 PUSH1 0xA0 SHL SUB SWAP1 SWAP2 AND SWAP1 PUSH4 0x91E1472B SWAP1 PUSH2 0xED1 SWAP1 CALLER SWAP1 PUSH1 0x0 SWAP1 PUSH1 0x4 ADD PUSH2 0x3A30 JUMP JUMPDEST PUSH1 0x20 PUSH1 0x40 MLOAD DUP1 DUP4 SUB DUP2 DUP7 DUP1 EXTCODESIZE ISZERO DUP1 ISZERO PUSH2 0xEE9 JUMPI PUSH1 0x0 DUP1 REVERT JUMPDEST POP GAS STATICCALL ISZERO DUP1 ISZERO PUSH2 0xEFD JUMPI RETURNDATASIZE PUSH1 0x0 DUP1 RETURNDATACOPY RETURNDATASIZE PUSH1 0x0 REVERT JUMPDEST POP POP POP POP PUSH1 0x40 MLOAD RETURNDATASIZE PUSH1 0x1F NOT PUSH1 0x1F DUP3 ADD AND DUP3 ADD DUP1 PUSH1 0x40 MSTORE POP DUP2 ADD SWAP1 PUSH2 0xF21 SWAP2 SWAP1 PUSH2 0x3846 JUMP JUMPDEST PUSH2 0xF3D JUMPI PUSH1 0x40 MLOAD PUSH3 0x461BCD PUSH1 0xE5 SHL DUP2 MSTORE PUSH1 0x4 ADD PUSH2 0x8B4 SWAP1 PUSH2 0x3B2A JUMP JUMPDEST PUSH1 0x1 PUSH1 0x1 PUSH1 0xA0 SHL SUB SWAP1 SWAP2 AND PUSH1 0x0 SWAP1 DUP2 MSTORE PUSH1 0x4 PUSH1 0x20 MSTORE PUSH1 0x40 SWAP1 KECCAK256 DUP1 SLOAD PUSH1 0x1 PUSH1 0x1 PUSH1 0x50 SHL SUB SWAP1 SWAP3 AND PUSH1 0x1 PUSH1 0x60 SHL MUL PUSH10 0xFFFFFFFFFFFFFFFFFFFF PUSH1 0x60 SHL NOT SWAP1 SWAP3 AND SWAP2 SWAP1 SWAP2 OR SWAP1 SSTORE JUMP JUMPDEST PUSH1 0x1 SLOAD PUSH1 0x40 MLOAD PUSH4 0x91E1472B PUSH1 0xE0 SHL DUP2 MSTORE PUSH1 0x1 PUSH1 0x1 PUSH1 0xA0 SHL SUB SWAP1 SWAP2 AND SWAP1 PUSH4 0x91E1472B SWAP1 PUSH2 0xFB6 SWAP1 CALLER SWAP1 PUSH1 0x0 SWAP1 PUSH1 0x4 ADD PUSH2 0x3A30 JUMP JUMPDEST PUSH1 0x20 PUSH1 0x40 MLOAD DUP1 DUP4 SUB DUP2 DUP7 DUP1 EXTCODESIZE ISZERO DUP1 ISZERO PUSH2 0xFCE JUMPI PUSH1 0x0 DUP1 REVERT JUMPDEST POP GAS STATICCALL ISZERO DUP1 ISZERO PUSH2 0xFE2 JUMPI RETURNDATASIZE PUSH1 0x0 DUP1 RETURNDATACOPY RETURNDATASIZE PUSH1 0x0 REVERT JUMPDEST POP POP POP POP PUSH1 0x40 MLOAD RETURNDATASIZE PUSH1 0x1F NOT PUSH1 0x1F DUP3 ADD AND DUP3 ADD DUP1 PUSH1 0x40 MSTORE POP DUP2 ADD SWAP1 PUSH2 0x1006 SWAP2 SWAP1 PUSH2 0x3846 JUMP JUMPDEST PUSH2 0x1022 JUMPI PUSH1 0x40 MLOAD PUSH3 0x461BCD PUSH1 0xE5 SHL DUP2 MSTORE PUSH1 0x4 ADD PUSH2 0x8B4 SWAP1 PUSH2 0x3B2A JUMP JUMPDEST PUSH1 0x3 DUP1 SLOAD PUSH1 0x1 PUSH1 0x1 PUSH1 0x60 SHL SUB SWAP1 SWAP3 AND PUSH1 0x1 PUSH1 0xA0 SHL MUL PUSH1 0x1 PUSH1 0x1 PUSH1 0xA0 SHL SUB SWAP1 SWAP3 AND SWAP2 SWAP1 SWAP2 OR SWAP1 SSTORE JUMP JUMPDEST PUSH1 0x1 SLOAD PUSH1 0x40 MLOAD PUSH4 0x91E1472B PUSH1 0xE0 SHL DUP2 MSTORE PUSH1 0x1 PUSH1 0x1 PUSH1 0xA0 SHL SUB SWAP1 SWAP2 AND SWAP1 PUSH4 0x91E1472B SWAP1 PUSH2 0x107D SWAP1 CALLER SWAP1 PUSH1 0x0 SWAP1 PUSH1 0x4 ADD PUSH2 0x3A30 JUMP JUMPDEST PUSH1 0x20 PUSH1 0x40 MLOAD DUP1 DUP4 SUB DUP2 DUP7 DUP1 EXTCODESIZE ISZERO DUP1 ISZERO PUSH2 0x1095 JUMPI PUSH1 0x0 DUP1 REVERT JUMPDEST POP GAS STATICCALL ISZERO DUP1 ISZERO PUSH2 0x10A9 JUMPI RETURNDATASIZE PUSH1 0x0 DUP1 RETURNDATACOPY RETURNDATASIZE PUSH1 0x0 REVERT JUMPDEST POP POP POP POP PUSH1 0x40 MLOAD RETURNDATASIZE PUSH1 0x1F NOT PUSH1 0x1F DUP3 ADD AND DUP3 ADD DUP1 PUSH1 0x40 MSTORE POP DUP2 ADD SWAP1 PUSH2 0x10CD SWAP2 SWAP1 PUSH2 0x3846 JUMP JUMPDEST PUSH2 0x10E9 JUMPI PUSH1 0x40 MLOAD PUSH3 0x461BCD PUSH1 0xE5 SHL DUP2 MSTORE PUSH1 0x4 ADD PUSH2 0x8B4 SWAP1 PUSH2 0x3B2A JUMP JUMPDEST PUSH1 0x2 DUP1 SLOAD PUSH1 0x1 PUSH1 0x1 PUSH1 0x60 SHL SUB SWAP1 SWAP3 AND PUSH1 0x1 PUSH1 0xA0 SHL MUL PUSH1 0x1 PUSH1 0x1 PUSH1 0xA0 SHL SUB SWAP1 SWAP3 AND SWAP2 SWAP1 SWAP2 OR SWAP1 SSTORE JUMP JUMPDEST PUSH1 0x3 SLOAD PUSH1 0x1 PUSH1 0x1 PUSH1 0x60 SHL SUB PUSH1 0x1 PUSH1 0xA0 SHL SWAP1 SWAP2 DIV AND PUSH1 0x1 EQ PUSH2 0x116F JUMPI PUSH1 0x40 MLOAD PUSH3 0x461BCD PUSH1 0xE5 SHL DUP2 MSTORE PUSH1 0x20 PUSH1 0x4 DUP3 ADD MSTORE PUSH1 0x18 PUSH1 0x24 DUP3 ADD MSTORE PUSH24 0x4C6F673A4D6F727467616765506F6F6C3A21616374697665 PUSH1 0x40 SHL PUSH1 0x44 DUP3 ADD MSTORE PUSH1 0x64 ADD PUSH2 0x8B4 JUMP JUMPDEST PUSH1 0x0 SLOAD ISZERO PUSH2 0x118F JUMPI PUSH1 0x40 MLOAD PUSH3 0x461BCD PUSH1 0xE5 SHL DUP2 MSTORE PUSH1 0x4 ADD PUSH2 0x8B4 SWAP1 PUSH2 0x3ABC JUMP JUMPDEST PUSH1 0x1 PUSH1 0x0 SWAP1 DUP2 SSTORE PUSH1 0x1 PUSH1 0x1 PUSH1 0xA0 SHL SUB DUP5 AND DUP2 MSTORE PUSH1 0x4 PUSH1 0x20 SWAP1 DUP2 MSTORE PUSH1 0x40 SWAP2 DUP3 SWAP1 KECCAK256 DUP3 MLOAD PUSH1 0xA0 DUP2 ADD DUP5 MSTORE SWAP1 SLOAD PUSH1 0xFF DUP2 AND ISZERO ISZERO DUP1 DUP4 MSTORE PUSH1 0x1 PUSH1 0x1 PUSH1 0x58 SHL SUB PUSH2 0x100 DUP4 DIV AND SWAP4 DUP4 ADD SWAP4 SWAP1 SWAP4 MSTORE PUSH1 0x1 PUSH1 0x1 PUSH1 0x50 SHL SUB PUSH1 0x1 PUSH1 0x60 SHL DUP3 DIV AND SWAP4 DUP3 ADD SWAP4 SWAP1 SWAP4 MSTORE PUSH5 0xFFFFFFFFFF PUSH1 0x1 PUSH1 0xB0 SHL DUP5 DIV DUP2 AND PUSH1 0x60 DUP4 ADD MSTORE PUSH1 0x1 PUSH1 0xD8 SHL SWAP1 SWAP4 DIV SWAP1 SWAP3 AND PUSH1 0x80 DUP4 ADD MSTORE PUSH2 0x122E JUMPI PUSH1 0x40 MLOAD PUSH3 0x461BCD PUSH1 0xE5 SHL DUP2 MSTORE PUSH1 0x4 ADD PUSH2 0x8B4 SWAP1 PUSH2 0x3B59 JUMP JUMPDEST PUSH1 0x0 DUP3 PUSH1 0x1 PUSH1 0x1 PUSH1 0x58 SHL SUB AND GT DUP1 ISZERO PUSH2 0x125D JUMPI POP DUP1 PUSH1 0x20 ADD MLOAD PUSH1 0x1 PUSH1 0x1 PUSH1 0x58 SHL SUB AND DUP3 PUSH1 0x1 PUSH1 0x1 PUSH1 0x58 SHL SUB AND GT ISZERO JUMPDEST PUSH2 0x12A9 JUMPI PUSH1 0x40 MLOAD PUSH3 0x461BCD PUSH1 0xE5 SHL DUP2 MSTORE PUSH1 0x20 PUSH1 0x4 DUP3 ADD MSTORE PUSH1 0x18 PUSH1 0x24 DUP3 ADD MSTORE PUSH32 0x4C6F673A4D6F727467616765506F6F6C3A72617465213D300000000000000000 PUSH1 0x44 DUP3 ADD MSTORE PUSH1 0x64 ADD PUSH2 0x8B4 JUMP JUMPDEST PUSH1 0x0 DUP4 GT PUSH2 0x12F9 JUMPI PUSH1 0x40 MLOAD PUSH3 0x461BCD PUSH1 0xE5 SHL DUP2 MSTORE PUSH1 0x20 PUSH1 0x4 DUP3 ADD MSTORE PUSH1 0x1A PUSH1 0x24 DUP3 ADD MSTORE PUSH32 0x4C6F673A4D6F727467616765506F6F6C3A616D6F756E74213D30000000000000 PUSH1 0x44 DUP3 ADD MSTORE PUSH1 0x64 ADD PUSH2 0x8B4 JUMP JUMPDEST PUSH1 0x1 PUSH1 0x1 PUSH1 0xA0 SHL SUB DUP5 AND PUSH1 0x0 SWAP1 DUP2 MSTORE PUSH1 0x5 PUSH1 0x20 SWAP1 DUP2 MSTORE PUSH1 0x40 DUP1 DUP4 KECCAK256 CALLER DUP5 MSTORE PUSH1 0x1 DUP2 ADD SWAP1 SWAP3 MSTORE SWAP1 SWAP2 KECCAK256 SLOAD DUP1 PUSH2 0x1344 JUMPI DUP2 SLOAD PUSH1 0x1 SWAP1 DUP2 ADD DUP1 DUP5 SSTORE CALLER PUSH1 0x0 SWAP1 DUP2 MSTORE SWAP2 DUP5 ADD PUSH1 0x20 MSTORE PUSH1 0x40 SWAP1 SWAP2 KECCAK256 SSTORE JUMPDEST CALLER PUSH1 0x0 SWAP1 DUP2 MSTORE PUSH1 0x1 DUP1 DUP5 ADD PUSH1 0x20 MSTORE PUSH1 0x40 DUP3 KECCAK256 SLOAD DUP5 SWAP2 PUSH2 0x1362 SWAP2 PUSH2 0x3CFF JUMP JUMPDEST DUP2 SLOAD DUP2 LT PUSH2 0x1380 JUMPI PUSH4 0x4E487B71 PUSH1 0xE0 SHL PUSH1 0x0 MSTORE PUSH1 0x32 PUSH1 0x4 MSTORE PUSH1 0x24 PUSH1 0x0 REVERT JUMPDEST PUSH1 0x0 SWAP2 DUP3 MSTORE PUSH1 0x20 DUP3 KECCAK256 PUSH1 0x1 PUSH1 0x3 SWAP1 SWAP3 MUL ADD SWAP1 DUP2 ADD SLOAD DUP2 SLOAD SWAP2 SWAP4 POP SWAP2 DUP1 PUSH1 0x1 PUSH1 0x1 PUSH1 0xA0 SHL SUB DUP12 AND ISZERO PUSH2 0x13CB JUMPI PUSH2 0x13B7 DUP12 CALLER ADDRESS DUP14 PUSH2 0x30D8 JUMP JUMPDEST PUSH2 0x13C1 DUP12 CALLVALUE PUSH2 0x3039 JUMP JUMPDEST SWAP1 SWAP3 POP SWAP1 POP PUSH2 0x1434 JUMP JUMPDEST DUP10 CALLVALUE LT ISZERO PUSH2 0x141B JUMPI PUSH1 0x40 MLOAD PUSH3 0x461BCD PUSH1 0xE5 SHL DUP2 MSTORE PUSH1 0x20 PUSH1 0x4 DUP3 ADD MSTORE PUSH1 0x1B PUSH1 0x24 DUP3 ADD MSTORE PUSH32 0x4C6F673A4D6F727467616765506F6F6C3A216D73672E76616C75650000000000 PUSH1 0x44 DUP3 ADD MSTORE PUSH1 0x64 ADD PUSH2 0x8B4 JUMP JUMPDEST PUSH2 0x142E DUP12 PUSH2 0x1429 DUP13 CALLVALUE PUSH2 0x3CFF JUMP JUMPDEST PUSH2 0x3039 JUMP JUMPDEST SWAP1 SWAP3 POP SWAP1 POP JUMPDEST PUSH1 0x40 DUP1 MLOAD PUSH1 0x80 DUP2 ADD DUP3 MSTORE DUP7 SLOAD DUP2 MSTORE PUSH1 0x1 DUP8 ADD SLOAD PUSH1 0x20 DUP3 ADD MSTORE PUSH1 0x2 DUP8 ADD SLOAD PUSH1 0x1 PUSH1 0x1 PUSH1 0xA0 SHL SUB DUP2 AND SWAP3 DUP3 ADD SWAP3 SWAP1 SWAP3 MSTORE PUSH1 0x1 PUSH1 0xA0 SHL SWAP1 SWAP2 DIV PUSH1 0x1 PUSH1 0x1 PUSH1 0x58 SHL SUB AND PUSH1 0x60 DUP1 DUP4 ADD SWAP2 SWAP1 SWAP2 MSTORE DUP10 ADD MLOAD PUSH2 0x148D SWAP2 SWAP1 DUP5 SWAP1 DUP5 SWAP1 PUSH2 0x33F3 JUMP JUMPDEST PUSH1 0x0 PUSH1 0x8 SLOAD DUP4 PUSH2 0x149D SWAP2 SWAP1 PUSH2 0x3CE0 JUMP JUMPDEST PUSH1 0x1 PUSH1 0x1 PUSH1 0x58 SHL SUB DUP12 AND PUSH2 0x14B1 DUP5 DUP15 PUSH2 0x3CE0 JUMP JUMPDEST PUSH2 0x14BB SWAP2 SWAP1 PUSH2 0x3CE0 JUMP JUMPDEST PUSH2 0x14C5 SWAP2 SWAP1 PUSH2 0x3BD5 JUMP JUMPDEST PUSH1 0x2 SLOAD PUSH1 0x40 MLOAD PUSH4 0x13B1DB0B PUSH1 0xE3 SHL DUP2 MSTORE PUSH1 0x4 DUP2 ADD DUP4 SWAP1 MSTORE CALLER PUSH1 0x24 DUP3 ADD MSTORE SWAP2 SWAP3 POP PUSH1 0x1 PUSH1 0x1 PUSH1 0xA0 SHL SUB AND SWAP1 PUSH4 0x9D8ED858 SWAP1 PUSH1 0x44 ADD PUSH1 0x0 PUSH1 0x40 MLOAD DUP1 DUP4 SUB DUP2 PUSH1 0x0 DUP8 DUP1 EXTCODESIZE ISZERO DUP1 ISZERO PUSH2 0x1512 JUMPI PUSH1 0x0 DUP1 REVERT JUMPDEST POP GAS CALL ISZERO DUP1 ISZERO PUSH2 0x1526 JUMPI RETURNDATASIZE PUSH1 0x0 DUP1 RETURNDATACOPY RETURNDATASIZE PUSH1 0x0 REVERT JUMPDEST POP POP POP POP DUP11 DUP5 PUSH2 0x1536 SWAP2 SWAP1 PUSH2 0x3BBD JUMP JUMPDEST DUP7 SSTORE PUSH2 0x1542 DUP2 DUP7 PUSH2 0x3BBD JUMP JUMPDEST PUSH1 0x1 DUP8 ADD DUP2 SWAP1 SSTORE PUSH1 0x2 DUP8 ADD DUP1 SLOAD PUSH1 0x1 PUSH1 0x1 PUSH1 0xA0 SHL SUB NOT AND NUMBER PUSH1 0x1 PUSH1 0x1 PUSH1 0xA0 SHL SUB AND OR SWAP1 SSTORE DUP7 SLOAD PUSH2 0x1573 SWAP2 DUP6 DUP6 PUSH2 0x1C5F JUMP JUMPDEST DUP7 PUSH1 0x2 ADD PUSH1 0x14 PUSH2 0x100 EXP DUP2 SLOAD DUP2 PUSH1 0x1 PUSH1 0x1 PUSH1 0x58 SHL SUB MUL NOT AND SWAP1 DUP4 PUSH1 0x1 PUSH1 0x1 PUSH1 0x58 SHL SUB AND MUL OR SWAP1 SSTORE POP PUSH1 0x0 DUP1 MLOAD PUSH1 0x20 PUSH2 0x3D53 DUP4 CODECOPY DUP2 MLOAD SWAP2 MSTORE DUP13 DUP8 PUSH1 0x0 ADD SLOAD DUP9 PUSH1 0x1 ADD SLOAD DUP7 DUP7 DUP12 PUSH1 0x2 ADD PUSH1 0x14 SWAP1 SLOAD SWAP1 PUSH2 0x100 EXP SWAP1 DIV PUSH1 0x1 PUSH1 0x1 PUSH1 0x58 SHL SUB AND PUSH1 0x40 MLOAD PUSH2 0x15E1 SWAP7 SWAP6 SWAP5 SWAP4 SWAP3 SWAP2 SWAP1 PUSH2 0x3A49 JUMP JUMPDEST PUSH1 0x40 MLOAD DUP1 SWAP2 SUB SWAP1 LOG1 POP POP PUSH1 0x0 DUP1 SSTORE POP POP POP POP POP POP POP POP POP POP JUMP JUMPDEST PUSH1 0x0 DUP1 PUSH2 0x1611 PUSH1 0x1 PUSH1 0x1 PUSH1 0xA0 SHL SUB DUP8 AND NUMBER PUSH2 0x3CFF JUMP JUMPDEST DUP4 PUSH5 0xFFFFFFFFFF AND DUP9 PUSH1 0x8 SLOAD DUP8 DUP10 PUSH2 0x1629 SWAP2 SWAP1 PUSH2 0x3BBD JUMP JUMPDEST PUSH2 0x1634 SWAP1 PUSH1 0x2 PUSH2 0x3CE0 JUMP JUMPDEST PUSH2 0x163E SWAP2 SWAP1 PUSH2 0x3BBD JUMP JUMPDEST PUSH2 0x1648 SWAP2 SWAP1 PUSH2 0x3CE0 JUMP JUMPDEST PUSH2 0x1652 SWAP2 SWAP1 PUSH2 0x3CE0 JUMP JUMPDEST PUSH2 0x165C SWAP2 SWAP1 PUSH2 0x3CE0 JUMP JUMPDEST PUSH1 0x2 SLOAD PUSH1 0x8 SLOAD SWAP2 SWAP3 POP PUSH1 0x0 SWAP2 PUSH1 0x1 PUSH1 0xA0 SHL SWAP1 SWAP2 DIV PUSH1 0x1 PUSH1 0x1 PUSH1 0x60 SHL SUB AND SWAP1 PUSH2 0x1684 SWAP1 DUP1 PUSH2 0x3CE0 JUMP JUMPDEST PUSH2 0x168E SWAP2 SWAP1 PUSH2 0x3CE0 JUMP JUMPDEST SWAP1 POP PUSH2 0x169A DUP2 DUP4 PUSH2 0x3BD5 JUMP JUMPDEST SWAP9 SWAP8 POP POP POP POP POP POP POP POP JUMP JUMPDEST PUSH1 0x1 SLOAD PUSH1 0x40 MLOAD PUSH4 0x91E1472B PUSH1 0xE0 SHL DUP2 MSTORE PUSH1 0x1 PUSH1 0x1 PUSH1 0xA0 SHL SUB SWAP1 SWAP2 AND SWAP1 PUSH4 0x91E1472B SWAP1 PUSH2 0x16D9 SWAP1 CALLER SWAP1 PUSH1 0x0 SWAP1 PUSH1 0x4 ADD PUSH2 0x3A30 JUMP JUMPDEST PUSH1 0x20 PUSH1 0x40 MLOAD DUP1 DUP4 SUB DUP2 DUP7 DUP1 EXTCODESIZE ISZERO DUP1 ISZERO PUSH2 0x16F1 JUMPI PUSH1 0x0 DUP1 REVERT JUMPDEST POP GAS STATICCALL ISZERO DUP1 ISZERO PUSH2 0x1705 JUMPI RETURNDATASIZE PUSH1 0x0 DUP1 RETURNDATACOPY RETURNDATASIZE PUSH1 0x0 REVERT JUMPDEST POP POP POP POP PUSH1 0x40 MLOAD RETURNDATASIZE PUSH1 0x1F NOT PUSH1 0x1F DUP3 ADD AND DUP3 ADD DUP1 PUSH1 0x40 MSTORE POP DUP2 ADD SWAP1 PUSH2 0x1729 SWAP2 SWAP1 PUSH2 0x3846 JUMP JUMPDEST PUSH2 0x1745 JUMPI PUSH1 0x40 MLOAD PUSH3 0x461BCD PUSH1 0xE5 SHL DUP2 MSTORE PUSH1 0x4 ADD PUSH2 0x8B4 SWAP1 PUSH2 0x3B2A JUMP JUMPDEST PUSH1 0x6 DUP1 SLOAD PUSH1 0x1 PUSH1 0x1 PUSH1 0xA0 SHL SUB NOT AND PUSH1 0x1 PUSH1 0x1 PUSH1 0xA0 SHL SUB SWAP3 SWAP1 SWAP3 AND SWAP2 SWAP1 SWAP2 OR SWAP1 SSTORE JUMP JUMPDEST PUSH1 0x1 SLOAD PUSH1 0x40 MLOAD PUSH4 0x91E1472B PUSH1 0xE0 SHL DUP2 MSTORE PUSH1 0x1 PUSH1 0x1 PUSH1 0xA0 SHL SUB SWAP1 SWAP2 AND SWAP1 PUSH4 0x91E1472B SWAP1 PUSH2 0x179A SWAP1 CALLER SWAP1 PUSH1 0x0 SWAP1 PUSH1 0x4 ADD PUSH2 0x3A30 JUMP JUMPDEST PUSH1 0x20 PUSH1 0x40 MLOAD DUP1 DUP4 SUB DUP2 DUP7 DUP1 EXTCODESIZE ISZERO DUP1 ISZERO PUSH2 0x17B2 JUMPI PUSH1 0x0 DUP1 REVERT JUMPDEST POP GAS STATICCALL ISZERO DUP1 ISZERO PUSH2 0x17C6 JUMPI RETURNDATASIZE PUSH1 0x0 DUP1 RETURNDATACOPY RETURNDATASIZE PUSH1 0x0 REVERT JUMPDEST POP POP POP POP PUSH1 0x40 MLOAD RETURNDATASIZE PUSH1 0x1F NOT PUSH1 0x1F DUP3 ADD AND DUP3 ADD DUP1 PUSH1 0x40 MSTORE POP DUP2 ADD SWAP1 PUSH2 0x17EA SWAP2 SWAP1 PUSH2 0x3846 JUMP JUMPDEST PUSH2 0x1806 JUMPI PUSH1 0x40 MLOAD PUSH3 0x461BCD PUSH1 0xE5 SHL DUP2 MSTORE PUSH1 0x4 ADD PUSH2 0x8B4 SWAP1 PUSH2 0x3B2A JUMP JUMPDEST PUSH1 0x1 PUSH1 0x1 PUSH1 0xA0 SHL SUB SWAP1 SWAP2 AND PUSH1 0x0 SWAP1 DUP2 MSTORE PUSH1 0x4 PUSH1 0x20 MSTORE PUSH1 0x40 SWAP1 KECCAK256 DUP1 SLOAD PUSH5 0xFFFFFFFFFF SWAP1 SWAP3 AND PUSH1 0x1 PUSH1 0xD8 SHL MUL PUSH1 0x1 PUSH1 0x1 PUSH1 0xD8 SHL SUB SWAP1 SWAP3 AND SWAP2 SWAP1 SWAP2 OR SWAP1 SSTORE JUMP JUMPDEST PUSH1 0x1 SLOAD PUSH1 0x40 MLOAD PUSH4 0x91E1472B PUSH1 0xE0 SHL DUP2 MSTORE PUSH1 0x1 PUSH1 0x1 PUSH1 0xA0 SHL SUB SWAP1 SWAP2 AND SWAP1 PUSH4 0x91E1472B SWAP1 PUSH2 0x1876 SWAP1 CALLER SWAP1 PUSH1 0x0 SWAP1 PUSH1 0x4 ADD PUSH2 0x3A30 JUMP JUMPDEST PUSH1 0x20 PUSH1 0x40 MLOAD DUP1 DUP4 SUB DUP2 DUP7 DUP1 EXTCODESIZE ISZERO DUP1 ISZERO PUSH2 0x188E JUMPI PUSH1 0x0 DUP1 REVERT JUMPDEST POP GAS STATICCALL ISZERO DUP1 ISZERO PUSH2 0x18A2 JUMPI RETURNDATASIZE PUSH1 0x0 DUP1 RETURNDATACOPY RETURNDATASIZE PUSH1 0x0 REVERT JUMPDEST POP POP POP POP PUSH1 0x40 MLOAD RETURNDATASIZE PUSH1 0x1F NOT PUSH1 0x1F DUP3 ADD AND DUP3 ADD DUP1 PUSH1 0x40 MSTORE POP DUP2 ADD SWAP1 PUSH2 0x18C6 SWAP2 SWAP1 PUSH2 0x3846 JUMP JUMPDEST PUSH2 0x18E2 JUMPI PUSH1 0x40 MLOAD PUSH3 0x461BCD PUSH1 0xE5 SHL DUP2 MSTORE PUSH1 0x4 ADD PUSH2 0x8B4 SWAP1 PUSH2 0x3B2A JUMP JUMPDEST PUSH1 0x1 PUSH1 0x1 PUSH1 0xA0 SHL SUB SWAP1 SWAP2 AND PUSH1 0x0 SWAP1 DUP2 MSTORE PUSH1 0x4 PUSH1 0x20 MSTORE PUSH1 0x40 SWAP1 KECCAK256 DUP1 SLOAD PUSH1 0x1 PUSH1 0x1 PUSH1 0x58 SHL SUB SWAP1 SWAP3 AND PUSH2 0x100 MUL PUSH12 0xFFFFFFFFFFFFFFFFFFFFFF00 NOT SWAP1 SWAP3 AND SWAP2 SWAP1 SWAP2 OR SWAP1 SSTORE JUMP JUMPDEST PUSH1 0x3 SLOAD PUSH1 0x1 PUSH1 0xA0 SHL SWAP1 DIV PUSH1 0x1 PUSH1 0x1 PUSH1 0x60 SHL SUB AND PUSH2 0x1954 JUMPI PUSH1 0x40 MLOAD PUSH3 0x461BCD PUSH1 0xE5 SHL DUP2 MSTORE PUSH1 0x4 ADD PUSH2 0x8B4 SWAP1 PUSH2 0x3B90 JUMP JUMPDEST PUSH1 0x0 SLOAD ISZERO PUSH2 0x1974 JUMPI PUSH1 0x40 MLOAD PUSH3 0x461BCD PUSH1 0xE5 SHL DUP2 MSTORE PUSH1 0x4 ADD PUSH2 0x8B4 SWAP1 PUSH2 0x3ABC JUMP JUMPDEST PUSH1 0x1 PUSH1 0x0 SWAP1 DUP2 SSTORE PUSH1 0x1 PUSH1 0x1 PUSH1 0xA0 SHL SUB DUP4 AND DUP2 MSTORE PUSH1 0x4 PUSH1 0x20 SWAP1 DUP2 MSTORE PUSH1 0x40 SWAP2 DUP3 SWAP1 KECCAK256 DUP3 MLOAD PUSH1 0xA0 DUP2 ADD DUP5 MSTORE SWAP1 SLOAD PUSH1 0xFF DUP2 AND ISZERO ISZERO DUP1 DUP4 MSTORE PUSH1 0x1 PUSH1 0x1 PUSH1 0x58 SHL SUB PUSH2 0x100 DUP4 DIV AND SWAP4 DUP4 ADD SWAP4 SWAP1 SWAP4 MSTORE PUSH1 0x1 PUSH1 0x1 PUSH1 0x50 SHL SUB PUSH1 0x1 PUSH1 0x60 SHL DUP3 DIV AND SWAP4 DUP3 ADD SWAP4 SWAP1 SWAP4 MSTORE PUSH5 0xFFFFFFFFFF PUSH1 0x1 PUSH1 0xB0 SHL DUP5 DIV DUP2 AND PUSH1 0x60 DUP4 ADD MSTORE PUSH1 0x1 PUSH1 0xD8 SHL SWAP1 SWAP4 DIV SWAP1 SWAP3 AND PUSH1 0x80 DUP4 ADD MSTORE PUSH2 0x1A13 JUMPI PUSH1 0x40 MLOAD PUSH3 0x461BCD PUSH1 0xE5 SHL DUP2 MSTORE PUSH1 0x4 ADD PUSH2 0x8B4 SWAP1 PUSH2 0x3B59 JUMP JUMPDEST PUSH1 0x1 PUSH1 0x1 PUSH1 0xA0 SHL SUB DUP4 AND PUSH1 0x0 SWAP1 DUP2 MSTORE PUSH1 0x5 PUSH1 0x20 SWAP1 DUP2 MSTORE PUSH1 0x40 DUP1 DUP4 KECCAK256 CALLER DUP5 MSTORE PUSH1 0x1 DUP2 ADD SWAP1 SWAP3 MSTORE SWAP1 SWAP2 KECCAK256 SLOAD DUP1 PUSH2 0x1A59 JUMPI PUSH1 0x40 MLOAD PUSH3 0x461BCD PUSH1 0xE5 SHL DUP2 MSTORE PUSH1 0x4 ADD PUSH2 0x8B4 SWAP1 PUSH2 0x3AF3 JUMP JUMPDEST PUSH1 0x0 DUP3 PUSH2 0x1A67 PUSH1 0x1 DUP5 PUSH2 0x3CFF JUMP JUMPDEST DUP2 SLOAD DUP2 LT PUSH2 0x1A85 JUMPI PUSH4 0x4E487B71 PUSH1 0xE0 SHL PUSH1 0x0 MSTORE PUSH1 0x32 PUSH1 0x4 MSTORE PUSH1 0x24 PUSH1 0x0 REVERT JUMPDEST PUSH1 0x0 SWAP2 DUP3 MSTORE PUSH1 0x20 SWAP1 SWAP2 KECCAK256 PUSH1 0x3 SWAP1 SWAP2 MUL ADD PUSH1 0x1 DUP2 ADD SLOAD DUP2 SLOAD SWAP2 SWAP3 POP SWAP1 DUP7 ISZERO DUP1 ISZERO SWAP1 PUSH2 0x1AAF JUMPI POP DUP2 DUP8 GT ISZERO JUMPDEST PUSH2 0x1ACB JUMPI PUSH1 0x40 MLOAD PUSH3 0x461BCD PUSH1 0xE5 SHL DUP2 MSTORE PUSH1 0x4 ADD PUSH2 0x8B4 SWAP1 PUSH2 0x3A85 JUMP JUMPDEST PUSH1 0x0 DUP1 PUSH2 0x1AD8 DUP11 CALLVALUE PUSH2 0x3039 JUMP JUMPDEST PUSH1 0x40 DUP1 MLOAD PUSH1 0x80 DUP2 ADD DUP3 MSTORE DUP9 SLOAD DUP2 MSTORE PUSH1 0x1 DUP10 ADD SLOAD PUSH1 0x20 DUP3 ADD MSTORE PUSH1 0x2 DUP10 ADD SLOAD PUSH1 0x1 PUSH1 0x1 PUSH1 0xA0 SHL SUB DUP2 AND SWAP3 DUP3 ADD SWAP3 SWAP1 SWAP3 MSTORE PUSH1 0x1 PUSH1 0xA0 SHL SWAP1 SWAP2 DIV PUSH1 0x1 PUSH1 0x1 PUSH1 0x58 SHL SUB AND PUSH1 0x60 DUP1 DUP4 ADD SWAP2 SWAP1 SWAP2 MSTORE DUP12 ADD MLOAD SWAP3 SWAP5 POP SWAP1 SWAP3 POP PUSH2 0x1B36 SWAP2 DUP5 SWAP1 DUP5 SWAP1 PUSH2 0x33F3 JUMP JUMPDEST PUSH2 0x1B40 DUP10 DUP6 PUSH2 0x3CFF JUMP JUMPDEST PUSH1 0x1 DUP7 ADD DUP2 SWAP1 SSTORE PUSH1 0x2 DUP7 ADD DUP1 SLOAD PUSH1 0x1 PUSH1 0x1 PUSH1 0xA0 SHL SUB NOT AND NUMBER PUSH1 0x1 PUSH1 0x1 PUSH1 0xA0 SHL SUB AND OR SWAP1 SSTORE PUSH2 0x1B71 SWAP1 DUP5 SWAP1 DUP5 DUP5 PUSH2 0x1C5F JUMP JUMPDEST DUP6 PUSH1 0x2 ADD PUSH1 0x14 PUSH2 0x100 EXP DUP2 SLOAD DUP2 PUSH1 0x1 PUSH1 0x1 PUSH1 0x58 SHL SUB MUL NOT AND SWAP1 DUP4 PUSH1 0x1 PUSH1 0x1 PUSH1 0x58 SHL SUB AND MUL OR SWAP1 SSTORE POP PUSH1 0x0 DUP1 MLOAD PUSH1 0x20 PUSH2 0x3D53 DUP4 CODECOPY DUP2 MLOAD SWAP2 MSTORE DUP11 DUP7 PUSH1 0x0 ADD SLOAD DUP8 PUSH1 0x1 ADD SLOAD DUP6 DUP6 DUP11 PUSH1 0x2 ADD PUSH1 0x14 SWAP1 SLOAD SWAP1 PUSH2 0x100 EXP SWAP1 DIV PUSH1 0x1 PUSH1 0x1 PUSH1 0x58 SHL SUB AND PUSH1 0x40 MLOAD PUSH2 0x1BDF SWAP7 SWAP6 SWAP5 SWAP4 SWAP3 SWAP2 SWAP1 PUSH2 0x3A49 JUMP JUMPDEST PUSH1 0x40 MLOAD DUP1 SWAP2 SUB SWAP1 LOG1 PUSH1 0x2 SLOAD PUSH2 0x1BFF SWAP1 PUSH1 0x1 PUSH1 0x1 PUSH1 0xA0 SHL SUB AND CALLER ADDRESS DUP13 PUSH2 0x30D8 JUMP JUMPDEST PUSH1 0x2 SLOAD PUSH1 0x40 MLOAD PUSH4 0x46F61ED5 PUSH1 0xE1 SHL DUP2 MSTORE PUSH1 0x4 DUP2 ADD DUP12 SWAP1 MSTORE ADDRESS PUSH1 0x24 DUP3 ADD MSTORE PUSH1 0x1 PUSH1 0x1 PUSH1 0xA0 SHL SUB SWAP1 SWAP2 AND SWAP1 PUSH4 0x8DEC3DAA SWAP1 PUSH1 0x44 ADD PUSH1 0x0 PUSH1 0x40 MLOAD DUP1 DUP4 SUB DUP2 PUSH1 0x0 DUP8 DUP1 EXTCODESIZE ISZERO DUP1 ISZERO PUSH2 0x1C4B JUMPI PUSH1 0x0 DUP1 REVERT JUMPDEST POP GAS CALL ISZERO DUP1 ISZERO PUSH2 0xDB6 JUMPI RETURNDATASIZE PUSH1 0x0 DUP1 RETURNDATACOPY RETURNDATASIZE PUSH1 0x0 REVERT JUMPDEST PUSH1 0x0 DUP5 PUSH2 0x1C6E JUMPI POP PUSH1 0x0 PUSH2 0x1C9C JUMP JUMPDEST PUSH2 0x1C78 DUP6 DUP4 PUSH2 0x3CE0 JUMP JUMPDEST PUSH1 0x8 SLOAD PUSH2 0x1C85 DUP6 DUP8 PUSH2 0x3CE0 JUMP JUMPDEST PUSH2 0x1C8F SWAP2 SWAP1 PUSH2 0x3CE0 JUMP JUMPDEST PUSH2 0x1C99 SWAP2 SWAP1 PUSH2 0x3BD5 JUMP JUMPDEST SWAP1 POP JUMPDEST SWAP5 SWAP4 POP POP POP POP JUMP JUMPDEST PUSH1 0x1 PUSH1 0x1 PUSH1 0xA0 SHL SUB DUP1 DUP7 AND PUSH1 0x0 SWAP1 DUP2 MSTORE PUSH1 0x5 PUSH1 0x20 SWAP1 DUP2 MSTORE PUSH1 0x40 DUP1 DUP4 KECCAK256 SWAP4 DUP6 AND DUP4 MSTORE PUSH1 0x1 DUP1 DUP6 ADD SWAP1 SWAP3 MSTORE DUP3 KECCAK256 SLOAD SWAP2 SWAP3 DUP4 SWAP3 DUP4 SWAP3 DUP4 SWAP3 DUP12 SWAP3 SWAP1 SWAP2 DUP5 SWAP2 DUP4 SWAP2 PUSH2 0x1CE9 SWAP2 PUSH2 0x3CFF JUMP JUMPDEST DUP2 SLOAD DUP2 LT PUSH2 0x1D07 JUMPI PUSH4 0x4E487B71 PUSH1 0xE0 SHL PUSH1 0x0 MSTORE PUSH1 0x32 PUSH1 0x4 MSTORE PUSH1 0x24 PUSH1 0x0 REVERT JUMPDEST PUSH1 0x0 SWAP2 DUP3 MSTORE PUSH1 0x20 SWAP2 DUP3 SWAP1 KECCAK256 PUSH1 0x40 DUP1 MLOAD PUSH1 0x80 DUP2 ADD DUP3 MSTORE PUSH1 0x3 SWAP1 SWAP4 MUL SWAP1 SWAP2 ADD DUP1 SLOAD DUP1 DUP5 MSTORE PUSH1 0x1 DUP3 ADD SLOAD SWAP5 DUP5 ADD SWAP5 SWAP1 SWAP5 MSTORE PUSH1 0x2 ADD SLOAD PUSH1 0x1 PUSH1 0x1 PUSH1 0xA0 SHL SUB DUP2 AND SWAP2 DUP4 ADD SWAP2 SWAP1 SWAP2 MSTORE PUSH1 0x1 PUSH1 0x1 PUSH1 0x58 SHL SUB PUSH1 0x1 PUSH1 0xA0 SHL SWAP1 SWAP2 DIV AND PUSH1 0x60 DUP3 ADD MSTORE SWAP2 POP ISZERO DUP1 ISZERO PUSH2 0x1D71 JUMPI POP PUSH1 0x20 DUP2 ADD MLOAD ISZERO JUMPDEST ISZERO PUSH2 0x1D8C JUMPI PUSH1 0x0 DUP1 PUSH1 0x0 DUP1 SWAP7 POP SWAP7 POP SWAP7 POP SWAP7 POP POP POP POP PUSH2 0x1ED5 JUMP JUMPDEST PUSH1 0x3 SLOAD PUSH1 0x2 SLOAD PUSH1 0x0 SWAP2 PUSH2 0x1DAD SWAP2 PUSH1 0x1 PUSH1 0x1 PUSH1 0xA0 SHL SUB SWAP2 DUP3 AND SWAP2 DUP15 SWAP2 AND PUSH2 0x2E24 JUMP JUMPDEST PUSH1 0x20 DUP4 ADD MLOAD PUSH1 0x40 DUP5 ADD MLOAD PUSH1 0x60 DUP6 ADD MLOAD DUP6 MLOAD SWAP4 SWAP5 POP DUP16 SWAP4 PUSH2 0x1E0B SWAP4 SWAP3 SWAP2 PUSH1 0x1 PUSH1 0x1 PUSH1 0x58 SHL SUB AND SWAP1 PUSH2 0x1DDF SWAP1 DUP5 DUP8 DUP10 PUSH2 0x1C5F JUMP JUMPDEST PUSH1 0x1 PUSH1 0x1 PUSH1 0xA0 SHL SUB DUP11 AND PUSH1 0x0 SWAP1 DUP2 MSTORE PUSH1 0x4 PUSH1 0x20 MSTORE PUSH1 0x40 SWAP1 KECCAK256 SLOAD PUSH1 0x1 PUSH1 0xB0 SHL SWAP1 DIV PUSH5 0xFFFFFFFFFF AND PUSH2 0x15FB JUMP JUMPDEST SWAP9 POP PUSH2 0x1E2C DUP4 PUSH1 0x0 ADD MLOAD DUP11 DUP6 PUSH1 0x20 ADD MLOAD PUSH2 0x1E25 SWAP2 SWAP1 PUSH2 0x3BBD JUMP JUMPDEST DUP4 DUP6 PUSH2 0x1C5F JUMP JUMPDEST SWAP8 POP PUSH1 0x1 PUSH1 0x1 PUSH1 0x58 SHL SUB DUP12 AND DUP1 DUP10 LT PUSH2 0x1E4C JUMPI PUSH1 0x0 SWAP8 POP PUSH1 0x0 SWAP7 POP PUSH2 0x1ECE JUMP JUMPDEST PUSH2 0x1E56 DUP4 DUP3 PUSH2 0x3CE0 JUMP JUMPDEST PUSH1 0x8 SLOAD DUP4 DUP7 PUSH1 0x20 ADD MLOAD PUSH2 0x1E69 SWAP2 SWAP1 PUSH2 0x3CE0 JUMP JUMPDEST PUSH2 0x1E73 SWAP2 SWAP1 PUSH2 0x3CE0 JUMP JUMPDEST PUSH2 0x1E7D SWAP2 SWAP1 PUSH2 0x3BD5 JUMP JUMPDEST DUP5 MLOAD PUSH2 0x1E89 SWAP2 SWAP1 PUSH2 0x3CFF JUMP JUMPDEST SWAP8 POP DUP4 PUSH1 0x20 ADD MLOAD DUP3 PUSH1 0x8 SLOAD PUSH2 0x1E9E SWAP2 SWAP1 PUSH2 0x3CE0 JUMP JUMPDEST DUP6 MLOAD DUP4 SWAP1 PUSH2 0x1EAD SWAP1 DUP8 SWAP1 PUSH2 0x3CE0 JUMP JUMPDEST PUSH2 0x1EB7 SWAP2 SWAP1 PUSH2 0x3CE0 JUMP JUMPDEST PUSH2 0x1EC1 SWAP2 SWAP1 PUSH2 0x3BD5 JUMP JUMPDEST PUSH2 0x1ECB SWAP2 SWAP1 PUSH2 0x3CFF JUMP JUMPDEST SWAP7 POP JUMPDEST POP POP POP POP POP POP JUMPDEST SWAP6 POP SWAP6 POP SWAP6 POP SWAP6 SWAP2 POP POP JUMP JUMPDEST PUSH1 0x3 SLOAD PUSH1 0x1 PUSH1 0x1 PUSH1 0x60 SHL SUB PUSH1 0x1 PUSH1 0xA0 SHL SWAP1 SWAP2 DIV AND PUSH1 0x1 EQ PUSH2 0x1F3F JUMPI PUSH1 0x40 MLOAD PUSH3 0x461BCD PUSH1 0xE5 SHL DUP2 MSTORE PUSH1 0x20 PUSH1 0x4 DUP3 ADD MSTORE PUSH1 0x18 PUSH1 0x24 DUP3 ADD MSTORE PUSH24 0x4C6F673A4D6F727467616765506F6F6C3A21616374697665 PUSH1 0x40 SHL PUSH1 0x44 DUP3 ADD MSTORE PUSH1 0x64 ADD PUSH2 0x8B4 JUMP JUMPDEST PUSH1 0x0 SLOAD ISZERO PUSH2 0x1F5F JUMPI PUSH1 0x40 MLOAD PUSH3 0x461BCD PUSH1 0xE5 SHL DUP2 MSTORE PUSH1 0x4 ADD PUSH2 0x8B4 SWAP1 PUSH2 0x3ABC JUMP JUMPDEST PUSH1 0x1 PUSH1 0x0 SWAP1 DUP2 SSTORE PUSH1 0x1 PUSH1 0x1 PUSH1 0xA0 SHL SUB DUP4 AND DUP2 MSTORE PUSH1 0x4 PUSH1 0x20 SWAP1 DUP2 MSTORE PUSH1 0x40 SWAP2 DUP3 SWAP1 KECCAK256 DUP3 MLOAD PUSH1 0xA0 DUP2 ADD DUP5 MSTORE SWAP1 SLOAD PUSH1 0xFF DUP2 AND ISZERO ISZERO DUP1 DUP4 MSTORE PUSH1 0x1 PUSH1 0x1 PUSH1 0x58 SHL SUB PUSH2 0x100 DUP4 DIV AND SWAP4 DUP4 ADD SWAP4 SWAP1 SWAP4 MSTORE PUSH1 0x1 PUSH1 0x1 PUSH1 0x50 SHL SUB PUSH1 0x1 PUSH1 0x60 SHL DUP3 DIV AND SWAP4 DUP3 ADD SWAP4 SWAP1 SWAP4 MSTORE PUSH5 0xFFFFFFFFFF PUSH1 0x1 PUSH1 0xB0 SHL DUP5 DIV DUP2 AND PUSH1 0x60 DUP4 ADD MSTORE PUSH1 0x1 PUSH1 0xD8 SHL SWAP1 SWAP4 DIV SWAP1 SWAP3 AND PUSH1 0x80 DUP4 ADD MSTORE PUSH2 0x1FFE JUMPI PUSH1 0x40 MLOAD PUSH3 0x461BCD PUSH1 0xE5 SHL DUP2 MSTORE PUSH1 0x4 ADD PUSH2 0x8B4 SWAP1 PUSH2 0x3B59 JUMP JUMPDEST PUSH1 0x0 DUP3 GT PUSH2 0x201E JUMPI PUSH1 0x40 MLOAD PUSH3 0x461BCD PUSH1 0xE5 SHL DUP2 MSTORE PUSH1 0x4 ADD PUSH2 0x8B4 SWAP1 PUSH2 0x3A85 JUMP JUMPDEST PUSH1 0x1 PUSH1 0x1 PUSH1 0xA0 SHL SUB DUP4 AND PUSH1 0x0 SWAP1 DUP2 MSTORE PUSH1 0x5 PUSH1 0x20 SWAP1 DUP2 MSTORE PUSH1 0x40 DUP1 DUP4 KECCAK256 CALLER DUP5 MSTORE PUSH1 0x1 DUP2 ADD SWAP1 SWAP3 MSTORE SWAP1 SWAP2 KECCAK256 SLOAD DUP1 PUSH2 0x2064 JUMPI PUSH1 0x40 MLOAD PUSH3 0x461BCD PUSH1 0xE5 SHL DUP2 MSTORE PUSH1 0x4 ADD PUSH2 0x8B4 SWAP1 PUSH2 0x3AF3 JUMP JUMPDEST PUSH1 0x0 DUP3 PUSH2 0x2072 PUSH1 0x1 DUP5 PUSH2 0x3CFF JUMP JUMPDEST DUP2 SLOAD DUP2 LT PUSH2 0x2090 JUMPI PUSH4 0x4E487B71 PUSH1 0xE0 SHL PUSH1 0x0 MSTORE PUSH1 0x32 PUSH1 0x4 MSTORE PUSH1 0x24 PUSH1 0x0 REVERT JUMPDEST PUSH1 0x0 SWAP2 DUP3 MSTORE PUSH1 0x20 SWAP1 SWAP2 KECCAK256 PUSH1 0x3 SWAP1 SWAP2 MUL ADD PUSH1 0x1 DUP2 ADD SLOAD DUP2 SLOAD SWAP2 SWAP3 POP SWAP1 DUP1 PUSH2 0x20F8 JUMPI PUSH1 0x40 MLOAD PUSH3 0x461BCD PUSH1 0xE5 SHL DUP2 MSTORE PUSH1 0x20 PUSH1 0x4 DUP3 ADD DUP2 SWAP1 MSTORE PUSH1 0x24 DUP3 ADD MSTORE PUSH32 0x4C6F673A4D6F727467616765506F6F6C3A216D6F727467616765417373657473 PUSH1 0x44 DUP3 ADD MSTORE PUSH1 0x64 ADD PUSH2 0x8B4 JUMP JUMPDEST PUSH1 0x0 DUP1 PUSH2 0x2105 DUP11 CALLVALUE PUSH2 0x3039 JUMP JUMPDEST PUSH1 0x40 DUP1 MLOAD PUSH1 0x80 DUP2 ADD DUP3 MSTORE DUP9 SLOAD DUP2 MSTORE PUSH1 0x1 DUP10 ADD SLOAD PUSH1 0x20 DUP3 ADD MSTORE PUSH1 0x2 DUP10 ADD SLOAD PUSH1 0x1 PUSH1 0x1 PUSH1 0xA0 SHL SUB DUP2 AND SWAP3 DUP3 ADD SWAP3 SWAP1 SWAP3 MSTORE PUSH1 0x1 PUSH1 0xA0 SHL SWAP1 SWAP2 DIV PUSH1 0x1 PUSH1 0x1 PUSH1 0x58 SHL SUB AND PUSH1 0x60 DUP1 DUP4 ADD SWAP2 SWAP1 SWAP2 MSTORE DUP12 ADD MLOAD SWAP3 SWAP5 POP SWAP1 SWAP3 POP PUSH2 0x2163 SWAP2 DUP5 SWAP1 DUP5 SWAP1 PUSH2 0x33F3 JUMP JUMPDEST PUSH2 0x216D DUP10 DUP6 PUSH2 0x3BBD JUMP JUMPDEST PUSH1 0x1 DUP7 ADD DUP2 SWAP1 SSTORE PUSH1 0x2 DUP7 ADD DUP1 SLOAD PUSH1 0x1 PUSH1 0x1 PUSH1 0xA0 SHL SUB NOT AND NUMBER PUSH1 0x1 PUSH1 0x1 PUSH1 0xA0 SHL SUB AND OR SWAP1 SSTORE PUSH1 0x0 SWAP1 PUSH2 0x21A1 SWAP1 DUP6 SWAP1 DUP6 DUP6 PUSH2 0x1C5F JUMP JUMPDEST SWAP1 POP DUP9 PUSH1 0x20 ADD MLOAD PUSH1 0x1 PUSH1 0x1 PUSH1 0x58 SHL SUB AND DUP2 GT ISZERO PUSH2 0x21FC JUMPI PUSH1 0x40 MLOAD PUSH3 0x461BCD PUSH1 0xE5 SHL DUP2 MSTORE PUSH1 0x20 PUSH1 0x4 DUP3 ADD MSTORE PUSH1 0x19 PUSH1 0x24 DUP3 ADD MSTORE PUSH25 0x4C6F673A4D6F727467616765506F6F6C3A216D617852617465 PUSH1 0x38 SHL PUSH1 0x44 DUP3 ADD MSTORE PUSH1 0x64 ADD PUSH2 0x8B4 JUMP JUMPDEST DUP1 DUP7 PUSH1 0x2 ADD PUSH1 0x14 PUSH2 0x100 EXP DUP2 SLOAD DUP2 PUSH1 0x1 PUSH1 0x1 PUSH1 0x58 SHL SUB MUL NOT AND SWAP1 DUP4 PUSH1 0x1 PUSH1 0x1 PUSH1 0x58 SHL SUB AND MUL OR SWAP1 SSTORE POP PUSH1 0x0 DUP1 MLOAD PUSH1 0x20 PUSH2 0x3D53 DUP4 CODECOPY DUP2 MLOAD SWAP2 MSTORE DUP12 DUP8 PUSH1 0x0 ADD SLOAD DUP9 PUSH1 0x1 ADD SLOAD DUP7 DUP7 DUP12 PUSH1 0x2 ADD PUSH1 0x14 SWAP1 SLOAD SWAP1 PUSH2 0x100 EXP SWAP1 DIV PUSH1 0x1 PUSH1 0x1 PUSH1 0x58 SHL SUB AND PUSH1 0x40 MLOAD PUSH2 0x226B SWAP7 SWAP6 SWAP5 SWAP4 SWAP3 SWAP2 SWAP1 PUSH2 0x3A49 JUMP JUMPDEST PUSH1 0x40 MLOAD DUP1 SWAP2 SUB SWAP1 LOG1 PUSH1 0x2 SLOAD PUSH1 0x40 MLOAD PUSH4 0x13B1DB0B PUSH1 0xE3 SHL DUP2 MSTORE PUSH1 0x4 DUP2 ADD DUP13 SWAP1 MSTORE CALLER PUSH1 0x24 DUP3 ADD MSTORE PUSH1 0x1 PUSH1 0x1 PUSH1 0xA0 SHL SUB SWAP1 SWAP2 AND SWAP1 PUSH4 0x9D8ED858 SWAP1 PUSH1 0x44 ADD PUSH1 0x0 PUSH1 0x40 MLOAD DUP1 DUP4 SUB DUP2 PUSH1 0x0 DUP8 DUP1 EXTCODESIZE ISZERO DUP1 ISZERO PUSH2 0x22BF JUMPI PUSH1 0x0 DUP1 REVERT JUMPDEST POP GAS CALL ISZERO DUP1 ISZERO PUSH2 0x22D3 JUMPI RETURNDATASIZE PUSH1 0x0 DUP1 RETURNDATACOPY RETURNDATASIZE PUSH1 0x0 REVERT JUMPDEST POP POP PUSH1 0x0 DUP1 SSTORE POP POP POP POP POP POP POP POP POP POP POP POP POP JUMP JUMPDEST PUSH1 0x3 SLOAD PUSH1 0x1 PUSH1 0xA0 SHL SWAP1 DIV PUSH1 0x1 PUSH1 0x1 PUSH1 0x60 SHL SUB AND PUSH2 0x2317 JUMPI PUSH1 0x40 MLOAD PUSH3 0x461BCD PUSH1 0xE5 SHL DUP2 MSTORE PUSH1 0x4 ADD PUSH2 0x8B4 SWAP1 PUSH2 0x3B90 JUMP JUMPDEST PUSH1 0x0 SLOAD ISZERO PUSH2 0x2337 JUMPI PUSH1 0x40 MLOAD PUSH3 0x461BCD PUSH1 0xE5 SHL DUP2 MSTORE PUSH1 0x4 ADD PUSH2 0x8B4 SWAP1 PUSH2 0x3ABC JUMP JUMPDEST PUSH1 0x1 PUSH1 0x0 SWAP1 DUP2 SSTORE PUSH1 0x1 PUSH1 0x1 PUSH1 0xA0 SHL SUB DUP4 AND DUP2 MSTORE PUSH1 0x4 PUSH1 0x20 SWAP1 DUP2 MSTORE PUSH1 0x40 SWAP2 DUP3 SWAP1 KECCAK256 DUP3 MLOAD PUSH1 0xA0 DUP2 ADD DUP5 MSTORE SWAP1 SLOAD PUSH1 0xFF DUP2 AND ISZERO ISZERO DUP1 DUP4 MSTORE PUSH1 0x1 PUSH1 0x1 PUSH1 0x58 SHL SUB PUSH2 0x100 DUP4 DIV AND SWAP4 DUP4 ADD SWAP4 SWAP1 SWAP4 MSTORE PUSH1 0x1 PUSH1 0x1 PUSH1 0x50 SHL SUB PUSH1 0x1 PUSH1 0x60 SHL DUP3 DIV AND SWAP4 DUP3 ADD SWAP4 SWAP1 SWAP4 MSTORE PUSH5 0xFFFFFFFFFF PUSH1 0x1 PUSH1 0xB0 SHL DUP5 DIV DUP2 AND PUSH1 0x60 DUP4 ADD MSTORE PUSH1 0x1 PUSH1 0xD8 SHL SWAP1 SWAP4 DIV SWAP1 SWAP3 AND PUSH1 0x80 DUP4 ADD MSTORE PUSH2 0x23D6 JUMPI PUSH1 0x40 MLOAD PUSH3 0x461BCD PUSH1 0xE5 SHL DUP2 MSTORE PUSH1 0x4 ADD PUSH2 0x8B4 SWAP1 PUSH2 0x3B59 JUMP JUMPDEST PUSH1 0x0 DUP3 GT PUSH2 0x23F6 JUMPI PUSH1 0x40 MLOAD PUSH3 0x461BCD PUSH1 0xE5 SHL DUP2 MSTORE PUSH1 0x4 ADD PUSH2 0x8B4 SWAP1 PUSH2 0x3A85 JUMP JUMPDEST PUSH1 0x1 PUSH1 0x1 PUSH1 0xA0 SHL SUB DUP4 AND PUSH1 0x0 SWAP1 DUP2 MSTORE PUSH1 0x5 PUSH1 0x20 SWAP1 DUP2 MSTORE PUSH1 0x40 DUP1 DUP4 KECCAK256 CALLER DUP5 MSTORE PUSH1 0x1 DUP2 ADD SWAP1 SWAP3 MSTORE SWAP1 SWAP2 KECCAK256 SLOAD DUP1 PUSH2 0x2441 JUMPI DUP2 SLOAD PUSH1 0x1 SWAP1 DUP2 ADD DUP1 DUP5 SSTORE CALLER PUSH1 0x0 SWAP1 DUP2 MSTORE SWAP2 DUP5 ADD PUSH1 0x20 MSTORE PUSH1 0x40 SWAP1 SWAP2 KECCAK256 SSTORE JUMPDEST CALLER PUSH1 0x0 SWAP1 DUP2 MSTORE PUSH1 0x1 DUP1 DUP5 ADD PUSH1 0x20 MSTORE PUSH1 0x40 DUP3 KECCAK256 SLOAD DUP5 SWAP2 PUSH2 0x245F SWAP2 PUSH2 0x3CFF JUMP JUMPDEST DUP2 SLOAD DUP2 LT PUSH2 0x247D JUMPI PUSH4 0x4E487B71 PUSH1 0xE0 SHL PUSH1 0x0 MSTORE PUSH1 0x32 PUSH1 0x4 MSTORE PUSH1 0x24 PUSH1 0x0 REVERT JUMPDEST PUSH1 0x0 SWAP2 DUP3 MSTORE PUSH1 0x20 DUP3 KECCAK256 PUSH1 0x1 PUSH1 0x3 SWAP1 SWAP3 MUL ADD SWAP1 DUP2 ADD SLOAD DUP2 SLOAD SWAP2 SWAP4 POP SWAP2 DUP1 PUSH1 0x1 PUSH1 0x1 PUSH1 0xA0 SHL SUB DUP11 AND ISZERO PUSH2 0x24C8 JUMPI PUSH2 0x24B4 DUP11 CALLER ADDRESS DUP13 PUSH2 0x30D8 JUMP JUMPDEST PUSH2 0x24BE DUP11 CALLVALUE PUSH2 0x3039 JUMP JUMPDEST SWAP1 SWAP3 POP SWAP1 POP PUSH2 0x252C JUMP JUMPDEST DUP9 CALLVALUE LT ISZERO PUSH2 0x2518 JUMPI PUSH1 0x40 MLOAD PUSH3 0x461BCD PUSH1 0xE5 SHL DUP2 MSTORE PUSH1 0x20 PUSH1 0x4 DUP3 ADD MSTORE PUSH1 0x1B PUSH1 0x24 DUP3 ADD MSTORE PUSH32 0x4C6F673A4D6F727467616765506F6F6C3A216D73672E76616C75650000000000 PUSH1 0x44 DUP3 ADD MSTORE PUSH1 0x64 ADD PUSH2 0x8B4 JUMP JUMPDEST PUSH2 0x2526 DUP11 PUSH2 0x1429 DUP12 CALLVALUE PUSH2 0x3CFF JUMP JUMPDEST SWAP1 SWAP3 POP SWAP1 POP JUMPDEST PUSH1 0x40 DUP1 MLOAD PUSH1 0x80 DUP2 ADD DUP3 MSTORE DUP7 SLOAD DUP2 MSTORE PUSH1 0x1 DUP8 ADD SLOAD PUSH1 0x20 DUP3 ADD MSTORE PUSH1 0x2 DUP8 ADD SLOAD PUSH1 0x1 PUSH1 0x1 PUSH1 0xA0 SHL SUB DUP2 AND SWAP3 DUP3 ADD SWAP3 SWAP1 SWAP3 MSTORE PUSH1 0x1 PUSH1 0xA0 SHL SWAP1 SWAP2 DIV PUSH1 0x1 PUSH1 0x1 PUSH1 0x58 SHL SUB AND PUSH1 0x60 DUP1 DUP4 ADD SWAP2 SWAP1 SWAP2 MSTORE DUP10 ADD MLOAD PUSH2 0x2585 SWAP2 SWAP1 DUP5 SWAP1 DUP5 SWAP1 PUSH2 0x33F3 JUMP JUMPDEST PUSH2 0x258F DUP10 DUP5 PUSH2 0x3BBD JUMP JUMPDEST DUP1 DUP7 SSTORE PUSH1 0x2 DUP7 ADD DUP1 SLOAD PUSH1 0x1 PUSH1 0x1 PUSH1 0xA0 SHL SUB NOT AND NUMBER PUSH1 0x1 PUSH1 0x1 PUSH1 0xA0 SHL SUB AND OR SWAP1 SSTORE PUSH2 0x25BB SWAP1 DUP6 DUP5 DUP5 PUSH2 0x1C5F JUMP JUMPDEST DUP6 PUSH1 0x2 ADD PUSH1 0x14 PUSH2 0x100 EXP DUP2 SLOAD DUP2 PUSH1 0x1 PUSH1 0x1 PUSH1 0x58 SHL SUB MUL NOT AND SWAP1 DUP4 PUSH1 0x1 PUSH1 0x1 PUSH1 0x58 SHL SUB AND MUL OR SWAP1 SSTORE POP PUSH1 0x0 DUP1 MLOAD PUSH1 0x20 PUSH2 0x3D53 DUP4 CODECOPY DUP2 MLOAD SWAP2 MSTORE DUP11 DUP7 PUSH1 0x0 ADD SLOAD DUP8 PUSH1 0x1 ADD SLOAD DUP6 DUP6 DUP11 PUSH1 0x2 ADD PUSH1 0x14 SWAP1 SLOAD SWAP1 PUSH2 0x100 EXP SWAP1 DIV PUSH1 0x1 PUSH1 0x1 PUSH1 0x58 SHL SUB AND PUSH1 0x40 MLOAD PUSH2 0x2629 SWAP7 SWAP6 SWAP5 SWAP4 SWAP3 SWAP2 SWAP1 PUSH2 0x3A49 JUMP JUMPDEST PUSH1 0x40 MLOAD DUP1 SWAP2 SUB SWAP1 LOG1 POP POP PUSH1 0x0 DUP1 SSTORE POP POP POP POP POP POP POP POP JUMP JUMPDEST PUSH1 0x1 SLOAD PUSH1 0x40 MLOAD PUSH4 0x91E1472B PUSH1 0xE0 SHL DUP2 MSTORE PUSH1 0x1 PUSH1 0x1 PUSH1 0xA0 SHL SUB SWAP1 SWAP2 AND SWAP1 PUSH4 0x91E1472B SWAP1 PUSH2 0x2674 SWAP1 CALLER SWAP1 PUSH1 0x0 SWAP1 PUSH1 0x4 ADD PUSH2 0x3A30 JUMP JUMPDEST PUSH1 0x20 PUSH1 0x40 MLOAD DUP1 DUP4 SUB DUP2 DUP7 DUP1 EXTCODESIZE ISZERO DUP1 ISZERO PUSH2 0x268C JUMPI PUSH1 0x0 DUP1 REVERT JUMPDEST POP GAS STATICCALL ISZERO DUP1 ISZERO PUSH2 0x26A0 JUMPI RETURNDATASIZE PUSH1 0x0 DUP1 RETURNDATACOPY RETURNDATASIZE PUSH1 0x0 REVERT JUMPDEST POP POP POP POP PUSH1 0x40 MLOAD RETURNDATASIZE PUSH1 0x1F NOT PUSH1 0x1F DUP3 ADD AND DUP3 ADD DUP1 PUSH1 0x40 MSTORE POP DUP2 ADD SWAP1 PUSH2 0x26C4 SWAP2 SWAP1 PUSH2 0x3846 JUMP JUMPDEST PUSH2 0x26E0 JUMPI PUSH1 0x40 MLOAD PUSH3 0x461BCD PUSH1 0xE5 SHL DUP2 MSTORE PUSH1 0x4 ADD PUSH2 0x8B4 SWAP1 PUSH2 0x3B2A JUMP JUMPDEST PUSH1 0x7 DUP1 SLOAD PUSH1 0x1 PUSH1 0x1 PUSH1 0xA0 SHL SUB NOT AND PUSH1 0x1 PUSH1 0x1 PUSH1 0xA0 SHL SUB SWAP3 SWAP1 SWAP3 AND SWAP2 SWAP1 SWAP2 OR SWAP1 SSTORE JUMP JUMPDEST PUSH1 0x1 SLOAD PUSH1 0x40 MLOAD PUSH4 0x91E1472B PUSH1 0xE0 SHL DUP2 MSTORE PUSH1 0x1 PUSH1 0x1 PUSH1 0xA0 SHL SUB SWAP1 SWAP2 AND SWAP1 PUSH4 0x91E1472B SWAP1 PUSH2 0x2735 SWAP1 CALLER SWAP1 PUSH1 0x0 SWAP1 PUSH1 0x4 ADD PUSH2 0x3A30 JUMP JUMPDEST PUSH1 0x20 PUSH1 0x40 MLOAD DUP1 DUP4 SUB DUP2 DUP7 DUP1 EXTCODESIZE ISZERO DUP1 ISZERO PUSH2 0x274D JUMPI PUSH1 0x0 DUP1 REVERT JUMPDEST POP GAS STATICCALL ISZERO DUP1 ISZERO PUSH2 0x2761 JUMPI RETURNDATASIZE PUSH1 0x0 DUP1 RETURNDATACOPY RETURNDATASIZE PUSH1 0x0 REVERT JUMPDEST POP POP POP POP PUSH1 0x40 MLOAD RETURNDATASIZE PUSH1 0x1F NOT PUSH1 0x1F DUP3 ADD AND DUP3 ADD DUP1 PUSH1 0x40 MSTORE POP DUP2 ADD SWAP1 PUSH2 0x2785 SWAP2 SWAP1 PUSH2 0x3846 JUMP JUMPDEST PUSH2 0x27A1 JUMPI PUSH1 0x40 MLOAD PUSH3 0x461BCD PUSH1 0xE5 SHL DUP2 MSTORE PUSH1 0x4 ADD PUSH2 0x8B4 SWAP1 PUSH2 0x3B2A JUMP JUMPDEST PUSH1 0x1 PUSH1 0x1 PUSH1 0xA0 SHL SUB SWAP2 SWAP1 SWAP2 AND PUSH1 0x0 SWAP1 DUP2 MSTORE PUSH1 0x4 PUSH1 0x20 MSTORE PUSH1 0x40 SWAP1 KECCAK256 DUP1 SLOAD PUSH1 0xFF NOT AND SWAP2 ISZERO ISZERO SWAP2 SWAP1 SWAP2 OR SWAP1 SSTORE JUMP JUMPDEST PUSH1 0x1 SLOAD PUSH1 0x1 PUSH1 0x1 PUSH1 0xA0 SHL SUB AND ISZERO PUSH2 0x2825 JUMPI PUSH1 0x40 MLOAD PUSH3 0x461BCD PUSH1 0xE5 SHL DUP2 MSTORE PUSH1 0x20 PUSH1 0x4 DUP3 ADD MSTORE PUSH1 0x1B PUSH1 0x24 DUP3 ADD MSTORE PUSH32 0x4C6F673A50617261737365744261736521696E697469616C697A650000000000 PUSH1 0x44 DUP3 ADD MSTORE PUSH1 0x64 ADD PUSH2 0x8B4 JUMP JUMPDEST PUSH1 0x1 DUP1 SLOAD PUSH1 0x1 PUSH1 0x1 PUSH1 0xA0 SHL SUB NOT AND PUSH1 0x1 PUSH1 0x1 PUSH1 0xA0 SHL SUB SWAP3 SWAP1 SWAP3 AND SWAP2 SWAP1 SWAP2 OR SWAP1 SSTORE PUSH1 0x0 DUP1 SSTORE JUMP JUMPDEST PUSH1 0x1 PUSH1 0x1 PUSH1 0xA0 SHL SUB DUP1 DUP4 AND PUSH1 0x0 SWAP1 DUP2 MSTORE PUSH1 0x5 PUSH1 0x20 SWAP1 DUP2 MSTORE PUSH1 0x40 DUP1 DUP4 KECCAK256 SWAP4 DUP6 AND DUP4 MSTORE PUSH1 0x1 SWAP1 SWAP4 ADD SWAP1 MSTORE KECCAK256 SLOAD JUMPDEST SWAP3 SWAP2 POP POP JUMP JUMPDEST PUSH1 0x1 SLOAD PUSH1 0x40 MLOAD PUSH4 0x91E1472B PUSH1 0xE0 SHL DUP2 MSTORE PUSH1 0x1 PUSH1 0x1 PUSH1 0xA0 SHL SUB SWAP1 SWAP2 AND SWAP1 PUSH4 0x91E1472B SWAP1 PUSH2 0x28AF SWAP1 CALLER SWAP1 PUSH1 0x0 SWAP1 PUSH1 0x4 ADD PUSH2 0x3A30 JUMP JUMPDEST PUSH1 0x20 PUSH1 0x40 MLOAD DUP1 DUP4 SUB DUP2 DUP7 DUP1 EXTCODESIZE ISZERO DUP1 ISZERO PUSH2 0x28C7 JUMPI PUSH1 0x0 DUP1 REVERT JUMPDEST POP GAS STATICCALL ISZERO DUP1 ISZERO PUSH2 0x28DB JUMPI RETURNDATASIZE PUSH1 0x0 DUP1 RETURNDATACOPY RETURNDATASIZE PUSH1 0x0 REVERT JUMPDEST POP POP POP POP PUSH1 0x40 MLOAD RETURNDATASIZE PUSH1 0x1F NOT PUSH1 0x1F DUP3 ADD AND DUP3 ADD DUP1 PUSH1 0x40 MSTORE POP DUP2 ADD SWAP1 PUSH2 0x28FF SWAP2 SWAP1 PUSH2 0x3846 JUMP JUMPDEST PUSH2 0x291B JUMPI PUSH1 0x40 MLOAD PUSH3 0x461BCD PUSH1 0xE5 SHL DUP2 MSTORE PUSH1 0x4 ADD PUSH2 0x8B4 SWAP1 PUSH2 0x3B2A JUMP JUMPDEST PUSH1 0x1 PUSH1 0x1 PUSH1 0xA0 SHL SUB SWAP1 SWAP2 AND PUSH1 0x0 SWAP1 DUP2 MSTORE PUSH1 0x4 PUSH1 0x20 MSTORE PUSH1 0x40 SWAP1 KECCAK256 DUP1 SLOAD PUSH5 0xFFFFFFFFFF SWAP1 SWAP3 AND PUSH1 0x1 PUSH1 0xB0 SHL MUL PUSH5 0xFFFFFFFFFF PUSH1 0xB0 SHL NOT SWAP1 SWAP3 AND SWAP2 SWAP1 SWAP2 OR SWAP1 SSTORE JUMP JUMPDEST PUSH1 0x20 DUP6 ADD MLOAD DUP6 MLOAD PUSH1 0x0 PUSH2 0x296F DUP3 DUP5 DUP10 DUP10 PUSH2 0x1C5F JUMP JUMPDEST PUSH1 0x40 DUP10 ADD MLOAD SWAP1 SWAP2 POP PUSH1 0x0 SWAP1 DUP5 ISZERO DUP1 ISZERO SWAP1 PUSH2 0x2991 JUMPI POP DUP1 PUSH1 0x1 PUSH1 0x1 PUSH1 0xA0 SHL SUB AND NUMBER GT JUMPDEST DUP1 ISZERO PUSH2 0x29A5 JUMPI POP PUSH1 0x1 PUSH1 0x1 PUSH1 0xA0 SHL SUB DUP2 AND ISZERO ISZERO JUMPDEST ISZERO PUSH2 0x29C7 JUMPI PUSH2 0x29C4 DUP6 DUP3 DUP13 PUSH1 0x60 ADD MLOAD PUSH1 0x1 PUSH1 0x1 PUSH1 0x58 SHL SUB AND DUP7 DUP11 PUSH2 0x15FB JUMP JUMPDEST SWAP2 POP JUMPDEST DUP8 PUSH1 0x8 SLOAD DUP6 PUSH2 0x29D6 SWAP2 SWAP1 PUSH2 0x3CE0 JUMP JUMPDEST DUP11 PUSH1 0x1 PUSH1 0x1 PUSH1 0x50 SHL SUB DUP11 AND PUSH2 0x29EB DUP7 DUP11 PUSH2 0x3BBD JUMP JUMPDEST PUSH2 0x29F5 SWAP2 SWAP1 PUSH2 0x3CE0 JUMP JUMPDEST PUSH2 0x29FF SWAP2 SWAP1 PUSH2 0x3CE0 JUMP JUMPDEST PUSH2 0x2A09 SWAP2 SWAP1 PUSH2 0x3BD5 JUMP JUMPDEST GT PUSH2 0x2A60 JUMPI PUSH1 0x40 MLOAD PUSH3 0x461BCD PUSH1 0xE5 SHL DUP2 MSTORE PUSH1 0x20 PUSH1 0x4 DUP3 ADD MSTORE PUSH1 0x21 PUSH1 0x24 DUP3 ADD MSTORE PUSH32 0x4C6F673A4D6F727467616765506F6F6C3A216C69717569646174696F6E4C696E PUSH1 0x44 DUP3 ADD MSTORE PUSH1 0x65 PUSH1 0xF8 SHL PUSH1 0x64 DUP3 ADD MSTORE PUSH1 0x84 ADD PUSH2 0x8B4 JUMP JUMPDEST POP POP POP POP POP POP POP POP POP POP JUMP JUMPDEST PUSH1 0x3 SLOAD PUSH1 0x1 PUSH1 0xA0 SHL SWAP1 DIV PUSH1 0x1 PUSH1 0x1 PUSH1 0x60 SHL SUB AND PUSH2 0x2A9B JUMPI PUSH1 0x40 MLOAD PUSH3 0x461BCD PUSH1 0xE5 SHL DUP2 MSTORE PUSH1 0x4 ADD PUSH2 0x8B4 SWAP1 PUSH2 0x3B90 JUMP JUMPDEST PUSH1 0x0 SLOAD ISZERO PUSH2 0x2ABB JUMPI PUSH1 0x40 MLOAD PUSH3 0x461BCD PUSH1 0xE5 SHL DUP2 MSTORE PUSH1 0x4 ADD PUSH2 0x8B4 SWAP1 PUSH2 0x3ABC JUMP JUMPDEST PUSH1 0x1 PUSH1 0x0 SWAP1 DUP2 SSTORE PUSH1 0x1 PUSH1 0x1 PUSH1 0xA0 SHL SUB DUP4 AND DUP2 MSTORE PUSH1 0x4 PUSH1 0x20 SWAP1 DUP2 MSTORE PUSH1 0x40 SWAP2 DUP3 SWAP1 KECCAK256 DUP3 MLOAD PUSH1 0xA0 DUP2 ADD DUP5 MSTORE SWAP1 SLOAD PUSH1 0xFF DUP2 AND ISZERO ISZERO DUP1 DUP4 MSTORE PUSH1 0x1 PUSH1 0x1 PUSH1 0x58 SHL SUB PUSH2 0x100 DUP4 DIV AND SWAP4 DUP4 ADD SWAP4 SWAP1 SWAP4 MSTORE PUSH1 0x1 PUSH1 0x1 PUSH1 0x50 SHL SUB PUSH1 0x1 PUSH1 0x60 SHL DUP3 DIV AND SWAP4 DUP3 ADD SWAP4 SWAP1 SWAP4 MSTORE PUSH5 0xFFFFFFFFFF PUSH1 0x1 PUSH1 0xB0 SHL DUP5 DIV DUP2 AND PUSH1 0x60 DUP4 ADD MSTORE PUSH1 0x1 PUSH1 0xD8 SHL SWAP1 SWAP4 DIV SWAP1 SWAP3 AND PUSH1 0x80 DUP4 ADD MSTORE PUSH2 0x2B5A JUMPI PUSH1 0x40 MLOAD PUSH3 0x461BCD PUSH1 0xE5 SHL DUP2 MSTORE PUSH1 0x4 ADD PUSH2 0x8B4 SWAP1 PUSH2 0x3B59 JUMP JUMPDEST PUSH1 0x1 PUSH1 0x1 PUSH1 0xA0 SHL SUB DUP4 AND PUSH1 0x0 SWAP1 DUP2 MSTORE PUSH1 0x5 PUSH1 0x20 SWAP1 DUP2 MSTORE PUSH1 0x40 DUP1 DUP4 KECCAK256 CALLER DUP5 MSTORE PUSH1 0x1 DUP2 ADD SWAP1 SWAP3 MSTORE SWAP1 SWAP2 KECCAK256 SLOAD DUP1 PUSH2 0x2BA0 JUMPI PUSH1 0x40 MLOAD PUSH3 0x461BCD PUSH1 0xE5 SHL DUP2 MSTORE PUSH1 0x4 ADD PUSH2 0x8B4 SWAP1 PUSH2 0x3AF3 JUMP JUMPDEST PUSH1 0x0 DUP3 PUSH2 0x2BAE PUSH1 0x1 DUP5 PUSH2 0x3CFF JUMP JUMPDEST DUP2 SLOAD DUP2 LT PUSH2 0x2BCC JUMPI PUSH4 0x4E487B71 PUSH1 0xE0 SHL PUSH1 0x0 MSTORE PUSH1 0x32 PUSH1 0x4 MSTORE PUSH1 0x24 PUSH1 0x0 REVERT JUMPDEST PUSH1 0x0 SWAP2 DUP3 MSTORE PUSH1 0x20 SWAP1 SWAP2 KECCAK256 PUSH1 0x3 SWAP1 SWAP2 MUL ADD PUSH1 0x1 DUP2 ADD SLOAD DUP2 SLOAD SWAP2 SWAP3 POP SWAP1 DUP7 ISZERO DUP1 ISZERO SWAP1 PUSH2 0x2BF6 JUMPI POP DUP1 DUP8 GT ISZERO JUMPDEST PUSH2 0x2C12 JUMPI PUSH1 0x40 MLOAD PUSH3 0x461BCD PUSH1 0xE5 SHL DUP2 MSTORE PUSH1 0x4 ADD PUSH2 0x8B4 SWAP1 PUSH2 0x3A85 JUMP JUMPDEST PUSH1 0x0 DUP1 PUSH2 0x2C1F DUP11 CALLVALUE PUSH2 0x3039 JUMP JUMPDEST PUSH1 0x40 DUP1 MLOAD PUSH1 0x80 DUP2 ADD DUP3 MSTORE DUP9 SLOAD DUP2 MSTORE PUSH1 0x1 DUP10 ADD SLOAD PUSH1 0x20 DUP3 ADD MSTORE PUSH1 0x2 DUP10 ADD SLOAD PUSH1 0x1 PUSH1 0x1 PUSH1 0xA0 SHL SUB DUP2 AND SWAP3 DUP3 ADD SWAP3 SWAP1 SWAP3 MSTORE PUSH1 0x1 PUSH1 0xA0 SHL SWAP1 SWAP2 DIV PUSH1 0x1 PUSH1 0x1 PUSH1 0x58 SHL SUB AND PUSH1 0x60 DUP1 DUP4 ADD SWAP2 SWAP1 SWAP2 MSTORE DUP12 ADD MLOAD SWAP3 SWAP5 POP SWAP1 SWAP3 POP PUSH2 0x2C7D SWAP2 DUP5 SWAP1 DUP5 SWAP1 PUSH2 0x33F3 JUMP JUMPDEST PUSH2 0x2C87 DUP10 DUP5 PUSH2 0x3CFF JUMP JUMPDEST DUP1 DUP7 SSTORE PUSH1 0x2 DUP7 ADD DUP1 SLOAD PUSH1 0x1 PUSH1 0x1 PUSH1 0xA0 SHL SUB NOT AND NUMBER PUSH1 0x1 PUSH1 0x1 PUSH1 0xA0 SHL SUB AND OR SWAP1 SSTORE PUSH2 0x2D02 JUMPI PUSH1 0x1 DUP6 ADD SLOAD ISZERO PUSH2 0x2CFD JUMPI PUSH1 0x40 MLOAD PUSH3 0x461BCD PUSH1 0xE5 SHL DUP2 MSTORE PUSH1 0x20 PUSH1 0x4 DUP3 ADD DUP2 SWAP1 MSTORE PUSH1 0x24 DUP3 ADD MSTORE PUSH32 0x4C6F673A4D6F727467616765506F6F6C3A217061726173736574417373657473 PUSH1 0x44 DUP3 ADD MSTORE PUSH1 0x64 ADD PUSH2 0x8B4 JUMP JUMPDEST PUSH2 0x2DA0 JUMP JUMPDEST PUSH1 0x0 PUSH2 0x2D14 DUP7 PUSH1 0x0 ADD SLOAD DUP7 DUP6 DUP6 PUSH2 0x1C5F JUMP JUMPDEST SWAP1 POP DUP9 PUSH1 0x20 ADD MLOAD PUSH1 0x1 PUSH1 0x1 PUSH1 0x58 SHL SUB AND DUP2 GT ISZERO PUSH2 0x2D6F JUMPI PUSH1 0x40 MLOAD PUSH3 0x461BCD PUSH1 0xE5 SHL DUP2 MSTORE PUSH1 0x20 PUSH1 0x4 DUP3 ADD MSTORE PUSH1 0x19 PUSH1 0x24 DUP3 ADD MSTORE PUSH25 0x4C6F673A4D6F727467616765506F6F6C3A216D617852617465 PUSH1 0x38 SHL PUSH1 0x44 DUP3 ADD MSTORE PUSH1 0x64 ADD PUSH2 0x8B4 JUMP JUMPDEST PUSH1 0x2 DUP7 ADD DUP1 SLOAD PUSH1 0x1 PUSH1 0x1 PUSH1 0x58 SHL SUB SWAP1 SWAP3 AND PUSH1 0x1 PUSH1 0xA0 SHL MUL PUSH11 0xFFFFFFFFFFFFFFFFFFFFFF PUSH1 0xA0 SHL NOT SWAP1 SWAP3 AND SWAP2 SWAP1 SWAP2 OR SWAP1 SSTORE JUMPDEST DUP5 SLOAD PUSH1 0x1 DUP7 ADD SLOAD PUSH1 0x2 DUP8 ADD SLOAD PUSH1 0x40 MLOAD PUSH1 0x0 DUP1 MLOAD PUSH1 0x20 PUSH2 0x3D53 DUP4 CODECOPY DUP2 MLOAD SWAP2 MSTORE SWAP4 PUSH2 0x2DE3 SWAP4 DUP16 SWAP4 SWAP2 SWAP3 SWAP1 SWAP2 DUP9 SWAP2 DUP9 SWAP2 PUSH1 0x1 PUSH1 0xA0 SHL SWAP1 DIV PUSH1 0x1 PUSH1 0x1 PUSH1 0x58 SHL SUB AND SWAP1 PUSH2 0x3A49 JUMP JUMPDEST PUSH1 0x40 MLOAD DUP1 SWAP2 SUB SWAP1 LOG1 PUSH1 0x1 PUSH1 0x1 PUSH1 0xA0 SHL SUB DUP11 AND ISZERO PUSH2 0x2E0A JUMPI PUSH2 0x2E05 DUP11 CALLER DUP12 PUSH2 0x3208 JUMP JUMPDEST PUSH2 0x2E14 JUMP JUMPDEST PUSH2 0x2E14 CALLER DUP11 PUSH2 0x3325 JUMP JUMPDEST POP POP PUSH1 0x0 DUP1 SSTORE POP POP POP POP POP POP POP POP JUMP JUMPDEST PUSH1 0x0 PUSH1 0x12 DUP1 PUSH1 0x1 PUSH1 0x1 PUSH1 0xA0 SHL SUB DUP7 AND ISZERO PUSH2 0x2EAF JUMPI DUP6 PUSH1 0x1 PUSH1 0x1 PUSH1 0xA0 SHL SUB AND PUSH4 0x313CE567 PUSH1 0x40 MLOAD DUP2 PUSH4 0xFFFFFFFF AND PUSH1 0xE0 SHL DUP2 MSTORE PUSH1 0x4 ADD PUSH1 0x20 PUSH1 0x40 MLOAD DUP1 DUP4 SUB DUP2 DUP7 DUP1 EXTCODESIZE ISZERO DUP1 ISZERO PUSH2 0x2E71 JUMPI PUSH1 0x0 DUP1 REVERT JUMPDEST POP GAS STATICCALL ISZERO DUP1 ISZERO PUSH2 0x2E85 JUMPI RETURNDATASIZE PUSH1 0x0 DUP1 RETURNDATACOPY RETURNDATASIZE PUSH1 0x0 REVERT JUMPDEST POP POP POP POP PUSH1 0x40 MLOAD RETURNDATASIZE PUSH1 0x1F NOT PUSH1 0x1F DUP3 ADD AND DUP3 ADD DUP1 PUSH1 0x40 MSTORE POP DUP2 ADD SWAP1 PUSH2 0x2EA9 SWAP2 SWAP1 PUSH2 0x39BC JUMP JUMPDEST PUSH1 0xFF AND SWAP2 POP JUMPDEST PUSH1 0x1 PUSH1 0x1 PUSH1 0xA0 SHL SUB DUP5 AND ISZERO PUSH2 0x2F35 JUMPI DUP4 PUSH1 0x1 PUSH1 0x1 PUSH1 0xA0 SHL SUB AND PUSH4 0x313CE567 PUSH1 0x40 MLOAD DUP2 PUSH4 0xFFFFFFFF AND PUSH1 0xE0 SHL DUP2 MSTORE PUSH1 0x4 ADD PUSH1 0x20 PUSH1 0x40 MLOAD DUP1 DUP4 SUB DUP2 DUP7 DUP1 EXTCODESIZE ISZERO DUP1 ISZERO PUSH2 0x2EF7 JUMPI PUSH1 0x0 DUP1 REVERT JUMPDEST POP GAS STATICCALL ISZERO DUP1 ISZERO PUSH2 0x2F0B JUMPI RETURNDATASIZE PUSH1 0x0 DUP1 RETURNDATACOPY RETURNDATASIZE PUSH1 0x0 REVERT JUMPDEST POP POP POP POP PUSH1 0x40 MLOAD RETURNDATASIZE PUSH1 0x1F NOT PUSH1 0x1F DUP3 ADD AND DUP3 ADD DUP1 PUSH1 0x40 MSTORE POP DUP2 ADD SWAP1 PUSH2 0x2F2F SWAP2 SWAP1 PUSH2 0x39BC JUMP JUMPDEST PUSH1 0xFF AND SWAP1 POP JUMPDEST PUSH2 0x2F40 DUP3 PUSH1 0xA PUSH2 0x3C38 JUMP JUMPDEST PUSH2 0x2F4B DUP3 PUSH1 0xA PUSH2 0x3C38 JUMP JUMPDEST PUSH2 0x2F55 SWAP1 DUP8 PUSH2 0x3CE0 JUMP JUMPDEST PUSH2 0x2F5F SWAP2 SWAP1 PUSH2 0x3BD5 JUMP JUMPDEST SWAP7 SWAP6 POP POP POP POP POP POP JUMP JUMPDEST PUSH1 0x1 SLOAD PUSH1 0x40 MLOAD PUSH4 0x91E1472B PUSH1 0xE0 SHL DUP2 MSTORE PUSH1 0x1 PUSH1 0x1 PUSH1 0xA0 SHL SUB SWAP1 SWAP2 AND SWAP1 PUSH4 0x91E1472B SWAP1 PUSH2 0x2F9C SWAP1 CALLER SWAP1 PUSH1 0x0 SWAP1 PUSH1 0x4 ADD PUSH2 0x3A30 JUMP JUMPDEST PUSH1 0x20 PUSH1 0x40 MLOAD DUP1 DUP4 SUB DUP2 DUP7 DUP1 EXTCODESIZE ISZERO DUP1 ISZERO PUSH2 0x2FB4 JUMPI PUSH1 0x0 DUP1 REVERT JUMPDEST POP GAS STATICCALL ISZERO DUP1 ISZERO PUSH2 0x2FC8 JUMPI RETURNDATASIZE PUSH1 0x0 DUP1 RETURNDATACOPY RETURNDATASIZE PUSH1 0x0 REVERT JUMPDEST POP POP POP POP PUSH1 0x40 MLOAD RETURNDATASIZE PUSH1 0x1F NOT PUSH1 0x1F DUP3 ADD AND DUP3 ADD DUP1 PUSH1 0x40 MSTORE POP DUP2 ADD SWAP1 PUSH2 0x2FEC SWAP2 SWAP1 PUSH2 0x3846 JUMP JUMPDEST PUSH2 0x3008 JUMPI PUSH1 0x40 MLOAD PUSH3 0x461BCD PUSH1 0xE5 SHL DUP2 MSTORE PUSH1 0x4 ADD PUSH2 0x8B4 SWAP1 PUSH2 0x3B2A JUMP JUMPDEST PUSH1 0x2 DUP1 SLOAD PUSH1 0x1 PUSH1 0x1 PUSH1 0xA0 SHL SUB SWAP3 DUP4 AND PUSH1 0x1 PUSH1 0x1 PUSH1 0xA0 SHL SUB NOT SWAP2 DUP3 AND OR SWAP1 SWAP2 SSTORE PUSH1 0x3 DUP1 SLOAD SWAP4 SWAP1 SWAP3 AND SWAP3 AND SWAP2 SWAP1 SWAP2 OR SWAP1 SSTORE JUMP JUMPDEST PUSH1 0x6 SLOAD PUSH1 0x3 SLOAD PUSH1 0x40 MLOAD PUSH4 0xDA33AA9 PUSH1 0xE0 SHL DUP2 MSTORE PUSH1 0x1 PUSH1 0x1 PUSH1 0xA0 SHL SUB DUP6 DUP2 AND PUSH1 0x4 DUP4 ADD MSTORE SWAP2 DUP3 AND PUSH1 0x24 DUP3 ADD MSTORE CALLER PUSH1 0x44 DUP3 ADD MSTORE PUSH1 0x0 SWAP3 DUP4 SWAP3 AND SWAP1 PUSH4 0xDA33AA9 SWAP1 DUP6 SWAP1 PUSH1 0x64 ADD PUSH1 0x40 DUP1 MLOAD DUP1 DUP4 SUB DUP2 DUP6 DUP9 DUP1 EXTCODESIZE ISZERO DUP1 ISZERO PUSH2 0x3094 JUMPI PUSH1 0x0 DUP1 REVERT JUMPDEST POP GAS CALL ISZERO DUP1 ISZERO PUSH2 0x30A8 JUMPI RETURNDATASIZE PUSH1 0x0 DUP1 RETURNDATACOPY RETURNDATASIZE PUSH1 0x0 REVERT JUMPDEST POP POP POP POP POP PUSH1 0x40 MLOAD RETURNDATASIZE PUSH1 0x1F NOT PUSH1 0x1F DUP3 ADD AND DUP3 ADD DUP1 PUSH1 0x40 MSTORE POP DUP2 ADD SWAP1 PUSH2 0x30CD SWAP2 SWAP1 PUSH2 0x3968 JUMP JUMPDEST SWAP1 SWAP6 SWAP1 SWAP5 POP SWAP3 POP POP POP JUMP JUMPDEST PUSH1 0x40 DUP1 MLOAD PUSH1 0x1 PUSH1 0x1 PUSH1 0xA0 SHL SUB DUP6 DUP2 AND PUSH1 0x24 DUP4 ADD MSTORE DUP5 DUP2 AND PUSH1 0x44 DUP4 ADD MSTORE PUSH1 0x64 DUP1 DUP4 ADD DUP6 SWAP1 MSTORE DUP4 MLOAD DUP1 DUP5 SUB SWAP1 SWAP2 ADD DUP2 MSTORE PUSH1 0x84 SWAP1 SWAP3 ADD DUP4 MSTORE PUSH1 0x20 DUP3 ADD DUP1 MLOAD PUSH1 0x1 PUSH1 0x1 PUSH1 0xE0 SHL SUB AND PUSH4 0x23B872DD PUSH1 0xE0 SHL OR SWAP1 MSTORE SWAP2 MLOAD PUSH1 0x0 SWAP3 DUP4 SWAP3 SWAP1 DUP9 AND SWAP2 PUSH2 0x313C SWAP2 SWAP1 PUSH2 0x39F7 JUMP JUMPDEST PUSH1 0x0 PUSH1 0x40 MLOAD DUP1 DUP4 SUB DUP2 PUSH1 0x0 DUP7 GAS CALL SWAP2 POP POP RETURNDATASIZE DUP1 PUSH1 0x0 DUP2 EQ PUSH2 0x3179 JUMPI PUSH1 0x40 MLOAD SWAP2 POP PUSH1 0x1F NOT PUSH1 0x3F RETURNDATASIZE ADD AND DUP3 ADD PUSH1 0x40 MSTORE RETURNDATASIZE DUP3 MSTORE RETURNDATASIZE PUSH1 0x0 PUSH1 0x20 DUP5 ADD RETURNDATACOPY PUSH2 0x317E JUMP JUMPDEST PUSH1 0x60 SWAP2 POP JUMPDEST POP SWAP2 POP SWAP2 POP DUP2 DUP1 ISZERO PUSH2 0x31A8 JUMPI POP DUP1 MLOAD ISZERO DUP1 PUSH2 0x31A8 JUMPI POP DUP1 DUP1 PUSH1 0x20 ADD SWAP1 MLOAD DUP2 ADD SWAP1 PUSH2 0x31A8 SWAP2 SWAP1 PUSH2 0x3846 JUMP JUMPDEST PUSH2 0x3200 JUMPI PUSH1 0x40 MLOAD PUSH3 0x461BCD PUSH1 0xE5 SHL DUP2 MSTORE PUSH1 0x20 PUSH1 0x4 DUP3 ADD MSTORE PUSH1 0x24 DUP1 DUP3 ADD MSTORE PUSH32 0x5472616E7366657248656C7065723A205452414E534645525F46524F4D5F4641 PUSH1 0x44 DUP3 ADD MSTORE PUSH4 0x12531151 PUSH1 0xE2 SHL PUSH1 0x64 DUP3 ADD MSTORE PUSH1 0x84 ADD PUSH2 0x8B4 JUMP JUMPDEST POP POP POP POP POP POP JUMP JUMPDEST PUSH1 0x0 DUP1 DUP5 PUSH1 0x1 PUSH1 0x1 PUSH1 0xA0 SHL SUB AND PUSH4 0xA9059CBB DUP6 DUP6 PUSH1 0x40 MLOAD PUSH1 0x24 ADD PUSH2 0x322D SWAP3 SWAP2 SWAP1 PUSH2 0x3A30 JUMP JUMPDEST PUSH1 0x40 MLOAD PUSH1 0x20 DUP2 DUP4 SUB SUB DUP2 MSTORE SWAP1 PUSH1 0x40 MSTORE SWAP1 PUSH1 0xE0 SHL PUSH1 0x20 DUP3 ADD DUP1 MLOAD PUSH1 0x1 PUSH1 0x1 PUSH1 0xE0 SHL SUB DUP4 DUP2 DUP4 AND OR DUP4 MSTORE POP POP POP POP PUSH1 0x40 MLOAD PUSH2 0x3266 SWAP2 SWAP1 PUSH2 0x39F7 JUMP JUMPDEST PUSH1 0x0 PUSH1 0x40 MLOAD DUP1 DUP4 SUB DUP2 PUSH1 0x0 DUP7 GAS CALL SWAP2 POP POP RETURNDATASIZE DUP1 PUSH1 0x0 DUP2 EQ PUSH2 0x32A3 JUMPI PUSH1 0x40 MLOAD SWAP2 POP PUSH1 0x1F NOT PUSH1 0x3F RETURNDATASIZE ADD AND DUP3 ADD PUSH1 0x40 MSTORE RETURNDATASIZE DUP3 MSTORE RETURNDATASIZE PUSH1 0x0 PUSH1 0x20 DUP5 ADD RETURNDATACOPY PUSH2 0x32A8 JUMP JUMPDEST PUSH1 0x60 SWAP2 POP JUMPDEST POP SWAP2 POP SWAP2 POP DUP2 DUP1 ISZERO PUSH2 0x32D2 JUMPI POP DUP1 MLOAD ISZERO DUP1 PUSH2 0x32D2 JUMPI POP DUP1 DUP1 PUSH1 0x20 ADD SWAP1 MLOAD DUP2 ADD SWAP1 PUSH2 0x32D2 SWAP2 SWAP1 PUSH2 0x3846 JUMP JUMPDEST PUSH2 0x331E JUMPI PUSH1 0x40 MLOAD PUSH3 0x461BCD PUSH1 0xE5 SHL DUP2 MSTORE PUSH1 0x20 PUSH1 0x4 DUP3 ADD MSTORE PUSH1 0x1F PUSH1 0x24 DUP3 ADD MSTORE PUSH32 0x5472616E7366657248656C7065723A205452414E534645525F4641494C454400 PUSH1 0x44 DUP3 ADD MSTORE PUSH1 0x64 ADD PUSH2 0x8B4 JUMP JUMPDEST POP POP POP POP POP JUMP JUMPDEST PUSH1 0x40 DUP1 MLOAD PUSH1 0x0 DUP1 DUP3 MSTORE PUSH1 0x20 DUP3 ADD SWAP1 SWAP3 MSTORE PUSH1 0x1 PUSH1 0x1 PUSH1 0xA0 SHL SUB DUP5 AND SWAP1 DUP4 SWAP1 PUSH1 0x40 MLOAD PUSH2 0x334F SWAP2 SWAP1 PUSH2 0x39F7 JUMP JUMPDEST PUSH1 0x0 PUSH1 0x40 MLOAD DUP1 DUP4 SUB DUP2 DUP6 DUP8 GAS CALL SWAP3 POP POP POP RETURNDATASIZE DUP1 PUSH1 0x0 DUP2 EQ PUSH2 0x338C JUMPI PUSH1 0x40 MLOAD SWAP2 POP PUSH1 0x1F NOT PUSH1 0x3F RETURNDATASIZE ADD AND DUP3 ADD PUSH1 0x40 MSTORE RETURNDATASIZE DUP3 MSTORE RETURNDATASIZE PUSH1 0x0 PUSH1 0x20 DUP5 ADD RETURNDATACOPY PUSH2 0x3391 JUMP JUMPDEST PUSH1 0x60 SWAP2 POP JUMPDEST POP POP SWAP1 POP DUP1 PUSH2 0x33EE JUMPI PUSH1 0x40 MLOAD PUSH3 0x461BCD PUSH1 0xE5 SHL DUP2 MSTORE PUSH1 0x20 PUSH1 0x4 DUP3 ADD MSTORE PUSH1 0x23 PUSH1 0x24 DUP3 ADD MSTORE PUSH32 0x5472616E7366657248656C7065723A204554485F5452414E534645525F464149 PUSH1 0x44 DUP3 ADD MSTORE PUSH3 0x131151 PUSH1 0xEA SHL PUSH1 0x64 DUP3 ADD MSTORE PUSH1 0x84 ADD PUSH2 0x8B4 JUMP JUMPDEST POP POP POP JUMP JUMPDEST PUSH1 0x20 DUP5 ADD MLOAD DUP5 MLOAD PUSH1 0x60 DUP7 ADD MLOAD PUSH1 0x40 DUP8 ADD MLOAD PUSH1 0x1 PUSH1 0x1 PUSH1 0x58 SHL SUB SWAP1 SWAP2 AND SWAP1 DUP4 ISZERO DUP1 ISZERO SWAP1 PUSH2 0x3427 JUMPI POP DUP1 PUSH1 0x1 PUSH1 0x1 PUSH1 0xA0 SHL SUB AND NUMBER GT JUMPDEST DUP1 ISZERO PUSH2 0x343B JUMPI POP PUSH1 0x1 PUSH1 0x1 PUSH1 0xA0 SHL SUB DUP2 AND ISZERO ISZERO JUMPDEST ISZERO PUSH2 0x351F JUMPI PUSH1 0x0 PUSH2 0x345A DUP6 DUP4 DUP6 PUSH2 0x3454 DUP9 DUP11 DUP15 DUP15 PUSH2 0x1C5F JUMP JUMPDEST DUP11 PUSH2 0x15FB JUMP JUMPDEST PUSH1 0x2 SLOAD PUSH1 0x7 SLOAD SWAP2 SWAP3 POP PUSH2 0x347C SWAP2 PUSH1 0x1 PUSH1 0x1 PUSH1 0xA0 SHL SUB SWAP2 DUP3 AND SWAP2 CALLER SWAP2 AND DUP5 PUSH2 0x30D8 JUMP JUMPDEST PUSH1 0x7 PUSH1 0x0 SWAP1 SLOAD SWAP1 PUSH2 0x100 EXP SWAP1 DIV PUSH1 0x1 PUSH1 0x1 PUSH1 0xA0 SHL SUB AND PUSH1 0x1 PUSH1 0x1 PUSH1 0xA0 SHL SUB AND PUSH4 0xB7694A93 PUSH1 0x40 MLOAD DUP2 PUSH4 0xFFFFFFFF AND PUSH1 0xE0 SHL DUP2 MSTORE PUSH1 0x4 ADD PUSH1 0x0 PUSH1 0x40 MLOAD DUP1 DUP4 SUB DUP2 PUSH1 0x0 DUP8 DUP1 EXTCODESIZE ISZERO DUP1 ISZERO PUSH2 0x34CC JUMPI PUSH1 0x0 DUP1 REVERT JUMPDEST POP GAS CALL ISZERO DUP1 ISZERO PUSH2 0x34E0 JUMPI RETURNDATASIZE PUSH1 0x0 DUP1 RETURNDATACOPY RETURNDATASIZE PUSH1 0x0 REVERT JUMPDEST POP POP POP POP PUSH32 0xD22F9C8C29C0808BE6387686AC52381992FDEEA23A23843E31EE581E65304182 DUP2 PUSH1 0x40 MLOAD PUSH2 0x3515 SWAP2 DUP2 MSTORE PUSH1 0x20 ADD SWAP1 JUMP JUMPDEST PUSH1 0x40 MLOAD DUP1 SWAP2 SUB SWAP1 LOG1 POP JUMPDEST POP POP POP POP POP POP POP POP JUMP JUMPDEST DUP1 CALLDATALOAD PUSH2 0x3534 DUP2 PUSH2 0x3D2C JUMP JUMPDEST SWAP2 SWAP1 POP JUMP JUMPDEST DUP1 CALLDATALOAD PUSH5 0xFFFFFFFFFF DUP2 AND DUP2 EQ PUSH2 0x3534 JUMPI PUSH1 0x0 DUP1 REVERT JUMPDEST DUP1 CALLDATALOAD PUSH1 0x1 PUSH1 0x1 PUSH1 0x50 SHL SUB DUP2 AND DUP2 EQ PUSH2 0x3534 JUMPI PUSH1 0x0 DUP1 REVERT JUMPDEST DUP1 CALLDATALOAD PUSH1 0x1 PUSH1 0x1 PUSH1 0x58 SHL SUB DUP2 AND DUP2 EQ PUSH2 0x3534 JUMPI PUSH1 0x0 DUP1 REVERT JUMPDEST DUP1 CALLDATALOAD PUSH1 0x1 PUSH1 0x1 PUSH1 0x60 SHL SUB DUP2 AND DUP2 EQ PUSH2 0x3534 JUMPI PUSH1 0x0 DUP1 REVERT JUMPDEST PUSH1 0x0 PUSH1 0x20 DUP3 DUP5 SUB SLT ISZERO PUSH2 0x35A4 JUMPI DUP1 DUP2 REVERT JUMPDEST DUP2 CALLDATALOAD PUSH2 0x35AF DUP2 PUSH2 0x3D2C JUMP JUMPDEST SWAP4 SWAP3 POP POP POP JUMP JUMPDEST PUSH1 0x0 DUP1 PUSH1 0x40 DUP4 DUP6 SUB SLT ISZERO PUSH2 0x35C8 JUMPI DUP1 DUP2 REVERT JUMPDEST DUP3 CALLDATALOAD PUSH2 0x35D3 DUP2 PUSH2 0x3D2C JUMP JUMPDEST SWAP2 POP PUSH1 0x20 DUP4 ADD CALLDATALOAD PUSH2 0x35E3 DUP2 PUSH2 0x3D2C JUMP JUMPDEST DUP1 SWAP2 POP POP SWAP3 POP SWAP3 SWAP1 POP JUMP JUMPDEST PUSH1 0x0 DUP1 PUSH1 0x0 DUP1 PUSH1 0x80 DUP6 DUP8 SUB SLT ISZERO PUSH2 0x3603 JUMPI DUP2 DUP3 REVERT JUMPDEST DUP5 CALLDATALOAD PUSH2 0x360E DUP2 PUSH2 0x3D2C JUMP JUMPDEST SWAP4 POP PUSH1 0x20 DUP6 ADD CALLDATALOAD PUSH2 0x361E DUP2 PUSH2 0x3D2C JUMP JUMPDEST SWAP4 SWAP7 SWAP4 SWAP6 POP POP POP POP PUSH1 0x40 DUP3 ADD CALLDATALOAD SWAP2 PUSH1 0x60 ADD CALLDATALOAD SWAP1 JUMP JUMPDEST PUSH1 0x0 DUP1 PUSH1 0x40 DUP4 DUP6 SUB SLT ISZERO PUSH2 0x3645 JUMPI DUP2 DUP3 REVERT JUMPDEST DUP3 CALLDATALOAD PUSH2 0x3650 DUP2 PUSH2 0x3D2C JUMP JUMPDEST SWAP2 POP PUSH1 0x20 DUP4 ADD CALLDATALOAD PUSH2 0x35E3 DUP2 PUSH2 0x3D44 JUMP JUMPDEST PUSH1 0x0 DUP1 PUSH1 0x40 DUP4 DUP6 SUB SLT ISZERO PUSH2 0x3672 JUMPI DUP2 DUP3 REVERT JUMPDEST DUP3 CALLDATALOAD PUSH2 0x367D DUP2 PUSH2 0x3D2C JUMP JUMPDEST SWAP5 PUSH1 0x20 SWAP4 SWAP1 SWAP4 ADD CALLDATALOAD SWAP4 POP POP POP JUMP JUMPDEST PUSH1 0x0 DUP1 PUSH1 0x0 PUSH1 0x60 DUP5 DUP7 SUB SLT ISZERO PUSH2 0x369F JUMPI DUP3 DUP4 REVERT JUMPDEST DUP4 CALLDATALOAD PUSH2 0x36AA DUP2 PUSH2 0x3D2C JUMP JUMPDEST SWAP3 POP PUSH1 0x20 DUP5 ADD CALLDATALOAD SWAP2 POP PUSH1 0x40 DUP5 ADD CALLDATALOAD PUSH2 0x36C1 DUP2 PUSH2 0x3D2C JUMP JUMPDEST DUP1 SWAP2 POP POP SWAP3 POP SWAP3 POP SWAP3 JUMP JUMPDEST PUSH1 0x0 DUP1 PUSH1 0x0 DUP1 PUSH1 0x0 PUSH1 0xA0 DUP7 DUP9 SUB SLT ISZERO PUSH2 0x36E3 JUMPI DUP1 DUP2 REVERT JUMPDEST DUP6 CALLDATALOAD PUSH2 0x36EE DUP2 PUSH2 0x3D2C JUMP JUMPDEST SWAP5 POP PUSH1 0x20 DUP7 ADD CALLDATALOAD SWAP4 POP PUSH1 0x40 DUP7 ADD CALLDATALOAD SWAP3 POP PUSH2 0x370A PUSH1 0x60 DUP8 ADD PUSH2 0x3565 JUMP JUMPDEST SWAP2 POP PUSH1 0x80 DUP7 ADD CALLDATALOAD PUSH2 0x371A DUP2 PUSH2 0x3D2C JUMP JUMPDEST DUP1 SWAP2 POP POP SWAP3 SWAP6 POP SWAP3 SWAP6 SWAP1 SWAP4 POP JUMP JUMPDEST PUSH1 0x0 DUP1 PUSH1 0x0 PUSH1 0x60 DUP5 DUP7 SUB SLT ISZERO PUSH2 0x373C JUMPI DUP3 DUP4 REVERT JUMPDEST DUP4 CALLDATALOAD PUSH2 0x3747 DUP2 PUSH2 0x3D2C JUMP JUMPDEST SWAP3 POP PUSH1 0x20 DUP5 ADD CALLDATALOAD SWAP2 POP PUSH2 0x375C PUSH1 0x40 DUP6 ADD PUSH2 0x3565 JUMP JUMPDEST SWAP1 POP SWAP3 POP SWAP3 POP SWAP3 JUMP JUMPDEST PUSH1 0x0 DUP1 PUSH1 0x40 DUP4 DUP6 SUB SLT ISZERO PUSH2 0x3777 JUMPI DUP2 DUP3 REVERT JUMPDEST DUP3 CALLDATALOAD PUSH2 0x3782 DUP2 PUSH2 0x3D2C JUMP JUMPDEST SWAP2 POP PUSH2 0x3790 PUSH1 0x20 DUP5 ADD PUSH2 0x3539 JUMP JUMPDEST SWAP1 POP SWAP3 POP SWAP3 SWAP1 POP JUMP JUMPDEST PUSH1 0x0 DUP1 PUSH1 0x40 DUP4 DUP6 SUB SLT ISZERO PUSH2 0x37AB JUMPI DUP1 DUP2 REVERT JUMPDEST DUP3 CALLDATALOAD PUSH2 0x37B6 DUP2 PUSH2 0x3D2C JUMP JUMPDEST SWAP2 POP PUSH2 0x3790 PUSH1 0x20 DUP5 ADD PUSH2 0x354E JUMP JUMPDEST PUSH1 0x0 DUP1 PUSH1 0x40 DUP4 DUP6 SUB SLT ISZERO PUSH2 0x37D6 JUMPI DUP2 DUP3 REVERT JUMPDEST DUP3 CALLDATALOAD PUSH2 0x37E1 DUP2 PUSH2 0x3D2C JUMP JUMPDEST SWAP2 POP PUSH2 0x3790 PUSH1 0x20 DUP5 ADD PUSH2 0x3565 JUMP JUMPDEST PUSH1 0x0 DUP1 PUSH1 0x0 DUP1 PUSH1 0x80 DUP6 DUP8 SUB SLT ISZERO PUSH2 0x3804 JUMPI DUP2 DUP3 REVERT JUMPDEST DUP5 CALLDATALOAD PUSH2 0x380F DUP2 PUSH2 0x3D2C JUMP JUMPDEST SWAP4 POP PUSH2 0x381D PUSH1 0x20 DUP7 ADD PUSH2 0x357C JUMP JUMPDEST SWAP3 POP PUSH1 0x40 DUP6 ADD CALLDATALOAD PUSH2 0x382D DUP2 PUSH2 0x3D2C JUMP JUMPDEST SWAP2 POP PUSH2 0x383B PUSH1 0x60 DUP7 ADD PUSH2 0x357C JUMP JUMPDEST SWAP1 POP SWAP3 SWAP6 SWAP2 SWAP5 POP SWAP3 POP JUMP JUMPDEST PUSH1 0x0 PUSH1 0x20 DUP3 DUP5 SUB SLT ISZERO PUSH2 0x3857 JUMPI DUP1 DUP2 REVERT JUMPDEST DUP2 MLOAD PUSH2 0x35AF DUP2 PUSH2 0x3D44 JUMP JUMPDEST PUSH1 0x0 DUP1 PUSH1 0x0 DUP1 PUSH1 0x0 DUP6 DUP8 SUB PUSH2 0x100 DUP2 SLT ISZERO PUSH2 0x387B JUMPI DUP4 DUP5 REVERT JUMPDEST PUSH1 0x80 DUP2 SLT ISZERO PUSH2 0x3888 JUMPI DUP4 DUP5 REVERT JUMPDEST POP PUSH1 0x40 MLOAD PUSH1 0x80 DUP2 ADD DUP2 DUP2 LT PUSH8 0xFFFFFFFFFFFFFFFF DUP3 GT OR ISZERO PUSH2 0x38B8 JUMPI PUSH4 0x4E487B71 PUSH1 0xE0 SHL DUP6 MSTORE PUSH1 0x41 PUSH1 0x4 MSTORE PUSH1 0x24 DUP6 REVERT JUMPDEST DUP1 PUSH1 0x40 MSTORE POP DUP7 CALLDATALOAD DUP2 MSTORE PUSH1 0x20 DUP8 ADD CALLDATALOAD PUSH1 0x20 DUP3 ADD MSTORE PUSH2 0x38D7 PUSH1 0x40 DUP9 ADD PUSH2 0x3529 JUMP JUMPDEST PUSH1 0x40 DUP3 ADD MSTORE PUSH2 0x38E8 PUSH1 0x60 DUP9 ADD PUSH2 0x3565 JUMP JUMPDEST PUSH1 0x60 DUP3 ADD MSTORE SWAP5 POP PUSH1 0x80 DUP7 ADD CALLDATALOAD SWAP4 POP PUSH1 0xA0 DUP7 ADD CALLDATALOAD SWAP3 POP PUSH2 0x3909 PUSH1 0xC0 DUP8 ADD PUSH2 0x354E JUMP JUMPDEST SWAP2 POP PUSH2 0x3917 PUSH1 0xE0 DUP8 ADD PUSH2 0x3539 JUMP JUMPDEST SWAP1 POP SWAP3 SWAP6 POP SWAP3 SWAP6 SWAP1 SWAP4 POP JUMP JUMPDEST PUSH1 0x0 DUP1 PUSH1 0x0 DUP1 PUSH1 0x0 PUSH1 0xA0 DUP7 DUP9 SUB SLT ISZERO PUSH2 0x393A JUMPI DUP3 DUP4 REVERT JUMPDEST DUP6 CALLDATALOAD SWAP5 POP PUSH1 0x20 DUP7 ADD CALLDATALOAD PUSH2 0x394C DUP2 PUSH2 0x3D2C JUMP JUMPDEST SWAP4 POP PUSH1 0x40 DUP7 ADD CALLDATALOAD SWAP3 POP PUSH1 0x60 DUP7 ADD CALLDATALOAD SWAP2 POP PUSH2 0x3917 PUSH1 0x80 DUP8 ADD PUSH2 0x3539 JUMP JUMPDEST PUSH1 0x0 DUP1 PUSH1 0x40 DUP4 DUP6 SUB SLT ISZERO PUSH2 0x397A JUMPI DUP2 DUP3 REVERT JUMPDEST POP POP DUP1 MLOAD PUSH1 0x20 SWAP1 SWAP2 ADD MLOAD SWAP1 SWAP3 SWAP1 SWAP2 POP JUMP JUMPDEST PUSH1 0x0 DUP1 PUSH1 0x0 DUP1 PUSH1 0x80 DUP6 DUP8 SUB SLT ISZERO PUSH2 0x39A0 JUMPI DUP2 DUP3 REVERT JUMPDEST POP POP DUP3 CALLDATALOAD SWAP5 PUSH1 0x20 DUP5 ADD CALLDATALOAD SWAP5 POP PUSH1 0x40 DUP5 ADD CALLDATALOAD SWAP4 PUSH1 0x60 ADD CALLDATALOAD SWAP3 POP SWAP1 POP JUMP JUMPDEST PUSH1 0x0 PUSH1 0x20 DUP3 DUP5 SUB SLT ISZERO PUSH2 0x39CD JUMPI DUP1 DUP2 REVERT JUMPDEST DUP2 MLOAD PUSH1 0xFF DUP2 AND DUP2 EQ PUSH2 0x35AF JUMPI DUP2 DUP3 REVERT JUMPDEST PUSH1 0x0 PUSH1 0x20 DUP3 DUP5 SUB SLT ISZERO PUSH2 0x39EE JUMPI DUP1 DUP2 REVERT JUMPDEST PUSH2 0x35AF DUP3 PUSH2 0x357C JUMP JUMPDEST PUSH1 0x0 DUP3 MLOAD DUP2 JUMPDEST DUP2 DUP2 LT ISZERO PUSH2 0x3A17 JUMPI PUSH1 0x20 DUP2 DUP7 ADD DUP2 ADD MLOAD DUP6 DUP4 ADD MSTORE ADD PUSH2 0x39FD JUMP JUMPDEST DUP2 DUP2 GT ISZERO PUSH2 0x3A25 JUMPI DUP3 DUP3 DUP6 ADD MSTORE JUMPDEST POP SWAP2 SWAP1 SWAP2 ADD SWAP3 SWAP2 POP POP JUMP JUMPDEST PUSH1 0x1 PUSH1 0x1 PUSH1 0xA0 SHL SUB SWAP3 SWAP1 SWAP3 AND DUP3 MSTORE PUSH1 0x20 DUP3 ADD MSTORE PUSH1 0x40 ADD SWAP1 JUMP JUMPDEST PUSH1 0x1 PUSH1 0x1 PUSH1 0xA0 SHL SUB SWAP7 SWAP1 SWAP7 AND DUP7 MSTORE PUSH1 0x20 DUP7 ADD SWAP5 SWAP1 SWAP5 MSTORE PUSH1 0x40 DUP6 ADD SWAP3 SWAP1 SWAP3 MSTORE PUSH1 0x60 DUP5 ADD MSTORE PUSH1 0x80 DUP4 ADD MSTORE PUSH1 0x1 PUSH1 0x1 PUSH1 0x58 SHL SUB AND PUSH1 0xA0 DUP3 ADD MSTORE PUSH1 0xC0 ADD SWAP1 JUMP JUMPDEST PUSH1 0x20 DUP1 DUP3 MSTORE PUSH1 0x18 SWAP1 DUP3 ADD MSTORE PUSH32 0x4C6F673A4D6F727467616765506F6F6C3A21616D6F756E740000000000000000 PUSH1 0x40 DUP3 ADD MSTORE PUSH1 0x60 ADD SWAP1 JUMP JUMPDEST PUSH1 0x20 DUP1 DUP3 MSTORE PUSH1 0x19 SWAP1 DUP3 ADD MSTORE PUSH32 0x4C6F673A5061726173736574426173653A215F6C6F636B656400000000000000 PUSH1 0x40 DUP3 ADD MSTORE PUSH1 0x60 ADD SWAP1 JUMP JUMPDEST PUSH1 0x20 DUP1 DUP3 MSTORE PUSH1 0x18 SWAP1 DUP3 ADD MSTORE PUSH32 0x4C6F673A4D6F727467616765506F6F6C3A696E6465783D300000000000000000 PUSH1 0x40 DUP3 ADD MSTORE PUSH1 0x60 ADD SWAP1 JUMP JUMPDEST PUSH1 0x20 DUP1 DUP3 MSTORE PUSH1 0x15 SWAP1 DUP3 ADD MSTORE PUSH21 0x2637B39D2830B930B9B9B2BA2130B9B29D10B3B7BB PUSH1 0x59 SHL PUSH1 0x40 DUP3 ADD MSTORE PUSH1 0x60 ADD SWAP1 JUMP JUMPDEST PUSH1 0x20 DUP1 DUP3 MSTORE PUSH1 0x1F SWAP1 DUP3 ADD MSTORE PUSH32 0x4C6F673A4D6F727467616765506F6F6C3A216D6F727467616765416C6C6F7700 PUSH1 0x40 DUP3 ADD MSTORE PUSH1 0x60 ADD SWAP1 JUMP JUMPDEST PUSH1 0x20 DUP1 DUP3 MSTORE PUSH1 0x13 SWAP1 DUP3 ADD MSTORE PUSH19 0x4C6F673A4D6F727467616765506F6F6C3A213 PUSH1 0x6C SHL PUSH1 0x40 DUP3 ADD MSTORE PUSH1 0x60 ADD SWAP1 JUMP JUMPDEST PUSH1 0x0 DUP3 NOT DUP3 GT ISZERO PUSH2 0x3BD0 JUMPI PUSH2 0x3BD0 PUSH2 0x3D16 JUMP JUMPDEST POP ADD SWAP1 JUMP JUMPDEST PUSH1 0x0 DUP3 PUSH2 0x3BF0 JUMPI PUSH4 0x4E487B71 PUSH1 0xE0 SHL DUP2 MSTORE PUSH1 0x12 PUSH1 0x4 MSTORE PUSH1 0x24 DUP2 REVERT JUMPDEST POP DIV SWAP1 JUMP JUMPDEST PUSH1 0x1 DUP2 DUP2 JUMPDEST DUP1 DUP6 GT ISZERO PUSH2 0x3C30 JUMPI DUP2 PUSH1 0x0 NOT DIV DUP3 GT ISZERO PUSH2 0x3C16 JUMPI PUSH2 0x3C16 PUSH2 0x3D16 JUMP JUMPDEST DUP1 DUP6 AND ISZERO PUSH2 0x3C23 JUMPI SWAP2 DUP2 MUL SWAP2 JUMPDEST SWAP4 DUP5 SHR SWAP4 SWAP1 DUP1 MUL SWAP1 PUSH2 0x3BFA JUMP JUMPDEST POP SWAP3 POP SWAP3 SWAP1 POP JUMP JUMPDEST PUSH1 0x0 PUSH2 0x35AF DUP4 DUP4 PUSH1 0x0 DUP3 PUSH2 0x3C4E JUMPI POP PUSH1 0x1 PUSH2 0x2876 JUMP JUMPDEST DUP2 PUSH2 0x3C5B JUMPI POP PUSH1 0x0 PUSH2 0x2876 JUMP JUMPDEST DUP2 PUSH1 0x1 DUP2 EQ PUSH2 0x3C71 JUMPI PUSH1 0x2 DUP2 EQ PUSH2 0x3C7B JUMPI PUSH2 0x3C97 JUMP JUMPDEST PUSH1 0x1 SWAP2 POP POP PUSH2 0x2876 JUMP JUMPDEST PUSH1 0xFF DUP5 GT ISZERO PUSH2 0x3C8C JUMPI PUSH2 0x3C8C PUSH2 0x3D16 JUMP JUMPDEST POP POP PUSH1 0x1 DUP3 SHL PUSH2 0x2876 JUMP JUMPDEST POP PUSH1 0x20 DUP4 LT PUSH2 0x133 DUP4 LT AND PUSH1 0x4E DUP5 LT PUSH1 0xB DUP5 LT AND OR ISZERO PUSH2 0x3CBA JUMPI POP DUP2 DUP2 EXP PUSH2 0x2876 JUMP JUMPDEST PUSH2 0x3CC4 DUP4 DUP4 PUSH2 0x3BF5 JUMP JUMPDEST DUP1 PUSH1 0x0 NOT DIV DUP3 GT ISZERO PUSH2 0x3CD8 JUMPI PUSH2 0x3CD8 PUSH2 0x3D16 JUMP JUMPDEST MUL SWAP4 SWAP3 POP POP POP JUMP JUMPDEST PUSH1 0x0 DUP2 PUSH1 0x0 NOT DIV DUP4 GT DUP3 ISZERO ISZERO AND ISZERO PUSH2 0x3CFA JUMPI PUSH2 0x3CFA PUSH2 0x3D16 JUMP JUMPDEST POP MUL SWAP1 JUMP JUMPDEST PUSH1 0x0 DUP3 DUP3 LT ISZERO PUSH2 0x3D11 JUMPI PUSH2 0x3D11 PUSH2 0x3D16 JUMP JUMPDEST POP SUB SWAP1 JUMP JUMPDEST PUSH4 0x4E487B71 PUSH1 0xE0 SHL PUSH1 0x0 MSTORE PUSH1 0x11 PUSH1 0x4 MSTORE PUSH1 0x24 PUSH1 0x0 REVERT JUMPDEST PUSH1 0x1 PUSH1 0x1 PUSH1 0xA0 SHL SUB DUP2 AND DUP2 EQ PUSH2 0x3D41 JUMPI PUSH1 0x0 DUP1 REVERT JUMPDEST POP JUMP JUMPDEST DUP1 ISZERO ISZERO DUP2 EQ PUSH2 0x3D41 JUMPI PUSH1 0x0 DUP1 REVERT INVALID CALLDATASIZE 0xB0 DUP14 0x1E 0xC8 0xEC 0xD5 DUP9 STOP PUSH30 0x14EA5BE9EDB9EEB4CDD2F952162D2D32D4B71A0126A2A264697066735822 SLT KECCAK256 DUP2 0x2D MSTORE8 PUSH22 0x57BA268220C15D53C077E35CD63B8C54780E20755064 STATICCALL 0xF 0xC4 SELFDESTRUCT DUP8 JUMP PUSH5 0x736F6C6343 STOP ADDMOD DIV STOP CALLER "
		},
		"gasEstimates": {
			"creation": {
				"codeDepositCost": "3156800",
				"executionCost": "23497",
				"totalCost": "3180297"
			},
			"external": {
				"_checkLine((uint256,uint256,uint160,uint88),uint256,uint256,uint80,uint40)": "infinite",
				"_governance()": "1117",
				"coin(address,uint256,uint88)": "infinite",
				"decrease(address,uint256)": "infinite",
				"getDecimalConversion(address,uint256,address)": "infinite",
				"getFee(uint256,uint160,uint256,uint256,uint40)": "infinite",
				"getFlag()": "1158",
				"getInfoRealTime(address,uint256,uint256,uint88,address)": "infinite",
				"getInsurancePool()": "1087",
				"getK(address)": "1379",
				"getLedger(address,address)": "infinite",
				"getLedgerArrayNum(address)": "1276",
				"getLedgerIndex(address,address)": "infinite",
				"getLiquidateRate(address)": "1353",
				"getMaxRate(address)": "1370",
				"getMortgageRate(uint256,uint256,uint256,uint256)": "infinite",
				"getOneYear()": "1081",
				"getPTokenAddress()": "1154",
				"getPriceController()": "1110",
				"getR0(address)": "1309",
				"getUnderlyingToken()": "1109",
				"increaseCoinage(address,uint256)": "infinite",
				"initialize(address)": "27142",
				"liquidation(address,address,uint256,uint256)": "infinite",
				"reducedCoinage(address,uint256)": "infinite",
				"setConfig(address,uint96,address,uint96)": "infinite",
				"setFlag(uint96)": "infinite",
				"setInfo(address,address)": "infinite",
				"setInsurancePool(address)": "infinite",
				"setK(address,uint80)": "infinite",
				"setLiquidateRate(address,uint40)": "infinite",
				"setMaxRate(address,uint88)": "infinite",
				"setMortgageAllow(address,bool)": "infinite",
				"setOneYear(uint96)": "infinite",
				"setPriceController(address)": "infinite",
				"setR0(address,uint40)": "infinite",
				"supplement(address,uint256)": "infinite",
				"update(address)": "infinite"
			},
			"internal": {
				"getPriceForPToken(address,uint256)": "infinite",
				"transferFee(struct MortgagePool.PersonalLedger memory,uint256,uint256,uint40)": "infinite"
			}
		},
		"methodIdentifiers": {
			"_checkLine((uint256,uint256,uint160,uint88),uint256,uint256,uint80,uint40)": "f042fc6b",
			"_governance()": "1c2f3e3d",
			"coin(address,uint256,uint88)": "3a97bb25",
			"decrease(address,uint256)": "f27ac4d9",
			"getDecimalConversion(address,uint256,address)": "f9081591",
			"getFee(uint256,uint160,uint256,uint256,uint40)": "3ac68750",
			"getFlag()": "f9633930",
			"getInfoRealTime(address,uint256,uint256,uint88,address)": "800c2b39",
			"getInsurancePool()": "d0d5665b",
			"getK(address)": "1e0f6725",
			"getLedger(address,address)": "25404c4f",
			"getLedgerArrayNum(address)": "a831407f",
			"getLedgerIndex(address,address)": "cb919485",
			"getLiquidateRate(address)": "9cf2aa2a",
			"getMaxRate(address)": "a99c53b3",
			"getMortgageRate(uint256,uint256,uint256,uint256)": "7ff4d02f",
			"getOneYear()": "f1a4252e",
			"getPTokenAddress()": "42d17745",
			"getPriceController()": "3cf045a4",
			"getR0(address)": "90f5cb09",
			"getUnderlyingToken()": "ee719bc8",
			"increaseCoinage(address,uint256)": "983825de",
			"initialize(address)": "c4d66de8",
			"liquidation(address,address,uint256,uint256)": "219f7753",
			"reducedCoinage(address,uint256)": "78a35320",
			"setConfig(address,uint96,address,uint96)": "0daa6d11",
			"setFlag(uint96)": "306aceda",
			"setInfo(address,address)": "fb606f92",
			"setInsurancePool(address)": "a94c487e",
			"setK(address,uint80)": "28107acf",
			"setLiquidateRate(address,uint40)": "5d6f1533",
			"setMaxRate(address,uint88)": "5e0ec98f",
			"setMortgageAllow(address,bool)": "c2862d67",
			"setOneYear(uint96)": "3376cb37",
			"setPriceController(address)": "3f849820",
			"setR0(address,uint40)": "efdecaef",
			"supplement(address,uint256)": "a240b9a8",
			"update(address)": "1c1b8772"
		}
	},
	"abi": [
		{
			"anonymous": false,
			"inputs": [
				{
					"indexed": false,
					"internalType": "uint256",
					"name": "value",
					"type": "uint256"
				}
			],
			"name": "FeeValue",
			"type": "event"
		},
		{
			"anonymous": false,
			"inputs": [
				{
					"indexed": false,
					"internalType": "address",
					"name": "mToken",
					"type": "address"
				},
				{
					"indexed": false,
					"internalType": "uint256",
					"name": "mTokenAmount",
					"type": "uint256"
				},
				{
					"indexed": false,
					"internalType": "uint256",
					"name": "pTokenAmount",
					"type": "uint256"
				},
				{
					"indexed": false,
					"internalType": "uint256",
					"name": "tokenPrice",
					"type": "uint256"
				},
				{
					"indexed": false,
					"internalType": "uint256",
					"name": "pTokenPrice",
					"type": "uint256"
				},
				{
					"indexed": false,
					"internalType": "uint88",
					"name": "rate",
					"type": "uint88"
				}
			],
			"name": "LedgerLog",
			"type": "event"
		},
		{
			"inputs": [
				{
					"components": [
						{
							"internalType": "uint256",
							"name": "mortgageAssets",
							"type": "uint256"
						},
						{
							"internalType": "uint256",
							"name": "parassetAssets",
							"type": "uint256"
						},
						{
							"internalType": "uint160",
							"name": "blockHeight",
							"type": "uint160"
						},
						{
							"internalType": "uint88",
							"name": "rate",
							"type": "uint88"
						}
					],
					"internalType": "struct MortgagePool.PersonalLedger",
					"name": "pLedger",
					"type": "tuple"
				},
				{
					"internalType": "uint256",
					"name": "tokenPrice",
					"type": "uint256"
				},
				{
					"internalType": "uint256",
					"name": "pTokenPrice",
					"type": "uint256"
				},
				{
					"internalType": "uint80",
					"name": "kValue",
					"type": "uint80"
				},
				{
					"internalType": "uint40",
					"name": "r0Value",
					"type": "uint40"
				}
			],
			"name": "_checkLine",
			"outputs": [],
			"stateMutability": "view",
			"type": "function"
		},
		{
			"inputs": [],
			"name": "_governance",
			"outputs": [
				{
					"internalType": "address",
					"name": "",
					"type": "address"
				}
			],
			"stateMutability": "view",
			"type": "function"
		},
		{
			"inputs": [
				{
					"internalType": "address",
					"name": "mortgageToken",
					"type": "address"
				},
				{
					"internalType": "uint256",
					"name": "amount",
					"type": "uint256"
				},
				{
					"internalType": "uint88",
					"name": "rate",
					"type": "uint88"
				}
			],
			"name": "coin",
			"outputs": [],
			"stateMutability": "payable",
			"type": "function"
		},
		{
			"inputs": [
				{
					"internalType": "address",
					"name": "mortgageToken",
					"type": "address"
				},
				{
					"internalType": "uint256",
					"name": "amount",
					"type": "uint256"
				}
			],
			"name": "decrease",
			"outputs": [],
			"stateMutability": "payable",
			"type": "function"
		},
		{
			"inputs": [
				{
					"internalType": "address",
					"name": "inputToken",
					"type": "address"
				},
				{
					"internalType": "uint256",
					"name": "inputTokenAmount",
					"type": "uint256"
				},
				{
					"internalType": "address",
					"name": "outputToken",
					"type": "address"
				}
			],
			"name": "getDecimalConversion",
			"outputs": [
				{
					"internalType": "uint256",
					"name": "",
					"type": "uint256"
				}
			],
			"stateMutability": "view",
			"type": "function"
		},
		{
			"inputs": [
				{
					"internalType": "uint256",
					"name": "parassetAssets",
					"type": "uint256"
				},
				{
					"internalType": "uint160",
					"name": "blockHeight",
					"type": "uint160"
				},
				{
					"internalType": "uint256",
					"name": "rate",
					"type": "uint256"
				},
				{
					"internalType": "uint256",
					"name": "nowRate",
					"type": "uint256"
				},
				{
					"internalType": "uint40",
					"name": "r0Value",
					"type": "uint40"
				}
			],
			"name": "getFee",
			"outputs": [
				{
					"internalType": "uint256",
					"name": "",
					"type": "uint256"
				}
			],
			"stateMutability": "view",
			"type": "function"
		},
		{
			"inputs": [],
			"name": "getFlag",
			"outputs": [
				{
					"internalType": "uint96",
					"name": "",
					"type": "uint96"
				}
			],
			"stateMutability": "view",
			"type": "function"
		},
		{
			"inputs": [
				{
					"internalType": "address",
					"name": "mortgageToken",
					"type": "address"
				},
				{
					"internalType": "uint256",
					"name": "tokenPrice",
					"type": "uint256"
				},
				{
					"internalType": "uint256",
					"name": "uTokenPrice",
					"type": "uint256"
				},
				{
					"internalType": "uint88",
					"name": "maxRateNum",
					"type": "uint88"
				},
				{
					"internalType": "address",
					"name": "owner",
					"type": "address"
				}
			],
			"name": "getInfoRealTime",
			"outputs": [
				{
					"internalType": "uint256",
					"name": "fee",
					"type": "uint256"
				},
				{
					"internalType": "uint256",
					"name": "mortgageRate",
					"type": "uint256"
				},
				{
					"internalType": "uint256",
					"name": "maxSubM",
					"type": "uint256"
				},
				{
					"internalType": "uint256",
					"name": "maxAddP",
					"type": "uint256"
				}
			],
			"stateMutability": "view",
			"type": "function"
		},
		{
			"inputs": [],
			"name": "getInsurancePool",
			"outputs": [
				{
					"internalType": "address",
					"name": "",
					"type": "address"
				}
			],
			"stateMutability": "view",
			"type": "function"
		},
		{
			"inputs": [
				{
					"internalType": "address",
					"name": "mortgageToken",
					"type": "address"
				}
			],
			"name": "getK",
			"outputs": [
				{
					"internalType": "uint256",
					"name": "",
					"type": "uint256"
				}
			],
			"stateMutability": "view",
			"type": "function"
		},
		{
			"inputs": [
				{
					"internalType": "address",
					"name": "mortgageToken",
					"type": "address"
				},
				{
					"internalType": "address",
					"name": "owner",
					"type": "address"
				}
			],
			"name": "getLedger",
			"outputs": [
				{
					"internalType": "uint256",
					"name": "mortgageAssets",
					"type": "uint256"
				},
				{
					"internalType": "uint256",
					"name": "parassetAssets",
					"type": "uint256"
				},
				{
					"internalType": "uint160",
					"name": "blockHeight",
					"type": "uint160"
				},
				{
					"internalType": "uint88",
					"name": "rate",
					"type": "uint88"
				},
				{
					"internalType": "bool",
					"name": "created",
					"type": "bool"
				}
			],
			"stateMutability": "view",
			"type": "function"
		},
		{
			"inputs": [
				{
					"internalType": "address",
					"name": "mortgageToken",
					"type": "address"
				}
			],
			"name": "getLedgerArrayNum",
			"outputs": [
				{
					"internalType": "uint256",
					"name": "",
					"type": "uint256"
				}
			],
			"stateMutability": "view",
			"type": "function"
		},
		{
			"inputs": [
				{
					"internalType": "address",
					"name": "mortgageToken",
					"type": "address"
				},
				{
					"internalType": "address",
					"name": "owner",
					"type": "address"
				}
			],
			"name": "getLedgerIndex",
			"outputs": [
				{
					"internalType": "uint256",
					"name": "",
					"type": "uint256"
				}
			],
			"stateMutability": "view",
			"type": "function"
		},
		{
			"inputs": [
				{
					"internalType": "address",
					"name": "mortgageToken",
					"type": "address"
				}
			],
			"name": "getLiquidateRate",
			"outputs": [
				{
					"internalType": "uint40",
					"name": "",
					"type": "uint40"
				}
			],
			"stateMutability": "view",
			"type": "function"
		},
		{
			"inputs": [
				{
					"internalType": "address",
					"name": "mortgageToken",
					"type": "address"
				}
			],
			"name": "getMaxRate",
			"outputs": [
				{
					"internalType": "uint88",
					"name": "",
					"type": "uint88"
				}
			],
			"stateMutability": "view",
			"type": "function"
		},
		{
			"inputs": [
				{
					"internalType": "uint256",
					"name": "mortgageAssets",
					"type": "uint256"
				},
				{
					"internalType": "uint256",
					"name": "parassetAssets",
					"type": "uint256"
				},
				{
					"internalType": "uint256",
					"name": "tokenPrice",
					"type": "uint256"
				},
				{
					"internalType": "uint256",
					"name": "pTokenPrice",
					"type": "uint256"
				}
			],
			"name": "getMortgageRate",
			"outputs": [
				{
					"internalType": "uint256",
					"name": "",
					"type": "uint256"
				}
			],
			"stateMutability": "view",
			"type": "function"
		},
		{
			"inputs": [],
			"name": "getOneYear",
			"outputs": [
				{
					"internalType": "uint96",
					"name": "",
					"type": "uint96"
				}
			],
			"stateMutability": "view",
			"type": "function"
		},
		{
			"inputs": [],
			"name": "getPTokenAddress",
			"outputs": [
				{
					"internalType": "address",
					"name": "",
					"type": "address"
				}
			],
			"stateMutability": "view",
			"type": "function"
		},
		{
			"inputs": [],
			"name": "getPriceController",
			"outputs": [
				{
					"internalType": "address",
					"name": "",
					"type": "address"
				}
			],
			"stateMutability": "view",
			"type": "function"
		},
		{
			"inputs": [
				{
					"internalType": "address",
					"name": "mortgageToken",
					"type": "address"
				}
			],
			"name": "getR0",
			"outputs": [
				{
					"internalType": "uint40",
					"name": "",
					"type": "uint40"
				}
			],
			"stateMutability": "view",
			"type": "function"
		},
		{
			"inputs": [],
			"name": "getUnderlyingToken",
			"outputs": [
				{
					"internalType": "address",
					"name": "",
					"type": "address"
				}
			],
			"stateMutability": "view",
			"type": "function"
		},
		{
			"inputs": [
				{
					"internalType": "address",
					"name": "mortgageToken",
					"type": "address"
				},
				{
					"internalType": "uint256",
					"name": "amount",
					"type": "uint256"
				}
			],
			"name": "increaseCoinage",
			"outputs": [],
			"stateMutability": "payable",
			"type": "function"
		},
		{
			"inputs": [
				{
					"internalType": "address",
					"name": "governance",
					"type": "address"
				}
			],
			"name": "initialize",
			"outputs": [],
			"stateMutability": "nonpayable",
			"type": "function"
		},
		{
			"inputs": [
				{
					"internalType": "address",
					"name": "mortgageToken",
					"type": "address"
				},
				{
					"internalType": "address",
					"name": "account",
					"type": "address"
				},
				{
					"internalType": "uint256",
					"name": "amount",
					"type": "uint256"
				},
				{
					"internalType": "uint256",
					"name": "pTokenAmountLimit",
					"type": "uint256"
				}
			],
			"name": "liquidation",
			"outputs": [],
			"stateMutability": "payable",
			"type": "function"
		},
		{
			"inputs": [
				{
					"internalType": "address",
					"name": "mortgageToken",
					"type": "address"
				},
				{
					"internalType": "uint256",
					"name": "amount",
					"type": "uint256"
				}
			],
			"name": "reducedCoinage",
			"outputs": [],
			"stateMutability": "payable",
			"type": "function"
		},
		{
			"inputs": [
				{
					"internalType": "address",
					"name": "pTokenAdd",
					"type": "address"
				},
				{
					"internalType": "uint96",
					"name": "oneYear",
					"type": "uint96"
				},
				{
					"internalType": "address",
					"name": "underlyingTokenAdd",
					"type": "address"
				},
				{
					"internalType": "uint96",
					"name": "flag",
					"type": "uint96"
				}
			],
			"name": "setConfig",
			"outputs": [],
			"stateMutability": "nonpayable",
			"type": "function"
		},
		{
			"inputs": [
				{
					"internalType": "uint96",
					"name": "num",
					"type": "uint96"
				}
			],
			"name": "setFlag",
			"outputs": [],
			"stateMutability": "nonpayable",
			"type": "function"
		},
		{
			"inputs": [
				{
					"internalType": "address",
					"name": "uToken",
					"type": "address"
				},
				{
					"internalType": "address",
					"name": "pToken",
					"type": "address"
				}
			],
			"name": "setInfo",
			"outputs": [],
			"stateMutability": "nonpayable",
			"type": "function"
		},
		{
			"inputs": [
				{
					"internalType": "address",
					"name": "add",
					"type": "address"
				}
			],
			"name": "setInsurancePool",
			"outputs": [],
			"stateMutability": "nonpayable",
			"type": "function"
		},
		{
			"inputs": [
				{
					"internalType": "address",
					"name": "mortgageToken",
					"type": "address"
				},
				{
					"internalType": "uint80",
					"name": "num",
					"type": "uint80"
				}
			],
			"name": "setK",
			"outputs": [],
			"stateMutability": "nonpayable",
			"type": "function"
		},
		{
			"inputs": [
				{
					"internalType": "address",
					"name": "mortgageToken",
					"type": "address"
				},
				{
					"internalType": "uint40",
					"name": "num",
					"type": "uint40"
				}
			],
			"name": "setLiquidateRate",
			"outputs": [],
			"stateMutability": "nonpayable",
			"type": "function"
		},
		{
			"inputs": [
				{
					"internalType": "address",
					"name": "mortgageToken",
					"type": "address"
				},
				{
					"internalType": "uint88",
					"name": "num",
					"type": "uint88"
				}
			],
			"name": "setMaxRate",
			"outputs": [],
			"stateMutability": "nonpayable",
			"type": "function"
		},
		{
			"inputs": [
				{
					"internalType": "address",
					"name": "mortgageToken",
					"type": "address"
				},
				{
					"internalType": "bool",
					"name": "allow",
					"type": "bool"
				}
			],
			"name": "setMortgageAllow",
			"outputs": [],
			"stateMutability": "nonpayable",
			"type": "function"
		},
		{
			"inputs": [
				{
					"internalType": "uint96",
					"name": "num",
					"type": "uint96"
				}
			],
			"name": "setOneYear",
			"outputs": [],
			"stateMutability": "nonpayable",
			"type": "function"
		},
		{
			"inputs": [
				{
					"internalType": "address",
					"name": "add",
					"type": "address"
				}
			],
			"name": "setPriceController",
			"outputs": [],
			"stateMutability": "nonpayable",
			"type": "function"
		},
		{
			"inputs": [
				{
					"internalType": "address",
					"name": "mortgageToken",
					"type": "address"
				},
				{
					"internalType": "uint40",
					"name": "num",
					"type": "uint40"
				}
			],
			"name": "setR0",
			"outputs": [],
			"stateMutability": "nonpayable",
			"type": "function"
		},
		{
			"inputs": [
				{
					"internalType": "address",
					"name": "mortgageToken",
					"type": "address"
				},
				{
					"internalType": "uint256",
					"name": "amount",
					"type": "uint256"
				}
			],
			"name": "supplement",
			"outputs": [],
			"stateMutability": "payable",
			"type": "function"
		},
		{
			"inputs": [
				{
					"internalType": "address",
					"name": "newGovernance",
					"type": "address"
				}
			],
			"name": "update",
			"outputs": [],
			"stateMutability": "nonpayable",
			"type": "function"
		}
	]
}