{
	"data": {
		"bytecode": {
			"linkReferences": {},
			"object": "608060405234801561001057600080fd5b50613b91806100206000396000f3fe60806040526004361061020f5760003560e01c8063983825de11610118578063cb919485116100a0578063f1a4252e1161006f578063f1a4252e146106ee578063f27ac4d914610727578063f90815911461073a578063f96339301461075a578063fb606f921461077f57600080fd5b8063cb91948514610672578063d0d5665b14610692578063e82c1f44146106b0578063ee719bc8146106d057600080fd5b8063a99c53b3116100e7578063a99c53b314610596578063b862bc7b146105f2578063beefcbcf14610612578063c2862d6714610632578063c4d66de81461065257600080fd5b8063983825de1461051a578063a240b9a81461052d578063a831407f14610540578063a94c487e1461057657600080fd5b80633a97bb251161019b5780635e0ec98f1161016a5780635e0ec98f1461042957806378a35320146104495780637ff4d02f1461045c578063800c2b391461047c57806390f5cb09146104bc57600080fd5b80633a97bb25146103ba5780633cf045a4146103cd5780633f849820146103eb57806342d177451461040b57600080fd5b8063219f7753116101e2578063219f7753146102e757806325404c4f146102fa57806328107acf1461035a578063306aceda1461037a5780633376cb371461039a57600080fd5b80630daa6d11146102145780631c1b8772146102365780631c2f3e3d146102565780631e0f672514610293575b600080fd5b34801561022057600080fd5b5061023461022f3660046135d8565b61079f565b005b34801561024257600080fd5b506102346102513660046133a7565b610876565b34801561026257600080fd5b50600154610276906001600160a01b031681565b6040516001600160a01b0390911681526020015b60405180910390f35b34801561029f57600080fd5b506102d96102ae3660046133a7565b6001600160a01b0316600090815260046020526040902054600160601b90046001600160501b031690565b60405190815260200161028a565b6102346102f5366004613402565b610949565b34801561030657600080fd5b5061031a6103153660046133ca565b610d32565b6040805195865260208601949094526001600160a01b03909216928401929092526001600160581b0390911660608301521515608082015260a00161028a565b34801561036657600080fd5b50610234610375366004613579565b610e06565b34801561038657600080fd5b506102346103953660046137c6565b610eeb565b3480156103a657600080fd5b506102346103b53660046137c6565b610fb2565b6102346103c836600461353c565b611079565b3480156103d957600080fd5b506006546001600160a01b0316610276565b3480156103f757600080fd5b506102346104063660046133a7565b61154e565b34801561041757600080fd5b506002546001600160a01b0316610276565b34801561043557600080fd5b506102346104443660046135ad565b61160f565b610234610457366004613474565b6116f1565b34801561046857600080fd5b506102d9610477366004613774565b611a17565b34801561048857600080fd5b5061049c6104973660046134e0565b611a5c565b60408051948552602085019390935291830152606082015260800161028a565b3480156104c857600080fd5b506105026104d73660046133a7565b6001600160a01b0316600090815260046020526040902054600160b01b90046001600160501b031690565b6040516001600160501b03909116815260200161028a565b610234610528366004613474565b611c9b565b61023461053b366004613474565b61208e565b34801561054c57600080fd5b506102d961055b3660046133a7565b6001600160a01b031660009081526005602052604090205490565b34801561058257600080fd5b506102346105913660046133a7565b6123d3565b3480156105a257600080fd5b506105da6105b13660046133a7565b6001600160a01b031660009081526004602052604090205461010090046001600160581b031690565b6040516001600160581b03909116815260200161028a565b3480156105fe57600080fd5b5061023461060d36600461364b565b612494565b34801561061e57600080fd5b5061023461062d366004613579565b6125a5565b34801561063e57600080fd5b5061023461064d366004613447565b612683565b34801561065e57600080fd5b5061023461066d3660046133a7565b61274d565b34801561067e57600080fd5b506102d961068d3660046133ca565b6127cc565b34801561069e57600080fd5b506007546001600160a01b0316610276565b3480156106bc57600080fd5b506102d96106cb36600461370c565b6127fd565b3480156106dc57600080fd5b506003546001600160a01b0316610276565b3480156106fa57600080fd5b50600254600160a01b90046001600160601b03165b6040516001600160601b03909116815260200161028a565b610234610735366004613474565b6128a9565b34801561074657600080fd5b506102d961075536600461349f565b612c4d565b34801561076657600080fd5b50600354600160a01b90046001600160601b031661070f565b34801561078b57600080fd5b5061023461079a3660046133ca565b612d92565b6001546040516391e1472b60e01b81526001600160a01b03909116906391e1472b906107d2903390600090600401613819565b60206040518083038186803b1580156107ea57600080fd5b505afa1580156107fe573d6000803e3d6000fd5b505050506040513d601f19601f82011682018060405250810190610822919061362f565b6108475760405162461bcd60e51b815260040161083e90613913565b60405180910390fd5b6001600160601b03928316600160a01b9081026001600160a01b03958616176002559216909102911617600355565b6001546001600160a01b03163381148061090a57506040516391e1472b60e01b81526001600160a01b038216906391e1472b906108ba903390600090600401613819565b60206040518083038186803b1580156108d257600080fd5b505afa1580156108e6573d6000803e3d6000fd5b505050506040513d601f19601f8201168201806040525081019061090a919061362f565b6109265760405162461bcd60e51b815260040161083e90613913565b50600180546001600160a01b0319166001600160a01b0392909216919091179055565b600354600160a01b90046001600160601b03166109785760405162461bcd60e51b815260040161083e90613979565b600054156109985760405162461bcd60e51b815260040161083e906138a5565b600160009081556001600160a01b0385168152600460209081526040918290208251608081018452905460ff811615158083526001600160581b03610100830416938301939093526001600160501b03600160601b8204811694830194909452600160b01b90049092166060830152610a235760405162461bcd60e51b815260040161083e90613942565b6001600160a01b03808616600090815260056020908152604080832093881683526001840190915290205480610a6b5760405162461bcd60e51b815260040161083e906138dc565b600082610a79600184613ae8565b81548110610a9757634e487b7160e01b600052603260045260246000fd5b6000918252602090912060039091020160018101548154919250908715801590610ac15750808811155b610add5760405162461bcd60e51b815260040161083e9061386e565b600080610aea8c34612e62565b60408051608081018252885481526001890154602082015260028901546001600160a01b03811682840152600160a01b90046001600160581b0316606080830191909152918c0151918c0151939550919350610b499285918591612494565b6000610b56836064613ac9565b610b60838d613ac9565b610b6b90605a613ac9565b610b7591906139be565b905089811115610bd35760405162461bcd60e51b815260206004820152602360248201527f4c6f673a4d6f727467616765506f6f6c3a2170546f6b656e416d6f756e744c696044820152621b5a5d60ea1b606482015260840161083e565b600254600754610bf2916001600160a01b039081169133911684612f01565b600084610bff8d88613ac9565b610c0991906139be565b6007546040516245b14b60e71b8152600481018390529192506001600160a01b0316906322d8a58090602401600060405180830381600087803b158015610c4f57600080fd5b505af1158015610c63573d6000803e3d6000fd5b505050508b85610c739190613ae8565b8755610c7f8187613ae8565b8760010181905550600080516020613b3c8339815191528e8860000154896001015487878c60020160149054906101000a90046001600160581b0316604051610ccd96959493929190613832565b60405180910390a18654610cf557600060018801556002870180546001600160f81b03191690555b6001600160a01b038e1615610d1457610d0f8e338e613031565b610d1e565b610d1e338d61314e565b505060008055505050505050505050505050565b6001600160a01b0380831660009081526005602090815260408083209385168352600180850190925282205491928392839283928392909183918391610d7791613ae8565b81548110610d9557634e487b7160e01b600052603260045260246000fd5b60009182526020918290206040805160808101825260039390930290910180548084526001808301549585018690526002909201546001600160a01b038116938501849052600160a01b90046001600160581b031660609094018490529d939c50909a509098509650945050505050565b6001546040516391e1472b60e01b81526001600160a01b03909116906391e1472b90610e39903390600090600401613819565b60206040518083038186803b158015610e5157600080fd5b505afa158015610e65573d6000803e3d6000fd5b505050506040513d601f19601f82011682018060405250810190610e89919061362f565b610ea55760405162461bcd60e51b815260040161083e90613913565b6001600160a01b03909116600090815260046020526040902080546001600160501b03909216600160601b0269ffffffffffffffffffff60601b19909216919091179055565b6001546040516391e1472b60e01b81526001600160a01b03909116906391e1472b90610f1e903390600090600401613819565b60206040518083038186803b158015610f3657600080fd5b505afa158015610f4a573d6000803e3d6000fd5b505050506040513d601f19601f82011682018060405250810190610f6e919061362f565b610f8a5760405162461bcd60e51b815260040161083e90613913565b600380546001600160601b03909216600160a01b026001600160a01b03909216919091179055565b6001546040516391e1472b60e01b81526001600160a01b03909116906391e1472b90610fe5903390600090600401613819565b60206040518083038186803b158015610ffd57600080fd5b505afa158015611011573d6000803e3d6000fd5b505050506040513d601f19601f82011682018060405250810190611035919061362f565b6110515760405162461bcd60e51b815260040161083e90613913565b600280546001600160601b03909216600160a01b026001600160a01b03909216919091179055565b6003546001600160601b03600160a01b909104166001146110d75760405162461bcd60e51b81526020600482015260186024820152774c6f673a4d6f727467616765506f6f6c3a2161637469766560401b604482015260640161083e565b600054156110f75760405162461bcd60e51b815260040161083e906138a5565b600160009081556001600160a01b0384168152600460209081526040918290208251608081018452905460ff811615158083526001600160581b03610100830416938301939093526001600160501b03600160601b8204811694830194909452600160b01b900490921660608301526111825760405162461bcd60e51b815260040161083e90613942565b6000826001600160581b03161180156111b1575080602001516001600160581b0316826001600160581b031611155b6111fd5760405162461bcd60e51b815260206004820152601860248201527f4c6f673a4d6f727467616765506f6f6c3a72617465213d300000000000000000604482015260640161083e565b6000831161124d5760405162461bcd60e51b815260206004820152601a60248201527f4c6f673a4d6f727467616765506f6f6c3a616d6f756e74213d30000000000000604482015260640161083e565b6001600160a01b038416600090815260056020908152604080832033845260018101909252909120548061129857815460019081018084553360009081529184016020526040909120555b3360009081526001808401602052604082205484916112b691613ae8565b815481106112d457634e487b7160e01b600052603260045260246000fd5b600091825260208220600160039092020190810154815491935091806001600160a01b038b161561131f5761130b8b33308d612f01565b6113158b34612e62565b9092509050611388565b8934101561136f5760405162461bcd60e51b815260206004820152601b60248201527f4c6f673a4d6f727467616765506f6f6c3a216d73672e76616c75650000000000604482015260640161083e565b6113828b61137d8c34613ae8565b612e62565b90925090505b60408051608081018252865481526001870154602082015260028701546001600160a01b03811692820192909252600160a01b9091046001600160581b03166060808301919091528901516113e191908490849061321c565b60006113f083620186a0613ac9565b6001600160581b038b16611404848e613ac9565b61140e9190613ac9565b61141891906139be565b6002546040516313b1db0b60e31b8152600481018390523360248201529192506001600160a01b031690639d8ed85890604401600060405180830381600087803b15801561146557600080fd5b505af1158015611479573d6000803e3d6000fd5b505050508a8461148991906139a6565b865561149581866139a6565b600187018190556002870180546001600160a01b031916436001600160a01b031617905586546114c6918585611a17565b8660020160146101000a8154816001600160581b0302191690836001600160581b03160217905550600080516020613b3c8339815191528c8760000154886001015486868b60020160149054906101000a90046001600160581b031660405161153496959493929190613832565b60405180910390a150506000805550505050505050505050565b6001546040516391e1472b60e01b81526001600160a01b03909116906391e1472b90611581903390600090600401613819565b60206040518083038186803b15801561159957600080fd5b505afa1580156115ad573d6000803e3d6000fd5b505050506040513d601f19601f820116820180604052508101906115d1919061362f565b6115ed5760405162461bcd60e51b815260040161083e90613913565b600680546001600160a01b0319166001600160a01b0392909216919091179055565b6001546040516391e1472b60e01b81526001600160a01b03909116906391e1472b90611642903390600090600401613819565b60206040518083038186803b15801561165a57600080fd5b505afa15801561166e573d6000803e3d6000fd5b505050506040513d601f19601f82011682018060405250810190611692919061362f565b6116ae5760405162461bcd60e51b815260040161083e90613913565b6001600160a01b03909116600090815260046020526040902080546001600160581b03909216610100026bffffffffffffffffffffff0019909216919091179055565b600354600160a01b90046001600160601b03166117205760405162461bcd60e51b815260040161083e90613979565b600054156117405760405162461bcd60e51b815260040161083e906138a5565b600160009081556001600160a01b0383168152600460209081526040918290208251608081018452905460ff811615158083526001600160581b03610100830416938301939093526001600160501b03600160601b8204811694830194909452600160b01b900490921660608301526117cb5760405162461bcd60e51b815260040161083e90613942565b6001600160a01b03831660009081526005602090815260408083203384526001810190925290912054806118115760405162461bcd60e51b815260040161083e906138dc565b60008261181f600184613ae8565b8154811061183d57634e487b7160e01b600052603260045260246000fd5b60009182526020909120600390910201600181015481549192509086158015906118675750818711155b6118835760405162461bcd60e51b815260040161083e9061386e565b6000806118908a34612e62565b60408051608081018252885481526001890154602082015260028901546001600160a01b03811692820192909252600160a01b9091046001600160581b03166060808301919091528b01519294509092506118ee918490849061321c565b6118f88985613ae8565b600186018190556002860180546001600160a01b031916436001600160a01b03161790556119299084908484611a17565b8560020160146101000a8154816001600160581b0302191690836001600160581b03160217905550600080516020613b3c8339815191528a8660000154876001015485858a60020160149054906101000a90046001600160581b031660405161199796959493929190613832565b60405180910390a16002546119b7906001600160a01b031633308c612f01565b6002546040516346f61ed560e11b8152600481018b90523060248201526001600160a01b0390911690638dec3daa90604401600060405180830381600087803b158015611a0357600080fd5b505af1158015610d1e573d6000803e3d6000fd5b600084611a2657506000611a54565b611a308583613ac9565b611a3a8486613ac9565b611a4790620186a0613ac9565b611a5191906139be565b90505b949350505050565b6001600160a01b0380861660009081526005602090815260408083209385168352600180850190925282205491928392839283928b92909184918391611aa191613ae8565b81548110611abf57634e487b7160e01b600052603260045260246000fd5b60009182526020918290206040805160808101825260039093029091018054808452600182015494840194909452600201546001600160a01b038116918301919091526001600160581b03600160a01b9091041660608201529150158015611b2957506020810151155b15611b44576000806000809650965096509650505050611c8f565b600354600254600091611b65916001600160a01b03918216918e9116612c4d565b60208301516040840151606085015185519394508f93611bc59392916001600160581b031690611b9790848789611a17565b6001600160a01b038a16600090815260046020526040902054600160b01b90046001600160501b03166127fd565b9850611be683600001518a8560200151611bdf91906139a6565b8385611a17565b97506001600160581b038b16808910611c06576000975060009650611c88565b611c108382613ac9565b828560200151611c209190613ac9565b611c2d90620186a0613ac9565b611c3791906139be565b8451611c439190613ae8565b6020850151909850611c5883620186a0613ac9565b85518390611c67908790613ac9565b611c719190613ac9565b611c7b91906139be565b611c859190613ae8565b96505b5050505050505b95509550955095915050565b6003546001600160601b03600160a01b90910416600114611cf95760405162461bcd60e51b81526020600482015260186024820152774c6f673a4d6f727467616765506f6f6c3a2161637469766560401b604482015260640161083e565b60005415611d195760405162461bcd60e51b815260040161083e906138a5565b600160009081556001600160a01b0383168152600460209081526040918290208251608081018452905460ff811615158083526001600160581b03610100830416938301939093526001600160501b03600160601b8204811694830194909452600160b01b90049092166060830152611da45760405162461bcd60e51b815260040161083e90613942565b60008211611dc45760405162461bcd60e51b815260040161083e9061386e565b6001600160a01b0383166000908152600560209081526040808320338452600181019092529091205480611e0a5760405162461bcd60e51b815260040161083e906138dc565b600082611e18600184613ae8565b81548110611e3657634e487b7160e01b600052603260045260246000fd5b60009182526020909120600390910201600181015481549192509080611e9e5760405162461bcd60e51b815260206004820181905260248201527f4c6f673a4d6f727467616765506f6f6c3a216d6f727467616765417373657473604482015260640161083e565b600080611eab8a34612e62565b60408051608081018252885481526001890154602082015260028901546001600160a01b03811692820192909252600160a01b9091046001600160581b03166060808301919091528b0151929450909250611f09918490849061321c565b611f1389856139a6565b600186018190556002860180546001600160a01b031916436001600160a01b0316179055600090611f479085908585611a17565b905088602001516001600160581b0316811115611fa25760405162461bcd60e51b81526020600482015260196024820152784c6f673a4d6f727467616765506f6f6c3a216d61785261746560381b604482015260640161083e565b808660020160146101000a8154816001600160581b0302191690836001600160581b03160217905550600080516020613b3c8339815191528b8760000154886001015486868b60020160149054906101000a90046001600160581b031660405161201196959493929190613832565b60405180910390a16002546040516313b1db0b60e31b8152600481018c90523360248201526001600160a01b0390911690639d8ed85890604401600060405180830381600087803b15801561206557600080fd5b505af1158015612079573d6000803e3d6000fd5b50506000805550505050505050505050505050565b600354600160a01b90046001600160601b03166120bd5760405162461bcd60e51b815260040161083e90613979565b600054156120dd5760405162461bcd60e51b815260040161083e906138a5565b600160009081556001600160a01b0383168152600460209081526040918290208251608081018452905460ff811615158083526001600160581b03610100830416938301939093526001600160501b03600160601b8204811694830194909452600160b01b900490921660608301526121685760405162461bcd60e51b815260040161083e90613942565b600082116121885760405162461bcd60e51b815260040161083e9061386e565b6001600160a01b03831660009081526005602090815260408083203384526001810190925290912054806121d357815460019081018084553360009081529184016020526040909120555b3360009081526001808401602052604082205484916121f191613ae8565b8154811061220f57634e487b7160e01b600052603260045260246000fd5b600091825260208220600160039092020190810154815491935091806001600160a01b038a161561225a576122468a33308c612f01565b6122508a34612e62565b90925090506122be565b883410156122aa5760405162461bcd60e51b815260206004820152601b60248201527f4c6f673a4d6f727467616765506f6f6c3a216d73672e76616c75650000000000604482015260640161083e565b6122b88a61137d8b34613ae8565b90925090505b60408051608081018252865481526001870154602082015260028701546001600160a01b03811692820192909252600160a01b9091046001600160581b031660608083019190915289015161231791908490849061321c565b61232189846139a6565b8086556002860180546001600160a01b031916436001600160a01b031617905561234d90858484611a17565b8560020160146101000a8154816001600160581b0302191690836001600160581b03160217905550600080516020613b3c8339815191528a8660000154876001015485858a60020160149054906101000a90046001600160581b03166040516123bb96959493929190613832565b60405180910390a15050600080555050505050505050565b6001546040516391e1472b60e01b81526001600160a01b03909116906391e1472b90612406903390600090600401613819565b60206040518083038186803b15801561241e57600080fd5b505afa158015612432573d6000803e3d6000fd5b505050506040513d601f19601f82011682018060405250810190612456919061362f565b6124725760405162461bcd60e51b815260040161083e90613913565b600780546001600160a01b0319166001600160a01b0392909216919091179055565b6020850151855160006124a982848989611a17565b604089015190915060009084158015906124cb5750806001600160a01b031643115b80156124df57506001600160a01b03811615155b15612501576124fe85828c606001516001600160581b0316868a6127fd565b91505b8761250f85620186a0613ac9565b8a6001600160501b038a16612524868a6139a6565b61252e9190613ac9565b6125389190613ac9565b61254291906139be565b116125995760405162461bcd60e51b815260206004820152602160248201527f4c6f673a4d6f727467616765506f6f6c3a216c69717569646174696f6e4c696e6044820152606560f81b606482015260840161083e565b50505050505050505050565b6001546040516391e1472b60e01b81526001600160a01b03909116906391e1472b906125d8903390600090600401613819565b60206040518083038186803b1580156125f057600080fd5b505afa158015612604573d6000803e3d6000fd5b505050506040513d601f19601f82011682018060405250810190612628919061362f565b6126445760405162461bcd60e51b815260040161083e90613913565b6001600160a01b03909116600090815260046020526040902080546001600160501b03909216600160b01b026001600160b01b03909216919091179055565b6001546040516391e1472b60e01b81526001600160a01b03909116906391e1472b906126b6903390600090600401613819565b60206040518083038186803b1580156126ce57600080fd5b505afa1580156126e2573d6000803e3d6000fd5b505050506040513d601f19601f82011682018060405250810190612706919061362f565b6127225760405162461bcd60e51b815260040161083e90613913565b6001600160a01b03919091166000908152600460205260409020805460ff1916911515919091179055565b6001546001600160a01b0316156127a65760405162461bcd60e51b815260206004820152601b60248201527f4c6f673a50617261737365744261736521696e697469616c697a650000000000604482015260640161083e565b600180546001600160a01b0319166001600160a01b039290921691909117905560008055565b6001600160a01b03808316600090815260056020908152604080832093851683526001909301905220545b92915050565b6000806128136001600160a01b03871643613ae8565b6001600160501b0384168861282887896139a6565b612833906003613ac9565b6128409062030d406139a6565b61284a9190613ac9565b6128549190613ac9565b61285e9190613ac9565b60025490915060009061288690600160a01b90046001600160601b03166402540be400613ac9565b612891906002613ac9565b905061289d81836139be565b98975050505050505050565b600354600160a01b90046001600160601b03166128d85760405162461bcd60e51b815260040161083e90613979565b600054156128f85760405162461bcd60e51b815260040161083e906138a5565b600160009081556001600160a01b0383168152600460209081526040918290208251608081018452905460ff811615158083526001600160581b03610100830416938301939093526001600160501b03600160601b8204811694830194909452600160b01b900490921660608301526129835760405162461bcd60e51b815260040161083e90613942565b6001600160a01b03831660009081526005602090815260408083203384526001810190925290912054806129c95760405162461bcd60e51b815260040161083e906138dc565b6000826129d7600184613ae8565b815481106129f557634e487b7160e01b600052603260045260246000fd5b6000918252602090912060039091020160018101548154919250908615801590612a1f5750808711155b612a3b5760405162461bcd60e51b815260040161083e9061386e565b600080612a488a34612e62565b60408051608081018252885481526001890154602082015260028901546001600160a01b03811692820192909252600160a01b9091046001600160581b03166060808301919091528b0151929450909250612aa6918490849061321c565b612ab08984613ae8565b8086556002860180546001600160a01b031916436001600160a01b0316179055612b2b57600185015415612b265760405162461bcd60e51b815260206004820181905260248201527f4c6f673a4d6f727467616765506f6f6c3a217061726173736574417373657473604482015260640161083e565b612bc9565b6000612b3d8660000154868585611a17565b905088602001516001600160581b0316811115612b985760405162461bcd60e51b81526020600482015260196024820152784c6f673a4d6f727467616765506f6f6c3a216d61785261746560381b604482015260640161083e565b6002860180546001600160581b03909216600160a01b026affffffffffffffffffffff60a01b199092169190911790555b845460018601546002870154604051600080516020613b3c83398151915293612c0c938f939192909188918891600160a01b90046001600160581b031690613832565b60405180910390a16001600160a01b038a1615612c3357612c2e8a338b613031565b612c3d565b612c3d338a61314e565b5050600080555050505050505050565b60006012806001600160a01b03861615612cd857856001600160a01b031663313ce5676040518163ffffffff1660e01b815260040160206040518083038186803b158015612c9a57600080fd5b505afa158015612cae573d6000803e3d6000fd5b505050506040513d601f19601f82011682018060405250810190612cd291906137a5565b60ff1691505b6001600160a01b03841615612d5e57836001600160a01b031663313ce5676040518163ffffffff1660e01b815260040160206040518083038186803b158015612d2057600080fd5b505afa158015612d34573d6000803e3d6000fd5b505050506040513d601f19601f82011682018060405250810190612d5891906137a5565b60ff1690505b612d6982600a613a21565b612d7482600a613a21565b612d7e9087613ac9565b612d8891906139be565b9695505050505050565b6001546040516391e1472b60e01b81526001600160a01b03909116906391e1472b90612dc5903390600090600401613819565b60206040518083038186803b158015612ddd57600080fd5b505afa158015612df1573d6000803e3d6000fd5b505050506040513d601f19601f82011682018060405250810190612e15919061362f565b612e315760405162461bcd60e51b815260040161083e90613913565b600280546001600160a01b039283166001600160a01b03199182161790915560038054939092169216919091179055565b600654600354604051630da33aa960e01b81526001600160a01b038581166004830152918216602482015233604482015260009283921690630da33aa990859060640160408051808303818588803b158015612ebd57600080fd5b505af1158015612ed1573d6000803e3d6000fd5b50505050506040513d601f19601f82011682018060405250810190612ef69190613751565b909590945092505050565b604080516001600160a01b0385811660248301528481166044830152606480830185905283518084039091018152608490920183526020820180516001600160e01b03166323b872dd60e01b1790529151600092839290881691612f6591906137e0565b6000604051808303816000865af19150503d8060008114612fa2576040519150601f19603f3d011682016040523d82523d6000602084013e612fa7565b606091505b5091509150818015612fd1575080511580612fd1575080806020019051810190612fd1919061362f565b6130295760405162461bcd60e51b8152602060048201526024808201527f5472616e7366657248656c7065723a205452414e534645525f46524f4d5f46416044820152631253115160e21b606482015260840161083e565b505050505050565b600080846001600160a01b031663a9059cbb8585604051602401613056929190613819565b6040516020818303038152906040529060e01b6020820180516001600160e01b03838183161783525050505060405161308f91906137e0565b6000604051808303816000865af19150503d80600081146130cc576040519150601f19603f3d011682016040523d82523d6000602084013e6130d1565b606091505b50915091508180156130fb5750805115806130fb5750808060200190518101906130fb919061362f565b6131475760405162461bcd60e51b815260206004820152601f60248201527f5472616e7366657248656c7065723a205452414e534645525f4641494c454400604482015260640161083e565b5050505050565b604080516000808252602082019092526001600160a01b03841690839060405161317891906137e0565b60006040518083038185875af1925050503d80600081146131b5576040519150601f19603f3d011682016040523d82523d6000602084013e6131ba565b606091505b50509050806132175760405162461bcd60e51b815260206004820152602360248201527f5472616e7366657248656c7065723a204554485f5452414e534645525f46414960448201526213115160ea1b606482015260840161083e565b505050565b60208401518451606086015160408701516001600160581b039091169083158015906132505750806001600160a01b031643115b801561326457506001600160a01b03811615155b1561334857600061328385838561327d888a8e8e611a17565b8a6127fd565b6002546007549192506132a5916001600160a01b039182169133911684612f01565b600760009054906101000a90046001600160a01b03166001600160a01b031663b7694a936040518163ffffffff1660e01b8152600401600060405180830381600087803b1580156132f557600080fd5b505af1158015613309573d6000803e3d6000fd5b505050507fd22f9c8c29c0808be6387686ac52381992fdeea23a23843e31ee581e653041828160405161333e91815260200190565b60405180910390a1505b5050505050505050565b803561335d81613b15565b919050565b80356001600160501b038116811461335d57600080fd5b80356001600160581b038116811461335d57600080fd5b80356001600160601b038116811461335d57600080fd5b6000602082840312156133b8578081fd5b81356133c381613b15565b9392505050565b600080604083850312156133dc578081fd5b82356133e781613b15565b915060208301356133f781613b15565b809150509250929050565b60008060008060808587031215613417578182fd5b843561342281613b15565b9350602085013561343281613b15565b93969395505050506040820135916060013590565b60008060408385031215613459578182fd5b823561346481613b15565b915060208301356133f781613b2d565b60008060408385031215613486578182fd5b823561349181613b15565b946020939093013593505050565b6000806000606084860312156134b3578283fd5b83356134be81613b15565b92506020840135915060408401356134d581613b15565b809150509250925092565b600080600080600060a086880312156134f7578081fd5b853561350281613b15565b9450602086013593506040860135925061351e60608701613379565b9150608086013561352e81613b15565b809150509295509295909350565b600080600060608486031215613550578283fd5b833561355b81613b15565b92506020840135915061357060408501613379565b90509250925092565b6000806040838503121561358b578182fd5b823561359681613b15565b91506135a460208401613362565b90509250929050565b600080604083850312156135bf578182fd5b82356135ca81613b15565b91506135a460208401613379565b600080600080608085870312156135ed578182fd5b84356135f881613b15565b935061360660208601613390565b9250604085013561361681613b15565b915061362460608601613390565b905092959194509250565b600060208284031215613640578081fd5b81516133c381613b2d565b6000806000806000858703610100811215613664578384fd5b6080811215613671578384fd5b506040516080810181811067ffffffffffffffff821117156136a157634e487b7160e01b85526041600452602485fd5b806040525086358152602087013560208201526136c060408801613352565b60408201526136d160608801613379565b606082015294506080860135935060a086013592506136f260c08701613362565b915061370060e08701613362565b90509295509295909350565b600080600080600060a08688031215613723578283fd5b85359450602086013561373581613b15565b9350604086013592506060860135915061370060808701613362565b60008060408385031215613763578182fd5b505080516020909101519092909150565b60008060008060808587031215613789578182fd5b5050823594602084013594506040840135936060013592509050565b6000602082840312156137b6578081fd5b815160ff811681146133c3578182fd5b6000602082840312156137d7578081fd5b6133c382613390565b60008251815b8181101561380057602081860181015185830152016137e6565b8181111561380e5782828501525b509190910192915050565b6001600160a01b03929092168252602082015260400190565b6001600160a01b0396909616865260208601949094526040850192909252606084015260808301526001600160581b031660a082015260c00190565b60208082526018908201527f4c6f673a4d6f727467616765506f6f6c3a21616d6f756e740000000000000000604082015260600190565b60208082526019908201527f4c6f673a5061726173736574426173653a215f6c6f636b656400000000000000604082015260600190565b60208082526018908201527f4c6f673a4d6f727467616765506f6f6c3a696e6465783d300000000000000000604082015260600190565b6020808252601590820152742637b39d2830b930b9b9b2ba2130b9b29d10b3b7bb60591b604082015260600190565b6020808252601f908201527f4c6f673a4d6f727467616765506f6f6c3a216d6f727467616765416c6c6f7700604082015260600190565b60208082526013908201527204c6f673a4d6f727467616765506f6f6c3a213606c1b604082015260600190565b600082198211156139b9576139b9613aff565b500190565b6000826139d957634e487b7160e01b81526012600452602481fd5b500490565b600181815b80851115613a195781600019048211156139ff576139ff613aff565b80851615613a0c57918102915b93841c93908002906139e3565b509250929050565b60006133c38383600082613a37575060016127f7565b81613a44575060006127f7565b8160018114613a5a5760028114613a6457613a80565b60019150506127f7565b60ff841115613a7557613a75613aff565b50506001821b6127f7565b5060208310610133831016604e8410600b8410161715613aa3575081810a6127f7565b613aad83836139de565b8060001904821115613ac157613ac1613aff565b029392505050565b6000816000190483118215151615613ae357613ae3613aff565b500290565b600082821015613afa57613afa613aff565b500390565b634e487b7160e01b600052601160045260246000fd5b6001600160a01b0381168114613b2a57600080fd5b50565b8015158114613b2a57600080fdfe36b08d1ec8ecd588007d14ea5be9edb9eeb4cdd2f952162d2d32d4b71a0126a2a26469706673582212201ee033c20f6c09a52b80336e8582edeab7aeffedafc36286730e6bd339d82b1064736f6c63430008040033",
			"opcodes": "PUSH1 0x80 PUSH1 0x40 MSTORE CALLVALUE DUP1 ISZERO PUSH2 0x10 JUMPI PUSH1 0x0 DUP1 REVERT JUMPDEST POP PUSH2 0x3B91 DUP1 PUSH2 0x20 PUSH1 0x0 CODECOPY PUSH1 0x0 RETURN INVALID PUSH1 0x80 PUSH1 0x40 MSTORE PUSH1 0x4 CALLDATASIZE LT PUSH2 0x20F JUMPI PUSH1 0x0 CALLDATALOAD PUSH1 0xE0 SHR DUP1 PUSH4 0x983825DE GT PUSH2 0x118 JUMPI DUP1 PUSH4 0xCB919485 GT PUSH2 0xA0 JUMPI DUP1 PUSH4 0xF1A4252E GT PUSH2 0x6F JUMPI DUP1 PUSH4 0xF1A4252E EQ PUSH2 0x6EE JUMPI DUP1 PUSH4 0xF27AC4D9 EQ PUSH2 0x727 JUMPI DUP1 PUSH4 0xF9081591 EQ PUSH2 0x73A JUMPI DUP1 PUSH4 0xF9633930 EQ PUSH2 0x75A JUMPI DUP1 PUSH4 0xFB606F92 EQ PUSH2 0x77F JUMPI PUSH1 0x0 DUP1 REVERT JUMPDEST DUP1 PUSH4 0xCB919485 EQ PUSH2 0x672 JUMPI DUP1 PUSH4 0xD0D5665B EQ PUSH2 0x692 JUMPI DUP1 PUSH4 0xE82C1F44 EQ PUSH2 0x6B0 JUMPI DUP1 PUSH4 0xEE719BC8 EQ PUSH2 0x6D0 JUMPI PUSH1 0x0 DUP1 REVERT JUMPDEST DUP1 PUSH4 0xA99C53B3 GT PUSH2 0xE7 JUMPI DUP1 PUSH4 0xA99C53B3 EQ PUSH2 0x596 JUMPI DUP1 PUSH4 0xB862BC7B EQ PUSH2 0x5F2 JUMPI DUP1 PUSH4 0xBEEFCBCF EQ PUSH2 0x612 JUMPI DUP1 PUSH4 0xC2862D67 EQ PUSH2 0x632 JUMPI DUP1 PUSH4 0xC4D66DE8 EQ PUSH2 0x652 JUMPI PUSH1 0x0 DUP1 REVERT JUMPDEST DUP1 PUSH4 0x983825DE EQ PUSH2 0x51A JUMPI DUP1 PUSH4 0xA240B9A8 EQ PUSH2 0x52D JUMPI DUP1 PUSH4 0xA831407F EQ PUSH2 0x540 JUMPI DUP1 PUSH4 0xA94C487E EQ PUSH2 0x576 JUMPI PUSH1 0x0 DUP1 REVERT JUMPDEST DUP1 PUSH4 0x3A97BB25 GT PUSH2 0x19B JUMPI DUP1 PUSH4 0x5E0EC98F GT PUSH2 0x16A JUMPI DUP1 PUSH4 0x5E0EC98F EQ PUSH2 0x429 JUMPI DUP1 PUSH4 0x78A35320 EQ PUSH2 0x449 JUMPI DUP1 PUSH4 0x7FF4D02F EQ PUSH2 0x45C JUMPI DUP1 PUSH4 0x800C2B39 EQ PUSH2 0x47C JUMPI DUP1 PUSH4 0x90F5CB09 EQ PUSH2 0x4BC JUMPI PUSH1 0x0 DUP1 REVERT JUMPDEST DUP1 PUSH4 0x3A97BB25 EQ PUSH2 0x3BA JUMPI DUP1 PUSH4 0x3CF045A4 EQ PUSH2 0x3CD JUMPI DUP1 PUSH4 0x3F849820 EQ PUSH2 0x3EB JUMPI DUP1 PUSH4 0x42D17745 EQ PUSH2 0x40B JUMPI PUSH1 0x0 DUP1 REVERT JUMPDEST DUP1 PUSH4 0x219F7753 GT PUSH2 0x1E2 JUMPI DUP1 PUSH4 0x219F7753 EQ PUSH2 0x2E7 JUMPI DUP1 PUSH4 0x25404C4F EQ PUSH2 0x2FA JUMPI DUP1 PUSH4 0x28107ACF EQ PUSH2 0x35A JUMPI DUP1 PUSH4 0x306ACEDA EQ PUSH2 0x37A JUMPI DUP1 PUSH4 0x3376CB37 EQ PUSH2 0x39A JUMPI PUSH1 0x0 DUP1 REVERT JUMPDEST DUP1 PUSH4 0xDAA6D11 EQ PUSH2 0x214 JUMPI DUP1 PUSH4 0x1C1B8772 EQ PUSH2 0x236 JUMPI DUP1 PUSH4 0x1C2F3E3D EQ PUSH2 0x256 JUMPI DUP1 PUSH4 0x1E0F6725 EQ PUSH2 0x293 JUMPI JUMPDEST PUSH1 0x0 DUP1 REVERT JUMPDEST CALLVALUE DUP1 ISZERO PUSH2 0x220 JUMPI PUSH1 0x0 DUP1 REVERT JUMPDEST POP PUSH2 0x234 PUSH2 0x22F CALLDATASIZE PUSH1 0x4 PUSH2 0x35D8 JUMP JUMPDEST PUSH2 0x79F JUMP JUMPDEST STOP JUMPDEST CALLVALUE DUP1 ISZERO PUSH2 0x242 JUMPI PUSH1 0x0 DUP1 REVERT JUMPDEST POP PUSH2 0x234 PUSH2 0x251 CALLDATASIZE PUSH1 0x4 PUSH2 0x33A7 JUMP JUMPDEST PUSH2 0x876 JUMP JUMPDEST CALLVALUE DUP1 ISZERO PUSH2 0x262 JUMPI PUSH1 0x0 DUP1 REVERT JUMPDEST POP PUSH1 0x1 SLOAD PUSH2 0x276 SWAP1 PUSH1 0x1 PUSH1 0x1 PUSH1 0xA0 SHL SUB AND DUP2 JUMP JUMPDEST PUSH1 0x40 MLOAD PUSH1 0x1 PUSH1 0x1 PUSH1 0xA0 SHL SUB SWAP1 SWAP2 AND DUP2 MSTORE PUSH1 0x20 ADD JUMPDEST PUSH1 0x40 MLOAD DUP1 SWAP2 SUB SWAP1 RETURN JUMPDEST CALLVALUE DUP1 ISZERO PUSH2 0x29F JUMPI PUSH1 0x0 DUP1 REVERT JUMPDEST POP PUSH2 0x2D9 PUSH2 0x2AE CALLDATASIZE PUSH1 0x4 PUSH2 0x33A7 JUMP JUMPDEST PUSH1 0x1 PUSH1 0x1 PUSH1 0xA0 SHL SUB AND PUSH1 0x0 SWAP1 DUP2 MSTORE PUSH1 0x4 PUSH1 0x20 MSTORE PUSH1 0x40 SWAP1 KECCAK256 SLOAD PUSH1 0x1 PUSH1 0x60 SHL SWAP1 DIV PUSH1 0x1 PUSH1 0x1 PUSH1 0x50 SHL SUB AND SWAP1 JUMP JUMPDEST PUSH1 0x40 MLOAD SWAP1 DUP2 MSTORE PUSH1 0x20 ADD PUSH2 0x28A JUMP JUMPDEST PUSH2 0x234 PUSH2 0x2F5 CALLDATASIZE PUSH1 0x4 PUSH2 0x3402 JUMP JUMPDEST PUSH2 0x949 JUMP JUMPDEST CALLVALUE DUP1 ISZERO PUSH2 0x306 JUMPI PUSH1 0x0 DUP1 REVERT JUMPDEST POP PUSH2 0x31A PUSH2 0x315 CALLDATASIZE PUSH1 0x4 PUSH2 0x33CA JUMP JUMPDEST PUSH2 0xD32 JUMP JUMPDEST PUSH1 0x40 DUP1 MLOAD SWAP6 DUP7 MSTORE PUSH1 0x20 DUP7 ADD SWAP5 SWAP1 SWAP5 MSTORE PUSH1 0x1 PUSH1 0x1 PUSH1 0xA0 SHL SUB SWAP1 SWAP3 AND SWAP3 DUP5 ADD SWAP3 SWAP1 SWAP3 MSTORE PUSH1 0x1 PUSH1 0x1 PUSH1 0x58 SHL SUB SWAP1 SWAP2 AND PUSH1 0x60 DUP4 ADD MSTORE ISZERO ISZERO PUSH1 0x80 DUP3 ADD MSTORE PUSH1 0xA0 ADD PUSH2 0x28A JUMP JUMPDEST CALLVALUE DUP1 ISZERO PUSH2 0x366 JUMPI PUSH1 0x0 DUP1 REVERT JUMPDEST POP PUSH2 0x234 PUSH2 0x375 CALLDATASIZE PUSH1 0x4 PUSH2 0x3579 JUMP JUMPDEST PUSH2 0xE06 JUMP JUMPDEST CALLVALUE DUP1 ISZERO PUSH2 0x386 JUMPI PUSH1 0x0 DUP1 REVERT JUMPDEST POP PUSH2 0x234 PUSH2 0x395 CALLDATASIZE PUSH1 0x4 PUSH2 0x37C6 JUMP JUMPDEST PUSH2 0xEEB JUMP JUMPDEST CALLVALUE DUP1 ISZERO PUSH2 0x3A6 JUMPI PUSH1 0x0 DUP1 REVERT JUMPDEST POP PUSH2 0x234 PUSH2 0x3B5 CALLDATASIZE PUSH1 0x4 PUSH2 0x37C6 JUMP JUMPDEST PUSH2 0xFB2 JUMP JUMPDEST PUSH2 0x234 PUSH2 0x3C8 CALLDATASIZE PUSH1 0x4 PUSH2 0x353C JUMP JUMPDEST PUSH2 0x1079 JUMP JUMPDEST CALLVALUE DUP1 ISZERO PUSH2 0x3D9 JUMPI PUSH1 0x0 DUP1 REVERT JUMPDEST POP PUSH1 0x6 SLOAD PUSH1 0x1 PUSH1 0x1 PUSH1 0xA0 SHL SUB AND PUSH2 0x276 JUMP JUMPDEST CALLVALUE DUP1 ISZERO PUSH2 0x3F7 JUMPI PUSH1 0x0 DUP1 REVERT JUMPDEST POP PUSH2 0x234 PUSH2 0x406 CALLDATASIZE PUSH1 0x4 PUSH2 0x33A7 JUMP JUMPDEST PUSH2 0x154E JUMP JUMPDEST CALLVALUE DUP1 ISZERO PUSH2 0x417 JUMPI PUSH1 0x0 DUP1 REVERT JUMPDEST POP PUSH1 0x2 SLOAD PUSH1 0x1 PUSH1 0x1 PUSH1 0xA0 SHL SUB AND PUSH2 0x276 JUMP JUMPDEST CALLVALUE DUP1 ISZERO PUSH2 0x435 JUMPI PUSH1 0x0 DUP1 REVERT JUMPDEST POP PUSH2 0x234 PUSH2 0x444 CALLDATASIZE PUSH1 0x4 PUSH2 0x35AD JUMP JUMPDEST PUSH2 0x160F JUMP JUMPDEST PUSH2 0x234 PUSH2 0x457 CALLDATASIZE PUSH1 0x4 PUSH2 0x3474 JUMP JUMPDEST PUSH2 0x16F1 JUMP JUMPDEST CALLVALUE DUP1 ISZERO PUSH2 0x468 JUMPI PUSH1 0x0 DUP1 REVERT JUMPDEST POP PUSH2 0x2D9 PUSH2 0x477 CALLDATASIZE PUSH1 0x4 PUSH2 0x3774 JUMP JUMPDEST PUSH2 0x1A17 JUMP JUMPDEST CALLVALUE DUP1 ISZERO PUSH2 0x488 JUMPI PUSH1 0x0 DUP1 REVERT JUMPDEST POP PUSH2 0x49C PUSH2 0x497 CALLDATASIZE PUSH1 0x4 PUSH2 0x34E0 JUMP JUMPDEST PUSH2 0x1A5C JUMP JUMPDEST PUSH1 0x40 DUP1 MLOAD SWAP5 DUP6 MSTORE PUSH1 0x20 DUP6 ADD SWAP4 SWAP1 SWAP4 MSTORE SWAP2 DUP4 ADD MSTORE PUSH1 0x60 DUP3 ADD MSTORE PUSH1 0x80 ADD PUSH2 0x28A JUMP JUMPDEST CALLVALUE DUP1 ISZERO PUSH2 0x4C8 JUMPI PUSH1 0x0 DUP1 REVERT JUMPDEST POP PUSH2 0x502 PUSH2 0x4D7 CALLDATASIZE PUSH1 0x4 PUSH2 0x33A7 JUMP JUMPDEST PUSH1 0x1 PUSH1 0x1 PUSH1 0xA0 SHL SUB AND PUSH1 0x0 SWAP1 DUP2 MSTORE PUSH1 0x4 PUSH1 0x20 MSTORE PUSH1 0x40 SWAP1 KECCAK256 SLOAD PUSH1 0x1 PUSH1 0xB0 SHL SWAP1 DIV PUSH1 0x1 PUSH1 0x1 PUSH1 0x50 SHL SUB AND SWAP1 JUMP JUMPDEST PUSH1 0x40 MLOAD PUSH1 0x1 PUSH1 0x1 PUSH1 0x50 SHL SUB SWAP1 SWAP2 AND DUP2 MSTORE PUSH1 0x20 ADD PUSH2 0x28A JUMP JUMPDEST PUSH2 0x234 PUSH2 0x528 CALLDATASIZE PUSH1 0x4 PUSH2 0x3474 JUMP JUMPDEST PUSH2 0x1C9B JUMP JUMPDEST PUSH2 0x234 PUSH2 0x53B CALLDATASIZE PUSH1 0x4 PUSH2 0x3474 JUMP JUMPDEST PUSH2 0x208E JUMP JUMPDEST CALLVALUE DUP1 ISZERO PUSH2 0x54C JUMPI PUSH1 0x0 DUP1 REVERT JUMPDEST POP PUSH2 0x2D9 PUSH2 0x55B CALLDATASIZE PUSH1 0x4 PUSH2 0x33A7 JUMP JUMPDEST PUSH1 0x1 PUSH1 0x1 PUSH1 0xA0 SHL SUB AND PUSH1 0x0 SWAP1 DUP2 MSTORE PUSH1 0x5 PUSH1 0x20 MSTORE PUSH1 0x40 SWAP1 KECCAK256 SLOAD SWAP1 JUMP JUMPDEST CALLVALUE DUP1 ISZERO PUSH2 0x582 JUMPI PUSH1 0x0 DUP1 REVERT JUMPDEST POP PUSH2 0x234 PUSH2 0x591 CALLDATASIZE PUSH1 0x4 PUSH2 0x33A7 JUMP JUMPDEST PUSH2 0x23D3 JUMP JUMPDEST CALLVALUE DUP1 ISZERO PUSH2 0x5A2 JUMPI PUSH1 0x0 DUP1 REVERT JUMPDEST POP PUSH2 0x5DA PUSH2 0x5B1 CALLDATASIZE PUSH1 0x4 PUSH2 0x33A7 JUMP JUMPDEST PUSH1 0x1 PUSH1 0x1 PUSH1 0xA0 SHL SUB AND PUSH1 0x0 SWAP1 DUP2 MSTORE PUSH1 0x4 PUSH1 0x20 MSTORE PUSH1 0x40 SWAP1 KECCAK256 SLOAD PUSH2 0x100 SWAP1 DIV PUSH1 0x1 PUSH1 0x1 PUSH1 0x58 SHL SUB AND SWAP1 JUMP JUMPDEST PUSH1 0x40 MLOAD PUSH1 0x1 PUSH1 0x1 PUSH1 0x58 SHL SUB SWAP1 SWAP2 AND DUP2 MSTORE PUSH1 0x20 ADD PUSH2 0x28A JUMP JUMPDEST CALLVALUE DUP1 ISZERO PUSH2 0x5FE JUMPI PUSH1 0x0 DUP1 REVERT JUMPDEST POP PUSH2 0x234 PUSH2 0x60D CALLDATASIZE PUSH1 0x4 PUSH2 0x364B JUMP JUMPDEST PUSH2 0x2494 JUMP JUMPDEST CALLVALUE DUP1 ISZERO PUSH2 0x61E JUMPI PUSH1 0x0 DUP1 REVERT JUMPDEST POP PUSH2 0x234 PUSH2 0x62D CALLDATASIZE PUSH1 0x4 PUSH2 0x3579 JUMP JUMPDEST PUSH2 0x25A5 JUMP JUMPDEST CALLVALUE DUP1 ISZERO PUSH2 0x63E JUMPI PUSH1 0x0 DUP1 REVERT JUMPDEST POP PUSH2 0x234 PUSH2 0x64D CALLDATASIZE PUSH1 0x4 PUSH2 0x3447 JUMP JUMPDEST PUSH2 0x2683 JUMP JUMPDEST CALLVALUE DUP1 ISZERO PUSH2 0x65E JUMPI PUSH1 0x0 DUP1 REVERT JUMPDEST POP PUSH2 0x234 PUSH2 0x66D CALLDATASIZE PUSH1 0x4 PUSH2 0x33A7 JUMP JUMPDEST PUSH2 0x274D JUMP JUMPDEST CALLVALUE DUP1 ISZERO PUSH2 0x67E JUMPI PUSH1 0x0 DUP1 REVERT JUMPDEST POP PUSH2 0x2D9 PUSH2 0x68D CALLDATASIZE PUSH1 0x4 PUSH2 0x33CA JUMP JUMPDEST PUSH2 0x27CC JUMP JUMPDEST CALLVALUE DUP1 ISZERO PUSH2 0x69E JUMPI PUSH1 0x0 DUP1 REVERT JUMPDEST POP PUSH1 0x7 SLOAD PUSH1 0x1 PUSH1 0x1 PUSH1 0xA0 SHL SUB AND PUSH2 0x276 JUMP JUMPDEST CALLVALUE DUP1 ISZERO PUSH2 0x6BC JUMPI PUSH1 0x0 DUP1 REVERT JUMPDEST POP PUSH2 0x2D9 PUSH2 0x6CB CALLDATASIZE PUSH1 0x4 PUSH2 0x370C JUMP JUMPDEST PUSH2 0x27FD JUMP JUMPDEST CALLVALUE DUP1 ISZERO PUSH2 0x6DC JUMPI PUSH1 0x0 DUP1 REVERT JUMPDEST POP PUSH1 0x3 SLOAD PUSH1 0x1 PUSH1 0x1 PUSH1 0xA0 SHL SUB AND PUSH2 0x276 JUMP JUMPDEST CALLVALUE DUP1 ISZERO PUSH2 0x6FA JUMPI PUSH1 0x0 DUP1 REVERT JUMPDEST POP PUSH1 0x2 SLOAD PUSH1 0x1 PUSH1 0xA0 SHL SWAP1 DIV PUSH1 0x1 PUSH1 0x1 PUSH1 0x60 SHL SUB AND JUMPDEST PUSH1 0x40 MLOAD PUSH1 0x1 PUSH1 0x1 PUSH1 0x60 SHL SUB SWAP1 SWAP2 AND DUP2 MSTORE PUSH1 0x20 ADD PUSH2 0x28A JUMP JUMPDEST PUSH2 0x234 PUSH2 0x735 CALLDATASIZE PUSH1 0x4 PUSH2 0x3474 JUMP JUMPDEST PUSH2 0x28A9 JUMP JUMPDEST CALLVALUE DUP1 ISZERO PUSH2 0x746 JUMPI PUSH1 0x0 DUP1 REVERT JUMPDEST POP PUSH2 0x2D9 PUSH2 0x755 CALLDATASIZE PUSH1 0x4 PUSH2 0x349F JUMP JUMPDEST PUSH2 0x2C4D JUMP JUMPDEST CALLVALUE DUP1 ISZERO PUSH2 0x766 JUMPI PUSH1 0x0 DUP1 REVERT JUMPDEST POP PUSH1 0x3 SLOAD PUSH1 0x1 PUSH1 0xA0 SHL SWAP1 DIV PUSH1 0x1 PUSH1 0x1 PUSH1 0x60 SHL SUB AND PUSH2 0x70F JUMP JUMPDEST CALLVALUE DUP1 ISZERO PUSH2 0x78B JUMPI PUSH1 0x0 DUP1 REVERT JUMPDEST POP PUSH2 0x234 PUSH2 0x79A CALLDATASIZE PUSH1 0x4 PUSH2 0x33CA JUMP JUMPDEST PUSH2 0x2D92 JUMP JUMPDEST PUSH1 0x1 SLOAD PUSH1 0x40 MLOAD PUSH4 0x91E1472B PUSH1 0xE0 SHL DUP2 MSTORE PUSH1 0x1 PUSH1 0x1 PUSH1 0xA0 SHL SUB SWAP1 SWAP2 AND SWAP1 PUSH4 0x91E1472B SWAP1 PUSH2 0x7D2 SWAP1 CALLER SWAP1 PUSH1 0x0 SWAP1 PUSH1 0x4 ADD PUSH2 0x3819 JUMP JUMPDEST PUSH1 0x20 PUSH1 0x40 MLOAD DUP1 DUP4 SUB DUP2 DUP7 DUP1 EXTCODESIZE ISZERO DUP1 ISZERO PUSH2 0x7EA JUMPI PUSH1 0x0 DUP1 REVERT JUMPDEST POP GAS STATICCALL ISZERO DUP1 ISZERO PUSH2 0x7FE JUMPI RETURNDATASIZE PUSH1 0x0 DUP1 RETURNDATACOPY RETURNDATASIZE PUSH1 0x0 REVERT JUMPDEST POP POP POP POP PUSH1 0x40 MLOAD RETURNDATASIZE PUSH1 0x1F NOT PUSH1 0x1F DUP3 ADD AND DUP3 ADD DUP1 PUSH1 0x40 MSTORE POP DUP2 ADD SWAP1 PUSH2 0x822 SWAP2 SWAP1 PUSH2 0x362F JUMP JUMPDEST PUSH2 0x847 JUMPI PUSH1 0x40 MLOAD PUSH3 0x461BCD PUSH1 0xE5 SHL DUP2 MSTORE PUSH1 0x4 ADD PUSH2 0x83E SWAP1 PUSH2 0x3913 JUMP JUMPDEST PUSH1 0x40 MLOAD DUP1 SWAP2 SUB SWAP1 REVERT JUMPDEST PUSH1 0x1 PUSH1 0x1 PUSH1 0x60 SHL SUB SWAP3 DUP4 AND PUSH1 0x1 PUSH1 0xA0 SHL SWAP1 DUP2 MUL PUSH1 0x1 PUSH1 0x1 PUSH1 0xA0 SHL SUB SWAP6 DUP7 AND OR PUSH1 0x2 SSTORE SWAP3 AND SWAP1 SWAP2 MUL SWAP2 AND OR PUSH1 0x3 SSTORE JUMP JUMPDEST PUSH1 0x1 SLOAD PUSH1 0x1 PUSH1 0x1 PUSH1 0xA0 SHL SUB AND CALLER DUP2 EQ DUP1 PUSH2 0x90A JUMPI POP PUSH1 0x40 MLOAD PUSH4 0x91E1472B PUSH1 0xE0 SHL DUP2 MSTORE PUSH1 0x1 PUSH1 0x1 PUSH1 0xA0 SHL SUB DUP3 AND SWAP1 PUSH4 0x91E1472B SWAP1 PUSH2 0x8BA SWAP1 CALLER SWAP1 PUSH1 0x0 SWAP1 PUSH1 0x4 ADD PUSH2 0x3819 JUMP JUMPDEST PUSH1 0x20 PUSH1 0x40 MLOAD DUP1 DUP4 SUB DUP2 DUP7 DUP1 EXTCODESIZE ISZERO DUP1 ISZERO PUSH2 0x8D2 JUMPI PUSH1 0x0 DUP1 REVERT JUMPDEST POP GAS STATICCALL ISZERO DUP1 ISZERO PUSH2 0x8E6 JUMPI RETURNDATASIZE PUSH1 0x0 DUP1 RETURNDATACOPY RETURNDATASIZE PUSH1 0x0 REVERT JUMPDEST POP POP POP POP PUSH1 0x40 MLOAD RETURNDATASIZE PUSH1 0x1F NOT PUSH1 0x1F DUP3 ADD AND DUP3 ADD DUP1 PUSH1 0x40 MSTORE POP DUP2 ADD SWAP1 PUSH2 0x90A SWAP2 SWAP1 PUSH2 0x362F JUMP JUMPDEST PUSH2 0x926 JUMPI PUSH1 0x40 MLOAD PUSH3 0x461BCD PUSH1 0xE5 SHL DUP2 MSTORE PUSH1 0x4 ADD PUSH2 0x83E SWAP1 PUSH2 0x3913 JUMP JUMPDEST POP PUSH1 0x1 DUP1 SLOAD PUSH1 0x1 PUSH1 0x1 PUSH1 0xA0 SHL SUB NOT AND PUSH1 0x1 PUSH1 0x1 PUSH1 0xA0 SHL SUB SWAP3 SWAP1 SWAP3 AND SWAP2 SWAP1 SWAP2 OR SWAP1 SSTORE JUMP JUMPDEST PUSH1 0x3 SLOAD PUSH1 0x1 PUSH1 0xA0 SHL SWAP1 DIV PUSH1 0x1 PUSH1 0x1 PUSH1 0x60 SHL SUB AND PUSH2 0x978 JUMPI PUSH1 0x40 MLOAD PUSH3 0x461BCD PUSH1 0xE5 SHL DUP2 MSTORE PUSH1 0x4 ADD PUSH2 0x83E SWAP1 PUSH2 0x3979 JUMP JUMPDEST PUSH1 0x0 SLOAD ISZERO PUSH2 0x998 JUMPI PUSH1 0x40 MLOAD PUSH3 0x461BCD PUSH1 0xE5 SHL DUP2 MSTORE PUSH1 0x4 ADD PUSH2 0x83E SWAP1 PUSH2 0x38A5 JUMP JUMPDEST PUSH1 0x1 PUSH1 0x0 SWAP1 DUP2 SSTORE PUSH1 0x1 PUSH1 0x1 PUSH1 0xA0 SHL SUB DUP6 AND DUP2 MSTORE PUSH1 0x4 PUSH1 0x20 SWAP1 DUP2 MSTORE PUSH1 0x40 SWAP2 DUP3 SWAP1 KECCAK256 DUP3 MLOAD PUSH1 0x80 DUP2 ADD DUP5 MSTORE SWAP1 SLOAD PUSH1 0xFF DUP2 AND ISZERO ISZERO DUP1 DUP4 MSTORE PUSH1 0x1 PUSH1 0x1 PUSH1 0x58 SHL SUB PUSH2 0x100 DUP4 DIV AND SWAP4 DUP4 ADD SWAP4 SWAP1 SWAP4 MSTORE PUSH1 0x1 PUSH1 0x1 PUSH1 0x50 SHL SUB PUSH1 0x1 PUSH1 0x60 SHL DUP3 DIV DUP2 AND SWAP5 DUP4 ADD SWAP5 SWAP1 SWAP5 MSTORE PUSH1 0x1 PUSH1 0xB0 SHL SWAP1 DIV SWAP1 SWAP3 AND PUSH1 0x60 DUP4 ADD MSTORE PUSH2 0xA23 JUMPI PUSH1 0x40 MLOAD PUSH3 0x461BCD PUSH1 0xE5 SHL DUP2 MSTORE PUSH1 0x4 ADD PUSH2 0x83E SWAP1 PUSH2 0x3942 JUMP JUMPDEST PUSH1 0x1 PUSH1 0x1 PUSH1 0xA0 SHL SUB DUP1 DUP7 AND PUSH1 0x0 SWAP1 DUP2 MSTORE PUSH1 0x5 PUSH1 0x20 SWAP1 DUP2 MSTORE PUSH1 0x40 DUP1 DUP4 KECCAK256 SWAP4 DUP9 AND DUP4 MSTORE PUSH1 0x1 DUP5 ADD SWAP1 SWAP2 MSTORE SWAP1 KECCAK256 SLOAD DUP1 PUSH2 0xA6B JUMPI PUSH1 0x40 MLOAD PUSH3 0x461BCD PUSH1 0xE5 SHL DUP2 MSTORE PUSH1 0x4 ADD PUSH2 0x83E SWAP1 PUSH2 0x38DC JUMP JUMPDEST PUSH1 0x0 DUP3 PUSH2 0xA79 PUSH1 0x1 DUP5 PUSH2 0x3AE8 JUMP JUMPDEST DUP2 SLOAD DUP2 LT PUSH2 0xA97 JUMPI PUSH4 0x4E487B71 PUSH1 0xE0 SHL PUSH1 0x0 MSTORE PUSH1 0x32 PUSH1 0x4 MSTORE PUSH1 0x24 PUSH1 0x0 REVERT JUMPDEST PUSH1 0x0 SWAP2 DUP3 MSTORE PUSH1 0x20 SWAP1 SWAP2 KECCAK256 PUSH1 0x3 SWAP1 SWAP2 MUL ADD PUSH1 0x1 DUP2 ADD SLOAD DUP2 SLOAD SWAP2 SWAP3 POP SWAP1 DUP8 ISZERO DUP1 ISZERO SWAP1 PUSH2 0xAC1 JUMPI POP DUP1 DUP9 GT ISZERO JUMPDEST PUSH2 0xADD JUMPI PUSH1 0x40 MLOAD PUSH3 0x461BCD PUSH1 0xE5 SHL DUP2 MSTORE PUSH1 0x4 ADD PUSH2 0x83E SWAP1 PUSH2 0x386E JUMP JUMPDEST PUSH1 0x0 DUP1 PUSH2 0xAEA DUP13 CALLVALUE PUSH2 0x2E62 JUMP JUMPDEST PUSH1 0x40 DUP1 MLOAD PUSH1 0x80 DUP2 ADD DUP3 MSTORE DUP9 SLOAD DUP2 MSTORE PUSH1 0x1 DUP10 ADD SLOAD PUSH1 0x20 DUP3 ADD MSTORE PUSH1 0x2 DUP10 ADD SLOAD PUSH1 0x1 PUSH1 0x1 PUSH1 0xA0 SHL SUB DUP2 AND DUP3 DUP5 ADD MSTORE PUSH1 0x1 PUSH1 0xA0 SHL SWAP1 DIV PUSH1 0x1 PUSH1 0x1 PUSH1 0x58 SHL SUB AND PUSH1 0x60 DUP1 DUP4 ADD SWAP2 SWAP1 SWAP2 MSTORE SWAP2 DUP13 ADD MLOAD SWAP2 DUP13 ADD MLOAD SWAP4 SWAP6 POP SWAP2 SWAP4 POP PUSH2 0xB49 SWAP3 DUP6 SWAP2 DUP6 SWAP2 PUSH2 0x2494 JUMP JUMPDEST PUSH1 0x0 PUSH2 0xB56 DUP4 PUSH1 0x64 PUSH2 0x3AC9 JUMP JUMPDEST PUSH2 0xB60 DUP4 DUP14 PUSH2 0x3AC9 JUMP JUMPDEST PUSH2 0xB6B SWAP1 PUSH1 0x5A PUSH2 0x3AC9 JUMP JUMPDEST PUSH2 0xB75 SWAP2 SWAP1 PUSH2 0x39BE JUMP JUMPDEST SWAP1 POP DUP10 DUP2 GT ISZERO PUSH2 0xBD3 JUMPI PUSH1 0x40 MLOAD PUSH3 0x461BCD PUSH1 0xE5 SHL DUP2 MSTORE PUSH1 0x20 PUSH1 0x4 DUP3 ADD MSTORE PUSH1 0x23 PUSH1 0x24 DUP3 ADD MSTORE PUSH32 0x4C6F673A4D6F727467616765506F6F6C3A2170546F6B656E416D6F756E744C69 PUSH1 0x44 DUP3 ADD MSTORE PUSH3 0x1B5A5D PUSH1 0xEA SHL PUSH1 0x64 DUP3 ADD MSTORE PUSH1 0x84 ADD PUSH2 0x83E JUMP JUMPDEST PUSH1 0x2 SLOAD PUSH1 0x7 SLOAD PUSH2 0xBF2 SWAP2 PUSH1 0x1 PUSH1 0x1 PUSH1 0xA0 SHL SUB SWAP1 DUP2 AND SWAP2 CALLER SWAP2 AND DUP5 PUSH2 0x2F01 JUMP JUMPDEST PUSH1 0x0 DUP5 PUSH2 0xBFF DUP14 DUP9 PUSH2 0x3AC9 JUMP JUMPDEST PUSH2 0xC09 SWAP2 SWAP1 PUSH2 0x39BE JUMP JUMPDEST PUSH1 0x7 SLOAD PUSH1 0x40 MLOAD PUSH3 0x45B14B PUSH1 0xE7 SHL DUP2 MSTORE PUSH1 0x4 DUP2 ADD DUP4 SWAP1 MSTORE SWAP2 SWAP3 POP PUSH1 0x1 PUSH1 0x1 PUSH1 0xA0 SHL SUB AND SWAP1 PUSH4 0x22D8A580 SWAP1 PUSH1 0x24 ADD PUSH1 0x0 PUSH1 0x40 MLOAD DUP1 DUP4 SUB DUP2 PUSH1 0x0 DUP8 DUP1 EXTCODESIZE ISZERO DUP1 ISZERO PUSH2 0xC4F JUMPI PUSH1 0x0 DUP1 REVERT JUMPDEST POP GAS CALL ISZERO DUP1 ISZERO PUSH2 0xC63 JUMPI RETURNDATASIZE PUSH1 0x0 DUP1 RETURNDATACOPY RETURNDATASIZE PUSH1 0x0 REVERT JUMPDEST POP POP POP POP DUP12 DUP6 PUSH2 0xC73 SWAP2 SWAP1 PUSH2 0x3AE8 JUMP JUMPDEST DUP8 SSTORE PUSH2 0xC7F DUP2 DUP8 PUSH2 0x3AE8 JUMP JUMPDEST DUP8 PUSH1 0x1 ADD DUP2 SWAP1 SSTORE POP PUSH1 0x0 DUP1 MLOAD PUSH1 0x20 PUSH2 0x3B3C DUP4 CODECOPY DUP2 MLOAD SWAP2 MSTORE DUP15 DUP9 PUSH1 0x0 ADD SLOAD DUP10 PUSH1 0x1 ADD SLOAD DUP8 DUP8 DUP13 PUSH1 0x2 ADD PUSH1 0x14 SWAP1 SLOAD SWAP1 PUSH2 0x100 EXP SWAP1 DIV PUSH1 0x1 PUSH1 0x1 PUSH1 0x58 SHL SUB AND PUSH1 0x40 MLOAD PUSH2 0xCCD SWAP7 SWAP6 SWAP5 SWAP4 SWAP3 SWAP2 SWAP1 PUSH2 0x3832 JUMP JUMPDEST PUSH1 0x40 MLOAD DUP1 SWAP2 SUB SWAP1 LOG1 DUP7 SLOAD PUSH2 0xCF5 JUMPI PUSH1 0x0 PUSH1 0x1 DUP9 ADD SSTORE PUSH1 0x2 DUP8 ADD DUP1 SLOAD PUSH1 0x1 PUSH1 0x1 PUSH1 0xF8 SHL SUB NOT AND SWAP1 SSTORE JUMPDEST PUSH1 0x1 PUSH1 0x1 PUSH1 0xA0 SHL SUB DUP15 AND ISZERO PUSH2 0xD14 JUMPI PUSH2 0xD0F DUP15 CALLER DUP15 PUSH2 0x3031 JUMP JUMPDEST PUSH2 0xD1E JUMP JUMPDEST PUSH2 0xD1E CALLER DUP14 PUSH2 0x314E JUMP JUMPDEST POP POP PUSH1 0x0 DUP1 SSTORE POP POP POP POP POP POP POP POP POP POP POP POP JUMP JUMPDEST PUSH1 0x1 PUSH1 0x1 PUSH1 0xA0 SHL SUB DUP1 DUP4 AND PUSH1 0x0 SWAP1 DUP2 MSTORE PUSH1 0x5 PUSH1 0x20 SWAP1 DUP2 MSTORE PUSH1 0x40 DUP1 DUP4 KECCAK256 SWAP4 DUP6 AND DUP4 MSTORE PUSH1 0x1 DUP1 DUP6 ADD SWAP1 SWAP3 MSTORE DUP3 KECCAK256 SLOAD SWAP2 SWAP3 DUP4 SWAP3 DUP4 SWAP3 DUP4 SWAP3 DUP4 SWAP3 SWAP1 SWAP2 DUP4 SWAP2 DUP4 SWAP2 PUSH2 0xD77 SWAP2 PUSH2 0x3AE8 JUMP JUMPDEST DUP2 SLOAD DUP2 LT PUSH2 0xD95 JUMPI PUSH4 0x4E487B71 PUSH1 0xE0 SHL PUSH1 0x0 MSTORE PUSH1 0x32 PUSH1 0x4 MSTORE PUSH1 0x24 PUSH1 0x0 REVERT JUMPDEST PUSH1 0x0 SWAP2 DUP3 MSTORE PUSH1 0x20 SWAP2 DUP3 SWAP1 KECCAK256 PUSH1 0x40 DUP1 MLOAD PUSH1 0x80 DUP2 ADD DUP3 MSTORE PUSH1 0x3 SWAP4 SWAP1 SWAP4 MUL SWAP1 SWAP2 ADD DUP1 SLOAD DUP1 DUP5 MSTORE PUSH1 0x1 DUP1 DUP4 ADD SLOAD SWAP6 DUP6 ADD DUP7 SWAP1 MSTORE PUSH1 0x2 SWAP1 SWAP3 ADD SLOAD PUSH1 0x1 PUSH1 0x1 PUSH1 0xA0 SHL SUB DUP2 AND SWAP4 DUP6 ADD DUP5 SWAP1 MSTORE PUSH1 0x1 PUSH1 0xA0 SHL SWAP1 DIV PUSH1 0x1 PUSH1 0x1 PUSH1 0x58 SHL SUB AND PUSH1 0x60 SWAP1 SWAP5 ADD DUP5 SWAP1 MSTORE SWAP14 SWAP4 SWAP13 POP SWAP1 SWAP11 POP SWAP1 SWAP9 POP SWAP7 POP SWAP5 POP POP POP POP POP JUMP JUMPDEST PUSH1 0x1 SLOAD PUSH1 0x40 MLOAD PUSH4 0x91E1472B PUSH1 0xE0 SHL DUP2 MSTORE PUSH1 0x1 PUSH1 0x1 PUSH1 0xA0 SHL SUB SWAP1 SWAP2 AND SWAP1 PUSH4 0x91E1472B SWAP1 PUSH2 0xE39 SWAP1 CALLER SWAP1 PUSH1 0x0 SWAP1 PUSH1 0x4 ADD PUSH2 0x3819 JUMP JUMPDEST PUSH1 0x20 PUSH1 0x40 MLOAD DUP1 DUP4 SUB DUP2 DUP7 DUP1 EXTCODESIZE ISZERO DUP1 ISZERO PUSH2 0xE51 JUMPI PUSH1 0x0 DUP1 REVERT JUMPDEST POP GAS STATICCALL ISZERO DUP1 ISZERO PUSH2 0xE65 JUMPI RETURNDATASIZE PUSH1 0x0 DUP1 RETURNDATACOPY RETURNDATASIZE PUSH1 0x0 REVERT JUMPDEST POP POP POP POP PUSH1 0x40 MLOAD RETURNDATASIZE PUSH1 0x1F NOT PUSH1 0x1F DUP3 ADD AND DUP3 ADD DUP1 PUSH1 0x40 MSTORE POP DUP2 ADD SWAP1 PUSH2 0xE89 SWAP2 SWAP1 PUSH2 0x362F JUMP JUMPDEST PUSH2 0xEA5 JUMPI PUSH1 0x40 MLOAD PUSH3 0x461BCD PUSH1 0xE5 SHL DUP2 MSTORE PUSH1 0x4 ADD PUSH2 0x83E SWAP1 PUSH2 0x3913 JUMP JUMPDEST PUSH1 0x1 PUSH1 0x1 PUSH1 0xA0 SHL SUB SWAP1 SWAP2 AND PUSH1 0x0 SWAP1 DUP2 MSTORE PUSH1 0x4 PUSH1 0x20 MSTORE PUSH1 0x40 SWAP1 KECCAK256 DUP1 SLOAD PUSH1 0x1 PUSH1 0x1 PUSH1 0x50 SHL SUB SWAP1 SWAP3 AND PUSH1 0x1 PUSH1 0x60 SHL MUL PUSH10 0xFFFFFFFFFFFFFFFFFFFF PUSH1 0x60 SHL NOT SWAP1 SWAP3 AND SWAP2 SWAP1 SWAP2 OR SWAP1 SSTORE JUMP JUMPDEST PUSH1 0x1 SLOAD PUSH1 0x40 MLOAD PUSH4 0x91E1472B PUSH1 0xE0 SHL DUP2 MSTORE PUSH1 0x1 PUSH1 0x1 PUSH1 0xA0 SHL SUB SWAP1 SWAP2 AND SWAP1 PUSH4 0x91E1472B SWAP1 PUSH2 0xF1E SWAP1 CALLER SWAP1 PUSH1 0x0 SWAP1 PUSH1 0x4 ADD PUSH2 0x3819 JUMP JUMPDEST PUSH1 0x20 PUSH1 0x40 MLOAD DUP1 DUP4 SUB DUP2 DUP7 DUP1 EXTCODESIZE ISZERO DUP1 ISZERO PUSH2 0xF36 JUMPI PUSH1 0x0 DUP1 REVERT JUMPDEST POP GAS STATICCALL ISZERO DUP1 ISZERO PUSH2 0xF4A JUMPI RETURNDATASIZE PUSH1 0x0 DUP1 RETURNDATACOPY RETURNDATASIZE PUSH1 0x0 REVERT JUMPDEST POP POP POP POP PUSH1 0x40 MLOAD RETURNDATASIZE PUSH1 0x1F NOT PUSH1 0x1F DUP3 ADD AND DUP3 ADD DUP1 PUSH1 0x40 MSTORE POP DUP2 ADD SWAP1 PUSH2 0xF6E SWAP2 SWAP1 PUSH2 0x362F JUMP JUMPDEST PUSH2 0xF8A JUMPI PUSH1 0x40 MLOAD PUSH3 0x461BCD PUSH1 0xE5 SHL DUP2 MSTORE PUSH1 0x4 ADD PUSH2 0x83E SWAP1 PUSH2 0x3913 JUMP JUMPDEST PUSH1 0x3 DUP1 SLOAD PUSH1 0x1 PUSH1 0x1 PUSH1 0x60 SHL SUB SWAP1 SWAP3 AND PUSH1 0x1 PUSH1 0xA0 SHL MUL PUSH1 0x1 PUSH1 0x1 PUSH1 0xA0 SHL SUB SWAP1 SWAP3 AND SWAP2 SWAP1 SWAP2 OR SWAP1 SSTORE JUMP JUMPDEST PUSH1 0x1 SLOAD PUSH1 0x40 MLOAD PUSH4 0x91E1472B PUSH1 0xE0 SHL DUP2 MSTORE PUSH1 0x1 PUSH1 0x1 PUSH1 0xA0 SHL SUB SWAP1 SWAP2 AND SWAP1 PUSH4 0x91E1472B SWAP1 PUSH2 0xFE5 SWAP1 CALLER SWAP1 PUSH1 0x0 SWAP1 PUSH1 0x4 ADD PUSH2 0x3819 JUMP JUMPDEST PUSH1 0x20 PUSH1 0x40 MLOAD DUP1 DUP4 SUB DUP2 DUP7 DUP1 EXTCODESIZE ISZERO DUP1 ISZERO PUSH2 0xFFD JUMPI PUSH1 0x0 DUP1 REVERT JUMPDEST POP GAS STATICCALL ISZERO DUP1 ISZERO PUSH2 0x1011 JUMPI RETURNDATASIZE PUSH1 0x0 DUP1 RETURNDATACOPY RETURNDATASIZE PUSH1 0x0 REVERT JUMPDEST POP POP POP POP PUSH1 0x40 MLOAD RETURNDATASIZE PUSH1 0x1F NOT PUSH1 0x1F DUP3 ADD AND DUP3 ADD DUP1 PUSH1 0x40 MSTORE POP DUP2 ADD SWAP1 PUSH2 0x1035 SWAP2 SWAP1 PUSH2 0x362F JUMP JUMPDEST PUSH2 0x1051 JUMPI PUSH1 0x40 MLOAD PUSH3 0x461BCD PUSH1 0xE5 SHL DUP2 MSTORE PUSH1 0x4 ADD PUSH2 0x83E SWAP1 PUSH2 0x3913 JUMP JUMPDEST PUSH1 0x2 DUP1 SLOAD PUSH1 0x1 PUSH1 0x1 PUSH1 0x60 SHL SUB SWAP1 SWAP3 AND PUSH1 0x1 PUSH1 0xA0 SHL MUL PUSH1 0x1 PUSH1 0x1 PUSH1 0xA0 SHL SUB SWAP1 SWAP3 AND SWAP2 SWAP1 SWAP2 OR SWAP1 SSTORE JUMP JUMPDEST PUSH1 0x3 SLOAD PUSH1 0x1 PUSH1 0x1 PUSH1 0x60 SHL SUB PUSH1 0x1 PUSH1 0xA0 SHL SWAP1 SWAP2 DIV AND PUSH1 0x1 EQ PUSH2 0x10D7 JUMPI PUSH1 0x40 MLOAD PUSH3 0x461BCD PUSH1 0xE5 SHL DUP2 MSTORE PUSH1 0x20 PUSH1 0x4 DUP3 ADD MSTORE PUSH1 0x18 PUSH1 0x24 DUP3 ADD MSTORE PUSH24 0x4C6F673A4D6F727467616765506F6F6C3A21616374697665 PUSH1 0x40 SHL PUSH1 0x44 DUP3 ADD MSTORE PUSH1 0x64 ADD PUSH2 0x83E JUMP JUMPDEST PUSH1 0x0 SLOAD ISZERO PUSH2 0x10F7 JUMPI PUSH1 0x40 MLOAD PUSH3 0x461BCD PUSH1 0xE5 SHL DUP2 MSTORE PUSH1 0x4 ADD PUSH2 0x83E SWAP1 PUSH2 0x38A5 JUMP JUMPDEST PUSH1 0x1 PUSH1 0x0 SWAP1 DUP2 SSTORE PUSH1 0x1 PUSH1 0x1 PUSH1 0xA0 SHL SUB DUP5 AND DUP2 MSTORE PUSH1 0x4 PUSH1 0x20 SWAP1 DUP2 MSTORE PUSH1 0x40 SWAP2 DUP3 SWAP1 KECCAK256 DUP3 MLOAD PUSH1 0x80 DUP2 ADD DUP5 MSTORE SWAP1 SLOAD PUSH1 0xFF DUP2 AND ISZERO ISZERO DUP1 DUP4 MSTORE PUSH1 0x1 PUSH1 0x1 PUSH1 0x58 SHL SUB PUSH2 0x100 DUP4 DIV AND SWAP4 DUP4 ADD SWAP4 SWAP1 SWAP4 MSTORE PUSH1 0x1 PUSH1 0x1 PUSH1 0x50 SHL SUB PUSH1 0x1 PUSH1 0x60 SHL DUP3 DIV DUP2 AND SWAP5 DUP4 ADD SWAP5 SWAP1 SWAP5 MSTORE PUSH1 0x1 PUSH1 0xB0 SHL SWAP1 DIV SWAP1 SWAP3 AND PUSH1 0x60 DUP4 ADD MSTORE PUSH2 0x1182 JUMPI PUSH1 0x40 MLOAD PUSH3 0x461BCD PUSH1 0xE5 SHL DUP2 MSTORE PUSH1 0x4 ADD PUSH2 0x83E SWAP1 PUSH2 0x3942 JUMP JUMPDEST PUSH1 0x0 DUP3 PUSH1 0x1 PUSH1 0x1 PUSH1 0x58 SHL SUB AND GT DUP1 ISZERO PUSH2 0x11B1 JUMPI POP DUP1 PUSH1 0x20 ADD MLOAD PUSH1 0x1 PUSH1 0x1 PUSH1 0x58 SHL SUB AND DUP3 PUSH1 0x1 PUSH1 0x1 PUSH1 0x58 SHL SUB AND GT ISZERO JUMPDEST PUSH2 0x11FD JUMPI PUSH1 0x40 MLOAD PUSH3 0x461BCD PUSH1 0xE5 SHL DUP2 MSTORE PUSH1 0x20 PUSH1 0x4 DUP3 ADD MSTORE PUSH1 0x18 PUSH1 0x24 DUP3 ADD MSTORE PUSH32 0x4C6F673A4D6F727467616765506F6F6C3A72617465213D300000000000000000 PUSH1 0x44 DUP3 ADD MSTORE PUSH1 0x64 ADD PUSH2 0x83E JUMP JUMPDEST PUSH1 0x0 DUP4 GT PUSH2 0x124D JUMPI PUSH1 0x40 MLOAD PUSH3 0x461BCD PUSH1 0xE5 SHL DUP2 MSTORE PUSH1 0x20 PUSH1 0x4 DUP3 ADD MSTORE PUSH1 0x1A PUSH1 0x24 DUP3 ADD MSTORE PUSH32 0x4C6F673A4D6F727467616765506F6F6C3A616D6F756E74213D30000000000000 PUSH1 0x44 DUP3 ADD MSTORE PUSH1 0x64 ADD PUSH2 0x83E JUMP JUMPDEST PUSH1 0x1 PUSH1 0x1 PUSH1 0xA0 SHL SUB DUP5 AND PUSH1 0x0 SWAP1 DUP2 MSTORE PUSH1 0x5 PUSH1 0x20 SWAP1 DUP2 MSTORE PUSH1 0x40 DUP1 DUP4 KECCAK256 CALLER DUP5 MSTORE PUSH1 0x1 DUP2 ADD SWAP1 SWAP3 MSTORE SWAP1 SWAP2 KECCAK256 SLOAD DUP1 PUSH2 0x1298 JUMPI DUP2 SLOAD PUSH1 0x1 SWAP1 DUP2 ADD DUP1 DUP5 SSTORE CALLER PUSH1 0x0 SWAP1 DUP2 MSTORE SWAP2 DUP5 ADD PUSH1 0x20 MSTORE PUSH1 0x40 SWAP1 SWAP2 KECCAK256 SSTORE JUMPDEST CALLER PUSH1 0x0 SWAP1 DUP2 MSTORE PUSH1 0x1 DUP1 DUP5 ADD PUSH1 0x20 MSTORE PUSH1 0x40 DUP3 KECCAK256 SLOAD DUP5 SWAP2 PUSH2 0x12B6 SWAP2 PUSH2 0x3AE8 JUMP JUMPDEST DUP2 SLOAD DUP2 LT PUSH2 0x12D4 JUMPI PUSH4 0x4E487B71 PUSH1 0xE0 SHL PUSH1 0x0 MSTORE PUSH1 0x32 PUSH1 0x4 MSTORE PUSH1 0x24 PUSH1 0x0 REVERT JUMPDEST PUSH1 0x0 SWAP2 DUP3 MSTORE PUSH1 0x20 DUP3 KECCAK256 PUSH1 0x1 PUSH1 0x3 SWAP1 SWAP3 MUL ADD SWAP1 DUP2 ADD SLOAD DUP2 SLOAD SWAP2 SWAP4 POP SWAP2 DUP1 PUSH1 0x1 PUSH1 0x1 PUSH1 0xA0 SHL SUB DUP12 AND ISZERO PUSH2 0x131F JUMPI PUSH2 0x130B DUP12 CALLER ADDRESS DUP14 PUSH2 0x2F01 JUMP JUMPDEST PUSH2 0x1315 DUP12 CALLVALUE PUSH2 0x2E62 JUMP JUMPDEST SWAP1 SWAP3 POP SWAP1 POP PUSH2 0x1388 JUMP JUMPDEST DUP10 CALLVALUE LT ISZERO PUSH2 0x136F JUMPI PUSH1 0x40 MLOAD PUSH3 0x461BCD PUSH1 0xE5 SHL DUP2 MSTORE PUSH1 0x20 PUSH1 0x4 DUP3 ADD MSTORE PUSH1 0x1B PUSH1 0x24 DUP3 ADD MSTORE PUSH32 0x4C6F673A4D6F727467616765506F6F6C3A216D73672E76616C75650000000000 PUSH1 0x44 DUP3 ADD MSTORE PUSH1 0x64 ADD PUSH2 0x83E JUMP JUMPDEST PUSH2 0x1382 DUP12 PUSH2 0x137D DUP13 CALLVALUE PUSH2 0x3AE8 JUMP JUMPDEST PUSH2 0x2E62 JUMP JUMPDEST SWAP1 SWAP3 POP SWAP1 POP JUMPDEST PUSH1 0x40 DUP1 MLOAD PUSH1 0x80 DUP2 ADD DUP3 MSTORE DUP7 SLOAD DUP2 MSTORE PUSH1 0x1 DUP8 ADD SLOAD PUSH1 0x20 DUP3 ADD MSTORE PUSH1 0x2 DUP8 ADD SLOAD PUSH1 0x1 PUSH1 0x1 PUSH1 0xA0 SHL SUB DUP2 AND SWAP3 DUP3 ADD SWAP3 SWAP1 SWAP3 MSTORE PUSH1 0x1 PUSH1 0xA0 SHL SWAP1 SWAP2 DIV PUSH1 0x1 PUSH1 0x1 PUSH1 0x58 SHL SUB AND PUSH1 0x60 DUP1 DUP4 ADD SWAP2 SWAP1 SWAP2 MSTORE DUP10 ADD MLOAD PUSH2 0x13E1 SWAP2 SWAP1 DUP5 SWAP1 DUP5 SWAP1 PUSH2 0x321C JUMP JUMPDEST PUSH1 0x0 PUSH2 0x13F0 DUP4 PUSH3 0x186A0 PUSH2 0x3AC9 JUMP JUMPDEST PUSH1 0x1 PUSH1 0x1 PUSH1 0x58 SHL SUB DUP12 AND PUSH2 0x1404 DUP5 DUP15 PUSH2 0x3AC9 JUMP JUMPDEST PUSH2 0x140E SWAP2 SWAP1 PUSH2 0x3AC9 JUMP JUMPDEST PUSH2 0x1418 SWAP2 SWAP1 PUSH2 0x39BE JUMP JUMPDEST PUSH1 0x2 SLOAD PUSH1 0x40 MLOAD PUSH4 0x13B1DB0B PUSH1 0xE3 SHL DUP2 MSTORE PUSH1 0x4 DUP2 ADD DUP4 SWAP1 MSTORE CALLER PUSH1 0x24 DUP3 ADD MSTORE SWAP2 SWAP3 POP PUSH1 0x1 PUSH1 0x1 PUSH1 0xA0 SHL SUB AND SWAP1 PUSH4 0x9D8ED858 SWAP1 PUSH1 0x44 ADD PUSH1 0x0 PUSH1 0x40 MLOAD DUP1 DUP4 SUB DUP2 PUSH1 0x0 DUP8 DUP1 EXTCODESIZE ISZERO DUP1 ISZERO PUSH2 0x1465 JUMPI PUSH1 0x0 DUP1 REVERT JUMPDEST POP GAS CALL ISZERO DUP1 ISZERO PUSH2 0x1479 JUMPI RETURNDATASIZE PUSH1 0x0 DUP1 RETURNDATACOPY RETURNDATASIZE PUSH1 0x0 REVERT JUMPDEST POP POP POP POP DUP11 DUP5 PUSH2 0x1489 SWAP2 SWAP1 PUSH2 0x39A6 JUMP JUMPDEST DUP7 SSTORE PUSH2 0x1495 DUP2 DUP7 PUSH2 0x39A6 JUMP JUMPDEST PUSH1 0x1 DUP8 ADD DUP2 SWAP1 SSTORE PUSH1 0x2 DUP8 ADD DUP1 SLOAD PUSH1 0x1 PUSH1 0x1 PUSH1 0xA0 SHL SUB NOT AND NUMBER PUSH1 0x1 PUSH1 0x1 PUSH1 0xA0 SHL SUB AND OR SWAP1 SSTORE DUP7 SLOAD PUSH2 0x14C6 SWAP2 DUP6 DUP6 PUSH2 0x1A17 JUMP JUMPDEST DUP7 PUSH1 0x2 ADD PUSH1 0x14 PUSH2 0x100 EXP DUP2 SLOAD DUP2 PUSH1 0x1 PUSH1 0x1 PUSH1 0x58 SHL SUB MUL NOT AND SWAP1 DUP4 PUSH1 0x1 PUSH1 0x1 PUSH1 0x58 SHL SUB AND MUL OR SWAP1 SSTORE POP PUSH1 0x0 DUP1 MLOAD PUSH1 0x20 PUSH2 0x3B3C DUP4 CODECOPY DUP2 MLOAD SWAP2 MSTORE DUP13 DUP8 PUSH1 0x0 ADD SLOAD DUP9 PUSH1 0x1 ADD SLOAD DUP7 DUP7 DUP12 PUSH1 0x2 ADD PUSH1 0x14 SWAP1 SLOAD SWAP1 PUSH2 0x100 EXP SWAP1 DIV PUSH1 0x1 PUSH1 0x1 PUSH1 0x58 SHL SUB AND PUSH1 0x40 MLOAD PUSH2 0x1534 SWAP7 SWAP6 SWAP5 SWAP4 SWAP3 SWAP2 SWAP1 PUSH2 0x3832 JUMP JUMPDEST PUSH1 0x40 MLOAD DUP1 SWAP2 SUB SWAP1 LOG1 POP POP PUSH1 0x0 DUP1 SSTORE POP POP POP POP POP POP POP POP POP POP JUMP JUMPDEST PUSH1 0x1 SLOAD PUSH1 0x40 MLOAD PUSH4 0x91E1472B PUSH1 0xE0 SHL DUP2 MSTORE PUSH1 0x1 PUSH1 0x1 PUSH1 0xA0 SHL SUB SWAP1 SWAP2 AND SWAP1 PUSH4 0x91E1472B SWAP1 PUSH2 0x1581 SWAP1 CALLER SWAP1 PUSH1 0x0 SWAP1 PUSH1 0x4 ADD PUSH2 0x3819 JUMP JUMPDEST PUSH1 0x20 PUSH1 0x40 MLOAD DUP1 DUP4 SUB DUP2 DUP7 DUP1 EXTCODESIZE ISZERO DUP1 ISZERO PUSH2 0x1599 JUMPI PUSH1 0x0 DUP1 REVERT JUMPDEST POP GAS STATICCALL ISZERO DUP1 ISZERO PUSH2 0x15AD JUMPI RETURNDATASIZE PUSH1 0x0 DUP1 RETURNDATACOPY RETURNDATASIZE PUSH1 0x0 REVERT JUMPDEST POP POP POP POP PUSH1 0x40 MLOAD RETURNDATASIZE PUSH1 0x1F NOT PUSH1 0x1F DUP3 ADD AND DUP3 ADD DUP1 PUSH1 0x40 MSTORE POP DUP2 ADD SWAP1 PUSH2 0x15D1 SWAP2 SWAP1 PUSH2 0x362F JUMP JUMPDEST PUSH2 0x15ED JUMPI PUSH1 0x40 MLOAD PUSH3 0x461BCD PUSH1 0xE5 SHL DUP2 MSTORE PUSH1 0x4 ADD PUSH2 0x83E SWAP1 PUSH2 0x3913 JUMP JUMPDEST PUSH1 0x6 DUP1 SLOAD PUSH1 0x1 PUSH1 0x1 PUSH1 0xA0 SHL SUB NOT AND PUSH1 0x1 PUSH1 0x1 PUSH1 0xA0 SHL SUB SWAP3 SWAP1 SWAP3 AND SWAP2 SWAP1 SWAP2 OR SWAP1 SSTORE JUMP JUMPDEST PUSH1 0x1 SLOAD PUSH1 0x40 MLOAD PUSH4 0x91E1472B PUSH1 0xE0 SHL DUP2 MSTORE PUSH1 0x1 PUSH1 0x1 PUSH1 0xA0 SHL SUB SWAP1 SWAP2 AND SWAP1 PUSH4 0x91E1472B SWAP1 PUSH2 0x1642 SWAP1 CALLER SWAP1 PUSH1 0x0 SWAP1 PUSH1 0x4 ADD PUSH2 0x3819 JUMP JUMPDEST PUSH1 0x20 PUSH1 0x40 MLOAD DUP1 DUP4 SUB DUP2 DUP7 DUP1 EXTCODESIZE ISZERO DUP1 ISZERO PUSH2 0x165A JUMPI PUSH1 0x0 DUP1 REVERT JUMPDEST POP GAS STATICCALL ISZERO DUP1 ISZERO PUSH2 0x166E JUMPI RETURNDATASIZE PUSH1 0x0 DUP1 RETURNDATACOPY RETURNDATASIZE PUSH1 0x0 REVERT JUMPDEST POP POP POP POP PUSH1 0x40 MLOAD RETURNDATASIZE PUSH1 0x1F NOT PUSH1 0x1F DUP3 ADD AND DUP3 ADD DUP1 PUSH1 0x40 MSTORE POP DUP2 ADD SWAP1 PUSH2 0x1692 SWAP2 SWAP1 PUSH2 0x362F JUMP JUMPDEST PUSH2 0x16AE JUMPI PUSH1 0x40 MLOAD PUSH3 0x461BCD PUSH1 0xE5 SHL DUP2 MSTORE PUSH1 0x4 ADD PUSH2 0x83E SWAP1 PUSH2 0x3913 JUMP JUMPDEST PUSH1 0x1 PUSH1 0x1 PUSH1 0xA0 SHL SUB SWAP1 SWAP2 AND PUSH1 0x0 SWAP1 DUP2 MSTORE PUSH1 0x4 PUSH1 0x20 MSTORE PUSH1 0x40 SWAP1 KECCAK256 DUP1 SLOAD PUSH1 0x1 PUSH1 0x1 PUSH1 0x58 SHL SUB SWAP1 SWAP3 AND PUSH2 0x100 MUL PUSH12 0xFFFFFFFFFFFFFFFFFFFFFF00 NOT SWAP1 SWAP3 AND SWAP2 SWAP1 SWAP2 OR SWAP1 SSTORE JUMP JUMPDEST PUSH1 0x3 SLOAD PUSH1 0x1 PUSH1 0xA0 SHL SWAP1 DIV PUSH1 0x1 PUSH1 0x1 PUSH1 0x60 SHL SUB AND PUSH2 0x1720 JUMPI PUSH1 0x40 MLOAD PUSH3 0x461BCD PUSH1 0xE5 SHL DUP2 MSTORE PUSH1 0x4 ADD PUSH2 0x83E SWAP1 PUSH2 0x3979 JUMP JUMPDEST PUSH1 0x0 SLOAD ISZERO PUSH2 0x1740 JUMPI PUSH1 0x40 MLOAD PUSH3 0x461BCD PUSH1 0xE5 SHL DUP2 MSTORE PUSH1 0x4 ADD PUSH2 0x83E SWAP1 PUSH2 0x38A5 JUMP JUMPDEST PUSH1 0x1 PUSH1 0x0 SWAP1 DUP2 SSTORE PUSH1 0x1 PUSH1 0x1 PUSH1 0xA0 SHL SUB DUP4 AND DUP2 MSTORE PUSH1 0x4 PUSH1 0x20 SWAP1 DUP2 MSTORE PUSH1 0x40 SWAP2 DUP3 SWAP1 KECCAK256 DUP3 MLOAD PUSH1 0x80 DUP2 ADD DUP5 MSTORE SWAP1 SLOAD PUSH1 0xFF DUP2 AND ISZERO ISZERO DUP1 DUP4 MSTORE PUSH1 0x1 PUSH1 0x1 PUSH1 0x58 SHL SUB PUSH2 0x100 DUP4 DIV AND SWAP4 DUP4 ADD SWAP4 SWAP1 SWAP4 MSTORE PUSH1 0x1 PUSH1 0x1 PUSH1 0x50 SHL SUB PUSH1 0x1 PUSH1 0x60 SHL DUP3 DIV DUP2 AND SWAP5 DUP4 ADD SWAP5 SWAP1 SWAP5 MSTORE PUSH1 0x1 PUSH1 0xB0 SHL SWAP1 DIV SWAP1 SWAP3 AND PUSH1 0x60 DUP4 ADD MSTORE PUSH2 0x17CB JUMPI PUSH1 0x40 MLOAD PUSH3 0x461BCD PUSH1 0xE5 SHL DUP2 MSTORE PUSH1 0x4 ADD PUSH2 0x83E SWAP1 PUSH2 0x3942 JUMP JUMPDEST PUSH1 0x1 PUSH1 0x1 PUSH1 0xA0 SHL SUB DUP4 AND PUSH1 0x0 SWAP1 DUP2 MSTORE PUSH1 0x5 PUSH1 0x20 SWAP1 DUP2 MSTORE PUSH1 0x40 DUP1 DUP4 KECCAK256 CALLER DUP5 MSTORE PUSH1 0x1 DUP2 ADD SWAP1 SWAP3 MSTORE SWAP1 SWAP2 KECCAK256 SLOAD DUP1 PUSH2 0x1811 JUMPI PUSH1 0x40 MLOAD PUSH3 0x461BCD PUSH1 0xE5 SHL DUP2 MSTORE PUSH1 0x4 ADD PUSH2 0x83E SWAP1 PUSH2 0x38DC JUMP JUMPDEST PUSH1 0x0 DUP3 PUSH2 0x181F PUSH1 0x1 DUP5 PUSH2 0x3AE8 JUMP JUMPDEST DUP2 SLOAD DUP2 LT PUSH2 0x183D JUMPI PUSH4 0x4E487B71 PUSH1 0xE0 SHL PUSH1 0x0 MSTORE PUSH1 0x32 PUSH1 0x4 MSTORE PUSH1 0x24 PUSH1 0x0 REVERT JUMPDEST PUSH1 0x0 SWAP2 DUP3 MSTORE PUSH1 0x20 SWAP1 SWAP2 KECCAK256 PUSH1 0x3 SWAP1 SWAP2 MUL ADD PUSH1 0x1 DUP2 ADD SLOAD DUP2 SLOAD SWAP2 SWAP3 POP SWAP1 DUP7 ISZERO DUP1 ISZERO SWAP1 PUSH2 0x1867 JUMPI POP DUP2 DUP8 GT ISZERO JUMPDEST PUSH2 0x1883 JUMPI PUSH1 0x40 MLOAD PUSH3 0x461BCD PUSH1 0xE5 SHL DUP2 MSTORE PUSH1 0x4 ADD PUSH2 0x83E SWAP1 PUSH2 0x386E JUMP JUMPDEST PUSH1 0x0 DUP1 PUSH2 0x1890 DUP11 CALLVALUE PUSH2 0x2E62 JUMP JUMPDEST PUSH1 0x40 DUP1 MLOAD PUSH1 0x80 DUP2 ADD DUP3 MSTORE DUP9 SLOAD DUP2 MSTORE PUSH1 0x1 DUP10 ADD SLOAD PUSH1 0x20 DUP3 ADD MSTORE PUSH1 0x2 DUP10 ADD SLOAD PUSH1 0x1 PUSH1 0x1 PUSH1 0xA0 SHL SUB DUP2 AND SWAP3 DUP3 ADD SWAP3 SWAP1 SWAP3 MSTORE PUSH1 0x1 PUSH1 0xA0 SHL SWAP1 SWAP2 DIV PUSH1 0x1 PUSH1 0x1 PUSH1 0x58 SHL SUB AND PUSH1 0x60 DUP1 DUP4 ADD SWAP2 SWAP1 SWAP2 MSTORE DUP12 ADD MLOAD SWAP3 SWAP5 POP SWAP1 SWAP3 POP PUSH2 0x18EE SWAP2 DUP5 SWAP1 DUP5 SWAP1 PUSH2 0x321C JUMP JUMPDEST PUSH2 0x18F8 DUP10 DUP6 PUSH2 0x3AE8 JUMP JUMPDEST PUSH1 0x1 DUP7 ADD DUP2 SWAP1 SSTORE PUSH1 0x2 DUP7 ADD DUP1 SLOAD PUSH1 0x1 PUSH1 0x1 PUSH1 0xA0 SHL SUB NOT AND NUMBER PUSH1 0x1 PUSH1 0x1 PUSH1 0xA0 SHL SUB AND OR SWAP1 SSTORE PUSH2 0x1929 SWAP1 DUP5 SWAP1 DUP5 DUP5 PUSH2 0x1A17 JUMP JUMPDEST DUP6 PUSH1 0x2 ADD PUSH1 0x14 PUSH2 0x100 EXP DUP2 SLOAD DUP2 PUSH1 0x1 PUSH1 0x1 PUSH1 0x58 SHL SUB MUL NOT AND SWAP1 DUP4 PUSH1 0x1 PUSH1 0x1 PUSH1 0x58 SHL SUB AND MUL OR SWAP1 SSTORE POP PUSH1 0x0 DUP1 MLOAD PUSH1 0x20 PUSH2 0x3B3C DUP4 CODECOPY DUP2 MLOAD SWAP2 MSTORE DUP11 DUP7 PUSH1 0x0 ADD SLOAD DUP8 PUSH1 0x1 ADD SLOAD DUP6 DUP6 DUP11 PUSH1 0x2 ADD PUSH1 0x14 SWAP1 SLOAD SWAP1 PUSH2 0x100 EXP SWAP1 DIV PUSH1 0x1 PUSH1 0x1 PUSH1 0x58 SHL SUB AND PUSH1 0x40 MLOAD PUSH2 0x1997 SWAP7 SWAP6 SWAP5 SWAP4 SWAP3 SWAP2 SWAP1 PUSH2 0x3832 JUMP JUMPDEST PUSH1 0x40 MLOAD DUP1 SWAP2 SUB SWAP1 LOG1 PUSH1 0x2 SLOAD PUSH2 0x19B7 SWAP1 PUSH1 0x1 PUSH1 0x1 PUSH1 0xA0 SHL SUB AND CALLER ADDRESS DUP13 PUSH2 0x2F01 JUMP JUMPDEST PUSH1 0x2 SLOAD PUSH1 0x40 MLOAD PUSH4 0x46F61ED5 PUSH1 0xE1 SHL DUP2 MSTORE PUSH1 0x4 DUP2 ADD DUP12 SWAP1 MSTORE ADDRESS PUSH1 0x24 DUP3 ADD MSTORE PUSH1 0x1 PUSH1 0x1 PUSH1 0xA0 SHL SUB SWAP1 SWAP2 AND SWAP1 PUSH4 0x8DEC3DAA SWAP1 PUSH1 0x44 ADD PUSH1 0x0 PUSH1 0x40 MLOAD DUP1 DUP4 SUB DUP2 PUSH1 0x0 DUP8 DUP1 EXTCODESIZE ISZERO DUP1 ISZERO PUSH2 0x1A03 JUMPI PUSH1 0x0 DUP1 REVERT JUMPDEST POP GAS CALL ISZERO DUP1 ISZERO PUSH2 0xD1E JUMPI RETURNDATASIZE PUSH1 0x0 DUP1 RETURNDATACOPY RETURNDATASIZE PUSH1 0x0 REVERT JUMPDEST PUSH1 0x0 DUP5 PUSH2 0x1A26 JUMPI POP PUSH1 0x0 PUSH2 0x1A54 JUMP JUMPDEST PUSH2 0x1A30 DUP6 DUP4 PUSH2 0x3AC9 JUMP JUMPDEST PUSH2 0x1A3A DUP5 DUP7 PUSH2 0x3AC9 JUMP JUMPDEST PUSH2 0x1A47 SWAP1 PUSH3 0x186A0 PUSH2 0x3AC9 JUMP JUMPDEST PUSH2 0x1A51 SWAP2 SWAP1 PUSH2 0x39BE JUMP JUMPDEST SWAP1 POP JUMPDEST SWAP5 SWAP4 POP POP POP POP JUMP JUMPDEST PUSH1 0x1 PUSH1 0x1 PUSH1 0xA0 SHL SUB DUP1 DUP7 AND PUSH1 0x0 SWAP1 DUP2 MSTORE PUSH1 0x5 PUSH1 0x20 SWAP1 DUP2 MSTORE PUSH1 0x40 DUP1 DUP4 KECCAK256 SWAP4 DUP6 AND DUP4 MSTORE PUSH1 0x1 DUP1 DUP6 ADD SWAP1 SWAP3 MSTORE DUP3 KECCAK256 SLOAD SWAP2 SWAP3 DUP4 SWAP3 DUP4 SWAP3 DUP4 SWAP3 DUP12 SWAP3 SWAP1 SWAP2 DUP5 SWAP2 DUP4 SWAP2 PUSH2 0x1AA1 SWAP2 PUSH2 0x3AE8 JUMP JUMPDEST DUP2 SLOAD DUP2 LT PUSH2 0x1ABF JUMPI PUSH4 0x4E487B71 PUSH1 0xE0 SHL PUSH1 0x0 MSTORE PUSH1 0x32 PUSH1 0x4 MSTORE PUSH1 0x24 PUSH1 0x0 REVERT JUMPDEST PUSH1 0x0 SWAP2 DUP3 MSTORE PUSH1 0x20 SWAP2 DUP3 SWAP1 KECCAK256 PUSH1 0x40 DUP1 MLOAD PUSH1 0x80 DUP2 ADD DUP3 MSTORE PUSH1 0x3 SWAP1 SWAP4 MUL SWAP1 SWAP2 ADD DUP1 SLOAD DUP1 DUP5 MSTORE PUSH1 0x1 DUP3 ADD SLOAD SWAP5 DUP5 ADD SWAP5 SWAP1 SWAP5 MSTORE PUSH1 0x2 ADD SLOAD PUSH1 0x1 PUSH1 0x1 PUSH1 0xA0 SHL SUB DUP2 AND SWAP2 DUP4 ADD SWAP2 SWAP1 SWAP2 MSTORE PUSH1 0x1 PUSH1 0x1 PUSH1 0x58 SHL SUB PUSH1 0x1 PUSH1 0xA0 SHL SWAP1 SWAP2 DIV AND PUSH1 0x60 DUP3 ADD MSTORE SWAP2 POP ISZERO DUP1 ISZERO PUSH2 0x1B29 JUMPI POP PUSH1 0x20 DUP2 ADD MLOAD ISZERO JUMPDEST ISZERO PUSH2 0x1B44 JUMPI PUSH1 0x0 DUP1 PUSH1 0x0 DUP1 SWAP7 POP SWAP7 POP SWAP7 POP SWAP7 POP POP POP POP PUSH2 0x1C8F JUMP JUMPDEST PUSH1 0x3 SLOAD PUSH1 0x2 SLOAD PUSH1 0x0 SWAP2 PUSH2 0x1B65 SWAP2 PUSH1 0x1 PUSH1 0x1 PUSH1 0xA0 SHL SUB SWAP2 DUP3 AND SWAP2 DUP15 SWAP2 AND PUSH2 0x2C4D JUMP JUMPDEST PUSH1 0x20 DUP4 ADD MLOAD PUSH1 0x40 DUP5 ADD MLOAD PUSH1 0x60 DUP6 ADD MLOAD DUP6 MLOAD SWAP4 SWAP5 POP DUP16 SWAP4 PUSH2 0x1BC5 SWAP4 SWAP3 SWAP2 PUSH1 0x1 PUSH1 0x1 PUSH1 0x58 SHL SUB AND SWAP1 PUSH2 0x1B97 SWAP1 DUP5 DUP8 DUP10 PUSH2 0x1A17 JUMP JUMPDEST PUSH1 0x1 PUSH1 0x1 PUSH1 0xA0 SHL SUB DUP11 AND PUSH1 0x0 SWAP1 DUP2 MSTORE PUSH1 0x4 PUSH1 0x20 MSTORE PUSH1 0x40 SWAP1 KECCAK256 SLOAD PUSH1 0x1 PUSH1 0xB0 SHL SWAP1 DIV PUSH1 0x1 PUSH1 0x1 PUSH1 0x50 SHL SUB AND PUSH2 0x27FD JUMP JUMPDEST SWAP9 POP PUSH2 0x1BE6 DUP4 PUSH1 0x0 ADD MLOAD DUP11 DUP6 PUSH1 0x20 ADD MLOAD PUSH2 0x1BDF SWAP2 SWAP1 PUSH2 0x39A6 JUMP JUMPDEST DUP4 DUP6 PUSH2 0x1A17 JUMP JUMPDEST SWAP8 POP PUSH1 0x1 PUSH1 0x1 PUSH1 0x58 SHL SUB DUP12 AND DUP1 DUP10 LT PUSH2 0x1C06 JUMPI PUSH1 0x0 SWAP8 POP PUSH1 0x0 SWAP7 POP PUSH2 0x1C88 JUMP JUMPDEST PUSH2 0x1C10 DUP4 DUP3 PUSH2 0x3AC9 JUMP JUMPDEST DUP3 DUP6 PUSH1 0x20 ADD MLOAD PUSH2 0x1C20 SWAP2 SWAP1 PUSH2 0x3AC9 JUMP JUMPDEST PUSH2 0x1C2D SWAP1 PUSH3 0x186A0 PUSH2 0x3AC9 JUMP JUMPDEST PUSH2 0x1C37 SWAP2 SWAP1 PUSH2 0x39BE JUMP JUMPDEST DUP5 MLOAD PUSH2 0x1C43 SWAP2 SWAP1 PUSH2 0x3AE8 JUMP JUMPDEST PUSH1 0x20 DUP6 ADD MLOAD SWAP1 SWAP9 POP PUSH2 0x1C58 DUP4 PUSH3 0x186A0 PUSH2 0x3AC9 JUMP JUMPDEST DUP6 MLOAD DUP4 SWAP1 PUSH2 0x1C67 SWAP1 DUP8 SWAP1 PUSH2 0x3AC9 JUMP JUMPDEST PUSH2 0x1C71 SWAP2 SWAP1 PUSH2 0x3AC9 JUMP JUMPDEST PUSH2 0x1C7B SWAP2 SWAP1 PUSH2 0x39BE JUMP JUMPDEST PUSH2 0x1C85 SWAP2 SWAP1 PUSH2 0x3AE8 JUMP JUMPDEST SWAP7 POP JUMPDEST POP POP POP POP POP POP JUMPDEST SWAP6 POP SWAP6 POP SWAP6 POP SWAP6 SWAP2 POP POP JUMP JUMPDEST PUSH1 0x3 SLOAD PUSH1 0x1 PUSH1 0x1 PUSH1 0x60 SHL SUB PUSH1 0x1 PUSH1 0xA0 SHL SWAP1 SWAP2 DIV AND PUSH1 0x1 EQ PUSH2 0x1CF9 JUMPI PUSH1 0x40 MLOAD PUSH3 0x461BCD PUSH1 0xE5 SHL DUP2 MSTORE PUSH1 0x20 PUSH1 0x4 DUP3 ADD MSTORE PUSH1 0x18 PUSH1 0x24 DUP3 ADD MSTORE PUSH24 0x4C6F673A4D6F727467616765506F6F6C3A21616374697665 PUSH1 0x40 SHL PUSH1 0x44 DUP3 ADD MSTORE PUSH1 0x64 ADD PUSH2 0x83E JUMP JUMPDEST PUSH1 0x0 SLOAD ISZERO PUSH2 0x1D19 JUMPI PUSH1 0x40 MLOAD PUSH3 0x461BCD PUSH1 0xE5 SHL DUP2 MSTORE PUSH1 0x4 ADD PUSH2 0x83E SWAP1 PUSH2 0x38A5 JUMP JUMPDEST PUSH1 0x1 PUSH1 0x0 SWAP1 DUP2 SSTORE PUSH1 0x1 PUSH1 0x1 PUSH1 0xA0 SHL SUB DUP4 AND DUP2 MSTORE PUSH1 0x4 PUSH1 0x20 SWAP1 DUP2 MSTORE PUSH1 0x40 SWAP2 DUP3 SWAP1 KECCAK256 DUP3 MLOAD PUSH1 0x80 DUP2 ADD DUP5 MSTORE SWAP1 SLOAD PUSH1 0xFF DUP2 AND ISZERO ISZERO DUP1 DUP4 MSTORE PUSH1 0x1 PUSH1 0x1 PUSH1 0x58 SHL SUB PUSH2 0x100 DUP4 DIV AND SWAP4 DUP4 ADD SWAP4 SWAP1 SWAP4 MSTORE PUSH1 0x1 PUSH1 0x1 PUSH1 0x50 SHL SUB PUSH1 0x1 PUSH1 0x60 SHL DUP3 DIV DUP2 AND SWAP5 DUP4 ADD SWAP5 SWAP1 SWAP5 MSTORE PUSH1 0x1 PUSH1 0xB0 SHL SWAP1 DIV SWAP1 SWAP3 AND PUSH1 0x60 DUP4 ADD MSTORE PUSH2 0x1DA4 JUMPI PUSH1 0x40 MLOAD PUSH3 0x461BCD PUSH1 0xE5 SHL DUP2 MSTORE PUSH1 0x4 ADD PUSH2 0x83E SWAP1 PUSH2 0x3942 JUMP JUMPDEST PUSH1 0x0 DUP3 GT PUSH2 0x1DC4 JUMPI PUSH1 0x40 MLOAD PUSH3 0x461BCD PUSH1 0xE5 SHL DUP2 MSTORE PUSH1 0x4 ADD PUSH2 0x83E SWAP1 PUSH2 0x386E JUMP JUMPDEST PUSH1 0x1 PUSH1 0x1 PUSH1 0xA0 SHL SUB DUP4 AND PUSH1 0x0 SWAP1 DUP2 MSTORE PUSH1 0x5 PUSH1 0x20 SWAP1 DUP2 MSTORE PUSH1 0x40 DUP1 DUP4 KECCAK256 CALLER DUP5 MSTORE PUSH1 0x1 DUP2 ADD SWAP1 SWAP3 MSTORE SWAP1 SWAP2 KECCAK256 SLOAD DUP1 PUSH2 0x1E0A JUMPI PUSH1 0x40 MLOAD PUSH3 0x461BCD PUSH1 0xE5 SHL DUP2 MSTORE PUSH1 0x4 ADD PUSH2 0x83E SWAP1 PUSH2 0x38DC JUMP JUMPDEST PUSH1 0x0 DUP3 PUSH2 0x1E18 PUSH1 0x1 DUP5 PUSH2 0x3AE8 JUMP JUMPDEST DUP2 SLOAD DUP2 LT PUSH2 0x1E36 JUMPI PUSH4 0x4E487B71 PUSH1 0xE0 SHL PUSH1 0x0 MSTORE PUSH1 0x32 PUSH1 0x4 MSTORE PUSH1 0x24 PUSH1 0x0 REVERT JUMPDEST PUSH1 0x0 SWAP2 DUP3 MSTORE PUSH1 0x20 SWAP1 SWAP2 KECCAK256 PUSH1 0x3 SWAP1 SWAP2 MUL ADD PUSH1 0x1 DUP2 ADD SLOAD DUP2 SLOAD SWAP2 SWAP3 POP SWAP1 DUP1 PUSH2 0x1E9E JUMPI PUSH1 0x40 MLOAD PUSH3 0x461BCD PUSH1 0xE5 SHL DUP2 MSTORE PUSH1 0x20 PUSH1 0x4 DUP3 ADD DUP2 SWAP1 MSTORE PUSH1 0x24 DUP3 ADD MSTORE PUSH32 0x4C6F673A4D6F727467616765506F6F6C3A216D6F727467616765417373657473 PUSH1 0x44 DUP3 ADD MSTORE PUSH1 0x64 ADD PUSH2 0x83E JUMP JUMPDEST PUSH1 0x0 DUP1 PUSH2 0x1EAB DUP11 CALLVALUE PUSH2 0x2E62 JUMP JUMPDEST PUSH1 0x40 DUP1 MLOAD PUSH1 0x80 DUP2 ADD DUP3 MSTORE DUP9 SLOAD DUP2 MSTORE PUSH1 0x1 DUP10 ADD SLOAD PUSH1 0x20 DUP3 ADD MSTORE PUSH1 0x2 DUP10 ADD SLOAD PUSH1 0x1 PUSH1 0x1 PUSH1 0xA0 SHL SUB DUP2 AND SWAP3 DUP3 ADD SWAP3 SWAP1 SWAP3 MSTORE PUSH1 0x1 PUSH1 0xA0 SHL SWAP1 SWAP2 DIV PUSH1 0x1 PUSH1 0x1 PUSH1 0x58 SHL SUB AND PUSH1 0x60 DUP1 DUP4 ADD SWAP2 SWAP1 SWAP2 MSTORE DUP12 ADD MLOAD SWAP3 SWAP5 POP SWAP1 SWAP3 POP PUSH2 0x1F09 SWAP2 DUP5 SWAP1 DUP5 SWAP1 PUSH2 0x321C JUMP JUMPDEST PUSH2 0x1F13 DUP10 DUP6 PUSH2 0x39A6 JUMP JUMPDEST PUSH1 0x1 DUP7 ADD DUP2 SWAP1 SSTORE PUSH1 0x2 DUP7 ADD DUP1 SLOAD PUSH1 0x1 PUSH1 0x1 PUSH1 0xA0 SHL SUB NOT AND NUMBER PUSH1 0x1 PUSH1 0x1 PUSH1 0xA0 SHL SUB AND OR SWAP1 SSTORE PUSH1 0x0 SWAP1 PUSH2 0x1F47 SWAP1 DUP6 SWAP1 DUP6 DUP6 PUSH2 0x1A17 JUMP JUMPDEST SWAP1 POP DUP9 PUSH1 0x20 ADD MLOAD PUSH1 0x1 PUSH1 0x1 PUSH1 0x58 SHL SUB AND DUP2 GT ISZERO PUSH2 0x1FA2 JUMPI PUSH1 0x40 MLOAD PUSH3 0x461BCD PUSH1 0xE5 SHL DUP2 MSTORE PUSH1 0x20 PUSH1 0x4 DUP3 ADD MSTORE PUSH1 0x19 PUSH1 0x24 DUP3 ADD MSTORE PUSH25 0x4C6F673A4D6F727467616765506F6F6C3A216D617852617465 PUSH1 0x38 SHL PUSH1 0x44 DUP3 ADD MSTORE PUSH1 0x64 ADD PUSH2 0x83E JUMP JUMPDEST DUP1 DUP7 PUSH1 0x2 ADD PUSH1 0x14 PUSH2 0x100 EXP DUP2 SLOAD DUP2 PUSH1 0x1 PUSH1 0x1 PUSH1 0x58 SHL SUB MUL NOT AND SWAP1 DUP4 PUSH1 0x1 PUSH1 0x1 PUSH1 0x58 SHL SUB AND MUL OR SWAP1 SSTORE POP PUSH1 0x0 DUP1 MLOAD PUSH1 0x20 PUSH2 0x3B3C DUP4 CODECOPY DUP2 MLOAD SWAP2 MSTORE DUP12 DUP8 PUSH1 0x0 ADD SLOAD DUP9 PUSH1 0x1 ADD SLOAD DUP7 DUP7 DUP12 PUSH1 0x2 ADD PUSH1 0x14 SWAP1 SLOAD SWAP1 PUSH2 0x100 EXP SWAP1 DIV PUSH1 0x1 PUSH1 0x1 PUSH1 0x58 SHL SUB AND PUSH1 0x40 MLOAD PUSH2 0x2011 SWAP7 SWAP6 SWAP5 SWAP4 SWAP3 SWAP2 SWAP1 PUSH2 0x3832 JUMP JUMPDEST PUSH1 0x40 MLOAD DUP1 SWAP2 SUB SWAP1 LOG1 PUSH1 0x2 SLOAD PUSH1 0x40 MLOAD PUSH4 0x13B1DB0B PUSH1 0xE3 SHL DUP2 MSTORE PUSH1 0x4 DUP2 ADD DUP13 SWAP1 MSTORE CALLER PUSH1 0x24 DUP3 ADD MSTORE PUSH1 0x1 PUSH1 0x1 PUSH1 0xA0 SHL SUB SWAP1 SWAP2 AND SWAP1 PUSH4 0x9D8ED858 SWAP1 PUSH1 0x44 ADD PUSH1 0x0 PUSH1 0x40 MLOAD DUP1 DUP4 SUB DUP2 PUSH1 0x0 DUP8 DUP1 EXTCODESIZE ISZERO DUP1 ISZERO PUSH2 0x2065 JUMPI PUSH1 0x0 DUP1 REVERT JUMPDEST POP GAS CALL ISZERO DUP1 ISZERO PUSH2 0x2079 JUMPI RETURNDATASIZE PUSH1 0x0 DUP1 RETURNDATACOPY RETURNDATASIZE PUSH1 0x0 REVERT JUMPDEST POP POP PUSH1 0x0 DUP1 SSTORE POP POP POP POP POP POP POP POP POP POP POP POP POP JUMP JUMPDEST PUSH1 0x3 SLOAD PUSH1 0x1 PUSH1 0xA0 SHL SWAP1 DIV PUSH1 0x1 PUSH1 0x1 PUSH1 0x60 SHL SUB AND PUSH2 0x20BD JUMPI PUSH1 0x40 MLOAD PUSH3 0x461BCD PUSH1 0xE5 SHL DUP2 MSTORE PUSH1 0x4 ADD PUSH2 0x83E SWAP1 PUSH2 0x3979 JUMP JUMPDEST PUSH1 0x0 SLOAD ISZERO PUSH2 0x20DD JUMPI PUSH1 0x40 MLOAD PUSH3 0x461BCD PUSH1 0xE5 SHL DUP2 MSTORE PUSH1 0x4 ADD PUSH2 0x83E SWAP1 PUSH2 0x38A5 JUMP JUMPDEST PUSH1 0x1 PUSH1 0x0 SWAP1 DUP2 SSTORE PUSH1 0x1 PUSH1 0x1 PUSH1 0xA0 SHL SUB DUP4 AND DUP2 MSTORE PUSH1 0x4 PUSH1 0x20 SWAP1 DUP2 MSTORE PUSH1 0x40 SWAP2 DUP3 SWAP1 KECCAK256 DUP3 MLOAD PUSH1 0x80 DUP2 ADD DUP5 MSTORE SWAP1 SLOAD PUSH1 0xFF DUP2 AND ISZERO ISZERO DUP1 DUP4 MSTORE PUSH1 0x1 PUSH1 0x1 PUSH1 0x58 SHL SUB PUSH2 0x100 DUP4 DIV AND SWAP4 DUP4 ADD SWAP4 SWAP1 SWAP4 MSTORE PUSH1 0x1 PUSH1 0x1 PUSH1 0x50 SHL SUB PUSH1 0x1 PUSH1 0x60 SHL DUP3 DIV DUP2 AND SWAP5 DUP4 ADD SWAP5 SWAP1 SWAP5 MSTORE PUSH1 0x1 PUSH1 0xB0 SHL SWAP1 DIV SWAP1 SWAP3 AND PUSH1 0x60 DUP4 ADD MSTORE PUSH2 0x2168 JUMPI PUSH1 0x40 MLOAD PUSH3 0x461BCD PUSH1 0xE5 SHL DUP2 MSTORE PUSH1 0x4 ADD PUSH2 0x83E SWAP1 PUSH2 0x3942 JUMP JUMPDEST PUSH1 0x0 DUP3 GT PUSH2 0x2188 JUMPI PUSH1 0x40 MLOAD PUSH3 0x461BCD PUSH1 0xE5 SHL DUP2 MSTORE PUSH1 0x4 ADD PUSH2 0x83E SWAP1 PUSH2 0x386E JUMP JUMPDEST PUSH1 0x1 PUSH1 0x1 PUSH1 0xA0 SHL SUB DUP4 AND PUSH1 0x0 SWAP1 DUP2 MSTORE PUSH1 0x5 PUSH1 0x20 SWAP1 DUP2 MSTORE PUSH1 0x40 DUP1 DUP4 KECCAK256 CALLER DUP5 MSTORE PUSH1 0x1 DUP2 ADD SWAP1 SWAP3 MSTORE SWAP1 SWAP2 KECCAK256 SLOAD DUP1 PUSH2 0x21D3 JUMPI DUP2 SLOAD PUSH1 0x1 SWAP1 DUP2 ADD DUP1 DUP5 SSTORE CALLER PUSH1 0x0 SWAP1 DUP2 MSTORE SWAP2 DUP5 ADD PUSH1 0x20 MSTORE PUSH1 0x40 SWAP1 SWAP2 KECCAK256 SSTORE JUMPDEST CALLER PUSH1 0x0 SWAP1 DUP2 MSTORE PUSH1 0x1 DUP1 DUP5 ADD PUSH1 0x20 MSTORE PUSH1 0x40 DUP3 KECCAK256 SLOAD DUP5 SWAP2 PUSH2 0x21F1 SWAP2 PUSH2 0x3AE8 JUMP JUMPDEST DUP2 SLOAD DUP2 LT PUSH2 0x220F JUMPI PUSH4 0x4E487B71 PUSH1 0xE0 SHL PUSH1 0x0 MSTORE PUSH1 0x32 PUSH1 0x4 MSTORE PUSH1 0x24 PUSH1 0x0 REVERT JUMPDEST PUSH1 0x0 SWAP2 DUP3 MSTORE PUSH1 0x20 DUP3 KECCAK256 PUSH1 0x1 PUSH1 0x3 SWAP1 SWAP3 MUL ADD SWAP1 DUP2 ADD SLOAD DUP2 SLOAD SWAP2 SWAP4 POP SWAP2 DUP1 PUSH1 0x1 PUSH1 0x1 PUSH1 0xA0 SHL SUB DUP11 AND ISZERO PUSH2 0x225A JUMPI PUSH2 0x2246 DUP11 CALLER ADDRESS DUP13 PUSH2 0x2F01 JUMP JUMPDEST PUSH2 0x2250 DUP11 CALLVALUE PUSH2 0x2E62 JUMP JUMPDEST SWAP1 SWAP3 POP SWAP1 POP PUSH2 0x22BE JUMP JUMPDEST DUP9 CALLVALUE LT ISZERO PUSH2 0x22AA JUMPI PUSH1 0x40 MLOAD PUSH3 0x461BCD PUSH1 0xE5 SHL DUP2 MSTORE PUSH1 0x20 PUSH1 0x4 DUP3 ADD MSTORE PUSH1 0x1B PUSH1 0x24 DUP3 ADD MSTORE PUSH32 0x4C6F673A4D6F727467616765506F6F6C3A216D73672E76616C75650000000000 PUSH1 0x44 DUP3 ADD MSTORE PUSH1 0x64 ADD PUSH2 0x83E JUMP JUMPDEST PUSH2 0x22B8 DUP11 PUSH2 0x137D DUP12 CALLVALUE PUSH2 0x3AE8 JUMP JUMPDEST SWAP1 SWAP3 POP SWAP1 POP JUMPDEST PUSH1 0x40 DUP1 MLOAD PUSH1 0x80 DUP2 ADD DUP3 MSTORE DUP7 SLOAD DUP2 MSTORE PUSH1 0x1 DUP8 ADD SLOAD PUSH1 0x20 DUP3 ADD MSTORE PUSH1 0x2 DUP8 ADD SLOAD PUSH1 0x1 PUSH1 0x1 PUSH1 0xA0 SHL SUB DUP2 AND SWAP3 DUP3 ADD SWAP3 SWAP1 SWAP3 MSTORE PUSH1 0x1 PUSH1 0xA0 SHL SWAP1 SWAP2 DIV PUSH1 0x1 PUSH1 0x1 PUSH1 0x58 SHL SUB AND PUSH1 0x60 DUP1 DUP4 ADD SWAP2 SWAP1 SWAP2 MSTORE DUP10 ADD MLOAD PUSH2 0x2317 SWAP2 SWAP1 DUP5 SWAP1 DUP5 SWAP1 PUSH2 0x321C JUMP JUMPDEST PUSH2 0x2321 DUP10 DUP5 PUSH2 0x39A6 JUMP JUMPDEST DUP1 DUP7 SSTORE PUSH1 0x2 DUP7 ADD DUP1 SLOAD PUSH1 0x1 PUSH1 0x1 PUSH1 0xA0 SHL SUB NOT AND NUMBER PUSH1 0x1 PUSH1 0x1 PUSH1 0xA0 SHL SUB AND OR SWAP1 SSTORE PUSH2 0x234D SWAP1 DUP6 DUP5 DUP5 PUSH2 0x1A17 JUMP JUMPDEST DUP6 PUSH1 0x2 ADD PUSH1 0x14 PUSH2 0x100 EXP DUP2 SLOAD DUP2 PUSH1 0x1 PUSH1 0x1 PUSH1 0x58 SHL SUB MUL NOT AND SWAP1 DUP4 PUSH1 0x1 PUSH1 0x1 PUSH1 0x58 SHL SUB AND MUL OR SWAP1 SSTORE POP PUSH1 0x0 DUP1 MLOAD PUSH1 0x20 PUSH2 0x3B3C DUP4 CODECOPY DUP2 MLOAD SWAP2 MSTORE DUP11 DUP7 PUSH1 0x0 ADD SLOAD DUP8 PUSH1 0x1 ADD SLOAD DUP6 DUP6 DUP11 PUSH1 0x2 ADD PUSH1 0x14 SWAP1 SLOAD SWAP1 PUSH2 0x100 EXP SWAP1 DIV PUSH1 0x1 PUSH1 0x1 PUSH1 0x58 SHL SUB AND PUSH1 0x40 MLOAD PUSH2 0x23BB SWAP7 SWAP6 SWAP5 SWAP4 SWAP3 SWAP2 SWAP1 PUSH2 0x3832 JUMP JUMPDEST PUSH1 0x40 MLOAD DUP1 SWAP2 SUB SWAP1 LOG1 POP POP PUSH1 0x0 DUP1 SSTORE POP POP POP POP POP POP POP POP JUMP JUMPDEST PUSH1 0x1 SLOAD PUSH1 0x40 MLOAD PUSH4 0x91E1472B PUSH1 0xE0 SHL DUP2 MSTORE PUSH1 0x1 PUSH1 0x1 PUSH1 0xA0 SHL SUB SWAP1 SWAP2 AND SWAP1 PUSH4 0x91E1472B SWAP1 PUSH2 0x2406 SWAP1 CALLER SWAP1 PUSH1 0x0 SWAP1 PUSH1 0x4 ADD PUSH2 0x3819 JUMP JUMPDEST PUSH1 0x20 PUSH1 0x40 MLOAD DUP1 DUP4 SUB DUP2 DUP7 DUP1 EXTCODESIZE ISZERO DUP1 ISZERO PUSH2 0x241E JUMPI PUSH1 0x0 DUP1 REVERT JUMPDEST POP GAS STATICCALL ISZERO DUP1 ISZERO PUSH2 0x2432 JUMPI RETURNDATASIZE PUSH1 0x0 DUP1 RETURNDATACOPY RETURNDATASIZE PUSH1 0x0 REVERT JUMPDEST POP POP POP POP PUSH1 0x40 MLOAD RETURNDATASIZE PUSH1 0x1F NOT PUSH1 0x1F DUP3 ADD AND DUP3 ADD DUP1 PUSH1 0x40 MSTORE POP DUP2 ADD SWAP1 PUSH2 0x2456 SWAP2 SWAP1 PUSH2 0x362F JUMP JUMPDEST PUSH2 0x2472 JUMPI PUSH1 0x40 MLOAD PUSH3 0x461BCD PUSH1 0xE5 SHL DUP2 MSTORE PUSH1 0x4 ADD PUSH2 0x83E SWAP1 PUSH2 0x3913 JUMP JUMPDEST PUSH1 0x7 DUP1 SLOAD PUSH1 0x1 PUSH1 0x1 PUSH1 0xA0 SHL SUB NOT AND PUSH1 0x1 PUSH1 0x1 PUSH1 0xA0 SHL SUB SWAP3 SWAP1 SWAP3 AND SWAP2 SWAP1 SWAP2 OR SWAP1 SSTORE JUMP JUMPDEST PUSH1 0x20 DUP6 ADD MLOAD DUP6 MLOAD PUSH1 0x0 PUSH2 0x24A9 DUP3 DUP5 DUP10 DUP10 PUSH2 0x1A17 JUMP JUMPDEST PUSH1 0x40 DUP10 ADD MLOAD SWAP1 SWAP2 POP PUSH1 0x0 SWAP1 DUP5 ISZERO DUP1 ISZERO SWAP1 PUSH2 0x24CB JUMPI POP DUP1 PUSH1 0x1 PUSH1 0x1 PUSH1 0xA0 SHL SUB AND NUMBER GT JUMPDEST DUP1 ISZERO PUSH2 0x24DF JUMPI POP PUSH1 0x1 PUSH1 0x1 PUSH1 0xA0 SHL SUB DUP2 AND ISZERO ISZERO JUMPDEST ISZERO PUSH2 0x2501 JUMPI PUSH2 0x24FE DUP6 DUP3 DUP13 PUSH1 0x60 ADD MLOAD PUSH1 0x1 PUSH1 0x1 PUSH1 0x58 SHL SUB AND DUP7 DUP11 PUSH2 0x27FD JUMP JUMPDEST SWAP2 POP JUMPDEST DUP8 PUSH2 0x250F DUP6 PUSH3 0x186A0 PUSH2 0x3AC9 JUMP JUMPDEST DUP11 PUSH1 0x1 PUSH1 0x1 PUSH1 0x50 SHL SUB DUP11 AND PUSH2 0x2524 DUP7 DUP11 PUSH2 0x39A6 JUMP JUMPDEST PUSH2 0x252E SWAP2 SWAP1 PUSH2 0x3AC9 JUMP JUMPDEST PUSH2 0x2538 SWAP2 SWAP1 PUSH2 0x3AC9 JUMP JUMPDEST PUSH2 0x2542 SWAP2 SWAP1 PUSH2 0x39BE JUMP JUMPDEST GT PUSH2 0x2599 JUMPI PUSH1 0x40 MLOAD PUSH3 0x461BCD PUSH1 0xE5 SHL DUP2 MSTORE PUSH1 0x20 PUSH1 0x4 DUP3 ADD MSTORE PUSH1 0x21 PUSH1 0x24 DUP3 ADD MSTORE PUSH32 0x4C6F673A4D6F727467616765506F6F6C3A216C69717569646174696F6E4C696E PUSH1 0x44 DUP3 ADD MSTORE PUSH1 0x65 PUSH1 0xF8 SHL PUSH1 0x64 DUP3 ADD MSTORE PUSH1 0x84 ADD PUSH2 0x83E JUMP JUMPDEST POP POP POP POP POP POP POP POP POP POP JUMP JUMPDEST PUSH1 0x1 SLOAD PUSH1 0x40 MLOAD PUSH4 0x91E1472B PUSH1 0xE0 SHL DUP2 MSTORE PUSH1 0x1 PUSH1 0x1 PUSH1 0xA0 SHL SUB SWAP1 SWAP2 AND SWAP1 PUSH4 0x91E1472B SWAP1 PUSH2 0x25D8 SWAP1 CALLER SWAP1 PUSH1 0x0 SWAP1 PUSH1 0x4 ADD PUSH2 0x3819 JUMP JUMPDEST PUSH1 0x20 PUSH1 0x40 MLOAD DUP1 DUP4 SUB DUP2 DUP7 DUP1 EXTCODESIZE ISZERO DUP1 ISZERO PUSH2 0x25F0 JUMPI PUSH1 0x0 DUP1 REVERT JUMPDEST POP GAS STATICCALL ISZERO DUP1 ISZERO PUSH2 0x2604 JUMPI RETURNDATASIZE PUSH1 0x0 DUP1 RETURNDATACOPY RETURNDATASIZE PUSH1 0x0 REVERT JUMPDEST POP POP POP POP PUSH1 0x40 MLOAD RETURNDATASIZE PUSH1 0x1F NOT PUSH1 0x1F DUP3 ADD AND DUP3 ADD DUP1 PUSH1 0x40 MSTORE POP DUP2 ADD SWAP1 PUSH2 0x2628 SWAP2 SWAP1 PUSH2 0x362F JUMP JUMPDEST PUSH2 0x2644 JUMPI PUSH1 0x40 MLOAD PUSH3 0x461BCD PUSH1 0xE5 SHL DUP2 MSTORE PUSH1 0x4 ADD PUSH2 0x83E SWAP1 PUSH2 0x3913 JUMP JUMPDEST PUSH1 0x1 PUSH1 0x1 PUSH1 0xA0 SHL SUB SWAP1 SWAP2 AND PUSH1 0x0 SWAP1 DUP2 MSTORE PUSH1 0x4 PUSH1 0x20 MSTORE PUSH1 0x40 SWAP1 KECCAK256 DUP1 SLOAD PUSH1 0x1 PUSH1 0x1 PUSH1 0x50 SHL SUB SWAP1 SWAP3 AND PUSH1 0x1 PUSH1 0xB0 SHL MUL PUSH1 0x1 PUSH1 0x1 PUSH1 0xB0 SHL SUB SWAP1 SWAP3 AND SWAP2 SWAP1 SWAP2 OR SWAP1 SSTORE JUMP JUMPDEST PUSH1 0x1 SLOAD PUSH1 0x40 MLOAD PUSH4 0x91E1472B PUSH1 0xE0 SHL DUP2 MSTORE PUSH1 0x1 PUSH1 0x1 PUSH1 0xA0 SHL SUB SWAP1 SWAP2 AND SWAP1 PUSH4 0x91E1472B SWAP1 PUSH2 0x26B6 SWAP1 CALLER SWAP1 PUSH1 0x0 SWAP1 PUSH1 0x4 ADD PUSH2 0x3819 JUMP JUMPDEST PUSH1 0x20 PUSH1 0x40 MLOAD DUP1 DUP4 SUB DUP2 DUP7 DUP1 EXTCODESIZE ISZERO DUP1 ISZERO PUSH2 0x26CE JUMPI PUSH1 0x0 DUP1 REVERT JUMPDEST POP GAS STATICCALL ISZERO DUP1 ISZERO PUSH2 0x26E2 JUMPI RETURNDATASIZE PUSH1 0x0 DUP1 RETURNDATACOPY RETURNDATASIZE PUSH1 0x0 REVERT JUMPDEST POP POP POP POP PUSH1 0x40 MLOAD RETURNDATASIZE PUSH1 0x1F NOT PUSH1 0x1F DUP3 ADD AND DUP3 ADD DUP1 PUSH1 0x40 MSTORE POP DUP2 ADD SWAP1 PUSH2 0x2706 SWAP2 SWAP1 PUSH2 0x362F JUMP JUMPDEST PUSH2 0x2722 JUMPI PUSH1 0x40 MLOAD PUSH3 0x461BCD PUSH1 0xE5 SHL DUP2 MSTORE PUSH1 0x4 ADD PUSH2 0x83E SWAP1 PUSH2 0x3913 JUMP JUMPDEST PUSH1 0x1 PUSH1 0x1 PUSH1 0xA0 SHL SUB SWAP2 SWAP1 SWAP2 AND PUSH1 0x0 SWAP1 DUP2 MSTORE PUSH1 0x4 PUSH1 0x20 MSTORE PUSH1 0x40 SWAP1 KECCAK256 DUP1 SLOAD PUSH1 0xFF NOT AND SWAP2 ISZERO ISZERO SWAP2 SWAP1 SWAP2 OR SWAP1 SSTORE JUMP JUMPDEST PUSH1 0x1 SLOAD PUSH1 0x1 PUSH1 0x1 PUSH1 0xA0 SHL SUB AND ISZERO PUSH2 0x27A6 JUMPI PUSH1 0x40 MLOAD PUSH3 0x461BCD PUSH1 0xE5 SHL DUP2 MSTORE PUSH1 0x20 PUSH1 0x4 DUP3 ADD MSTORE PUSH1 0x1B PUSH1 0x24 DUP3 ADD MSTORE PUSH32 0x4C6F673A50617261737365744261736521696E697469616C697A650000000000 PUSH1 0x44 DUP3 ADD MSTORE PUSH1 0x64 ADD PUSH2 0x83E JUMP JUMPDEST PUSH1 0x1 DUP1 SLOAD PUSH1 0x1 PUSH1 0x1 PUSH1 0xA0 SHL SUB NOT AND PUSH1 0x1 PUSH1 0x1 PUSH1 0xA0 SHL SUB SWAP3 SWAP1 SWAP3 AND SWAP2 SWAP1 SWAP2 OR SWAP1 SSTORE PUSH1 0x0 DUP1 SSTORE JUMP JUMPDEST PUSH1 0x1 PUSH1 0x1 PUSH1 0xA0 SHL SUB DUP1 DUP4 AND PUSH1 0x0 SWAP1 DUP2 MSTORE PUSH1 0x5 PUSH1 0x20 SWAP1 DUP2 MSTORE PUSH1 0x40 DUP1 DUP4 KECCAK256 SWAP4 DUP6 AND DUP4 MSTORE PUSH1 0x1 SWAP1 SWAP4 ADD SWAP1 MSTORE KECCAK256 SLOAD JUMPDEST SWAP3 SWAP2 POP POP JUMP JUMPDEST PUSH1 0x0 DUP1 PUSH2 0x2813 PUSH1 0x1 PUSH1 0x1 PUSH1 0xA0 SHL SUB DUP8 AND NUMBER PUSH2 0x3AE8 JUMP JUMPDEST PUSH1 0x1 PUSH1 0x1 PUSH1 0x50 SHL SUB DUP5 AND DUP9 PUSH2 0x2828 DUP8 DUP10 PUSH2 0x39A6 JUMP JUMPDEST PUSH2 0x2833 SWAP1 PUSH1 0x3 PUSH2 0x3AC9 JUMP JUMPDEST PUSH2 0x2840 SWAP1 PUSH3 0x30D40 PUSH2 0x39A6 JUMP JUMPDEST PUSH2 0x284A SWAP2 SWAP1 PUSH2 0x3AC9 JUMP JUMPDEST PUSH2 0x2854 SWAP2 SWAP1 PUSH2 0x3AC9 JUMP JUMPDEST PUSH2 0x285E SWAP2 SWAP1 PUSH2 0x3AC9 JUMP JUMPDEST PUSH1 0x2 SLOAD SWAP1 SWAP2 POP PUSH1 0x0 SWAP1 PUSH2 0x2886 SWAP1 PUSH1 0x1 PUSH1 0xA0 SHL SWAP1 DIV PUSH1 0x1 PUSH1 0x1 PUSH1 0x60 SHL SUB AND PUSH5 0x2540BE400 PUSH2 0x3AC9 JUMP JUMPDEST PUSH2 0x2891 SWAP1 PUSH1 0x2 PUSH2 0x3AC9 JUMP JUMPDEST SWAP1 POP PUSH2 0x289D DUP2 DUP4 PUSH2 0x39BE JUMP JUMPDEST SWAP9 SWAP8 POP POP POP POP POP POP POP POP JUMP JUMPDEST PUSH1 0x3 SLOAD PUSH1 0x1 PUSH1 0xA0 SHL SWAP1 DIV PUSH1 0x1 PUSH1 0x1 PUSH1 0x60 SHL SUB AND PUSH2 0x28D8 JUMPI PUSH1 0x40 MLOAD PUSH3 0x461BCD PUSH1 0xE5 SHL DUP2 MSTORE PUSH1 0x4 ADD PUSH2 0x83E SWAP1 PUSH2 0x3979 JUMP JUMPDEST PUSH1 0x0 SLOAD ISZERO PUSH2 0x28F8 JUMPI PUSH1 0x40 MLOAD PUSH3 0x461BCD PUSH1 0xE5 SHL DUP2 MSTORE PUSH1 0x4 ADD PUSH2 0x83E SWAP1 PUSH2 0x38A5 JUMP JUMPDEST PUSH1 0x1 PUSH1 0x0 SWAP1 DUP2 SSTORE PUSH1 0x1 PUSH1 0x1 PUSH1 0xA0 SHL SUB DUP4 AND DUP2 MSTORE PUSH1 0x4 PUSH1 0x20 SWAP1 DUP2 MSTORE PUSH1 0x40 SWAP2 DUP3 SWAP1 KECCAK256 DUP3 MLOAD PUSH1 0x80 DUP2 ADD DUP5 MSTORE SWAP1 SLOAD PUSH1 0xFF DUP2 AND ISZERO ISZERO DUP1 DUP4 MSTORE PUSH1 0x1 PUSH1 0x1 PUSH1 0x58 SHL SUB PUSH2 0x100 DUP4 DIV AND SWAP4 DUP4 ADD SWAP4 SWAP1 SWAP4 MSTORE PUSH1 0x1 PUSH1 0x1 PUSH1 0x50 SHL SUB PUSH1 0x1 PUSH1 0x60 SHL DUP3 DIV DUP2 AND SWAP5 DUP4 ADD SWAP5 SWAP1 SWAP5 MSTORE PUSH1 0x1 PUSH1 0xB0 SHL SWAP1 DIV SWAP1 SWAP3 AND PUSH1 0x60 DUP4 ADD MSTORE PUSH2 0x2983 JUMPI PUSH1 0x40 MLOAD PUSH3 0x461BCD PUSH1 0xE5 SHL DUP2 MSTORE PUSH1 0x4 ADD PUSH2 0x83E SWAP1 PUSH2 0x3942 JUMP JUMPDEST PUSH1 0x1 PUSH1 0x1 PUSH1 0xA0 SHL SUB DUP4 AND PUSH1 0x0 SWAP1 DUP2 MSTORE PUSH1 0x5 PUSH1 0x20 SWAP1 DUP2 MSTORE PUSH1 0x40 DUP1 DUP4 KECCAK256 CALLER DUP5 MSTORE PUSH1 0x1 DUP2 ADD SWAP1 SWAP3 MSTORE SWAP1 SWAP2 KECCAK256 SLOAD DUP1 PUSH2 0x29C9 JUMPI PUSH1 0x40 MLOAD PUSH3 0x461BCD PUSH1 0xE5 SHL DUP2 MSTORE PUSH1 0x4 ADD PUSH2 0x83E SWAP1 PUSH2 0x38DC JUMP JUMPDEST PUSH1 0x0 DUP3 PUSH2 0x29D7 PUSH1 0x1 DUP5 PUSH2 0x3AE8 JUMP JUMPDEST DUP2 SLOAD DUP2 LT PUSH2 0x29F5 JUMPI PUSH4 0x4E487B71 PUSH1 0xE0 SHL PUSH1 0x0 MSTORE PUSH1 0x32 PUSH1 0x4 MSTORE PUSH1 0x24 PUSH1 0x0 REVERT JUMPDEST PUSH1 0x0 SWAP2 DUP3 MSTORE PUSH1 0x20 SWAP1 SWAP2 KECCAK256 PUSH1 0x3 SWAP1 SWAP2 MUL ADD PUSH1 0x1 DUP2 ADD SLOAD DUP2 SLOAD SWAP2 SWAP3 POP SWAP1 DUP7 ISZERO DUP1 ISZERO SWAP1 PUSH2 0x2A1F JUMPI POP DUP1 DUP8 GT ISZERO JUMPDEST PUSH2 0x2A3B JUMPI PUSH1 0x40 MLOAD PUSH3 0x461BCD PUSH1 0xE5 SHL DUP2 MSTORE PUSH1 0x4 ADD PUSH2 0x83E SWAP1 PUSH2 0x386E JUMP JUMPDEST PUSH1 0x0 DUP1 PUSH2 0x2A48 DUP11 CALLVALUE PUSH2 0x2E62 JUMP JUMPDEST PUSH1 0x40 DUP1 MLOAD PUSH1 0x80 DUP2 ADD DUP3 MSTORE DUP9 SLOAD DUP2 MSTORE PUSH1 0x1 DUP10 ADD SLOAD PUSH1 0x20 DUP3 ADD MSTORE PUSH1 0x2 DUP10 ADD SLOAD PUSH1 0x1 PUSH1 0x1 PUSH1 0xA0 SHL SUB DUP2 AND SWAP3 DUP3 ADD SWAP3 SWAP1 SWAP3 MSTORE PUSH1 0x1 PUSH1 0xA0 SHL SWAP1 SWAP2 DIV PUSH1 0x1 PUSH1 0x1 PUSH1 0x58 SHL SUB AND PUSH1 0x60 DUP1 DUP4 ADD SWAP2 SWAP1 SWAP2 MSTORE DUP12 ADD MLOAD SWAP3 SWAP5 POP SWAP1 SWAP3 POP PUSH2 0x2AA6 SWAP2 DUP5 SWAP1 DUP5 SWAP1 PUSH2 0x321C JUMP JUMPDEST PUSH2 0x2AB0 DUP10 DUP5 PUSH2 0x3AE8 JUMP JUMPDEST DUP1 DUP7 SSTORE PUSH1 0x2 DUP7 ADD DUP1 SLOAD PUSH1 0x1 PUSH1 0x1 PUSH1 0xA0 SHL SUB NOT AND NUMBER PUSH1 0x1 PUSH1 0x1 PUSH1 0xA0 SHL SUB AND OR SWAP1 SSTORE PUSH2 0x2B2B JUMPI PUSH1 0x1 DUP6 ADD SLOAD ISZERO PUSH2 0x2B26 JUMPI PUSH1 0x40 MLOAD PUSH3 0x461BCD PUSH1 0xE5 SHL DUP2 MSTORE PUSH1 0x20 PUSH1 0x4 DUP3 ADD DUP2 SWAP1 MSTORE PUSH1 0x24 DUP3 ADD MSTORE PUSH32 0x4C6F673A4D6F727467616765506F6F6C3A217061726173736574417373657473 PUSH1 0x44 DUP3 ADD MSTORE PUSH1 0x64 ADD PUSH2 0x83E JUMP JUMPDEST PUSH2 0x2BC9 JUMP JUMPDEST PUSH1 0x0 PUSH2 0x2B3D DUP7 PUSH1 0x0 ADD SLOAD DUP7 DUP6 DUP6 PUSH2 0x1A17 JUMP JUMPDEST SWAP1 POP DUP9 PUSH1 0x20 ADD MLOAD PUSH1 0x1 PUSH1 0x1 PUSH1 0x58 SHL SUB AND DUP2 GT ISZERO PUSH2 0x2B98 JUMPI PUSH1 0x40 MLOAD PUSH3 0x461BCD PUSH1 0xE5 SHL DUP2 MSTORE PUSH1 0x20 PUSH1 0x4 DUP3 ADD MSTORE PUSH1 0x19 PUSH1 0x24 DUP3 ADD MSTORE PUSH25 0x4C6F673A4D6F727467616765506F6F6C3A216D617852617465 PUSH1 0x38 SHL PUSH1 0x44 DUP3 ADD MSTORE PUSH1 0x64 ADD PUSH2 0x83E JUMP JUMPDEST PUSH1 0x2 DUP7 ADD DUP1 SLOAD PUSH1 0x1 PUSH1 0x1 PUSH1 0x58 SHL SUB SWAP1 SWAP3 AND PUSH1 0x1 PUSH1 0xA0 SHL MUL PUSH11 0xFFFFFFFFFFFFFFFFFFFFFF PUSH1 0xA0 SHL NOT SWAP1 SWAP3 AND SWAP2 SWAP1 SWAP2 OR SWAP1 SSTORE JUMPDEST DUP5 SLOAD PUSH1 0x1 DUP7 ADD SLOAD PUSH1 0x2 DUP8 ADD SLOAD PUSH1 0x40 MLOAD PUSH1 0x0 DUP1 MLOAD PUSH1 0x20 PUSH2 0x3B3C DUP4 CODECOPY DUP2 MLOAD SWAP2 MSTORE SWAP4 PUSH2 0x2C0C SWAP4 DUP16 SWAP4 SWAP2 SWAP3 SWAP1 SWAP2 DUP9 SWAP2 DUP9 SWAP2 PUSH1 0x1 PUSH1 0xA0 SHL SWAP1 DIV PUSH1 0x1 PUSH1 0x1 PUSH1 0x58 SHL SUB AND SWAP1 PUSH2 0x3832 JUMP JUMPDEST PUSH1 0x40 MLOAD DUP1 SWAP2 SUB SWAP1 LOG1 PUSH1 0x1 PUSH1 0x1 PUSH1 0xA0 SHL SUB DUP11 AND ISZERO PUSH2 0x2C33 JUMPI PUSH2 0x2C2E DUP11 CALLER DUP12 PUSH2 0x3031 JUMP JUMPDEST PUSH2 0x2C3D JUMP JUMPDEST PUSH2 0x2C3D CALLER DUP11 PUSH2 0x314E JUMP JUMPDEST POP POP PUSH1 0x0 DUP1 SSTORE POP POP POP POP POP POP POP POP JUMP JUMPDEST PUSH1 0x0 PUSH1 0x12 DUP1 PUSH1 0x1 PUSH1 0x1 PUSH1 0xA0 SHL SUB DUP7 AND ISZERO PUSH2 0x2CD8 JUMPI DUP6 PUSH1 0x1 PUSH1 0x1 PUSH1 0xA0 SHL SUB AND PUSH4 0x313CE567 PUSH1 0x40 MLOAD DUP2 PUSH4 0xFFFFFFFF AND PUSH1 0xE0 SHL DUP2 MSTORE PUSH1 0x4 ADD PUSH1 0x20 PUSH1 0x40 MLOAD DUP1 DUP4 SUB DUP2 DUP7 DUP1 EXTCODESIZE ISZERO DUP1 ISZERO PUSH2 0x2C9A JUMPI PUSH1 0x0 DUP1 REVERT JUMPDEST POP GAS STATICCALL ISZERO DUP1 ISZERO PUSH2 0x2CAE JUMPI RETURNDATASIZE PUSH1 0x0 DUP1 RETURNDATACOPY RETURNDATASIZE PUSH1 0x0 REVERT JUMPDEST POP POP POP POP PUSH1 0x40 MLOAD RETURNDATASIZE PUSH1 0x1F NOT PUSH1 0x1F DUP3 ADD AND DUP3 ADD DUP1 PUSH1 0x40 MSTORE POP DUP2 ADD SWAP1 PUSH2 0x2CD2 SWAP2 SWAP1 PUSH2 0x37A5 JUMP JUMPDEST PUSH1 0xFF AND SWAP2 POP JUMPDEST PUSH1 0x1 PUSH1 0x1 PUSH1 0xA0 SHL SUB DUP5 AND ISZERO PUSH2 0x2D5E JUMPI DUP4 PUSH1 0x1 PUSH1 0x1 PUSH1 0xA0 SHL SUB AND PUSH4 0x313CE567 PUSH1 0x40 MLOAD DUP2 PUSH4 0xFFFFFFFF AND PUSH1 0xE0 SHL DUP2 MSTORE PUSH1 0x4 ADD PUSH1 0x20 PUSH1 0x40 MLOAD DUP1 DUP4 SUB DUP2 DUP7 DUP1 EXTCODESIZE ISZERO DUP1 ISZERO PUSH2 0x2D20 JUMPI PUSH1 0x0 DUP1 REVERT JUMPDEST POP GAS STATICCALL ISZERO DUP1 ISZERO PUSH2 0x2D34 JUMPI RETURNDATASIZE PUSH1 0x0 DUP1 RETURNDATACOPY RETURNDATASIZE PUSH1 0x0 REVERT JUMPDEST POP POP POP POP PUSH1 0x40 MLOAD RETURNDATASIZE PUSH1 0x1F NOT PUSH1 0x1F DUP3 ADD AND DUP3 ADD DUP1 PUSH1 0x40 MSTORE POP DUP2 ADD SWAP1 PUSH2 0x2D58 SWAP2 SWAP1 PUSH2 0x37A5 JUMP JUMPDEST PUSH1 0xFF AND SWAP1 POP JUMPDEST PUSH2 0x2D69 DUP3 PUSH1 0xA PUSH2 0x3A21 JUMP JUMPDEST PUSH2 0x2D74 DUP3 PUSH1 0xA PUSH2 0x3A21 JUMP JUMPDEST PUSH2 0x2D7E SWAP1 DUP8 PUSH2 0x3AC9 JUMP JUMPDEST PUSH2 0x2D88 SWAP2 SWAP1 PUSH2 0x39BE JUMP JUMPDEST SWAP7 SWAP6 POP POP POP POP POP POP JUMP JUMPDEST PUSH1 0x1 SLOAD PUSH1 0x40 MLOAD PUSH4 0x91E1472B PUSH1 0xE0 SHL DUP2 MSTORE PUSH1 0x1 PUSH1 0x1 PUSH1 0xA0 SHL SUB SWAP1 SWAP2 AND SWAP1 PUSH4 0x91E1472B SWAP1 PUSH2 0x2DC5 SWAP1 CALLER SWAP1 PUSH1 0x0 SWAP1 PUSH1 0x4 ADD PUSH2 0x3819 JUMP JUMPDEST PUSH1 0x20 PUSH1 0x40 MLOAD DUP1 DUP4 SUB DUP2 DUP7 DUP1 EXTCODESIZE ISZERO DUP1 ISZERO PUSH2 0x2DDD JUMPI PUSH1 0x0 DUP1 REVERT JUMPDEST POP GAS STATICCALL ISZERO DUP1 ISZERO PUSH2 0x2DF1 JUMPI RETURNDATASIZE PUSH1 0x0 DUP1 RETURNDATACOPY RETURNDATASIZE PUSH1 0x0 REVERT JUMPDEST POP POP POP POP PUSH1 0x40 MLOAD RETURNDATASIZE PUSH1 0x1F NOT PUSH1 0x1F DUP3 ADD AND DUP3 ADD DUP1 PUSH1 0x40 MSTORE POP DUP2 ADD SWAP1 PUSH2 0x2E15 SWAP2 SWAP1 PUSH2 0x362F JUMP JUMPDEST PUSH2 0x2E31 JUMPI PUSH1 0x40 MLOAD PUSH3 0x461BCD PUSH1 0xE5 SHL DUP2 MSTORE PUSH1 0x4 ADD PUSH2 0x83E SWAP1 PUSH2 0x3913 JUMP JUMPDEST PUSH1 0x2 DUP1 SLOAD PUSH1 0x1 PUSH1 0x1 PUSH1 0xA0 SHL SUB SWAP3 DUP4 AND PUSH1 0x1 PUSH1 0x1 PUSH1 0xA0 SHL SUB NOT SWAP2 DUP3 AND OR SWAP1 SWAP2 SSTORE PUSH1 0x3 DUP1 SLOAD SWAP4 SWAP1 SWAP3 AND SWAP3 AND SWAP2 SWAP1 SWAP2 OR SWAP1 SSTORE JUMP JUMPDEST PUSH1 0x6 SLOAD PUSH1 0x3 SLOAD PUSH1 0x40 MLOAD PUSH4 0xDA33AA9 PUSH1 0xE0 SHL DUP2 MSTORE PUSH1 0x1 PUSH1 0x1 PUSH1 0xA0 SHL SUB DUP6 DUP2 AND PUSH1 0x4 DUP4 ADD MSTORE SWAP2 DUP3 AND PUSH1 0x24 DUP3 ADD MSTORE CALLER PUSH1 0x44 DUP3 ADD MSTORE PUSH1 0x0 SWAP3 DUP4 SWAP3 AND SWAP1 PUSH4 0xDA33AA9 SWAP1 DUP6 SWAP1 PUSH1 0x64 ADD PUSH1 0x40 DUP1 MLOAD DUP1 DUP4 SUB DUP2 DUP6 DUP9 DUP1 EXTCODESIZE ISZERO DUP1 ISZERO PUSH2 0x2EBD JUMPI PUSH1 0x0 DUP1 REVERT JUMPDEST POP GAS CALL ISZERO DUP1 ISZERO PUSH2 0x2ED1 JUMPI RETURNDATASIZE PUSH1 0x0 DUP1 RETURNDATACOPY RETURNDATASIZE PUSH1 0x0 REVERT JUMPDEST POP POP POP POP POP PUSH1 0x40 MLOAD RETURNDATASIZE PUSH1 0x1F NOT PUSH1 0x1F DUP3 ADD AND DUP3 ADD DUP1 PUSH1 0x40 MSTORE POP DUP2 ADD SWAP1 PUSH2 0x2EF6 SWAP2 SWAP1 PUSH2 0x3751 JUMP JUMPDEST SWAP1 SWAP6 SWAP1 SWAP5 POP SWAP3 POP POP POP JUMP JUMPDEST PUSH1 0x40 DUP1 MLOAD PUSH1 0x1 PUSH1 0x1 PUSH1 0xA0 SHL SUB DUP6 DUP2 AND PUSH1 0x24 DUP4 ADD MSTORE DUP5 DUP2 AND PUSH1 0x44 DUP4 ADD MSTORE PUSH1 0x64 DUP1 DUP4 ADD DUP6 SWAP1 MSTORE DUP4 MLOAD DUP1 DUP5 SUB SWAP1 SWAP2 ADD DUP2 MSTORE PUSH1 0x84 SWAP1 SWAP3 ADD DUP4 MSTORE PUSH1 0x20 DUP3 ADD DUP1 MLOAD PUSH1 0x1 PUSH1 0x1 PUSH1 0xE0 SHL SUB AND PUSH4 0x23B872DD PUSH1 0xE0 SHL OR SWAP1 MSTORE SWAP2 MLOAD PUSH1 0x0 SWAP3 DUP4 SWAP3 SWAP1 DUP9 AND SWAP2 PUSH2 0x2F65 SWAP2 SWAP1 PUSH2 0x37E0 JUMP JUMPDEST PUSH1 0x0 PUSH1 0x40 MLOAD DUP1 DUP4 SUB DUP2 PUSH1 0x0 DUP7 GAS CALL SWAP2 POP POP RETURNDATASIZE DUP1 PUSH1 0x0 DUP2 EQ PUSH2 0x2FA2 JUMPI PUSH1 0x40 MLOAD SWAP2 POP PUSH1 0x1F NOT PUSH1 0x3F RETURNDATASIZE ADD AND DUP3 ADD PUSH1 0x40 MSTORE RETURNDATASIZE DUP3 MSTORE RETURNDATASIZE PUSH1 0x0 PUSH1 0x20 DUP5 ADD RETURNDATACOPY PUSH2 0x2FA7 JUMP JUMPDEST PUSH1 0x60 SWAP2 POP JUMPDEST POP SWAP2 POP SWAP2 POP DUP2 DUP1 ISZERO PUSH2 0x2FD1 JUMPI POP DUP1 MLOAD ISZERO DUP1 PUSH2 0x2FD1 JUMPI POP DUP1 DUP1 PUSH1 0x20 ADD SWAP1 MLOAD DUP2 ADD SWAP1 PUSH2 0x2FD1 SWAP2 SWAP1 PUSH2 0x362F JUMP JUMPDEST PUSH2 0x3029 JUMPI PUSH1 0x40 MLOAD PUSH3 0x461BCD PUSH1 0xE5 SHL DUP2 MSTORE PUSH1 0x20 PUSH1 0x4 DUP3 ADD MSTORE PUSH1 0x24 DUP1 DUP3 ADD MSTORE PUSH32 0x5472616E7366657248656C7065723A205452414E534645525F46524F4D5F4641 PUSH1 0x44 DUP3 ADD MSTORE PUSH4 0x12531151 PUSH1 0xE2 SHL PUSH1 0x64 DUP3 ADD MSTORE PUSH1 0x84 ADD PUSH2 0x83E JUMP JUMPDEST POP POP POP POP POP POP JUMP JUMPDEST PUSH1 0x0 DUP1 DUP5 PUSH1 0x1 PUSH1 0x1 PUSH1 0xA0 SHL SUB AND PUSH4 0xA9059CBB DUP6 DUP6 PUSH1 0x40 MLOAD PUSH1 0x24 ADD PUSH2 0x3056 SWAP3 SWAP2 SWAP1 PUSH2 0x3819 JUMP JUMPDEST PUSH1 0x40 MLOAD PUSH1 0x20 DUP2 DUP4 SUB SUB DUP2 MSTORE SWAP1 PUSH1 0x40 MSTORE SWAP1 PUSH1 0xE0 SHL PUSH1 0x20 DUP3 ADD DUP1 MLOAD PUSH1 0x1 PUSH1 0x1 PUSH1 0xE0 SHL SUB DUP4 DUP2 DUP4 AND OR DUP4 MSTORE POP POP POP POP PUSH1 0x40 MLOAD PUSH2 0x308F SWAP2 SWAP1 PUSH2 0x37E0 JUMP JUMPDEST PUSH1 0x0 PUSH1 0x40 MLOAD DUP1 DUP4 SUB DUP2 PUSH1 0x0 DUP7 GAS CALL SWAP2 POP POP RETURNDATASIZE DUP1 PUSH1 0x0 DUP2 EQ PUSH2 0x30CC JUMPI PUSH1 0x40 MLOAD SWAP2 POP PUSH1 0x1F NOT PUSH1 0x3F RETURNDATASIZE ADD AND DUP3 ADD PUSH1 0x40 MSTORE RETURNDATASIZE DUP3 MSTORE RETURNDATASIZE PUSH1 0x0 PUSH1 0x20 DUP5 ADD RETURNDATACOPY PUSH2 0x30D1 JUMP JUMPDEST PUSH1 0x60 SWAP2 POP JUMPDEST POP SWAP2 POP SWAP2 POP DUP2 DUP1 ISZERO PUSH2 0x30FB JUMPI POP DUP1 MLOAD ISZERO DUP1 PUSH2 0x30FB JUMPI POP DUP1 DUP1 PUSH1 0x20 ADD SWAP1 MLOAD DUP2 ADD SWAP1 PUSH2 0x30FB SWAP2 SWAP1 PUSH2 0x362F JUMP JUMPDEST PUSH2 0x3147 JUMPI PUSH1 0x40 MLOAD PUSH3 0x461BCD PUSH1 0xE5 SHL DUP2 MSTORE PUSH1 0x20 PUSH1 0x4 DUP3 ADD MSTORE PUSH1 0x1F PUSH1 0x24 DUP3 ADD MSTORE PUSH32 0x5472616E7366657248656C7065723A205452414E534645525F4641494C454400 PUSH1 0x44 DUP3 ADD MSTORE PUSH1 0x64 ADD PUSH2 0x83E JUMP JUMPDEST POP POP POP POP POP JUMP JUMPDEST PUSH1 0x40 DUP1 MLOAD PUSH1 0x0 DUP1 DUP3 MSTORE PUSH1 0x20 DUP3 ADD SWAP1 SWAP3 MSTORE PUSH1 0x1 PUSH1 0x1 PUSH1 0xA0 SHL SUB DUP5 AND SWAP1 DUP4 SWAP1 PUSH1 0x40 MLOAD PUSH2 0x3178 SWAP2 SWAP1 PUSH2 0x37E0 JUMP JUMPDEST PUSH1 0x0 PUSH1 0x40 MLOAD DUP1 DUP4 SUB DUP2 DUP6 DUP8 GAS CALL SWAP3 POP POP POP RETURNDATASIZE DUP1 PUSH1 0x0 DUP2 EQ PUSH2 0x31B5 JUMPI PUSH1 0x40 MLOAD SWAP2 POP PUSH1 0x1F NOT PUSH1 0x3F RETURNDATASIZE ADD AND DUP3 ADD PUSH1 0x40 MSTORE RETURNDATASIZE DUP3 MSTORE RETURNDATASIZE PUSH1 0x0 PUSH1 0x20 DUP5 ADD RETURNDATACOPY PUSH2 0x31BA JUMP JUMPDEST PUSH1 0x60 SWAP2 POP JUMPDEST POP POP SWAP1 POP DUP1 PUSH2 0x3217 JUMPI PUSH1 0x40 MLOAD PUSH3 0x461BCD PUSH1 0xE5 SHL DUP2 MSTORE PUSH1 0x20 PUSH1 0x4 DUP3 ADD MSTORE PUSH1 0x23 PUSH1 0x24 DUP3 ADD MSTORE PUSH32 0x5472616E7366657248656C7065723A204554485F5452414E534645525F464149 PUSH1 0x44 DUP3 ADD MSTORE PUSH3 0x131151 PUSH1 0xEA SHL PUSH1 0x64 DUP3 ADD MSTORE PUSH1 0x84 ADD PUSH2 0x83E JUMP JUMPDEST POP POP POP JUMP JUMPDEST PUSH1 0x20 DUP5 ADD MLOAD DUP5 MLOAD PUSH1 0x60 DUP7 ADD MLOAD PUSH1 0x40 DUP8 ADD MLOAD PUSH1 0x1 PUSH1 0x1 PUSH1 0x58 SHL SUB SWAP1 SWAP2 AND SWAP1 DUP4 ISZERO DUP1 ISZERO SWAP1 PUSH2 0x3250 JUMPI POP DUP1 PUSH1 0x1 PUSH1 0x1 PUSH1 0xA0 SHL SUB AND NUMBER GT JUMPDEST DUP1 ISZERO PUSH2 0x3264 JUMPI POP PUSH1 0x1 PUSH1 0x1 PUSH1 0xA0 SHL SUB DUP2 AND ISZERO ISZERO JUMPDEST ISZERO PUSH2 0x3348 JUMPI PUSH1 0x0 PUSH2 0x3283 DUP6 DUP4 DUP6 PUSH2 0x327D DUP9 DUP11 DUP15 DUP15 PUSH2 0x1A17 JUMP JUMPDEST DUP11 PUSH2 0x27FD JUMP JUMPDEST PUSH1 0x2 SLOAD PUSH1 0x7 SLOAD SWAP2 SWAP3 POP PUSH2 0x32A5 SWAP2 PUSH1 0x1 PUSH1 0x1 PUSH1 0xA0 SHL SUB SWAP2 DUP3 AND SWAP2 CALLER SWAP2 AND DUP5 PUSH2 0x2F01 JUMP JUMPDEST PUSH1 0x7 PUSH1 0x0 SWAP1 SLOAD SWAP1 PUSH2 0x100 EXP SWAP1 DIV PUSH1 0x1 PUSH1 0x1 PUSH1 0xA0 SHL SUB AND PUSH1 0x1 PUSH1 0x1 PUSH1 0xA0 SHL SUB AND PUSH4 0xB7694A93 PUSH1 0x40 MLOAD DUP2 PUSH4 0xFFFFFFFF AND PUSH1 0xE0 SHL DUP2 MSTORE PUSH1 0x4 ADD PUSH1 0x0 PUSH1 0x40 MLOAD DUP1 DUP4 SUB DUP2 PUSH1 0x0 DUP8 DUP1 EXTCODESIZE ISZERO DUP1 ISZERO PUSH2 0x32F5 JUMPI PUSH1 0x0 DUP1 REVERT JUMPDEST POP GAS CALL ISZERO DUP1 ISZERO PUSH2 0x3309 JUMPI RETURNDATASIZE PUSH1 0x0 DUP1 RETURNDATACOPY RETURNDATASIZE PUSH1 0x0 REVERT JUMPDEST POP POP POP POP PUSH32 0xD22F9C8C29C0808BE6387686AC52381992FDEEA23A23843E31EE581E65304182 DUP2 PUSH1 0x40 MLOAD PUSH2 0x333E SWAP2 DUP2 MSTORE PUSH1 0x20 ADD SWAP1 JUMP JUMPDEST PUSH1 0x40 MLOAD DUP1 SWAP2 SUB SWAP1 LOG1 POP JUMPDEST POP POP POP POP POP POP POP POP JUMP JUMPDEST DUP1 CALLDATALOAD PUSH2 0x335D DUP2 PUSH2 0x3B15 JUMP JUMPDEST SWAP2 SWAP1 POP JUMP JUMPDEST DUP1 CALLDATALOAD PUSH1 0x1 PUSH1 0x1 PUSH1 0x50 SHL SUB DUP2 AND DUP2 EQ PUSH2 0x335D JUMPI PUSH1 0x0 DUP1 REVERT JUMPDEST DUP1 CALLDATALOAD PUSH1 0x1 PUSH1 0x1 PUSH1 0x58 SHL SUB DUP2 AND DUP2 EQ PUSH2 0x335D JUMPI PUSH1 0x0 DUP1 REVERT JUMPDEST DUP1 CALLDATALOAD PUSH1 0x1 PUSH1 0x1 PUSH1 0x60 SHL SUB DUP2 AND DUP2 EQ PUSH2 0x335D JUMPI PUSH1 0x0 DUP1 REVERT JUMPDEST PUSH1 0x0 PUSH1 0x20 DUP3 DUP5 SUB SLT ISZERO PUSH2 0x33B8 JUMPI DUP1 DUP2 REVERT JUMPDEST DUP2 CALLDATALOAD PUSH2 0x33C3 DUP2 PUSH2 0x3B15 JUMP JUMPDEST SWAP4 SWAP3 POP POP POP JUMP JUMPDEST PUSH1 0x0 DUP1 PUSH1 0x40 DUP4 DUP6 SUB SLT ISZERO PUSH2 0x33DC JUMPI DUP1 DUP2 REVERT JUMPDEST DUP3 CALLDATALOAD PUSH2 0x33E7 DUP2 PUSH2 0x3B15 JUMP JUMPDEST SWAP2 POP PUSH1 0x20 DUP4 ADD CALLDATALOAD PUSH2 0x33F7 DUP2 PUSH2 0x3B15 JUMP JUMPDEST DUP1 SWAP2 POP POP SWAP3 POP SWAP3 SWAP1 POP JUMP JUMPDEST PUSH1 0x0 DUP1 PUSH1 0x0 DUP1 PUSH1 0x80 DUP6 DUP8 SUB SLT ISZERO PUSH2 0x3417 JUMPI DUP2 DUP3 REVERT JUMPDEST DUP5 CALLDATALOAD PUSH2 0x3422 DUP2 PUSH2 0x3B15 JUMP JUMPDEST SWAP4 POP PUSH1 0x20 DUP6 ADD CALLDATALOAD PUSH2 0x3432 DUP2 PUSH2 0x3B15 JUMP JUMPDEST SWAP4 SWAP7 SWAP4 SWAP6 POP POP POP POP PUSH1 0x40 DUP3 ADD CALLDATALOAD SWAP2 PUSH1 0x60 ADD CALLDATALOAD SWAP1 JUMP JUMPDEST PUSH1 0x0 DUP1 PUSH1 0x40 DUP4 DUP6 SUB SLT ISZERO PUSH2 0x3459 JUMPI DUP2 DUP3 REVERT JUMPDEST DUP3 CALLDATALOAD PUSH2 0x3464 DUP2 PUSH2 0x3B15 JUMP JUMPDEST SWAP2 POP PUSH1 0x20 DUP4 ADD CALLDATALOAD PUSH2 0x33F7 DUP2 PUSH2 0x3B2D JUMP JUMPDEST PUSH1 0x0 DUP1 PUSH1 0x40 DUP4 DUP6 SUB SLT ISZERO PUSH2 0x3486 JUMPI DUP2 DUP3 REVERT JUMPDEST DUP3 CALLDATALOAD PUSH2 0x3491 DUP2 PUSH2 0x3B15 JUMP JUMPDEST SWAP5 PUSH1 0x20 SWAP4 SWAP1 SWAP4 ADD CALLDATALOAD SWAP4 POP POP POP JUMP JUMPDEST PUSH1 0x0 DUP1 PUSH1 0x0 PUSH1 0x60 DUP5 DUP7 SUB SLT ISZERO PUSH2 0x34B3 JUMPI DUP3 DUP4 REVERT JUMPDEST DUP4 CALLDATALOAD PUSH2 0x34BE DUP2 PUSH2 0x3B15 JUMP JUMPDEST SWAP3 POP PUSH1 0x20 DUP5 ADD CALLDATALOAD SWAP2 POP PUSH1 0x40 DUP5 ADD CALLDATALOAD PUSH2 0x34D5 DUP2 PUSH2 0x3B15 JUMP JUMPDEST DUP1 SWAP2 POP POP SWAP3 POP SWAP3 POP SWAP3 JUMP JUMPDEST PUSH1 0x0 DUP1 PUSH1 0x0 DUP1 PUSH1 0x0 PUSH1 0xA0 DUP7 DUP9 SUB SLT ISZERO PUSH2 0x34F7 JUMPI DUP1 DUP2 REVERT JUMPDEST DUP6 CALLDATALOAD PUSH2 0x3502 DUP2 PUSH2 0x3B15 JUMP JUMPDEST SWAP5 POP PUSH1 0x20 DUP7 ADD CALLDATALOAD SWAP4 POP PUSH1 0x40 DUP7 ADD CALLDATALOAD SWAP3 POP PUSH2 0x351E PUSH1 0x60 DUP8 ADD PUSH2 0x3379 JUMP JUMPDEST SWAP2 POP PUSH1 0x80 DUP7 ADD CALLDATALOAD PUSH2 0x352E DUP2 PUSH2 0x3B15 JUMP JUMPDEST DUP1 SWAP2 POP POP SWAP3 SWAP6 POP SWAP3 SWAP6 SWAP1 SWAP4 POP JUMP JUMPDEST PUSH1 0x0 DUP1 PUSH1 0x0 PUSH1 0x60 DUP5 DUP7 SUB SLT ISZERO PUSH2 0x3550 JUMPI DUP3 DUP4 REVERT JUMPDEST DUP4 CALLDATALOAD PUSH2 0x355B DUP2 PUSH2 0x3B15 JUMP JUMPDEST SWAP3 POP PUSH1 0x20 DUP5 ADD CALLDATALOAD SWAP2 POP PUSH2 0x3570 PUSH1 0x40 DUP6 ADD PUSH2 0x3379 JUMP JUMPDEST SWAP1 POP SWAP3 POP SWAP3 POP SWAP3 JUMP JUMPDEST PUSH1 0x0 DUP1 PUSH1 0x40 DUP4 DUP6 SUB SLT ISZERO PUSH2 0x358B JUMPI DUP2 DUP3 REVERT JUMPDEST DUP3 CALLDATALOAD PUSH2 0x3596 DUP2 PUSH2 0x3B15 JUMP JUMPDEST SWAP2 POP PUSH2 0x35A4 PUSH1 0x20 DUP5 ADD PUSH2 0x3362 JUMP JUMPDEST SWAP1 POP SWAP3 POP SWAP3 SWAP1 POP JUMP JUMPDEST PUSH1 0x0 DUP1 PUSH1 0x40 DUP4 DUP6 SUB SLT ISZERO PUSH2 0x35BF JUMPI DUP2 DUP3 REVERT JUMPDEST DUP3 CALLDATALOAD PUSH2 0x35CA DUP2 PUSH2 0x3B15 JUMP JUMPDEST SWAP2 POP PUSH2 0x35A4 PUSH1 0x20 DUP5 ADD PUSH2 0x3379 JUMP JUMPDEST PUSH1 0x0 DUP1 PUSH1 0x0 DUP1 PUSH1 0x80 DUP6 DUP8 SUB SLT ISZERO PUSH2 0x35ED JUMPI DUP2 DUP3 REVERT JUMPDEST DUP5 CALLDATALOAD PUSH2 0x35F8 DUP2 PUSH2 0x3B15 JUMP JUMPDEST SWAP4 POP PUSH2 0x3606 PUSH1 0x20 DUP7 ADD PUSH2 0x3390 JUMP JUMPDEST SWAP3 POP PUSH1 0x40 DUP6 ADD CALLDATALOAD PUSH2 0x3616 DUP2 PUSH2 0x3B15 JUMP JUMPDEST SWAP2 POP PUSH2 0x3624 PUSH1 0x60 DUP7 ADD PUSH2 0x3390 JUMP JUMPDEST SWAP1 POP SWAP3 SWAP6 SWAP2 SWAP5 POP SWAP3 POP JUMP JUMPDEST PUSH1 0x0 PUSH1 0x20 DUP3 DUP5 SUB SLT ISZERO PUSH2 0x3640 JUMPI DUP1 DUP2 REVERT JUMPDEST DUP2 MLOAD PUSH2 0x33C3 DUP2 PUSH2 0x3B2D JUMP JUMPDEST PUSH1 0x0 DUP1 PUSH1 0x0 DUP1 PUSH1 0x0 DUP6 DUP8 SUB PUSH2 0x100 DUP2 SLT ISZERO PUSH2 0x3664 JUMPI DUP4 DUP5 REVERT JUMPDEST PUSH1 0x80 DUP2 SLT ISZERO PUSH2 0x3671 JUMPI DUP4 DUP5 REVERT JUMPDEST POP PUSH1 0x40 MLOAD PUSH1 0x80 DUP2 ADD DUP2 DUP2 LT PUSH8 0xFFFFFFFFFFFFFFFF DUP3 GT OR ISZERO PUSH2 0x36A1 JUMPI PUSH4 0x4E487B71 PUSH1 0xE0 SHL DUP6 MSTORE PUSH1 0x41 PUSH1 0x4 MSTORE PUSH1 0x24 DUP6 REVERT JUMPDEST DUP1 PUSH1 0x40 MSTORE POP DUP7 CALLDATALOAD DUP2 MSTORE PUSH1 0x20 DUP8 ADD CALLDATALOAD PUSH1 0x20 DUP3 ADD MSTORE PUSH2 0x36C0 PUSH1 0x40 DUP9 ADD PUSH2 0x3352 JUMP JUMPDEST PUSH1 0x40 DUP3 ADD MSTORE PUSH2 0x36D1 PUSH1 0x60 DUP9 ADD PUSH2 0x3379 JUMP JUMPDEST PUSH1 0x60 DUP3 ADD MSTORE SWAP5 POP PUSH1 0x80 DUP7 ADD CALLDATALOAD SWAP4 POP PUSH1 0xA0 DUP7 ADD CALLDATALOAD SWAP3 POP PUSH2 0x36F2 PUSH1 0xC0 DUP8 ADD PUSH2 0x3362 JUMP JUMPDEST SWAP2 POP PUSH2 0x3700 PUSH1 0xE0 DUP8 ADD PUSH2 0x3362 JUMP JUMPDEST SWAP1 POP SWAP3 SWAP6 POP SWAP3 SWAP6 SWAP1 SWAP4 POP JUMP JUMPDEST PUSH1 0x0 DUP1 PUSH1 0x0 DUP1 PUSH1 0x0 PUSH1 0xA0 DUP7 DUP9 SUB SLT ISZERO PUSH2 0x3723 JUMPI DUP3 DUP4 REVERT JUMPDEST DUP6 CALLDATALOAD SWAP5 POP PUSH1 0x20 DUP7 ADD CALLDATALOAD PUSH2 0x3735 DUP2 PUSH2 0x3B15 JUMP JUMPDEST SWAP4 POP PUSH1 0x40 DUP7 ADD CALLDATALOAD SWAP3 POP PUSH1 0x60 DUP7 ADD CALLDATALOAD SWAP2 POP PUSH2 0x3700 PUSH1 0x80 DUP8 ADD PUSH2 0x3362 JUMP JUMPDEST PUSH1 0x0 DUP1 PUSH1 0x40 DUP4 DUP6 SUB SLT ISZERO PUSH2 0x3763 JUMPI DUP2 DUP3 REVERT JUMPDEST POP POP DUP1 MLOAD PUSH1 0x20 SWAP1 SWAP2 ADD MLOAD SWAP1 SWAP3 SWAP1 SWAP2 POP JUMP JUMPDEST PUSH1 0x0 DUP1 PUSH1 0x0 DUP1 PUSH1 0x80 DUP6 DUP8 SUB SLT ISZERO PUSH2 0x3789 JUMPI DUP2 DUP3 REVERT JUMPDEST POP POP DUP3 CALLDATALOAD SWAP5 PUSH1 0x20 DUP5 ADD CALLDATALOAD SWAP5 POP PUSH1 0x40 DUP5 ADD CALLDATALOAD SWAP4 PUSH1 0x60 ADD CALLDATALOAD SWAP3 POP SWAP1 POP JUMP JUMPDEST PUSH1 0x0 PUSH1 0x20 DUP3 DUP5 SUB SLT ISZERO PUSH2 0x37B6 JUMPI DUP1 DUP2 REVERT JUMPDEST DUP2 MLOAD PUSH1 0xFF DUP2 AND DUP2 EQ PUSH2 0x33C3 JUMPI DUP2 DUP3 REVERT JUMPDEST PUSH1 0x0 PUSH1 0x20 DUP3 DUP5 SUB SLT ISZERO PUSH2 0x37D7 JUMPI DUP1 DUP2 REVERT JUMPDEST PUSH2 0x33C3 DUP3 PUSH2 0x3390 JUMP JUMPDEST PUSH1 0x0 DUP3 MLOAD DUP2 JUMPDEST DUP2 DUP2 LT ISZERO PUSH2 0x3800 JUMPI PUSH1 0x20 DUP2 DUP7 ADD DUP2 ADD MLOAD DUP6 DUP4 ADD MSTORE ADD PUSH2 0x37E6 JUMP JUMPDEST DUP2 DUP2 GT ISZERO PUSH2 0x380E JUMPI DUP3 DUP3 DUP6 ADD MSTORE JUMPDEST POP SWAP2 SWAP1 SWAP2 ADD SWAP3 SWAP2 POP POP JUMP JUMPDEST PUSH1 0x1 PUSH1 0x1 PUSH1 0xA0 SHL SUB SWAP3 SWAP1 SWAP3 AND DUP3 MSTORE PUSH1 0x20 DUP3 ADD MSTORE PUSH1 0x40 ADD SWAP1 JUMP JUMPDEST PUSH1 0x1 PUSH1 0x1 PUSH1 0xA0 SHL SUB SWAP7 SWAP1 SWAP7 AND DUP7 MSTORE PUSH1 0x20 DUP7 ADD SWAP5 SWAP1 SWAP5 MSTORE PUSH1 0x40 DUP6 ADD SWAP3 SWAP1 SWAP3 MSTORE PUSH1 0x60 DUP5 ADD MSTORE PUSH1 0x80 DUP4 ADD MSTORE PUSH1 0x1 PUSH1 0x1 PUSH1 0x58 SHL SUB AND PUSH1 0xA0 DUP3 ADD MSTORE PUSH1 0xC0 ADD SWAP1 JUMP JUMPDEST PUSH1 0x20 DUP1 DUP3 MSTORE PUSH1 0x18 SWAP1 DUP3 ADD MSTORE PUSH32 0x4C6F673A4D6F727467616765506F6F6C3A21616D6F756E740000000000000000 PUSH1 0x40 DUP3 ADD MSTORE PUSH1 0x60 ADD SWAP1 JUMP JUMPDEST PUSH1 0x20 DUP1 DUP3 MSTORE PUSH1 0x19 SWAP1 DUP3 ADD MSTORE PUSH32 0x4C6F673A5061726173736574426173653A215F6C6F636B656400000000000000 PUSH1 0x40 DUP3 ADD MSTORE PUSH1 0x60 ADD SWAP1 JUMP JUMPDEST PUSH1 0x20 DUP1 DUP3 MSTORE PUSH1 0x18 SWAP1 DUP3 ADD MSTORE PUSH32 0x4C6F673A4D6F727467616765506F6F6C3A696E6465783D300000000000000000 PUSH1 0x40 DUP3 ADD MSTORE PUSH1 0x60 ADD SWAP1 JUMP JUMPDEST PUSH1 0x20 DUP1 DUP3 MSTORE PUSH1 0x15 SWAP1 DUP3 ADD MSTORE PUSH21 0x2637B39D2830B930B9B9B2BA2130B9B29D10B3B7BB PUSH1 0x59 SHL PUSH1 0x40 DUP3 ADD MSTORE PUSH1 0x60 ADD SWAP1 JUMP JUMPDEST PUSH1 0x20 DUP1 DUP3 MSTORE PUSH1 0x1F SWAP1 DUP3 ADD MSTORE PUSH32 0x4C6F673A4D6F727467616765506F6F6C3A216D6F727467616765416C6C6F7700 PUSH1 0x40 DUP3 ADD MSTORE PUSH1 0x60 ADD SWAP1 JUMP JUMPDEST PUSH1 0x20 DUP1 DUP3 MSTORE PUSH1 0x13 SWAP1 DUP3 ADD MSTORE PUSH19 0x4C6F673A4D6F727467616765506F6F6C3A213 PUSH1 0x6C SHL PUSH1 0x40 DUP3 ADD MSTORE PUSH1 0x60 ADD SWAP1 JUMP JUMPDEST PUSH1 0x0 DUP3 NOT DUP3 GT ISZERO PUSH2 0x39B9 JUMPI PUSH2 0x39B9 PUSH2 0x3AFF JUMP JUMPDEST POP ADD SWAP1 JUMP JUMPDEST PUSH1 0x0 DUP3 PUSH2 0x39D9 JUMPI PUSH4 0x4E487B71 PUSH1 0xE0 SHL DUP2 MSTORE PUSH1 0x12 PUSH1 0x4 MSTORE PUSH1 0x24 DUP2 REVERT JUMPDEST POP DIV SWAP1 JUMP JUMPDEST PUSH1 0x1 DUP2 DUP2 JUMPDEST DUP1 DUP6 GT ISZERO PUSH2 0x3A19 JUMPI DUP2 PUSH1 0x0 NOT DIV DUP3 GT ISZERO PUSH2 0x39FF JUMPI PUSH2 0x39FF PUSH2 0x3AFF JUMP JUMPDEST DUP1 DUP6 AND ISZERO PUSH2 0x3A0C JUMPI SWAP2 DUP2 MUL SWAP2 JUMPDEST SWAP4 DUP5 SHR SWAP4 SWAP1 DUP1 MUL SWAP1 PUSH2 0x39E3 JUMP JUMPDEST POP SWAP3 POP SWAP3 SWAP1 POP JUMP JUMPDEST PUSH1 0x0 PUSH2 0x33C3 DUP4 DUP4 PUSH1 0x0 DUP3 PUSH2 0x3A37 JUMPI POP PUSH1 0x1 PUSH2 0x27F7 JUMP JUMPDEST DUP2 PUSH2 0x3A44 JUMPI POP PUSH1 0x0 PUSH2 0x27F7 JUMP JUMPDEST DUP2 PUSH1 0x1 DUP2 EQ PUSH2 0x3A5A JUMPI PUSH1 0x2 DUP2 EQ PUSH2 0x3A64 JUMPI PUSH2 0x3A80 JUMP JUMPDEST PUSH1 0x1 SWAP2 POP POP PUSH2 0x27F7 JUMP JUMPDEST PUSH1 0xFF DUP5 GT ISZERO PUSH2 0x3A75 JUMPI PUSH2 0x3A75 PUSH2 0x3AFF JUMP JUMPDEST POP POP PUSH1 0x1 DUP3 SHL PUSH2 0x27F7 JUMP JUMPDEST POP PUSH1 0x20 DUP4 LT PUSH2 0x133 DUP4 LT AND PUSH1 0x4E DUP5 LT PUSH1 0xB DUP5 LT AND OR ISZERO PUSH2 0x3AA3 JUMPI POP DUP2 DUP2 EXP PUSH2 0x27F7 JUMP JUMPDEST PUSH2 0x3AAD DUP4 DUP4 PUSH2 0x39DE JUMP JUMPDEST DUP1 PUSH1 0x0 NOT DIV DUP3 GT ISZERO PUSH2 0x3AC1 JUMPI PUSH2 0x3AC1 PUSH2 0x3AFF JUMP JUMPDEST MUL SWAP4 SWAP3 POP POP POP JUMP JUMPDEST PUSH1 0x0 DUP2 PUSH1 0x0 NOT DIV DUP4 GT DUP3 ISZERO ISZERO AND ISZERO PUSH2 0x3AE3 JUMPI PUSH2 0x3AE3 PUSH2 0x3AFF JUMP JUMPDEST POP MUL SWAP1 JUMP JUMPDEST PUSH1 0x0 DUP3 DUP3 LT ISZERO PUSH2 0x3AFA JUMPI PUSH2 0x3AFA PUSH2 0x3AFF JUMP JUMPDEST POP SUB SWAP1 JUMP JUMPDEST PUSH4 0x4E487B71 PUSH1 0xE0 SHL PUSH1 0x0 MSTORE PUSH1 0x11 PUSH1 0x4 MSTORE PUSH1 0x24 PUSH1 0x0 REVERT JUMPDEST PUSH1 0x1 PUSH1 0x1 PUSH1 0xA0 SHL SUB DUP2 AND DUP2 EQ PUSH2 0x3B2A JUMPI PUSH1 0x0 DUP1 REVERT JUMPDEST POP JUMP JUMPDEST DUP1 ISZERO ISZERO DUP2 EQ PUSH2 0x3B2A JUMPI PUSH1 0x0 DUP1 REVERT INVALID CALLDATASIZE 0xB0 DUP14 0x1E 0xC8 0xEC 0xD5 DUP9 STOP PUSH30 0x14EA5BE9EDB9EEB4CDD2F952162D2D32D4B71A0126A2A264697066735822 SLT KECCAK256 0x1E 0xE0 CALLER 0xC2 0xF PUSH13 0x9A52B80336E8582EDEAB7AEFF 0xED 0xAF 0xC3 PUSH3 0x86730E PUSH12 0xD339D82B1064736F6C634300 ADDMOD DIV STOP CALLER "
		},
		"gasEstimates": {
			"creation": {
				"codeDepositCost": "3049800",
				"executionCost": "3357",
				"totalCost": "3053157"
			},
			"external": {
				"_checkLine((uint256,uint256,uint160,uint88),uint256,uint256,uint80,uint80)": "infinite",
				"_governance()": "1117",
				"coin(address,uint256,uint88)": "infinite",
				"decrease(address,uint256)": "infinite",
				"getDecimalConversion(address,uint256,address)": "infinite",
				"getFee(uint256,uint160,uint256,uint256,uint80)": "infinite",
				"getFlag()": "1158",
				"getInfoRealTime(address,uint256,uint256,uint88,address)": "infinite",
				"getInsurancePool()": "1087",
				"getK(address)": "1379",
				"getLedger(address,address)": "infinite",
				"getLedgerArrayNum(address)": "1321",
				"getLedgerIndex(address,address)": "infinite",
				"getMaxRate(address)": "1326",
				"getMortgageRate(uint256,uint256,uint256,uint256)": "infinite",
				"getOneYear()": "1081",
				"getPTokenAddress()": "1132",
				"getPriceController()": "1088",
				"getR0(address)": "1420",
				"getUnderlyingToken()": "1131",
				"increaseCoinage(address,uint256)": "infinite",
				"initialize(address)": "27142",
				"liquidation(address,address,uint256,uint256)": "infinite",
				"reducedCoinage(address,uint256)": "infinite",
				"setConfig(address,uint96,address,uint96)": "infinite",
				"setFlag(uint96)": "infinite",
				"setInfo(address,address)": "infinite",
				"setInsurancePool(address)": "infinite",
				"setK(address,uint80)": "infinite",
				"setMaxRate(address,uint88)": "infinite",
				"setMortgageAllow(address,bool)": "infinite",
				"setOneYear(uint96)": "infinite",
				"setPriceController(address)": "infinite",
				"setR0(address,uint80)": "infinite",
				"supplement(address,uint256)": "infinite",
				"update(address)": "infinite"
			},
			"internal": {
				"getPriceForPToken(address,uint256)": "infinite",
				"transferFee(struct MortgagePool.PersonalLedger memory,uint256,uint256,uint80)": "infinite"
			}
		},
		"methodIdentifiers": {
			"_checkLine((uint256,uint256,uint160,uint88),uint256,uint256,uint80,uint80)": "b862bc7b",
			"_governance()": "1c2f3e3d",
			"coin(address,uint256,uint88)": "3a97bb25",
			"decrease(address,uint256)": "f27ac4d9",
			"getDecimalConversion(address,uint256,address)": "f9081591",
			"getFee(uint256,uint160,uint256,uint256,uint80)": "e82c1f44",
			"getFlag()": "f9633930",
			"getInfoRealTime(address,uint256,uint256,uint88,address)": "800c2b39",
			"getInsurancePool()": "d0d5665b",
			"getK(address)": "1e0f6725",
			"getLedger(address,address)": "25404c4f",
			"getLedgerArrayNum(address)": "a831407f",
			"getLedgerIndex(address,address)": "cb919485",
			"getMaxRate(address)": "a99c53b3",
			"getMortgageRate(uint256,uint256,uint256,uint256)": "7ff4d02f",
			"getOneYear()": "f1a4252e",
			"getPTokenAddress()": "42d17745",
			"getPriceController()": "3cf045a4",
			"getR0(address)": "90f5cb09",
			"getUnderlyingToken()": "ee719bc8",
			"increaseCoinage(address,uint256)": "983825de",
			"initialize(address)": "c4d66de8",
			"liquidation(address,address,uint256,uint256)": "219f7753",
			"reducedCoinage(address,uint256)": "78a35320",
			"setConfig(address,uint96,address,uint96)": "0daa6d11",
			"setFlag(uint96)": "306aceda",
			"setInfo(address,address)": "fb606f92",
			"setInsurancePool(address)": "a94c487e",
			"setK(address,uint80)": "28107acf",
			"setMaxRate(address,uint88)": "5e0ec98f",
			"setMortgageAllow(address,bool)": "c2862d67",
			"setOneYear(uint96)": "3376cb37",
			"setPriceController(address)": "3f849820",
			"setR0(address,uint80)": "beefcbcf",
			"supplement(address,uint256)": "a240b9a8",
			"update(address)": "1c1b8772"
		}
	},
	"abi": [
		{
			"anonymous": false,
			"inputs": [
				{
					"indexed": false,
					"internalType": "uint256",
					"name": "value",
					"type": "uint256"
				}
			],
			"name": "FeeValue",
			"type": "event"
		},
		{
			"anonymous": false,
			"inputs": [
				{
					"indexed": false,
					"internalType": "address",
					"name": "mToken",
					"type": "address"
				},
				{
					"indexed": false,
					"internalType": "uint256",
					"name": "mTokenAmount",
					"type": "uint256"
				},
				{
					"indexed": false,
					"internalType": "uint256",
					"name": "pTokenAmount",
					"type": "uint256"
				},
				{
					"indexed": false,
					"internalType": "uint256",
					"name": "tokenPrice",
					"type": "uint256"
				},
				{
					"indexed": false,
					"internalType": "uint256",
					"name": "pTokenPrice",
					"type": "uint256"
				},
				{
					"indexed": false,
					"internalType": "uint88",
					"name": "rate",
					"type": "uint88"
				}
			],
			"name": "LedgerLog",
			"type": "event"
		},
		{
			"inputs": [
				{
					"components": [
						{
							"internalType": "uint256",
							"name": "mortgageAssets",
							"type": "uint256"
						},
						{
							"internalType": "uint256",
							"name": "parassetAssets",
							"type": "uint256"
						},
						{
							"internalType": "uint160",
							"name": "blockHeight",
							"type": "uint160"
						},
						{
							"internalType": "uint88",
							"name": "rate",
							"type": "uint88"
						}
					],
					"internalType": "struct MortgagePool.PersonalLedger",
					"name": "pLedger",
					"type": "tuple"
				},
				{
					"internalType": "uint256",
					"name": "tokenPrice",
					"type": "uint256"
				},
				{
					"internalType": "uint256",
					"name": "pTokenPrice",
					"type": "uint256"
				},
				{
					"internalType": "uint80",
					"name": "kValue",
					"type": "uint80"
				},
				{
					"internalType": "uint80",
					"name": "r0Value",
					"type": "uint80"
				}
			],
			"name": "_checkLine",
			"outputs": [],
			"stateMutability": "view",
			"type": "function"
		},
		{
			"inputs": [],
			"name": "_governance",
			"outputs": [
				{
					"internalType": "address",
					"name": "",
					"type": "address"
				}
			],
			"stateMutability": "view",
			"type": "function"
		},
		{
			"inputs": [
				{
					"internalType": "address",
					"name": "mortgageToken",
					"type": "address"
				},
				{
					"internalType": "uint256",
					"name": "amount",
					"type": "uint256"
				},
				{
					"internalType": "uint88",
					"name": "rate",
					"type": "uint88"
				}
			],
			"name": "coin",
			"outputs": [],
			"stateMutability": "payable",
			"type": "function"
		},
		{
			"inputs": [
				{
					"internalType": "address",
					"name": "mortgageToken",
					"type": "address"
				},
				{
					"internalType": "uint256",
					"name": "amount",
					"type": "uint256"
				}
			],
			"name": "decrease",
			"outputs": [],
			"stateMutability": "payable",
			"type": "function"
		},
		{
			"inputs": [
				{
					"internalType": "address",
					"name": "inputToken",
					"type": "address"
				},
				{
					"internalType": "uint256",
					"name": "inputTokenAmount",
					"type": "uint256"
				},
				{
					"internalType": "address",
					"name": "outputToken",
					"type": "address"
				}
			],
			"name": "getDecimalConversion",
			"outputs": [
				{
					"internalType": "uint256",
					"name": "",
					"type": "uint256"
				}
			],
			"stateMutability": "view",
			"type": "function"
		},
		{
			"inputs": [
				{
					"internalType": "uint256",
					"name": "parassetAssets",
					"type": "uint256"
				},
				{
					"internalType": "uint160",
					"name": "blockHeight",
					"type": "uint160"
				},
				{
					"internalType": "uint256",
					"name": "rate",
					"type": "uint256"
				},
				{
					"internalType": "uint256",
					"name": "nowRate",
					"type": "uint256"
				},
				{
					"internalType": "uint80",
					"name": "r0Value",
					"type": "uint80"
				}
			],
			"name": "getFee",
			"outputs": [
				{
					"internalType": "uint256",
					"name": "",
					"type": "uint256"
				}
			],
			"stateMutability": "view",
			"type": "function"
		},
		{
			"inputs": [],
			"name": "getFlag",
			"outputs": [
				{
					"internalType": "uint96",
					"name": "",
					"type": "uint96"
				}
			],
			"stateMutability": "view",
			"type": "function"
		},
		{
			"inputs": [
				{
					"internalType": "address",
					"name": "mortgageToken",
					"type": "address"
				},
				{
					"internalType": "uint256",
					"name": "tokenPrice",
					"type": "uint256"
				},
				{
					"internalType": "uint256",
					"name": "uTokenPrice",
					"type": "uint256"
				},
				{
					"internalType": "uint88",
					"name": "maxRateNum",
					"type": "uint88"
				},
				{
					"internalType": "address",
					"name": "owner",
					"type": "address"
				}
			],
			"name": "getInfoRealTime",
			"outputs": [
				{
					"internalType": "uint256",
					"name": "fee",
					"type": "uint256"
				},
				{
					"internalType": "uint256",
					"name": "mortgageRate",
					"type": "uint256"
				},
				{
					"internalType": "uint256",
					"name": "maxSubM",
					"type": "uint256"
				},
				{
					"internalType": "uint256",
					"name": "maxAddP",
					"type": "uint256"
				}
			],
			"stateMutability": "view",
			"type": "function"
		},
		{
			"inputs": [],
			"name": "getInsurancePool",
			"outputs": [
				{
					"internalType": "address",
					"name": "",
					"type": "address"
				}
			],
			"stateMutability": "view",
			"type": "function"
		},
		{
			"inputs": [
				{
					"internalType": "address",
					"name": "mortgageToken",
					"type": "address"
				}
			],
			"name": "getK",
			"outputs": [
				{
					"internalType": "uint256",
					"name": "",
					"type": "uint256"
				}
			],
			"stateMutability": "view",
			"type": "function"
		},
		{
			"inputs": [
				{
					"internalType": "address",
					"name": "mortgageToken",
					"type": "address"
				},
				{
					"internalType": "address",
					"name": "owner",
					"type": "address"
				}
			],
			"name": "getLedger",
			"outputs": [
				{
					"internalType": "uint256",
					"name": "mortgageAssets",
					"type": "uint256"
				},
				{
					"internalType": "uint256",
					"name": "parassetAssets",
					"type": "uint256"
				},
				{
					"internalType": "uint160",
					"name": "blockHeight",
					"type": "uint160"
				},
				{
					"internalType": "uint88",
					"name": "rate",
					"type": "uint88"
				},
				{
					"internalType": "bool",
					"name": "created",
					"type": "bool"
				}
			],
			"stateMutability": "view",
			"type": "function"
		},
		{
			"inputs": [
				{
					"internalType": "address",
					"name": "mortgageToken",
					"type": "address"
				}
			],
			"name": "getLedgerArrayNum",
			"outputs": [
				{
					"internalType": "uint256",
					"name": "",
					"type": "uint256"
				}
			],
			"stateMutability": "view",
			"type": "function"
		},
		{
			"inputs": [
				{
					"internalType": "address",
					"name": "mortgageToken",
					"type": "address"
				},
				{
					"internalType": "address",
					"name": "owner",
					"type": "address"
				}
			],
			"name": "getLedgerIndex",
			"outputs": [
				{
					"internalType": "uint256",
					"name": "",
					"type": "uint256"
				}
			],
			"stateMutability": "view",
			"type": "function"
		},
		{
			"inputs": [
				{
					"internalType": "address",
					"name": "mortgageToken",
					"type": "address"
				}
			],
			"name": "getMaxRate",
			"outputs": [
				{
					"internalType": "uint88",
					"name": "",
					"type": "uint88"
				}
			],
			"stateMutability": "view",
			"type": "function"
		},
		{
			"inputs": [
				{
					"internalType": "uint256",
					"name": "mortgageAssets",
					"type": "uint256"
				},
				{
					"internalType": "uint256",
					"name": "parassetAssets",
					"type": "uint256"
				},
				{
					"internalType": "uint256",
					"name": "tokenPrice",
					"type": "uint256"
				},
				{
					"internalType": "uint256",
					"name": "pTokenPrice",
					"type": "uint256"
				}
			],
			"name": "getMortgageRate",
			"outputs": [
				{
					"internalType": "uint256",
					"name": "",
					"type": "uint256"
				}
			],
			"stateMutability": "pure",
			"type": "function"
		},
		{
			"inputs": [],
			"name": "getOneYear",
			"outputs": [
				{
					"internalType": "uint96",
					"name": "",
					"type": "uint96"
				}
			],
			"stateMutability": "view",
			"type": "function"
		},
		{
			"inputs": [],
			"name": "getPTokenAddress",
			"outputs": [
				{
					"internalType": "address",
					"name": "",
					"type": "address"
				}
			],
			"stateMutability": "view",
			"type": "function"
		},
		{
			"inputs": [],
			"name": "getPriceController",
			"outputs": [
				{
					"internalType": "address",
					"name": "",
					"type": "address"
				}
			],
			"stateMutability": "view",
			"type": "function"
		},
		{
			"inputs": [
				{
					"internalType": "address",
					"name": "mortgageToken",
					"type": "address"
				}
			],
			"name": "getR0",
			"outputs": [
				{
					"internalType": "uint80",
					"name": "",
					"type": "uint80"
				}
			],
			"stateMutability": "view",
			"type": "function"
		},
		{
			"inputs": [],
			"name": "getUnderlyingToken",
			"outputs": [
				{
					"internalType": "address",
					"name": "",
					"type": "address"
				}
			],
			"stateMutability": "view",
			"type": "function"
		},
		{
			"inputs": [
				{
					"internalType": "address",
					"name": "mortgageToken",
					"type": "address"
				},
				{
					"internalType": "uint256",
					"name": "amount",
					"type": "uint256"
				}
			],
			"name": "increaseCoinage",
			"outputs": [],
			"stateMutability": "payable",
			"type": "function"
		},
		{
			"inputs": [
				{
					"internalType": "address",
					"name": "governance",
					"type": "address"
				}
			],
			"name": "initialize",
			"outputs": [],
			"stateMutability": "nonpayable",
			"type": "function"
		},
		{
			"inputs": [
				{
					"internalType": "address",
					"name": "mortgageToken",
					"type": "address"
				},
				{
					"internalType": "address",
					"name": "account",
					"type": "address"
				},
				{
					"internalType": "uint256",
					"name": "amount",
					"type": "uint256"
				},
				{
					"internalType": "uint256",
					"name": "pTokenAmountLimit",
					"type": "uint256"
				}
			],
			"name": "liquidation",
			"outputs": [],
			"stateMutability": "payable",
			"type": "function"
		},
		{
			"inputs": [
				{
					"internalType": "address",
					"name": "mortgageToken",
					"type": "address"
				},
				{
					"internalType": "uint256",
					"name": "amount",
					"type": "uint256"
				}
			],
			"name": "reducedCoinage",
			"outputs": [],
			"stateMutability": "payable",
			"type": "function"
		},
		{
			"inputs": [
				{
					"internalType": "address",
					"name": "pTokenAdd",
					"type": "address"
				},
				{
					"internalType": "uint96",
					"name": "oneYear",
					"type": "uint96"
				},
				{
					"internalType": "address",
					"name": "underlyingTokenAdd",
					"type": "address"
				},
				{
					"internalType": "uint96",
					"name": "flag",
					"type": "uint96"
				}
			],
			"name": "setConfig",
			"outputs": [],
			"stateMutability": "nonpayable",
			"type": "function"
		},
		{
			"inputs": [
				{
					"internalType": "uint96",
					"name": "num",
					"type": "uint96"
				}
			],
			"name": "setFlag",
			"outputs": [],
			"stateMutability": "nonpayable",
			"type": "function"
		},
		{
			"inputs": [
				{
					"internalType": "address",
					"name": "uToken",
					"type": "address"
				},
				{
					"internalType": "address",
					"name": "pToken",
					"type": "address"
				}
			],
			"name": "setInfo",
			"outputs": [],
			"stateMutability": "nonpayable",
			"type": "function"
		},
		{
			"inputs": [
				{
					"internalType": "address",
					"name": "add",
					"type": "address"
				}
			],
			"name": "setInsurancePool",
			"outputs": [],
			"stateMutability": "nonpayable",
			"type": "function"
		},
		{
			"inputs": [
				{
					"internalType": "address",
					"name": "mortgageToken",
					"type": "address"
				},
				{
					"internalType": "uint80",
					"name": "num",
					"type": "uint80"
				}
			],
			"name": "setK",
			"outputs": [],
			"stateMutability": "nonpayable",
			"type": "function"
		},
		{
			"inputs": [
				{
					"internalType": "address",
					"name": "mortgageToken",
					"type": "address"
				},
				{
					"internalType": "uint88",
					"name": "num",
					"type": "uint88"
				}
			],
			"name": "setMaxRate",
			"outputs": [],
			"stateMutability": "nonpayable",
			"type": "function"
		},
		{
			"inputs": [
				{
					"internalType": "address",
					"name": "mortgageToken",
					"type": "address"
				},
				{
					"internalType": "bool",
					"name": "allow",
					"type": "bool"
				}
			],
			"name": "setMortgageAllow",
			"outputs": [],
			"stateMutability": "nonpayable",
			"type": "function"
		},
		{
			"inputs": [
				{
					"internalType": "uint96",
					"name": "num",
					"type": "uint96"
				}
			],
			"name": "setOneYear",
			"outputs": [],
			"stateMutability": "nonpayable",
			"type": "function"
		},
		{
			"inputs": [
				{
					"internalType": "address",
					"name": "add",
					"type": "address"
				}
			],
			"name": "setPriceController",
			"outputs": [],
			"stateMutability": "nonpayable",
			"type": "function"
		},
		{
			"inputs": [
				{
					"internalType": "address",
					"name": "mortgageToken",
					"type": "address"
				},
				{
					"internalType": "uint80",
					"name": "num",
					"type": "uint80"
				}
			],
			"name": "setR0",
			"outputs": [],
			"stateMutability": "nonpayable",
			"type": "function"
		},
		{
			"inputs": [
				{
					"internalType": "address",
					"name": "mortgageToken",
					"type": "address"
				},
				{
					"internalType": "uint256",
					"name": "amount",
					"type": "uint256"
				}
			],
			"name": "supplement",
			"outputs": [],
			"stateMutability": "payable",
			"type": "function"
		},
		{
			"inputs": [
				{
					"internalType": "address",
					"name": "newGovernance",
					"type": "address"
				}
			],
			"name": "update",
			"outputs": [],
			"stateMutability": "nonpayable",
			"type": "function"
		}
	]
}