{
	"data": {
		"bytecode": {
			"linkReferences": {},
			"object": "608060405234801561001057600080fd5b50613a30806100206000396000f3fe60806040526004361061020f5760003560e01c8063983825de11610118578063cc000a1a116100a0578063f1a4252e1161006f578063f1a4252e1461076e578063f27ac4d9146107a7578063f9081591146107ba578063f9633930146107da578063fb606f92146107ff57600080fd5b8063cc000a1a146106f4578063d0d5665b14610712578063e82c1f4414610730578063ee719bc81461075057600080fd5b8063a99c53b3116100e7578063a99c53b314610630578063bd2741c814610674578063beefcbcf14610694578063c2862d67146106b4578063c4d66de8146106d457600080fd5b8063983825de146105b1578063a240b9a8146105c4578063a831407f146105d7578063a94c487e1461061057600080fd5b80633376cb371161019b5780635e0ec98f1161016a5780635e0ec98f146104a857806378a35320146104c85780637ff4d02f146104db578063800c2b391461051357806390f5cb091461055357600080fd5b80633376cb37146104375780633a97bb25146104575780633cf045a41461046a5780633f8498201461048857600080fd5b80631e0f6725116101e25780631e0f6725146102b3578063219f77531461030757806325404c4f1461031a57806328107acf146103f7578063306aceda1461041757600080fd5b806303000aa4146102145780630daa6d11146102515780631c1b8772146102735780631c2f3e3d14610293575b600080fd5b34801561022057600080fd5b5061023461022f366004613301565b61081f565b6040516001600160a01b0390911681526020015b60405180910390f35b34801561025d57600080fd5b5061027161026c366004613465565b610878565b005b34801561027f57600080fd5b5061027161028e366004613234565b61094f565b34801561029f57600080fd5b50600154610234906001600160a01b031681565b3480156102bf57600080fd5b506102f96102ce366004613234565b6001600160a01b0316600090815260046020526040902054600160601b90046001600160501b031690565b604051908152602001610248565b61027161031536600461328f565b610a22565b34801561032657600080fd5b506103b7610335366004613257565b6001600160a01b039182166000908152600560209081526040808320938516835292815290829020825160a08101845281548082526001830154938201849052600290920154948516938101849052600160a01b85046001600160581b031660608201819052600160f81b90950460ff16151560809091018190529094919391565b6040805195865260208601949094526001600160a01b03909216928401929092526001600160581b0390911660608301521515608082015260a001610248565b34801561040357600080fd5b50610271610412366004613406565b610e4d565b34801561042357600080fd5b50610271610432366004613665565b610f32565b34801561044357600080fd5b50610271610452366004613665565b610ff9565b6102716104653660046133c9565b6110c0565b34801561047657600080fd5b506006546001600160a01b0316610234565b34801561049457600080fd5b506102716104a3366004613234565b611591565b3480156104b457600080fd5b506102716104c336600461343a565b611652565b6102716104d6366004613301565b611734565b3480156104e757600080fd5b506104fb6104f6366004613613565b611a05565b6040516001600160581b039091168152602001610248565b34801561051f57600080fd5b5061053361052e36600461336d565b611a55565b604080519485526020850193909352918301526060820152608001610248565b34801561055f57600080fd5b5061059961056e366004613234565b6001600160a01b0316600090815260046020526040902054600160b01b90046001600160501b031690565b6040516001600160501b039091168152602001610248565b6102716105bf366004613301565b611c65565b6102716105d2366004613301565b611fa2565b3480156105e357600080fd5b506102f96105f2366004613234565b6001600160a01b031660009081526005602052604090206001015490565b34801561061c57600080fd5b5061027161062b366004613234565b61229c565b34801561063c57600080fd5b506104fb61064b366004613234565b6001600160a01b031660009081526004602052604090205461010090046001600160581b031690565b34801561068057600080fd5b5061027161068f3660046134d8565b61235d565b3480156106a057600080fd5b506102716106af366004613406565b612480565b3480156106c057600080fd5b506102716106cf3660046132d4565b61255e565b3480156106e057600080fd5b506102716106ef366004613234565b612628565b34801561070057600080fd5b506002546001600160a01b0316610234565b34801561071e57600080fd5b506007546001600160a01b0316610234565b34801561073c57600080fd5b506102f961074b3660046135ab565b6126a7565b34801561075c57600080fd5b506003546001600160a01b0316610234565b34801561077a57600080fd5b50600254600160a01b90046001600160601b03165b6040516001600160601b039091168152602001610248565b6102716107b5366004613301565b61279f565b3480156107c657600080fd5b506102f96107d536600461332c565b612ab3565b3480156107e657600080fd5b50600354600160a01b90046001600160601b031661078f565b34801561080b57600080fd5b5061027161081a366004613257565b612bf8565b6001600160a01b038216600090815260056020526040812060010180548390811061085a57634e487b7160e01b600052603260045260246000fd5b6000918252602090912001546001600160a01b031690505b92915050565b6001546040516391e1472b60e01b81526001600160a01b03909116906391e1472b906108ab9033906000906004016136b8565b60206040518083038186803b1580156108c357600080fd5b505afa1580156108d7573d6000803e3d6000fd5b505050506040513d601f19601f820116820180604052508101906108fb91906134bc565b6109205760405162461bcd60e51b8152600401610917906137b2565b60405180910390fd5b6001600160601b03928316600160a01b9081026001600160a01b03958616176002559216909102911617600355565b6001546001600160a01b0316338114806109e357506040516391e1472b60e01b81526001600160a01b038216906391e1472b906109939033906000906004016136b8565b60206040518083038186803b1580156109ab57600080fd5b505afa1580156109bf573d6000803e3d6000fd5b505050506040513d601f19601f820116820180604052508101906109e391906134bc565b6109ff5760405162461bcd60e51b8152600401610917906137b2565b50600180546001600160a01b0319166001600160a01b0392909216919091179055565b600354600160a01b90046001600160601b0316610a515760405162461bcd60e51b815260040161091790613818565b60005415610a715760405162461bcd60e51b815260040161091790613744565b600160009081556001600160a01b0385168152600460209081526040918290208251608081018452905460ff811615158083526001600160581b03610100830416938301939093526001600160501b03600160601b8204811694830194909452600160b01b90049092166060830152610afc5760405162461bcd60e51b8152600401610917906137e1565b6001600160a01b0385811660009081526005602090815260408083209388168352929052206002810154600160f81b900460ff16610b4c5760405162461bcd60e51b81526004016109179061377b565b600181015481548515801590610b625750808611155b610b7e5760405162461bcd60e51b81526004016109179061370d565b600080610b8b8a34612cc8565b6040805160a081018252885481526001890154602082015260028901546001600160a01b03811682840152600160a01b81046001600160581b0316606080840191909152600160f81b90910460ff1615156080830152918a0151918a0151939550919350610bfc928591859161235d565b6000610c09836064613968565b610c13838b613968565b610c1e90605a613968565b610c28919061385d565b905087811115610c865760405162461bcd60e51b815260206004820152602360248201527f4c6f673a4d6f727467616765506f6f6c3a2170546f6b656e416d6f756e744c696044820152621b5a5d60ea1b6064820152608401610917565b600254600754610ca5916001600160a01b039081169133911684612d67565b600760009054906101000a90046001600160a01b03166001600160a01b031663b7694a936040518163ffffffff1660e01b8152600401600060405180830381600087803b158015610cf557600080fd5b505af1158015610d09573d6000803e3d6000fd5b505050506000848a87610d1c9190613968565b610d26919061385d565b6007546040516245b14b60e71b8152600481018390529192506001600160a01b0316906322d8a58090602401600060405180830381600087803b158015610d6c57600080fd5b505af1158015610d80573d6000803e3d6000fd5b505050508985610d909190613987565b8755610d9c8187613987565b87600101819055506000805160206139db8339815191528c8860000154896001015487878c60020160149054906101000a90046001600160581b0316604051610dea969594939291906136d1565b60405180910390a18654610e1257600060018801556002870180546001600160f81b03191690555b6001600160a01b038c1615610e3157610e2c8c338c612e97565b610e3b565b610e3b338b612fb4565b50506000805550505050505050505050565b6001546040516391e1472b60e01b81526001600160a01b03909116906391e1472b90610e809033906000906004016136b8565b60206040518083038186803b158015610e9857600080fd5b505afa158015610eac573d6000803e3d6000fd5b505050506040513d601f19601f82011682018060405250810190610ed091906134bc565b610eec5760405162461bcd60e51b8152600401610917906137b2565b6001600160a01b03909116600090815260046020526040902080546001600160501b03909216600160601b0269ffffffffffffffffffff60601b19909216919091179055565b6001546040516391e1472b60e01b81526001600160a01b03909116906391e1472b90610f659033906000906004016136b8565b60206040518083038186803b158015610f7d57600080fd5b505afa158015610f91573d6000803e3d6000fd5b505050506040513d601f19601f82011682018060405250810190610fb591906134bc565b610fd15760405162461bcd60e51b8152600401610917906137b2565b600380546001600160601b03909216600160a01b026001600160a01b03909216919091179055565b6001546040516391e1472b60e01b81526001600160a01b03909116906391e1472b9061102c9033906000906004016136b8565b60206040518083038186803b15801561104457600080fd5b505afa158015611058573d6000803e3d6000fd5b505050506040513d601f19601f8201168201806040525081019061107c91906134bc565b6110985760405162461bcd60e51b8152600401610917906137b2565b600280546001600160601b03909216600160a01b026001600160a01b03909216919091179055565b6003546001600160601b03600160a01b9091041660011461111e5760405162461bcd60e51b81526020600482015260186024820152774c6f673a4d6f727467616765506f6f6c3a2161637469766560401b6044820152606401610917565b6000541561113e5760405162461bcd60e51b815260040161091790613744565b600160009081556001600160a01b0384168152600460209081526040918290208251608081018452905460ff811615158083526001600160581b03610100830416938301939093526001600160501b03600160601b8204811694830194909452600160b01b900490921660608301526111c95760405162461bcd60e51b8152600401610917906137e1565b6000826001600160581b03161180156111f8575080602001516001600160581b0316826001600160581b031611155b6112445760405162461bcd60e51b815260206004820152601860248201527f4c6f673a4d6f727467616765506f6f6c3a72617465213d3000000000000000006044820152606401610917565b600083116112945760405162461bcd60e51b815260206004820152601a60248201527f4c6f673a4d6f727467616765506f6f6c3a616d6f756e74213d300000000000006044820152606401610917565b6001600160a01b038416600081815260056020908152604080832033845290915281206001810154815491939092908190156112ea576112d68933308b612d67565b6112e08934612cc8565b9092509050611353565b8734101561133a5760405162461bcd60e51b815260206004820152601b60248201527f4c6f673a4d6f727467616765506f6f6c3a216d73672e76616c756500000000006044820152606401610917565b61134d896113488a34613987565b612cc8565b90925090505b6040805160a081018252865481526001870154602082015260028701546001600160a01b03811692820192909252600160a01b82046001600160581b0316606080830191909152600160f81b90920460ff1615156080820152908701516113c09190849084906000613082565b60006113cf83620186a0613968565b6001600160581b0389166113e3848c613968565b6113ed9190613968565b6113f7919061385d565b6002546040516313b1db0b60e31b8152600481018390523360248201529192506001600160a01b031690639d8ed85890604401600060405180830381600087803b15801561144457600080fd5b505af1158015611458573d6000803e3d6000fd5b5050505088846114689190613845565b86556114748186613845565b600187018190556002870180546001600160a01b031916436001600160a01b031617905586546114a5918585611a05565b8660020160146101000a8154816001600160581b0302191690836001600160581b031602179055506000805160206139db8339815191528a8760000154886001015486868b60020160149054906101000a90046001600160581b0316604051611513969594939291906136d1565b60405180910390a16002860154600160f81b900460ff16611581576001600160a01b038a1660009081526005602090815260408220600190810180549182018155835291200180546001600160a01b031916331790556002860180546001600160f81b0316600160f81b1790555b5050600080555050505050505050565b6001546040516391e1472b60e01b81526001600160a01b03909116906391e1472b906115c49033906000906004016136b8565b60206040518083038186803b1580156115dc57600080fd5b505afa1580156115f0573d6000803e3d6000fd5b505050506040513d601f19601f8201168201806040525081019061161491906134bc565b6116305760405162461bcd60e51b8152600401610917906137b2565b600680546001600160a01b0319166001600160a01b0392909216919091179055565b6001546040516391e1472b60e01b81526001600160a01b03909116906391e1472b906116859033906000906004016136b8565b60206040518083038186803b15801561169d57600080fd5b505afa1580156116b1573d6000803e3d6000fd5b505050506040513d601f19601f820116820180604052508101906116d591906134bc565b6116f15760405162461bcd60e51b8152600401610917906137b2565b6001600160a01b03909116600090815260046020526040902080546001600160581b03909216610100026bffffffffffffffffffffff0019909216919091179055565b600354600160a01b90046001600160601b03166117635760405162461bcd60e51b815260040161091790613818565b600054156117835760405162461bcd60e51b815260040161091790613744565b600160009081556001600160a01b0383168152600460209081526040918290208251608081018452905460ff811615158083526001600160581b03610100830416938301939093526001600160501b03600160601b8204811694830194909452600160b01b9004909216606083015261180e5760405162461bcd60e51b8152600401610917906137e1565b6001600160a01b038316600090815260056020908152604080832033845290915290206001810154815484158015906118475750818511155b6118635760405162461bcd60e51b81526004016109179061370d565b6002830154600160f81b900460ff1661188e5760405162461bcd60e51b81526004016109179061377b565b60008061189b8834612cc8565b6040805160a081018252885481526001890154602082015260028901546001600160a01b03811692820192909252600160a01b82046001600160581b0316606080830191909152600160f81b90920460ff16151560808201529089015192945090925061190c91849084908b613082565b6119168785613987565b600186018190556002860180546001600160a01b031916436001600160a01b03161790556119479084908484611a05565b600286018054600160a01b600160f81b031916600160a01b6001600160581b0393841681029190911791829055875460018901546040516000805160206139db833981519152956119a3958f958a938a939190920416906136d1565b60405180910390a16007546040516245b14b60e71b8152600481018990526001600160a01b03909116906322d8a580906024015b600060405180830381600087803b1580156119f157600080fd5b505af1158015610e3b573d6000803e3d6000fd5b6000841580611a12575081155b15611a1f57506000611a4d565b611a298583613968565b611a338486613968565b611a4090620186a0613968565b611a4a919061385d565b90505b949350505050565b6001600160a01b03858116600090815260056020908152604080832085851684528252808320815160a081018352815480825260018301549482019490945260029091015494851691810191909152600160a01b84046001600160581b03166060820152600160f81b90930460ff161515608084015290918291829182918a9190158015611ae557506020810151155b15611aff5760008060008095509550955095505050611c59565b600354600254600091611b20916001600160a01b03918216918d9116612ab3565b60208301516040840151606085015185519394508e93611b8d9392916001600160581b031690611b5290848789611a05565b6001600160a01b0389166000908152600460205260409020546001600160581b039190911690600160b01b90046001600160501b03166126a7565b9750611bae8360000151898560200151611ba79190613845565b8385611a05565b6001600160581b0390811697508a16808810611bd1576000965060009550611c53565b611bdb8382613968565b828560200151611beb9190613968565b611bf890620186a0613968565b611c02919061385d565b8451611c0e9190613987565b6020850151909750611c2383620186a0613968565b85518390611c32908790613968565b611c3c9190613968565b611c46919061385d565b611c509190613987565b95505b50505050505b95509550955095915050565b6003546001600160601b03600160a01b90910416600114611cc35760405162461bcd60e51b81526020600482015260186024820152774c6f673a4d6f727467616765506f6f6c3a2161637469766560401b6044820152606401610917565b60005415611ce35760405162461bcd60e51b815260040161091790613744565b600160009081556001600160a01b0383168152600460209081526040918290208251608081018452905460ff811615158083526001600160581b03610100830416938301939093526001600160501b03600160601b8204811694830194909452600160b01b90049092166060830152611d6e5760405162461bcd60e51b8152600401610917906137e1565b60008211611d8e5760405162461bcd60e51b81526004016109179061370d565b6001600160a01b03831660009081526005602090815260408083203384529091529020600181015481546002830154600160f81b900460ff16611de35760405162461bcd60e51b81526004016109179061377b565b600080611df08834612cc8565b6040805160a081018252885481526001890154602082015260028901546001600160a01b03811692820192909252600160a01b82046001600160581b0316606080830191909152600160f81b90920460ff161515608082015290890151929450909250611e6291849084906000613082565b611e6c8785613845565b600186018190556002860180546001600160a01b031916436001600160a01b0316179055611e9d9084908484611a05565b600286018054600160a01b600160f81b031916600160a01b6001600160581b0393841681029190911791829055875460018901546040516000805160206139db83398151915295611ef9958f958a938a939190920416906136d1565b60405180910390a1602086015160028601546001600160581b03918216600160a01b9091049091161115611f6b5760405162461bcd60e51b81526020600482015260196024820152784c6f673a4d6f727467616765506f6f6c3a216d61785261746560381b6044820152606401610917565b6002546040516313b1db0b60e31b8152600481018990523360248201526001600160a01b0390911690639d8ed858906044016119d7565b600354600160a01b90046001600160601b0316611fd15760405162461bcd60e51b815260040161091790613818565b60005415611ff15760405162461bcd60e51b815260040161091790613744565b600160009081556001600160a01b0383168152600460209081526040918290208251608081018452905460ff811615158083526001600160581b03610100830416938301939093526001600160501b03600160601b8204811694830194909452600160b01b9004909216606083015261207c5760405162461bcd60e51b8152600401610917906137e1565b6000821161209c5760405162461bcd60e51b81526004016109179061370d565b6001600160a01b03831660009081526005602090815260408083203384529091529020600181015481546002830154600160f81b900460ff166120f15760405162461bcd60e51b81526004016109179061377b565b6000806001600160a01b038816156121235761210f8833308a612d67565b6121198834612cc8565b9092509050612187565b863410156121735760405162461bcd60e51b815260206004820152601b60248201527f4c6f673a4d6f727467616765506f6f6c3a216d73672e76616c756500000000006044820152606401610917565b612181886113488934613987565b90925090505b6040805160a081018252865481526001870154602082015260028701546001600160a01b03811692820192909252600160a01b82046001600160581b0316606080830191909152600160f81b90920460ff1615156080820152908701516121f49190849084906000613082565b6121fe8784613845565b8086556002860180546001600160a01b031916436001600160a01b031617905561222a90858484611a05565b600286018054600160a01b600160f81b031916600160a01b6001600160581b0393841681029190911791829055875460018901546040516000805160206139db83398151915295612286958f958a938a939190920416906136d1565b60405180910390a1505060008055505050505050565b6001546040516391e1472b60e01b81526001600160a01b03909116906391e1472b906122cf9033906000906004016136b8565b60206040518083038186803b1580156122e757600080fd5b505afa1580156122fb573d6000803e3d6000fd5b505050506040513d601f19601f8201168201806040525081019061231f91906134bc565b61233b5760405162461bcd60e51b8152600401610917906137b2565b600780546001600160a01b0319166001600160a01b0392909216919091179055565b60208501518551600061237282848989611a05565b6001600160581b03169050600080896040015190506000851180156123a85750806001600160a01b0316436001600160a01b0316115b80156123bc57506001600160a01b03811615155b156123de576123db85828c606001516001600160581b0316868a6126a7565b91505b6123e8898961385d565b6123f585620186a0613968565b6001600160501b0389166124098589613845565b6124139190613968565b61241d919061385d565b106124745760405162461bcd60e51b815260206004820152602160248201527f4c6f673a4d6f727467616765506f6f6c3a216c69717569646174696f6e4c696e6044820152606560f81b6064820152608401610917565b50505050505050505050565b6001546040516391e1472b60e01b81526001600160a01b03909116906391e1472b906124b39033906000906004016136b8565b60206040518083038186803b1580156124cb57600080fd5b505afa1580156124df573d6000803e3d6000fd5b505050506040513d601f19601f8201168201806040525081019061250391906134bc565b61251f5760405162461bcd60e51b8152600401610917906137b2565b6001600160a01b03909116600090815260046020526040902080546001600160501b03909216600160b01b026001600160b01b03909216919091179055565b6001546040516391e1472b60e01b81526001600160a01b03909116906391e1472b906125919033906000906004016136b8565b60206040518083038186803b1580156125a957600080fd5b505afa1580156125bd573d6000803e3d6000fd5b505050506040513d601f19601f820116820180604052508101906125e191906134bc565b6125fd5760405162461bcd60e51b8152600401610917906137b2565b6001600160a01b03919091166000908152600460205260409020805460ff1916911515919091179055565b6001546001600160a01b0316156126815760405162461bcd60e51b815260206004820152601b60248201527f4c6f673a50617261737365744261736521696e697469616c697a6500000000006044820152606401610917565b600180546001600160a01b0319166001600160a01b039290921691909117905560008055565b6000806126bd6001600160a01b03871643613987565b6126d06001600160501b03851689613968565b6126da9190613968565b905060006126e88587613845565b905060008160036127026001600160a01b038b1643613987565b6127156001600160501b0389168d613968565b61271f9190613968565b6127299190613968565b6127339190613968565b60025490915060009061275990600160a01b90046001600160601b0316620186a0613968565b905061276881620186a0613968565b612773906002613968565b61277d908361385d565b612787828661385d565b6127919190613845565b9a9950505050505050505050565b600354600160a01b90046001600160601b03166127ce5760405162461bcd60e51b815260040161091790613818565b600054156127ee5760405162461bcd60e51b815260040161091790613744565b600160009081556001600160a01b0383168152600460209081526040918290208251608081018452905460ff811615158083526001600160581b03610100830416938301939093526001600160501b03600160601b8204811694830194909452600160b01b900490921660608301526128795760405162461bcd60e51b8152600401610917906137e1565b6001600160a01b038316600090815260056020908152604080832033845290915290206001810154815484158015906128b25750808511155b6128ce5760405162461bcd60e51b81526004016109179061370d565b6002830154600160f81b900460ff166128f95760405162461bcd60e51b81526004016109179061377b565b6000806129068834612cc8565b6040805160a081018252885481526001890154602082015260028901546001600160a01b03811692820192909252600160a01b82046001600160581b0316606080830191909152600160f81b90920460ff16151560808201529089015192945090925061297891849084906000613082565b6129828784613987565b8086556002860180546001600160a01b031916436001600160a01b03161790556129ae90858484611a05565b600286018054600160a01b600160f81b031916600160a01b6001600160581b0393841681029190911791829055875460018901546040516000805160206139db83398151915295612a0a958f958a938a939190920416906136d1565b60405180910390a1602086015160028601546001600160581b03918216600160a01b9091049091161115612a7c5760405162461bcd60e51b81526020600482015260196024820152784c6f673a4d6f727467616765506f6f6c3a216d61785261746560381b6044820152606401610917565b6001600160a01b03881615612a9b57612a96883389612e97565b612aa5565b612aa53388612fb4565b505060008055505050505050565b60006012806001600160a01b03861615612b3e57856001600160a01b031663313ce5676040518163ffffffff1660e01b815260040160206040518083038186803b158015612b0057600080fd5b505afa158015612b14573d6000803e3d6000fd5b505050506040513d601f19601f82011682018060405250810190612b389190613644565b60ff1691505b6001600160a01b03841615612bc457836001600160a01b031663313ce5676040518163ffffffff1660e01b815260040160206040518083038186803b158015612b8657600080fd5b505afa158015612b9a573d6000803e3d6000fd5b505050506040513d601f19601f82011682018060405250810190612bbe9190613644565b60ff1690505b612bcf82600a6138c0565b612bda82600a6138c0565b612be49087613968565b612bee919061385d565b9695505050505050565b6001546040516391e1472b60e01b81526001600160a01b03909116906391e1472b90612c2b9033906000906004016136b8565b60206040518083038186803b158015612c4357600080fd5b505afa158015612c57573d6000803e3d6000fd5b505050506040513d601f19601f82011682018060405250810190612c7b91906134bc565b612c975760405162461bcd60e51b8152600401610917906137b2565b600280546001600160a01b039283166001600160a01b03199182161790915560038054939092169216919091179055565b600654600354604051630da33aa960e01b81526001600160a01b038581166004830152918216602482015233604482015260009283921690630da33aa990859060640160408051808303818588803b158015612d2357600080fd5b505af1158015612d37573d6000803e3d6000fd5b50505050506040513d601f19601f82011682018060405250810190612d5c91906135f0565b909590945092505050565b604080516001600160a01b0385811660248301528481166044830152606480830185905283518084039091018152608490920183526020820180516001600160e01b03166323b872dd60e01b1790529151600092839290881691612dcb919061367f565b6000604051808303816000865af19150503d8060008114612e08576040519150601f19603f3d011682016040523d82523d6000602084013e612e0d565b606091505b5091509150818015612e37575080511580612e37575080806020019051810190612e3791906134bc565b612e8f5760405162461bcd60e51b8152602060048201526024808201527f5472616e7366657248656c7065723a205452414e534645525f46524f4d5f46416044820152631253115160e21b6064820152608401610917565b505050505050565b600080846001600160a01b031663a9059cbb8585604051602401612ebc9291906136b8565b6040516020818303038152906040529060e01b6020820180516001600160e01b038381831617835250505050604051612ef5919061367f565b6000604051808303816000865af19150503d8060008114612f32576040519150601f19603f3d011682016040523d82523d6000602084013e612f37565b606091505b5091509150818015612f61575080511580612f61575080806020019051810190612f6191906134bc565b612fad5760405162461bcd60e51b815260206004820152601f60248201527f5472616e7366657248656c7065723a205452414e534645525f4641494c4544006044820152606401610917565b5050505050565b604080516000808252602082019092526001600160a01b038416908390604051612fde919061367f565b60006040518083038185875af1925050503d806000811461301b576040519150601f19603f3d011682016040523d82523d6000602084013e613020565b606091505b505090508061307d5760405162461bcd60e51b815260206004820152602360248201527f5472616e7366657248656c7065723a204554485f5452414e534645525f46414960448201526213115160ea1b6064820152608401610917565b505050565b60208501518551606087015160408801516001600160581b039091169083158015906130bf5750806001600160a01b0316436001600160a01b0316115b80156130d357506001600160a01b03811615155b156131c95760006130fb8583856130ec888a8f8f611a05565b6001600160581b03168b6126a7565b600254600754919250613126916001600160a01b03918216913391166131218a86613845565b612d67565b600760009054906101000a90046001600160a01b03166001600160a01b031663b7694a936040518163ffffffff1660e01b8152600401600060405180830381600087803b15801561317657600080fd5b505af115801561318a573d6000803e3d6000fd5b505050507fd22f9c8c29c0808be6387686ac52381992fdeea23a23843e31ee581e65304182816040516131bf91815260200190565b60405180910390a1505b505050505050505050565b80356131df816139cc565b919050565b80356131df816139b4565b80356001600160501b03811681146131df57600080fd5b80356001600160581b03811681146131df57600080fd5b80356001600160601b03811681146131df57600080fd5b600060208284031215613245578081fd5b8135613250816139b4565b9392505050565b60008060408385031215613269578081fd5b8235613274816139b4565b91506020830135613284816139b4565b809150509250929050565b600080600080608085870312156132a4578182fd5b84356132af816139b4565b935060208501356132bf816139b4565b93969395505050506040820135916060013590565b600080604083850312156132e6578182fd5b82356132f1816139b4565b91506020830135613284816139cc565b60008060408385031215613313578182fd5b823561331e816139b4565b946020939093013593505050565b600080600060608486031215613340578283fd5b833561334b816139b4565b9250602084013591506040840135613362816139b4565b809150509250925092565b600080600080600060a08688031215613384578081fd5b853561338f816139b4565b945060208601359350604086013592506133ab60608701613206565b915060808601356133bb816139b4565b809150509295509295909350565b6000806000606084860312156133dd578283fd5b83356133e8816139b4565b9250602084013591506133fd60408501613206565b90509250925092565b60008060408385031215613418578182fd5b8235613423816139b4565b9150613431602084016131ef565b90509250929050565b6000806040838503121561344c578182fd5b8235613457816139b4565b915061343160208401613206565b6000806000806080858703121561347a578182fd5b8435613485816139b4565b93506134936020860161321d565b925060408501356134a3816139b4565b91506134b16060860161321d565b905092959194509250565b6000602082840312156134cd578081fd5b8151613250816139cc565b60008060008060008587036101208112156134f1578384fd5b60a08112156134fe578384fd5b5060405160a0810181811067ffffffffffffffff8211171561352e57634e487b7160e01b85526041600452602485fd5b8060405250863581526020870135602082015261354d604088016131e4565b604082015261355e60608801613206565b606082015261356f608088016131d4565b6080820152945060a0860135935060c0860135925061359060e087016131ef565b915061359f61010087016131ef565b90509295509295909350565b600080600080600060a086880312156135c2578283fd5b8535945060208601356135d4816139b4565b9350604086013592506060860135915061359f608087016131ef565b60008060408385031215613602578182fd5b505080516020909101519092909150565b60008060008060808587031215613628578182fd5b5050823594602084013594506040840135936060013592509050565b600060208284031215613655578081fd5b815160ff81168114613250578182fd5b600060208284031215613676578081fd5b6132508261321d565b60008251815b8181101561369f5760208186018101518583015201613685565b818111156136ad5782828501525b509190910192915050565b6001600160a01b03929092168252602082015260400190565b6001600160a01b0396909616865260208601949094526040850192909252606084015260808301526001600160581b031660a082015260c00190565b60208082526018908201527f4c6f673a4d6f727467616765506f6f6c3a21616d6f756e740000000000000000604082015260600190565b60208082526019908201527f4c6f673a5061726173736574426173653a215f6c6f636b656400000000000000604082015260600190565b60208082526019908201527f4c6f673a4d6f727467616765506f6f6c3a216372656174656400000000000000604082015260600190565b6020808252601590820152742637b39d2830b930b9b9b2ba2130b9b29d10b3b7bb60591b604082015260600190565b6020808252601f908201527f4c6f673a4d6f727467616765506f6f6c3a216d6f727467616765416c6c6f7700604082015260600190565b60208082526013908201527204c6f673a4d6f727467616765506f6f6c3a213606c1b604082015260600190565b600082198211156138585761385861399e565b500190565b60008261387857634e487b7160e01b81526012600452602481fd5b500490565b600181815b808511156138b857816000190482111561389e5761389e61399e565b808516156138ab57918102915b93841c9390800290613882565b509250929050565b600061325083836000826138d657506001610872565b816138e357506000610872565b81600181146138f957600281146139035761391f565b6001915050610872565b60ff8411156139145761391461399e565b50506001821b610872565b5060208310610133831016604e8410600b8410161715613942575081810a610872565b61394c838361387d565b80600019048211156139605761396061399e565b029392505050565b60008160001904831182151516156139825761398261399e565b500290565b6000828210156139995761399961399e565b500390565b634e487b7160e01b600052601160045260246000fd5b6001600160a01b03811681146139c957600080fd5b50565b80151581146139c957600080fdfe36b08d1ec8ecd588007d14ea5be9edb9eeb4cdd2f952162d2d32d4b71a0126a2a2646970667358221220f2c7b2df353b78e959908bc5ef412fe66cca0fa72d63f8ddaa07510f9b6da2fa64736f6c63430008040033",
			"opcodes": "PUSH1 0x80 PUSH1 0x40 MSTORE CALLVALUE DUP1 ISZERO PUSH2 0x10 JUMPI PUSH1 0x0 DUP1 REVERT JUMPDEST POP PUSH2 0x3A30 DUP1 PUSH2 0x20 PUSH1 0x0 CODECOPY PUSH1 0x0 RETURN INVALID PUSH1 0x80 PUSH1 0x40 MSTORE PUSH1 0x4 CALLDATASIZE LT PUSH2 0x20F JUMPI PUSH1 0x0 CALLDATALOAD PUSH1 0xE0 SHR DUP1 PUSH4 0x983825DE GT PUSH2 0x118 JUMPI DUP1 PUSH4 0xCC000A1A GT PUSH2 0xA0 JUMPI DUP1 PUSH4 0xF1A4252E GT PUSH2 0x6F JUMPI DUP1 PUSH4 0xF1A4252E EQ PUSH2 0x76E JUMPI DUP1 PUSH4 0xF27AC4D9 EQ PUSH2 0x7A7 JUMPI DUP1 PUSH4 0xF9081591 EQ PUSH2 0x7BA JUMPI DUP1 PUSH4 0xF9633930 EQ PUSH2 0x7DA JUMPI DUP1 PUSH4 0xFB606F92 EQ PUSH2 0x7FF JUMPI PUSH1 0x0 DUP1 REVERT JUMPDEST DUP1 PUSH4 0xCC000A1A EQ PUSH2 0x6F4 JUMPI DUP1 PUSH4 0xD0D5665B EQ PUSH2 0x712 JUMPI DUP1 PUSH4 0xE82C1F44 EQ PUSH2 0x730 JUMPI DUP1 PUSH4 0xEE719BC8 EQ PUSH2 0x750 JUMPI PUSH1 0x0 DUP1 REVERT JUMPDEST DUP1 PUSH4 0xA99C53B3 GT PUSH2 0xE7 JUMPI DUP1 PUSH4 0xA99C53B3 EQ PUSH2 0x630 JUMPI DUP1 PUSH4 0xBD2741C8 EQ PUSH2 0x674 JUMPI DUP1 PUSH4 0xBEEFCBCF EQ PUSH2 0x694 JUMPI DUP1 PUSH4 0xC2862D67 EQ PUSH2 0x6B4 JUMPI DUP1 PUSH4 0xC4D66DE8 EQ PUSH2 0x6D4 JUMPI PUSH1 0x0 DUP1 REVERT JUMPDEST DUP1 PUSH4 0x983825DE EQ PUSH2 0x5B1 JUMPI DUP1 PUSH4 0xA240B9A8 EQ PUSH2 0x5C4 JUMPI DUP1 PUSH4 0xA831407F EQ PUSH2 0x5D7 JUMPI DUP1 PUSH4 0xA94C487E EQ PUSH2 0x610 JUMPI PUSH1 0x0 DUP1 REVERT JUMPDEST DUP1 PUSH4 0x3376CB37 GT PUSH2 0x19B JUMPI DUP1 PUSH4 0x5E0EC98F GT PUSH2 0x16A JUMPI DUP1 PUSH4 0x5E0EC98F EQ PUSH2 0x4A8 JUMPI DUP1 PUSH4 0x78A35320 EQ PUSH2 0x4C8 JUMPI DUP1 PUSH4 0x7FF4D02F EQ PUSH2 0x4DB JUMPI DUP1 PUSH4 0x800C2B39 EQ PUSH2 0x513 JUMPI DUP1 PUSH4 0x90F5CB09 EQ PUSH2 0x553 JUMPI PUSH1 0x0 DUP1 REVERT JUMPDEST DUP1 PUSH4 0x3376CB37 EQ PUSH2 0x437 JUMPI DUP1 PUSH4 0x3A97BB25 EQ PUSH2 0x457 JUMPI DUP1 PUSH4 0x3CF045A4 EQ PUSH2 0x46A JUMPI DUP1 PUSH4 0x3F849820 EQ PUSH2 0x488 JUMPI PUSH1 0x0 DUP1 REVERT JUMPDEST DUP1 PUSH4 0x1E0F6725 GT PUSH2 0x1E2 JUMPI DUP1 PUSH4 0x1E0F6725 EQ PUSH2 0x2B3 JUMPI DUP1 PUSH4 0x219F7753 EQ PUSH2 0x307 JUMPI DUP1 PUSH4 0x25404C4F EQ PUSH2 0x31A JUMPI DUP1 PUSH4 0x28107ACF EQ PUSH2 0x3F7 JUMPI DUP1 PUSH4 0x306ACEDA EQ PUSH2 0x417 JUMPI PUSH1 0x0 DUP1 REVERT JUMPDEST DUP1 PUSH4 0x3000AA4 EQ PUSH2 0x214 JUMPI DUP1 PUSH4 0xDAA6D11 EQ PUSH2 0x251 JUMPI DUP1 PUSH4 0x1C1B8772 EQ PUSH2 0x273 JUMPI DUP1 PUSH4 0x1C2F3E3D EQ PUSH2 0x293 JUMPI JUMPDEST PUSH1 0x0 DUP1 REVERT JUMPDEST CALLVALUE DUP1 ISZERO PUSH2 0x220 JUMPI PUSH1 0x0 DUP1 REVERT JUMPDEST POP PUSH2 0x234 PUSH2 0x22F CALLDATASIZE PUSH1 0x4 PUSH2 0x3301 JUMP JUMPDEST PUSH2 0x81F JUMP JUMPDEST PUSH1 0x40 MLOAD PUSH1 0x1 PUSH1 0x1 PUSH1 0xA0 SHL SUB SWAP1 SWAP2 AND DUP2 MSTORE PUSH1 0x20 ADD JUMPDEST PUSH1 0x40 MLOAD DUP1 SWAP2 SUB SWAP1 RETURN JUMPDEST CALLVALUE DUP1 ISZERO PUSH2 0x25D JUMPI PUSH1 0x0 DUP1 REVERT JUMPDEST POP PUSH2 0x271 PUSH2 0x26C CALLDATASIZE PUSH1 0x4 PUSH2 0x3465 JUMP JUMPDEST PUSH2 0x878 JUMP JUMPDEST STOP JUMPDEST CALLVALUE DUP1 ISZERO PUSH2 0x27F JUMPI PUSH1 0x0 DUP1 REVERT JUMPDEST POP PUSH2 0x271 PUSH2 0x28E CALLDATASIZE PUSH1 0x4 PUSH2 0x3234 JUMP JUMPDEST PUSH2 0x94F JUMP JUMPDEST CALLVALUE DUP1 ISZERO PUSH2 0x29F JUMPI PUSH1 0x0 DUP1 REVERT JUMPDEST POP PUSH1 0x1 SLOAD PUSH2 0x234 SWAP1 PUSH1 0x1 PUSH1 0x1 PUSH1 0xA0 SHL SUB AND DUP2 JUMP JUMPDEST CALLVALUE DUP1 ISZERO PUSH2 0x2BF JUMPI PUSH1 0x0 DUP1 REVERT JUMPDEST POP PUSH2 0x2F9 PUSH2 0x2CE CALLDATASIZE PUSH1 0x4 PUSH2 0x3234 JUMP JUMPDEST PUSH1 0x1 PUSH1 0x1 PUSH1 0xA0 SHL SUB AND PUSH1 0x0 SWAP1 DUP2 MSTORE PUSH1 0x4 PUSH1 0x20 MSTORE PUSH1 0x40 SWAP1 KECCAK256 SLOAD PUSH1 0x1 PUSH1 0x60 SHL SWAP1 DIV PUSH1 0x1 PUSH1 0x1 PUSH1 0x50 SHL SUB AND SWAP1 JUMP JUMPDEST PUSH1 0x40 MLOAD SWAP1 DUP2 MSTORE PUSH1 0x20 ADD PUSH2 0x248 JUMP JUMPDEST PUSH2 0x271 PUSH2 0x315 CALLDATASIZE PUSH1 0x4 PUSH2 0x328F JUMP JUMPDEST PUSH2 0xA22 JUMP JUMPDEST CALLVALUE DUP1 ISZERO PUSH2 0x326 JUMPI PUSH1 0x0 DUP1 REVERT JUMPDEST POP PUSH2 0x3B7 PUSH2 0x335 CALLDATASIZE PUSH1 0x4 PUSH2 0x3257 JUMP JUMPDEST PUSH1 0x1 PUSH1 0x1 PUSH1 0xA0 SHL SUB SWAP2 DUP3 AND PUSH1 0x0 SWAP1 DUP2 MSTORE PUSH1 0x5 PUSH1 0x20 SWAP1 DUP2 MSTORE PUSH1 0x40 DUP1 DUP4 KECCAK256 SWAP4 DUP6 AND DUP4 MSTORE SWAP3 DUP2 MSTORE SWAP1 DUP3 SWAP1 KECCAK256 DUP3 MLOAD PUSH1 0xA0 DUP2 ADD DUP5 MSTORE DUP2 SLOAD DUP1 DUP3 MSTORE PUSH1 0x1 DUP4 ADD SLOAD SWAP4 DUP3 ADD DUP5 SWAP1 MSTORE PUSH1 0x2 SWAP1 SWAP3 ADD SLOAD SWAP5 DUP6 AND SWAP4 DUP2 ADD DUP5 SWAP1 MSTORE PUSH1 0x1 PUSH1 0xA0 SHL DUP6 DIV PUSH1 0x1 PUSH1 0x1 PUSH1 0x58 SHL SUB AND PUSH1 0x60 DUP3 ADD DUP2 SWAP1 MSTORE PUSH1 0x1 PUSH1 0xF8 SHL SWAP1 SWAP6 DIV PUSH1 0xFF AND ISZERO ISZERO PUSH1 0x80 SWAP1 SWAP2 ADD DUP2 SWAP1 MSTORE SWAP1 SWAP5 SWAP2 SWAP4 SWAP2 JUMP JUMPDEST PUSH1 0x40 DUP1 MLOAD SWAP6 DUP7 MSTORE PUSH1 0x20 DUP7 ADD SWAP5 SWAP1 SWAP5 MSTORE PUSH1 0x1 PUSH1 0x1 PUSH1 0xA0 SHL SUB SWAP1 SWAP3 AND SWAP3 DUP5 ADD SWAP3 SWAP1 SWAP3 MSTORE PUSH1 0x1 PUSH1 0x1 PUSH1 0x58 SHL SUB SWAP1 SWAP2 AND PUSH1 0x60 DUP4 ADD MSTORE ISZERO ISZERO PUSH1 0x80 DUP3 ADD MSTORE PUSH1 0xA0 ADD PUSH2 0x248 JUMP JUMPDEST CALLVALUE DUP1 ISZERO PUSH2 0x403 JUMPI PUSH1 0x0 DUP1 REVERT JUMPDEST POP PUSH2 0x271 PUSH2 0x412 CALLDATASIZE PUSH1 0x4 PUSH2 0x3406 JUMP JUMPDEST PUSH2 0xE4D JUMP JUMPDEST CALLVALUE DUP1 ISZERO PUSH2 0x423 JUMPI PUSH1 0x0 DUP1 REVERT JUMPDEST POP PUSH2 0x271 PUSH2 0x432 CALLDATASIZE PUSH1 0x4 PUSH2 0x3665 JUMP JUMPDEST PUSH2 0xF32 JUMP JUMPDEST CALLVALUE DUP1 ISZERO PUSH2 0x443 JUMPI PUSH1 0x0 DUP1 REVERT JUMPDEST POP PUSH2 0x271 PUSH2 0x452 CALLDATASIZE PUSH1 0x4 PUSH2 0x3665 JUMP JUMPDEST PUSH2 0xFF9 JUMP JUMPDEST PUSH2 0x271 PUSH2 0x465 CALLDATASIZE PUSH1 0x4 PUSH2 0x33C9 JUMP JUMPDEST PUSH2 0x10C0 JUMP JUMPDEST CALLVALUE DUP1 ISZERO PUSH2 0x476 JUMPI PUSH1 0x0 DUP1 REVERT JUMPDEST POP PUSH1 0x6 SLOAD PUSH1 0x1 PUSH1 0x1 PUSH1 0xA0 SHL SUB AND PUSH2 0x234 JUMP JUMPDEST CALLVALUE DUP1 ISZERO PUSH2 0x494 JUMPI PUSH1 0x0 DUP1 REVERT JUMPDEST POP PUSH2 0x271 PUSH2 0x4A3 CALLDATASIZE PUSH1 0x4 PUSH2 0x3234 JUMP JUMPDEST PUSH2 0x1591 JUMP JUMPDEST CALLVALUE DUP1 ISZERO PUSH2 0x4B4 JUMPI PUSH1 0x0 DUP1 REVERT JUMPDEST POP PUSH2 0x271 PUSH2 0x4C3 CALLDATASIZE PUSH1 0x4 PUSH2 0x343A JUMP JUMPDEST PUSH2 0x1652 JUMP JUMPDEST PUSH2 0x271 PUSH2 0x4D6 CALLDATASIZE PUSH1 0x4 PUSH2 0x3301 JUMP JUMPDEST PUSH2 0x1734 JUMP JUMPDEST CALLVALUE DUP1 ISZERO PUSH2 0x4E7 JUMPI PUSH1 0x0 DUP1 REVERT JUMPDEST POP PUSH2 0x4FB PUSH2 0x4F6 CALLDATASIZE PUSH1 0x4 PUSH2 0x3613 JUMP JUMPDEST PUSH2 0x1A05 JUMP JUMPDEST PUSH1 0x40 MLOAD PUSH1 0x1 PUSH1 0x1 PUSH1 0x58 SHL SUB SWAP1 SWAP2 AND DUP2 MSTORE PUSH1 0x20 ADD PUSH2 0x248 JUMP JUMPDEST CALLVALUE DUP1 ISZERO PUSH2 0x51F JUMPI PUSH1 0x0 DUP1 REVERT JUMPDEST POP PUSH2 0x533 PUSH2 0x52E CALLDATASIZE PUSH1 0x4 PUSH2 0x336D JUMP JUMPDEST PUSH2 0x1A55 JUMP JUMPDEST PUSH1 0x40 DUP1 MLOAD SWAP5 DUP6 MSTORE PUSH1 0x20 DUP6 ADD SWAP4 SWAP1 SWAP4 MSTORE SWAP2 DUP4 ADD MSTORE PUSH1 0x60 DUP3 ADD MSTORE PUSH1 0x80 ADD PUSH2 0x248 JUMP JUMPDEST CALLVALUE DUP1 ISZERO PUSH2 0x55F JUMPI PUSH1 0x0 DUP1 REVERT JUMPDEST POP PUSH2 0x599 PUSH2 0x56E CALLDATASIZE PUSH1 0x4 PUSH2 0x3234 JUMP JUMPDEST PUSH1 0x1 PUSH1 0x1 PUSH1 0xA0 SHL SUB AND PUSH1 0x0 SWAP1 DUP2 MSTORE PUSH1 0x4 PUSH1 0x20 MSTORE PUSH1 0x40 SWAP1 KECCAK256 SLOAD PUSH1 0x1 PUSH1 0xB0 SHL SWAP1 DIV PUSH1 0x1 PUSH1 0x1 PUSH1 0x50 SHL SUB AND SWAP1 JUMP JUMPDEST PUSH1 0x40 MLOAD PUSH1 0x1 PUSH1 0x1 PUSH1 0x50 SHL SUB SWAP1 SWAP2 AND DUP2 MSTORE PUSH1 0x20 ADD PUSH2 0x248 JUMP JUMPDEST PUSH2 0x271 PUSH2 0x5BF CALLDATASIZE PUSH1 0x4 PUSH2 0x3301 JUMP JUMPDEST PUSH2 0x1C65 JUMP JUMPDEST PUSH2 0x271 PUSH2 0x5D2 CALLDATASIZE PUSH1 0x4 PUSH2 0x3301 JUMP JUMPDEST PUSH2 0x1FA2 JUMP JUMPDEST CALLVALUE DUP1 ISZERO PUSH2 0x5E3 JUMPI PUSH1 0x0 DUP1 REVERT JUMPDEST POP PUSH2 0x2F9 PUSH2 0x5F2 CALLDATASIZE PUSH1 0x4 PUSH2 0x3234 JUMP JUMPDEST PUSH1 0x1 PUSH1 0x1 PUSH1 0xA0 SHL SUB AND PUSH1 0x0 SWAP1 DUP2 MSTORE PUSH1 0x5 PUSH1 0x20 MSTORE PUSH1 0x40 SWAP1 KECCAK256 PUSH1 0x1 ADD SLOAD SWAP1 JUMP JUMPDEST CALLVALUE DUP1 ISZERO PUSH2 0x61C JUMPI PUSH1 0x0 DUP1 REVERT JUMPDEST POP PUSH2 0x271 PUSH2 0x62B CALLDATASIZE PUSH1 0x4 PUSH2 0x3234 JUMP JUMPDEST PUSH2 0x229C JUMP JUMPDEST CALLVALUE DUP1 ISZERO PUSH2 0x63C JUMPI PUSH1 0x0 DUP1 REVERT JUMPDEST POP PUSH2 0x4FB PUSH2 0x64B CALLDATASIZE PUSH1 0x4 PUSH2 0x3234 JUMP JUMPDEST PUSH1 0x1 PUSH1 0x1 PUSH1 0xA0 SHL SUB AND PUSH1 0x0 SWAP1 DUP2 MSTORE PUSH1 0x4 PUSH1 0x20 MSTORE PUSH1 0x40 SWAP1 KECCAK256 SLOAD PUSH2 0x100 SWAP1 DIV PUSH1 0x1 PUSH1 0x1 PUSH1 0x58 SHL SUB AND SWAP1 JUMP JUMPDEST CALLVALUE DUP1 ISZERO PUSH2 0x680 JUMPI PUSH1 0x0 DUP1 REVERT JUMPDEST POP PUSH2 0x271 PUSH2 0x68F CALLDATASIZE PUSH1 0x4 PUSH2 0x34D8 JUMP JUMPDEST PUSH2 0x235D JUMP JUMPDEST CALLVALUE DUP1 ISZERO PUSH2 0x6A0 JUMPI PUSH1 0x0 DUP1 REVERT JUMPDEST POP PUSH2 0x271 PUSH2 0x6AF CALLDATASIZE PUSH1 0x4 PUSH2 0x3406 JUMP JUMPDEST PUSH2 0x2480 JUMP JUMPDEST CALLVALUE DUP1 ISZERO PUSH2 0x6C0 JUMPI PUSH1 0x0 DUP1 REVERT JUMPDEST POP PUSH2 0x271 PUSH2 0x6CF CALLDATASIZE PUSH1 0x4 PUSH2 0x32D4 JUMP JUMPDEST PUSH2 0x255E JUMP JUMPDEST CALLVALUE DUP1 ISZERO PUSH2 0x6E0 JUMPI PUSH1 0x0 DUP1 REVERT JUMPDEST POP PUSH2 0x271 PUSH2 0x6EF CALLDATASIZE PUSH1 0x4 PUSH2 0x3234 JUMP JUMPDEST PUSH2 0x2628 JUMP JUMPDEST CALLVALUE DUP1 ISZERO PUSH2 0x700 JUMPI PUSH1 0x0 DUP1 REVERT JUMPDEST POP PUSH1 0x2 SLOAD PUSH1 0x1 PUSH1 0x1 PUSH1 0xA0 SHL SUB AND PUSH2 0x234 JUMP JUMPDEST CALLVALUE DUP1 ISZERO PUSH2 0x71E JUMPI PUSH1 0x0 DUP1 REVERT JUMPDEST POP PUSH1 0x7 SLOAD PUSH1 0x1 PUSH1 0x1 PUSH1 0xA0 SHL SUB AND PUSH2 0x234 JUMP JUMPDEST CALLVALUE DUP1 ISZERO PUSH2 0x73C JUMPI PUSH1 0x0 DUP1 REVERT JUMPDEST POP PUSH2 0x2F9 PUSH2 0x74B CALLDATASIZE PUSH1 0x4 PUSH2 0x35AB JUMP JUMPDEST PUSH2 0x26A7 JUMP JUMPDEST CALLVALUE DUP1 ISZERO PUSH2 0x75C JUMPI PUSH1 0x0 DUP1 REVERT JUMPDEST POP PUSH1 0x3 SLOAD PUSH1 0x1 PUSH1 0x1 PUSH1 0xA0 SHL SUB AND PUSH2 0x234 JUMP JUMPDEST CALLVALUE DUP1 ISZERO PUSH2 0x77A JUMPI PUSH1 0x0 DUP1 REVERT JUMPDEST POP PUSH1 0x2 SLOAD PUSH1 0x1 PUSH1 0xA0 SHL SWAP1 DIV PUSH1 0x1 PUSH1 0x1 PUSH1 0x60 SHL SUB AND JUMPDEST PUSH1 0x40 MLOAD PUSH1 0x1 PUSH1 0x1 PUSH1 0x60 SHL SUB SWAP1 SWAP2 AND DUP2 MSTORE PUSH1 0x20 ADD PUSH2 0x248 JUMP JUMPDEST PUSH2 0x271 PUSH2 0x7B5 CALLDATASIZE PUSH1 0x4 PUSH2 0x3301 JUMP JUMPDEST PUSH2 0x279F JUMP JUMPDEST CALLVALUE DUP1 ISZERO PUSH2 0x7C6 JUMPI PUSH1 0x0 DUP1 REVERT JUMPDEST POP PUSH2 0x2F9 PUSH2 0x7D5 CALLDATASIZE PUSH1 0x4 PUSH2 0x332C JUMP JUMPDEST PUSH2 0x2AB3 JUMP JUMPDEST CALLVALUE DUP1 ISZERO PUSH2 0x7E6 JUMPI PUSH1 0x0 DUP1 REVERT JUMPDEST POP PUSH1 0x3 SLOAD PUSH1 0x1 PUSH1 0xA0 SHL SWAP1 DIV PUSH1 0x1 PUSH1 0x1 PUSH1 0x60 SHL SUB AND PUSH2 0x78F JUMP JUMPDEST CALLVALUE DUP1 ISZERO PUSH2 0x80B JUMPI PUSH1 0x0 DUP1 REVERT JUMPDEST POP PUSH2 0x271 PUSH2 0x81A CALLDATASIZE PUSH1 0x4 PUSH2 0x3257 JUMP JUMPDEST PUSH2 0x2BF8 JUMP JUMPDEST PUSH1 0x1 PUSH1 0x1 PUSH1 0xA0 SHL SUB DUP3 AND PUSH1 0x0 SWAP1 DUP2 MSTORE PUSH1 0x5 PUSH1 0x20 MSTORE PUSH1 0x40 DUP2 KECCAK256 PUSH1 0x1 ADD DUP1 SLOAD DUP4 SWAP1 DUP2 LT PUSH2 0x85A JUMPI PUSH4 0x4E487B71 PUSH1 0xE0 SHL PUSH1 0x0 MSTORE PUSH1 0x32 PUSH1 0x4 MSTORE PUSH1 0x24 PUSH1 0x0 REVERT JUMPDEST PUSH1 0x0 SWAP2 DUP3 MSTORE PUSH1 0x20 SWAP1 SWAP2 KECCAK256 ADD SLOAD PUSH1 0x1 PUSH1 0x1 PUSH1 0xA0 SHL SUB AND SWAP1 POP JUMPDEST SWAP3 SWAP2 POP POP JUMP JUMPDEST PUSH1 0x1 SLOAD PUSH1 0x40 MLOAD PUSH4 0x91E1472B PUSH1 0xE0 SHL DUP2 MSTORE PUSH1 0x1 PUSH1 0x1 PUSH1 0xA0 SHL SUB SWAP1 SWAP2 AND SWAP1 PUSH4 0x91E1472B SWAP1 PUSH2 0x8AB SWAP1 CALLER SWAP1 PUSH1 0x0 SWAP1 PUSH1 0x4 ADD PUSH2 0x36B8 JUMP JUMPDEST PUSH1 0x20 PUSH1 0x40 MLOAD DUP1 DUP4 SUB DUP2 DUP7 DUP1 EXTCODESIZE ISZERO DUP1 ISZERO PUSH2 0x8C3 JUMPI PUSH1 0x0 DUP1 REVERT JUMPDEST POP GAS STATICCALL ISZERO DUP1 ISZERO PUSH2 0x8D7 JUMPI RETURNDATASIZE PUSH1 0x0 DUP1 RETURNDATACOPY RETURNDATASIZE PUSH1 0x0 REVERT JUMPDEST POP POP POP POP PUSH1 0x40 MLOAD RETURNDATASIZE PUSH1 0x1F NOT PUSH1 0x1F DUP3 ADD AND DUP3 ADD DUP1 PUSH1 0x40 MSTORE POP DUP2 ADD SWAP1 PUSH2 0x8FB SWAP2 SWAP1 PUSH2 0x34BC JUMP JUMPDEST PUSH2 0x920 JUMPI PUSH1 0x40 MLOAD PUSH3 0x461BCD PUSH1 0xE5 SHL DUP2 MSTORE PUSH1 0x4 ADD PUSH2 0x917 SWAP1 PUSH2 0x37B2 JUMP JUMPDEST PUSH1 0x40 MLOAD DUP1 SWAP2 SUB SWAP1 REVERT JUMPDEST PUSH1 0x1 PUSH1 0x1 PUSH1 0x60 SHL SUB SWAP3 DUP4 AND PUSH1 0x1 PUSH1 0xA0 SHL SWAP1 DUP2 MUL PUSH1 0x1 PUSH1 0x1 PUSH1 0xA0 SHL SUB SWAP6 DUP7 AND OR PUSH1 0x2 SSTORE SWAP3 AND SWAP1 SWAP2 MUL SWAP2 AND OR PUSH1 0x3 SSTORE JUMP JUMPDEST PUSH1 0x1 SLOAD PUSH1 0x1 PUSH1 0x1 PUSH1 0xA0 SHL SUB AND CALLER DUP2 EQ DUP1 PUSH2 0x9E3 JUMPI POP PUSH1 0x40 MLOAD PUSH4 0x91E1472B PUSH1 0xE0 SHL DUP2 MSTORE PUSH1 0x1 PUSH1 0x1 PUSH1 0xA0 SHL SUB DUP3 AND SWAP1 PUSH4 0x91E1472B SWAP1 PUSH2 0x993 SWAP1 CALLER SWAP1 PUSH1 0x0 SWAP1 PUSH1 0x4 ADD PUSH2 0x36B8 JUMP JUMPDEST PUSH1 0x20 PUSH1 0x40 MLOAD DUP1 DUP4 SUB DUP2 DUP7 DUP1 EXTCODESIZE ISZERO DUP1 ISZERO PUSH2 0x9AB JUMPI PUSH1 0x0 DUP1 REVERT JUMPDEST POP GAS STATICCALL ISZERO DUP1 ISZERO PUSH2 0x9BF JUMPI RETURNDATASIZE PUSH1 0x0 DUP1 RETURNDATACOPY RETURNDATASIZE PUSH1 0x0 REVERT JUMPDEST POP POP POP POP PUSH1 0x40 MLOAD RETURNDATASIZE PUSH1 0x1F NOT PUSH1 0x1F DUP3 ADD AND DUP3 ADD DUP1 PUSH1 0x40 MSTORE POP DUP2 ADD SWAP1 PUSH2 0x9E3 SWAP2 SWAP1 PUSH2 0x34BC JUMP JUMPDEST PUSH2 0x9FF JUMPI PUSH1 0x40 MLOAD PUSH3 0x461BCD PUSH1 0xE5 SHL DUP2 MSTORE PUSH1 0x4 ADD PUSH2 0x917 SWAP1 PUSH2 0x37B2 JUMP JUMPDEST POP PUSH1 0x1 DUP1 SLOAD PUSH1 0x1 PUSH1 0x1 PUSH1 0xA0 SHL SUB NOT AND PUSH1 0x1 PUSH1 0x1 PUSH1 0xA0 SHL SUB SWAP3 SWAP1 SWAP3 AND SWAP2 SWAP1 SWAP2 OR SWAP1 SSTORE JUMP JUMPDEST PUSH1 0x3 SLOAD PUSH1 0x1 PUSH1 0xA0 SHL SWAP1 DIV PUSH1 0x1 PUSH1 0x1 PUSH1 0x60 SHL SUB AND PUSH2 0xA51 JUMPI PUSH1 0x40 MLOAD PUSH3 0x461BCD PUSH1 0xE5 SHL DUP2 MSTORE PUSH1 0x4 ADD PUSH2 0x917 SWAP1 PUSH2 0x3818 JUMP JUMPDEST PUSH1 0x0 SLOAD ISZERO PUSH2 0xA71 JUMPI PUSH1 0x40 MLOAD PUSH3 0x461BCD PUSH1 0xE5 SHL DUP2 MSTORE PUSH1 0x4 ADD PUSH2 0x917 SWAP1 PUSH2 0x3744 JUMP JUMPDEST PUSH1 0x1 PUSH1 0x0 SWAP1 DUP2 SSTORE PUSH1 0x1 PUSH1 0x1 PUSH1 0xA0 SHL SUB DUP6 AND DUP2 MSTORE PUSH1 0x4 PUSH1 0x20 SWAP1 DUP2 MSTORE PUSH1 0x40 SWAP2 DUP3 SWAP1 KECCAK256 DUP3 MLOAD PUSH1 0x80 DUP2 ADD DUP5 MSTORE SWAP1 SLOAD PUSH1 0xFF DUP2 AND ISZERO ISZERO DUP1 DUP4 MSTORE PUSH1 0x1 PUSH1 0x1 PUSH1 0x58 SHL SUB PUSH2 0x100 DUP4 DIV AND SWAP4 DUP4 ADD SWAP4 SWAP1 SWAP4 MSTORE PUSH1 0x1 PUSH1 0x1 PUSH1 0x50 SHL SUB PUSH1 0x1 PUSH1 0x60 SHL DUP3 DIV DUP2 AND SWAP5 DUP4 ADD SWAP5 SWAP1 SWAP5 MSTORE PUSH1 0x1 PUSH1 0xB0 SHL SWAP1 DIV SWAP1 SWAP3 AND PUSH1 0x60 DUP4 ADD MSTORE PUSH2 0xAFC JUMPI PUSH1 0x40 MLOAD PUSH3 0x461BCD PUSH1 0xE5 SHL DUP2 MSTORE PUSH1 0x4 ADD PUSH2 0x917 SWAP1 PUSH2 0x37E1 JUMP JUMPDEST PUSH1 0x1 PUSH1 0x1 PUSH1 0xA0 SHL SUB DUP6 DUP2 AND PUSH1 0x0 SWAP1 DUP2 MSTORE PUSH1 0x5 PUSH1 0x20 SWAP1 DUP2 MSTORE PUSH1 0x40 DUP1 DUP4 KECCAK256 SWAP4 DUP9 AND DUP4 MSTORE SWAP3 SWAP1 MSTORE KECCAK256 PUSH1 0x2 DUP2 ADD SLOAD PUSH1 0x1 PUSH1 0xF8 SHL SWAP1 DIV PUSH1 0xFF AND PUSH2 0xB4C JUMPI PUSH1 0x40 MLOAD PUSH3 0x461BCD PUSH1 0xE5 SHL DUP2 MSTORE PUSH1 0x4 ADD PUSH2 0x917 SWAP1 PUSH2 0x377B JUMP JUMPDEST PUSH1 0x1 DUP2 ADD SLOAD DUP2 SLOAD DUP6 ISZERO DUP1 ISZERO SWAP1 PUSH2 0xB62 JUMPI POP DUP1 DUP7 GT ISZERO JUMPDEST PUSH2 0xB7E JUMPI PUSH1 0x40 MLOAD PUSH3 0x461BCD PUSH1 0xE5 SHL DUP2 MSTORE PUSH1 0x4 ADD PUSH2 0x917 SWAP1 PUSH2 0x370D JUMP JUMPDEST PUSH1 0x0 DUP1 PUSH2 0xB8B DUP11 CALLVALUE PUSH2 0x2CC8 JUMP JUMPDEST PUSH1 0x40 DUP1 MLOAD PUSH1 0xA0 DUP2 ADD DUP3 MSTORE DUP9 SLOAD DUP2 MSTORE PUSH1 0x1 DUP10 ADD SLOAD PUSH1 0x20 DUP3 ADD MSTORE PUSH1 0x2 DUP10 ADD SLOAD PUSH1 0x1 PUSH1 0x1 PUSH1 0xA0 SHL SUB DUP2 AND DUP3 DUP5 ADD MSTORE PUSH1 0x1 PUSH1 0xA0 SHL DUP2 DIV PUSH1 0x1 PUSH1 0x1 PUSH1 0x58 SHL SUB AND PUSH1 0x60 DUP1 DUP5 ADD SWAP2 SWAP1 SWAP2 MSTORE PUSH1 0x1 PUSH1 0xF8 SHL SWAP1 SWAP2 DIV PUSH1 0xFF AND ISZERO ISZERO PUSH1 0x80 DUP4 ADD MSTORE SWAP2 DUP11 ADD MLOAD SWAP2 DUP11 ADD MLOAD SWAP4 SWAP6 POP SWAP2 SWAP4 POP PUSH2 0xBFC SWAP3 DUP6 SWAP2 DUP6 SWAP2 PUSH2 0x235D JUMP JUMPDEST PUSH1 0x0 PUSH2 0xC09 DUP4 PUSH1 0x64 PUSH2 0x3968 JUMP JUMPDEST PUSH2 0xC13 DUP4 DUP12 PUSH2 0x3968 JUMP JUMPDEST PUSH2 0xC1E SWAP1 PUSH1 0x5A PUSH2 0x3968 JUMP JUMPDEST PUSH2 0xC28 SWAP2 SWAP1 PUSH2 0x385D JUMP JUMPDEST SWAP1 POP DUP8 DUP2 GT ISZERO PUSH2 0xC86 JUMPI PUSH1 0x40 MLOAD PUSH3 0x461BCD PUSH1 0xE5 SHL DUP2 MSTORE PUSH1 0x20 PUSH1 0x4 DUP3 ADD MSTORE PUSH1 0x23 PUSH1 0x24 DUP3 ADD MSTORE PUSH32 0x4C6F673A4D6F727467616765506F6F6C3A2170546F6B656E416D6F756E744C69 PUSH1 0x44 DUP3 ADD MSTORE PUSH3 0x1B5A5D PUSH1 0xEA SHL PUSH1 0x64 DUP3 ADD MSTORE PUSH1 0x84 ADD PUSH2 0x917 JUMP JUMPDEST PUSH1 0x2 SLOAD PUSH1 0x7 SLOAD PUSH2 0xCA5 SWAP2 PUSH1 0x1 PUSH1 0x1 PUSH1 0xA0 SHL SUB SWAP1 DUP2 AND SWAP2 CALLER SWAP2 AND DUP5 PUSH2 0x2D67 JUMP JUMPDEST PUSH1 0x7 PUSH1 0x0 SWAP1 SLOAD SWAP1 PUSH2 0x100 EXP SWAP1 DIV PUSH1 0x1 PUSH1 0x1 PUSH1 0xA0 SHL SUB AND PUSH1 0x1 PUSH1 0x1 PUSH1 0xA0 SHL SUB AND PUSH4 0xB7694A93 PUSH1 0x40 MLOAD DUP2 PUSH4 0xFFFFFFFF AND PUSH1 0xE0 SHL DUP2 MSTORE PUSH1 0x4 ADD PUSH1 0x0 PUSH1 0x40 MLOAD DUP1 DUP4 SUB DUP2 PUSH1 0x0 DUP8 DUP1 EXTCODESIZE ISZERO DUP1 ISZERO PUSH2 0xCF5 JUMPI PUSH1 0x0 DUP1 REVERT JUMPDEST POP GAS CALL ISZERO DUP1 ISZERO PUSH2 0xD09 JUMPI RETURNDATASIZE PUSH1 0x0 DUP1 RETURNDATACOPY RETURNDATASIZE PUSH1 0x0 REVERT JUMPDEST POP POP POP POP PUSH1 0x0 DUP5 DUP11 DUP8 PUSH2 0xD1C SWAP2 SWAP1 PUSH2 0x3968 JUMP JUMPDEST PUSH2 0xD26 SWAP2 SWAP1 PUSH2 0x385D JUMP JUMPDEST PUSH1 0x7 SLOAD PUSH1 0x40 MLOAD PUSH3 0x45B14B PUSH1 0xE7 SHL DUP2 MSTORE PUSH1 0x4 DUP2 ADD DUP4 SWAP1 MSTORE SWAP2 SWAP3 POP PUSH1 0x1 PUSH1 0x1 PUSH1 0xA0 SHL SUB AND SWAP1 PUSH4 0x22D8A580 SWAP1 PUSH1 0x24 ADD PUSH1 0x0 PUSH1 0x40 MLOAD DUP1 DUP4 SUB DUP2 PUSH1 0x0 DUP8 DUP1 EXTCODESIZE ISZERO DUP1 ISZERO PUSH2 0xD6C JUMPI PUSH1 0x0 DUP1 REVERT JUMPDEST POP GAS CALL ISZERO DUP1 ISZERO PUSH2 0xD80 JUMPI RETURNDATASIZE PUSH1 0x0 DUP1 RETURNDATACOPY RETURNDATASIZE PUSH1 0x0 REVERT JUMPDEST POP POP POP POP DUP10 DUP6 PUSH2 0xD90 SWAP2 SWAP1 PUSH2 0x3987 JUMP JUMPDEST DUP8 SSTORE PUSH2 0xD9C DUP2 DUP8 PUSH2 0x3987 JUMP JUMPDEST DUP8 PUSH1 0x1 ADD DUP2 SWAP1 SSTORE POP PUSH1 0x0 DUP1 MLOAD PUSH1 0x20 PUSH2 0x39DB DUP4 CODECOPY DUP2 MLOAD SWAP2 MSTORE DUP13 DUP9 PUSH1 0x0 ADD SLOAD DUP10 PUSH1 0x1 ADD SLOAD DUP8 DUP8 DUP13 PUSH1 0x2 ADD PUSH1 0x14 SWAP1 SLOAD SWAP1 PUSH2 0x100 EXP SWAP1 DIV PUSH1 0x1 PUSH1 0x1 PUSH1 0x58 SHL SUB AND PUSH1 0x40 MLOAD PUSH2 0xDEA SWAP7 SWAP6 SWAP5 SWAP4 SWAP3 SWAP2 SWAP1 PUSH2 0x36D1 JUMP JUMPDEST PUSH1 0x40 MLOAD DUP1 SWAP2 SUB SWAP1 LOG1 DUP7 SLOAD PUSH2 0xE12 JUMPI PUSH1 0x0 PUSH1 0x1 DUP9 ADD SSTORE PUSH1 0x2 DUP8 ADD DUP1 SLOAD PUSH1 0x1 PUSH1 0x1 PUSH1 0xF8 SHL SUB NOT AND SWAP1 SSTORE JUMPDEST PUSH1 0x1 PUSH1 0x1 PUSH1 0xA0 SHL SUB DUP13 AND ISZERO PUSH2 0xE31 JUMPI PUSH2 0xE2C DUP13 CALLER DUP13 PUSH2 0x2E97 JUMP JUMPDEST PUSH2 0xE3B JUMP JUMPDEST PUSH2 0xE3B CALLER DUP12 PUSH2 0x2FB4 JUMP JUMPDEST POP POP PUSH1 0x0 DUP1 SSTORE POP POP POP POP POP POP POP POP POP POP JUMP JUMPDEST PUSH1 0x1 SLOAD PUSH1 0x40 MLOAD PUSH4 0x91E1472B PUSH1 0xE0 SHL DUP2 MSTORE PUSH1 0x1 PUSH1 0x1 PUSH1 0xA0 SHL SUB SWAP1 SWAP2 AND SWAP1 PUSH4 0x91E1472B SWAP1 PUSH2 0xE80 SWAP1 CALLER SWAP1 PUSH1 0x0 SWAP1 PUSH1 0x4 ADD PUSH2 0x36B8 JUMP JUMPDEST PUSH1 0x20 PUSH1 0x40 MLOAD DUP1 DUP4 SUB DUP2 DUP7 DUP1 EXTCODESIZE ISZERO DUP1 ISZERO PUSH2 0xE98 JUMPI PUSH1 0x0 DUP1 REVERT JUMPDEST POP GAS STATICCALL ISZERO DUP1 ISZERO PUSH2 0xEAC JUMPI RETURNDATASIZE PUSH1 0x0 DUP1 RETURNDATACOPY RETURNDATASIZE PUSH1 0x0 REVERT JUMPDEST POP POP POP POP PUSH1 0x40 MLOAD RETURNDATASIZE PUSH1 0x1F NOT PUSH1 0x1F DUP3 ADD AND DUP3 ADD DUP1 PUSH1 0x40 MSTORE POP DUP2 ADD SWAP1 PUSH2 0xED0 SWAP2 SWAP1 PUSH2 0x34BC JUMP JUMPDEST PUSH2 0xEEC JUMPI PUSH1 0x40 MLOAD PUSH3 0x461BCD PUSH1 0xE5 SHL DUP2 MSTORE PUSH1 0x4 ADD PUSH2 0x917 SWAP1 PUSH2 0x37B2 JUMP JUMPDEST PUSH1 0x1 PUSH1 0x1 PUSH1 0xA0 SHL SUB SWAP1 SWAP2 AND PUSH1 0x0 SWAP1 DUP2 MSTORE PUSH1 0x4 PUSH1 0x20 MSTORE PUSH1 0x40 SWAP1 KECCAK256 DUP1 SLOAD PUSH1 0x1 PUSH1 0x1 PUSH1 0x50 SHL SUB SWAP1 SWAP3 AND PUSH1 0x1 PUSH1 0x60 SHL MUL PUSH10 0xFFFFFFFFFFFFFFFFFFFF PUSH1 0x60 SHL NOT SWAP1 SWAP3 AND SWAP2 SWAP1 SWAP2 OR SWAP1 SSTORE JUMP JUMPDEST PUSH1 0x1 SLOAD PUSH1 0x40 MLOAD PUSH4 0x91E1472B PUSH1 0xE0 SHL DUP2 MSTORE PUSH1 0x1 PUSH1 0x1 PUSH1 0xA0 SHL SUB SWAP1 SWAP2 AND SWAP1 PUSH4 0x91E1472B SWAP1 PUSH2 0xF65 SWAP1 CALLER SWAP1 PUSH1 0x0 SWAP1 PUSH1 0x4 ADD PUSH2 0x36B8 JUMP JUMPDEST PUSH1 0x20 PUSH1 0x40 MLOAD DUP1 DUP4 SUB DUP2 DUP7 DUP1 EXTCODESIZE ISZERO DUP1 ISZERO PUSH2 0xF7D JUMPI PUSH1 0x0 DUP1 REVERT JUMPDEST POP GAS STATICCALL ISZERO DUP1 ISZERO PUSH2 0xF91 JUMPI RETURNDATASIZE PUSH1 0x0 DUP1 RETURNDATACOPY RETURNDATASIZE PUSH1 0x0 REVERT JUMPDEST POP POP POP POP PUSH1 0x40 MLOAD RETURNDATASIZE PUSH1 0x1F NOT PUSH1 0x1F DUP3 ADD AND DUP3 ADD DUP1 PUSH1 0x40 MSTORE POP DUP2 ADD SWAP1 PUSH2 0xFB5 SWAP2 SWAP1 PUSH2 0x34BC JUMP JUMPDEST PUSH2 0xFD1 JUMPI PUSH1 0x40 MLOAD PUSH3 0x461BCD PUSH1 0xE5 SHL DUP2 MSTORE PUSH1 0x4 ADD PUSH2 0x917 SWAP1 PUSH2 0x37B2 JUMP JUMPDEST PUSH1 0x3 DUP1 SLOAD PUSH1 0x1 PUSH1 0x1 PUSH1 0x60 SHL SUB SWAP1 SWAP3 AND PUSH1 0x1 PUSH1 0xA0 SHL MUL PUSH1 0x1 PUSH1 0x1 PUSH1 0xA0 SHL SUB SWAP1 SWAP3 AND SWAP2 SWAP1 SWAP2 OR SWAP1 SSTORE JUMP JUMPDEST PUSH1 0x1 SLOAD PUSH1 0x40 MLOAD PUSH4 0x91E1472B PUSH1 0xE0 SHL DUP2 MSTORE PUSH1 0x1 PUSH1 0x1 PUSH1 0xA0 SHL SUB SWAP1 SWAP2 AND SWAP1 PUSH4 0x91E1472B SWAP1 PUSH2 0x102C SWAP1 CALLER SWAP1 PUSH1 0x0 SWAP1 PUSH1 0x4 ADD PUSH2 0x36B8 JUMP JUMPDEST PUSH1 0x20 PUSH1 0x40 MLOAD DUP1 DUP4 SUB DUP2 DUP7 DUP1 EXTCODESIZE ISZERO DUP1 ISZERO PUSH2 0x1044 JUMPI PUSH1 0x0 DUP1 REVERT JUMPDEST POP GAS STATICCALL ISZERO DUP1 ISZERO PUSH2 0x1058 JUMPI RETURNDATASIZE PUSH1 0x0 DUP1 RETURNDATACOPY RETURNDATASIZE PUSH1 0x0 REVERT JUMPDEST POP POP POP POP PUSH1 0x40 MLOAD RETURNDATASIZE PUSH1 0x1F NOT PUSH1 0x1F DUP3 ADD AND DUP3 ADD DUP1 PUSH1 0x40 MSTORE POP DUP2 ADD SWAP1 PUSH2 0x107C SWAP2 SWAP1 PUSH2 0x34BC JUMP JUMPDEST PUSH2 0x1098 JUMPI PUSH1 0x40 MLOAD PUSH3 0x461BCD PUSH1 0xE5 SHL DUP2 MSTORE PUSH1 0x4 ADD PUSH2 0x917 SWAP1 PUSH2 0x37B2 JUMP JUMPDEST PUSH1 0x2 DUP1 SLOAD PUSH1 0x1 PUSH1 0x1 PUSH1 0x60 SHL SUB SWAP1 SWAP3 AND PUSH1 0x1 PUSH1 0xA0 SHL MUL PUSH1 0x1 PUSH1 0x1 PUSH1 0xA0 SHL SUB SWAP1 SWAP3 AND SWAP2 SWAP1 SWAP2 OR SWAP1 SSTORE JUMP JUMPDEST PUSH1 0x3 SLOAD PUSH1 0x1 PUSH1 0x1 PUSH1 0x60 SHL SUB PUSH1 0x1 PUSH1 0xA0 SHL SWAP1 SWAP2 DIV AND PUSH1 0x1 EQ PUSH2 0x111E JUMPI PUSH1 0x40 MLOAD PUSH3 0x461BCD PUSH1 0xE5 SHL DUP2 MSTORE PUSH1 0x20 PUSH1 0x4 DUP3 ADD MSTORE PUSH1 0x18 PUSH1 0x24 DUP3 ADD MSTORE PUSH24 0x4C6F673A4D6F727467616765506F6F6C3A21616374697665 PUSH1 0x40 SHL PUSH1 0x44 DUP3 ADD MSTORE PUSH1 0x64 ADD PUSH2 0x917 JUMP JUMPDEST PUSH1 0x0 SLOAD ISZERO PUSH2 0x113E JUMPI PUSH1 0x40 MLOAD PUSH3 0x461BCD PUSH1 0xE5 SHL DUP2 MSTORE PUSH1 0x4 ADD PUSH2 0x917 SWAP1 PUSH2 0x3744 JUMP JUMPDEST PUSH1 0x1 PUSH1 0x0 SWAP1 DUP2 SSTORE PUSH1 0x1 PUSH1 0x1 PUSH1 0xA0 SHL SUB DUP5 AND DUP2 MSTORE PUSH1 0x4 PUSH1 0x20 SWAP1 DUP2 MSTORE PUSH1 0x40 SWAP2 DUP3 SWAP1 KECCAK256 DUP3 MLOAD PUSH1 0x80 DUP2 ADD DUP5 MSTORE SWAP1 SLOAD PUSH1 0xFF DUP2 AND ISZERO ISZERO DUP1 DUP4 MSTORE PUSH1 0x1 PUSH1 0x1 PUSH1 0x58 SHL SUB PUSH2 0x100 DUP4 DIV AND SWAP4 DUP4 ADD SWAP4 SWAP1 SWAP4 MSTORE PUSH1 0x1 PUSH1 0x1 PUSH1 0x50 SHL SUB PUSH1 0x1 PUSH1 0x60 SHL DUP3 DIV DUP2 AND SWAP5 DUP4 ADD SWAP5 SWAP1 SWAP5 MSTORE PUSH1 0x1 PUSH1 0xB0 SHL SWAP1 DIV SWAP1 SWAP3 AND PUSH1 0x60 DUP4 ADD MSTORE PUSH2 0x11C9 JUMPI PUSH1 0x40 MLOAD PUSH3 0x461BCD PUSH1 0xE5 SHL DUP2 MSTORE PUSH1 0x4 ADD PUSH2 0x917 SWAP1 PUSH2 0x37E1 JUMP JUMPDEST PUSH1 0x0 DUP3 PUSH1 0x1 PUSH1 0x1 PUSH1 0x58 SHL SUB AND GT DUP1 ISZERO PUSH2 0x11F8 JUMPI POP DUP1 PUSH1 0x20 ADD MLOAD PUSH1 0x1 PUSH1 0x1 PUSH1 0x58 SHL SUB AND DUP3 PUSH1 0x1 PUSH1 0x1 PUSH1 0x58 SHL SUB AND GT ISZERO JUMPDEST PUSH2 0x1244 JUMPI PUSH1 0x40 MLOAD PUSH3 0x461BCD PUSH1 0xE5 SHL DUP2 MSTORE PUSH1 0x20 PUSH1 0x4 DUP3 ADD MSTORE PUSH1 0x18 PUSH1 0x24 DUP3 ADD MSTORE PUSH32 0x4C6F673A4D6F727467616765506F6F6C3A72617465213D300000000000000000 PUSH1 0x44 DUP3 ADD MSTORE PUSH1 0x64 ADD PUSH2 0x917 JUMP JUMPDEST PUSH1 0x0 DUP4 GT PUSH2 0x1294 JUMPI PUSH1 0x40 MLOAD PUSH3 0x461BCD PUSH1 0xE5 SHL DUP2 MSTORE PUSH1 0x20 PUSH1 0x4 DUP3 ADD MSTORE PUSH1 0x1A PUSH1 0x24 DUP3 ADD MSTORE PUSH32 0x4C6F673A4D6F727467616765506F6F6C3A616D6F756E74213D30000000000000 PUSH1 0x44 DUP3 ADD MSTORE PUSH1 0x64 ADD PUSH2 0x917 JUMP JUMPDEST PUSH1 0x1 PUSH1 0x1 PUSH1 0xA0 SHL SUB DUP5 AND PUSH1 0x0 DUP2 DUP2 MSTORE PUSH1 0x5 PUSH1 0x20 SWAP1 DUP2 MSTORE PUSH1 0x40 DUP1 DUP4 KECCAK256 CALLER DUP5 MSTORE SWAP1 SWAP2 MSTORE DUP2 KECCAK256 PUSH1 0x1 DUP2 ADD SLOAD DUP2 SLOAD SWAP2 SWAP4 SWAP1 SWAP3 SWAP1 DUP2 SWAP1 ISZERO PUSH2 0x12EA JUMPI PUSH2 0x12D6 DUP10 CALLER ADDRESS DUP12 PUSH2 0x2D67 JUMP JUMPDEST PUSH2 0x12E0 DUP10 CALLVALUE PUSH2 0x2CC8 JUMP JUMPDEST SWAP1 SWAP3 POP SWAP1 POP PUSH2 0x1353 JUMP JUMPDEST DUP8 CALLVALUE LT ISZERO PUSH2 0x133A JUMPI PUSH1 0x40 MLOAD PUSH3 0x461BCD PUSH1 0xE5 SHL DUP2 MSTORE PUSH1 0x20 PUSH1 0x4 DUP3 ADD MSTORE PUSH1 0x1B PUSH1 0x24 DUP3 ADD MSTORE PUSH32 0x4C6F673A4D6F727467616765506F6F6C3A216D73672E76616C75650000000000 PUSH1 0x44 DUP3 ADD MSTORE PUSH1 0x64 ADD PUSH2 0x917 JUMP JUMPDEST PUSH2 0x134D DUP10 PUSH2 0x1348 DUP11 CALLVALUE PUSH2 0x3987 JUMP JUMPDEST PUSH2 0x2CC8 JUMP JUMPDEST SWAP1 SWAP3 POP SWAP1 POP JUMPDEST PUSH1 0x40 DUP1 MLOAD PUSH1 0xA0 DUP2 ADD DUP3 MSTORE DUP7 SLOAD DUP2 MSTORE PUSH1 0x1 DUP8 ADD SLOAD PUSH1 0x20 DUP3 ADD MSTORE PUSH1 0x2 DUP8 ADD SLOAD PUSH1 0x1 PUSH1 0x1 PUSH1 0xA0 SHL SUB DUP2 AND SWAP3 DUP3 ADD SWAP3 SWAP1 SWAP3 MSTORE PUSH1 0x1 PUSH1 0xA0 SHL DUP3 DIV PUSH1 0x1 PUSH1 0x1 PUSH1 0x58 SHL SUB AND PUSH1 0x60 DUP1 DUP4 ADD SWAP2 SWAP1 SWAP2 MSTORE PUSH1 0x1 PUSH1 0xF8 SHL SWAP1 SWAP3 DIV PUSH1 0xFF AND ISZERO ISZERO PUSH1 0x80 DUP3 ADD MSTORE SWAP1 DUP8 ADD MLOAD PUSH2 0x13C0 SWAP2 SWAP1 DUP5 SWAP1 DUP5 SWAP1 PUSH1 0x0 PUSH2 0x3082 JUMP JUMPDEST PUSH1 0x0 PUSH2 0x13CF DUP4 PUSH3 0x186A0 PUSH2 0x3968 JUMP JUMPDEST PUSH1 0x1 PUSH1 0x1 PUSH1 0x58 SHL SUB DUP10 AND PUSH2 0x13E3 DUP5 DUP13 PUSH2 0x3968 JUMP JUMPDEST PUSH2 0x13ED SWAP2 SWAP1 PUSH2 0x3968 JUMP JUMPDEST PUSH2 0x13F7 SWAP2 SWAP1 PUSH2 0x385D JUMP JUMPDEST PUSH1 0x2 SLOAD PUSH1 0x40 MLOAD PUSH4 0x13B1DB0B PUSH1 0xE3 SHL DUP2 MSTORE PUSH1 0x4 DUP2 ADD DUP4 SWAP1 MSTORE CALLER PUSH1 0x24 DUP3 ADD MSTORE SWAP2 SWAP3 POP PUSH1 0x1 PUSH1 0x1 PUSH1 0xA0 SHL SUB AND SWAP1 PUSH4 0x9D8ED858 SWAP1 PUSH1 0x44 ADD PUSH1 0x0 PUSH1 0x40 MLOAD DUP1 DUP4 SUB DUP2 PUSH1 0x0 DUP8 DUP1 EXTCODESIZE ISZERO DUP1 ISZERO PUSH2 0x1444 JUMPI PUSH1 0x0 DUP1 REVERT JUMPDEST POP GAS CALL ISZERO DUP1 ISZERO PUSH2 0x1458 JUMPI RETURNDATASIZE PUSH1 0x0 DUP1 RETURNDATACOPY RETURNDATASIZE PUSH1 0x0 REVERT JUMPDEST POP POP POP POP DUP9 DUP5 PUSH2 0x1468 SWAP2 SWAP1 PUSH2 0x3845 JUMP JUMPDEST DUP7 SSTORE PUSH2 0x1474 DUP2 DUP7 PUSH2 0x3845 JUMP JUMPDEST PUSH1 0x1 DUP8 ADD DUP2 SWAP1 SSTORE PUSH1 0x2 DUP8 ADD DUP1 SLOAD PUSH1 0x1 PUSH1 0x1 PUSH1 0xA0 SHL SUB NOT AND NUMBER PUSH1 0x1 PUSH1 0x1 PUSH1 0xA0 SHL SUB AND OR SWAP1 SSTORE DUP7 SLOAD PUSH2 0x14A5 SWAP2 DUP6 DUP6 PUSH2 0x1A05 JUMP JUMPDEST DUP7 PUSH1 0x2 ADD PUSH1 0x14 PUSH2 0x100 EXP DUP2 SLOAD DUP2 PUSH1 0x1 PUSH1 0x1 PUSH1 0x58 SHL SUB MUL NOT AND SWAP1 DUP4 PUSH1 0x1 PUSH1 0x1 PUSH1 0x58 SHL SUB AND MUL OR SWAP1 SSTORE POP PUSH1 0x0 DUP1 MLOAD PUSH1 0x20 PUSH2 0x39DB DUP4 CODECOPY DUP2 MLOAD SWAP2 MSTORE DUP11 DUP8 PUSH1 0x0 ADD SLOAD DUP9 PUSH1 0x1 ADD SLOAD DUP7 DUP7 DUP12 PUSH1 0x2 ADD PUSH1 0x14 SWAP1 SLOAD SWAP1 PUSH2 0x100 EXP SWAP1 DIV PUSH1 0x1 PUSH1 0x1 PUSH1 0x58 SHL SUB AND PUSH1 0x40 MLOAD PUSH2 0x1513 SWAP7 SWAP6 SWAP5 SWAP4 SWAP3 SWAP2 SWAP1 PUSH2 0x36D1 JUMP JUMPDEST PUSH1 0x40 MLOAD DUP1 SWAP2 SUB SWAP1 LOG1 PUSH1 0x2 DUP7 ADD SLOAD PUSH1 0x1 PUSH1 0xF8 SHL SWAP1 DIV PUSH1 0xFF AND PUSH2 0x1581 JUMPI PUSH1 0x1 PUSH1 0x1 PUSH1 0xA0 SHL SUB DUP11 AND PUSH1 0x0 SWAP1 DUP2 MSTORE PUSH1 0x5 PUSH1 0x20 SWAP1 DUP2 MSTORE PUSH1 0x40 DUP3 KECCAK256 PUSH1 0x1 SWAP1 DUP2 ADD DUP1 SLOAD SWAP2 DUP3 ADD DUP2 SSTORE DUP4 MSTORE SWAP2 KECCAK256 ADD DUP1 SLOAD PUSH1 0x1 PUSH1 0x1 PUSH1 0xA0 SHL SUB NOT AND CALLER OR SWAP1 SSTORE PUSH1 0x2 DUP7 ADD DUP1 SLOAD PUSH1 0x1 PUSH1 0x1 PUSH1 0xF8 SHL SUB AND PUSH1 0x1 PUSH1 0xF8 SHL OR SWAP1 SSTORE JUMPDEST POP POP PUSH1 0x0 DUP1 SSTORE POP POP POP POP POP POP POP POP JUMP JUMPDEST PUSH1 0x1 SLOAD PUSH1 0x40 MLOAD PUSH4 0x91E1472B PUSH1 0xE0 SHL DUP2 MSTORE PUSH1 0x1 PUSH1 0x1 PUSH1 0xA0 SHL SUB SWAP1 SWAP2 AND SWAP1 PUSH4 0x91E1472B SWAP1 PUSH2 0x15C4 SWAP1 CALLER SWAP1 PUSH1 0x0 SWAP1 PUSH1 0x4 ADD PUSH2 0x36B8 JUMP JUMPDEST PUSH1 0x20 PUSH1 0x40 MLOAD DUP1 DUP4 SUB DUP2 DUP7 DUP1 EXTCODESIZE ISZERO DUP1 ISZERO PUSH2 0x15DC JUMPI PUSH1 0x0 DUP1 REVERT JUMPDEST POP GAS STATICCALL ISZERO DUP1 ISZERO PUSH2 0x15F0 JUMPI RETURNDATASIZE PUSH1 0x0 DUP1 RETURNDATACOPY RETURNDATASIZE PUSH1 0x0 REVERT JUMPDEST POP POP POP POP PUSH1 0x40 MLOAD RETURNDATASIZE PUSH1 0x1F NOT PUSH1 0x1F DUP3 ADD AND DUP3 ADD DUP1 PUSH1 0x40 MSTORE POP DUP2 ADD SWAP1 PUSH2 0x1614 SWAP2 SWAP1 PUSH2 0x34BC JUMP JUMPDEST PUSH2 0x1630 JUMPI PUSH1 0x40 MLOAD PUSH3 0x461BCD PUSH1 0xE5 SHL DUP2 MSTORE PUSH1 0x4 ADD PUSH2 0x917 SWAP1 PUSH2 0x37B2 JUMP JUMPDEST PUSH1 0x6 DUP1 SLOAD PUSH1 0x1 PUSH1 0x1 PUSH1 0xA0 SHL SUB NOT AND PUSH1 0x1 PUSH1 0x1 PUSH1 0xA0 SHL SUB SWAP3 SWAP1 SWAP3 AND SWAP2 SWAP1 SWAP2 OR SWAP1 SSTORE JUMP JUMPDEST PUSH1 0x1 SLOAD PUSH1 0x40 MLOAD PUSH4 0x91E1472B PUSH1 0xE0 SHL DUP2 MSTORE PUSH1 0x1 PUSH1 0x1 PUSH1 0xA0 SHL SUB SWAP1 SWAP2 AND SWAP1 PUSH4 0x91E1472B SWAP1 PUSH2 0x1685 SWAP1 CALLER SWAP1 PUSH1 0x0 SWAP1 PUSH1 0x4 ADD PUSH2 0x36B8 JUMP JUMPDEST PUSH1 0x20 PUSH1 0x40 MLOAD DUP1 DUP4 SUB DUP2 DUP7 DUP1 EXTCODESIZE ISZERO DUP1 ISZERO PUSH2 0x169D JUMPI PUSH1 0x0 DUP1 REVERT JUMPDEST POP GAS STATICCALL ISZERO DUP1 ISZERO PUSH2 0x16B1 JUMPI RETURNDATASIZE PUSH1 0x0 DUP1 RETURNDATACOPY RETURNDATASIZE PUSH1 0x0 REVERT JUMPDEST POP POP POP POP PUSH1 0x40 MLOAD RETURNDATASIZE PUSH1 0x1F NOT PUSH1 0x1F DUP3 ADD AND DUP3 ADD DUP1 PUSH1 0x40 MSTORE POP DUP2 ADD SWAP1 PUSH2 0x16D5 SWAP2 SWAP1 PUSH2 0x34BC JUMP JUMPDEST PUSH2 0x16F1 JUMPI PUSH1 0x40 MLOAD PUSH3 0x461BCD PUSH1 0xE5 SHL DUP2 MSTORE PUSH1 0x4 ADD PUSH2 0x917 SWAP1 PUSH2 0x37B2 JUMP JUMPDEST PUSH1 0x1 PUSH1 0x1 PUSH1 0xA0 SHL SUB SWAP1 SWAP2 AND PUSH1 0x0 SWAP1 DUP2 MSTORE PUSH1 0x4 PUSH1 0x20 MSTORE PUSH1 0x40 SWAP1 KECCAK256 DUP1 SLOAD PUSH1 0x1 PUSH1 0x1 PUSH1 0x58 SHL SUB SWAP1 SWAP3 AND PUSH2 0x100 MUL PUSH12 0xFFFFFFFFFFFFFFFFFFFFFF00 NOT SWAP1 SWAP3 AND SWAP2 SWAP1 SWAP2 OR SWAP1 SSTORE JUMP JUMPDEST PUSH1 0x3 SLOAD PUSH1 0x1 PUSH1 0xA0 SHL SWAP1 DIV PUSH1 0x1 PUSH1 0x1 PUSH1 0x60 SHL SUB AND PUSH2 0x1763 JUMPI PUSH1 0x40 MLOAD PUSH3 0x461BCD PUSH1 0xE5 SHL DUP2 MSTORE PUSH1 0x4 ADD PUSH2 0x917 SWAP1 PUSH2 0x3818 JUMP JUMPDEST PUSH1 0x0 SLOAD ISZERO PUSH2 0x1783 JUMPI PUSH1 0x40 MLOAD PUSH3 0x461BCD PUSH1 0xE5 SHL DUP2 MSTORE PUSH1 0x4 ADD PUSH2 0x917 SWAP1 PUSH2 0x3744 JUMP JUMPDEST PUSH1 0x1 PUSH1 0x0 SWAP1 DUP2 SSTORE PUSH1 0x1 PUSH1 0x1 PUSH1 0xA0 SHL SUB DUP4 AND DUP2 MSTORE PUSH1 0x4 PUSH1 0x20 SWAP1 DUP2 MSTORE PUSH1 0x40 SWAP2 DUP3 SWAP1 KECCAK256 DUP3 MLOAD PUSH1 0x80 DUP2 ADD DUP5 MSTORE SWAP1 SLOAD PUSH1 0xFF DUP2 AND ISZERO ISZERO DUP1 DUP4 MSTORE PUSH1 0x1 PUSH1 0x1 PUSH1 0x58 SHL SUB PUSH2 0x100 DUP4 DIV AND SWAP4 DUP4 ADD SWAP4 SWAP1 SWAP4 MSTORE PUSH1 0x1 PUSH1 0x1 PUSH1 0x50 SHL SUB PUSH1 0x1 PUSH1 0x60 SHL DUP3 DIV DUP2 AND SWAP5 DUP4 ADD SWAP5 SWAP1 SWAP5 MSTORE PUSH1 0x1 PUSH1 0xB0 SHL SWAP1 DIV SWAP1 SWAP3 AND PUSH1 0x60 DUP4 ADD MSTORE PUSH2 0x180E JUMPI PUSH1 0x40 MLOAD PUSH3 0x461BCD PUSH1 0xE5 SHL DUP2 MSTORE PUSH1 0x4 ADD PUSH2 0x917 SWAP1 PUSH2 0x37E1 JUMP JUMPDEST PUSH1 0x1 PUSH1 0x1 PUSH1 0xA0 SHL SUB DUP4 AND PUSH1 0x0 SWAP1 DUP2 MSTORE PUSH1 0x5 PUSH1 0x20 SWAP1 DUP2 MSTORE PUSH1 0x40 DUP1 DUP4 KECCAK256 CALLER DUP5 MSTORE SWAP1 SWAP2 MSTORE SWAP1 KECCAK256 PUSH1 0x1 DUP2 ADD SLOAD DUP2 SLOAD DUP5 ISZERO DUP1 ISZERO SWAP1 PUSH2 0x1847 JUMPI POP DUP2 DUP6 GT ISZERO JUMPDEST PUSH2 0x1863 JUMPI PUSH1 0x40 MLOAD PUSH3 0x461BCD PUSH1 0xE5 SHL DUP2 MSTORE PUSH1 0x4 ADD PUSH2 0x917 SWAP1 PUSH2 0x370D JUMP JUMPDEST PUSH1 0x2 DUP4 ADD SLOAD PUSH1 0x1 PUSH1 0xF8 SHL SWAP1 DIV PUSH1 0xFF AND PUSH2 0x188E JUMPI PUSH1 0x40 MLOAD PUSH3 0x461BCD PUSH1 0xE5 SHL DUP2 MSTORE PUSH1 0x4 ADD PUSH2 0x917 SWAP1 PUSH2 0x377B JUMP JUMPDEST PUSH1 0x0 DUP1 PUSH2 0x189B DUP9 CALLVALUE PUSH2 0x2CC8 JUMP JUMPDEST PUSH1 0x40 DUP1 MLOAD PUSH1 0xA0 DUP2 ADD DUP3 MSTORE DUP9 SLOAD DUP2 MSTORE PUSH1 0x1 DUP10 ADD SLOAD PUSH1 0x20 DUP3 ADD MSTORE PUSH1 0x2 DUP10 ADD SLOAD PUSH1 0x1 PUSH1 0x1 PUSH1 0xA0 SHL SUB DUP2 AND SWAP3 DUP3 ADD SWAP3 SWAP1 SWAP3 MSTORE PUSH1 0x1 PUSH1 0xA0 SHL DUP3 DIV PUSH1 0x1 PUSH1 0x1 PUSH1 0x58 SHL SUB AND PUSH1 0x60 DUP1 DUP4 ADD SWAP2 SWAP1 SWAP2 MSTORE PUSH1 0x1 PUSH1 0xF8 SHL SWAP1 SWAP3 DIV PUSH1 0xFF AND ISZERO ISZERO PUSH1 0x80 DUP3 ADD MSTORE SWAP1 DUP10 ADD MLOAD SWAP3 SWAP5 POP SWAP1 SWAP3 POP PUSH2 0x190C SWAP2 DUP5 SWAP1 DUP5 SWAP1 DUP12 PUSH2 0x3082 JUMP JUMPDEST PUSH2 0x1916 DUP8 DUP6 PUSH2 0x3987 JUMP JUMPDEST PUSH1 0x1 DUP7 ADD DUP2 SWAP1 SSTORE PUSH1 0x2 DUP7 ADD DUP1 SLOAD PUSH1 0x1 PUSH1 0x1 PUSH1 0xA0 SHL SUB NOT AND NUMBER PUSH1 0x1 PUSH1 0x1 PUSH1 0xA0 SHL SUB AND OR SWAP1 SSTORE PUSH2 0x1947 SWAP1 DUP5 SWAP1 DUP5 DUP5 PUSH2 0x1A05 JUMP JUMPDEST PUSH1 0x2 DUP7 ADD DUP1 SLOAD PUSH1 0x1 PUSH1 0xA0 SHL PUSH1 0x1 PUSH1 0xF8 SHL SUB NOT AND PUSH1 0x1 PUSH1 0xA0 SHL PUSH1 0x1 PUSH1 0x1 PUSH1 0x58 SHL SUB SWAP4 DUP5 AND DUP2 MUL SWAP2 SWAP1 SWAP2 OR SWAP2 DUP3 SWAP1 SSTORE DUP8 SLOAD PUSH1 0x1 DUP10 ADD SLOAD PUSH1 0x40 MLOAD PUSH1 0x0 DUP1 MLOAD PUSH1 0x20 PUSH2 0x39DB DUP4 CODECOPY DUP2 MLOAD SWAP2 MSTORE SWAP6 PUSH2 0x19A3 SWAP6 DUP16 SWAP6 DUP11 SWAP4 DUP11 SWAP4 SWAP2 SWAP1 SWAP3 DIV AND SWAP1 PUSH2 0x36D1 JUMP JUMPDEST PUSH1 0x40 MLOAD DUP1 SWAP2 SUB SWAP1 LOG1 PUSH1 0x7 SLOAD PUSH1 0x40 MLOAD PUSH3 0x45B14B PUSH1 0xE7 SHL DUP2 MSTORE PUSH1 0x4 DUP2 ADD DUP10 SWAP1 MSTORE PUSH1 0x1 PUSH1 0x1 PUSH1 0xA0 SHL SUB SWAP1 SWAP2 AND SWAP1 PUSH4 0x22D8A580 SWAP1 PUSH1 0x24 ADD JUMPDEST PUSH1 0x0 PUSH1 0x40 MLOAD DUP1 DUP4 SUB DUP2 PUSH1 0x0 DUP8 DUP1 EXTCODESIZE ISZERO DUP1 ISZERO PUSH2 0x19F1 JUMPI PUSH1 0x0 DUP1 REVERT JUMPDEST POP GAS CALL ISZERO DUP1 ISZERO PUSH2 0xE3B JUMPI RETURNDATASIZE PUSH1 0x0 DUP1 RETURNDATACOPY RETURNDATASIZE PUSH1 0x0 REVERT JUMPDEST PUSH1 0x0 DUP5 ISZERO DUP1 PUSH2 0x1A12 JUMPI POP DUP2 ISZERO JUMPDEST ISZERO PUSH2 0x1A1F JUMPI POP PUSH1 0x0 PUSH2 0x1A4D JUMP JUMPDEST PUSH2 0x1A29 DUP6 DUP4 PUSH2 0x3968 JUMP JUMPDEST PUSH2 0x1A33 DUP5 DUP7 PUSH2 0x3968 JUMP JUMPDEST PUSH2 0x1A40 SWAP1 PUSH3 0x186A0 PUSH2 0x3968 JUMP JUMPDEST PUSH2 0x1A4A SWAP2 SWAP1 PUSH2 0x385D JUMP JUMPDEST SWAP1 POP JUMPDEST SWAP5 SWAP4 POP POP POP POP JUMP JUMPDEST PUSH1 0x1 PUSH1 0x1 PUSH1 0xA0 SHL SUB DUP6 DUP2 AND PUSH1 0x0 SWAP1 DUP2 MSTORE PUSH1 0x5 PUSH1 0x20 SWAP1 DUP2 MSTORE PUSH1 0x40 DUP1 DUP4 KECCAK256 DUP6 DUP6 AND DUP5 MSTORE DUP3 MSTORE DUP1 DUP4 KECCAK256 DUP2 MLOAD PUSH1 0xA0 DUP2 ADD DUP4 MSTORE DUP2 SLOAD DUP1 DUP3 MSTORE PUSH1 0x1 DUP4 ADD SLOAD SWAP5 DUP3 ADD SWAP5 SWAP1 SWAP5 MSTORE PUSH1 0x2 SWAP1 SWAP2 ADD SLOAD SWAP5 DUP6 AND SWAP2 DUP2 ADD SWAP2 SWAP1 SWAP2 MSTORE PUSH1 0x1 PUSH1 0xA0 SHL DUP5 DIV PUSH1 0x1 PUSH1 0x1 PUSH1 0x58 SHL SUB AND PUSH1 0x60 DUP3 ADD MSTORE PUSH1 0x1 PUSH1 0xF8 SHL SWAP1 SWAP4 DIV PUSH1 0xFF AND ISZERO ISZERO PUSH1 0x80 DUP5 ADD MSTORE SWAP1 SWAP2 DUP3 SWAP2 DUP3 SWAP2 DUP3 SWAP2 DUP11 SWAP2 SWAP1 ISZERO DUP1 ISZERO PUSH2 0x1AE5 JUMPI POP PUSH1 0x20 DUP2 ADD MLOAD ISZERO JUMPDEST ISZERO PUSH2 0x1AFF JUMPI PUSH1 0x0 DUP1 PUSH1 0x0 DUP1 SWAP6 POP SWAP6 POP SWAP6 POP SWAP6 POP POP POP PUSH2 0x1C59 JUMP JUMPDEST PUSH1 0x3 SLOAD PUSH1 0x2 SLOAD PUSH1 0x0 SWAP2 PUSH2 0x1B20 SWAP2 PUSH1 0x1 PUSH1 0x1 PUSH1 0xA0 SHL SUB SWAP2 DUP3 AND SWAP2 DUP14 SWAP2 AND PUSH2 0x2AB3 JUMP JUMPDEST PUSH1 0x20 DUP4 ADD MLOAD PUSH1 0x40 DUP5 ADD MLOAD PUSH1 0x60 DUP6 ADD MLOAD DUP6 MLOAD SWAP4 SWAP5 POP DUP15 SWAP4 PUSH2 0x1B8D SWAP4 SWAP3 SWAP2 PUSH1 0x1 PUSH1 0x1 PUSH1 0x58 SHL SUB AND SWAP1 PUSH2 0x1B52 SWAP1 DUP5 DUP8 DUP10 PUSH2 0x1A05 JUMP JUMPDEST PUSH1 0x1 PUSH1 0x1 PUSH1 0xA0 SHL SUB DUP10 AND PUSH1 0x0 SWAP1 DUP2 MSTORE PUSH1 0x4 PUSH1 0x20 MSTORE PUSH1 0x40 SWAP1 KECCAK256 SLOAD PUSH1 0x1 PUSH1 0x1 PUSH1 0x58 SHL SUB SWAP2 SWAP1 SWAP2 AND SWAP1 PUSH1 0x1 PUSH1 0xB0 SHL SWAP1 DIV PUSH1 0x1 PUSH1 0x1 PUSH1 0x50 SHL SUB AND PUSH2 0x26A7 JUMP JUMPDEST SWAP8 POP PUSH2 0x1BAE DUP4 PUSH1 0x0 ADD MLOAD DUP10 DUP6 PUSH1 0x20 ADD MLOAD PUSH2 0x1BA7 SWAP2 SWAP1 PUSH2 0x3845 JUMP JUMPDEST DUP4 DUP6 PUSH2 0x1A05 JUMP JUMPDEST PUSH1 0x1 PUSH1 0x1 PUSH1 0x58 SHL SUB SWAP1 DUP2 AND SWAP8 POP DUP11 AND DUP1 DUP9 LT PUSH2 0x1BD1 JUMPI PUSH1 0x0 SWAP7 POP PUSH1 0x0 SWAP6 POP PUSH2 0x1C53 JUMP JUMPDEST PUSH2 0x1BDB DUP4 DUP3 PUSH2 0x3968 JUMP JUMPDEST DUP3 DUP6 PUSH1 0x20 ADD MLOAD PUSH2 0x1BEB SWAP2 SWAP1 PUSH2 0x3968 JUMP JUMPDEST PUSH2 0x1BF8 SWAP1 PUSH3 0x186A0 PUSH2 0x3968 JUMP JUMPDEST PUSH2 0x1C02 SWAP2 SWAP1 PUSH2 0x385D JUMP JUMPDEST DUP5 MLOAD PUSH2 0x1C0E SWAP2 SWAP1 PUSH2 0x3987 JUMP JUMPDEST PUSH1 0x20 DUP6 ADD MLOAD SWAP1 SWAP8 POP PUSH2 0x1C23 DUP4 PUSH3 0x186A0 PUSH2 0x3968 JUMP JUMPDEST DUP6 MLOAD DUP4 SWAP1 PUSH2 0x1C32 SWAP1 DUP8 SWAP1 PUSH2 0x3968 JUMP JUMPDEST PUSH2 0x1C3C SWAP2 SWAP1 PUSH2 0x3968 JUMP JUMPDEST PUSH2 0x1C46 SWAP2 SWAP1 PUSH2 0x385D JUMP JUMPDEST PUSH2 0x1C50 SWAP2 SWAP1 PUSH2 0x3987 JUMP JUMPDEST SWAP6 POP JUMPDEST POP POP POP POP POP JUMPDEST SWAP6 POP SWAP6 POP SWAP6 POP SWAP6 SWAP2 POP POP JUMP JUMPDEST PUSH1 0x3 SLOAD PUSH1 0x1 PUSH1 0x1 PUSH1 0x60 SHL SUB PUSH1 0x1 PUSH1 0xA0 SHL SWAP1 SWAP2 DIV AND PUSH1 0x1 EQ PUSH2 0x1CC3 JUMPI PUSH1 0x40 MLOAD PUSH3 0x461BCD PUSH1 0xE5 SHL DUP2 MSTORE PUSH1 0x20 PUSH1 0x4 DUP3 ADD MSTORE PUSH1 0x18 PUSH1 0x24 DUP3 ADD MSTORE PUSH24 0x4C6F673A4D6F727467616765506F6F6C3A21616374697665 PUSH1 0x40 SHL PUSH1 0x44 DUP3 ADD MSTORE PUSH1 0x64 ADD PUSH2 0x917 JUMP JUMPDEST PUSH1 0x0 SLOAD ISZERO PUSH2 0x1CE3 JUMPI PUSH1 0x40 MLOAD PUSH3 0x461BCD PUSH1 0xE5 SHL DUP2 MSTORE PUSH1 0x4 ADD PUSH2 0x917 SWAP1 PUSH2 0x3744 JUMP JUMPDEST PUSH1 0x1 PUSH1 0x0 SWAP1 DUP2 SSTORE PUSH1 0x1 PUSH1 0x1 PUSH1 0xA0 SHL SUB DUP4 AND DUP2 MSTORE PUSH1 0x4 PUSH1 0x20 SWAP1 DUP2 MSTORE PUSH1 0x40 SWAP2 DUP3 SWAP1 KECCAK256 DUP3 MLOAD PUSH1 0x80 DUP2 ADD DUP5 MSTORE SWAP1 SLOAD PUSH1 0xFF DUP2 AND ISZERO ISZERO DUP1 DUP4 MSTORE PUSH1 0x1 PUSH1 0x1 PUSH1 0x58 SHL SUB PUSH2 0x100 DUP4 DIV AND SWAP4 DUP4 ADD SWAP4 SWAP1 SWAP4 MSTORE PUSH1 0x1 PUSH1 0x1 PUSH1 0x50 SHL SUB PUSH1 0x1 PUSH1 0x60 SHL DUP3 DIV DUP2 AND SWAP5 DUP4 ADD SWAP5 SWAP1 SWAP5 MSTORE PUSH1 0x1 PUSH1 0xB0 SHL SWAP1 DIV SWAP1 SWAP3 AND PUSH1 0x60 DUP4 ADD MSTORE PUSH2 0x1D6E JUMPI PUSH1 0x40 MLOAD PUSH3 0x461BCD PUSH1 0xE5 SHL DUP2 MSTORE PUSH1 0x4 ADD PUSH2 0x917 SWAP1 PUSH2 0x37E1 JUMP JUMPDEST PUSH1 0x0 DUP3 GT PUSH2 0x1D8E JUMPI PUSH1 0x40 MLOAD PUSH3 0x461BCD PUSH1 0xE5 SHL DUP2 MSTORE PUSH1 0x4 ADD PUSH2 0x917 SWAP1 PUSH2 0x370D JUMP JUMPDEST PUSH1 0x1 PUSH1 0x1 PUSH1 0xA0 SHL SUB DUP4 AND PUSH1 0x0 SWAP1 DUP2 MSTORE PUSH1 0x5 PUSH1 0x20 SWAP1 DUP2 MSTORE PUSH1 0x40 DUP1 DUP4 KECCAK256 CALLER DUP5 MSTORE SWAP1 SWAP2 MSTORE SWAP1 KECCAK256 PUSH1 0x1 DUP2 ADD SLOAD DUP2 SLOAD PUSH1 0x2 DUP4 ADD SLOAD PUSH1 0x1 PUSH1 0xF8 SHL SWAP1 DIV PUSH1 0xFF AND PUSH2 0x1DE3 JUMPI PUSH1 0x40 MLOAD PUSH3 0x461BCD PUSH1 0xE5 SHL DUP2 MSTORE PUSH1 0x4 ADD PUSH2 0x917 SWAP1 PUSH2 0x377B JUMP JUMPDEST PUSH1 0x0 DUP1 PUSH2 0x1DF0 DUP9 CALLVALUE PUSH2 0x2CC8 JUMP JUMPDEST PUSH1 0x40 DUP1 MLOAD PUSH1 0xA0 DUP2 ADD DUP3 MSTORE DUP9 SLOAD DUP2 MSTORE PUSH1 0x1 DUP10 ADD SLOAD PUSH1 0x20 DUP3 ADD MSTORE PUSH1 0x2 DUP10 ADD SLOAD PUSH1 0x1 PUSH1 0x1 PUSH1 0xA0 SHL SUB DUP2 AND SWAP3 DUP3 ADD SWAP3 SWAP1 SWAP3 MSTORE PUSH1 0x1 PUSH1 0xA0 SHL DUP3 DIV PUSH1 0x1 PUSH1 0x1 PUSH1 0x58 SHL SUB AND PUSH1 0x60 DUP1 DUP4 ADD SWAP2 SWAP1 SWAP2 MSTORE PUSH1 0x1 PUSH1 0xF8 SHL SWAP1 SWAP3 DIV PUSH1 0xFF AND ISZERO ISZERO PUSH1 0x80 DUP3 ADD MSTORE SWAP1 DUP10 ADD MLOAD SWAP3 SWAP5 POP SWAP1 SWAP3 POP PUSH2 0x1E62 SWAP2 DUP5 SWAP1 DUP5 SWAP1 PUSH1 0x0 PUSH2 0x3082 JUMP JUMPDEST PUSH2 0x1E6C DUP8 DUP6 PUSH2 0x3845 JUMP JUMPDEST PUSH1 0x1 DUP7 ADD DUP2 SWAP1 SSTORE PUSH1 0x2 DUP7 ADD DUP1 SLOAD PUSH1 0x1 PUSH1 0x1 PUSH1 0xA0 SHL SUB NOT AND NUMBER PUSH1 0x1 PUSH1 0x1 PUSH1 0xA0 SHL SUB AND OR SWAP1 SSTORE PUSH2 0x1E9D SWAP1 DUP5 SWAP1 DUP5 DUP5 PUSH2 0x1A05 JUMP JUMPDEST PUSH1 0x2 DUP7 ADD DUP1 SLOAD PUSH1 0x1 PUSH1 0xA0 SHL PUSH1 0x1 PUSH1 0xF8 SHL SUB NOT AND PUSH1 0x1 PUSH1 0xA0 SHL PUSH1 0x1 PUSH1 0x1 PUSH1 0x58 SHL SUB SWAP4 DUP5 AND DUP2 MUL SWAP2 SWAP1 SWAP2 OR SWAP2 DUP3 SWAP1 SSTORE DUP8 SLOAD PUSH1 0x1 DUP10 ADD SLOAD PUSH1 0x40 MLOAD PUSH1 0x0 DUP1 MLOAD PUSH1 0x20 PUSH2 0x39DB DUP4 CODECOPY DUP2 MLOAD SWAP2 MSTORE SWAP6 PUSH2 0x1EF9 SWAP6 DUP16 SWAP6 DUP11 SWAP4 DUP11 SWAP4 SWAP2 SWAP1 SWAP3 DIV AND SWAP1 PUSH2 0x36D1 JUMP JUMPDEST PUSH1 0x40 MLOAD DUP1 SWAP2 SUB SWAP1 LOG1 PUSH1 0x20 DUP7 ADD MLOAD PUSH1 0x2 DUP7 ADD SLOAD PUSH1 0x1 PUSH1 0x1 PUSH1 0x58 SHL SUB SWAP2 DUP3 AND PUSH1 0x1 PUSH1 0xA0 SHL SWAP1 SWAP2 DIV SWAP1 SWAP2 AND GT ISZERO PUSH2 0x1F6B JUMPI PUSH1 0x40 MLOAD PUSH3 0x461BCD PUSH1 0xE5 SHL DUP2 MSTORE PUSH1 0x20 PUSH1 0x4 DUP3 ADD MSTORE PUSH1 0x19 PUSH1 0x24 DUP3 ADD MSTORE PUSH25 0x4C6F673A4D6F727467616765506F6F6C3A216D617852617465 PUSH1 0x38 SHL PUSH1 0x44 DUP3 ADD MSTORE PUSH1 0x64 ADD PUSH2 0x917 JUMP JUMPDEST PUSH1 0x2 SLOAD PUSH1 0x40 MLOAD PUSH4 0x13B1DB0B PUSH1 0xE3 SHL DUP2 MSTORE PUSH1 0x4 DUP2 ADD DUP10 SWAP1 MSTORE CALLER PUSH1 0x24 DUP3 ADD MSTORE PUSH1 0x1 PUSH1 0x1 PUSH1 0xA0 SHL SUB SWAP1 SWAP2 AND SWAP1 PUSH4 0x9D8ED858 SWAP1 PUSH1 0x44 ADD PUSH2 0x19D7 JUMP JUMPDEST PUSH1 0x3 SLOAD PUSH1 0x1 PUSH1 0xA0 SHL SWAP1 DIV PUSH1 0x1 PUSH1 0x1 PUSH1 0x60 SHL SUB AND PUSH2 0x1FD1 JUMPI PUSH1 0x40 MLOAD PUSH3 0x461BCD PUSH1 0xE5 SHL DUP2 MSTORE PUSH1 0x4 ADD PUSH2 0x917 SWAP1 PUSH2 0x3818 JUMP JUMPDEST PUSH1 0x0 SLOAD ISZERO PUSH2 0x1FF1 JUMPI PUSH1 0x40 MLOAD PUSH3 0x461BCD PUSH1 0xE5 SHL DUP2 MSTORE PUSH1 0x4 ADD PUSH2 0x917 SWAP1 PUSH2 0x3744 JUMP JUMPDEST PUSH1 0x1 PUSH1 0x0 SWAP1 DUP2 SSTORE PUSH1 0x1 PUSH1 0x1 PUSH1 0xA0 SHL SUB DUP4 AND DUP2 MSTORE PUSH1 0x4 PUSH1 0x20 SWAP1 DUP2 MSTORE PUSH1 0x40 SWAP2 DUP3 SWAP1 KECCAK256 DUP3 MLOAD PUSH1 0x80 DUP2 ADD DUP5 MSTORE SWAP1 SLOAD PUSH1 0xFF DUP2 AND ISZERO ISZERO DUP1 DUP4 MSTORE PUSH1 0x1 PUSH1 0x1 PUSH1 0x58 SHL SUB PUSH2 0x100 DUP4 DIV AND SWAP4 DUP4 ADD SWAP4 SWAP1 SWAP4 MSTORE PUSH1 0x1 PUSH1 0x1 PUSH1 0x50 SHL SUB PUSH1 0x1 PUSH1 0x60 SHL DUP3 DIV DUP2 AND SWAP5 DUP4 ADD SWAP5 SWAP1 SWAP5 MSTORE PUSH1 0x1 PUSH1 0xB0 SHL SWAP1 DIV SWAP1 SWAP3 AND PUSH1 0x60 DUP4 ADD MSTORE PUSH2 0x207C JUMPI PUSH1 0x40 MLOAD PUSH3 0x461BCD PUSH1 0xE5 SHL DUP2 MSTORE PUSH1 0x4 ADD PUSH2 0x917 SWAP1 PUSH2 0x37E1 JUMP JUMPDEST PUSH1 0x0 DUP3 GT PUSH2 0x209C JUMPI PUSH1 0x40 MLOAD PUSH3 0x461BCD PUSH1 0xE5 SHL DUP2 MSTORE PUSH1 0x4 ADD PUSH2 0x917 SWAP1 PUSH2 0x370D JUMP JUMPDEST PUSH1 0x1 PUSH1 0x1 PUSH1 0xA0 SHL SUB DUP4 AND PUSH1 0x0 SWAP1 DUP2 MSTORE PUSH1 0x5 PUSH1 0x20 SWAP1 DUP2 MSTORE PUSH1 0x40 DUP1 DUP4 KECCAK256 CALLER DUP5 MSTORE SWAP1 SWAP2 MSTORE SWAP1 KECCAK256 PUSH1 0x1 DUP2 ADD SLOAD DUP2 SLOAD PUSH1 0x2 DUP4 ADD SLOAD PUSH1 0x1 PUSH1 0xF8 SHL SWAP1 DIV PUSH1 0xFF AND PUSH2 0x20F1 JUMPI PUSH1 0x40 MLOAD PUSH3 0x461BCD PUSH1 0xE5 SHL DUP2 MSTORE PUSH1 0x4 ADD PUSH2 0x917 SWAP1 PUSH2 0x377B JUMP JUMPDEST PUSH1 0x0 DUP1 PUSH1 0x1 PUSH1 0x1 PUSH1 0xA0 SHL SUB DUP9 AND ISZERO PUSH2 0x2123 JUMPI PUSH2 0x210F DUP9 CALLER ADDRESS DUP11 PUSH2 0x2D67 JUMP JUMPDEST PUSH2 0x2119 DUP9 CALLVALUE PUSH2 0x2CC8 JUMP JUMPDEST SWAP1 SWAP3 POP SWAP1 POP PUSH2 0x2187 JUMP JUMPDEST DUP7 CALLVALUE LT ISZERO PUSH2 0x2173 JUMPI PUSH1 0x40 MLOAD PUSH3 0x461BCD PUSH1 0xE5 SHL DUP2 MSTORE PUSH1 0x20 PUSH1 0x4 DUP3 ADD MSTORE PUSH1 0x1B PUSH1 0x24 DUP3 ADD MSTORE PUSH32 0x4C6F673A4D6F727467616765506F6F6C3A216D73672E76616C75650000000000 PUSH1 0x44 DUP3 ADD MSTORE PUSH1 0x64 ADD PUSH2 0x917 JUMP JUMPDEST PUSH2 0x2181 DUP9 PUSH2 0x1348 DUP10 CALLVALUE PUSH2 0x3987 JUMP JUMPDEST SWAP1 SWAP3 POP SWAP1 POP JUMPDEST PUSH1 0x40 DUP1 MLOAD PUSH1 0xA0 DUP2 ADD DUP3 MSTORE DUP7 SLOAD DUP2 MSTORE PUSH1 0x1 DUP8 ADD SLOAD PUSH1 0x20 DUP3 ADD MSTORE PUSH1 0x2 DUP8 ADD SLOAD PUSH1 0x1 PUSH1 0x1 PUSH1 0xA0 SHL SUB DUP2 AND SWAP3 DUP3 ADD SWAP3 SWAP1 SWAP3 MSTORE PUSH1 0x1 PUSH1 0xA0 SHL DUP3 DIV PUSH1 0x1 PUSH1 0x1 PUSH1 0x58 SHL SUB AND PUSH1 0x60 DUP1 DUP4 ADD SWAP2 SWAP1 SWAP2 MSTORE PUSH1 0x1 PUSH1 0xF8 SHL SWAP1 SWAP3 DIV PUSH1 0xFF AND ISZERO ISZERO PUSH1 0x80 DUP3 ADD MSTORE SWAP1 DUP8 ADD MLOAD PUSH2 0x21F4 SWAP2 SWAP1 DUP5 SWAP1 DUP5 SWAP1 PUSH1 0x0 PUSH2 0x3082 JUMP JUMPDEST PUSH2 0x21FE DUP8 DUP5 PUSH2 0x3845 JUMP JUMPDEST DUP1 DUP7 SSTORE PUSH1 0x2 DUP7 ADD DUP1 SLOAD PUSH1 0x1 PUSH1 0x1 PUSH1 0xA0 SHL SUB NOT AND NUMBER PUSH1 0x1 PUSH1 0x1 PUSH1 0xA0 SHL SUB AND OR SWAP1 SSTORE PUSH2 0x222A SWAP1 DUP6 DUP5 DUP5 PUSH2 0x1A05 JUMP JUMPDEST PUSH1 0x2 DUP7 ADD DUP1 SLOAD PUSH1 0x1 PUSH1 0xA0 SHL PUSH1 0x1 PUSH1 0xF8 SHL SUB NOT AND PUSH1 0x1 PUSH1 0xA0 SHL PUSH1 0x1 PUSH1 0x1 PUSH1 0x58 SHL SUB SWAP4 DUP5 AND DUP2 MUL SWAP2 SWAP1 SWAP2 OR SWAP2 DUP3 SWAP1 SSTORE DUP8 SLOAD PUSH1 0x1 DUP10 ADD SLOAD PUSH1 0x40 MLOAD PUSH1 0x0 DUP1 MLOAD PUSH1 0x20 PUSH2 0x39DB DUP4 CODECOPY DUP2 MLOAD SWAP2 MSTORE SWAP6 PUSH2 0x2286 SWAP6 DUP16 SWAP6 DUP11 SWAP4 DUP11 SWAP4 SWAP2 SWAP1 SWAP3 DIV AND SWAP1 PUSH2 0x36D1 JUMP JUMPDEST PUSH1 0x40 MLOAD DUP1 SWAP2 SUB SWAP1 LOG1 POP POP PUSH1 0x0 DUP1 SSTORE POP POP POP POP POP POP JUMP JUMPDEST PUSH1 0x1 SLOAD PUSH1 0x40 MLOAD PUSH4 0x91E1472B PUSH1 0xE0 SHL DUP2 MSTORE PUSH1 0x1 PUSH1 0x1 PUSH1 0xA0 SHL SUB SWAP1 SWAP2 AND SWAP1 PUSH4 0x91E1472B SWAP1 PUSH2 0x22CF SWAP1 CALLER SWAP1 PUSH1 0x0 SWAP1 PUSH1 0x4 ADD PUSH2 0x36B8 JUMP JUMPDEST PUSH1 0x20 PUSH1 0x40 MLOAD DUP1 DUP4 SUB DUP2 DUP7 DUP1 EXTCODESIZE ISZERO DUP1 ISZERO PUSH2 0x22E7 JUMPI PUSH1 0x0 DUP1 REVERT JUMPDEST POP GAS STATICCALL ISZERO DUP1 ISZERO PUSH2 0x22FB JUMPI RETURNDATASIZE PUSH1 0x0 DUP1 RETURNDATACOPY RETURNDATASIZE PUSH1 0x0 REVERT JUMPDEST POP POP POP POP PUSH1 0x40 MLOAD RETURNDATASIZE PUSH1 0x1F NOT PUSH1 0x1F DUP3 ADD AND DUP3 ADD DUP1 PUSH1 0x40 MSTORE POP DUP2 ADD SWAP1 PUSH2 0x231F SWAP2 SWAP1 PUSH2 0x34BC JUMP JUMPDEST PUSH2 0x233B JUMPI PUSH1 0x40 MLOAD PUSH3 0x461BCD PUSH1 0xE5 SHL DUP2 MSTORE PUSH1 0x4 ADD PUSH2 0x917 SWAP1 PUSH2 0x37B2 JUMP JUMPDEST PUSH1 0x7 DUP1 SLOAD PUSH1 0x1 PUSH1 0x1 PUSH1 0xA0 SHL SUB NOT AND PUSH1 0x1 PUSH1 0x1 PUSH1 0xA0 SHL SUB SWAP3 SWAP1 SWAP3 AND SWAP2 SWAP1 SWAP2 OR SWAP1 SSTORE JUMP JUMPDEST PUSH1 0x20 DUP6 ADD MLOAD DUP6 MLOAD PUSH1 0x0 PUSH2 0x2372 DUP3 DUP5 DUP10 DUP10 PUSH2 0x1A05 JUMP JUMPDEST PUSH1 0x1 PUSH1 0x1 PUSH1 0x58 SHL SUB AND SWAP1 POP PUSH1 0x0 DUP1 DUP10 PUSH1 0x40 ADD MLOAD SWAP1 POP PUSH1 0x0 DUP6 GT DUP1 ISZERO PUSH2 0x23A8 JUMPI POP DUP1 PUSH1 0x1 PUSH1 0x1 PUSH1 0xA0 SHL SUB AND NUMBER PUSH1 0x1 PUSH1 0x1 PUSH1 0xA0 SHL SUB AND GT JUMPDEST DUP1 ISZERO PUSH2 0x23BC JUMPI POP PUSH1 0x1 PUSH1 0x1 PUSH1 0xA0 SHL SUB DUP2 AND ISZERO ISZERO JUMPDEST ISZERO PUSH2 0x23DE JUMPI PUSH2 0x23DB DUP6 DUP3 DUP13 PUSH1 0x60 ADD MLOAD PUSH1 0x1 PUSH1 0x1 PUSH1 0x58 SHL SUB AND DUP7 DUP11 PUSH2 0x26A7 JUMP JUMPDEST SWAP2 POP JUMPDEST PUSH2 0x23E8 DUP10 DUP10 PUSH2 0x385D JUMP JUMPDEST PUSH2 0x23F5 DUP6 PUSH3 0x186A0 PUSH2 0x3968 JUMP JUMPDEST PUSH1 0x1 PUSH1 0x1 PUSH1 0x50 SHL SUB DUP10 AND PUSH2 0x2409 DUP6 DUP10 PUSH2 0x3845 JUMP JUMPDEST PUSH2 0x2413 SWAP2 SWAP1 PUSH2 0x3968 JUMP JUMPDEST PUSH2 0x241D SWAP2 SWAP1 PUSH2 0x385D JUMP JUMPDEST LT PUSH2 0x2474 JUMPI PUSH1 0x40 MLOAD PUSH3 0x461BCD PUSH1 0xE5 SHL DUP2 MSTORE PUSH1 0x20 PUSH1 0x4 DUP3 ADD MSTORE PUSH1 0x21 PUSH1 0x24 DUP3 ADD MSTORE PUSH32 0x4C6F673A4D6F727467616765506F6F6C3A216C69717569646174696F6E4C696E PUSH1 0x44 DUP3 ADD MSTORE PUSH1 0x65 PUSH1 0xF8 SHL PUSH1 0x64 DUP3 ADD MSTORE PUSH1 0x84 ADD PUSH2 0x917 JUMP JUMPDEST POP POP POP POP POP POP POP POP POP POP JUMP JUMPDEST PUSH1 0x1 SLOAD PUSH1 0x40 MLOAD PUSH4 0x91E1472B PUSH1 0xE0 SHL DUP2 MSTORE PUSH1 0x1 PUSH1 0x1 PUSH1 0xA0 SHL SUB SWAP1 SWAP2 AND SWAP1 PUSH4 0x91E1472B SWAP1 PUSH2 0x24B3 SWAP1 CALLER SWAP1 PUSH1 0x0 SWAP1 PUSH1 0x4 ADD PUSH2 0x36B8 JUMP JUMPDEST PUSH1 0x20 PUSH1 0x40 MLOAD DUP1 DUP4 SUB DUP2 DUP7 DUP1 EXTCODESIZE ISZERO DUP1 ISZERO PUSH2 0x24CB JUMPI PUSH1 0x0 DUP1 REVERT JUMPDEST POP GAS STATICCALL ISZERO DUP1 ISZERO PUSH2 0x24DF JUMPI RETURNDATASIZE PUSH1 0x0 DUP1 RETURNDATACOPY RETURNDATASIZE PUSH1 0x0 REVERT JUMPDEST POP POP POP POP PUSH1 0x40 MLOAD RETURNDATASIZE PUSH1 0x1F NOT PUSH1 0x1F DUP3 ADD AND DUP3 ADD DUP1 PUSH1 0x40 MSTORE POP DUP2 ADD SWAP1 PUSH2 0x2503 SWAP2 SWAP1 PUSH2 0x34BC JUMP JUMPDEST PUSH2 0x251F JUMPI PUSH1 0x40 MLOAD PUSH3 0x461BCD PUSH1 0xE5 SHL DUP2 MSTORE PUSH1 0x4 ADD PUSH2 0x917 SWAP1 PUSH2 0x37B2 JUMP JUMPDEST PUSH1 0x1 PUSH1 0x1 PUSH1 0xA0 SHL SUB SWAP1 SWAP2 AND PUSH1 0x0 SWAP1 DUP2 MSTORE PUSH1 0x4 PUSH1 0x20 MSTORE PUSH1 0x40 SWAP1 KECCAK256 DUP1 SLOAD PUSH1 0x1 PUSH1 0x1 PUSH1 0x50 SHL SUB SWAP1 SWAP3 AND PUSH1 0x1 PUSH1 0xB0 SHL MUL PUSH1 0x1 PUSH1 0x1 PUSH1 0xB0 SHL SUB SWAP1 SWAP3 AND SWAP2 SWAP1 SWAP2 OR SWAP1 SSTORE JUMP JUMPDEST PUSH1 0x1 SLOAD PUSH1 0x40 MLOAD PUSH4 0x91E1472B PUSH1 0xE0 SHL DUP2 MSTORE PUSH1 0x1 PUSH1 0x1 PUSH1 0xA0 SHL SUB SWAP1 SWAP2 AND SWAP1 PUSH4 0x91E1472B SWAP1 PUSH2 0x2591 SWAP1 CALLER SWAP1 PUSH1 0x0 SWAP1 PUSH1 0x4 ADD PUSH2 0x36B8 JUMP JUMPDEST PUSH1 0x20 PUSH1 0x40 MLOAD DUP1 DUP4 SUB DUP2 DUP7 DUP1 EXTCODESIZE ISZERO DUP1 ISZERO PUSH2 0x25A9 JUMPI PUSH1 0x0 DUP1 REVERT JUMPDEST POP GAS STATICCALL ISZERO DUP1 ISZERO PUSH2 0x25BD JUMPI RETURNDATASIZE PUSH1 0x0 DUP1 RETURNDATACOPY RETURNDATASIZE PUSH1 0x0 REVERT JUMPDEST POP POP POP POP PUSH1 0x40 MLOAD RETURNDATASIZE PUSH1 0x1F NOT PUSH1 0x1F DUP3 ADD AND DUP3 ADD DUP1 PUSH1 0x40 MSTORE POP DUP2 ADD SWAP1 PUSH2 0x25E1 SWAP2 SWAP1 PUSH2 0x34BC JUMP JUMPDEST PUSH2 0x25FD JUMPI PUSH1 0x40 MLOAD PUSH3 0x461BCD PUSH1 0xE5 SHL DUP2 MSTORE PUSH1 0x4 ADD PUSH2 0x917 SWAP1 PUSH2 0x37B2 JUMP JUMPDEST PUSH1 0x1 PUSH1 0x1 PUSH1 0xA0 SHL SUB SWAP2 SWAP1 SWAP2 AND PUSH1 0x0 SWAP1 DUP2 MSTORE PUSH1 0x4 PUSH1 0x20 MSTORE PUSH1 0x40 SWAP1 KECCAK256 DUP1 SLOAD PUSH1 0xFF NOT AND SWAP2 ISZERO ISZERO SWAP2 SWAP1 SWAP2 OR SWAP1 SSTORE JUMP JUMPDEST PUSH1 0x1 SLOAD PUSH1 0x1 PUSH1 0x1 PUSH1 0xA0 SHL SUB AND ISZERO PUSH2 0x2681 JUMPI PUSH1 0x40 MLOAD PUSH3 0x461BCD PUSH1 0xE5 SHL DUP2 MSTORE PUSH1 0x20 PUSH1 0x4 DUP3 ADD MSTORE PUSH1 0x1B PUSH1 0x24 DUP3 ADD MSTORE PUSH32 0x4C6F673A50617261737365744261736521696E697469616C697A650000000000 PUSH1 0x44 DUP3 ADD MSTORE PUSH1 0x64 ADD PUSH2 0x917 JUMP JUMPDEST PUSH1 0x1 DUP1 SLOAD PUSH1 0x1 PUSH1 0x1 PUSH1 0xA0 SHL SUB NOT AND PUSH1 0x1 PUSH1 0x1 PUSH1 0xA0 SHL SUB SWAP3 SWAP1 SWAP3 AND SWAP2 SWAP1 SWAP2 OR SWAP1 SSTORE PUSH1 0x0 DUP1 SSTORE JUMP JUMPDEST PUSH1 0x0 DUP1 PUSH2 0x26BD PUSH1 0x1 PUSH1 0x1 PUSH1 0xA0 SHL SUB DUP8 AND NUMBER PUSH2 0x3987 JUMP JUMPDEST PUSH2 0x26D0 PUSH1 0x1 PUSH1 0x1 PUSH1 0x50 SHL SUB DUP6 AND DUP10 PUSH2 0x3968 JUMP JUMPDEST PUSH2 0x26DA SWAP2 SWAP1 PUSH2 0x3968 JUMP JUMPDEST SWAP1 POP PUSH1 0x0 PUSH2 0x26E8 DUP6 DUP8 PUSH2 0x3845 JUMP JUMPDEST SWAP1 POP PUSH1 0x0 DUP2 PUSH1 0x3 PUSH2 0x2702 PUSH1 0x1 PUSH1 0x1 PUSH1 0xA0 SHL SUB DUP12 AND NUMBER PUSH2 0x3987 JUMP JUMPDEST PUSH2 0x2715 PUSH1 0x1 PUSH1 0x1 PUSH1 0x50 SHL SUB DUP10 AND DUP14 PUSH2 0x3968 JUMP JUMPDEST PUSH2 0x271F SWAP2 SWAP1 PUSH2 0x3968 JUMP JUMPDEST PUSH2 0x2729 SWAP2 SWAP1 PUSH2 0x3968 JUMP JUMPDEST PUSH2 0x2733 SWAP2 SWAP1 PUSH2 0x3968 JUMP JUMPDEST PUSH1 0x2 SLOAD SWAP1 SWAP2 POP PUSH1 0x0 SWAP1 PUSH2 0x2759 SWAP1 PUSH1 0x1 PUSH1 0xA0 SHL SWAP1 DIV PUSH1 0x1 PUSH1 0x1 PUSH1 0x60 SHL SUB AND PUSH3 0x186A0 PUSH2 0x3968 JUMP JUMPDEST SWAP1 POP PUSH2 0x2768 DUP2 PUSH3 0x186A0 PUSH2 0x3968 JUMP JUMPDEST PUSH2 0x2773 SWAP1 PUSH1 0x2 PUSH2 0x3968 JUMP JUMPDEST PUSH2 0x277D SWAP1 DUP4 PUSH2 0x385D JUMP JUMPDEST PUSH2 0x2787 DUP3 DUP7 PUSH2 0x385D JUMP JUMPDEST PUSH2 0x2791 SWAP2 SWAP1 PUSH2 0x3845 JUMP JUMPDEST SWAP11 SWAP10 POP POP POP POP POP POP POP POP POP POP JUMP JUMPDEST PUSH1 0x3 SLOAD PUSH1 0x1 PUSH1 0xA0 SHL SWAP1 DIV PUSH1 0x1 PUSH1 0x1 PUSH1 0x60 SHL SUB AND PUSH2 0x27CE JUMPI PUSH1 0x40 MLOAD PUSH3 0x461BCD PUSH1 0xE5 SHL DUP2 MSTORE PUSH1 0x4 ADD PUSH2 0x917 SWAP1 PUSH2 0x3818 JUMP JUMPDEST PUSH1 0x0 SLOAD ISZERO PUSH2 0x27EE JUMPI PUSH1 0x40 MLOAD PUSH3 0x461BCD PUSH1 0xE5 SHL DUP2 MSTORE PUSH1 0x4 ADD PUSH2 0x917 SWAP1 PUSH2 0x3744 JUMP JUMPDEST PUSH1 0x1 PUSH1 0x0 SWAP1 DUP2 SSTORE PUSH1 0x1 PUSH1 0x1 PUSH1 0xA0 SHL SUB DUP4 AND DUP2 MSTORE PUSH1 0x4 PUSH1 0x20 SWAP1 DUP2 MSTORE PUSH1 0x40 SWAP2 DUP3 SWAP1 KECCAK256 DUP3 MLOAD PUSH1 0x80 DUP2 ADD DUP5 MSTORE SWAP1 SLOAD PUSH1 0xFF DUP2 AND ISZERO ISZERO DUP1 DUP4 MSTORE PUSH1 0x1 PUSH1 0x1 PUSH1 0x58 SHL SUB PUSH2 0x100 DUP4 DIV AND SWAP4 DUP4 ADD SWAP4 SWAP1 SWAP4 MSTORE PUSH1 0x1 PUSH1 0x1 PUSH1 0x50 SHL SUB PUSH1 0x1 PUSH1 0x60 SHL DUP3 DIV DUP2 AND SWAP5 DUP4 ADD SWAP5 SWAP1 SWAP5 MSTORE PUSH1 0x1 PUSH1 0xB0 SHL SWAP1 DIV SWAP1 SWAP3 AND PUSH1 0x60 DUP4 ADD MSTORE PUSH2 0x2879 JUMPI PUSH1 0x40 MLOAD PUSH3 0x461BCD PUSH1 0xE5 SHL DUP2 MSTORE PUSH1 0x4 ADD PUSH2 0x917 SWAP1 PUSH2 0x37E1 JUMP JUMPDEST PUSH1 0x1 PUSH1 0x1 PUSH1 0xA0 SHL SUB DUP4 AND PUSH1 0x0 SWAP1 DUP2 MSTORE PUSH1 0x5 PUSH1 0x20 SWAP1 DUP2 MSTORE PUSH1 0x40 DUP1 DUP4 KECCAK256 CALLER DUP5 MSTORE SWAP1 SWAP2 MSTORE SWAP1 KECCAK256 PUSH1 0x1 DUP2 ADD SLOAD DUP2 SLOAD DUP5 ISZERO DUP1 ISZERO SWAP1 PUSH2 0x28B2 JUMPI POP DUP1 DUP6 GT ISZERO JUMPDEST PUSH2 0x28CE JUMPI PUSH1 0x40 MLOAD PUSH3 0x461BCD PUSH1 0xE5 SHL DUP2 MSTORE PUSH1 0x4 ADD PUSH2 0x917 SWAP1 PUSH2 0x370D JUMP JUMPDEST PUSH1 0x2 DUP4 ADD SLOAD PUSH1 0x1 PUSH1 0xF8 SHL SWAP1 DIV PUSH1 0xFF AND PUSH2 0x28F9 JUMPI PUSH1 0x40 MLOAD PUSH3 0x461BCD PUSH1 0xE5 SHL DUP2 MSTORE PUSH1 0x4 ADD PUSH2 0x917 SWAP1 PUSH2 0x377B JUMP JUMPDEST PUSH1 0x0 DUP1 PUSH2 0x2906 DUP9 CALLVALUE PUSH2 0x2CC8 JUMP JUMPDEST PUSH1 0x40 DUP1 MLOAD PUSH1 0xA0 DUP2 ADD DUP3 MSTORE DUP9 SLOAD DUP2 MSTORE PUSH1 0x1 DUP10 ADD SLOAD PUSH1 0x20 DUP3 ADD MSTORE PUSH1 0x2 DUP10 ADD SLOAD PUSH1 0x1 PUSH1 0x1 PUSH1 0xA0 SHL SUB DUP2 AND SWAP3 DUP3 ADD SWAP3 SWAP1 SWAP3 MSTORE PUSH1 0x1 PUSH1 0xA0 SHL DUP3 DIV PUSH1 0x1 PUSH1 0x1 PUSH1 0x58 SHL SUB AND PUSH1 0x60 DUP1 DUP4 ADD SWAP2 SWAP1 SWAP2 MSTORE PUSH1 0x1 PUSH1 0xF8 SHL SWAP1 SWAP3 DIV PUSH1 0xFF AND ISZERO ISZERO PUSH1 0x80 DUP3 ADD MSTORE SWAP1 DUP10 ADD MLOAD SWAP3 SWAP5 POP SWAP1 SWAP3 POP PUSH2 0x2978 SWAP2 DUP5 SWAP1 DUP5 SWAP1 PUSH1 0x0 PUSH2 0x3082 JUMP JUMPDEST PUSH2 0x2982 DUP8 DUP5 PUSH2 0x3987 JUMP JUMPDEST DUP1 DUP7 SSTORE PUSH1 0x2 DUP7 ADD DUP1 SLOAD PUSH1 0x1 PUSH1 0x1 PUSH1 0xA0 SHL SUB NOT AND NUMBER PUSH1 0x1 PUSH1 0x1 PUSH1 0xA0 SHL SUB AND OR SWAP1 SSTORE PUSH2 0x29AE SWAP1 DUP6 DUP5 DUP5 PUSH2 0x1A05 JUMP JUMPDEST PUSH1 0x2 DUP7 ADD DUP1 SLOAD PUSH1 0x1 PUSH1 0xA0 SHL PUSH1 0x1 PUSH1 0xF8 SHL SUB NOT AND PUSH1 0x1 PUSH1 0xA0 SHL PUSH1 0x1 PUSH1 0x1 PUSH1 0x58 SHL SUB SWAP4 DUP5 AND DUP2 MUL SWAP2 SWAP1 SWAP2 OR SWAP2 DUP3 SWAP1 SSTORE DUP8 SLOAD PUSH1 0x1 DUP10 ADD SLOAD PUSH1 0x40 MLOAD PUSH1 0x0 DUP1 MLOAD PUSH1 0x20 PUSH2 0x39DB DUP4 CODECOPY DUP2 MLOAD SWAP2 MSTORE SWAP6 PUSH2 0x2A0A SWAP6 DUP16 SWAP6 DUP11 SWAP4 DUP11 SWAP4 SWAP2 SWAP1 SWAP3 DIV AND SWAP1 PUSH2 0x36D1 JUMP JUMPDEST PUSH1 0x40 MLOAD DUP1 SWAP2 SUB SWAP1 LOG1 PUSH1 0x20 DUP7 ADD MLOAD PUSH1 0x2 DUP7 ADD SLOAD PUSH1 0x1 PUSH1 0x1 PUSH1 0x58 SHL SUB SWAP2 DUP3 AND PUSH1 0x1 PUSH1 0xA0 SHL SWAP1 SWAP2 DIV SWAP1 SWAP2 AND GT ISZERO PUSH2 0x2A7C JUMPI PUSH1 0x40 MLOAD PUSH3 0x461BCD PUSH1 0xE5 SHL DUP2 MSTORE PUSH1 0x20 PUSH1 0x4 DUP3 ADD MSTORE PUSH1 0x19 PUSH1 0x24 DUP3 ADD MSTORE PUSH25 0x4C6F673A4D6F727467616765506F6F6C3A216D617852617465 PUSH1 0x38 SHL PUSH1 0x44 DUP3 ADD MSTORE PUSH1 0x64 ADD PUSH2 0x917 JUMP JUMPDEST PUSH1 0x1 PUSH1 0x1 PUSH1 0xA0 SHL SUB DUP9 AND ISZERO PUSH2 0x2A9B JUMPI PUSH2 0x2A96 DUP9 CALLER DUP10 PUSH2 0x2E97 JUMP JUMPDEST PUSH2 0x2AA5 JUMP JUMPDEST PUSH2 0x2AA5 CALLER DUP9 PUSH2 0x2FB4 JUMP JUMPDEST POP POP PUSH1 0x0 DUP1 SSTORE POP POP POP POP POP POP JUMP JUMPDEST PUSH1 0x0 PUSH1 0x12 DUP1 PUSH1 0x1 PUSH1 0x1 PUSH1 0xA0 SHL SUB DUP7 AND ISZERO PUSH2 0x2B3E JUMPI DUP6 PUSH1 0x1 PUSH1 0x1 PUSH1 0xA0 SHL SUB AND PUSH4 0x313CE567 PUSH1 0x40 MLOAD DUP2 PUSH4 0xFFFFFFFF AND PUSH1 0xE0 SHL DUP2 MSTORE PUSH1 0x4 ADD PUSH1 0x20 PUSH1 0x40 MLOAD DUP1 DUP4 SUB DUP2 DUP7 DUP1 EXTCODESIZE ISZERO DUP1 ISZERO PUSH2 0x2B00 JUMPI PUSH1 0x0 DUP1 REVERT JUMPDEST POP GAS STATICCALL ISZERO DUP1 ISZERO PUSH2 0x2B14 JUMPI RETURNDATASIZE PUSH1 0x0 DUP1 RETURNDATACOPY RETURNDATASIZE PUSH1 0x0 REVERT JUMPDEST POP POP POP POP PUSH1 0x40 MLOAD RETURNDATASIZE PUSH1 0x1F NOT PUSH1 0x1F DUP3 ADD AND DUP3 ADD DUP1 PUSH1 0x40 MSTORE POP DUP2 ADD SWAP1 PUSH2 0x2B38 SWAP2 SWAP1 PUSH2 0x3644 JUMP JUMPDEST PUSH1 0xFF AND SWAP2 POP JUMPDEST PUSH1 0x1 PUSH1 0x1 PUSH1 0xA0 SHL SUB DUP5 AND ISZERO PUSH2 0x2BC4 JUMPI DUP4 PUSH1 0x1 PUSH1 0x1 PUSH1 0xA0 SHL SUB AND PUSH4 0x313CE567 PUSH1 0x40 MLOAD DUP2 PUSH4 0xFFFFFFFF AND PUSH1 0xE0 SHL DUP2 MSTORE PUSH1 0x4 ADD PUSH1 0x20 PUSH1 0x40 MLOAD DUP1 DUP4 SUB DUP2 DUP7 DUP1 EXTCODESIZE ISZERO DUP1 ISZERO PUSH2 0x2B86 JUMPI PUSH1 0x0 DUP1 REVERT JUMPDEST POP GAS STATICCALL ISZERO DUP1 ISZERO PUSH2 0x2B9A JUMPI RETURNDATASIZE PUSH1 0x0 DUP1 RETURNDATACOPY RETURNDATASIZE PUSH1 0x0 REVERT JUMPDEST POP POP POP POP PUSH1 0x40 MLOAD RETURNDATASIZE PUSH1 0x1F NOT PUSH1 0x1F DUP3 ADD AND DUP3 ADD DUP1 PUSH1 0x40 MSTORE POP DUP2 ADD SWAP1 PUSH2 0x2BBE SWAP2 SWAP1 PUSH2 0x3644 JUMP JUMPDEST PUSH1 0xFF AND SWAP1 POP JUMPDEST PUSH2 0x2BCF DUP3 PUSH1 0xA PUSH2 0x38C0 JUMP JUMPDEST PUSH2 0x2BDA DUP3 PUSH1 0xA PUSH2 0x38C0 JUMP JUMPDEST PUSH2 0x2BE4 SWAP1 DUP8 PUSH2 0x3968 JUMP JUMPDEST PUSH2 0x2BEE SWAP2 SWAP1 PUSH2 0x385D JUMP JUMPDEST SWAP7 SWAP6 POP POP POP POP POP POP JUMP JUMPDEST PUSH1 0x1 SLOAD PUSH1 0x40 MLOAD PUSH4 0x91E1472B PUSH1 0xE0 SHL DUP2 MSTORE PUSH1 0x1 PUSH1 0x1 PUSH1 0xA0 SHL SUB SWAP1 SWAP2 AND SWAP1 PUSH4 0x91E1472B SWAP1 PUSH2 0x2C2B SWAP1 CALLER SWAP1 PUSH1 0x0 SWAP1 PUSH1 0x4 ADD PUSH2 0x36B8 JUMP JUMPDEST PUSH1 0x20 PUSH1 0x40 MLOAD DUP1 DUP4 SUB DUP2 DUP7 DUP1 EXTCODESIZE ISZERO DUP1 ISZERO PUSH2 0x2C43 JUMPI PUSH1 0x0 DUP1 REVERT JUMPDEST POP GAS STATICCALL ISZERO DUP1 ISZERO PUSH2 0x2C57 JUMPI RETURNDATASIZE PUSH1 0x0 DUP1 RETURNDATACOPY RETURNDATASIZE PUSH1 0x0 REVERT JUMPDEST POP POP POP POP PUSH1 0x40 MLOAD RETURNDATASIZE PUSH1 0x1F NOT PUSH1 0x1F DUP3 ADD AND DUP3 ADD DUP1 PUSH1 0x40 MSTORE POP DUP2 ADD SWAP1 PUSH2 0x2C7B SWAP2 SWAP1 PUSH2 0x34BC JUMP JUMPDEST PUSH2 0x2C97 JUMPI PUSH1 0x40 MLOAD PUSH3 0x461BCD PUSH1 0xE5 SHL DUP2 MSTORE PUSH1 0x4 ADD PUSH2 0x917 SWAP1 PUSH2 0x37B2 JUMP JUMPDEST PUSH1 0x2 DUP1 SLOAD PUSH1 0x1 PUSH1 0x1 PUSH1 0xA0 SHL SUB SWAP3 DUP4 AND PUSH1 0x1 PUSH1 0x1 PUSH1 0xA0 SHL SUB NOT SWAP2 DUP3 AND OR SWAP1 SWAP2 SSTORE PUSH1 0x3 DUP1 SLOAD SWAP4 SWAP1 SWAP3 AND SWAP3 AND SWAP2 SWAP1 SWAP2 OR SWAP1 SSTORE JUMP JUMPDEST PUSH1 0x6 SLOAD PUSH1 0x3 SLOAD PUSH1 0x40 MLOAD PUSH4 0xDA33AA9 PUSH1 0xE0 SHL DUP2 MSTORE PUSH1 0x1 PUSH1 0x1 PUSH1 0xA0 SHL SUB DUP6 DUP2 AND PUSH1 0x4 DUP4 ADD MSTORE SWAP2 DUP3 AND PUSH1 0x24 DUP3 ADD MSTORE CALLER PUSH1 0x44 DUP3 ADD MSTORE PUSH1 0x0 SWAP3 DUP4 SWAP3 AND SWAP1 PUSH4 0xDA33AA9 SWAP1 DUP6 SWAP1 PUSH1 0x64 ADD PUSH1 0x40 DUP1 MLOAD DUP1 DUP4 SUB DUP2 DUP6 DUP9 DUP1 EXTCODESIZE ISZERO DUP1 ISZERO PUSH2 0x2D23 JUMPI PUSH1 0x0 DUP1 REVERT JUMPDEST POP GAS CALL ISZERO DUP1 ISZERO PUSH2 0x2D37 JUMPI RETURNDATASIZE PUSH1 0x0 DUP1 RETURNDATACOPY RETURNDATASIZE PUSH1 0x0 REVERT JUMPDEST POP POP POP POP POP PUSH1 0x40 MLOAD RETURNDATASIZE PUSH1 0x1F NOT PUSH1 0x1F DUP3 ADD AND DUP3 ADD DUP1 PUSH1 0x40 MSTORE POP DUP2 ADD SWAP1 PUSH2 0x2D5C SWAP2 SWAP1 PUSH2 0x35F0 JUMP JUMPDEST SWAP1 SWAP6 SWAP1 SWAP5 POP SWAP3 POP POP POP JUMP JUMPDEST PUSH1 0x40 DUP1 MLOAD PUSH1 0x1 PUSH1 0x1 PUSH1 0xA0 SHL SUB DUP6 DUP2 AND PUSH1 0x24 DUP4 ADD MSTORE DUP5 DUP2 AND PUSH1 0x44 DUP4 ADD MSTORE PUSH1 0x64 DUP1 DUP4 ADD DUP6 SWAP1 MSTORE DUP4 MLOAD DUP1 DUP5 SUB SWAP1 SWAP2 ADD DUP2 MSTORE PUSH1 0x84 SWAP1 SWAP3 ADD DUP4 MSTORE PUSH1 0x20 DUP3 ADD DUP1 MLOAD PUSH1 0x1 PUSH1 0x1 PUSH1 0xE0 SHL SUB AND PUSH4 0x23B872DD PUSH1 0xE0 SHL OR SWAP1 MSTORE SWAP2 MLOAD PUSH1 0x0 SWAP3 DUP4 SWAP3 SWAP1 DUP9 AND SWAP2 PUSH2 0x2DCB SWAP2 SWAP1 PUSH2 0x367F JUMP JUMPDEST PUSH1 0x0 PUSH1 0x40 MLOAD DUP1 DUP4 SUB DUP2 PUSH1 0x0 DUP7 GAS CALL SWAP2 POP POP RETURNDATASIZE DUP1 PUSH1 0x0 DUP2 EQ PUSH2 0x2E08 JUMPI PUSH1 0x40 MLOAD SWAP2 POP PUSH1 0x1F NOT PUSH1 0x3F RETURNDATASIZE ADD AND DUP3 ADD PUSH1 0x40 MSTORE RETURNDATASIZE DUP3 MSTORE RETURNDATASIZE PUSH1 0x0 PUSH1 0x20 DUP5 ADD RETURNDATACOPY PUSH2 0x2E0D JUMP JUMPDEST PUSH1 0x60 SWAP2 POP JUMPDEST POP SWAP2 POP SWAP2 POP DUP2 DUP1 ISZERO PUSH2 0x2E37 JUMPI POP DUP1 MLOAD ISZERO DUP1 PUSH2 0x2E37 JUMPI POP DUP1 DUP1 PUSH1 0x20 ADD SWAP1 MLOAD DUP2 ADD SWAP1 PUSH2 0x2E37 SWAP2 SWAP1 PUSH2 0x34BC JUMP JUMPDEST PUSH2 0x2E8F JUMPI PUSH1 0x40 MLOAD PUSH3 0x461BCD PUSH1 0xE5 SHL DUP2 MSTORE PUSH1 0x20 PUSH1 0x4 DUP3 ADD MSTORE PUSH1 0x24 DUP1 DUP3 ADD MSTORE PUSH32 0x5472616E7366657248656C7065723A205452414E534645525F46524F4D5F4641 PUSH1 0x44 DUP3 ADD MSTORE PUSH4 0x12531151 PUSH1 0xE2 SHL PUSH1 0x64 DUP3 ADD MSTORE PUSH1 0x84 ADD PUSH2 0x917 JUMP JUMPDEST POP POP POP POP POP POP JUMP JUMPDEST PUSH1 0x0 DUP1 DUP5 PUSH1 0x1 PUSH1 0x1 PUSH1 0xA0 SHL SUB AND PUSH4 0xA9059CBB DUP6 DUP6 PUSH1 0x40 MLOAD PUSH1 0x24 ADD PUSH2 0x2EBC SWAP3 SWAP2 SWAP1 PUSH2 0x36B8 JUMP JUMPDEST PUSH1 0x40 MLOAD PUSH1 0x20 DUP2 DUP4 SUB SUB DUP2 MSTORE SWAP1 PUSH1 0x40 MSTORE SWAP1 PUSH1 0xE0 SHL PUSH1 0x20 DUP3 ADD DUP1 MLOAD PUSH1 0x1 PUSH1 0x1 PUSH1 0xE0 SHL SUB DUP4 DUP2 DUP4 AND OR DUP4 MSTORE POP POP POP POP PUSH1 0x40 MLOAD PUSH2 0x2EF5 SWAP2 SWAP1 PUSH2 0x367F JUMP JUMPDEST PUSH1 0x0 PUSH1 0x40 MLOAD DUP1 DUP4 SUB DUP2 PUSH1 0x0 DUP7 GAS CALL SWAP2 POP POP RETURNDATASIZE DUP1 PUSH1 0x0 DUP2 EQ PUSH2 0x2F32 JUMPI PUSH1 0x40 MLOAD SWAP2 POP PUSH1 0x1F NOT PUSH1 0x3F RETURNDATASIZE ADD AND DUP3 ADD PUSH1 0x40 MSTORE RETURNDATASIZE DUP3 MSTORE RETURNDATASIZE PUSH1 0x0 PUSH1 0x20 DUP5 ADD RETURNDATACOPY PUSH2 0x2F37 JUMP JUMPDEST PUSH1 0x60 SWAP2 POP JUMPDEST POP SWAP2 POP SWAP2 POP DUP2 DUP1 ISZERO PUSH2 0x2F61 JUMPI POP DUP1 MLOAD ISZERO DUP1 PUSH2 0x2F61 JUMPI POP DUP1 DUP1 PUSH1 0x20 ADD SWAP1 MLOAD DUP2 ADD SWAP1 PUSH2 0x2F61 SWAP2 SWAP1 PUSH2 0x34BC JUMP JUMPDEST PUSH2 0x2FAD JUMPI PUSH1 0x40 MLOAD PUSH3 0x461BCD PUSH1 0xE5 SHL DUP2 MSTORE PUSH1 0x20 PUSH1 0x4 DUP3 ADD MSTORE PUSH1 0x1F PUSH1 0x24 DUP3 ADD MSTORE PUSH32 0x5472616E7366657248656C7065723A205452414E534645525F4641494C454400 PUSH1 0x44 DUP3 ADD MSTORE PUSH1 0x64 ADD PUSH2 0x917 JUMP JUMPDEST POP POP POP POP POP JUMP JUMPDEST PUSH1 0x40 DUP1 MLOAD PUSH1 0x0 DUP1 DUP3 MSTORE PUSH1 0x20 DUP3 ADD SWAP1 SWAP3 MSTORE PUSH1 0x1 PUSH1 0x1 PUSH1 0xA0 SHL SUB DUP5 AND SWAP1 DUP4 SWAP1 PUSH1 0x40 MLOAD PUSH2 0x2FDE SWAP2 SWAP1 PUSH2 0x367F JUMP JUMPDEST PUSH1 0x0 PUSH1 0x40 MLOAD DUP1 DUP4 SUB DUP2 DUP6 DUP8 GAS CALL SWAP3 POP POP POP RETURNDATASIZE DUP1 PUSH1 0x0 DUP2 EQ PUSH2 0x301B JUMPI PUSH1 0x40 MLOAD SWAP2 POP PUSH1 0x1F NOT PUSH1 0x3F RETURNDATASIZE ADD AND DUP3 ADD PUSH1 0x40 MSTORE RETURNDATASIZE DUP3 MSTORE RETURNDATASIZE PUSH1 0x0 PUSH1 0x20 DUP5 ADD RETURNDATACOPY PUSH2 0x3020 JUMP JUMPDEST PUSH1 0x60 SWAP2 POP JUMPDEST POP POP SWAP1 POP DUP1 PUSH2 0x307D JUMPI PUSH1 0x40 MLOAD PUSH3 0x461BCD PUSH1 0xE5 SHL DUP2 MSTORE PUSH1 0x20 PUSH1 0x4 DUP3 ADD MSTORE PUSH1 0x23 PUSH1 0x24 DUP3 ADD MSTORE PUSH32 0x5472616E7366657248656C7065723A204554485F5452414E534645525F464149 PUSH1 0x44 DUP3 ADD MSTORE PUSH3 0x131151 PUSH1 0xEA SHL PUSH1 0x64 DUP3 ADD MSTORE PUSH1 0x84 ADD PUSH2 0x917 JUMP JUMPDEST POP POP POP JUMP JUMPDEST PUSH1 0x20 DUP6 ADD MLOAD DUP6 MLOAD PUSH1 0x60 DUP8 ADD MLOAD PUSH1 0x40 DUP9 ADD MLOAD PUSH1 0x1 PUSH1 0x1 PUSH1 0x58 SHL SUB SWAP1 SWAP2 AND SWAP1 DUP4 ISZERO DUP1 ISZERO SWAP1 PUSH2 0x30BF JUMPI POP DUP1 PUSH1 0x1 PUSH1 0x1 PUSH1 0xA0 SHL SUB AND NUMBER PUSH1 0x1 PUSH1 0x1 PUSH1 0xA0 SHL SUB AND GT JUMPDEST DUP1 ISZERO PUSH2 0x30D3 JUMPI POP PUSH1 0x1 PUSH1 0x1 PUSH1 0xA0 SHL SUB DUP2 AND ISZERO ISZERO JUMPDEST ISZERO PUSH2 0x31C9 JUMPI PUSH1 0x0 PUSH2 0x30FB DUP6 DUP4 DUP6 PUSH2 0x30EC DUP9 DUP11 DUP16 DUP16 PUSH2 0x1A05 JUMP JUMPDEST PUSH1 0x1 PUSH1 0x1 PUSH1 0x58 SHL SUB AND DUP12 PUSH2 0x26A7 JUMP JUMPDEST PUSH1 0x2 SLOAD PUSH1 0x7 SLOAD SWAP2 SWAP3 POP PUSH2 0x3126 SWAP2 PUSH1 0x1 PUSH1 0x1 PUSH1 0xA0 SHL SUB SWAP2 DUP3 AND SWAP2 CALLER SWAP2 AND PUSH2 0x3121 DUP11 DUP7 PUSH2 0x3845 JUMP JUMPDEST PUSH2 0x2D67 JUMP JUMPDEST PUSH1 0x7 PUSH1 0x0 SWAP1 SLOAD SWAP1 PUSH2 0x100 EXP SWAP1 DIV PUSH1 0x1 PUSH1 0x1 PUSH1 0xA0 SHL SUB AND PUSH1 0x1 PUSH1 0x1 PUSH1 0xA0 SHL SUB AND PUSH4 0xB7694A93 PUSH1 0x40 MLOAD DUP2 PUSH4 0xFFFFFFFF AND PUSH1 0xE0 SHL DUP2 MSTORE PUSH1 0x4 ADD PUSH1 0x0 PUSH1 0x40 MLOAD DUP1 DUP4 SUB DUP2 PUSH1 0x0 DUP8 DUP1 EXTCODESIZE ISZERO DUP1 ISZERO PUSH2 0x3176 JUMPI PUSH1 0x0 DUP1 REVERT JUMPDEST POP GAS CALL ISZERO DUP1 ISZERO PUSH2 0x318A JUMPI RETURNDATASIZE PUSH1 0x0 DUP1 RETURNDATACOPY RETURNDATASIZE PUSH1 0x0 REVERT JUMPDEST POP POP POP POP PUSH32 0xD22F9C8C29C0808BE6387686AC52381992FDEEA23A23843E31EE581E65304182 DUP2 PUSH1 0x40 MLOAD PUSH2 0x31BF SWAP2 DUP2 MSTORE PUSH1 0x20 ADD SWAP1 JUMP JUMPDEST PUSH1 0x40 MLOAD DUP1 SWAP2 SUB SWAP1 LOG1 POP JUMPDEST POP POP POP POP POP POP POP POP POP JUMP JUMPDEST DUP1 CALLDATALOAD PUSH2 0x31DF DUP2 PUSH2 0x39CC JUMP JUMPDEST SWAP2 SWAP1 POP JUMP JUMPDEST DUP1 CALLDATALOAD PUSH2 0x31DF DUP2 PUSH2 0x39B4 JUMP JUMPDEST DUP1 CALLDATALOAD PUSH1 0x1 PUSH1 0x1 PUSH1 0x50 SHL SUB DUP2 AND DUP2 EQ PUSH2 0x31DF JUMPI PUSH1 0x0 DUP1 REVERT JUMPDEST DUP1 CALLDATALOAD PUSH1 0x1 PUSH1 0x1 PUSH1 0x58 SHL SUB DUP2 AND DUP2 EQ PUSH2 0x31DF JUMPI PUSH1 0x0 DUP1 REVERT JUMPDEST DUP1 CALLDATALOAD PUSH1 0x1 PUSH1 0x1 PUSH1 0x60 SHL SUB DUP2 AND DUP2 EQ PUSH2 0x31DF JUMPI PUSH1 0x0 DUP1 REVERT JUMPDEST PUSH1 0x0 PUSH1 0x20 DUP3 DUP5 SUB SLT ISZERO PUSH2 0x3245 JUMPI DUP1 DUP2 REVERT JUMPDEST DUP2 CALLDATALOAD PUSH2 0x3250 DUP2 PUSH2 0x39B4 JUMP JUMPDEST SWAP4 SWAP3 POP POP POP JUMP JUMPDEST PUSH1 0x0 DUP1 PUSH1 0x40 DUP4 DUP6 SUB SLT ISZERO PUSH2 0x3269 JUMPI DUP1 DUP2 REVERT JUMPDEST DUP3 CALLDATALOAD PUSH2 0x3274 DUP2 PUSH2 0x39B4 JUMP JUMPDEST SWAP2 POP PUSH1 0x20 DUP4 ADD CALLDATALOAD PUSH2 0x3284 DUP2 PUSH2 0x39B4 JUMP JUMPDEST DUP1 SWAP2 POP POP SWAP3 POP SWAP3 SWAP1 POP JUMP JUMPDEST PUSH1 0x0 DUP1 PUSH1 0x0 DUP1 PUSH1 0x80 DUP6 DUP8 SUB SLT ISZERO PUSH2 0x32A4 JUMPI DUP2 DUP3 REVERT JUMPDEST DUP5 CALLDATALOAD PUSH2 0x32AF DUP2 PUSH2 0x39B4 JUMP JUMPDEST SWAP4 POP PUSH1 0x20 DUP6 ADD CALLDATALOAD PUSH2 0x32BF DUP2 PUSH2 0x39B4 JUMP JUMPDEST SWAP4 SWAP7 SWAP4 SWAP6 POP POP POP POP PUSH1 0x40 DUP3 ADD CALLDATALOAD SWAP2 PUSH1 0x60 ADD CALLDATALOAD SWAP1 JUMP JUMPDEST PUSH1 0x0 DUP1 PUSH1 0x40 DUP4 DUP6 SUB SLT ISZERO PUSH2 0x32E6 JUMPI DUP2 DUP3 REVERT JUMPDEST DUP3 CALLDATALOAD PUSH2 0x32F1 DUP2 PUSH2 0x39B4 JUMP JUMPDEST SWAP2 POP PUSH1 0x20 DUP4 ADD CALLDATALOAD PUSH2 0x3284 DUP2 PUSH2 0x39CC JUMP JUMPDEST PUSH1 0x0 DUP1 PUSH1 0x40 DUP4 DUP6 SUB SLT ISZERO PUSH2 0x3313 JUMPI DUP2 DUP3 REVERT JUMPDEST DUP3 CALLDATALOAD PUSH2 0x331E DUP2 PUSH2 0x39B4 JUMP JUMPDEST SWAP5 PUSH1 0x20 SWAP4 SWAP1 SWAP4 ADD CALLDATALOAD SWAP4 POP POP POP JUMP JUMPDEST PUSH1 0x0 DUP1 PUSH1 0x0 PUSH1 0x60 DUP5 DUP7 SUB SLT ISZERO PUSH2 0x3340 JUMPI DUP3 DUP4 REVERT JUMPDEST DUP4 CALLDATALOAD PUSH2 0x334B DUP2 PUSH2 0x39B4 JUMP JUMPDEST SWAP3 POP PUSH1 0x20 DUP5 ADD CALLDATALOAD SWAP2 POP PUSH1 0x40 DUP5 ADD CALLDATALOAD PUSH2 0x3362 DUP2 PUSH2 0x39B4 JUMP JUMPDEST DUP1 SWAP2 POP POP SWAP3 POP SWAP3 POP SWAP3 JUMP JUMPDEST PUSH1 0x0 DUP1 PUSH1 0x0 DUP1 PUSH1 0x0 PUSH1 0xA0 DUP7 DUP9 SUB SLT ISZERO PUSH2 0x3384 JUMPI DUP1 DUP2 REVERT JUMPDEST DUP6 CALLDATALOAD PUSH2 0x338F DUP2 PUSH2 0x39B4 JUMP JUMPDEST SWAP5 POP PUSH1 0x20 DUP7 ADD CALLDATALOAD SWAP4 POP PUSH1 0x40 DUP7 ADD CALLDATALOAD SWAP3 POP PUSH2 0x33AB PUSH1 0x60 DUP8 ADD PUSH2 0x3206 JUMP JUMPDEST SWAP2 POP PUSH1 0x80 DUP7 ADD CALLDATALOAD PUSH2 0x33BB DUP2 PUSH2 0x39B4 JUMP JUMPDEST DUP1 SWAP2 POP POP SWAP3 SWAP6 POP SWAP3 SWAP6 SWAP1 SWAP4 POP JUMP JUMPDEST PUSH1 0x0 DUP1 PUSH1 0x0 PUSH1 0x60 DUP5 DUP7 SUB SLT ISZERO PUSH2 0x33DD JUMPI DUP3 DUP4 REVERT JUMPDEST DUP4 CALLDATALOAD PUSH2 0x33E8 DUP2 PUSH2 0x39B4 JUMP JUMPDEST SWAP3 POP PUSH1 0x20 DUP5 ADD CALLDATALOAD SWAP2 POP PUSH2 0x33FD PUSH1 0x40 DUP6 ADD PUSH2 0x3206 JUMP JUMPDEST SWAP1 POP SWAP3 POP SWAP3 POP SWAP3 JUMP JUMPDEST PUSH1 0x0 DUP1 PUSH1 0x40 DUP4 DUP6 SUB SLT ISZERO PUSH2 0x3418 JUMPI DUP2 DUP3 REVERT JUMPDEST DUP3 CALLDATALOAD PUSH2 0x3423 DUP2 PUSH2 0x39B4 JUMP JUMPDEST SWAP2 POP PUSH2 0x3431 PUSH1 0x20 DUP5 ADD PUSH2 0x31EF JUMP JUMPDEST SWAP1 POP SWAP3 POP SWAP3 SWAP1 POP JUMP JUMPDEST PUSH1 0x0 DUP1 PUSH1 0x40 DUP4 DUP6 SUB SLT ISZERO PUSH2 0x344C JUMPI DUP2 DUP3 REVERT JUMPDEST DUP3 CALLDATALOAD PUSH2 0x3457 DUP2 PUSH2 0x39B4 JUMP JUMPDEST SWAP2 POP PUSH2 0x3431 PUSH1 0x20 DUP5 ADD PUSH2 0x3206 JUMP JUMPDEST PUSH1 0x0 DUP1 PUSH1 0x0 DUP1 PUSH1 0x80 DUP6 DUP8 SUB SLT ISZERO PUSH2 0x347A JUMPI DUP2 DUP3 REVERT JUMPDEST DUP5 CALLDATALOAD PUSH2 0x3485 DUP2 PUSH2 0x39B4 JUMP JUMPDEST SWAP4 POP PUSH2 0x3493 PUSH1 0x20 DUP7 ADD PUSH2 0x321D JUMP JUMPDEST SWAP3 POP PUSH1 0x40 DUP6 ADD CALLDATALOAD PUSH2 0x34A3 DUP2 PUSH2 0x39B4 JUMP JUMPDEST SWAP2 POP PUSH2 0x34B1 PUSH1 0x60 DUP7 ADD PUSH2 0x321D JUMP JUMPDEST SWAP1 POP SWAP3 SWAP6 SWAP2 SWAP5 POP SWAP3 POP JUMP JUMPDEST PUSH1 0x0 PUSH1 0x20 DUP3 DUP5 SUB SLT ISZERO PUSH2 0x34CD JUMPI DUP1 DUP2 REVERT JUMPDEST DUP2 MLOAD PUSH2 0x3250 DUP2 PUSH2 0x39CC JUMP JUMPDEST PUSH1 0x0 DUP1 PUSH1 0x0 DUP1 PUSH1 0x0 DUP6 DUP8 SUB PUSH2 0x120 DUP2 SLT ISZERO PUSH2 0x34F1 JUMPI DUP4 DUP5 REVERT JUMPDEST PUSH1 0xA0 DUP2 SLT ISZERO PUSH2 0x34FE JUMPI DUP4 DUP5 REVERT JUMPDEST POP PUSH1 0x40 MLOAD PUSH1 0xA0 DUP2 ADD DUP2 DUP2 LT PUSH8 0xFFFFFFFFFFFFFFFF DUP3 GT OR ISZERO PUSH2 0x352E JUMPI PUSH4 0x4E487B71 PUSH1 0xE0 SHL DUP6 MSTORE PUSH1 0x41 PUSH1 0x4 MSTORE PUSH1 0x24 DUP6 REVERT JUMPDEST DUP1 PUSH1 0x40 MSTORE POP DUP7 CALLDATALOAD DUP2 MSTORE PUSH1 0x20 DUP8 ADD CALLDATALOAD PUSH1 0x20 DUP3 ADD MSTORE PUSH2 0x354D PUSH1 0x40 DUP9 ADD PUSH2 0x31E4 JUMP JUMPDEST PUSH1 0x40 DUP3 ADD MSTORE PUSH2 0x355E PUSH1 0x60 DUP9 ADD PUSH2 0x3206 JUMP JUMPDEST PUSH1 0x60 DUP3 ADD MSTORE PUSH2 0x356F PUSH1 0x80 DUP9 ADD PUSH2 0x31D4 JUMP JUMPDEST PUSH1 0x80 DUP3 ADD MSTORE SWAP5 POP PUSH1 0xA0 DUP7 ADD CALLDATALOAD SWAP4 POP PUSH1 0xC0 DUP7 ADD CALLDATALOAD SWAP3 POP PUSH2 0x3590 PUSH1 0xE0 DUP8 ADD PUSH2 0x31EF JUMP JUMPDEST SWAP2 POP PUSH2 0x359F PUSH2 0x100 DUP8 ADD PUSH2 0x31EF JUMP JUMPDEST SWAP1 POP SWAP3 SWAP6 POP SWAP3 SWAP6 SWAP1 SWAP4 POP JUMP JUMPDEST PUSH1 0x0 DUP1 PUSH1 0x0 DUP1 PUSH1 0x0 PUSH1 0xA0 DUP7 DUP9 SUB SLT ISZERO PUSH2 0x35C2 JUMPI DUP3 DUP4 REVERT JUMPDEST DUP6 CALLDATALOAD SWAP5 POP PUSH1 0x20 DUP7 ADD CALLDATALOAD PUSH2 0x35D4 DUP2 PUSH2 0x39B4 JUMP JUMPDEST SWAP4 POP PUSH1 0x40 DUP7 ADD CALLDATALOAD SWAP3 POP PUSH1 0x60 DUP7 ADD CALLDATALOAD SWAP2 POP PUSH2 0x359F PUSH1 0x80 DUP8 ADD PUSH2 0x31EF JUMP JUMPDEST PUSH1 0x0 DUP1 PUSH1 0x40 DUP4 DUP6 SUB SLT ISZERO PUSH2 0x3602 JUMPI DUP2 DUP3 REVERT JUMPDEST POP POP DUP1 MLOAD PUSH1 0x20 SWAP1 SWAP2 ADD MLOAD SWAP1 SWAP3 SWAP1 SWAP2 POP JUMP JUMPDEST PUSH1 0x0 DUP1 PUSH1 0x0 DUP1 PUSH1 0x80 DUP6 DUP8 SUB SLT ISZERO PUSH2 0x3628 JUMPI DUP2 DUP3 REVERT JUMPDEST POP POP DUP3 CALLDATALOAD SWAP5 PUSH1 0x20 DUP5 ADD CALLDATALOAD SWAP5 POP PUSH1 0x40 DUP5 ADD CALLDATALOAD SWAP4 PUSH1 0x60 ADD CALLDATALOAD SWAP3 POP SWAP1 POP JUMP JUMPDEST PUSH1 0x0 PUSH1 0x20 DUP3 DUP5 SUB SLT ISZERO PUSH2 0x3655 JUMPI DUP1 DUP2 REVERT JUMPDEST DUP2 MLOAD PUSH1 0xFF DUP2 AND DUP2 EQ PUSH2 0x3250 JUMPI DUP2 DUP3 REVERT JUMPDEST PUSH1 0x0 PUSH1 0x20 DUP3 DUP5 SUB SLT ISZERO PUSH2 0x3676 JUMPI DUP1 DUP2 REVERT JUMPDEST PUSH2 0x3250 DUP3 PUSH2 0x321D JUMP JUMPDEST PUSH1 0x0 DUP3 MLOAD DUP2 JUMPDEST DUP2 DUP2 LT ISZERO PUSH2 0x369F JUMPI PUSH1 0x20 DUP2 DUP7 ADD DUP2 ADD MLOAD DUP6 DUP4 ADD MSTORE ADD PUSH2 0x3685 JUMP JUMPDEST DUP2 DUP2 GT ISZERO PUSH2 0x36AD JUMPI DUP3 DUP3 DUP6 ADD MSTORE JUMPDEST POP SWAP2 SWAP1 SWAP2 ADD SWAP3 SWAP2 POP POP JUMP JUMPDEST PUSH1 0x1 PUSH1 0x1 PUSH1 0xA0 SHL SUB SWAP3 SWAP1 SWAP3 AND DUP3 MSTORE PUSH1 0x20 DUP3 ADD MSTORE PUSH1 0x40 ADD SWAP1 JUMP JUMPDEST PUSH1 0x1 PUSH1 0x1 PUSH1 0xA0 SHL SUB SWAP7 SWAP1 SWAP7 AND DUP7 MSTORE PUSH1 0x20 DUP7 ADD SWAP5 SWAP1 SWAP5 MSTORE PUSH1 0x40 DUP6 ADD SWAP3 SWAP1 SWAP3 MSTORE PUSH1 0x60 DUP5 ADD MSTORE PUSH1 0x80 DUP4 ADD MSTORE PUSH1 0x1 PUSH1 0x1 PUSH1 0x58 SHL SUB AND PUSH1 0xA0 DUP3 ADD MSTORE PUSH1 0xC0 ADD SWAP1 JUMP JUMPDEST PUSH1 0x20 DUP1 DUP3 MSTORE PUSH1 0x18 SWAP1 DUP3 ADD MSTORE PUSH32 0x4C6F673A4D6F727467616765506F6F6C3A21616D6F756E740000000000000000 PUSH1 0x40 DUP3 ADD MSTORE PUSH1 0x60 ADD SWAP1 JUMP JUMPDEST PUSH1 0x20 DUP1 DUP3 MSTORE PUSH1 0x19 SWAP1 DUP3 ADD MSTORE PUSH32 0x4C6F673A5061726173736574426173653A215F6C6F636B656400000000000000 PUSH1 0x40 DUP3 ADD MSTORE PUSH1 0x60 ADD SWAP1 JUMP JUMPDEST PUSH1 0x20 DUP1 DUP3 MSTORE PUSH1 0x19 SWAP1 DUP3 ADD MSTORE PUSH32 0x4C6F673A4D6F727467616765506F6F6C3A216372656174656400000000000000 PUSH1 0x40 DUP3 ADD MSTORE PUSH1 0x60 ADD SWAP1 JUMP JUMPDEST PUSH1 0x20 DUP1 DUP3 MSTORE PUSH1 0x15 SWAP1 DUP3 ADD MSTORE PUSH21 0x2637B39D2830B930B9B9B2BA2130B9B29D10B3B7BB PUSH1 0x59 SHL PUSH1 0x40 DUP3 ADD MSTORE PUSH1 0x60 ADD SWAP1 JUMP JUMPDEST PUSH1 0x20 DUP1 DUP3 MSTORE PUSH1 0x1F SWAP1 DUP3 ADD MSTORE PUSH32 0x4C6F673A4D6F727467616765506F6F6C3A216D6F727467616765416C6C6F7700 PUSH1 0x40 DUP3 ADD MSTORE PUSH1 0x60 ADD SWAP1 JUMP JUMPDEST PUSH1 0x20 DUP1 DUP3 MSTORE PUSH1 0x13 SWAP1 DUP3 ADD MSTORE PUSH19 0x4C6F673A4D6F727467616765506F6F6C3A213 PUSH1 0x6C SHL PUSH1 0x40 DUP3 ADD MSTORE PUSH1 0x60 ADD SWAP1 JUMP JUMPDEST PUSH1 0x0 DUP3 NOT DUP3 GT ISZERO PUSH2 0x3858 JUMPI PUSH2 0x3858 PUSH2 0x399E JUMP JUMPDEST POP ADD SWAP1 JUMP JUMPDEST PUSH1 0x0 DUP3 PUSH2 0x3878 JUMPI PUSH4 0x4E487B71 PUSH1 0xE0 SHL DUP2 MSTORE PUSH1 0x12 PUSH1 0x4 MSTORE PUSH1 0x24 DUP2 REVERT JUMPDEST POP DIV SWAP1 JUMP JUMPDEST PUSH1 0x1 DUP2 DUP2 JUMPDEST DUP1 DUP6 GT ISZERO PUSH2 0x38B8 JUMPI DUP2 PUSH1 0x0 NOT DIV DUP3 GT ISZERO PUSH2 0x389E JUMPI PUSH2 0x389E PUSH2 0x399E JUMP JUMPDEST DUP1 DUP6 AND ISZERO PUSH2 0x38AB JUMPI SWAP2 DUP2 MUL SWAP2 JUMPDEST SWAP4 DUP5 SHR SWAP4 SWAP1 DUP1 MUL SWAP1 PUSH2 0x3882 JUMP JUMPDEST POP SWAP3 POP SWAP3 SWAP1 POP JUMP JUMPDEST PUSH1 0x0 PUSH2 0x3250 DUP4 DUP4 PUSH1 0x0 DUP3 PUSH2 0x38D6 JUMPI POP PUSH1 0x1 PUSH2 0x872 JUMP JUMPDEST DUP2 PUSH2 0x38E3 JUMPI POP PUSH1 0x0 PUSH2 0x872 JUMP JUMPDEST DUP2 PUSH1 0x1 DUP2 EQ PUSH2 0x38F9 JUMPI PUSH1 0x2 DUP2 EQ PUSH2 0x3903 JUMPI PUSH2 0x391F JUMP JUMPDEST PUSH1 0x1 SWAP2 POP POP PUSH2 0x872 JUMP JUMPDEST PUSH1 0xFF DUP5 GT ISZERO PUSH2 0x3914 JUMPI PUSH2 0x3914 PUSH2 0x399E JUMP JUMPDEST POP POP PUSH1 0x1 DUP3 SHL PUSH2 0x872 JUMP JUMPDEST POP PUSH1 0x20 DUP4 LT PUSH2 0x133 DUP4 LT AND PUSH1 0x4E DUP5 LT PUSH1 0xB DUP5 LT AND OR ISZERO PUSH2 0x3942 JUMPI POP DUP2 DUP2 EXP PUSH2 0x872 JUMP JUMPDEST PUSH2 0x394C DUP4 DUP4 PUSH2 0x387D JUMP JUMPDEST DUP1 PUSH1 0x0 NOT DIV DUP3 GT ISZERO PUSH2 0x3960 JUMPI PUSH2 0x3960 PUSH2 0x399E JUMP JUMPDEST MUL SWAP4 SWAP3 POP POP POP JUMP JUMPDEST PUSH1 0x0 DUP2 PUSH1 0x0 NOT DIV DUP4 GT DUP3 ISZERO ISZERO AND ISZERO PUSH2 0x3982 JUMPI PUSH2 0x3982 PUSH2 0x399E JUMP JUMPDEST POP MUL SWAP1 JUMP JUMPDEST PUSH1 0x0 DUP3 DUP3 LT ISZERO PUSH2 0x3999 JUMPI PUSH2 0x3999 PUSH2 0x399E JUMP JUMPDEST POP SUB SWAP1 JUMP JUMPDEST PUSH4 0x4E487B71 PUSH1 0xE0 SHL PUSH1 0x0 MSTORE PUSH1 0x11 PUSH1 0x4 MSTORE PUSH1 0x24 PUSH1 0x0 REVERT JUMPDEST PUSH1 0x1 PUSH1 0x1 PUSH1 0xA0 SHL SUB DUP2 AND DUP2 EQ PUSH2 0x39C9 JUMPI PUSH1 0x0 DUP1 REVERT JUMPDEST POP JUMP JUMPDEST DUP1 ISZERO ISZERO DUP2 EQ PUSH2 0x39C9 JUMPI PUSH1 0x0 DUP1 REVERT INVALID CALLDATASIZE 0xB0 DUP14 0x1E 0xC8 0xEC 0xD5 DUP9 STOP PUSH30 0x14EA5BE9EDB9EEB4CDD2F952162D2D32D4B71A0126A2A264697066735822 SLT KECCAK256 CALLCODE 0xC7 0xB2 0xDF CALLDATALOAD EXTCODESIZE PUSH25 0xE959908BC5EF412FE66CCA0FA72D63F8DDAA07510F9B6DA2FA PUSH5 0x736F6C6343 STOP ADDMOD DIV STOP CALLER "
		},
		"gasEstimates": {
			"creation": {
				"codeDepositCost": "2979200",
				"executionCost": "3271",
				"totalCost": "2982471"
			},
			"external": {
				"_checkLine((uint256,uint256,uint160,uint88,bool),uint256,uint256,uint80,uint80)": "infinite",
				"_governance()": "1139",
				"coin(address,uint256,uint88)": "infinite",
				"decrease(address,uint256)": "infinite",
				"getDecimalConversion(address,uint256,address)": "infinite",
				"getFee(uint256,uint160,uint256,uint256,uint80)": "infinite",
				"getFlag()": "1158",
				"getInfoRealTime(address,uint256,uint256,uint88,address)": "infinite",
				"getInsurancePool()": "1087",
				"getK(address)": "1312",
				"getLedger(address,address)": "infinite",
				"getLedgerAddress(address,uint256)": "2250",
				"getLedgerArrayNum(address)": "1327",
				"getMaxRate(address)": "1326",
				"getMortgageRate(uint256,uint256,uint256,uint256)": "infinite",
				"getOneYear()": "1081",
				"getPriceController()": "1110",
				"getPtokenAddress()": "1065",
				"getR0(address)": "1420",
				"getUnderlyingToken()": "1131",
				"increaseCoinage(address,uint256)": "infinite",
				"initialize(address)": "27142",
				"liquidation(address,address,uint256,uint256)": "infinite",
				"reducedCoinage(address,uint256)": "infinite",
				"setConfig(address,uint96,address,uint96)": "infinite",
				"setFlag(uint96)": "infinite",
				"setInfo(address,address)": "infinite",
				"setInsurancePool(address)": "infinite",
				"setK(address,uint80)": "infinite",
				"setMaxRate(address,uint88)": "infinite",
				"setMortgageAllow(address,bool)": "infinite",
				"setOneYear(uint96)": "infinite",
				"setPriceController(address)": "infinite",
				"setR0(address,uint80)": "infinite",
				"supplement(address,uint256)": "infinite",
				"update(address)": "infinite"
			},
			"internal": {
				"getPriceForPToken(address,uint256)": "infinite",
				"transferFee(struct MortgagePool.PersonalLedger memory,uint256,uint256,uint80,uint256)": "infinite"
			}
		},
		"methodIdentifiers": {
			"_checkLine((uint256,uint256,uint160,uint88,bool),uint256,uint256,uint80,uint80)": "bd2741c8",
			"_governance()": "1c2f3e3d",
			"coin(address,uint256,uint88)": "3a97bb25",
			"decrease(address,uint256)": "f27ac4d9",
			"getDecimalConversion(address,uint256,address)": "f9081591",
			"getFee(uint256,uint160,uint256,uint256,uint80)": "e82c1f44",
			"getFlag()": "f9633930",
			"getInfoRealTime(address,uint256,uint256,uint88,address)": "800c2b39",
			"getInsurancePool()": "d0d5665b",
			"getK(address)": "1e0f6725",
			"getLedger(address,address)": "25404c4f",
			"getLedgerAddress(address,uint256)": "03000aa4",
			"getLedgerArrayNum(address)": "a831407f",
			"getMaxRate(address)": "a99c53b3",
			"getMortgageRate(uint256,uint256,uint256,uint256)": "7ff4d02f",
			"getOneYear()": "f1a4252e",
			"getPriceController()": "3cf045a4",
			"getPtokenAddress()": "cc000a1a",
			"getR0(address)": "90f5cb09",
			"getUnderlyingToken()": "ee719bc8",
			"increaseCoinage(address,uint256)": "983825de",
			"initialize(address)": "c4d66de8",
			"liquidation(address,address,uint256,uint256)": "219f7753",
			"reducedCoinage(address,uint256)": "78a35320",
			"setConfig(address,uint96,address,uint96)": "0daa6d11",
			"setFlag(uint96)": "306aceda",
			"setInfo(address,address)": "fb606f92",
			"setInsurancePool(address)": "a94c487e",
			"setK(address,uint80)": "28107acf",
			"setMaxRate(address,uint88)": "5e0ec98f",
			"setMortgageAllow(address,bool)": "c2862d67",
			"setOneYear(uint96)": "3376cb37",
			"setPriceController(address)": "3f849820",
			"setR0(address,uint80)": "beefcbcf",
			"supplement(address,uint256)": "a240b9a8",
			"update(address)": "1c1b8772"
		}
	},
	"abi": [
		{
			"anonymous": false,
			"inputs": [
				{
					"indexed": false,
					"internalType": "uint256",
					"name": "value",
					"type": "uint256"
				}
			],
			"name": "FeeValue",
			"type": "event"
		},
		{
			"anonymous": false,
			"inputs": [
				{
					"indexed": false,
					"internalType": "address",
					"name": "mToken",
					"type": "address"
				},
				{
					"indexed": false,
					"internalType": "uint256",
					"name": "mTokenAmount",
					"type": "uint256"
				},
				{
					"indexed": false,
					"internalType": "uint256",
					"name": "pTokenAmount",
					"type": "uint256"
				},
				{
					"indexed": false,
					"internalType": "uint256",
					"name": "tokenPrice",
					"type": "uint256"
				},
				{
					"indexed": false,
					"internalType": "uint256",
					"name": "pTokenPrice",
					"type": "uint256"
				},
				{
					"indexed": false,
					"internalType": "uint88",
					"name": "rate",
					"type": "uint88"
				}
			],
			"name": "LedgerLog",
			"type": "event"
		},
		{
			"inputs": [
				{
					"components": [
						{
							"internalType": "uint256",
							"name": "mortgageAssets",
							"type": "uint256"
						},
						{
							"internalType": "uint256",
							"name": "parassetAssets",
							"type": "uint256"
						},
						{
							"internalType": "uint160",
							"name": "blockHeight",
							"type": "uint160"
						},
						{
							"internalType": "uint88",
							"name": "rate",
							"type": "uint88"
						},
						{
							"internalType": "bool",
							"name": "created",
							"type": "bool"
						}
					],
					"internalType": "struct MortgagePool.PersonalLedger",
					"name": "pLedger",
					"type": "tuple"
				},
				{
					"internalType": "uint256",
					"name": "tokenPrice",
					"type": "uint256"
				},
				{
					"internalType": "uint256",
					"name": "pTokenPrice",
					"type": "uint256"
				},
				{
					"internalType": "uint80",
					"name": "kValue",
					"type": "uint80"
				},
				{
					"internalType": "uint80",
					"name": "r0Value",
					"type": "uint80"
				}
			],
			"name": "_checkLine",
			"outputs": [],
			"stateMutability": "view",
			"type": "function"
		},
		{
			"inputs": [],
			"name": "_governance",
			"outputs": [
				{
					"internalType": "address",
					"name": "",
					"type": "address"
				}
			],
			"stateMutability": "view",
			"type": "function"
		},
		{
			"inputs": [
				{
					"internalType": "address",
					"name": "mortgageToken",
					"type": "address"
				},
				{
					"internalType": "uint256",
					"name": "amount",
					"type": "uint256"
				},
				{
					"internalType": "uint88",
					"name": "rate",
					"type": "uint88"
				}
			],
			"name": "coin",
			"outputs": [],
			"stateMutability": "payable",
			"type": "function"
		},
		{
			"inputs": [
				{
					"internalType": "address",
					"name": "mortgageToken",
					"type": "address"
				},
				{
					"internalType": "uint256",
					"name": "amount",
					"type": "uint256"
				}
			],
			"name": "decrease",
			"outputs": [],
			"stateMutability": "payable",
			"type": "function"
		},
		{
			"inputs": [
				{
					"internalType": "address",
					"name": "inputToken",
					"type": "address"
				},
				{
					"internalType": "uint256",
					"name": "inputTokenAmount",
					"type": "uint256"
				},
				{
					"internalType": "address",
					"name": "outputToken",
					"type": "address"
				}
			],
			"name": "getDecimalConversion",
			"outputs": [
				{
					"internalType": "uint256",
					"name": "",
					"type": "uint256"
				}
			],
			"stateMutability": "view",
			"type": "function"
		},
		{
			"inputs": [
				{
					"internalType": "uint256",
					"name": "parassetAssets",
					"type": "uint256"
				},
				{
					"internalType": "uint160",
					"name": "blockHeight",
					"type": "uint160"
				},
				{
					"internalType": "uint256",
					"name": "rate",
					"type": "uint256"
				},
				{
					"internalType": "uint256",
					"name": "nowRate",
					"type": "uint256"
				},
				{
					"internalType": "uint80",
					"name": "r0Value",
					"type": "uint80"
				}
			],
			"name": "getFee",
			"outputs": [
				{
					"internalType": "uint256",
					"name": "",
					"type": "uint256"
				}
			],
			"stateMutability": "view",
			"type": "function"
		},
		{
			"inputs": [],
			"name": "getFlag",
			"outputs": [
				{
					"internalType": "uint96",
					"name": "",
					"type": "uint96"
				}
			],
			"stateMutability": "view",
			"type": "function"
		},
		{
			"inputs": [
				{
					"internalType": "address",
					"name": "mortgageToken",
					"type": "address"
				},
				{
					"internalType": "uint256",
					"name": "tokenPrice",
					"type": "uint256"
				},
				{
					"internalType": "uint256",
					"name": "uTokenPrice",
					"type": "uint256"
				},
				{
					"internalType": "uint88",
					"name": "maxRateNum",
					"type": "uint88"
				},
				{
					"internalType": "address",
					"name": "owner",
					"type": "address"
				}
			],
			"name": "getInfoRealTime",
			"outputs": [
				{
					"internalType": "uint256",
					"name": "fee",
					"type": "uint256"
				},
				{
					"internalType": "uint256",
					"name": "mortgageRate",
					"type": "uint256"
				},
				{
					"internalType": "uint256",
					"name": "maxSubM",
					"type": "uint256"
				},
				{
					"internalType": "uint256",
					"name": "maxAddP",
					"type": "uint256"
				}
			],
			"stateMutability": "view",
			"type": "function"
		},
		{
			"inputs": [],
			"name": "getInsurancePool",
			"outputs": [
				{
					"internalType": "address",
					"name": "",
					"type": "address"
				}
			],
			"stateMutability": "view",
			"type": "function"
		},
		{
			"inputs": [
				{
					"internalType": "address",
					"name": "mortgageToken",
					"type": "address"
				}
			],
			"name": "getK",
			"outputs": [
				{
					"internalType": "uint256",
					"name": "",
					"type": "uint256"
				}
			],
			"stateMutability": "view",
			"type": "function"
		},
		{
			"inputs": [
				{
					"internalType": "address",
					"name": "mortgageToken",
					"type": "address"
				},
				{
					"internalType": "address",
					"name": "owner",
					"type": "address"
				}
			],
			"name": "getLedger",
			"outputs": [
				{
					"internalType": "uint256",
					"name": "mortgageAssets",
					"type": "uint256"
				},
				{
					"internalType": "uint256",
					"name": "parassetAssets",
					"type": "uint256"
				},
				{
					"internalType": "uint160",
					"name": "blockHeight",
					"type": "uint160"
				},
				{
					"internalType": "uint88",
					"name": "rate",
					"type": "uint88"
				},
				{
					"internalType": "bool",
					"name": "created",
					"type": "bool"
				}
			],
			"stateMutability": "view",
			"type": "function"
		},
		{
			"inputs": [
				{
					"internalType": "address",
					"name": "mortgageToken",
					"type": "address"
				},
				{
					"internalType": "uint256",
					"name": "index",
					"type": "uint256"
				}
			],
			"name": "getLedgerAddress",
			"outputs": [
				{
					"internalType": "address",
					"name": "",
					"type": "address"
				}
			],
			"stateMutability": "view",
			"type": "function"
		},
		{
			"inputs": [
				{
					"internalType": "address",
					"name": "mortgageToken",
					"type": "address"
				}
			],
			"name": "getLedgerArrayNum",
			"outputs": [
				{
					"internalType": "uint256",
					"name": "",
					"type": "uint256"
				}
			],
			"stateMutability": "view",
			"type": "function"
		},
		{
			"inputs": [
				{
					"internalType": "address",
					"name": "mortgageToken",
					"type": "address"
				}
			],
			"name": "getMaxRate",
			"outputs": [
				{
					"internalType": "uint88",
					"name": "",
					"type": "uint88"
				}
			],
			"stateMutability": "view",
			"type": "function"
		},
		{
			"inputs": [
				{
					"internalType": "uint256",
					"name": "mortgageAssets",
					"type": "uint256"
				},
				{
					"internalType": "uint256",
					"name": "parassetAssets",
					"type": "uint256"
				},
				{
					"internalType": "uint256",
					"name": "tokenPrice",
					"type": "uint256"
				},
				{
					"internalType": "uint256",
					"name": "pTokenPrice",
					"type": "uint256"
				}
			],
			"name": "getMortgageRate",
			"outputs": [
				{
					"internalType": "uint88",
					"name": "",
					"type": "uint88"
				}
			],
			"stateMutability": "pure",
			"type": "function"
		},
		{
			"inputs": [],
			"name": "getOneYear",
			"outputs": [
				{
					"internalType": "uint96",
					"name": "",
					"type": "uint96"
				}
			],
			"stateMutability": "view",
			"type": "function"
		},
		{
			"inputs": [],
			"name": "getPriceController",
			"outputs": [
				{
					"internalType": "address",
					"name": "",
					"type": "address"
				}
			],
			"stateMutability": "view",
			"type": "function"
		},
		{
			"inputs": [],
			"name": "getPtokenAddress",
			"outputs": [
				{
					"internalType": "address",
					"name": "",
					"type": "address"
				}
			],
			"stateMutability": "view",
			"type": "function"
		},
		{
			"inputs": [
				{
					"internalType": "address",
					"name": "mortgageToken",
					"type": "address"
				}
			],
			"name": "getR0",
			"outputs": [
				{
					"internalType": "uint80",
					"name": "",
					"type": "uint80"
				}
			],
			"stateMutability": "view",
			"type": "function"
		},
		{
			"inputs": [],
			"name": "getUnderlyingToken",
			"outputs": [
				{
					"internalType": "address",
					"name": "",
					"type": "address"
				}
			],
			"stateMutability": "view",
			"type": "function"
		},
		{
			"inputs": [
				{
					"internalType": "address",
					"name": "mortgageToken",
					"type": "address"
				},
				{
					"internalType": "uint256",
					"name": "amount",
					"type": "uint256"
				}
			],
			"name": "increaseCoinage",
			"outputs": [],
			"stateMutability": "payable",
			"type": "function"
		},
		{
			"inputs": [
				{
					"internalType": "address",
					"name": "governance",
					"type": "address"
				}
			],
			"name": "initialize",
			"outputs": [],
			"stateMutability": "nonpayable",
			"type": "function"
		},
		{
			"inputs": [
				{
					"internalType": "address",
					"name": "mortgageToken",
					"type": "address"
				},
				{
					"internalType": "address",
					"name": "account",
					"type": "address"
				},
				{
					"internalType": "uint256",
					"name": "amount",
					"type": "uint256"
				},
				{
					"internalType": "uint256",
					"name": "pTokenAmountLimit",
					"type": "uint256"
				}
			],
			"name": "liquidation",
			"outputs": [],
			"stateMutability": "payable",
			"type": "function"
		},
		{
			"inputs": [
				{
					"internalType": "address",
					"name": "mortgageToken",
					"type": "address"
				},
				{
					"internalType": "uint256",
					"name": "amount",
					"type": "uint256"
				}
			],
			"name": "reducedCoinage",
			"outputs": [],
			"stateMutability": "payable",
			"type": "function"
		},
		{
			"inputs": [
				{
					"internalType": "address",
					"name": "pTokenAdd",
					"type": "address"
				},
				{
					"internalType": "uint96",
					"name": "oneYear",
					"type": "uint96"
				},
				{
					"internalType": "address",
					"name": "underlyingTokenAdd",
					"type": "address"
				},
				{
					"internalType": "uint96",
					"name": "flag",
					"type": "uint96"
				}
			],
			"name": "setConfig",
			"outputs": [],
			"stateMutability": "nonpayable",
			"type": "function"
		},
		{
			"inputs": [
				{
					"internalType": "uint96",
					"name": "num",
					"type": "uint96"
				}
			],
			"name": "setFlag",
			"outputs": [],
			"stateMutability": "nonpayable",
			"type": "function"
		},
		{
			"inputs": [
				{
					"internalType": "address",
					"name": "uToken",
					"type": "address"
				},
				{
					"internalType": "address",
					"name": "pToken",
					"type": "address"
				}
			],
			"name": "setInfo",
			"outputs": [],
			"stateMutability": "nonpayable",
			"type": "function"
		},
		{
			"inputs": [
				{
					"internalType": "address",
					"name": "add",
					"type": "address"
				}
			],
			"name": "setInsurancePool",
			"outputs": [],
			"stateMutability": "nonpayable",
			"type": "function"
		},
		{
			"inputs": [
				{
					"internalType": "address",
					"name": "mortgageToken",
					"type": "address"
				},
				{
					"internalType": "uint80",
					"name": "num",
					"type": "uint80"
				}
			],
			"name": "setK",
			"outputs": [],
			"stateMutability": "nonpayable",
			"type": "function"
		},
		{
			"inputs": [
				{
					"internalType": "address",
					"name": "mortgageToken",
					"type": "address"
				},
				{
					"internalType": "uint88",
					"name": "num",
					"type": "uint88"
				}
			],
			"name": "setMaxRate",
			"outputs": [],
			"stateMutability": "nonpayable",
			"type": "function"
		},
		{
			"inputs": [
				{
					"internalType": "address",
					"name": "mortgageToken",
					"type": "address"
				},
				{
					"internalType": "bool",
					"name": "allow",
					"type": "bool"
				}
			],
			"name": "setMortgageAllow",
			"outputs": [],
			"stateMutability": "nonpayable",
			"type": "function"
		},
		{
			"inputs": [
				{
					"internalType": "uint96",
					"name": "num",
					"type": "uint96"
				}
			],
			"name": "setOneYear",
			"outputs": [],
			"stateMutability": "nonpayable",
			"type": "function"
		},
		{
			"inputs": [
				{
					"internalType": "address",
					"name": "add",
					"type": "address"
				}
			],
			"name": "setPriceController",
			"outputs": [],
			"stateMutability": "nonpayable",
			"type": "function"
		},
		{
			"inputs": [
				{
					"internalType": "address",
					"name": "mortgageToken",
					"type": "address"
				},
				{
					"internalType": "uint80",
					"name": "num",
					"type": "uint80"
				}
			],
			"name": "setR0",
			"outputs": [],
			"stateMutability": "nonpayable",
			"type": "function"
		},
		{
			"inputs": [
				{
					"internalType": "address",
					"name": "mortgageToken",
					"type": "address"
				},
				{
					"internalType": "uint256",
					"name": "amount",
					"type": "uint256"
				}
			],
			"name": "supplement",
			"outputs": [],
			"stateMutability": "payable",
			"type": "function"
		},
		{
			"inputs": [
				{
					"internalType": "address",
					"name": "newGovernance",
					"type": "address"
				}
			],
			"name": "update",
			"outputs": [],
			"stateMutability": "nonpayable",
			"type": "function"
		}
	]
}