{
	"data": {
		"bytecode": {
			"linkReferences": {},
			"object": "608060405234801561001057600080fd5b50604051610c68380380610c6883398101604081905261002f9161007c565b600080546001600160a01b039384166001600160a01b031991821617909155600180549290931691161790556100ae565b80516001600160a01b038116811461007757600080fd5b919050565b6000806040838503121561008e578182fd5b61009783610060565b91506100a560208401610060565b90509250929050565b610bab806100bd6000396000f3fe6080604052600436106100345760003560e01c80630da33aa914610039578063bf5ca28a14610066578063f908159114610096575b600080fd5b61004c6100473660046108eb565b6100c4565b604080519283526020830191909152015b60405180910390f35b34801561007257600080fd5b506100866100813660046108b3565b6106a7565b604051901515815260200161005d565b3480156100a257600080fd5b506100b66100b1366004610935565b61074b565b60405190815260200161005d565b6000806001600160a01b0385166101d857600080546040516389f4d6e360e01b81526001600160a01b0387811660048301528681166024830152909116906389f4d6e39034906044016080604051808303818588803b15801561012657600080fd5b505af115801561013a573d6000803e3d6000fd5b50505050506040513d601f19601f8201168201806040525081019061015f919061096b565b5092505050600081116101b95760405162461bcd60e51b815260206004820152601960248201527f4c6f673a5072696365436f6e74726f6c6c65723a21617667310000000000000060448201526064015b60405180910390fd5b670de0b6b3a76400006101ce8683600061074b565b925092505061069f565b6001600160a01b0384166102d757600080546040516389f4d6e360e01b81526001600160a01b0388811660048301528681166024830152909116906389f4d6e39034906044016080604051808303818588803b15801561023757600080fd5b505af115801561024b573d6000803e3d6000fd5b50505050506040513d601f19601f82011682018060405250810190610270919061096b565b5092505050600081116102c55760405162461bcd60e51b815260206004820152601960248201527f4c6f673a5072696365436f6e74726f6c6c65723a21617667320000000000000060448201526064016101b0565b9150670de0b6b3a7640000905061069f565b6102e185856106a7565b156103ef5760008054604051634c29802960e01b81526001600160a01b038881166004830152868116602483015283921690634c298029903490604401610100604051808303818588803b15801561033857600080fd5b505af115801561034c573d6000803e3d6000fd5b50505050506040513d601f19601f8201168201806040525081019061037191906109a0565b5096505050509350505060008211801561038b5750600081115b6103d75760405162461bcd60e51b815260206004820152601960248201527f4c6f673a5072696365436f6e74726f6c6c65723a21617667330000000000000060448201526064016101b0565b816103e48783600061074b565b93509350505061069f565b6103f984866106a7565b156104fc5760008054604051634c29802960e01b81526001600160a01b038781166004830152868116602483015283921690634c298029903490604401610100604051808303818588803b15801561045057600080fd5b505af1158015610464573d6000803e3d6000fd5b50505050506040513d601f19601f8201168201806040525081019061048991906109a0565b509650505050935050506000821180156104a35750600081115b6104ef5760405162461bcd60e51b815260206004820152601960248201527f4c6f673a5072696365436f6e74726f6c6c65723a21617667340000000000000060448201526064016101b0565b806103e48784600061074b565b6000610509600234610a1d565b600080546040516389f4d6e360e01b81526001600160a01b038a811660048301528881166024830152939450919216906389f4d6e39084906044016080604051808303818588803b15801561055d57600080fd5b505af1158015610571573d6000803e3d6000fd5b50505050506040513d601f19601f82011682018060405250810190610596919061096b565b50600080546040516389f4d6e360e01b81526001600160a01b038c811660048301528b811660248301529396509194509190911691506389f4d6e39085906044016080604051808303818588803b1580156105f057600080fd5b505af1158015610604573d6000803e3d6000fd5b50505050506040513d601f19601f82011682018060405250810190610629919061096b565b509250505060008211801561063e5750600081115b61068a5760405162461bcd60e51b815260206004820152601960248201527f4c6f673a5072696365436f6e74726f6c6c65723a21617667350000000000000060448201526064016101b0565b816106978883600061074b565b945094505050505b935093915050565b60015460405163365383d360e11b81526001600160a01b03848116600483015260009284821692911690636ca707a69060240160206040518083038186803b1580156106f257600080fd5b505afa158015610706573d6000803e3d6000fd5b505050506040513d601f19601f8201168201806040525081019061072a9190610890565b6001600160a01b0316141561074157506001610745565b5060005b92915050565b60006012806001600160a01b038616156107d657856001600160a01b031663313ce5676040518163ffffffff1660e01b815260040160206040518083038186803b15801561079857600080fd5b505afa1580156107ac573d6000803e3d6000fd5b505050506040513d601f19601f820116820180604052508101906107d091906109fc565b60ff1691505b6001600160a01b0384161561085c57836001600160a01b031663313ce5676040518163ffffffff1660e01b815260040160206040518083038186803b15801561081e57600080fd5b505afa158015610832573d6000803e3d6000fd5b505050506040513d601f19601f8201168201806040525081019061085691906109fc565b60ff1690505b61086782600a610a80565b61087282600a610a80565b61087c9087610b28565b6108869190610a1d565b9695505050505050565b6000602082840312156108a1578081fd5b81516108ac81610b5d565b9392505050565b600080604083850312156108c5578081fd5b82356108d081610b5d565b915060208301356108e081610b5d565b809150509250929050565b6000806000606084860312156108ff578081fd5b833561090a81610b5d565b9250602084013561091a81610b5d565b9150604084013561092a81610b5d565b809150509250925092565b600080600060608486031215610949578283fd5b833561095481610b5d565b925060208401359150604084013561092a81610b5d565b60008060008060808587031215610980578081fd5b505082516020840151604085015160609095015191969095509092509050565b600080600080600080600080610100898b0312156109bc578384fd5b505086516020880151604089015160608a015160808b015160a08c015160c08d015160e0909d0151959e949d50929b919a50985090965094509092509050565b600060208284031215610a0d578081fd5b815160ff811681146108ac578182fd5b600082610a3857634e487b7160e01b81526012600452602481fd5b500490565b600181815b80851115610a78578160001904821115610a5e57610a5e610b47565b80851615610a6b57918102915b93841c9390800290610a42565b509250929050565b60006108ac8383600082610a9657506001610745565b81610aa357506000610745565b8160018114610ab95760028114610ac357610adf565b6001915050610745565b60ff841115610ad457610ad4610b47565b50506001821b610745565b5060208310610133831016604e8410600b8410161715610b02575081810a610745565b610b0c8383610a3d565b8060001904821115610b2057610b20610b47565b029392505050565b6000816000190483118215151615610b4257610b42610b47565b500290565b634e487b7160e01b600052601160045260246000fd5b6001600160a01b0381168114610b7257600080fd5b5056fea26469706673582212208f2cade93dd19c27e5ff2f68a786a4e575e81bea66aaf39415cda0fcc4bb26aa64736f6c63430008040033",
			"opcodes": "PUSH1 0x80 PUSH1 0x40 MSTORE CALLVALUE DUP1 ISZERO PUSH2 0x10 JUMPI PUSH1 0x0 DUP1 REVERT JUMPDEST POP PUSH1 0x40 MLOAD PUSH2 0xC68 CODESIZE SUB DUP1 PUSH2 0xC68 DUP4 CODECOPY DUP2 ADD PUSH1 0x40 DUP2 SWAP1 MSTORE PUSH2 0x2F SWAP2 PUSH2 0x7C JUMP JUMPDEST PUSH1 0x0 DUP1 SLOAD PUSH1 0x1 PUSH1 0x1 PUSH1 0xA0 SHL SUB SWAP4 DUP5 AND PUSH1 0x1 PUSH1 0x1 PUSH1 0xA0 SHL SUB NOT SWAP2 DUP3 AND OR SWAP1 SWAP2 SSTORE PUSH1 0x1 DUP1 SLOAD SWAP3 SWAP1 SWAP4 AND SWAP2 AND OR SWAP1 SSTORE PUSH2 0xAE JUMP JUMPDEST DUP1 MLOAD PUSH1 0x1 PUSH1 0x1 PUSH1 0xA0 SHL SUB DUP2 AND DUP2 EQ PUSH2 0x77 JUMPI PUSH1 0x0 DUP1 REVERT JUMPDEST SWAP2 SWAP1 POP JUMP JUMPDEST PUSH1 0x0 DUP1 PUSH1 0x40 DUP4 DUP6 SUB SLT ISZERO PUSH2 0x8E JUMPI DUP2 DUP3 REVERT JUMPDEST PUSH2 0x97 DUP4 PUSH2 0x60 JUMP JUMPDEST SWAP2 POP PUSH2 0xA5 PUSH1 0x20 DUP5 ADD PUSH2 0x60 JUMP JUMPDEST SWAP1 POP SWAP3 POP SWAP3 SWAP1 POP JUMP JUMPDEST PUSH2 0xBAB DUP1 PUSH2 0xBD PUSH1 0x0 CODECOPY PUSH1 0x0 RETURN INVALID PUSH1 0x80 PUSH1 0x40 MSTORE PUSH1 0x4 CALLDATASIZE LT PUSH2 0x34 JUMPI PUSH1 0x0 CALLDATALOAD PUSH1 0xE0 SHR DUP1 PUSH4 0xDA33AA9 EQ PUSH2 0x39 JUMPI DUP1 PUSH4 0xBF5CA28A EQ PUSH2 0x66 JUMPI DUP1 PUSH4 0xF9081591 EQ PUSH2 0x96 JUMPI JUMPDEST PUSH1 0x0 DUP1 REVERT JUMPDEST PUSH2 0x4C PUSH2 0x47 CALLDATASIZE PUSH1 0x4 PUSH2 0x8EB JUMP JUMPDEST PUSH2 0xC4 JUMP JUMPDEST PUSH1 0x40 DUP1 MLOAD SWAP3 DUP4 MSTORE PUSH1 0x20 DUP4 ADD SWAP2 SWAP1 SWAP2 MSTORE ADD JUMPDEST PUSH1 0x40 MLOAD DUP1 SWAP2 SUB SWAP1 RETURN JUMPDEST CALLVALUE DUP1 ISZERO PUSH2 0x72 JUMPI PUSH1 0x0 DUP1 REVERT JUMPDEST POP PUSH2 0x86 PUSH2 0x81 CALLDATASIZE PUSH1 0x4 PUSH2 0x8B3 JUMP JUMPDEST PUSH2 0x6A7 JUMP JUMPDEST PUSH1 0x40 MLOAD SWAP1 ISZERO ISZERO DUP2 MSTORE PUSH1 0x20 ADD PUSH2 0x5D JUMP JUMPDEST CALLVALUE DUP1 ISZERO PUSH2 0xA2 JUMPI PUSH1 0x0 DUP1 REVERT JUMPDEST POP PUSH2 0xB6 PUSH2 0xB1 CALLDATASIZE PUSH1 0x4 PUSH2 0x935 JUMP JUMPDEST PUSH2 0x74B JUMP JUMPDEST PUSH1 0x40 MLOAD SWAP1 DUP2 MSTORE PUSH1 0x20 ADD PUSH2 0x5D JUMP JUMPDEST PUSH1 0x0 DUP1 PUSH1 0x1 PUSH1 0x1 PUSH1 0xA0 SHL SUB DUP6 AND PUSH2 0x1D8 JUMPI PUSH1 0x0 DUP1 SLOAD PUSH1 0x40 MLOAD PUSH4 0x89F4D6E3 PUSH1 0xE0 SHL DUP2 MSTORE PUSH1 0x1 PUSH1 0x1 PUSH1 0xA0 SHL SUB DUP8 DUP2 AND PUSH1 0x4 DUP4 ADD MSTORE DUP7 DUP2 AND PUSH1 0x24 DUP4 ADD MSTORE SWAP1 SWAP2 AND SWAP1 PUSH4 0x89F4D6E3 SWAP1 CALLVALUE SWAP1 PUSH1 0x44 ADD PUSH1 0x80 PUSH1 0x40 MLOAD DUP1 DUP4 SUB DUP2 DUP6 DUP9 DUP1 EXTCODESIZE ISZERO DUP1 ISZERO PUSH2 0x126 JUMPI PUSH1 0x0 DUP1 REVERT JUMPDEST POP GAS CALL ISZERO DUP1 ISZERO PUSH2 0x13A JUMPI RETURNDATASIZE PUSH1 0x0 DUP1 RETURNDATACOPY RETURNDATASIZE PUSH1 0x0 REVERT JUMPDEST POP POP POP POP POP PUSH1 0x40 MLOAD RETURNDATASIZE PUSH1 0x1F NOT PUSH1 0x1F DUP3 ADD AND DUP3 ADD DUP1 PUSH1 0x40 MSTORE POP DUP2 ADD SWAP1 PUSH2 0x15F SWAP2 SWAP1 PUSH2 0x96B JUMP JUMPDEST POP SWAP3 POP POP POP PUSH1 0x0 DUP2 GT PUSH2 0x1B9 JUMPI PUSH1 0x40 MLOAD PUSH3 0x461BCD PUSH1 0xE5 SHL DUP2 MSTORE PUSH1 0x20 PUSH1 0x4 DUP3 ADD MSTORE PUSH1 0x19 PUSH1 0x24 DUP3 ADD MSTORE PUSH32 0x4C6F673A5072696365436F6E74726F6C6C65723A216176673100000000000000 PUSH1 0x44 DUP3 ADD MSTORE PUSH1 0x64 ADD JUMPDEST PUSH1 0x40 MLOAD DUP1 SWAP2 SUB SWAP1 REVERT JUMPDEST PUSH8 0xDE0B6B3A7640000 PUSH2 0x1CE DUP7 DUP4 PUSH1 0x0 PUSH2 0x74B JUMP JUMPDEST SWAP3 POP SWAP3 POP POP PUSH2 0x69F JUMP JUMPDEST PUSH1 0x1 PUSH1 0x1 PUSH1 0xA0 SHL SUB DUP5 AND PUSH2 0x2D7 JUMPI PUSH1 0x0 DUP1 SLOAD PUSH1 0x40 MLOAD PUSH4 0x89F4D6E3 PUSH1 0xE0 SHL DUP2 MSTORE PUSH1 0x1 PUSH1 0x1 PUSH1 0xA0 SHL SUB DUP9 DUP2 AND PUSH1 0x4 DUP4 ADD MSTORE DUP7 DUP2 AND PUSH1 0x24 DUP4 ADD MSTORE SWAP1 SWAP2 AND SWAP1 PUSH4 0x89F4D6E3 SWAP1 CALLVALUE SWAP1 PUSH1 0x44 ADD PUSH1 0x80 PUSH1 0x40 MLOAD DUP1 DUP4 SUB DUP2 DUP6 DUP9 DUP1 EXTCODESIZE ISZERO DUP1 ISZERO PUSH2 0x237 JUMPI PUSH1 0x0 DUP1 REVERT JUMPDEST POP GAS CALL ISZERO DUP1 ISZERO PUSH2 0x24B JUMPI RETURNDATASIZE PUSH1 0x0 DUP1 RETURNDATACOPY RETURNDATASIZE PUSH1 0x0 REVERT JUMPDEST POP POP POP POP POP PUSH1 0x40 MLOAD RETURNDATASIZE PUSH1 0x1F NOT PUSH1 0x1F DUP3 ADD AND DUP3 ADD DUP1 PUSH1 0x40 MSTORE POP DUP2 ADD SWAP1 PUSH2 0x270 SWAP2 SWAP1 PUSH2 0x96B JUMP JUMPDEST POP SWAP3 POP POP POP PUSH1 0x0 DUP2 GT PUSH2 0x2C5 JUMPI PUSH1 0x40 MLOAD PUSH3 0x461BCD PUSH1 0xE5 SHL DUP2 MSTORE PUSH1 0x20 PUSH1 0x4 DUP3 ADD MSTORE PUSH1 0x19 PUSH1 0x24 DUP3 ADD MSTORE PUSH32 0x4C6F673A5072696365436F6E74726F6C6C65723A216176673200000000000000 PUSH1 0x44 DUP3 ADD MSTORE PUSH1 0x64 ADD PUSH2 0x1B0 JUMP JUMPDEST SWAP2 POP PUSH8 0xDE0B6B3A7640000 SWAP1 POP PUSH2 0x69F JUMP JUMPDEST PUSH2 0x2E1 DUP6 DUP6 PUSH2 0x6A7 JUMP JUMPDEST ISZERO PUSH2 0x3EF JUMPI PUSH1 0x0 DUP1 SLOAD PUSH1 0x40 MLOAD PUSH4 0x4C298029 PUSH1 0xE0 SHL DUP2 MSTORE PUSH1 0x1 PUSH1 0x1 PUSH1 0xA0 SHL SUB DUP9 DUP2 AND PUSH1 0x4 DUP4 ADD MSTORE DUP7 DUP2 AND PUSH1 0x24 DUP4 ADD MSTORE DUP4 SWAP3 AND SWAP1 PUSH4 0x4C298029 SWAP1 CALLVALUE SWAP1 PUSH1 0x44 ADD PUSH2 0x100 PUSH1 0x40 MLOAD DUP1 DUP4 SUB DUP2 DUP6 DUP9 DUP1 EXTCODESIZE ISZERO DUP1 ISZERO PUSH2 0x338 JUMPI PUSH1 0x0 DUP1 REVERT JUMPDEST POP GAS CALL ISZERO DUP1 ISZERO PUSH2 0x34C JUMPI RETURNDATASIZE PUSH1 0x0 DUP1 RETURNDATACOPY RETURNDATASIZE PUSH1 0x0 REVERT JUMPDEST POP POP POP POP POP PUSH1 0x40 MLOAD RETURNDATASIZE PUSH1 0x1F NOT PUSH1 0x1F DUP3 ADD AND DUP3 ADD DUP1 PUSH1 0x40 MSTORE POP DUP2 ADD SWAP1 PUSH2 0x371 SWAP2 SWAP1 PUSH2 0x9A0 JUMP JUMPDEST POP SWAP7 POP POP POP POP SWAP4 POP POP POP PUSH1 0x0 DUP3 GT DUP1 ISZERO PUSH2 0x38B JUMPI POP PUSH1 0x0 DUP2 GT JUMPDEST PUSH2 0x3D7 JUMPI PUSH1 0x40 MLOAD PUSH3 0x461BCD PUSH1 0xE5 SHL DUP2 MSTORE PUSH1 0x20 PUSH1 0x4 DUP3 ADD MSTORE PUSH1 0x19 PUSH1 0x24 DUP3 ADD MSTORE PUSH32 0x4C6F673A5072696365436F6E74726F6C6C65723A216176673300000000000000 PUSH1 0x44 DUP3 ADD MSTORE PUSH1 0x64 ADD PUSH2 0x1B0 JUMP JUMPDEST DUP2 PUSH2 0x3E4 DUP8 DUP4 PUSH1 0x0 PUSH2 0x74B JUMP JUMPDEST SWAP4 POP SWAP4 POP POP POP PUSH2 0x69F JUMP JUMPDEST PUSH2 0x3F9 DUP5 DUP7 PUSH2 0x6A7 JUMP JUMPDEST ISZERO PUSH2 0x4FC JUMPI PUSH1 0x0 DUP1 SLOAD PUSH1 0x40 MLOAD PUSH4 0x4C298029 PUSH1 0xE0 SHL DUP2 MSTORE PUSH1 0x1 PUSH1 0x1 PUSH1 0xA0 SHL SUB DUP8 DUP2 AND PUSH1 0x4 DUP4 ADD MSTORE DUP7 DUP2 AND PUSH1 0x24 DUP4 ADD MSTORE DUP4 SWAP3 AND SWAP1 PUSH4 0x4C298029 SWAP1 CALLVALUE SWAP1 PUSH1 0x44 ADD PUSH2 0x100 PUSH1 0x40 MLOAD DUP1 DUP4 SUB DUP2 DUP6 DUP9 DUP1 EXTCODESIZE ISZERO DUP1 ISZERO PUSH2 0x450 JUMPI PUSH1 0x0 DUP1 REVERT JUMPDEST POP GAS CALL ISZERO DUP1 ISZERO PUSH2 0x464 JUMPI RETURNDATASIZE PUSH1 0x0 DUP1 RETURNDATACOPY RETURNDATASIZE PUSH1 0x0 REVERT JUMPDEST POP POP POP POP POP PUSH1 0x40 MLOAD RETURNDATASIZE PUSH1 0x1F NOT PUSH1 0x1F DUP3 ADD AND DUP3 ADD DUP1 PUSH1 0x40 MSTORE POP DUP2 ADD SWAP1 PUSH2 0x489 SWAP2 SWAP1 PUSH2 0x9A0 JUMP JUMPDEST POP SWAP7 POP POP POP POP SWAP4 POP POP POP PUSH1 0x0 DUP3 GT DUP1 ISZERO PUSH2 0x4A3 JUMPI POP PUSH1 0x0 DUP2 GT JUMPDEST PUSH2 0x4EF JUMPI PUSH1 0x40 MLOAD PUSH3 0x461BCD PUSH1 0xE5 SHL DUP2 MSTORE PUSH1 0x20 PUSH1 0x4 DUP3 ADD MSTORE PUSH1 0x19 PUSH1 0x24 DUP3 ADD MSTORE PUSH32 0x4C6F673A5072696365436F6E74726F6C6C65723A216176673400000000000000 PUSH1 0x44 DUP3 ADD MSTORE PUSH1 0x64 ADD PUSH2 0x1B0 JUMP JUMPDEST DUP1 PUSH2 0x3E4 DUP8 DUP5 PUSH1 0x0 PUSH2 0x74B JUMP JUMPDEST PUSH1 0x0 PUSH2 0x509 PUSH1 0x2 CALLVALUE PUSH2 0xA1D JUMP JUMPDEST PUSH1 0x0 DUP1 SLOAD PUSH1 0x40 MLOAD PUSH4 0x89F4D6E3 PUSH1 0xE0 SHL DUP2 MSTORE PUSH1 0x1 PUSH1 0x1 PUSH1 0xA0 SHL SUB DUP11 DUP2 AND PUSH1 0x4 DUP4 ADD MSTORE DUP9 DUP2 AND PUSH1 0x24 DUP4 ADD MSTORE SWAP4 SWAP5 POP SWAP2 SWAP3 AND SWAP1 PUSH4 0x89F4D6E3 SWAP1 DUP5 SWAP1 PUSH1 0x44 ADD PUSH1 0x80 PUSH1 0x40 MLOAD DUP1 DUP4 SUB DUP2 DUP6 DUP9 DUP1 EXTCODESIZE ISZERO DUP1 ISZERO PUSH2 0x55D JUMPI PUSH1 0x0 DUP1 REVERT JUMPDEST POP GAS CALL ISZERO DUP1 ISZERO PUSH2 0x571 JUMPI RETURNDATASIZE PUSH1 0x0 DUP1 RETURNDATACOPY RETURNDATASIZE PUSH1 0x0 REVERT JUMPDEST POP POP POP POP POP PUSH1 0x40 MLOAD RETURNDATASIZE PUSH1 0x1F NOT PUSH1 0x1F DUP3 ADD AND DUP3 ADD DUP1 PUSH1 0x40 MSTORE POP DUP2 ADD SWAP1 PUSH2 0x596 SWAP2 SWAP1 PUSH2 0x96B JUMP JUMPDEST POP PUSH1 0x0 DUP1 SLOAD PUSH1 0x40 MLOAD PUSH4 0x89F4D6E3 PUSH1 0xE0 SHL DUP2 MSTORE PUSH1 0x1 PUSH1 0x1 PUSH1 0xA0 SHL SUB DUP13 DUP2 AND PUSH1 0x4 DUP4 ADD MSTORE DUP12 DUP2 AND PUSH1 0x24 DUP4 ADD MSTORE SWAP4 SWAP7 POP SWAP2 SWAP5 POP SWAP2 SWAP1 SWAP2 AND SWAP2 POP PUSH4 0x89F4D6E3 SWAP1 DUP6 SWAP1 PUSH1 0x44 ADD PUSH1 0x80 PUSH1 0x40 MLOAD DUP1 DUP4 SUB DUP2 DUP6 DUP9 DUP1 EXTCODESIZE ISZERO DUP1 ISZERO PUSH2 0x5F0 JUMPI PUSH1 0x0 DUP1 REVERT JUMPDEST POP GAS CALL ISZERO DUP1 ISZERO PUSH2 0x604 JUMPI RETURNDATASIZE PUSH1 0x0 DUP1 RETURNDATACOPY RETURNDATASIZE PUSH1 0x0 REVERT JUMPDEST POP POP POP POP POP PUSH1 0x40 MLOAD RETURNDATASIZE PUSH1 0x1F NOT PUSH1 0x1F DUP3 ADD AND DUP3 ADD DUP1 PUSH1 0x40 MSTORE POP DUP2 ADD SWAP1 PUSH2 0x629 SWAP2 SWAP1 PUSH2 0x96B JUMP JUMPDEST POP SWAP3 POP POP POP PUSH1 0x0 DUP3 GT DUP1 ISZERO PUSH2 0x63E JUMPI POP PUSH1 0x0 DUP2 GT JUMPDEST PUSH2 0x68A JUMPI PUSH1 0x40 MLOAD PUSH3 0x461BCD PUSH1 0xE5 SHL DUP2 MSTORE PUSH1 0x20 PUSH1 0x4 DUP3 ADD MSTORE PUSH1 0x19 PUSH1 0x24 DUP3 ADD MSTORE PUSH32 0x4C6F673A5072696365436F6E74726F6C6C65723A216176673500000000000000 PUSH1 0x44 DUP3 ADD MSTORE PUSH1 0x64 ADD PUSH2 0x1B0 JUMP JUMPDEST DUP2 PUSH2 0x697 DUP9 DUP4 PUSH1 0x0 PUSH2 0x74B JUMP JUMPDEST SWAP5 POP SWAP5 POP POP POP POP JUMPDEST SWAP4 POP SWAP4 SWAP2 POP POP JUMP JUMPDEST PUSH1 0x1 SLOAD PUSH1 0x40 MLOAD PUSH4 0x365383D3 PUSH1 0xE1 SHL DUP2 MSTORE PUSH1 0x1 PUSH1 0x1 PUSH1 0xA0 SHL SUB DUP5 DUP2 AND PUSH1 0x4 DUP4 ADD MSTORE PUSH1 0x0 SWAP3 DUP5 DUP3 AND SWAP3 SWAP2 AND SWAP1 PUSH4 0x6CA707A6 SWAP1 PUSH1 0x24 ADD PUSH1 0x20 PUSH1 0x40 MLOAD DUP1 DUP4 SUB DUP2 DUP7 DUP1 EXTCODESIZE ISZERO DUP1 ISZERO PUSH2 0x6F2 JUMPI PUSH1 0x0 DUP1 REVERT JUMPDEST POP GAS STATICCALL ISZERO DUP1 ISZERO PUSH2 0x706 JUMPI RETURNDATASIZE PUSH1 0x0 DUP1 RETURNDATACOPY RETURNDATASIZE PUSH1 0x0 REVERT JUMPDEST POP POP POP POP PUSH1 0x40 MLOAD RETURNDATASIZE PUSH1 0x1F NOT PUSH1 0x1F DUP3 ADD AND DUP3 ADD DUP1 PUSH1 0x40 MSTORE POP DUP2 ADD SWAP1 PUSH2 0x72A SWAP2 SWAP1 PUSH2 0x890 JUMP JUMPDEST PUSH1 0x1 PUSH1 0x1 PUSH1 0xA0 SHL SUB AND EQ ISZERO PUSH2 0x741 JUMPI POP PUSH1 0x1 PUSH2 0x745 JUMP JUMPDEST POP PUSH1 0x0 JUMPDEST SWAP3 SWAP2 POP POP JUMP JUMPDEST PUSH1 0x0 PUSH1 0x12 DUP1 PUSH1 0x1 PUSH1 0x1 PUSH1 0xA0 SHL SUB DUP7 AND ISZERO PUSH2 0x7D6 JUMPI DUP6 PUSH1 0x1 PUSH1 0x1 PUSH1 0xA0 SHL SUB AND PUSH4 0x313CE567 PUSH1 0x40 MLOAD DUP2 PUSH4 0xFFFFFFFF AND PUSH1 0xE0 SHL DUP2 MSTORE PUSH1 0x4 ADD PUSH1 0x20 PUSH1 0x40 MLOAD DUP1 DUP4 SUB DUP2 DUP7 DUP1 EXTCODESIZE ISZERO DUP1 ISZERO PUSH2 0x798 JUMPI PUSH1 0x0 DUP1 REVERT JUMPDEST POP GAS STATICCALL ISZERO DUP1 ISZERO PUSH2 0x7AC JUMPI RETURNDATASIZE PUSH1 0x0 DUP1 RETURNDATACOPY RETURNDATASIZE PUSH1 0x0 REVERT JUMPDEST POP POP POP POP PUSH1 0x40 MLOAD RETURNDATASIZE PUSH1 0x1F NOT PUSH1 0x1F DUP3 ADD AND DUP3 ADD DUP1 PUSH1 0x40 MSTORE POP DUP2 ADD SWAP1 PUSH2 0x7D0 SWAP2 SWAP1 PUSH2 0x9FC JUMP JUMPDEST PUSH1 0xFF AND SWAP2 POP JUMPDEST PUSH1 0x1 PUSH1 0x1 PUSH1 0xA0 SHL SUB DUP5 AND ISZERO PUSH2 0x85C JUMPI DUP4 PUSH1 0x1 PUSH1 0x1 PUSH1 0xA0 SHL SUB AND PUSH4 0x313CE567 PUSH1 0x40 MLOAD DUP2 PUSH4 0xFFFFFFFF AND PUSH1 0xE0 SHL DUP2 MSTORE PUSH1 0x4 ADD PUSH1 0x20 PUSH1 0x40 MLOAD DUP1 DUP4 SUB DUP2 DUP7 DUP1 EXTCODESIZE ISZERO DUP1 ISZERO PUSH2 0x81E JUMPI PUSH1 0x0 DUP1 REVERT JUMPDEST POP GAS STATICCALL ISZERO DUP1 ISZERO PUSH2 0x832 JUMPI RETURNDATASIZE PUSH1 0x0 DUP1 RETURNDATACOPY RETURNDATASIZE PUSH1 0x0 REVERT JUMPDEST POP POP POP POP PUSH1 0x40 MLOAD RETURNDATASIZE PUSH1 0x1F NOT PUSH1 0x1F DUP3 ADD AND DUP3 ADD DUP1 PUSH1 0x40 MSTORE POP DUP2 ADD SWAP1 PUSH2 0x856 SWAP2 SWAP1 PUSH2 0x9FC JUMP JUMPDEST PUSH1 0xFF AND SWAP1 POP JUMPDEST PUSH2 0x867 DUP3 PUSH1 0xA PUSH2 0xA80 JUMP JUMPDEST PUSH2 0x872 DUP3 PUSH1 0xA PUSH2 0xA80 JUMP JUMPDEST PUSH2 0x87C SWAP1 DUP8 PUSH2 0xB28 JUMP JUMPDEST PUSH2 0x886 SWAP2 SWAP1 PUSH2 0xA1D JUMP JUMPDEST SWAP7 SWAP6 POP POP POP POP POP POP JUMP JUMPDEST PUSH1 0x0 PUSH1 0x20 DUP3 DUP5 SUB SLT ISZERO PUSH2 0x8A1 JUMPI DUP1 DUP2 REVERT JUMPDEST DUP2 MLOAD PUSH2 0x8AC DUP2 PUSH2 0xB5D JUMP JUMPDEST SWAP4 SWAP3 POP POP POP JUMP JUMPDEST PUSH1 0x0 DUP1 PUSH1 0x40 DUP4 DUP6 SUB SLT ISZERO PUSH2 0x8C5 JUMPI DUP1 DUP2 REVERT JUMPDEST DUP3 CALLDATALOAD PUSH2 0x8D0 DUP2 PUSH2 0xB5D JUMP JUMPDEST SWAP2 POP PUSH1 0x20 DUP4 ADD CALLDATALOAD PUSH2 0x8E0 DUP2 PUSH2 0xB5D JUMP JUMPDEST DUP1 SWAP2 POP POP SWAP3 POP SWAP3 SWAP1 POP JUMP JUMPDEST PUSH1 0x0 DUP1 PUSH1 0x0 PUSH1 0x60 DUP5 DUP7 SUB SLT ISZERO PUSH2 0x8FF JUMPI DUP1 DUP2 REVERT JUMPDEST DUP4 CALLDATALOAD PUSH2 0x90A DUP2 PUSH2 0xB5D JUMP JUMPDEST SWAP3 POP PUSH1 0x20 DUP5 ADD CALLDATALOAD PUSH2 0x91A DUP2 PUSH2 0xB5D JUMP JUMPDEST SWAP2 POP PUSH1 0x40 DUP5 ADD CALLDATALOAD PUSH2 0x92A DUP2 PUSH2 0xB5D JUMP JUMPDEST DUP1 SWAP2 POP POP SWAP3 POP SWAP3 POP SWAP3 JUMP JUMPDEST PUSH1 0x0 DUP1 PUSH1 0x0 PUSH1 0x60 DUP5 DUP7 SUB SLT ISZERO PUSH2 0x949 JUMPI DUP3 DUP4 REVERT JUMPDEST DUP4 CALLDATALOAD PUSH2 0x954 DUP2 PUSH2 0xB5D JUMP JUMPDEST SWAP3 POP PUSH1 0x20 DUP5 ADD CALLDATALOAD SWAP2 POP PUSH1 0x40 DUP5 ADD CALLDATALOAD PUSH2 0x92A DUP2 PUSH2 0xB5D JUMP JUMPDEST PUSH1 0x0 DUP1 PUSH1 0x0 DUP1 PUSH1 0x80 DUP6 DUP8 SUB SLT ISZERO PUSH2 0x980 JUMPI DUP1 DUP2 REVERT JUMPDEST POP POP DUP3 MLOAD PUSH1 0x20 DUP5 ADD MLOAD PUSH1 0x40 DUP6 ADD MLOAD PUSH1 0x60 SWAP1 SWAP6 ADD MLOAD SWAP2 SWAP7 SWAP1 SWAP6 POP SWAP1 SWAP3 POP SWAP1 POP JUMP JUMPDEST PUSH1 0x0 DUP1 PUSH1 0x0 DUP1 PUSH1 0x0 DUP1 PUSH1 0x0 DUP1 PUSH2 0x100 DUP10 DUP12 SUB SLT ISZERO PUSH2 0x9BC JUMPI DUP4 DUP5 REVERT JUMPDEST POP POP DUP7 MLOAD PUSH1 0x20 DUP9 ADD MLOAD PUSH1 0x40 DUP10 ADD MLOAD PUSH1 0x60 DUP11 ADD MLOAD PUSH1 0x80 DUP12 ADD MLOAD PUSH1 0xA0 DUP13 ADD MLOAD PUSH1 0xC0 DUP14 ADD MLOAD PUSH1 0xE0 SWAP1 SWAP14 ADD MLOAD SWAP6 SWAP15 SWAP5 SWAP14 POP SWAP3 SWAP12 SWAP2 SWAP11 POP SWAP9 POP SWAP1 SWAP7 POP SWAP5 POP SWAP1 SWAP3 POP SWAP1 POP JUMP JUMPDEST PUSH1 0x0 PUSH1 0x20 DUP3 DUP5 SUB SLT ISZERO PUSH2 0xA0D JUMPI DUP1 DUP2 REVERT JUMPDEST DUP2 MLOAD PUSH1 0xFF DUP2 AND DUP2 EQ PUSH2 0x8AC JUMPI DUP2 DUP3 REVERT JUMPDEST PUSH1 0x0 DUP3 PUSH2 0xA38 JUMPI PUSH4 0x4E487B71 PUSH1 0xE0 SHL DUP2 MSTORE PUSH1 0x12 PUSH1 0x4 MSTORE PUSH1 0x24 DUP2 REVERT JUMPDEST POP DIV SWAP1 JUMP JUMPDEST PUSH1 0x1 DUP2 DUP2 JUMPDEST DUP1 DUP6 GT ISZERO PUSH2 0xA78 JUMPI DUP2 PUSH1 0x0 NOT DIV DUP3 GT ISZERO PUSH2 0xA5E JUMPI PUSH2 0xA5E PUSH2 0xB47 JUMP JUMPDEST DUP1 DUP6 AND ISZERO PUSH2 0xA6B JUMPI SWAP2 DUP2 MUL SWAP2 JUMPDEST SWAP4 DUP5 SHR SWAP4 SWAP1 DUP1 MUL SWAP1 PUSH2 0xA42 JUMP JUMPDEST POP SWAP3 POP SWAP3 SWAP1 POP JUMP JUMPDEST PUSH1 0x0 PUSH2 0x8AC DUP4 DUP4 PUSH1 0x0 DUP3 PUSH2 0xA96 JUMPI POP PUSH1 0x1 PUSH2 0x745 JUMP JUMPDEST DUP2 PUSH2 0xAA3 JUMPI POP PUSH1 0x0 PUSH2 0x745 JUMP JUMPDEST DUP2 PUSH1 0x1 DUP2 EQ PUSH2 0xAB9 JUMPI PUSH1 0x2 DUP2 EQ PUSH2 0xAC3 JUMPI PUSH2 0xADF JUMP JUMPDEST PUSH1 0x1 SWAP2 POP POP PUSH2 0x745 JUMP JUMPDEST PUSH1 0xFF DUP5 GT ISZERO PUSH2 0xAD4 JUMPI PUSH2 0xAD4 PUSH2 0xB47 JUMP JUMPDEST POP POP PUSH1 0x1 DUP3 SHL PUSH2 0x745 JUMP JUMPDEST POP PUSH1 0x20 DUP4 LT PUSH2 0x133 DUP4 LT AND PUSH1 0x4E DUP5 LT PUSH1 0xB DUP5 LT AND OR ISZERO PUSH2 0xB02 JUMPI POP DUP2 DUP2 EXP PUSH2 0x745 JUMP JUMPDEST PUSH2 0xB0C DUP4 DUP4 PUSH2 0xA3D JUMP JUMPDEST DUP1 PUSH1 0x0 NOT DIV DUP3 GT ISZERO PUSH2 0xB20 JUMPI PUSH2 0xB20 PUSH2 0xB47 JUMP JUMPDEST MUL SWAP4 SWAP3 POP POP POP JUMP JUMPDEST PUSH1 0x0 DUP2 PUSH1 0x0 NOT DIV DUP4 GT DUP3 ISZERO ISZERO AND ISZERO PUSH2 0xB42 JUMPI PUSH2 0xB42 PUSH2 0xB47 JUMP JUMPDEST POP MUL SWAP1 JUMP JUMPDEST PUSH4 0x4E487B71 PUSH1 0xE0 SHL PUSH1 0x0 MSTORE PUSH1 0x11 PUSH1 0x4 MSTORE PUSH1 0x24 PUSH1 0x0 REVERT JUMPDEST PUSH1 0x1 PUSH1 0x1 PUSH1 0xA0 SHL SUB DUP2 AND DUP2 EQ PUSH2 0xB72 JUMPI PUSH1 0x0 DUP1 REVERT JUMPDEST POP JUMP INVALID LOG2 PUSH5 0x6970667358 0x22 SLT KECCAK256 DUP16 0x2C 0xAD 0xE9 RETURNDATASIZE 0xD1 SWAP13 0x27 0xE5 SELFDESTRUCT 0x2F PUSH9 0xA786A4E575E81BEA66 0xAA RETURN SWAP5 ISZERO 0xCD LOG0 0xFC 0xC4 0xBB 0x26 0xAA PUSH5 0x736F6C6343 STOP ADDMOD DIV STOP CALLER "
		},
		"gasEstimates": {
			"creation": {
				"codeDepositCost": "597400",
				"executionCost": "infinite",
				"totalCost": "infinite"
			},
			"external": {
				"checkNToken(address,address)": "infinite",
				"getDecimalConversion(address,uint256,address)": "infinite",
				"getPriceForPToken(address,address,address)": "infinite"
			}
		},
		"methodIdentifiers": {
			"checkNToken(address,address)": "bf5ca28a",
			"getDecimalConversion(address,uint256,address)": "f9081591",
			"getPriceForPToken(address,address,address)": "0da33aa9"
		}
	},
	"abi": [
		{
			"inputs": [
				{
					"internalType": "address",
					"name": "nestPriceFacade",
					"type": "address"
				},
				{
					"internalType": "address",
					"name": "nTokenController",
					"type": "address"
				}
			],
			"stateMutability": "nonpayable",
			"type": "constructor"
		},
		{
			"inputs": [
				{
					"internalType": "address",
					"name": "tokenOne",
					"type": "address"
				},
				{
					"internalType": "address",
					"name": "tokenTwo",
					"type": "address"
				}
			],
			"name": "checkNToken",
			"outputs": [
				{
					"internalType": "bool",
					"name": "",
					"type": "bool"
				}
			],
			"stateMutability": "view",
			"type": "function"
		},
		{
			"inputs": [
				{
					"internalType": "address",
					"name": "inputToken",
					"type": "address"
				},
				{
					"internalType": "uint256",
					"name": "inputTokenAmount",
					"type": "uint256"
				},
				{
					"internalType": "address",
					"name": "outputToken",
					"type": "address"
				}
			],
			"name": "getDecimalConversion",
			"outputs": [
				{
					"internalType": "uint256",
					"name": "",
					"type": "uint256"
				}
			],
			"stateMutability": "view",
			"type": "function"
		},
		{
			"inputs": [
				{
					"internalType": "address",
					"name": "token",
					"type": "address"
				},
				{
					"internalType": "address",
					"name": "uToken",
					"type": "address"
				},
				{
					"internalType": "address",
					"name": "payback",
					"type": "address"
				}
			],
			"name": "getPriceForPToken",
			"outputs": [
				{
					"internalType": "uint256",
					"name": "tokenPrice",
					"type": "uint256"
				},
				{
					"internalType": "uint256",
					"name": "pTokenPrice",
					"type": "uint256"
				}
			],
			"stateMutability": "payable",
			"type": "function"
		}
	]
}