{
  "_format": "hh-sol-artifact-1",
  "contractName": "PToken",
  "sourceName": "contracts/PToken.sol",
  "abi": [
    {
      "inputs": [
        {
          "internalType": "string",
          "name": "_name",
          "type": "string"
        },
        {
          "internalType": "string",
          "name": "_symbol",
          "type": "string"
        }
      ],
      "stateMutability": "nonpayable",
      "type": "constructor"
    },
    {
      "anonymous": false,
      "inputs": [
        {
          "indexed": true,
          "internalType": "address",
          "name": "owner",
          "type": "address"
        },
        {
          "indexed": true,
          "internalType": "address",
          "name": "spender",
          "type": "address"
        },
        {
          "indexed": false,
          "internalType": "uint256",
          "name": "value",
          "type": "uint256"
        }
      ],
      "name": "Approval",
      "type": "event"
    },
    {
      "anonymous": false,
      "inputs": [
        {
          "indexed": true,
          "internalType": "address",
          "name": "from",
          "type": "address"
        },
        {
          "indexed": true,
          "internalType": "address",
          "name": "to",
          "type": "address"
        },
        {
          "indexed": false,
          "internalType": "uint256",
          "name": "value",
          "type": "uint256"
        }
      ],
      "name": "Transfer",
      "type": "event"
    },
    {
      "inputs": [],
      "name": "_totalSupply",
      "outputs": [
        {
          "internalType": "uint256",
          "name": "",
          "type": "uint256"
        }
      ],
      "stateMutability": "view",
      "type": "function"
    },
    {
      "inputs": [
        {
          "internalType": "address",
          "name": "owner",
          "type": "address"
        },
        {
          "internalType": "address",
          "name": "spender",
          "type": "address"
        }
      ],
      "name": "allowance",
      "outputs": [
        {
          "internalType": "uint256",
          "name": "",
          "type": "uint256"
        }
      ],
      "stateMutability": "view",
      "type": "function"
    },
    {
      "inputs": [
        {
          "internalType": "address",
          "name": "spender",
          "type": "address"
        },
        {
          "internalType": "uint256",
          "name": "value",
          "type": "uint256"
        }
      ],
      "name": "approve",
      "outputs": [
        {
          "internalType": "bool",
          "name": "",
          "type": "bool"
        }
      ],
      "stateMutability": "nonpayable",
      "type": "function"
    },
    {
      "inputs": [
        {
          "internalType": "address",
          "name": "owner",
          "type": "address"
        }
      ],
      "name": "balanceOf",
      "outputs": [
        {
          "internalType": "uint256",
          "name": "",
          "type": "uint256"
        }
      ],
      "stateMutability": "view",
      "type": "function"
    },
    {
      "inputs": [
        {
          "internalType": "address",
          "name": "factory",
          "type": "address"
        }
      ],
      "name": "changeFactory",
      "outputs": [],
      "stateMutability": "nonpayable",
      "type": "function"
    },
    {
      "inputs": [],
      "name": "decimals",
      "outputs": [
        {
          "internalType": "uint8",
          "name": "",
          "type": "uint8"
        }
      ],
      "stateMutability": "view",
      "type": "function"
    },
    {
      "inputs": [
        {
          "internalType": "address",
          "name": "spender",
          "type": "address"
        },
        {
          "internalType": "uint256",
          "name": "subtractedValue",
          "type": "uint256"
        }
      ],
      "name": "decreaseAllowance",
      "outputs": [
        {
          "internalType": "bool",
          "name": "",
          "type": "bool"
        }
      ],
      "stateMutability": "nonpayable",
      "type": "function"
    },
    {
      "inputs": [
        {
          "internalType": "uint256",
          "name": "amount",
          "type": "uint256"
        },
        {
          "internalType": "address",
          "name": "account",
          "type": "address"
        }
      ],
      "name": "destroy",
      "outputs": [],
      "stateMutability": "nonpayable",
      "type": "function"
    },
    {
      "inputs": [],
      "name": "getPTokenFactory",
      "outputs": [
        {
          "internalType": "address",
          "name": "",
          "type": "address"
        }
      ],
      "stateMutability": "view",
      "type": "function"
    },
    {
      "inputs": [
        {
          "internalType": "address",
          "name": "spender",
          "type": "address"
        },
        {
          "internalType": "uint256",
          "name": "addedValue",
          "type": "uint256"
        }
      ],
      "name": "increaseAllowance",
      "outputs": [
        {
          "internalType": "bool",
          "name": "",
          "type": "bool"
        }
      ],
      "stateMutability": "nonpayable",
      "type": "function"
    },
    {
      "inputs": [
        {
          "internalType": "uint256",
          "name": "amount",
          "type": "uint256"
        },
        {
          "internalType": "address",
          "name": "account",
          "type": "address"
        }
      ],
      "name": "issuance",
      "outputs": [],
      "stateMutability": "nonpayable",
      "type": "function"
    },
    {
      "inputs": [],
      "name": "name",
      "outputs": [
        {
          "internalType": "string",
          "name": "",
          "type": "string"
        }
      ],
      "stateMutability": "view",
      "type": "function"
    },
    {
      "inputs": [
        {
          "internalType": "string",
          "name": "_name",
          "type": "string"
        },
        {
          "internalType": "string",
          "name": "_symbol",
          "type": "string"
        }
      ],
      "name": "rename",
      "outputs": [],
      "stateMutability": "nonpayable",
      "type": "function"
    },
    {
      "inputs": [],
      "name": "symbol",
      "outputs": [
        {
          "internalType": "string",
          "name": "",
          "type": "string"
        }
      ],
      "stateMutability": "view",
      "type": "function"
    },
    {
      "inputs": [],
      "name": "totalSupply",
      "outputs": [
        {
          "internalType": "uint256",
          "name": "",
          "type": "uint256"
        }
      ],
      "stateMutability": "view",
      "type": "function"
    },
    {
      "inputs": [
        {
          "internalType": "address",
          "name": "to",
          "type": "address"
        },
        {
          "internalType": "uint256",
          "name": "value",
          "type": "uint256"
        }
      ],
      "name": "transfer",
      "outputs": [
        {
          "internalType": "bool",
          "name": "",
          "type": "bool"
        }
      ],
      "stateMutability": "nonpayable",
      "type": "function"
    },
    {
      "inputs": [
        {
          "internalType": "address",
          "name": "from",
          "type": "address"
        },
        {
          "internalType": "address",
          "name": "to",
          "type": "address"
        },
        {
          "internalType": "uint256",
          "name": "value",
          "type": "uint256"
        }
      ],
      "name": "transferFrom",
      "outputs": [
        {
          "internalType": "bool",
          "name": "",
          "type": "bool"
        }
      ],
      "stateMutability": "nonpayable",
      "type": "function"
    }
  ],
  "bytecode": "0x6000600281905560a060408190526080829052620000219160039190620000cb565b506040805160208101918290526000908190526200004291600491620000cb565b506005805460ff191660121790553480156200005d57600080fd5b50604051620013a2380380620013a2833981016040819052620000809162000224565b815162000095906003906020850190620000cb565b508051620000ab906004906020840190620000cb565b505060058054610100600160a81b031916336101000217905550620002de565b828054620000d9906200028b565b90600052602060002090601f016020900481019282620000fd576000855562000148565b82601f106200011857805160ff191683800117855562000148565b8280016001018555821562000148579182015b82811115620001485782518255916020019190600101906200012b565b50620001569291506200015a565b5090565b5b808211156200015657600081556001016200015b565b600082601f83011262000182578081fd5b81516001600160401b03808211156200019f576200019f620002c8565b604051601f8301601f19908116603f01168101908282118183101715620001ca57620001ca620002c8565b81604052838152602092508683858801011115620001e6578485fd5b8491505b83821015620002095785820183015181830184015290820190620001ea565b838211156200021a57848385830101525b9695505050505050565b6000806040838503121562000237578182fd5b82516001600160401b03808211156200024e578384fd5b6200025c8683870162000171565b9350602085015191508082111562000272578283fd5b50620002818582860162000171565b9150509250929050565b600181811c90821680620002a057607f821691505b60208210811415620002c257634e487b7160e01b600052602260045260246000fd5b50919050565b634e487b7160e01b600052604160045260246000fd5b6110b480620002ee6000396000f3fe608060405234801561001057600080fd5b506004361061011b5760003560e01c806370a08231116100b25780639d8ed85811610081578063a9059cbb11610066578063a9059cbb14610253578063dd62ed3e14610266578063fa3a16681461029f57600080fd5b80639d8ed8581461022d578063a457c2d71461024057600080fd5b806370a08231146101d65780638dec3daa146101ff57806395d89b41146102125780639c7c722b1461021a57600080fd5b806323b872dd116100ee57806323b872dd14610188578063313ce5671461019b57806339509351146101ba5780633eaaf86b146101cd57600080fd5b806306fdde0314610120578063095ea7b31461013e57806311c6e7411461016157806318160ddd14610176575b600080fd5b6101286102c8565b6040516101359190610f14565b60405180910390f35b61015161014c366004610e44565b610356565b6040519015158152602001610135565b61017461016f366004610d8d565b6103d0565b005b6002545b604051908152602001610135565b610151610196366004610e04565b610514565b6005546101a89060ff1681565b60405160ff9091168152602001610135565b6101516101c8366004610e44565b6105d6565b61017a60025481565b61017a6101e4366004610d8d565b6001600160a01b031660009081526020819052604090205490565b61017461020d366004610ef0565b610671565b610128610885565b610174610228366004610e8f565b610892565b61017461023b366004610ef0565b6109be565b61015161024e366004610e44565b610b48565b610151610261366004610e44565b610b8c565b61017a610274366004610dcc565b6001600160a01b03918216600090815260016020908152604080832093909416825291909152205490565b60055461010090046001600160a01b03166040516001600160a01b039091168152602001610135565b600380546102d590610fb4565b80601f016020809104026020016040519081016040528092919081815260200182805461030190610fb4565b801561034e5780601f106103235761010080835404028352916020019161034e565b820191906000526020600020905b81548152906001019060200180831161033157829003601f168201915b505050505081565b60006001600160a01b03831661036b57600080fd5b3360008181526001602090815260408083206001600160a01b03881680855290835292819020869055518581529192917f8c5be1e5ebec7d5bd14f71427d1e84f3dd0314c0f7b2291e5b200ac8c7c3b92591015b60405180910390a350600192915050565b600560019054906101000a90046001600160a01b03166001600160a01b031663289b3c0d6040518163ffffffff1660e01b815260040160206040518083038186803b15801561041e57600080fd5b505afa158015610432573d6000803e3d6000fd5b505050506040513d601f19601f820116820180604052508101906104569190610db0565b6001600160a01b0316336001600160a01b0316146104d5576040517f08c379a000000000000000000000000000000000000000000000000000000000815260206004820152601660248201527f4c6f673a50546f6b656e3a21676f7665726e616e63650000000000000000000060448201526064015b60405180910390fd5b600580546001600160a01b03909216610100027fffffffffffffffffffffff0000000000000000000000000000000000000000ff909216919091179055565b6001600160a01b0383166000908152600160209081526040808320338452909152812054610543908390610f9d565b6001600160a01b0385166000908152600160209081526040808320338452909152902055610572848484610ba2565b6001600160a01b038416600081815260016020908152604080832033808552908352928190205490519081529192917f8c5be1e5ebec7d5bd14f71427d1e84f3dd0314c0f7b2291e5b200ac8c7c3b925910160405180910390a35060019392505050565b60006001600160a01b0383166105eb57600080fd5b3360009081526001602090815260408083206001600160a01b038716845290915290205461061a908390610f85565b3360008181526001602090815260408083206001600160a01b038916808552908352928190208590555193845290927f8c5be1e5ebec7d5bd14f71427d1e84f3dd0314c0f7b2291e5b200ac8c7c3b92591016103bf565b6005546040517f1d8b36340000000000000000000000000000000000000000000000000000000081523360048201526101009091046001600160a01b031690631d8b36349060240160206040518083038186803b1580156106d157600080fd5b505afa1580156106e5573d6000803e3d6000fd5b505050506040513d601f19601f820116820180604052508101906107099190610e6f565b61076f576040517f08c379a000000000000000000000000000000000000000000000000000000000815260206004820152601060248201527f4c6f673a50546f6b656e3a21506f6f6c0000000000000000000000000000000060448201526064016104cc565b6001600160a01b0381166000908152602081905260409020548211156107f1576040517f08c379a000000000000000000000000000000000000000000000000000000000815260206004820152601360248201527f4c6f673a50546f6b656e3a2164657374726f790000000000000000000000000060448201526064016104cc565b6001600160a01b038116600090815260208190526040902054610815908390610f9d565b6001600160a01b03821660009081526020819052604090205560025461083c908390610f9d565b6002556040518281526000906001600160a01b038316907fddf252ad1be2c89b69c2b068fc378daa952ba7f163c4a11628f55a4df523b3ef906020015b60405180910390a35050565b600480546102d590610fb4565b600560019054906101000a90046001600160a01b03166001600160a01b031663289b3c0d6040518163ffffffff1660e01b815260040160206040518083038186803b1580156108e057600080fd5b505afa1580156108f4573d6000803e3d6000fd5b505050506040513d601f19601f820116820180604052508101906109189190610db0565b6001600160a01b0316336001600160a01b031614610992576040517f08c379a000000000000000000000000000000000000000000000000000000000815260206004820152601660248201527f4c6f673a50546f6b656e3a21676f7665726e616e63650000000000000000000060448201526064016104cc565b81516109a5906003906020850190610c4f565b5080516109b9906004906020840190610c4f565b505050565b6005546040517f1d8b36340000000000000000000000000000000000000000000000000000000081523360048201526101009091046001600160a01b031690631d8b36349060240160206040518083038186803b158015610a1e57600080fd5b505afa158015610a32573d6000803e3d6000fd5b505050506040513d601f19601f82011682018060405250810190610a569190610e6f565b610abc576040517f08c379a000000000000000000000000000000000000000000000000000000000815260206004820152601060248201527f4c6f673a50546f6b656e3a21506f6f6c0000000000000000000000000000000060448201526064016104cc565b6001600160a01b038116600090815260208190526040902054610ae0908390610f85565b6001600160a01b038216600090815260208190526040902055600254610b07908390610f85565b6002556040518281526001600160a01b038216906000907fddf252ad1be2c89b69c2b068fc378daa952ba7f163c4a11628f55a4df523b3ef90602001610879565b60006001600160a01b038316610b5d57600080fd5b3360009081526001602090815260408083206001600160a01b038716845290915290205461061a908390610f9d565b6000610b99338484610ba2565b50600192915050565b6001600160a01b038316600090815260208190526040902054610bc6908290610f9d565b6001600160a01b038085166000908152602081905260408082209390935590841681522054610bf6908290610f85565b6001600160a01b038381166000818152602081815260409182902094909455518481529092918616917fddf252ad1be2c89b69c2b068fc378daa952ba7f163c4a11628f55a4df523b3ef910160405180910390a3505050565b828054610c5b90610fb4565b90600052602060002090601f016020900481019282610c7d5760008555610cc3565b82601f10610c9657805160ff1916838001178555610cc3565b82800160010185558215610cc3579182015b82811115610cc3578251825591602001919060010190610ca8565b50610ccf929150610cd3565b5090565b5b80821115610ccf5760008155600101610cd4565b600082601f830112610cf8578081fd5b813567ffffffffffffffff80821115610d1357610d13611037565b604051601f83017fffffffffffffffffffffffffffffffffffffffffffffffffffffffffffffffe0908116603f01168101908282118183101715610d5957610d59611037565b81604052838152866020858801011115610d71578485fd5b8360208701602083013792830160200193909352509392505050565b600060208284031215610d9e578081fd5b8135610da981611066565b9392505050565b600060208284031215610dc1578081fd5b8151610da981611066565b60008060408385031215610dde578081fd5b8235610de981611066565b91506020830135610df981611066565b809150509250929050565b600080600060608486031215610e18578081fd5b8335610e2381611066565b92506020840135610e3381611066565b929592945050506040919091013590565b60008060408385031215610e56578182fd5b8235610e6181611066565b946020939093013593505050565b600060208284031215610e80578081fd5b81518015158114610da9578182fd5b60008060408385031215610ea1578182fd5b823567ffffffffffffffff80821115610eb8578384fd5b610ec486838701610ce8565b93506020850135915080821115610ed9578283fd5b50610ee685828601610ce8565b9150509250929050565b60008060408385031215610f02578182fd5b823591506020830135610df981611066565b6000602080835283518082850152825b81811015610f4057858101830151858201604001528201610f24565b81811115610f515783604083870101525b50601f017fffffffffffffffffffffffffffffffffffffffffffffffffffffffffffffffe016929092016040019392505050565b60008219821115610f9857610f98611008565b500190565b600082821015610faf57610faf611008565b500390565b600181811c90821680610fc857607f821691505b60208210811415611002577f4e487b7100000000000000000000000000000000000000000000000000000000600052602260045260246000fd5b50919050565b7f4e487b7100000000000000000000000000000000000000000000000000000000600052601160045260246000fd5b7f4e487b7100000000000000000000000000000000000000000000000000000000600052604160045260246000fd5b6001600160a01b038116811461107b57600080fd5b5056fea2646970667358221220a75fe3217ba3d7fb3d8a64d7c3163bf155b3c8c6863adfe43d6368d09b66327264736f6c63430008040033",
  "linkReferences": {},
  "deployedLinkReferences": {}
}